:020000040800F2
:1000000080B400203DD400089123020829D40008C0
:1000100029D4000829D4000829D4000800000000D1
:1000200000000000000000000000000095D400085F
:1000300029D400080000000079D60008F909010859
:10004000F1D60008F1D60008F1D60008F1D6000874
:10005000F1D60008F1D60008F1D60008F1D6000864
:10006000F1D60008F1D60008F1D60008F1D6000854
:10007000F1D60008F1D60008F1D60008F1D6000844
:10008000F1D60008F1D60008F1D60008F1D6000834
:10009000F1D60008F1D60008F1D60008F1D6000824
:1000A000F1D60008F1D60008F1D60008F1D6000814
:1000B000F1D60008F1D60008F1D60008F1D6000804
:1000C000F1D60008F1D60008F1D60008F1D60008F4
:1000D000F1D60008F1D60008F1D60008F1D60008E4
:1000E000F1D60008F1D60008F1D60008F1D60008D4
:1000F000F1D60008F1D60008F1D60008F1D60008C4
:10010000F1D60008F1D60008F1D60008F1D60008B3
:04011000F1D600081C
:1001180081F0004102E000BF83F0004330B54FEAB0
:1001280041044FEA430594EA050F08BF90EA020F1D
:100138001FBF54EA000C55EA020C7FEA645C7FEAB0
:10014800655C00F0E2804FEA5454D4EB5555B8BFD3
:100158006D420CDD2C4480EA020281EA030382EA44
:10016800000083EA010180EA020281EA0303362DD6
:1001780088BF30BD11F0004F4FEA01314FF4801CA9
:100188004CEA113102D0404261EB410113F0004FBB
:100198004FEA03334CEA133302D0524263EB430372
:1001A80094EA050F00F0A780A4F10104D5F1200E10
:1001B8000DDB02FA0EFC22FA05F2801841F100016B
:1001C80003FA0EF2801843FA05F359410EE0A5F13F
:1001D80020050EF1200E012A03FA0EFC28BF4CF070
:1001E800020C43FA05F3C01851EBE37101F0004526
:1001F80007D54FF0000EDCF1000C7EEB00006EEB33
:100208000101B1F5801F1BD3B1F5001F0CD34908BC
:100218005FEA30004FEA3C0C04F101044FEA445213
:1002280012F5800F80F09A80BCF1004F08BF5FEA9A
:10023800500C50F1000041EB045141EA050130BD7A
:100248005FEA4C0C404141EB0101013C28BFB1F58C
:10025800801FE9D291F0000F04BF01460020B1FAD7
:1002680081F308BF2033A3F10B03B3F120020CDAAA
:100278000C3208DD02F1140CC2F10C0201FA0CF088
:1002880021FA02F10CE002F11402D8BFC2F1200CED
:1002980001FA02F120FA0CFCDCBF41EA0C019040A3
:1002A800E41AA2BF01EB0451294330BD6FEA0404EC
:1002B8001F3C1CDA0C340EDC04F11404C4F12002D7
:1002C80020FA04F001FA02F340EA030021FA04F3E9
:1002D80045EA030130BDC4F10C04C4F1200220FA40
:1002E80002F001FA04F340EA0300294630BD21FA7E
:1002F80004F0294630BD94F0000F83F4801306BF44
:1003080081F480110134013D4EE77FEA645C18BF37
:100318007FEA655C29D094EA050F08BF90EA020FCE
:1003280005D054EA000C04BF1946104630BD91EAC6
:10033800030F1EBF0021002030BD5FEA545C05D1C9
:100348004000494128BF41F0004130BD14F5800408
:100358003CBF01F5801130BD01F0004545F0FE417C
:1003680041F470014FF0000030BD7FEA645C1ABFB1
:10037800194610467FEA655C1CBF0B46024650EAE8
:10038800013406BF52EA033591EA030F41F4002114
:1003980030BD00BF90F0000F04BF0021704730B59A
:1003A8004FF4806404F132044FF000054FF000016F
:1003B80050E700BF90F0000F04BF0021704730B530
:1003C8004FF4806404F1320410F0004548BF404205
:1003D8004FF000013EE700BF42004FEAE2014FEA5A
:1003E80031014FEA02701FBF12F07F4393F07F4F35
:1003F80081F06051704732F07F4208BF704793F038
:100408007F4F04BF41F40021704730B54FF460744A
:1004180001F0004521F000411CE700BF50EA01024D
:1004280008BF704730B54FF000050AE050EA0102F6
:1004380008BF704730B511F0004502D5404261EB66
:1004480041014FF4806404F132045FEA915C3FF4A7
:10045800D8AE4FF003025FEADC0C18BF03325FEA44
:10046800DC0C18BF033202EBDC02C2F1200300FAF5
:1004780003FC20FA02F001FA03FE40EA0E0021FA1A
:1004880002F11444BDE600BF70B54FF0FF0C4CF408
:10049800E06C1CEA11541DBF1CEA135594EA0C0FBA
:1004A80095EA0C0F00F0DEF82C4481EA030621EAF5
:1004B8004C5123EA4C5350EA013518BF52EA033530
:1004C80041F4801143F4801338D0A0FB02CE4FF0E2
:1004D8000005E1FB02E506F00042E0FB03E54FF012
:1004E8000006E1FB03569CF0000F18BF4EF0010E0A
:1004F800A4F1FF04B6F5007F64F5407404D25FEA06
:100508004E0E6D4146EB060642EAC62141EA5551B8
:100518004FEAC52040EA5E504FEACE2EB4F1FD0CFA
:1005280088BFBCF5E06F1ED8BEF1004F08BF5FEA78
:10053800500E50F1000041EB045170BD06F000462A
:1005480046EA010140EA020081EA0301B4EB5C04D7
:10055800C2BFD4EB0C0541EA045170BD41F48011CF
:100568004FF0000E013C00F3AB8014F1360FDEBFF4
:10057800002001F0004170BDC4F10004203C35DAD0
:100588000C341BDC04F11404C4F1200500FA05F353
:1005980020FA04F001FA05F240EA020001F00042F4
:1005A80021F0004110EBD37021FA04F642EB06016A
:1005B8005EEA430E08BF20EAD37070BDC4F10C0494
:1005C800C4F1200500FA04F320FA05F001FA04F258
:1005D80040EA020001F0004110EBD37041F1000144
:1005E8005EEA430E08BF20EAD37070BDC4F120054F
:1005F80000FA05F24EEA020E20FA04F301FA05F2B7
:1006080043EA020321FA04F001F0004121FA04F25E
:1006180020EA020000EBD3705EEA430E08BF20EA2E
:10062800D37070BD94F0000F0FD101F00046400068
:1006380041EB010111F4801F08BF013CF7D041EAEA
:10064800060195F0000F18BF704703F000465200EE
:1006580043EB030313F4801F08BF013DF7D043EABF
:100668000603704794EA0C0F0CEA135518BF95EA75
:100678000C0F0CD050EA410618BF52EA4306D1D1FC
:1006880081EA030101F000414FF0000070BD50EA1B
:10069800410606BF1046194652EA430619D094EAA5
:1006A8000C0F02D150EA013613D195EA0C0F05D18F
:1006B80052EA03361CBF104619460AD181EA0301E3
:1006C80001F0004141F0FE4141F470014FF000009B
:1006D80070BD41F0FE4141F4780170BD70B54FF036
:1006E800FF0C4CF4E06C1CEA11541DBF1CEA1355B6
:1006F80094EA0C0F95EA0C0F00F0A7F8A4EB050498
:1007080081EA030E52EA03354FEA013100F088808E
:100718004FEA03334FF0805545EA131343EA126357
:100728004FEA022245EA111545EA10654FEA00260C
:100738000EF000419D4208BF964244F1FD0404F5C5
:10074800407402D25B084FEA3202B61A65EB030521
:100758005B084FEA32024FF480104FF4002CB6EBDE
:10076800020E75EB030E22BFB61A754640EA0C005E
:100778005B084FEA3202B6EB020E75EB030E22BF9E
:10078800B61A754640EA5C005B084FEA3202B6EBDF
:10079800020E75EB030E22BFB61A754640EA9C009E
:1007A8005B084FEA3202B6EB020E75EB030E22BF6E
:1007B800B61A754640EADC0055EA060E18D04FEA2C
:1007C800051545EA16754FEA06164FEAC30343EACC
:1007D80052734FEAC2025FEA1C1CC0D111F4801F99
:1007E8000BD141EA00014FF000004FF0004CB6E792
:1007F80011F4801F04BF01430020B4F1FD0C88BF31
:10080800BCF5E06F3FF6AFAEB5EB030C04BFB6EB3B
:10081800020C5FEA500C50F1000041EB045170BD2E
:100828000EF0004E4EEA113114EB5C04C2BFD4EB5B
:100838000C0541EA045170BD41F480114FF0000EDF
:10084800013C90E645EA060E8DE60CEA135594EA5B
:100858000C0F08BF95EA0C0F3FF43BAF94EA0C0F5E
:100868000AD150EA01347FF434AF95EA0C0F7FF4D3
:1008780025AF104619462CE795EA0C0F06D152EA27
:1008880003353FF4FDAE1046194622E750EA41060B
:1008980018BF52EA43067FF4C5AE50EA41047FF41C
:1008A8000DAF52EA43057FF4EBAE12E74FF0FF3C81
:1008B80006E000BF4FF0010C02E000BF4FF0010C52
:1008C8004DF804CD4FEA410C7FEA6C5C4FEA430CCB
:1008D80018BF7FEA6C5C1BD001B050EA410C0CBF1A
:1008E80052EA430C91EA030F02BF90EA020F00207C
:1008F800704710F1000F91EA030F58BF994208BFE3
:1009080090422CBFD8176FEAE37040F0010070479F
:100918004FEA410C7FEA6C5C02D150EA013C07D1F6
:100928004FEA430C7FEA6C5CD6D152EA033CD3D041
:100938005DF8040B704700BF8446104662468C463B
:100948001946634600E000BF01B5FFF7B7FF00286E
:1009580048BF10F1000F01BD4DF808EDFFF7F4FF97
:100968000CBF012000205DF808FB00BF4DF808ED22
:10097800FFF7EAFF34BF012000205DF808FB00BF45
:100988004DF808EDFFF7E0FF94BF012000205DF867
:1009980008FB00BF4DF808EDFFF7CEFF94BF01201C
:1009A80000205DF808FB00BF4DF808EDFFF7C4FF15
:1009B80034BF012000205DF808FB00BF4FEA410268
:1009C80012F5001215D211D56FF47873B3EB625299
:1009D80012D94FEAC12343F0004343EA505311F0C0
:1009E800004F23FA02F018BF404270474FF0000052
:1009F800704750EA013005D111F0004008BF6FF090
:100A0800004070474FF00000704700BF4A0011D205
:100A180012F5001211D20DD56FF47873B3EB625250
:100A28000ED44FEAC12343F0004343EA505323FA5C
:100A380002F070474FF00000704750EA013002D1D1
:100A48004FF0FF3070474FF0000070474FEA410207
:100A5800B2F1E04324BFB3F5001CDCF1FE5C0DD914
:100A680001F0004C4FEAC0024CEA5070B2F1004F5E
:100A780040EB830008BF20F00100704711F0804F61
:100A880021D113F13872BCBF01F00040704741F426
:100A980080114FEA5252C2F11802C2F1200C10FA2A
:100AA8000CF320FA02F018BF40F001004FEAC1230E
:100AB8004FEAD32303FA0CFC40EA0C0023FA02F3B2
:100AC8004FEA4303CCE77FEA625307D150EA013388
:100AD8001EBF4FF0FE4040F44000704701F0004058
:100AE80040F0FE4040F40000704700BF80F0004036
:100AF80002E000BF81F0004142001FBF5FEA4103EE
:100B080092EA030F7FEA226C7FEA236C6AD04FEAED
:100B18001262D2EB1363C1BFD21841404840414032
:100B2800B8BF5B42192B88BF704710F0004F40F4E4
:100B3800000020F07F4018BF404211F0004F41F400
:100B4800000121F07F4118BF494292EA030F3FD0CC
:100B5800A2F1010241FA03FC10EB0C00C3F12003DF
:100B680001FA03F100F0004302D5494260EB40006E
:100B7800B0F5000F13D3B0F1807F06D340084FEAD9
:100B8800310102F10102FE2A51D2B1F1004F40EBCE
:100B9800C25008BF20F0010040EA03007047490036
:100BA80040EB0000013A28BFB0F5000FEDD2B0FAD3
:100BB80080FCACF1080CB2EB0C0200FA0CF0AABFF6
:100BC80000EBC25052421843BCBFD0401843704794
:100BD80092F0000F81F4000106BF80F4000001329A
:100BE800013BB5E74FEA41037FEA226C18BF7FEA71
:100BF800236C21D092EA030F04D092F0000F08BFB3
:100C08000846704790EA010F1CBF0020704712F099
:100C18007F4F04D1400028BF40F00040704712F1D8
:100C280000723CBF00F50000704700F0004343F03D
:100C3800FE4040F4000070477FEA226216BF084673
:100C48007FEA23630146420206BF5FEA412390EA36
:100C5800010F40F4800070474FF0000304E000BF2C
:100C680010F0004348BF40425FEA000C08BF7047DD
:100C780043F0964301464FF000001CE050EA0102A1
:100C880008BF70474FF000030AE000BF50EA0102B6
:100C980008BF704711F0004302D5404261EB4101A3
:100CA8005FEA010C02BF84460146002043F0B643C8
:100CB80008BFA3F18053A3F50003BCFA8CF2083AED
:100CC800A3EBC25310DB01FA02FC634400FA02FCF6
:100CD800C2F12002BCF1004F20FA02F243EB0200FD
:100CE80008BF20F00100704702F1200201FA02FC5F
:100CF800C2F1200250EA4C0021FA02F243EB020052
:100D080008BF20EADC7070474FF0FF0C1CEAD05295
:100D18001EBF1CEAD15392EA0C0F93EA0C0F6FD056
:100D28001A4480EA010C400218BF5FEA41211ED034
:100D38004FF0006343EA501043EA5111A0FB013120
:100D48000CF00040B1F5000F3EBF490041EAD371F5
:100D58005B0040EA010062F17F02FD2A1DD8B3F171
:100D6800004F40EBC25008BF20F00100704790F0E0
:100D7800000F0CF0004C08BF49024CEA502040EA32
:100D880051207F3AC2BFD2F1FF0340EAC2507047F8
:100D980040F400004FF00003013A5DDC12F1190F36
:100DA800DCBF00F000407047C2F10002410021FAA8
:100DB80002F1C2F1200200FA02FC5FEA310040F1C0
:100DC800000053EA4C0308BF20EADC70704792F039
:100DD800000F00F0004C02BF400010F4000F013A71
:100DE800F9D040EA0C0093F0000F01F0004C02BF6C
:100DF800490011F4000F013BF9D041EA0C018FE7DB
:100E08000CEAD15392EA0C0F18BF93EA0C0F0AD0E0
:100E180030F0004C18BF31F0004CD8D180EA010006
:100E280000F00040704790F0000F17BF90F0004F9F
:100E3800084691F0000F91F0004F14D092EA0C0F81
:100E480001D142020FD193EA0C0F03D14B0218BF14
:100E5800084608D180EA010000F0004040F0FE405A
:100E680040F40000704740F0FE4040F440007047F6
:100E78004FF0FF0C1CEAD0521EBF1CEAD15392EA75
:100E88000C0F93EA0C0F69D0A2EB030280EA010C65
:100E980049024FEA402037D04FF0805343EA1111FE
:100EA80043EA10130CF000408B4238BF5B0042F15C
:100EB8007D024FF4000C8B4224BF5B1A40EA0C0001
:100EC800B3EB510F24BFA3EB510340EA5C00B3EB33
:100ED800910F24BFA3EB910340EA9C00B3EBD10F21
:100EE80024BFA3EBD10340EADC001B0118BF5FEA73
:100EF8001C1CE0D1FD2A3FF650AF8B4240EBC2509C
:100F080008BF20F0010070470CF0004C4CEA50205C
:100F18007F32C2BFD2F1FF0340EAC250704740F4AB
:100F280000004FF00003013A37E792F0000F00F09D
:100F3800004C02BF400010F4000F013AF9D040EA1B
:100F48000C0093F0000F01F0004C02BF490011F4AF
:100F5800000F013BF9D041EA0C0195E70CEAD153A7
:100F680092EA0C0F08D142027FF47DAF93EA0C0F8E
:100F78007FF470AF084676E793EA0C0F04D14B0272
:100F88003FF44CAF08466EE730F0004C18BF31F024
:100F9800004CCAD130F000427FF45CAF31F000431E
:100FA8007FF43CAF5FE700BF4FF0FF3C06E000BFB7
:100FB8004FF0010C02E000BF4FF0010C4DF804CDDA
:100FC8004FEA40024FEA41037FEA226C18BF7FEAEA
:100FD800236C11D001B052EA530C18BF90EA010FEC
:100FE80058BFB2EB030088BFC81738BF6FEAE1707B
:100FF80018BF40F0010070477FEA226C02D15FEA17
:10100800402C05D17FEA236CE4D15FEA412CE1D082
:101018005DF8040B704700BF844608466146FFE749
:101028000FB5FFF7C9FF002848BF10F1000F0FBD2B
:101038004DF808EDFFF7F4FF0CBF012000205DF824
:1010480008FB00BF4DF808EDFFF7EAFF34BF0120A9
:1010580000205DF808FB00BF4DF808EDFFF7E0FF42
:1010680094BF012000205DF808FB00BF4DF808ED93
:10107800FFF7D2FF94BF012000205DF808FB00BFF6
:101088004DF808EDFFF7C8FF34BF012000205DF8D8
:1010980008FB00BF4FEA40024FEA41037FEA226C97
:1010A80002D15FEA402C08D17FEA236C02D15FEAC3
:1010B800412C02D14FF0000070474FF001007047FB
:1010C8004FEA4002B2F1FE4F0FD34FF09E03B3EB4D
:1010D80012620DD94FEA002343F0004310F0004F8D
:1010E80023FA02F018BF404270474FF000007047E3
:1010F80012F1610F01D1420205D110F0004008BF82
:101108006FF0004070474FF00000704742000ED269
:10111800B2F1FE4F0BD34FF09E03B3EB126209D42A
:101128004FEA002343F0004323FA02F070474FF0E0
:101138000000704712F1610F01D1420202D14FF055
:10114800FF3070474FF00000704700BF7BB972B99D
:101158000029BEBF00204FF0004106E008BF00286C
:101168001CBF6FF000414FF0FF3000F057B8ADF1F1
:10117800080C6DE904CE002909DB002B1ADB00F00E
:101188007CF8DDF804E0DDE9022304B07047404252
:1011980061EB4101002B1BDB00F06FF8DDF804E088
:1011A800DDE9022304B0404261EB4101524263EBA6
:1011B80043037047524263EB430300F05EF8DDF8E7
:1011C80004E0DDE9022304B0404261EB41017047CD
:1011D800524263EB430300F050F8DDF804E0DDE928
:1011E800022304B0524263EB4303704753B94AB930
:1011F800002908BF00281CBF4FF0FF314FF0FF3017
:1012080000F00CB8ADF1080C6DE904CE00F035F82B
:10121800DDF804E0DDE9022304B07047704700BF41
:1012280010F8012B11F8013B012A28BF9A42F7D088
:10123800D01A7047034611F8012B03F8012B002A36
:10124800F9D17047034613F8012B002AFBD1181A6D
:1012580001387047430803F05533C01A00F03333A0
:10126800800800F03330184400EB10104FF00133C1
:1012780000F00F305843000E70472DE9F0478C46B8
:101288008E46089E154604461946002B40F0D0802D
:10129800724547D9B2FA82F74FB1C7F120030EFA67
:1012A80007FC20FA03F3BD4043EA0C0CBC404FEAAC
:1012B800154EA8B2BCFBFEF8230C0EFB18CC08FB9D
:1012C80000F943EA0C43994528D9EB1808F1FF3295
:1012D80004D2994502D9A8F102022B44A3EB0903D1
:1012E800A4B2B3FBFEFC0EFB1C330CFB00F044EA7B
:1012F8000344A04214D92C190CF1FF3304D2A042A4
:1013080002D9ACF102032C44241A43EA02401EB16C
:10131800FC40002334607360BDE8F0874246DDE797
:101328006346F1E7002A79D0B2FA82F3002B3FD066
:101338001946C1F1200302FA01F52EFA03F20EFA5A
:1013480001FE20FA03F343EA0E034FEA154E00FAB2
:1013580001F4B2FBFEFCAFB20EFB1C201A0C0CFB16
:1013680007F842EA004290455AD9AA180CF1FF3012
:1013780004D2904502D9ACF102002A44A2EB08023B
:101388009BB2B2FBFEFC0EFB1C220CFB07F743EAE8
:1013980002439F4246D9EB180CF1FF3204D29F4218
:1013A80002D9ACF102022B44DB1B42EA004202E004
:1013B800AEEB020301224FEA154EAFB2B3FBFEFCBF
:1013C800200C0EFB1C330CFB07F840EA034398453E
:1013D8002AD9EB180CF1FF3004D2984502D9ACF1A8
:1013E80002002B44A3EB0803A4B2B3FBFEFC0EFBE4
:1013F8001C330CFB07F744EA0344A74216D92C19FF
:101408000CF1FF3304D2A74202D9ACF102032C44F9
:10141800E41B43EA00400F46114678E71F2188E79E
:101428006046ABE76246BFE76046DBE76346EFE747
:10143800734506D916B9002108466DE7C6E9000EBE
:10144800F9E7B3FA83F787B9734501D3824207D81E
:10145800841A6EEB030301209C461EB900215BE74A
:101468003846FAE7C6E9004CF8E7C7F1200CBB405C
:1014780022FA0CF51D4320FA0CF12EFA0CF30EFAA1
:1014880007FE41EA0E014FEA154900FA07F4B3FBDB
:10149800F9F81FFA85FE09FB18300B0C08FB0EFA49
:1014A80043EA00439A4502FA07F240D9EB1808F1DB
:1014B800FF3004D29A4502D9A8F102002B44A3EBCD
:1014C8000A0389B2B3FBF9F809FB183308FB0EFECF
:1014D80041EA03418E452CD9691808F1FF3304D23B
:1014E8008E4502D9A8F10203294443EA0040A0FB33
:1014F8000298A1EB0E014145CE46434602D306D1E0
:101508004C4504D2B9EB020E68EB05030138002EF6
:10151800A4D0B4EB0E0261EB030101FA0CFC22FA31
:1015280007F34CEA0303F940C6E9003196E7404661
:10153800C5E74346D9E700002DE9F04F8E078FB085
:101548000F46144640F18F801AF0C1FD002800F0C4
:101558008A8004A81AF0C9FD002800F0848094F855
:10156800C15094F8C03005F10A0898457BDADDE9E6
:101578000401FEF75BFF98A3D3E90023FFF7AEF859
:10158800FFF764FA9649FFF7BFFB00210646FFF70D
:1015980059FD4FF07C5100286CD03046FFF7AAFA6D
:1015A800FFF78EFD8146DDE90601FEF73FFF8AA3BE
:1015B800D3E90023FFF792F8FFF748FA8849FFF7C5
:1015C800A3FB00210646FFF73DFD4FF07C510028A4
:1015D80054D03046FFF78EFAFFF772FD064608989A
:1015E800FFF73EFB7F49FFF743FC7F49FFF78CFB82
:1015F80000218246FFF726FD4FF07C51002841D09C
:101608005046FFF777FAFFF75BFD01236355EB18A8
:10161800DBB28822E254AB1CDBB24FEA2942E25427
:10162800EB1CDBB24FEA2922E2542B1DDBB2321449
:1016380004F803906B1DDBB2E254AB1DDBB232122F
:10164800E254EB1DDBB20214E65405F10803DBB2E9
:10165800E25405F10903DBB202120B35E25484F8B7
:10166800C15004F808007D0700F1AC8001200FB0DC
:10167800BDE8F08F3046FFF73FFA91E73046FFF7B5
:101688003BFAA9E75046FFF737FABCE7404603F0B4
:10169800E5F980B909F101034D465FFA83F904A918
:1016A800404603F0EDF940B108F1010803F0D0F924
:1016B8004045EBDCDAE70125F1E7BDF81070F806E4
:1016C8001DD5DDF824B051465846FFF7BBFC00286D
:1016D80073D146495846FFF7D3FC00286FD15846C6
:1016E800FFF714FDFFF7B8FA0022CDE901620222E4
:1016F8000346009265212A4620461AF051FDF90753
:101708000AD502230A22CDE900320296059B2A4611
:10171800672120461AF044FDBB070BD502234FF082
:10172800000CCDE9013C0096069B2A46682120461C
:101738001AF036FD78070BD50A230021CDE90131CF
:10174800022300932A46079B732120461AF028FD9E
:101758003A0709D502230093CDE90166089B2A467A
:10176800792120461AF01CFDBB060AD50223642005
:10177800CDE9003002960A9B2A46742120461AF0C9
:101788000FFD79060BD502234FF47A72CDE90032AA
:1017980002960B9B2A46752120461AF001FD3B064E
:1017A80082D50023CDE90163022300932A460C9BCE
:1017B800802120461AF0F4FC76E7D3468FE74FF6EF
:1017C800FF708FE74FF000084FF0020901264FF035
:1017D800000A6BE7AFF300800000000065CDCD4143
:1017E80000401C4600007A440000C84200FF7F47C2
:1017F80030B50D468FB0194640F201130446CDE9C5
:101808000135104610A3D3E90023FEF73DFEFFF78C
:10181800D5F80DA3D3E900230390DDE91201FEF703
:1018280033FEFFF7CBF80023049006A901A805931F
:101838001AF056FD06AA034604F50671204618F06C
:10184800ACFE0FB030BD00BF0000000080842E4108
:10185800F0B5072A99B0044605D806211DF064FAA8
:10186800012019B0F0BD00F58055002700F500569D
:1018780085F8507985F8D07AD6F8940218B120F016
:1018880049FAC6F89472002704F51950C6E9A677F4
:10189800C6F85476183025F0D0FA012386F8363683
:1018A800A06E03681B68984704F5195300F6B83012
:1018B80043E9020786F8507620461FF07EFE95F829
:1018C800D1387BB196F8503663B9D6F8F0344BB1BD
:1018D800204608F019FB28B1A06F03681B689847D9
:1018E800C6F8F00440F20513ADF8043095F8B437A3
:1018F8008DF8063016238DF8073002AE04F506730E
:1019080004F50E7718685968324603C20833BB429B
:101918001646F7D104F5BD512DA3D3E9002351E9AB
:101928000201FEF7B1FDFFF749F804F5BC5110318B
:1019380027A3D3E900230646D1E90001FEF7A4FD59
:10194800FFF73CF895F8DF378DF8303095F8F43725
:101958008DF8313095F88B3895F88C281E499B0006
:1019680043EA021395F88A281343CDE90A068DF84D
:101978003230D5F8B00795F889388DF83330FFF74D
:10198800C3F9FFF7C3FB14490D90D5F8E007FFF73B
:10199800BBF9FFF7BBFB04F5BB560C36B5F8DC37D3
:1019A8000E901F213046ADF83C3028F035F831460E
:1019B800054602460DF13E0027F092FF05F13A0276
:1019C80001A920461DF097F94AE700BFAFF3008050
:1019D8000000000080842E4100007A4400000000CE
:1019E800082A70B5044637D9481C1CF08FFF204AD6
:1019F800204E0244B24203462ED8481D1CF086FFF2
:101A08001D4A9042054627DBB04225DC1846FEF702
:101A1800D1FC15A3D3E90023FEF760FE04F5BC56FC
:101A2800C6E904012846FEF7C5FC0FA3D3E9002345
:101A3800FEF754FE04F5BD5646E9020104F580534D
:101A480004F5BB51D3F83809083106F061FD20468A
:101A58001DF05FF9012070BD062120461DF064F9D4
:101A6800F8E700BFAFF300800000000080842E413B
:101A7800804A5D050095BA0A006B45F50000000034
:101A88002DE9F041151D9AB006460F46284699499A
:101A98001C46FFF7C5FB30B9974920461AB0BDE888
:101AA800F041FFF7C7BB95490A22284627F052FFA5
:101AB800C8B9736993F88120914B197991420BD178
:101AC8001B68904A0092904A4FF48071204615F0A6
:101AD800FBFE1AB0BDE8F0810130042803F10803C9
:101AE800EBD18A4BEDE78A490722284627F032FFD7
:101AF80080B9736993F88220864B1979914202D193
:101B08001B68854ADEE70130042803F10803F4D195
:101B18007E4BF6E781490422284627F01BFF40B98F
:101B2800736993F880207E4B7E49002A08BF0B46D4
:101B38002FE07D490622284627F00CFF58B9736923
:101B480093F82C0103F072FD054603F081FD774AF6
:101B580000902B46B8E776491522284627F0FAFE6A
:101B680020B9736993F84F30724A13E072490F2213
:101B7800284627F0EFFE20B9736993F84E305B00D2
:101B8800F2E76E490E22284627F0E4FE50B9736941
:101B980058336B4A4FF4807120461AB0BDE8F041C3
:101BA80015F092BEDFB967490722284627F0D2FE12
:101BB800A8B9B06903685B6D984740220AA918F074
:101BC800ACFA1C3602460AA9304601F0DFFD33465E
:101BD8005B4A4FF48071204615F076FE79E75A4942
:101BE8000422284627F0B6FE10B973690433D0E7FB
:101BF80056490622284627F0ADFE18B9736993F8AE
:101C08004D2090E752490322284627F0A3FE58B9F1
:101C18007369D3E90A23CDE900234E4A4FF4807152
:101C2800204615F051FE54E74B490322284627F079
:101C380091FE18B97369D3E90C23ECE747491022E0
:101C4800284627F087FE18B9736993F87E308BE72A
:101C580043491222284627F07DFE18B9736993F884
:101C68007D3081E73F490922284627F073FE18B9DD
:101C7800736993F87C3077E73B491222284627F0AE
:101C880069FE38B97369D86EFEF7A6FB374ACDE905
:101C98000001C3E736490A22284627F05BFE90B9BF
:101CA80022463E2302F8023B202363707169973174
:101CB80011F8013F0BB913700BE70A2B08BF7C23FF
:101CC80002F8013BF4E72B490B22284627F042FE95
:101CD800002859D1736993F831310BB92649DCE6EC
:101CE800012B01D12549D8E6022B0CBF24492549EF
:101CF800D3E600BFF1E20208F4E2020818E30208A2
:101D080084B502082AE3020823E3020848D9020836
:101D180048E3020864B502081CF4020850E302080C
:101D28000FDA02086FE6020855E302085CE30208CE
:101D380066E302086BDF02086CE302087CE3020832
:101D4800F2D402088BE30208F0DE0208F4D6020897
:101D5800ECD6020893E30208F0D602089AE30208D8
:101D6800ABE30208BEE30208C8E3020864DF020826
:101D7800DBE30208E6E30208F2E30208F8E30208FC
:101D880002E402080DE40208A1490A22284627F0C5
:101D9800E1FD78B99F492046FFF74CFAB06903681E
:101DA8005B6D984720220146A01C1AB0BDE8F0419F
:101DB80001F0ECBC98490422284627F0CBFD28B94D
:101DC800B0690368DB6898470346E2E693490E2248
:101DD800284627F0BFFD08B991495EE691490D22D2
:101DE800284627F0B7FD08B98F4956E68F491122D2
:101DF800284627F0AFFDB0B935682B682846D3E9E7
:101E08001737984701462846B84736683368054665
:101E1800D3E919373046984701463046B847844ACF
:101E280000902B4650E683490D22284627F092FD64
:101E38000028D9D080490E22284627F08BFD50B9BA
:101E48003068036820229B6B0AA9984708B10AAB3F
:101E5800BEE67A4921E67A490E22284627F07AFD1D
:101E680028BB30680368DB68984700210746FFF7FE
:101E7800DFF808B1734910E6306803681B689847B3
:101E880005463846FEF7A8FA6DB16F4B6F4A1B68D6
:101E98001B88CDE90001CDE902534FF4807120463B
:101EA80015F012FD15E6CDE90001694AB6E6694963
:101EB8000622284627F04EFD20B9736993F812319F
:101EC800654A67E665490E22284627F043FD08B9AA
:101ED8006349E2E563490C22284627F03BFD18B91F
:101EE8000AF03CFC0346EBE75F490922284627F045
:101EF80031FD18B9736993F91F31E1E75B4908228D
:101F0800284627F027FD90B977B196F8E010C1F17F
:101F1800A1013E23237002392023A01C63701AB04C
:101F2800BDE8F04102F04EBD4FF48071F1E7504931
:101F38000822284627F00EFD38B91AF0D0F80346D3
:101F480000287FF411AE4B49A7E54B4903222846E8
:101F580027F000FD002846D11AF0B9F800283FF410
:101F6800BDAE07A81AF0C9F89DF81C30022B96BF21
:101F7800424A434D52F823500AA81AF0B6F8BDF861
:101F88001E6000B3DDE90C01FEF750FA1EA3D3E989
:101F98000023FEF7A3FBCDE90401DDE90A01FEF702
:101FA80045FA19A3D3E90023FEF798FB089B354AA5
:101FB800CDE90201CDE900634FF480712B4620463C
:101FC80015F082FC85E5099B4BB1CDE900632E4AEB
:101FD8002B464FF48071204615F076FC79E52B4AA4
:101FE80000962B4670E52A490B22284627F0B2FCBA
:101FF80000284FD1B0690368D3F88030984703466A
:10200800B2E500BFAFF300800000000065CDCD4110
:1020180016E4020887DB020821E4020826E4020825
:1020280035E4020843E4020851E4020877E40208B0
:1020380089E40208A3E40208B1E40208C0E4020843
:10204800CAE40208D9E40208CCB00208FAE402089B
:1020580025E502083EE502081DE0020845E50208FC
:1020680054E5020878E5020850DF020885E5020811
:102078008EE5020897E502084CD4020858B5020814
:10208800C2E40208A7E50208DBE5020801E6020847
:102098001EE6020857490E22284627F05BFC18B9AD
:1020A800736993F818315FE553490922284627F0E8
:1020B80051FCC8B9AFB196F8E050C5F1A1054F4A37
:1020C8002946204615F000FC0146B06903686A1AE3
:1020D800D3F888302144984700287FF4FAAC48495F
:1020E800DBE44FF48075EAE746490822284627F0E2
:1020F80031FC28B97369444993F81621434B14E518
:1021080043490A22284627F025FC18B9736993F930
:102118001731D5E63F490B22284627F01BFC38B972
:10212800736993F81931002B7FF41EAD3A49B4E472
:102138003A492846FFF774F808B93949ADE43949EE
:102148000822284627F006FC002847D036490C22EA
:10215800284627F0FFFB002848D1B0690368D3F868
:102168009830984705460028B9D0002F3BD096F8FC
:10217800E070C7F1A107706803681B68984780463C
:102188001FF019FC736993F81531003B18BF012340
:1021980001934FF47A720023FEF7D8FF434600906C
:1021A8003A462146284602F021FF92E41F4A204978
:1021B800002D18BF4246384615F0B0FB0135032DF7
:1021C80007443FF486AC73692B4493F81A31002B0B
:1021D800ECD1002D7FF47DAC16495EE4DFF8588021
:1021E80027460546EFE74FF48077C4E7134A2B46A6
:1021F800D0E400BF2AE6020839E6020887DB0208B5
:10220800B5DC020843E602080FDA02086FE60208A6
:102218004CE6020857E6020863E602085ADE02089E
:102228006DE6020872E60208FADC02081CF40208ED
:102238007BE6020880E6020889D8020897E60208C9
:102248001BA3D3E90023C0E900231BA3D3E9002380
:10225800C0E902231AA3D3E90023C0E904231AA37F
:10226800D3E90023C0E9062319A3D3E90023C0E971
:10227800082319A3D3E90023C0E90A2318A3D3E943
:102288000023C0E90C2318A3D3E900230021C0E9E7
:102298000E2300220023C0E93023C0E93223C0F80E
:1022A800D0108022403027F042BB00BFAFF300803F
:1022B80008C9BCF367E6096A3BA7CA8485AE67BB51
:1022C8002BF894FE72F36E3CF1361D5F3AF54FA57C
:1022D800D182E6AD7F520E511F6C3E2B8C68059B58
:1022E8006BBD41FBABD9831F79217E1319CDE05B10
:1022F8002DE9F04F31F0004387B081460E4607467E
:102308000C460DD180F480077F0017F5000F40F2CE
:10231800528331464846FEF7EFFB07B0BDE8F08F21
:1023280020F00048B8F1FF4F014602D8B3F1FF4F43
:1023380008D9B7F17E5FECD184F48004640014F509
:10234800000FE4E7002823DAB3F1974F80F03883D1
:10235800B3F17E5F36D3DA15C2F1960243FA02F57D
:1023680005FA02F29A4225D105F00105C5F10205E8
:10237800B3F17E5F27D1002C7EDA00214846FEF7B4
:1023880057FEC8B1F80F07B0BDE8F04F17F034B9E1
:10239800B3F1FF4F0ED1B8F17E5F00F00C8304D982
:1023A800002C80F20B830020B7E7002CFBDA06F143
:1023B8000040B2E70025DBE749464FF07E50FEF7C4
:1023C80057FDAAE70025B4F1804F424640F0FE824F
:1023D800B8F1BF4F20D2B8F1D05F04D9494648467A
:1023E800FEF792FC99E729F00040B8F1000F40D0C1
:1023F800F90F01390391294324D0B3F19A4F40F2E0
:10240800D780654B984539D8002C3CDA002007B0B6
:10241800BDE8F04F17F0E8B827F0404CBCF17E5FFC
:1024280029F000401AD1002C04DA01464FF07E5002
:10243800FEF71EFD002FBFF670AFA8F17E5858EAD0
:10244800050805D1484607B0BDE8F04F17F0DCB8DD
:10245800012D7FF462AF00F100405EE7B8F1000F94
:10246800C6D1002C05DA17B16B1E594259410846EE
:1024780089E7012D7FF451AF48464EE7474B984511
:1024880007D9002CC2DC002007B0BDE8F04F27F0C8
:102498004CBD4FF07E51FEF72DFB41490746FEF734
:1024A80033FC404981463846FEF72EFC804638A169
:1024B800D1E90001FEF7CAFA4FF07A518246384650
:1024C800FEF722FC01465046FEF714FB3946FEF79C
:1024D8001BFC01464FF07C50FEF70CFB3946824648
:1024E8003846FEF711FC01465046FEF70DFC2E4912
:1024F800FEF70AFC01464046FEF7FCFA0146804614
:102508004846FEF7F9FA20F47F6727F00F07494697
:102518003846FEF7EFFA01464046FEF7EBFA039B12
:10252800013D6FF30B041D438046214630460CBF26
:102538001E4D4FF07E55FEF7DDFA3946FEF7E4FBF7
:10254800314681464046FEF7DFFB01464846FEF726
:10255800D3FA214606463846FEF7D6FB014607461B
:102568003046FEF7C9FA00280446804620F00043AA
:1025780040F34481B3F1864F40F22D810021284673
:10258800FEF760FD003818BF012040E7AFF3008078
:10259800E13D55555555D53FF3FF7F3F0700803F37
:1025A80000AAB83F70A5EC363BAAB83F000080BF30
:1025B80017F0FF4F40F00B814FF09741FEF7A4FB57
:1025C8006FF017010246D3157F3B0B4496490293DF
:1025D800C2F316028A4242F07E5308DD93498A42CA
:1025E80040F3F780029A01320292A3F50003002714
:1025F8008F4A049352F827B0184659469A46FEF770
:1026080079FA514681465846FEF776FA01464FF068
:102618007E50FEF72DFC014605904846FEF774FBF8
:102628000190019B83496FF30B039846049B01EAD1
:10263800630343F0005303F5800303EB475341461C
:1026480018460493FEF760FB01464846FEF752FA27
:10265800049B814659461846FEF74CFA01465046F7
:10266800FEF748FA4146FEF74FFB01464846FEF79B
:1026780041FA059A1146FEF747FB01998346084639
:10268800FEF742FB6C498146FEF73EFB6B49FEF7BD
:1026980033FA4946FEF738FB6949FEF72DFA4946F1
:1026A800FEF732FB6749FEF727FA4946FEF72CFB8F
:1026B8006549FEF721FA4946FEF726FB6349FEF70E
:1026C8001BFA494682464846FEF71EFB014650461D
:1026D800FEF71AFB414681460198FEF70DFA594666
:1026E800FEF712FB4946FEF707FA41468246404686
:1026F800FEF70AFB56490490FEF7FEF95146FEF72D
:10270800FBF920F47F6929F00F0941464846FEF796
:10271800FBFA4F4980464846FEF7ECF90499FEF764
:10272800E9F901465046FEF7E5F90199FEF7ECFA9A
:10273800494682465846FEF7E7FA01465046FEF7F4
:10274800DBF9834601464046FEF7D6F920F47F6957
:1027580029F00F093F494846FEF7D6FA4146824616
:102768004846FEF7C7F901465846FEF7C3F93A4905
:10277800FEF7CAFA394980464846FEF7C5FA0146C7
:102788004046FEF7B9F9364B53F82710FEF7B4F96F
:1027980080460298FEF764FA324B53F827B0814618
:1027A80041465046FEF7A8F95946FEF7A5F94946AD
:1027B800FEF7A2F920F47F6727F00F07494638464D
:1027C800FEF798F95946FEF795F95146A1E600211A
:1027D800F9E601270CE74BD123493046FEF78CF97F
:1027E800394681462046FEF785F901464846FEF7F8
:1027F80047FC00287FF4C2AE86233EE01B4A934282
:1028080007D900212846FEF71DFC003818BF012013
:102818003AE62DD13946FEF76DF93146FEF726FC2A
:102828000028E9D0EDE700BF71C41C00D6B35D00F5
:1028380070CF020800F0FFDF42F1533E55326C3E84
:1028480005A38B3EABAAAA3EB76DDB3E9A99193F0A
:10285800000040400040763F4F38763FC623F6B828
:1028680060CF020868CF02083CAA3833000016433C
:10287800B3F17C5F40F29B80DB157E3B4FF4000494
:102888001C414444C4F3C75357497F3B1941214075
:10289800C4F31604C3F1170344F400041C41B8F14F
:1028A800000F3846B8BF6442FEF724F907463146A0
:1028B8003846FEF721F920F47F6929F00F094B49C2
:1028C8004846FEF721FA394680464846FEF712F98F
:1028D80001463046FEF70EF94549FEF715FA454917
:1028E80006464846FEF710FA01463046FEF704F958
:1028F800074601464046FEF7FFF841460646FEF702
:10290800F9F801463846FEF7F5F831468046304674
:10291800FEF7FAF938490746FEF7F6F93749FEF7A0
:10292800E9F83946FEF7F0F93549FEF7E5F8394692
:10293800FEF7EAF93349FEF7DDF83946FEF7E4F920
:102948003149FEF7D9F83946FEF7DEF90146304637
:10295800FEF7D0F8074601463046FEF7D5F94FF0A6
:10296800804181463846FEF7C5F801464846FEF7DD
:102978007FFA414607463046FEF7C6F94146FEF75C
:10298800BBF801463846FEF7B5F83146FEF7B2F80F
:1029980001464FF07E50FEF7ADF800EBC453B3F597
:1029A800000F06DA214616F0C1FD294618E5002475
:1029B8007DE71846F9E74FF07E50AEE43046ACE4C8
:1029C800B3F1FF4F3FF4E7AC42460225B4F17C5F18
:1029D8007FF422AD002FFFF61FAD484607B0BDE8D3
:1029E800F04F27F036BB00BF000080FF0072313F78
:1029F8001872313F8CBEBF354CBB31330EEADD3522
:102A080055B38A38610B363BABAA2A3E10B5002174
:102A1800074BC0F890110446C0E96011C0E9621183
:102A2800C0F894314FF4C07226F081FF204610BDE3
:102A3800CDCC4C3E30B5024601780D4853880D4C3C
:102A4800C1F38301484002F14901C2F1FF22082B7A
:102A580002F57F0204FB00F028BF0823B73255189F
:102A6800AB4200DC30BD11F8015F68406043F6E717
:102A7800C59D1C81930100012DE9F04104460D46D6
:102A88000746002642F210783B7B3BB17B68EB1A85
:102A9800434503D93146204616F0CEFD0136182E9F
:102AA80007F11007F0D1D4F88C3133B3154AEB1A7B
:102AB800934222D9D4F88431FBB1D4F8903123B9A8
:102AC800A5F59C53083BC4F8903103F51C414031EF
:102AD80041F2873641F28830EA1AB2420BD9D4F86B
:102AE800842142B10344A2EBD2028B42C4F8842170
:102AF800C4F89031F0D1BDE8F0810023C4F89031DA
:102B0800F9E700BFE093040070B5C1F51C55034612
:102B1800024600F5C07611356FF00040147B34B1E1
:102B280054682C4424EAE474A04228BF204610329A
:102B3800B242F3D1D3F88C2192B1D3F884417CB15D
:102B48000D4C8D1AA5420CD9D3F890312BB1C1F593
:102B58009C5108310B4423EAE373984228BF184676
:102B680070BDC1F5922101F2E131114421EAE17110
:102B7800884228BF0846F3E7E093040010B5D0F870
:102B88008831032B26DDD0F88401FEF765F84FF075
:102B98006E51FEF7B9F800210446FEF75DFAE0B978
:102BA8004FF081412046FDF7A7FF01462046FEF77A
:102BB8005FF90B49FEF7A8F80A49FDF79DFF4FF0AA
:102BC8007E510446FEF75CFA10B14FF07E5010BDFE
:102BD8002046FCE74FF07C50F9E70248F7E700BFD2
:102BE8009A99193FCDCCCC3E004870471CF4020896
:102BF8000048704780EE360030B5C0E91912104D14
:102C0800C36601220023C0E90433C0E90633C0E9E2
:102C18000E33C0E91233C0E90A33C0E90C33C0E906
:102C28001533C0E917330560436080F84430036406
:102C3800A0F87030036280F82420A0F8503030BD2E
:102C480048AC020870B5B8B001460446684625F09D
:102C58004CFF9DF80030013BDBB2FD2B38D8274BE9
:102C680028AA03F1400618685968154603C50833B1
:102C7800B3422A46F7D1224B08AA03F12006186866
:102C88005968154603C50833B3422A46F7D108A93F
:102C980020A812F069FC20AA214610A825F0D1FE30
:102CA800694620A812F060FC20AA28A918A825F0D7
:102CB800C8FE202218A910A818F04DF9044658B9E2
:102CC800202110A818F081F9202118A818F07DF902
:102CD8000024204638B070BD10A9002311F8012B3C
:102CE8001AB90133202BF9D1144610A8202118F065
:102CF8006CF9202118A818F068F9EAE7A8CF0208AB
:102D0800E9CF02082DE9F04F0A7802F00303023BED
:102D1800012BF3B005460C4670D802F03C06242E71
:102D28000B795BD13F2B1CD84E88082E19D991F806
:102D3800527007F00302093E9340F6B21FFA83FC73
:102D4800664510D801F153020368029201F10A02A4
:102D5800CDE9007203961D6ED1F84A20D1F84E30A5
:102D6800A847002037E00121533301FA02F200F5A9
:102D78000671E01826F0EEFD0028F2D12B682146F6
:102D88005B6C284698470028EBD0E86F036821461B
:102D98001B6898470028E4D1E86F036821465B6800
:102DA800984794F90201FDF75BFF4FF07A51FDF760
:102DB800ABFF4FF08141FDF7A7FFFEF781F92379BB
:102DC8005A1C2344227198722B682146DB6C2846D2
:102DD800984740F0C06073B0BDE8F08F2C2E03F028
:102DE8003F030AD191F94A60002E80F2B782002B86
:102DF800B7D103685B6F9847B3E76BBB104617F012
:102E0800AAFA002840F080802378C3F383020F2AAF
:102E1800A7D801A151F822F0BB2F0008BB2F00084A
:102E2800BB2F0008792F0008FB3100086F3100081C
:102E38006F310008EB300008BB2F00086B2D00082D
:102E4800E53200086B2D00086B2D00086B2D00087B
:102E58006B2D0008B53200080C2E08D14B88032BC7
:102E680005D90368D1F84A20D3F8843098472279E5
:102E78009209013205F5067104F10A0026F06AFD8F
:102E880000287FF46EAF2B6821465B6C2846984774
:102E980000283FF466AF2378C3F383030A2B04D1D9
:102EA8002146284617F040FD5BE7E86F0268032BD0
:102EB8001268214613D19047064600287FF451AF87
:102EC800E86F036821465B6898472146284617F053
:102ED800FEFA32462146284617F0CFFC41E79047D4
:102EE80000287FF43EAFE86F036821465B68984787
:102EF8002146284617F0EBFA2B682146DB6C28465A
:102F0800984740F0807066E72B6821461B6C28467E
:102F1800984700287FF425AF207817F01CFA00287E
:102F28003FF472AF2046FFF785FD0646A86E03689A
:102F38001B68984705F1800702463146384616F067
:102F4800C1FB20B13146284617F01FFA5CE72B6811
:102F580028469B6B984700283FF456AFA86E036835
:102F68001B68984731460246384616F085FB4BE702
:102F78006388032B7FF6F5AEE86FD4F84A600368E0
:102F880021461B68984700287FF4EBAEE86F03687A
:102F980021465B6898472B683246D3F8843021462F
:102FA800284698472146284673B0BDE8F04F17F0E9
:102FB800AEBA0DF1200A94F84B308AF800306388D5
:102FC80094F84A70042B7FF6CCAEE86F036821466C
:102FD8001B689847064600287FF4C3AEE86F03686D
:102FE80021465B68984795F81832BB4268D12B6830
:102FF80051465B6D2846984704F14C0B814610AF4B
:103008000DF1C408B1455BDD2B6832469B6D39462E
:103018002846984763885A46023B4146384617F087
:10302800B1FF031E5BDD2278C2F38302082A4CD16C
:1030380098F800900793484617F0F6FD00283FD00F
:103048004FEA991109F03F02079B01FB0222501C2D
:10305800834235DD02329B1ADBB24244296803926F
:10306800049318F8003003F00F03CDE901930DF134
:10307800C508CDF80080D1F864B03B4632462146F9
:103088002846D847D0B1207817F065F9B0B10023A9
:10309800CDE90233019323790093514604F10A03E1
:1030A8003A46284617F0CCFA014638B14FF4FA737D
:1030B800009342464B46284617F028FDFF2323700D
:1030C8002146284617F023FA85E629680097CDE9B6
:1030D80001832846CF6D33462146B847EEE70136CF
:1030E80090E76388232B7FF63CAEE86F94F84A603C
:1030F800036821461B68984700287FF432AEE86FC2
:10310800036821465B68984795F81832B3427FF404
:1031180049AF04F14B0608AA04F16B0730687168DF
:10312800134603C30836BE421A46F7D108AA10A9A7
:1031380005F5067017F0C2F8638831AF213B3246B7
:10314800394610A817F01EFF00287FF72BAF2B6811
:10315800CDE9007010AADE6E214608AB2846B047BC
:10316800FF2323701EE708AF94F84A303B7063884A
:10317800032B7FF6F6ADE86F036821461B68984776
:10318800064600287FF4EDADE86F036821465B68CA
:1031980098472B680DF14009D3F87C803946042301
:1031A8004A462846C04704F14B0A07460DF1410834
:1031B8000DF1C40BB74283DD63884046013B52469C
:1031C800594617F0DFFE002808F121080FDD2B68AB
:1031D8002278CDE900B006EB4616D3F88070C2F32A
:1031E800830209EB060321462846B84768E70136FB
:1031F800E0E710A816F02DFF10AE04F14A0304F121
:103208006A0718685968324603C20833BB42164633
:10321800F7D16388632B7FF6A4AD202210A905F5AA
:10322800067026F097FB00283FF49BADE86FD4F8B2
:103238006AA0036821461B68984700287FF491AD6F
:10324800E86F036821465B6810AF98470FCF0DF110
:10325800C4094E460FC6B4F8028097E80F00A8F1DB
:103268006408B8F1200FA8BF4FF0200804F1AE0B96
:1032780086E80F00424659463AA8CDF8E4A026F061
:103288002FFB08F124034A4604F16E0110A816F03A
:10329800E8FE00283FF465AD2B68CDE900B810AA18
:1032A8009E6E214653462846B04709E703F00303BC
:1032B800023B012B3FF655ADE86F036821461B68BA
:1032C800984700287FF44DADE86F036821465B6896
:1032D80098472B6821469B6F28468CE56288022A0E
:1032E8007FF63FAD94F84A3003F00F03032B7FF4C9
:1032F80038AD042A7FF635AD31AE304617F08FFC75
:1033080023788DF8C4304022237904F10A010DF1A5
:10331800CE0017F0AAFC62888DF8C800013A92B274
:1033280004F14B010DF58770ADF8C62026F0D8FAE8
:10333800E86F036831461B68984700287FF411AD91
:10334800E86F036831465B6898472B68DDF80E2103
:10335800D3F8843031462846984702E5002B3FF4DD
:103368004DAD84E538B50B4B1C786CB901220A4D7C
:103378001A700023294609481A46013417F056FDE9
:10338800202C05F58275F4D1BDE8384003480021AA
:1033980017F028BD887400200454002044430020FE
:1033A800014BD3F82001704720420020014BD3F88D
:1033B8002001704744430020014817F013BD00BFA7
:1033C80020420020044BD3F820219142BABF283173
:1033D80053F821000020704720420020054BD3F805
:1033E80020018142BDBF2831012043F8212000205F
:1033F800704700BF2042002021B1002302481A462E
:1034080017F014BD704700BF4443002070B50B4B44
:103418000022D3F8206103F19C05FF208033B242DB
:1034280000DB70BD55F8044F641A002C03DC9C5C6B
:10343800A04228BF20460132F1E700BF2042002009
:103448002DE9F0470546904699460F4699B31B4E1D
:10345800304617F0EBFC044668BBD6F8200118B3D9
:1034680006F17F0C21462346A04214DC0E4496F850
:103478008030434518D9114817F0B4FC2B68014631
:103488005B68284698474B46424639460B48BDE894
:10349800F04717F0CBBC1CF8012F9A4234BF1A46EC
:1034A800214613460134DFE72B68394628465B6816
:1034B800BDE8F0471847BDE8F08700BF204200206C
:1034C800F0B4114A0C46D2F8207102F19C06002390
:1034D8004FF0FF31FF208032BB4205DB4B1C0FD081
:1034E800F0BC094817F07EBC56F8045F2D1B002D70
:1034F80004DCD55C85423CBF194628460133EBE71E
:103508000020F0BC704700BF2042002030B50A4BB5
:103518004A1CD3F820510DD000229C331046AA42F1
:1035280000DB30BD53F8044F641A002CD8BF0130BB
:103538000132F4E72846F4E720420020002907DB9F
:10354800044BD3F82021914202DA53F82100704746
:10355800002070472042002038B50E4D002428195D
:1035680004F5827417F05BFBB4F5025FF7D10A4BE0
:103578000024214680221846C3F8204126F0D7F9B6
:10358800064BC3F82041214618468022BDE8384042
:1035980026F0CDB9045400204443002020420020E6
:1035A8002DE9F0438DB00D4612F00F019DF85090B3
:1035B800804614461E4604D04FF0FF300DB0BDE8DB
:1035C800F083184B0693142207A826F0B0F9B9F136
:1035D800000F0CBF4FF400734FF48073124F089321
:1035E800102204AB414606A8099725F09AFD002849
:1035F800E2D105ABCDE901430498009623462A465B
:103608003946B9F1000F09D012F068FC0446049855
:1036180025F06BFD002CCFD10598CFE712F0FAFC0E
:10362800F4E700BF00248000004440042DE9F04185
:1036380094B007460C4616460021142207A81D46DA
:1036480026F075F94FF48853DFF85C80ADF8183030
:103658004FF48073ADF81A304FF48063CDE9083821
:10366800202204AB394606A825F05BFD28B14FF0AF
:10367800FF34204614B0BDE8F08105AB0293202347
:1036880001930CAB0093224604983346414625F03B
:10369800E4FE0446049825F028FD002CE7D1BDF887
:1036A80030302B80E5E700BF0900800330B58DB0CE
:1036B8000D4611461A4603AB019320230093044696
:1036C80004AB0A4825F0F9FD2A4630B1002120460E
:1036D8000DB0BDE8304026F02AB9202D28BF2022A1
:1036E80004A9204626F0FCF80DB030BD0900000200
:1036F8002DE9F043A7B004460D4616460021702276
:103708000AA8DDE92E891F4626F011F916490AA8EC
:1037180025F084FDE8B93A4631460AA825F09FFD10
:10372800B8B94A4641460AA825F099FD88B901ABBF
:10373800202202A90AA825F0A9FD50B9202D2A4661
:1037480002A928BF2022204626F0CAF827B0BDE8E3
:10375800F0830AA825F053FD2A460021204627B009
:10376800BDE8F04326F0E3B80900000208B5054BB0
:10377800002814BF0146194603481EF0C9FC012061
:1037880009F0CCFA0AD0020816D00208F0B50B4DA1
:103798008E180346B14203F1020303D1002300F857
:1037A8001230F0BD11F8014B270904F00F04EF5D4A
:1037B8002C5D03F8027C03F8014CEBE7B8FA020829
:1037C8002DE9F041DFF8348005460C468F18BC42DD
:1037D80001D1BDE8F08114F8016B2B6832099B68B0
:1037E80018F802102846984706F00F062B6818F8B4
:1037F80006109B6828469847E9E700BFB8FA020810
:10380800004870470000C07F0048704736D0020863
:1038180008B503491046FDF70DFD002008BD00BF9F
:1038280043D0020830B51448134D8BB000227021E4
:1038380001F0BAFD041E19DD2246691C284626F04F
:103848005DF8013C02A801F08FFE60B16F2C0ADC24
:10385800039B019305AB0093084A029BC4F17001D6
:10386800281914F031F804480BB030BD0449284633
:10387800FDF7E0FC0724E5E78974002079D0020809
:1038880071D0020838B504464FF0FF324FF0FF33CD
:103898000F480FF0B3FF23F023FC00230A22FDF7A3
:1038A800A5FCD4E90253002B08DB421B42F2107539
:1038B80061EB0303AA4273F1000303DBC4E90201CD
:1038C8000023E380E488024810F03CF8204638BD25
:1038D8005C05002008B503681B689847BDE80840E8
:1038E8000146014819F09CB9CCB0020807B5064B4F
:1038F8008DF8070001220DF10701044801F024FFAB
:1039080003B05DF804FB00BF96D00208A6D00208F9
:1039180073B5124B124C1D7815B1207802B070BDEA
:10392800012610481E7018F055FF0028F5D00D48E4
:103938008DF8035001AB32460DF10301019518F0E3
:1039480062FF38B1019B2BB19DF80330012B08BFF2
:103958004C232370034818F048FFDEE7FA74002070
:10396800F9740020A6D002084C28024607D0552832
:1039780007D0054B0548002A08BF18467047044879
:1039880070470448704700BFB2D0020871D00208DF
:10399800B7D00208C3D002083E28024630D016D855
:1039A800142830D00AD80A2830D00F2831D0204B1C
:1039B80041F68460072A18BF184670471F282BD085
:1039C8001B4B4AF2C320292A18BF18467047B0F586
:1039D800FA7F24D00AD8FA2823D0B0F5C87F22D09D
:1039E800134B1448C82A18BF18467047B0F5487FCB
:1039F8001BD00F4B1048B2F57A7F18BF1846704796
:103A08004FF22440704745F26110704742F6B1000A
:103A1800704743F60950704747F612207047074829
:103A2800704707487047074870470748704700BF06
:103A380048E80100F818030040420F0020A10700E1
:103A480090D00300F0310600E0630C0070B5036904
:103A580093F87430073B052B0D4614462ED8184AA8
:103A680052F823603046FDF70BFB38BB2046FDF7C4
:103A7800F7F84FF06E51FDF747F901464FF07E50C9
:103A8800FDF738F8314604462846FDF733F80D4966
:103A9800FDF7EEF901462046FDF736F90021044608
:103AA800FDF7D0FA50B94FF07E512046FDF7E8FAFD
:103AB80010B14FF07E5070BD2046FCE70020FAE7B9
:103AC80064AE02080000204170B5044617F0BCFB44
:103AD800D4F88039D4F88429054653EA02004DD039
:103AE8005B1B62EB0102012B72F100003EDB6FF001
:103AF8000040834272F1000200DA1846B4F8683ACE
:103B08009BB394F95A3A803314D0D4F8602AD4F885
:103B1800646A521B66EB0106012A76F1000327DB73
:103B28006FF000439A4276F1000600DA1346984295
:103B380028BF1846D4F8703AD4F8742A53EA020415
:103B48001CD00F4C1B1942F100025B1B62EB0101F8
:103B5800012B71F100020DDB6FF00042934271F10D
:103B6800000109DA984228BF184670BD0020C5E751
:103B78000023DCE70023F5E71346F3E70020F4E72A
:103B8800009749012DE9F04F8BB004468846174647
:103B980017F003FB814638B9694A394640460BB0ED
:103BA800BDE8F04F13F090BED4F89809002800F053
:103BB8009280D4F89C290A235A43D4F8A039642166
:103BC8004B4302EB500203EB5003B2FBF0F2B3FBA2
:103BD800F0F094F8573A04F6A81A27EAE771002B90
:103BE8007BD194F854CA574D574B94F9556ABCF198
:103BF800000F08BF2B460A250590B2FBF5F005FB20
:103C08001022CDE9030209EB0602CDE90062CDF8E6
:103C180008904E4A404613F057FEC72F05464044C9
:103C28005FDDD4F89C3A0393D4F8983A0293D4F819
:103C3800943A0193D4F8903A0093791BD4F89839C0
:103C4800434A13F041FE054408EB0500791B94F83C
:103C5800583A404A13F038FE0544204617F0FBFB5B
:103C6800014640B9AF4208EB0500C8BF791B3A4A84
:103C780013F02AFE0A35504618F00FF883465046CE
:103C880018F021F85E45B8BF5E468642B246A8BF26
:103C980082460AF1FF36B345CABF0BF102030AF1A7
:103CA80001035E468342C8BF861E6FF00702C8BF85
:103CB80003469642B8BF16460C2BA8BF0C2309939F
:103CC80004EBC6044FF0640B099B9E420DDD2846A9
:103CD8000BB0BDE8F08F02467BE794F9566A1F4B9C
:103CE80089E7AF42B2DC0021B1E7B4F8EC29B4F8B7
:103CF800F0C91AB353080BFB0C33B3FBF2F306936A
:103D0800B4F8F239CDE904C3B4F8EE39BD42CDE9CF
:103D1800022309EB0603CDE90063B8BF791B08EB62
:103D28000500A8BF00210E4AB24514BF20232A234C
:103D380013F0CAFD013605440834C5E71346DEE72B
:103D4800D0D002080FDA02086FE60208D8D00208BD
:103D5800FED0020813D102081CD10208CED60208F0
:103D680027D102082DE9F8434A4B03604A4F8C33A8
:103D78000025002643604FF0000800F518634FF057
:103D88000009C0E902714662C0E90452C0E906555B
:103D980005628662C0F85C58C0F86058C0F874596B
:103DA80080F87859C0F87C59C3E9008943F698230C
:103DB800044680F88859C0F88C39C0F89059C0F882
:103DC8009459C0F89859C0F89C59C0F8A059011DD9
:103DD80000F6A81017F04CFF04F52763A4F8685AFA
:103DE800C3E900893B6984F8785A5B1B18BF012333
:103DF80084F8793A4FF40043C4F87C5AC4F8805ADE
:103E0800C4F8845AC4F8885AA4F88C5A84F88E5A8C
:103E1800C4F8905AC4F8945AC4F8985AC4F89C5AEA
:103E2800C4F8A05AA4F8A43AC4F8A85AC4F8AC5ADA
:103E3800A4F8B05AC4F8B45AA4F8CC5AC4F8D06A52
:103E4800C4F8D46AA4F8D85AC4F8DC5AC4F8E05ABA
:103E5800C4F8E45AC4F8E85A84F8A05BA4F8A25B52
:103E6800C4F8A45BC4F8A85BC4F8AC5B04F664109F
:103E780023F085FA0122294604F6883022F016FF3D
:103E88004FF40362294604F12C0025F050FD20462A
:103E9800BDE8F883C8AD0208D4B0020808B50346E7
:103EA800C068B3F8A21B8368002908BFFF215B68BC
:103EB800984758B1084B98420BD800F5FA70400063
:103EC80041F28833984238BF184608BD41F288301D
:103ED800FBE76FF47A70F8E70BFEFF7F30B590F8D8
:103EE800A03B89B00446CBB900F52F65002000211E
:103EF8000A22CDE90601CDE90232CDE90043049357
:103F08000749084B4FF40062284610F09BF8064911
:103F1800284622F0ABFF012384F8A03B09B030BD4E
:103F280080800020B9B5010847D102082DE9F8437F
:103F380005460C46174600211422204625F0F7FCBA
:103F480095F8CD3A002B35D0D5F8D00AD5F8D49AC3
:103F580095F8D88A95F8D96A1B49FCF7D5FEFDF77C
:103F6800D5F820604846FDF7D1F8B31F80B217F0A6
:103F7800CBF8022B9ABF043EF6B20126B8F1080F1F
:103F88008CBF10232023A08084F80680E67123814B
:103F98002B6993F94C302773162BA8BF16236FF0A3
:103FA80008029342B8BF1346A37240F20243238229
:103FB800BDE8F8832B69986CD3F8789093F87480EF
:103FC80093F87560C8E700BF0024744908B590F8F5
:103FD800CD3A5BB1D0F8D00A0649FCF795FE4FF010
:103FE8007C51FCF789FDFDF791F808BD0369986CD1
:103FF800F2E700BF0024744908B590F8CD3A63B1E0
:10400800D0F8D40A0649FCF77FFE4FF07C51FCF744
:1040180073FDFDF77BF880B208BD0369986FF1E77F
:10402800000020412DE9F047024617F01BFA92F8EC
:10403800CD3A0F460546002B00F0BD80D2F8D49A41
:10404800104617F019FA936893F8008008F10506EE
:10405800F6B2B542044603D30C2D28BF0C25EEB2A8
:104068005B494846FCF7EEFF08B1DFF8689148461F
:10407800FDF74CF880B217F047F8FFF78DFC082CD5
:1040880028BF08240546E4B20120052C00FA06F0F2
:1040980038BF0524FCF7E4FD81462846FCF7DCFD23
:1040A8004D49FCF7E5FE4C49FCF72EFE0146484613
:1040B800FCF7DEFE8146B8F1000F01D1062E7ED94D
:1040C800082E4FF000057DD82020FCF7C9FD434994
:1040D800FCF712FD294680462846FCF70DFD0146EF
:1040E8004046FCF709FD4946FCF70EFE3C49804670
:1040F8004846FCF7C5FF002866D04FF07E5A304688
:10410800FCF7AEFD06463846FCF7AAFD4FF08241A3
:10411800FCF7FAFD4FF0814107463046FCF7F4FD05
:1041280001463846FCF7E6FC2E49FCF7E5FC4FF063
:104138008341FCF7E1FC4FF0824107462846FCF733
:10414800E3FD01463846FCF7D5FC51460746504684
:10415800FCF7D2FC01463046FCF7CCFC4FF081411D
:10416800FCF7D2FD4FF07E510546FCF76BFF08B116
:104178004FF0814529463846FCF77AFE15F086F956
:1041880005462046FCF76CFD2946FCF7BDFD0021DD
:1041980025F079FE4FF08241FCF7AEFC4946FCF76A
:1041A800B3FD4146FCF7A8FC0B49FCF7ADFDFCF755
:1041B800ADFFBDE8F0871369D3F8789040E74FF07A
:1041C8007E5581E7102080E74FF0000A97E700BF8F
:1041D8000000E0400000FA4200007A4400008840F5
:1041E8005A2F863C0000E0412DE9F04F04468BB081
:1041F80017F0D8F994F8783A04F1180A002B00F06F
:104208009080002205A92046FFF790FE9DF81A60CD
:10421800BDF81C50062E8CBF4FF0080B4FF00C0B4E
:10422800BBF1080F0CBF112319239D4240F388806E
:10423800BDF81800FFF7B0FB012102464248B14023
:104248000023A1FB0001FCF7D1FFA368DB69064648
:10425800002B5DD0E06898478146A5EB4B0808F134
:10426800FF3806FB08F8052064220023A8FB00019C
:10427800FCF7BCFF09F5FA63A8EB0007BB42D4F8CA
:104288007C2A48D20E357543A7EB0907BD420BFBC4
:10429800066608D96B1CA3EB080303444B445B0870
:1042A8009E4238BF1E46964203D1D4F8803ABB429C
:1042B80003D0C4F87C6AC4F8807A16F163004FF022
:1042C800000545F1000164220023FCF78FFFD4F8B4
:1042D8000C80814617F163004FF000030E464FF043
:1042E800640245F10001FCF781FFD8F808305D6AE7
:1042F800BDB1164B03948DE80B004A463346404641
:10430800A84770B921F0D6FA0121C4F8940911E040
:1043180040F2DC59A1E7013203D04FF0FF33C4F873
:104328007C3AE0680949836822465B699847002817
:10433800E8DA002150460BB0BDE8F04F16F0A9BFEF
:10434800D4F87C3A0133E7E740420F006FB3010825
:1043580038B583689B6A04460D46BBB100F6A430A5
:1043680016F04CFF034604F6AC3016F047FF18442D
:10437800D4F8843A984202D1D4F8883A3BB9C4F8C0
:10438800840A012D38BF0125C4F8885A38BD084A67
:10439800CB1A9342FAD994F88E3A072BF6D9A36828
:1043A8009B6A0BB1E06898472046FFF71DFFE8E7D6
:1043B800BF270900F8B58368DB6A04460F46002B5F
:1043C80038D090F8B03A33B1D0F8A83AD0F8AC2A3F
:1043D800CB1A93422ED3D4F8B43A23B1FB1A4EF633
:1043E8005F22934226D9606920B303685B689847C7
:1043F80001460546FCF74EFE0646D8B9284625F084
:1044080065FD174BC4F8AC3AB4F9A43AC4F8A87AD5
:10441800012213F5004F05B284F8B02A02D1A4F89E
:10442800A45A07E0EB1A002BB8BF5B42042B02DC4E
:1044380084F8B16AF8BD94F8B13A33B943F69823D1
:1044480084F8B12AC4F8AC3AF4E7A36884F8B16AEE
:10445800DB6A0BB1E06898472046FFF7C5FEDEE748
:1044680080EE360038B504461C3016F0C7FE98BBFF
:10447800204617F07BF978BB16F0E6FE054604F6F1
:10448800A43016F0BBFE034604F6AC3016F0B6FEB8
:10449800D4F8842A0344934202D1D4F8883A63B901
:1044A8000023C4F8A03A29462046FFF751FF2946C1
:1044B8002046BDE83840FFF77DBF084AEB1A934213
:1044C800F1D9D4F8A03A13B1EB1A9342EBD9012DE4
:1044D8002B4638BF0123E4E738BD00BFBFD4010035
:1044E8002DE9F843B0F8683A04463BB190F8CD8A14
:1044F800B8F1000F04D0002380F89339BDE8F883A1
:1045080004F5276716F0A0FED4F8702A7B680E46DB
:1045180052EA0301054662D1C4F8705A7E6094F9E4
:104528005A3A803315D0D4F8602AD4F8643A9542C0
:1045380076EB03030DDBA368596B04F6A81511B1DC
:10454800E06888470146284617F078FC284616F0A8
:1045580060FF94F89339002BD0D0002384F8933966
:1045680094F95A3A8033C9D1204616F074FF0028CE
:10457800C4D094F89239002BC0D0204617F0F6F832
:104588000028BBD104F6A819484617F00BFCA3680D
:104598001B6B074683B30146E0689847064616F04A
:1045A80053FE022E80460D4629D1321E18BF012225
:1045B8003946484617F02AFC022E2BD1204616F021
:1045C8004AFF10EB080045F10005643045F100058D
:1045D80084F85A7AC4F8600AC4F8645A8EE70F4916
:1045E800AA1A66EB0303914278EB030397DA04F601
:1045F800A81017F0C5FB8FE76FF05706CFE700212B
:1046080004F1180016F045FE2046FFF7EDFD002ED8
:10461800CBDA73E7484616F0FCFE6FE700974901CE
:1046280070B50D4616460424314628461EF0AEFAEB
:1046380040B1642000210FF085FF013CF4D102480D
:10464800FFF794F870BD00BF54D102082DE9F04F70
:10465800DFF8C882ADF5397D04460D4617460021BE
:104668004FF4007238A81E4625F061F998F800301A
:1046780043B9AB481DF04CFD98F8003013B9A94870
:104688001DF046FD402138A81EF080FA98F8003049
:1046980081463BB938A817F0FBFC49460246A248B8
:1046A8001DF036FD102200210AA825F040F910213E
:1046B8000AA80AF039FA0DF21F1201460DF1280C6A
:1046C80000238B4202DA102B40F0838098F80030E8
:1046D800002B40F01F8195481DF01AFDBFB1B6B1FF
:1046E800202E314628BF20210DF22F133A467E187E
:1046F80012F8010B13F8017FB24280EA0700187024
:10470800F6D198F8003043B989481DF001FD98F8B2
:10471800003013B987481DF0FBFC402194A81EF017
:1047280035FA98F80030064673B994A817F0B0FC2B
:104738003146024680481DF0EBFC98F800301BB962
:104748007E4829461DF0E4FC7D4B24AF3A4603F130
:10475800180C18685968164603C60833634532466C
:10476800F7D1186899889B793060B180B37131228C
:1047780000210DF11C0A07F11F0025F0D8F80023CD
:10478800CAF8003011F0E4FC202300938046CDF8ED
:1047980004A06C481CAB4FF4007238A924F08DFDBE
:1047A800064620B9DAF80090B9F1200F1AD0202176
:1047B8001CA816F00AFCCDF80480DAF80030009343
:1047C800614A33465021384613F07EF824A8FEF794
:1047D800CDFF12F801EF1CF8010B80EA0E001070F3
:1047E80001336EE70146142217A825F0A0F8574AAE
:1047F80008964FF41053ADF858300DF1200A4FF4D5
:104808008073CDE91832ADF85A301CA953464A4690
:1048180016A824F086FC494606461CA816F0D5FBC7
:1048280046B14B4ACDF8008033465021384613F044
:104838004BF8CBE7102231460EA825F078F837461A
:104848000DF1240BBD42DAF800001ED90023CBF885
:1048580000300DF14809102301930EAA3B49CDF809
:1048680008B0CDF8009011F039FBDBF800200346C2
:1048780008B9102A1BD00092CDE90178354A502199
:1048880024A813F021F84FF0FF36089824F02DFCE7
:1048980010210EA816F099FB002E97D1012325446C
:1048A8001946AC421DD101B93BB32B488FE7EA1B2F
:1048B800102A28BF1022E0194946059225F010F861
:1048C800059A17444A4612F8013D0133DBB21370CA
:1048D80013B90EAB9A42F6D11021484616F075FB73
:1048E800B0E714F8012B32B1FF2A14BF002303F0FC
:1048F80001030021D5E71346D3E738A84FF4007128
:1049080016F063FB10210AA816F05FFB0DF5397D40
:10491800BDE8F08F002F7FF4E2AEFEE6FB740020C6
:1049280075D1020899D10208E1D1020810D2020813
:1049380051D2020873D20208C0D20208EFD202088C
:10494800E0D302080900000228D30208004440040A
:1049580056D3020881D30208B5D3020830B5002324
:1049680089B004461A4620216846FFF76FFE69465B
:10497800204615F08CFB65252378013BDBB2FD2B27
:1049880005D82021684616F020FB09B030BD013D4E
:1049980002D10748FEF7EAFE002368461A4620219E
:1049A800FFF754FE6946204615F071FBE4E700BFA7
:1049B800FFD3020811B1024A12F086BF704700BF48
:1049C80025D40208014A12F07FBF00BF36D402087E
:1049D80037B5144683686A461B69984788B90198B1
:1049E800FCF73EF90849FCF743FA05460098FCF73E
:1049F80037F901462846FCF77FF82060012003B00C
:104A080030BD0020FBE700BF0024744938B50D46CF
:104A18000446B8B122F01DF810B9204622F010F86B
:104A2800204622F016F868B1074B1A780F2A09D8E1
:104A3800511C1970054B43F8324003EBC2030022A6
:104A48001D715A7138BD00BFFC74002068440020F5
:104A5800014B1878704700BFFC740020064B1B7888
:104A6800984207D2054B03EBC0031879031F58423D
:104A78005841704700207047FC74002068440020AB
:104A88002DE9F3410C46064624220021204624F055
:104A98004EFF644B1B789E4280F0C180624D05EB4F
:104AA800C6034FEAC6081A79062A11D15B7955F868
:104AB800360000930022019283681F68002F00F0DF
:104AC800AB806B4614224E21B847002840F0A480E2
:104AD80055F8360083684E21DB689847074600285A
:104AE80040F09A8005EB08031B79042B55D006D9B2
:104AF800053B012B6AD9384602B0BDE8F08155F86C
:104B08003600221D0D21FFF763FF18B1238843F0FB
:104B18000103238005EB08031B79012B2BD955F8DA
:104B2800360004F10C020E21FFF752FF0028E2D0F4
:104B3800E0683E49FCF7E8F82688E060A84446F0BB
:104B48000403238098F8043003F0FD03012BD2D12D
:104B58003749FCF78DF93749FDF7CAFB01464FF095
:104B68007E50FBF7C7FF3449FCF7CEF846F00C0639
:104B780020612680BFE755F8360004F108021021AD
:104B8800FFF726FF18B1238843F00203238005EBC3
:104B980008031B79002BAED0C1E755F8360004F1A5
:104BA80014021221FFF714FF18B1238843F01003F1
:104BB800238055F83600221D0D21FFF709FF002834
:104BC80099D0238843F00103238094E755F83600F1
:104BD80004F118022B21FFF7FBFE18B1238843F0DC
:104BE8002003238055F8360004F11C022D21FFF71D
:104BF800EFFE18B1238843F04003238055F83600B0
:104C080004F120022E21FFF7E3FE00283FF473AFE2
:104C1800238843F08003D7E76FF004076BE76FF052
:104C2800150768E7FC740020684400200000204154
:104C380000507D4401DE423E002A2D47024B187881
:104C4800003818BF01207047FC74002010B50C46CE
:104C580017F03BFA18B1002C014818BF002010BD0E
:104C68004CD4020810B50C4617F02FFA40B144B9DD
:104C780017F02DFA044B01460448002908BF1846CE
:104C880010BD0020FCE700BFB9EB0208E3E702080B
:104C980070B50E46154617F018FA044668B10E4965
:104CA8003046FCF7BDFA50B90C492846FCF7B8FA6B
:104CB800003818BF012017F00DFA204670BD0849CA
:104CC8003046FCF7ADFA28B9284624F03BFE17F029
:104CD80009FAF2E70024F0E74CD40208B9EB02081D
:104CE80050D40208054B064A1A6000200021C3E987
:104CF8000201C3E90401C3E906017047F005002079
:104D0800B0AE020870B4CE7D46B1CD68541B054DD7
:104D1800AC4203D81BB970BC17F096BB00231846E9
:104D280070BC7047809706002DE9F84F032B0A9D49
:104D38000646894690461F462FD817F071FB044651
:104D4800A0B38668464528D2C168404A691AA8EBCC
:104D580006069620761A4FF00003A1FB000169EBC6
:104D68000909FCF7F3F910F12D020B4641F1000196
:104D7800B24271EB09010ADB6FF02C02121A4FF0F4
:104D8800FF3161EB0303964279EB030307DA2561F0
:104D98000123A382C4E90285A775BDE8F88FA38A19
:104DA8004FF6FF729342F5D00133F2E7034618211C
:104DB80006F1170001FB03F210F802C0BCF1000F66
:104DC8000ED1B418D9F800302360D9F804306360E4
:104DD8000123C4E902852561A382A775E375DCE791
:104DE8000133102BE6D131464FF0000A4FF0180B73
:104DF8002A46304617F028FBCB6818B11448EA1A3F
:104E0800824217D98A7DBA4214D9ECB1A07D824278
:104E18001AD803D1888AA28A904215D30BFB0A625A
:104E280060695269424032F07F4203D1E26893429E
:104E380038BF0C460AF1010ABAF1100F01F1180146
:104E4800D6D1002CBED1A8E70C46F3E740420F00AC
:104E580080510100034690F8900138B1D3F88C31A5
:104E68000348C91A81428CBF00200120704700BF47
:104E78007F3A09002DE9F3478A4616460021182291
:104E880004461D4624F053FDDAF88071BE422CBF5B
:104E98000023012323743246009351462B4604F124
:104EA800180017F0DEFA237E1BB940F20123238095
:104EB80014E0BE422ED2A37E022B02D840F2013368
:104EC800F5E7D4E90832B3F1960642F1FF32B6F5B8
:104ED800167F72F1000305DA01236370204602B0E1
:104EE800BDE8F08729465046FFF7B4FF08B105230F
:104EF800F3E79AF8A03143B1DAF89C3145F25F4103
:104F0800EB1A8B4201D80623E7E70223C4E90262C1
:104F18002370E3E7637E052BD0D9A27EB3EB420F63
:104F280002DB40F20143C2E7D4E90887002F464676
:104F3800B94602DA764267EB4709B6F5167F79F18A
:104F48000003C9DB29465046FFF784FF0028CED16D
:104F58009AF8A03133B1DAF89C3145F25F42EB1A86
:104F68009342D0D99AF89831ABB1DAF89431164A0D
:104F7800ED1A4FF496700023A5FB0001FCF7E6F844
:104F880010F5167041F10001B04271EB090102DA27
:104F980040F201738BE7022318F5616F23703B46DB
:104FA80077F1FF374246B8BF084A40F61161B8BFEB
:104FB8004FF0FF338A4273F10001A4BF4FF46162DE
:104FC8000023C4E9022389E740420F00F0F1FFFF04
:104FD8000138C0B206289ABF024B53F82000024895
:104FE800704700BFD4AE02085DD402082DE9F04F27
:104FF800B1B005469DF8ECA00B9388461646002AEA
:1050080000F0B9813A9B0B9A014616A8FFF732FFC8
:105018009DF858209DF868309DF870400993022A41
:10502800DDE91E7940F0358195F88421DDE9181015
:1050380022B1002880F2A181B64A04E0B64B8B4227
:105048008241B64A07DBB64B4FF0FF3C994270EB02
:105058000C0C00DB0B46B348B049DDF824C0BCF1AA
:10506800000F18BF0146CDE9001222A8AE4A382128
:1050780012F02AFCBAF1000F00F03081AB4BA74ABE
:105088009DF871109DF872009DF873C0002C00F017
:105098002881A14C4FF0000EBC427EEB090E07DBC5
:1050A8009F4C4FF0FF3EA74279EB0E0EA8BF3C463F
:1050B800209F00920DF1880ECDE90110CDE903C4BF
:1050C800CDE9057E9A4A3146404612F0FDFB041EA2
:1050D800C0F24C81B44280F04981D5F8AC3103B3B9
:1050E800D5E96E1C8C4AD5F8B0718A424FF00000A1
:1050F80070EB0C0007DB8A4A4FF0FF3091427CEBE3
:105108000000A8BF0A46CDE90072311B08EB040075
:10511800884A12F0D9FB241800F12881B44280F0A3
:105128002581D5F8B4315BB1311B08EB0400824A04
:1051380012F0CAFB241800F11981B44280F01681DC
:105148003A992846FFF786FE98B13A99284617F00B
:1051580007FB311B794A4FF46163B0FBF3F308EBAB
:10516800040012F0B1FB241800F10081B44280F071
:10517800FD80D5F8A8310093311B08EB0400D5F861
:10518800A4316F4A12F0A0FB241800F1EF80B4425A
:1051980080F0EC8005F5C0730A934FF0000A2B46A7
:1051A800DA7D0AB10AF1010A0A9A18339342F7D153
:1051B8004FF0000BD946CA4540F3A8808BF0010395
:1051C8002F460F93FB7D002B00F09480099B3A9AA1
:1051D80039462846FFF796FD0F9B834240F08A80A8
:1051E80008EB04030893331B0C933B780D937B78EF
:1051F8003A9A0E93FB68B98A97F816C0D31ABA6818
:10520800632928BF63219B184FF0000242EB020E6E
:105218000B9A9B1A404A6EF1000E9A424FF0000218
:1052280072EB0E025FDB3E4A93424FF0FF327EEB99
:1052380002025ADBDFF8E4E0424A002808BF72465F
:10524800CDE903320E9B0093CDE901C10D9B3E4A87
:10525800311B08EB040012F037FB002802DB204466
:10526800B04244D3089A0023CA4513704EDDAAEB16
:105278000903364A182110A812F026FB0C9B83421A
:10528800054643D9421C10A9089824F029FB2C4450
:105298003CE0BDF85830B3F5807F15D1B9F1000F67
:1052A8003B464A4602DA7B4269EB490240F22D113D
:1052B8008B4272F10002B4BF254B264B264A382197
:1052C80022A812F001FBD5E69DF85900FFF780FEF1
:1052D80003460AB9214AF2E7214AF0E7214B224A5C
:1052E800CEE62746E5E60C4BA4E70D4BA2E709F10D
:1052F800010904460A9B18379F427FF463AF0BF1FC
:105308000103022B4FF0010B7FF455AF204631B05B
:10531800BDE8F08F5FD40208009435771CF40208CA
:10532800006CCA8878D402089ED402086FE6020886
:10533800C2D40208F7D4020817D5020825D50208F6
:105348002FD502089BD4020843D502085FD502086E
:1053580085D4020888D402089BE60208ABD4020868
:10536800B5D402080FDA020890D40208741E00238C
:1053780008F80430CAE71446C8E7034B00228B42FA
:105388008241024A65E600BF009435771CF40208A2
:10539800034A0346107810B1024A12681A6070472F
:1053A800FD740020E84400202DE9F04F85B00F4639
:1053B8000292064618B9002005B0BDE8F08F002912
:1053C800F9D0194B1B7800240470002BF3D0174D2B
:1053D800DFF85CA0DFF85CB005F1CC082A68DAF8E1
:1053E80000301A421CD0029BABB1AB68002B08BF3F
:1053F8005B46009306EB0409391B6B680E4A039160
:10540800484612F061FA0028039906DA002389F861
:1054180000302046D0E7074BEBE78142F6D9044439
:105428000C354545DAD1F4E7FD740020F0AE0208EA
:10543800E84400201CF4020824E3020800B5A3B0E5
:105448000023019301A809F08BFB024658B9084BC9
:1054580001991960074B0121197002A88021FFF7F3
:10546800A3FF09F0B3FB002023B05DF804FB00BFE5
:10547800E8440020FD74002010B5084B187860B18E
:10548800074B084C19680023184654F823200333A7
:105498000A40332B40EA0200F7D110BDFD7400200A
:1054A800E8440020F0AE0208044A0548082352F8F0
:1054B800041F013B81EAF060F9D1704744D600200F
:1054C80017F4437AF8B50D4E0D4B32689A4212D153
:1054D800FFF7EAFF746A84420DD1351D0FCD094FDD
:1054E8003C460FC495E80F0084E80F000023FB77C3
:1054F800054B01221A7000203060F8BD44D6002008
:1055080017F4437AEC440020FE74002070B5114C67
:1055180006460D4610481C22002124F008FA666051
:105528001DB1AB69A3606B69E36008F0EFF80B4B42
:10553800185821F09EFC014618B10948132224F09E
:1055480058FA084B2360FFF7AFFF6062012007F0AD
:10555800E5FB00BF44D600204CD600200800000020
:1055680054D6002017F4437A70B5064B1E780446CB
:1055780036B1054D0FCD0FC495E80F0084E80F0034
:10558800304670BDFE740020EC440020044BBFF38D
:105598005B8F1868BFF35B8F003818BF0120704716
:1055A8001845002010B5074BBFF35B8F024653E840
:1055B800001F43E80024002CF9D1BFF35B8F07F0EC
:1055C80083F910BD18450020054BBFF35B8F53E8E6
:1055D800002F43E800010029F9D1BFF35B8F704722
:1055E80014450020034BBFF35B8F1868BFF35B8F34
:1055F800C0B2704710450020054BBFF35B8F53E8DE
:10560800002F43E800010029F9D1BFF35B8F7047F1
:1056180010450020044BBFF35B8F1868BFF35B8F06
:10562800003818BF012070470C45002003289ABF96
:10563800014B185C00207047CCFA02080138C0B250
:1056480002289ABF014B185C01207047C9FA02086A
:105658000138C0B202289ABF024B53F82000024812
:10566800704700BFBCAF0208A7D6020810B50428CF
:10567800074BBFF35B8F28BF012053E8002F43E897
:105688000004002CF9D1BFF35B8F17F078F810BD38
:105698005000002007B508B1002303700A481DF028
:1056A8002DF801A9002007F0CBFB014618B9019895
:1056B80082681CF03DFE044808F07EFA034803B0F7
:1056C8005DF804EB17F06FB8E8000020C6D60208B2
:1056D80070B594B0034605460C4616464021194A53
:1056E80004A812F0F1F801383E281FD804A817F0D2
:1056F8007CF80023122204A901A8CDE901338DF812
:105708000C301CF081FE002810DB314601A8A047B0
:10571800044601A81CF018FF064601A81CF0D2FE9A
:105728000CB1002E06DA04A81CF01AFF002420464B
:1057380014B070BD294604A81CF03AFF0028F6DA18
:10574800F1E700BFCBD6020807B5CDE9001203493F
:105758006A46FFF7BDFF03B05DF804FB91C7010877
:1057680070B5B2B005460E4617F034F8C0B1002344
:105778000193802201AB12A9284617F044F8044689
:1057880080B9114A2B46402102A812F09DF83F2803
:1057980006DC02A817F029F802A928461CF008FF21
:1057A80000240EE0019A3F2AEBD912A9304614F0E2
:1057B800F1FC30B9019A12A9304614F04BFD0028CB
:1057C800DFD0204632B070BDD2D6020810B5A0B0E6
:1057D800802204460846694614F0C3FC024620B1FC
:1057E800034B69462046FFF7AFFF20B010BD00BF4E
:1057F800D9D602081FB5084A0B46CDE90120012277
:105808008DF80C2018684A6801A9904708B19DF8DE
:105818000C0005B05DF804FBF8AF02082DE9F04173
:10582800DAB018AD0F462946804616461CF0FBFE36
:10583800044620B1002420465AB0BDE8F081D5F8CE
:105848000431002BF6D0CDE900008DF808000122C4
:10585800414668461CF0D8FD00286D46EADB074B38
:105868008DF85C4003A9C1E91244C1E90035384606
:10587800B047044668461CF025FEDCE7D0AF0208B6
:105888002DE9F0419AB005460F46164616F0A2FFDC
:1058980050B30024012229466846CDE900448DF81A
:1058A80008401CF0B1FDA042E8461DDB154B0393F0
:1058B800154B8DF86040CDE904380123CDE9164435
:1058C8008DF8643003A93846B047044640B19DF8C6
:1058D80064402CB104A817F048F8431C5C425C41B2
:1058E80040461CF0EFFD44B9084B094903AA284675
:1058F800CDE90376FFF7ECFE044620461AB0BDE872
:10590800F08100BF20B00208D0AF0208E2D602083A
:10591800FD570008F8B5002380F8233080F8473099
:1059280080F8673080F80F3180F8503180F88D3179
:1059380080F8CD3190F8CE310568012B28BF0123BE
:10594800044680F8CE3129462846FBF771FB48B15A
:1059580000212846FBF776FB20B939492846FBF792
:105968008FFB00B1364D2560256D29462846FBF78B
:105978005FFB48B100212846FBF764FB20B9314999
:105988002846FBF77DFB00B100252565D4F8945027
:1059980029462846FBF74CFB48B100212846FBF76F
:1059A80051FB20B928492846FBF76AFB00B10025BE
:1059B800C4F89450E56E29462846FBF739FB50B1E8
:1059C80000212846FBF73EFB28B94FF080412846C6
:1059D800FBF756FB00B11D4DE566D4E90A67324670
:1059E8003B4630463946FAF7B7FF68B1184B0022F4
:1059F80030463946FAF7BAFF30B9164B002230461E
:105A08003946FAF7D1FF08B100260027C4E90A672A
:105A1800D4E90C6732463B4630463946FAF79CFFD4
:105A2800F0B10D4B002230463946FAF79FFFB8B95E
:105A38000A4B002230463946FAF7B6FF90B10FE01C
:105A480000001041000061450060EA46CDCC4C3EA4
:105A5800008056C000805640008066C000806640C6
:105A68000026002794F87530082B28BF0823052B3B
:105A780038BF052384F8753094F94C30162BC4E9E7
:105A88000C6700F352811E2B6FF00802A8BF1E237B
:105A98009342B8BF134684F84C3094F82E315A1EFE
:105AA8005342534184F82E3194F82131591E4B4208
:105AB8004B4184F8213194F87730581E43424341D2
:105AC80084F8773094F82C315D1E6B426B4184F872
