:020000040800F2
:1000000040C40020A9CD00085FEE010895CD00088E
:1000100095CD000895CD000895CD000800000000A2
:1000200000000000000000000000000001CE0008F9
:1000300095CD000800000000C9CF0008ADFF000802
:1000400045D0000845D0000845D0000845D000083C
:1000500045D0000845D0000845D0000845D000082C
:1000600045D0000845D0000845D0000845D000081C
:1000700045D0000845D0000845D0000845D000080C
:1000800045D0000845D0000845D0000845D00008FC
:1000900045D0000845D0000845D0000845D00008EC
:1000A00045D0000845D0000845D0000845D00008DC
:1000B00045D0000845D0000845D0000845D00008CC
:1000C00045D0000845D0000845D0000845D00008BC
:1000D00045D0000845D0000845D0000845D00008AC
:1000E00045D0000845D0000845D0000845D000089C
:1000F00045D0000845D0000845D0000845D000088C
:1001000045D0000845D0000845D0000845D000087B
:0401100045D00008CE
:1001180081F0004102E000BF83F0004330B54FEAB0
:1001280041044FEA430594EA050F08BF90EA020F1D
:100138001FBF54EA000C55EA020C7FEA645C7FEAB0
:10014800655C00F0E2804FEA5454D4EB5555B8BFD3
:100158006D420CDD2C4480EA020281EA030382EA44
:10016800000083EA010180EA020281EA0303362DD6
:1001780088BF30BD11F0004F4FEA01314FF4801CA9
:100188004CEA113102D0404261EB410113F0004FBB
:100198004FEA03334CEA133302D0524263EB430372
:1001A80094EA050F00F0A780A4F10104D5F1200E10
:1001B8000DDB02FA0EFC22FA05F2801841F100016B
:1001C80003FA0EF2801843FA05F359410EE0A5F13F
:1001D80020050EF1200E012A03FA0EFC28BF4CF070
:1001E800020C43FA05F3C01851EBE37101F0004526
:1001F80007D54FF0000EDCF1000C7EEB00006EEB33
:100208000101B1F5801F1BD3B1F5001F0CD34908BC
:100218005FEA30004FEA3C0C04F101044FEA445213
:1002280012F5800F80F09A80BCF1004F08BF5FEA9A
:10023800500C50F1000041EB045141EA050130BD7A
:100248005FEA4C0C404141EB0101013C28BFB1F58C
:10025800801FE9D291F0000F04BF01460020B1FAD7
:1002680081F308BF2033A3F10B03B3F120020CDAAA
:100278000C3208DD02F1140CC2F10C0201FA0CF088
:1002880021FA02F10CE002F11402D8BFC2F1200CED
:1002980001FA02F120FA0CFCDCBF41EA0C019040A3
:1002A800E41AA2BF01EB0451294330BD6FEA0404EC
:1002B8001F3C1CDA0C340EDC04F11404C4F12002D7
:1002C80020FA04F001FA02F340EA030021FA04F3E9
:1002D80045EA030130BDC4F10C04C4F1200220FA40
:1002E80002F001FA04F340EA0300294630BD21FA7E
:1002F80004F0294630BD94F0000F83F4801306BF44
:1003080081F480110134013D4EE77FEA645C18BF37
:100318007FEA655C29D094EA050F08BF90EA020FCE
:1003280005D054EA000C04BF1946104630BD91EAC6
:10033800030F1EBF0021002030BD5FEA545C05D1C9
:100348004000494128BF41F0004130BD14F5800408
:100358003CBF01F5801130BD01F0004545F0FE417C
:1003680041F470014FF0000030BD7FEA645C1ABFB1
:10037800194610467FEA655C1CBF0B46024650EAE8
:10038800013406BF52EA033591EA030F41F4002114
:1003980030BD00BF90F0000F04BF0021704730B59A
:1003A8004FF4806404F132044FF000054FF000016F
:1003B80050E700BF90F0000F04BF0021704730B530
:1003C8004FF4806404F1320410F0004548BF404205
:1003D8004FF000013EE700BF42004FEAE2014FEA5A
:1003E80031014FEA02701FBF12F07F4393F07F4F35
:1003F80081F06051704732F07F4208BF704793F038
:100408007F4F04BF41F40021704730B54FF460744A
:1004180001F0004521F000411CE700BF50EA01024D
:1004280008BF704730B54FF000050AE050EA0102F6
:1004380008BF704730B511F0004502D5404261EB66
:1004480041014FF4806404F132045FEA915C3FF4A7
:10045800D8AE4FF003025FEADC0C18BF03325FEA44
:10046800DC0C18BF033202EBDC02C2F1200300FAF5
:1004780003FC20FA02F001FA03FE40EA0E0021FA1A
:1004880002F11444BDE600BF70B54FF0FF0C4CF408
:10049800E06C1CEA11541DBF1CEA135594EA0C0FBA
:1004A80095EA0C0F00F0DEF82C4481EA030621EAF5
:1004B8004C5123EA4C5350EA013518BF52EA033530
:1004C80041F4801143F4801338D0A0FB02CE4FF0E2
:1004D8000005E1FB02E506F00042E0FB03E54FF012
:1004E8000006E1FB03569CF0000F18BF4EF0010E0A
:1004F800A4F1FF04B6F5007F64F5407404D25FEA06
:100508004E0E6D4146EB060642EAC62141EA5551B8
:100518004FEAC52040EA5E504FEACE2EB4F1FD0CFA
:1005280088BFBCF5E06F1ED8BEF1004F08BF5FEA78
:10053800500E50F1000041EB045170BD06F000462A
:1005480046EA010140EA020081EA0301B4EB5C04D7
:10055800C2BFD4EB0C0541EA045170BD41F48011CF
:100568004FF0000E013C00F3AB8014F1360FDEBFF4
:10057800002001F0004170BDC4F10004203C35DAD0
:100588000C341BDC04F11404C4F1200500FA05F353
:1005980020FA04F001FA05F240EA020001F00042F4
:1005A80021F0004110EBD37021FA04F642EB06016A
:1005B8005EEA430E08BF20EAD37070BDC4F10C0494
:1005C800C4F1200500FA04F320FA05F001FA04F258
:1005D80040EA020001F0004110EBD37041F1000144
:1005E8005EEA430E08BF20EAD37070BDC4F120054F
:1005F80000FA05F24EEA020E20FA04F301FA05F2B7
:1006080043EA020321FA04F001F0004121FA04F25E
:1006180020EA020000EBD3705EEA430E08BF20EA2E
:10062800D37070BD94F0000F0FD101F00046400068
:1006380041EB010111F4801F08BF013CF7D041EAEA
:10064800060195F0000F18BF704703F000465200EE
:1006580043EB030313F4801F08BF013DF7D043EABF
:100668000603704794EA0C0F0CEA135518BF95EA75
:100678000C0F0CD050EA410618BF52EA4306D1D1FC
:1006880081EA030101F000414FF0000070BD50EA1B
:10069800410606BF1046194652EA430619D094EAA5
:1006A8000C0F02D150EA013613D195EA0C0F05D18F
:1006B80052EA03361CBF104619460AD181EA0301E3
:1006C80001F0004141F0FE4141F470014FF000009B
:1006D80070BD41F0FE4141F4780170BD70B54FF036
:1006E800FF0C4CF4E06C1CEA11541DBF1CEA1355B6
:1006F80094EA0C0F95EA0C0F00F0A7F8A4EB050498
:1007080081EA030E52EA03354FEA013100F088808E
:100718004FEA03334FF0805545EA131343EA126357
:100728004FEA022245EA111545EA10654FEA00260C
:100738000EF000419D4208BF964244F1FD0404F5C5
:10074800407402D25B084FEA3202B61A65EB030521
:100758005B084FEA32024FF480104FF4002CB6EBDE
:10076800020E75EB030E22BFB61A754640EA0C005E
:100778005B084FEA3202B6EB020E75EB030E22BF9E
:10078800B61A754640EA5C005B084FEA3202B6EBDF
:10079800020E75EB030E22BFB61A754640EA9C009E
:1007A8005B084FEA3202B6EB020E75EB030E22BF6E
:1007B800B61A754640EADC0055EA060E18D04FEA2C
:1007C800051545EA16754FEA06164FEAC30343EACC
:1007D80052734FEAC2025FEA1C1CC0D111F4801F99
:1007E8000BD141EA00014FF000004FF0004CB6E792
:1007F80011F4801F04BF01430020B4F1FD0C88BF31
:10080800BCF5E06F3FF6AFAEB5EB030C04BFB6EB3B
:10081800020C5FEA500C50F1000041EB045170BD2E
:100828000EF0004E4EEA113114EB5C04C2BFD4EB5B
:100838000C0541EA045170BD41F480114FF0000EDF
:10084800013C90E645EA060E8DE60CEA135594EA5B
:100858000C0F08BF95EA0C0F3FF43BAF94EA0C0F5E
:100868000AD150EA01347FF434AF95EA0C0F7FF4D3
:1008780025AF104619462CE795EA0C0F06D152EA27
:1008880003353FF4FDAE1046194622E750EA41060B
:1008980018BF52EA43067FF4C5AE50EA41047FF41C
:1008A8000DAF52EA43057FF4EBAE12E74FF0FF3C81
:1008B80006E000BF4FF0010C02E000BF4FF0010C52
:1008C8004DF804CD4FEA410C7FEA6C5C4FEA430CCB
:1008D80018BF7FEA6C5C1BD001B050EA410C0CBF1A
:1008E80052EA430C91EA030F02BF90EA020F00207C
:1008F800704710F1000F91EA030F58BF994208BFE3
:1009080090422CBFD8176FEAE37040F0010070479F
:100918004FEA410C7FEA6C5C02D150EA013C07D1F6
:100928004FEA430C7FEA6C5CD6D152EA033CD3D041
:100938005DF8040B704700BF8446104662468C463B
:100948001946634600E000BF01B5FFF7B7FF00286E
:1009580048BF10F1000F01BD4DF808EDFFF7F4FF97
:100968000CBF012000205DF808FB00BF4DF808ED22
:10097800FFF7EAFF34BF012000205DF808FB00BF45
:100988004DF808EDFFF7E0FF94BF012000205DF867
:1009980008FB00BF4DF808EDFFF7CEFF94BF01201C
:1009A80000205DF808FB00BF4DF808EDFFF7C4FF15
:1009B80034BF012000205DF808FB00BF4FEA410268
:1009C80012F5001215D211D56FF47873B3EB625299
:1009D80012D94FEAC12343F0004343EA505311F0C0
:1009E800004F23FA02F018BF404270474FF0000052
:1009F800704750EA013005D111F0004008BF6FF090
:100A0800004070474FF00000704700BF4FEA4102B6
:100A1800B2F1E04324BFB3F5001CDCF1FE5C0DD954
:100A280001F0004C4FEAC0024CEA5070B2F1004F9E
:100A380040EB830008BF20F00100704711F0804FA1
:100A480021D113F13872BCBF01F00040704741F466
:100A580080114FEA5252C2F11802C2F1200C10FA6A
:100A68000CF320FA02F018BF40F001004FEAC1234E
:100A78004FEAD32303FA0CFC40EA0C0023FA02F3F2
:100A88004FEA4303CCE77FEA625307D150EA0133C8
:100A98001EBF4FF0FE4040F44000704701F0004098
:100AA80040F0FE4040F40000704700BF80F0004076
:100AB80002E000BF81F0004142001FBF5FEA41032E
:100AC80092EA030F7FEA226C7FEA236C6AD04FEA2E
:100AD8001262D2EB1363C1BFD21841404840414073
:100AE800B8BF5B42192B88BF704710F0004F40F425
:100AF800000020F07F4018BF404211F0004F41F441
:100B0800000121F07F4118BF494292EA030F3FD00C
:100B1800A2F1010241FA03FC10EB0C00C3F120031F
:100B280001FA03F100F0004302D5494260EB4000AE
:100B3800B0F5000F13D3B0F1807F06D340084FEA19
:100B4800310102F10102FE2A51D2B1F1004F40EB0E
:100B5800C25008BF20F0010040EA03007047490076
:100B680040EB0000013A28BFB0F5000FEDD2B0FA13
:100B780080FCACF1080CB2EB0C0200FA0CF0AABF36
:100B880000EBC25052421843BCBFD04018437047D4
:100B980092F0000F81F4000106BF80F400000132DA
:100BA800013BB5E74FEA41037FEA226C18BF7FEAB1
:100BB800236C21D092EA030F04D092F0000F08BFF3
:100BC8000846704790EA010F1CBF0020704712F0DA
:100BD8007F4F04D1400028BF40F00040704712F119
:100BE80000723CBF00F50000704700F0004343F07E
:100BF800FE4040F4000070477FEA226216BF0846B4
:100C08007FEA23630146420206BF5FEA412390EA76
:100C1800010F40F4800070474FF0000304E000BF6C
:100C280010F0004348BF40425FEA000C08BF70471D
:100C380043F0964301464FF000001CE050EA0102E1
:100C480008BF70474FF000030AE000BF50EA0102F6
:100C580008BF704711F0004302D5404261EB4101E3
:100C68005FEA010C02BF84460146002043F0B64308
:100C780008BFA3F18053A3F50003BCFA8CF2083A2D
:100C8800A3EBC25310DB01FA02FC634400FA02FC36
:100C9800C2F12002BCF1004F20FA02F243EB02003D
:100CA80008BF20F00100704702F1200201FA02FC9F
:100CB800C2F1200250EA4C0021FA02F243EB020092
:100CC80008BF20EADC7070474FF0FF0C1CEAD052D6
:100CD8001EBF1CEAD15392EA0C0F93EA0C0F6FD097
:100CE8001A4480EA010C400218BF5FEA41211ED075
:100CF8004FF0006343EA501043EA5111A0FB013161
:100D08000CF00040B1F5000F3EBF490041EAD37135
:100D18005B0040EA010062F17F02FD2A1DD8B3F1B1
:100D2800004F40EBC25008BF20F00100704790F020
:100D3800000F0CF0004C08BF49024CEA502040EA72
:100D480051207F3AC2BFD2F1FF0340EAC250704738
:100D580040F400004FF00003013A5DDC12F1190F76
:100D6800DCBF00F000407047C2F10002410021FAE8
:100D780002F1C2F1200200FA02FC5FEA310040F100
:100D8800000053EA4C0308BF20EADC70704792F079
:100D9800000F00F0004C02BF400010F4000F013AB1
:100DA800F9D040EA0C0093F0000F01F0004C02BFAC
:100DB800490011F4000F013BF9D041EA0C018FE71B
:100DC8000CEAD15392EA0C0F18BF93EA0C0F0AD021
:100DD80030F0004C18BF31F0004CD8D180EA010047
:100DE80000F00040704790F0000F17BF90F0004FE0
:100DF800084691F0000F91F0004F14D092EA0C0FC2
:100E080001D142020FD193EA0C0F03D14B0218BF54
:100E1800084608D180EA010000F0004040F0FE409A
:100E280040F40000704740F0FE4040F44000704736
:100E38004FF0FF0C1CEAD0521EBF1CEAD15392EAB5
:100E48000C0F93EA0C0F69D0A2EB030280EA010CA5
:100E580049024FEA402037D04FF0805343EA11113E
:100E680043EA10130CF000408B4238BF5B0042F19C
:100E78007D024FF4000C8B4224BF5B1A40EA0C0041
:100E8800B3EB510F24BFA3EB510340EA5C00B3EB73
:100E9800910F24BFA3EB910340EA9C00B3EBD10F61
:100EA80024BFA3EBD10340EADC001B0118BF5FEAB3
:100EB8001C1CE0D1FD2A3FF650AF8B4240EBC250DC
:100EC80008BF20F0010070470CF0004C4CEA50209D
:100ED8007F32C2BFD2F1FF0340EAC250704740F4EC
:100EE80000004FF00003013A37E792F0000F00F0DE
:100EF800004C02BF400010F4000F013AF9D040EA5C
:100F08000C0093F0000F01F0004C02BF490011F4EF
:100F1800000F013BF9D041EA0C0195E70CEAD153E7
:100F280092EA0C0F08D142027FF47DAF93EA0C0FCE
:100F38007FF470AF084676E793EA0C0F04D14B02B2
:100F48003FF44CAF08466EE730F0004C18BF31F064
:100F5800004CCAD130F000427FF45CAF31F000435E
:100F68007FF43CAF5FE700BF4FF0FF3C06E000BFF7
:100F78004FF0010C02E000BF4FF0010C4DF804CD1A
:100F88004FEA40024FEA41037FEA226C18BF7FEA2A
:100F9800236C11D001B052EA530C18BF90EA010F2C
:100FA80058BFB2EB030088BFC81738BF6FEAE170BB
:100FB80018BF40F0010070477FEA226C02D15FEA57
:100FC800402C05D17FEA236CE4D15FEA412CE1D0C3
:100FD8005DF8040B704700BF844608466146FFE78A
:100FE8000FB5FFF7C9FF002848BF10F1000F0FBD6C
:100FF8004DF808EDFFF7F4FF0CBF012000205DF865
:1010080008FB00BF4DF808EDFFF7EAFF34BF0120E9
:1010180000205DF808FB00BF4DF808EDFFF7E0FF82
:1010280094BF012000205DF808FB00BF4DF808EDD3
:10103800FFF7D2FF94BF012000205DF808FB00BF36
:101048004DF808EDFFF7C8FF34BF012000205DF818
:1010580008FB00BF4FEA40024FEA41037FEA226CD7
:1010680002D15FEA402C08D17FEA236C02D15FEA03
:10107800412C02D14FF0000070474FF0010070473B
:101088004FEA4002B2F1FE4F0FD34FF09E03B3EB8D
:1010980012620DD94FEA002343F0004310F0004FCD
:1010A80023FA02F018BF404270474FF00000704723
:1010B80012F1610F01D1420205D110F0004008BFC2
:1010C8006FF0004070474FF00000704742000ED2AA
:1010D800B2F1FE4F0BD34FF09E03B3EB126209D46B
:1010E8004FEA002343F0004323FA02F070474FF021
:1010F8000000704712F1610F01D1420202D14FF096
:10110800FF3070474FF00000704700BF7BB972B9DD
:101118000029BEBF00204FF0004106E008BF0028AC
:101128001CBF6FF000414FF0FF3000F057B8ADF131
:10113800080C6DE904CE002909DB002B1ADB00F04E
:101148007CF8DDF804E0DDE9022304B07047404292
:1011580061EB4101002B1BDB00F06FF8DDF804E0C8
:10116800DDE9022304B0404261EB4101524263EBE6
:1011780043037047524263EB430300F05EF8DDF827
:1011880004E0DDE9022304B0404261EB410170470D
:10119800524263EB430300F050F8DDF804E0DDE968
:1011A800022304B0524263EB4303704753B94AB970
:1011B800002908BF00281CBF4FF0FF314FF0FF3057
:1011C80000F00CB8ADF1080C6DE904CE00F035F86C
:1011D800DDF804E0DDE9022304B07047704700BF82
:1011E80010F8012B11F8013B012A28BF9A42F7D0C9
:1011F800D01A7047034611F8012B03F8012B002A77
:10120800F9D17047034613F8012B002AFBD1181AAD
:1012180001387047430803F05533C01A00F03333E0
:10122800800800F03330184400EB10104FF0013301
:1012380000F00F305843000E70472DE9F0478C46F8
:101248008E46089E154604461946002B40F0D0806D
:10125800724547D9B2FA82F74FB1C7F120030EFAA7
:1012680007FC20FA03F3BD4043EA0C0CBC404FEAEC
:10127800154EA8B2BCFBFEF8230C0EFB18CC08FBDD
:1012880000F943EA0C43994528D9EB1808F1FF32D5
:1012980004D2994502D9A8F102022B44A3EB090311
:1012A800A4B2B3FBFEFC0EFB1C330CFB00F044EABB
:1012B8000344A04214D92C190CF1FF3304D2A042E4
:1012C80002D9ACF102032C44241A43EA02401EB1AD
:1012D800FC40002334607360BDE8F0874246DDE7D8
:1012E8006346F1E7002A79D0B2FA82F3002B3FD0A7
:1012F8001946C1F1200302FA01F52EFA03F20EFA9B
:1013080001FE20FA03F343EA0E034FEA154E00FAF2
:1013180001F4B2FBFEFCAFB20EFB1C201A0C0CFB56
:1013280007F842EA004290455AD9AA180CF1FF3052
:1013380004D2904502D9ACF102002A44A2EB08027B
:101348009BB2B2FBFEFC0EFB1C220CFB07F743EA28
:1013580002439F4246D9EB180CF1FF3204D29F4258
:1013680002D9ACF102022B44DB1B42EA004202E044
:10137800AEEB020301224FEA154EAFB2B3FBFEFCFF
:10138800200C0EFB1C330CFB07F840EA034398457E
:101398002AD9EB180CF1FF3004D2984502D9ACF1E8
:1013A80002002B44A3EB0803A4B2B3FBFEFC0EFB24
:1013B8001C330CFB07F744EA0344A74216D92C193F
:1013C8000CF1FF3304D2A74202D9ACF102032C443A
:1013D800E41B43EA00400F46114678E71F2188E7DF
:1013E8006046ABE76246BFE76046DBE76346EFE788
:1013F800734506D916B9002108466DE7C6E9000EFF
:10140800F9E7B3FA83F787B9734501D3824207D85E
:10141800841A6EEB030301209C461EB900215BE78A
:101428003846FAE7C6E9004CF8E7C7F1200CBB409C
:1014380022FA0CF51D4320FA0CF12EFA0CF30EFAE1
:1014480007FE41EA0E014FEA154900FA07F4B3FB1B
:10145800F9F81FFA85FE09FB18300B0C08FB0EFA89
:1014680043EA00439A4502FA07F240D9EB1808F11B
:10147800FF3004D29A4502D9A8F102002B44A3EB0D
:101488000A0389B2B3FBF9F809FB183308FB0EFE0F
:1014980041EA03418E452CD9691808F1FF3304D27B
:1014A8008E4502D9A8F10203294443EA0040A0FB73
:1014B8000298A1EB0E014145CE46434602D306D120
:1014C8004C4504D2B9EB020E68EB05030138002E37
:1014D800A4D0B4EB0E0261EB030101FA0CFC22FA72
:1014E80007F34CEA0303F940C6E9003196E74046A2
:1014F800C5E74346D9E7000070B594B00C4619F02B
:101508003BFF30B92A49204614B0BDE87040FFF7C8
:1015180071BE07A819F046FF9DF81C30022B96BF34
:10152800244A254D52F823500CA819F033FFBDF872
:101538001E6008B3DDE90E01FEF778FF1AA3D3E9B0
:101548000023FFF7CBF8CDE90401DDE90C01FEF734
:101558006DFF15A3D3E90023FFF7C0F8089B174ACE
:10156800CDE90201CDE900634FF480712B46204696
:1015780015F098FC14B070BD099B4BB1CDE9006320
:101588000F4A2B464FF48071204615F08BFCF1E78B
:101598000C4A00962B464FF48071204615F082FCC9
:1015A800E8E700BFAFF300800000000065CDCD4143
:1015B8008B9C020864780208D7A40208B69A02082D
:1015C800E89A02080C9B020830B50D468FB0194600
:1015D80040F201130446CDE90135104610A3D3E9C2
:1015E8000023FEF751FFFFF7E9F90DA3D3E9002324
:1015F8000390DDE91201FEF747FFFFF7DFF900234B
:10160800049006A901A8059319F024FF06AA034629
:1016180004F50571204618F053FA0FB030BD00BF2D
:101628000000000080842E412DE9F04F00F5805322
:101638009DB0D3F8DC3805460C4616460BB19847E2
:101648000346742262700A27B3FBF7F3C3F3072239
:101658004FF00108A270B20784F80080E37040F1EF
:101668000E8119F087FE002800F0D3800AA819F02F
:1016780091FE002800F0CD808823A54A84F80480D4
:101688006371DDE90A010023FFF740FDA04A054622
:101698000023DDE90C01FFF739FD0E9B93FBF7F3FF
:1016A800C5F3074CC5F30727C0F30748C0F3072E57
:1016B800C3F30742C3F30721EDB2C0B2DBB2257210
:1016C80084F806C0E77184F8098084F80AE0E072BB
:1016D80022736173A3730F2503A803F0A9FC730792
:1016E800804673D5002840F0D0809DF82090B9F14D
:1016F800000F10D06619012363556723737085495D
:101708000398FFF7E1FAFFF7BBFCEB1CC0F30722D5
:10171800B270E05404359DF821306BB10123635554
:101728000499631968225A700846FFF7C5F9FFF74C
:10173800CDFCAE1C0335A0559DF8223083B1661947
:10174800012363557323737072490598FFF7BCFA38
:10175800FFF7BCFCEB1CC0F30722B270E054043561
:101768009DF82430E3B101236355079E6319652270
:101778005A7000213046AF1CFFF744FC002840F0A7
:10178800828065493046FFF75BFC002879D06248C3
:10179800FFF79CFCEB1CC0F30722E255E05404352C
:1017A80003F0E2FC78B10AA803F0E4FC024650B961
:1017B8009DF8683000930AAF4FF0020A4FF0800B93
:1017C800009B934264DCB9F1000F16D1B8F1000F09
:1017D80013D19DF8233083B166190123635567231C
:1017E80073704C490698FFF76FFAFFF749FCEB1C3A
:1017F800C0F30722B270E054043519F0BBFD20B1E4
:1018080019F0BAFD08B119F0CCFD28461DB0BDE8A5
:10181800F08F05F5BC5700220023D7E902011037E5
:10182800FFF79AF830B1D7E9000100220023FFF74B
:1018380093F820BB012323718823637157E90201C0
:1018480031A3D3E90023FEF71FFEFFF7B7F82EA355
:10185800D3E900230546D7E90001FEF715FEFFF797
:10186800ADF80022C5F3074CC5F30727C0F30748B6
:10187800C0F3072EEDB2C0B2114613461FE7042588
:101888002AE7304684E7002082E74FF0000987E71F
:10189800397B99B366194FF0740304F805A01F4902
:1018A800737038680192FFF70FFAFFF7E9FB4FF002
:1018B8007503C0F307217371B170F070184986F889
:1018C80004A07868FFF700FAFFF7DAFBC0F30721F6
:1018D800B171F07186F808A0B86886F809B0FFF70A
:1018E800F5FB05F10B01C0F3072C86F80AC00AF1D5
:1018F80001036054019A0C355FFA83FA01321037FC
:101908005EE700BFAFF30080000000000088C3401E
:10191800A08601000000204100FF7F470000C84268
:1019280000007A44000000002DE9F04F0446F5B0AD
:101938000E461546002A4FD01CF016FD0746002813
:1019480040F0F18096F8008008F1FF33412B43D82E
:10195800DFE813F0460089030404EB0045055B0546
:101968002B047B043F013B049E040505E00114059C
:10197800C301240337037C0323065702DE059105C0
:10198800FF057D07C807F40728084F085808EF0126
:1019980001021A029E06BF06DE0610077E065606DC
:1019A80061082A097B090209B10542004200420088
:1019B8004200420042009A080C06C0084200CF09C3
:1019C800630A7B022C0B760A890A970AD00AE10A75
:1019D800000A360AAD0B7F0B002075B0BDE8F08F0A
:1019E800072D01D8062188E104F58056002704F563
:1019F800005586F8E87886F8687AD5F8300218B184
:101A08001CF09AFEC5F83072002304F51450C5E99D
:101A18008D33C5F82035283021F0D1FE0123A5F8F3
:101A28001E3520461CF073FC96F8C8387BB195F833
:101A38001F3563B9D5F858344BB1204607F064F820
:101A480028B1606F03681B689847C5F8580433AD20
:101A580040F205132B8096F8AC37AB701623EB7069
:101A680034AF04F5057304F50D7C186859683A46D7
:101A780003C2083363451746F7D104F5BC57C8A31A
:101A8800D3E90023D7E90401FEF7FEFCFEF796FF31
:101A9800C3A3D3E900238046D7E90201FEF7F4FC8B
:101AA800FEF78CFF96F8D73785F82C3096F8EC3788
:101AB80085F82D3096F8833896F88428BA499B0023
:101AC80043EA021396F88228134385F82E3096F8D5
:101AD800813885F82F30C5E90908D6F8A807FFF737
:101AE800F3F8FFF7F3FAB0492863D6F8D807FFF7F9
:101AF800EBF8FFF7EBFA04F5BB57B6F8D437686391
:101B080004372B871F21384624F0DCFB3946024670
:101B180006460DF5837024F04CFB06F13A0229467F
:101B280020461BF0FCFC012057E704F5805797F886
:101B3800E8380BB10421E0E0042D38D9701C1BF003
:101B480047FBD7F8D420C7F8F02897F8C828C7F873
:101B5800FC084AB104F5005292F81F1521B9D2F8D1
:101B68005834003B18BF0123002687F8F438B046E4
:101B780033ADD7F8F038B3421BDC97F8F4380222BB
:101B880043442A701A0A6B70AA701A0C1B0EEA706A
:101B98002B710522294620461BF0C1FC0023C7F8FB
:101BA800EC38C7F8F838012387F8E838BBE7184657
:101BB800C7E7284617F0E0FC2A46314620461BF0C6
:101BC8004EF920B195F840300BB108F10108013603
:101BD800CFE7872D7FF606AF731C194620222046D3
:101BE80099461BF072F833AF8046384617F0C4FCAC
:101BF8004B46BC4606F1210E18685968624603C276
:101C0800083373459446F7D196F8213087F8403069
:101C180096F8223087F8413096F8233087F842301A
:101C28000DF5887C06F1240306F1640E18685968DE
:101C3800624603C2083373459446F7D10DF1EC0CA4
:101C480006F1840E18685968624603C20833734562
:101C58009446F7D1002287F83F2018461BF0B8FABF
:101C6800C7E92322C7F88400606F03681B68984798
:101C78008F2DC7F8880013D906F188001BF0A8FA41
:101C8800C7F88C0006F18C001BF0A2FA932DC7F858
:101C9800900005D906F190001BF09AFAC7F8880061
:101CA8000023C7F8943087F84330B8F1000F0CD000
:101CB800B8223946404624F07CFA0121204606F035
:101CC80025FD20461BF03CFC2DE7394620461BF03D
:101CD80019F80028F1D103210FE0202D7FF682AEFC
:101CE80001363146202220461AF0EFFF014618B18E
:101CF80020461BF01BF820B9022120461BF02BFCC4
:101D080011E704F580532022D3F8D00831461AF0A1
:101D1800C3F8D2E7202D7FF665AE711C202220463D
:101D28001AF0D3FF01460028E6D020461AF0C9FF72
:101D3800C3E7202D7FF656AE711C202220461AF0EC
:101D4800C4FF01460028D7D0032233A81BF0AAFD00
:101D5800024633A9E4E6012D3FF444AE7378072B1D
:101D68003FF640AE606E03681B68984720461BF03C
:101D78009DFE717820461BF054FE00283FF4DAAE31
:101D880020461BF093FECEE6012D3FF42BAE77786C
:101D9800072F3FF627AE412D08D90121ADE700BF37
:101DA8000000000080842E4100007A44312D7FF627
:101DB80019AEB51C0DF1ED0306F1220255F8041B0E
:101DC80043F8041B9542F9D1002110220DF1DD00E2
:101DD8008DF80C11323624F013FA0DF1CD0355F8B5
:101DE800042B43F8042BB542F9D133AA39462046CF
:101DF80006F0A4F800283FF47FAF20461BF04FFB05
:101E08005FE704F5805633ADD6F8DC080C232B7059
:101E180000B180476870000AA870D6F8D00805F0AD
:101E2800D7FF030AE8702B71030C000E6B71A871C1
:101E3800D6F8D00805F0E8FF030A2B72030CE87106
:101E48006B72000EA8720B2269E6012D3FF4CAAD31
:101E5800737823BB33AD18232B8004F58053D3F854
:101E6800DC0800B180476880606E03681B6898478B
:101E78004FF47A73B0FBF3F00023A880EB71A66EE1
:101E8800B4F86C302B81000CA8713368606E1F6940
:101E980003681B68984701463046B847D2E7012BCC
:101EA80037D1206E4FF48C73ADF8CC3003681B6AC1
:101EB8009847ADF8CE00206E03689B6B9847FFF7F4
:101EC800DFF88DF8D000206E0368DB6B98474FF081
:101ED8008141FEF7F9FEFFF7D3F84FF47A71636991
:101EE800B3FBF1F3ADF8D2301B0C00228DF8D430DF
:101EF800A369B3FBF1F3ADF8D6301B0C8DF8D520F0
:101F08008DF8D92033AD8DF8D1008DF8D8300E2258
:101F180005E6022B7FF466AD33AD4FF40673A26C71
:101F28002B80E36C206C616CB4F84080B4F844E01A
:101F3800B4F848C0B4F84C70A5F80A809E186E80B2
:101F48004FEA1649360E6E71461885F80490EE80F1
:101F58004FEA1649360E6E72060C000E6873080CAE
:101F6800090E6974110C120E28746A75206E85F8B2
:101F780008901A0C1B0E2A762E73A5F80EE0A5F809
:101F880012C02975EF826B7603681B6F9847030CA4
:101F98006883000E2B7768771E22C0E5202D7FF618
:101FA80021AD711C202220461AF08FFE0146002820
:101FB8003FF4A2AE20461AF03DFD00283FF49CAE47
:101FC8007FE6202D2CD804F5805304F5BB5193F8F7
:101FD800EC370431C3B920461AF0B8F80546002892
:101FE8003FF479AE037843F0010303700DF1CD019E
:101FF8000B238DF8CC3018F012F9294606462046F6
:1020080016F094FF721CA4E604F5BC50D0E9042332
:10201800CDE90023D0E902232046FFF7D5FADDE712
:10202800711C202220461AF050FE014600283FF479
:1020380063AE0B230DF1CD0220468DF8CC301AF09B
:102048001CFD00283FF476AD421C82E6622D7FF627
:10205800C9AC6A1ED2B2711C20461AF017FD0028BE
:102068003FF4C0AC29E60D2D7FF6BCACF01CA5F101
:102078000D071BF0ADF8A02F28BFA02707AD3A46E3
:1020880006F10D018146284696F801B096F802A09F
:1020980024F08FF80023EB550622F11D20461AF094
:1020A80014FE0746002857D0BBF1010F4FF000037C
:1020B80012D9BBF1030F4DD10593606F19F0E5FFFD
:1020C80006ABCDE901530246CDF800B05346394678
:1020D80020461AF038FC0CE005AA0593EDD006ABB3
:1020E800CDE901230146009553464A4620461AF099
:1020F80012FC054600283FF4EEAD059B0DF11408CF
:102108008BB133A817F038FA002604F58059D9F8AE
:10211800D4309E420FDB4FF0FF36D8F8001032461D
:1021280020461BF093FD069BD8F80020E9B2204614
:102138001BF01EFAF7E433AA314620461AF08FFE48
:1021480030B12022394633A824F069F80028E4D0B9
:102158000136DCE74FF001084146CEE5072D7FF652
:1021680041AC96F80180B8F1000F7FF416AEF01C70
:102178001BF02EF8B178074633AA20461AF048FE1D
:1021880000283FF4B9AD073D073604F5BB53CDF839
:10219800088001950096043333AA3946204605F095
:1021A8007FFE00283FF4C6AC8BE5012D03D077787D
:1021B8007A1E5742574123683946D3F8FC302046E7
:1021C800984700283FF487AD7BE504F5805696F8DC
:1021D800683A4BB120461BF027FD0023B6F8640A85
:1021E80086F8683A0AF064F907AF3A4633A92046F8
:1021F8001BF0FEFC054658B1079A33A920461BF090
:102208008EF900283FF48FAC012386F8683A8AE4F7
:102218000A23012206A920468DF818301BF07FF901
:1022280000283FF480AC1CF05BFA04F5005383F8F7
:102238001E55D6F8643A002B7FF775AC2B462A4614
:10224800832120461BF0B3F96DE4012D3FF439AD2D
:10225800013D1F2D41F2647828BF1F2504EB0807B4
:102268002A46711C3846254423F0A3FF002305F8AD
:10227800083004F5805304F5BB51D3F8D00804F0B6
:1022880083FE38461CF02DFA20461CF02BF818E582
:102298000A2D7FF6A7AB701C1AF09AFF0B2D034688
:1022A80052D096F80B80B8F1000F4DD0C64A904234
:1022B8007FF698AB013290420AD0C44A90427FF62A
:1022C80091AB0132904203D0C14A90427FF48AAB6D
:1022D800701D1AF07DFFBF49A0F5DA52183A8A42FC
:1022E80007463FF67FAB96F80990A9F10502072A41
:1022F8003FF678ABB67A721F032A3FF673AB1846DF
:10230800FEF78AFCB449FEF793FD04F58055C5F83D
:10231800A8073846FEF780FCAF49FEF789FD85F827
:10232800D497C5F8D80785F8D56785F88E88D5F885
:10233800D00804F5BB5104F027FED5F8E038002B8F
:102348003FF4BFAC9847BCE4A449A3F51232A2F508
:10235800F8728A423FF646AB4FF00008B8E7012D05
:102368003FF440AB727802F10903DBB21F2B3FF652
:1023780039AB04F5805585F8AC27D8E7082D7FF6EA
:1023880031AB701C1AF024FF954A964902448A42E0
:1023980003463FF627AB701D1AF01AFF924A904287
:1023A8000546FFF61FAB88423FF71CAB1846FEF701
:1023B80001F883A3D3E90023FEF790F904F5BC568E
:1023C800C6E902012846FDF7F5FF7DA3D3E90023FE
:1023D800FEF784F9C6E9040104F5805333E1606F20
:1023E80009238DF8CC3003681B689847030A8DF8D9
:1023F800CD008DF8CE30030C000E33AD8DF8CF3004
:102408008DF8D0000522FFF78ABB042D7FF6EAAAD3
:1024180018F0BEFF38B120461BF092F820461BF09A
:1024280076FFFFF780BB701C1AF0D2FE0546606F7E
:1024380003681B6898478542FFF4D4AA606F036855
:1024480029465B68984702200AF00CF9284619F0DB
:102458005DFA21F078FB0A220023FEF7A7FE4FF46D
:102468007A720023FEF752FE014604F50950203027
:1024780019F08DF9CFE7012D3FF4B4AA04F5005304
:10248800727883F8202404F58056584B584A3393C1
:10249800D6F888385749002B08BF134635A8482274
:1024A800349323F086FEB6F88E38ADF81C3133AD80
:1024B8005222FFF734BB04F5805617234649D6F855
:1024C800B0078DF8CC30FEF7FFFBFEF7FFFD030ADF
:1024D8008DF8CD008DF8CE30030C000E3E498DF8F6
:1024E800D000D6F860078DF8CF30FEF7EDFBFEF789
:1024F800EDFD030A8DF8D1008DF8D230030C000EE3
:1025080033AD8DF8D3308DF8D4000922FFF707BB1F
:10251800082D7FF667AA701C1AF05AFEFEF77CFB9E
:102528002D49FEF785FC04F58055C5F8B007701DE8
:102538001AF04EFEFEF770FB2749FEF779FCC5F846
:102548006007D5F8D00804F5BB5104F01DFDFFF76E
:10255800B8BB0E2340220DF1CD0104F505708DF8AE
:10256800CC3017F06DF84122FFF7F3BB052D7FF64D
:1025780039AA21490522701C23F051FE00287FF456
:1025880031AA04F58053D3F8D00819F079FC204615
:102598001AF0D6FF01200AF0DDF8062D7FF622AAF0
:1025A80016490622701C23F03AFE00287FF41AAA66
:1025B80020461AF087FF20461AF09AFFE7E700BF87
:1025C8000000000080842E41679B060076440D00C1
:1025D800F0010E00C885070000007A44B0DB230034
:1025E800804A5D050095BA0A006B45F50D0E060890
:1025F80040E20100846E02087EA90208BAA002081F
:10260800012D3FF45EAB04F58053727883F881287E
:10261800022D18D0B27802F0030283F88228B2782B
:10262800C2F3810283F88328B278032DC2F3011222
:1026380083F8842807D0F27883F8EC27042D02D099
:10264800327983F8D727D3F8D00804F5BB517CE753
:10265800042D7FF6C7A9D6F8015035B1CF4AA5F5A4
:10266800C333A03B93423FF6BDA904F5805604F559
:10267800BB51D6F8D008C6F8885804F085FCD6F8BF
:10268800E438002B3FF41DAB28469847FFF719BBE9
:1026980004F50055D5F8300220B11CF04DF80023A0
:1026A800C5F830320026C5E98D664FF400501CF09D
:1026B80041F8C5F8300200283FF43CAA4FF4005313
:1026C800C5F83832B64B3393ADF8D0600622FFF721
:1026D80040BB04F50057D7F8300200283FF42AAA77
:1026E800012D3FF427AAD7F83432D7F83822013D14
:1026F800591991423FF6EFAA18442A46711C23F053
:1027080058FDD7F834322B44C7F83432FFF7D9BA1A
:1027180004F50055D5F83022002A3FF40BAAD5F865
:102728003432002B3FF406AA07A904F5057017F008
:102738004CF814238DF8CC300DF1CD0607AB17AF4C
:102748001A4603CABA4230607160134606F1080699
:10275800F6D1412233A920461AF0E1FED5F830021D
:1027680008B11BF0E9FF0023C5E98C33C5F83832FE
:10277800FFF7D9B9A5F10B03B12B4FD8737A0A3DEE
:102788005FFA85F803F0030148FA01F9B9F1400F3F
:102798003FF728A901228A40013A12EA080A7FF481
:1027A80021A9701C1AF014FD0746701D1AF010FDBF
:1027B80039460246204617F0A3FC054600283FF498
:1027C8008AAA06F10A02014643462046CDF800A02F
:1027D80017F01FFB2B79206E6988194403680231B2
:1027E8009B68984723680146D3F8C4305FFA89F29A
:1027F800204698470623ADF8CC303B0CADF8CE7098
:102808008DF8D0303F0E030CADF8D200000E33A97E
:102818000A224F710B724872FFF782B9082D7FF6B2
:1028280050AA701C1AF0D4FC0146701D1AF0D0FC96
:1028380000230246204617F063FC014600283FF4B7
:1028480079A90022204617F027FBFFF73ABA402D56
:102858007FF6C8A80136304600F0C0FD00283FF4D6
:10286800C1A833A804F5805516F098FE31464022D9
:1028780033A816F0BBFED5F8D00833A904F038FB0E
:1028880000283FF457A995F8C86816B120461BF0F0
:1028980064FD602233A904F5057023F08AFC204604
:1028A80006F040F904F500530022C3F8582495F8BF
:1028B800CC383BB1D5F8D00885F8CC2804F5BB5105
:1028C80004F062FB16B120461BF00CFD002304F552
:1028D800BA51D5F8D008C5F8D4301C3105F0A4F8A1
:1028E800FFF7EFB9052D7FF67DA87778384617F002
:1028F80032FC00283FF451AA3B46AA1EB11C33A85B
:1029080017F039FCA8B9BB067FF46CA8023031185F
:102918002A1A204617F0DFFB014600283FF4DBA9FE
:102928000023009333AA3B46204617F072FAFFF7BC
:10293800C8B9831D9D42FFF455A8E7E7202D7FF60F
:1029480051A8711C202220461AF0BFF9213D3F2DC5
:1029580028BF3F2506F1210107462A4633A823F060
:1029680028FC33AB00265E55002F3FF4C5A907AD00
:102978002B4633AA394620461AF0B0F800283FF40F
:10298800AAA904F50052C2E99266C2E99066079BBB
:10299800D2F83C22C1B2FFF7CABB00BF9FBB0D00F3
:1029A80013000020202D7FF61DA82022711C204630
:1029B8001AF08BF9054600283FF49EA907AE33AFFD
:1029C800014600973346012220461AF043F90028B1
:1029D8003FF4B0A804F500530022C3E99022C3E9EC
:1029E8009222C3F83C222A68C3F84022339B079AF4
:1029F800D0E7202D7EF6F6AF711C20461AF0AEFA0D
:102A0800FFF7DBBA202D7FF65CA9711C20461AF06F
:102A180082FAFFF756B9042D13D1D4F81422CDF851
:102A2800CE20B4F81822ADF8D2208B23072235A97E
:102A38002046ADF8CC30FEF7F7FD00F10802FFF7AD
:102A480088B9232D7EF6CEAF311D202220461AF0FC
:102A58003CF9014600283FF44FA907AF33AE009672
:102A68003B46032220461AF0F5F800283FF462A8F6
:102A780004F500550022C5E99222C5E98F22079A7C
:102A8800C5F84422339B85E7212D7EF6ABAF711C38
:102A9800202220461AF019F9014600283FF42CA9F3
:102AA800A5F1210333AF07AD01970095DBB206F11D
:102AB800210220461AF099F800283FF43BA804F5B3
:102AC80000530022C3E99122C3E98F22079AC3F871
:102AD8004C22D7E7212D7EF685AF7778002F7EF43C
:102AE80081AF2022B11C20461AF0EFF805460028D5
:102AF8003FF402A9206FADF8CE704FF60363ADF82E
:102B0800CC308DF8D070036804221B680DF1D10118
:102B1800984707AEFF230DF1180895F8429085F8FD
:102B2800423033AA0196CDF8008009232946204671
:102B38001AF05BF885F8429000283EF4FBAF04F5E4
:102B48000053069AC3F84C72C3E99077C3F83C72F5
:102B5800C3F84822079B1DE7082D7EF643AF0722DE
:102B6800B11C20461BF0B1FC00283FF4C5A8162371
:102B78008DF8CC30836A8DF8CD301A0A8DF8CE20C6
:102B88001A0C1B0E8DF8CF208DF8D030C3798DF834
:102B9800D130402200F12C010DF1D20017F0EBFAF0
:102BA80033AD821DFEF7BBBF0DF1CC08152388F8A5
:102BB800003018F0DFFB58B318F0DEFBC34A0346B9
:102BC8003F210DF1CD0014F06DF90DF1D20518F08B
:102BD800DBFB43AE0346F8B1A6EB05093FB9B9F1F3
:102BE800000F04D02C2205F8012B09F1FF39B84A4F
:102BF8004946284614F056F900280DDD48450BD201
:102C08000544761B5EB12C2305F8013B013E06E026
:102C180001270DF1CD05DAE7761B002FF2D004F578
:102C28008053AC4A93F87538003B18BF01233146EE
:102C3800284614F037F9002802DDB04238BF2D18B5
:102C4800A5EB08024146FEF76BBF032D7EF6CAAE20
:102C5800013D3F2D28BF3F252A46711C33A823F08C
:102C6800A8FA33AB00265E553A21184623F0E7FA56
:102C7800054600283EF4B6AE0670974933A8FEF71D
:102C8800AFFA60B96D78A5F1310045424541284653
:102C980018F075FB04F5805383F8E457D3E48F49A3
:102CA80033A8FEF79DFA78B9681C23F0B4FA8C4B68
:102CB800421E9A4205463EF695AE18F068FB04F5AA
:102CC8008053C3F8E857BEE4864933A8FEF788FA6C
:102CD80000287EF487AE6B78A3F1310104F58052A9
:102CE8004B424B41D2F8D00882F8753804F5BB51F5
:102CF8002BE4012D3EF476AE7178C1B904F510507D
:102D0800112D00F121000ED9B31C123653F8042BF3
:102D180040F8042BB342F9D104F50053002283F89C
:102D28003124FEF7CEBF102223F06AFAF4E7022D11
:102D38007EF458AE01297EF455AE04F5005304F52F
:102D4800105083F8311410220021213023F058FA52
:102D5800FEF7B7BF2F2D23D9771C1F21384623F044
:102D6800B1FA431E1D2B05463EF63CAE04F5C4538E
:102D7800123318461F22002123F042FA2A46394608
:102D880023F017FA04F5C55306F120021133303643
:102D980052F8041B43F8041BB242F9D1FFF71CBBDD
:102DA80004F5C4501F220021123023F029FA04F53B
:102DB800C55010220021113023F022FAFFF70CBB76
:102DC8001C238DF8CC3004F5805393F892380BB35C
:102DD80004F5C45312330DF1CD0203F11C0153F86D
:102DE800040B42F8040B8B42F9D1198811809B78A7
:102DF800937004F5C55303F121063BAD11331868F0
:102E080059682A4603C20833B3421546F7D130221F
:102E1800FEF79FBF0122FEF79CBF012D3EF4E2ADF5
:102E280096F90130002BBEF6DDAD711C6A1E2046F6
:102E380016F068FF014600287FF403ADFEF74BBF8C
:102E4800012D3EF43EAF04F58053727883F88D2847
:102E5800022D3FF4F8ABB278402A28BF402283F80D
:102E68009028FFF7F0BB33A919230B7004F58053A2
:102E780093F88D2893F890384A708B700322FEF7E8
:102E88004FBE1A2318498DF8CC300DF1CD001AF039
:102E980097F915490DF1D1001AF092F913490DF17E
:102EA800D5001AF08DF911490DF1D9001AF088F9F9
:102EB8000F490DF1DD001AF083F90D490DF1E1001C
:102EC8001AF07EF91922FEF744BF00BFB39F02082B
:102ED800BA9F0208CA9F0208DA9F0208DE9F02080A
:102EE8007F510100EB9F0208689B060077440D00A4
:102EF800F0010E00022D7EF675AD7378002B7EF47E
:102F080071ADB278022A3EF66DAD04F5805383F8B0
:102F18008F28FFF798BB042D7EF664AD96F80290D3
:102F280096F80180484617F016F928B9B9F1FF0F4D
:102F38007EF458AD032013E0B9F1FF0FFAD04FEA41
:102F4800991209F03F0302FB033305339D42FEF457
:102F580049AD4B46EA1EF11C07A817F00CF90330DF
:102F6800074616F800A030440237BD4290F801B079
:102F780033AA414620468CBFED1B002519F048FFB7
:102F880000283EF4B9AE5AEA0B233EF42BADA72D28
:102F98003EF728AD3744CDE9003702954B4607AADE
:102FA80033A9204619F00CFDFFF70BB9212D7EF649
:102FB80019AD06F1010841462022204619F085FE88
:102FC80033AF0146213658BBB822384623F018F9EA
:102FD800384616F0D1FA4346BC4618685968624626
:102FE80003C20833B3429446F7D10023606F87F8D1
:102FF800423087F8403003681B6898473946C7F85D
:103008008800204619F07EFE00283EF464AE414652
:103018002022204619F059FE014600283EF45BAEF6
:10302800A5F1210307AD01970095DBB23246204692
:1030380019F0A7FD00283EF47DAD04F500530022E9
:10304800C3E99122C3E98F22079AC3F84C223B684F
:10305800A0E4012D3EF4C6AC04F50053D3F8347453
:10306800002F3EF49AAE013DAF2D28BFAF252A466A
:10307800711C07A823F09DF807AA0023535533AD08
:103088001D232B800DF1CD011046B8476B7823B96D
:1030980017490DF1CD00FEF7ADF80DF1CD00FEF7A3
:1030A800B1F8AF2828BFAF20421CFEF738BD032D6A
:1030B8007EF698AC204615F025FF074600283EF41A
:1030C8000AAE0146AB1EB21C204696F8018015F0E8
:1030D800DCFE38B1002342463946204616F0D6F9C0
:1030E800FEF7EFBD3946204615F020FFFEF77ABC03
:1030F800F89F0208000000001BA3D3E90023C0E9E1
:1031080000231BA3D3E90023C0E902231AA3D3E9B0
:103118000023C0E904231AA3D3E90023C0E9062346
:1031280019A3D3E90023C0E9082319A3D3E900238D
:10313800C0E90A2318A3D3E90023C0E90C2318A384
:10314800D3E900230021C0E90E2300220023C0E9AF
:103158003023C0E93223C0F8D0108022403023F059
:103168004FB800BFAFF3008008C9BCF367E6096A2F
:103178003BA7CA8485AE67BB2BF894FE72F36E3CFE
:10318800F1361D5F3AF54FA5D182E6AD7F520E515B
:103198001F6C3E2B8C68059B6BBD41FBABD9831F15
:1031A80079217E1319CDE05B10B50021074BC0F8DB
:1031B80090110446C0E96011C0E96211C0F8943169
:1031C8004FF4C07223F01CF8204610BDCDCC4C3E05
:1031D80030B5024601780D4853880D4CC1F3830180
:1031E800484002F14901C2F1FF22082B02F57F0293
:1031F80004FB00F028BF0823B7325518AB4200DCA7
:1032080030BD11F8015F68406043F6E7C59D1C8139
:10321800930100012DE9F04104460D4607460026BA
:1032280042F210783B7B3BB17B68EB1A434503D9EC
:103238003146204615F092FC0136182E07F110078A
:10324800F0D1D4F88C3133B3154AEB1A934222D912
:10325800D4F88431FBB1D4F8903123B9A5F59C5347
:10326800083BC4F8903103F51C41403141F28736E0
:1032780041F28830EA1AB2420BD9D4F8842142B11B
:103288000344A2EBD2028B42C4F88421C4F89031E3
:10329800F0D1BDE8F0810023C4F89031F9E700BF10
:1032A800E093040070B5C1F51C550346024600F5CD
:1032B800C07611356FF00040147B34B154682C444B
:1032C80024EAE474A04228BF20461032B242F3D167
:1032D800D3F88C2192B1D3F884417CB10D4C8D1A6E
:1032E800A5420CD9D3F890312BB1C1F59C510831C6
:1032F8000B4423EAE373984228BF184670BDC1F512
:10330800922101F2E131114421EAE171884228BF9A
:103318000846F3E7E093040010B5D0F88831032B92
:1033280026DDD0F88401FDF777FC4FF06E51FDF7EC
:10333800CBFC00210446FDF76FFEE0B94FF0814158
:103348002046FDF7B9FB01462046FDF771FD0B4904
:10335800FDF7BAFC0A49FDF7AFFB4FF07E51044672
:10336800FDF76EFE10B14FF07E5010BD2046FCE711
:103378004FF07C50F9E70248F7E700BF9A99193FE8
:10338800CDCCCC3E004870478AB702080048704749
:1033980080EE360030B5C0E918120F4D8366012261
:1033A8000023C0E90533C0E90733C0E90933C0E9A0
:1033B8000B33C0E90D33C0E91033C0E91233C0E95B
:1033C8001433C0E91633056043600372A0F86C300B
:1033D800828780F83E3030BDE873020870B5B8B017
:1033E80001460446684622F0C0F89DF80030013BCB
:1033F800DBB2FD2B38D8274B28AA03F14006186802
:103408005968154603C50833B3422A46F7D1224BFB
:1034180008AA03F1200618685968154603C5083339
:10342800B3422A46F7D108A920A811F069FB20AABF
:10343800214610A822F045F8694620A811F060FB43
:1034480020AA28A918A822F03CF8202218A910A818
:1034580016F0FBFF044658B9202110A817F02FF8E2
:10346800202118A817F02BF80024204638B070BD8A
:1034780010A9002311F8012B1AB90133202BF9D117
:10348800144610A8202117F01AF8202118A817F0C0
:1034980016F8EAE7489502088995020838B50446FF
:1034A8001D46059BFFF776FF084B2360049B636767
:1034B800069BA367256704F17C00FFF775FE04F5FA
:1034C800057016F06BF8204638BD00BF2874020856
:1034D8002DE9F04F0E7806F00303023B012BF3B001
:1034E80005460C4600F2FA8206F03C02242A0B79C3
:1034F8005BD13F2B1CD84E88082E19D991F85270F1
:1035080007F00302093E9340F6B21FFA83FC6645B2
:1035180010D801F153020368029201F10A02CDE9C1
:10352800007203965D6ED1F84A20D1F84E30A84754
:10353800002037E00121533301FA02F200F505714A
:10354800E01822F06CFE0028F2D12B6821461B6C93
:10355800284698470028EBD0A86F036821461B68C7
:1035680098470028E4D1A86F036821465B6898470C
:1035780094F90201FDF754FB4FF07A51FDF7A4FBD3
:103588004FF08141FDF7A0FBFDF77AFD23795A1C26
:103598002344227198722B6821469B6C28469847D1
:1035A80040F0C06073B0BDE8F08F2C2A03F03F03F1
:1035B8000AD191F94A20002A80F28D82002BB7D1D6
:1035C80003689B6F9847B3E74BB90C2A40F0868293
:1035D8000368D1F84A20D3F888309847A8E70C2A1E
:1035E80005D10368D1F84A20D3F888309847227962
:1035F8009209013205F5057104F10A0022F00FFE67
:10360800002895D12B6821461B6C2846984700282E
:103618008ED02378C3F383030A2B04D1214628468E
:1036280016F02CFB84E7A86F0268032B126821466A
:1036380013D19047064600287FF47AAFA86F036835
:1036480021465B6898472146284616F019FA324603
:103658002146284616F0BBFA6AE7904700287FF40F
:1036680067AFA86F036821465B68984721462846DC
:1036780016F006FA2B6821469B6C2846984740F0BE
:1036880080708FE72B682146DB6B28469847002817
:103698007FF44EAF207816F0F1F8002800F024826D
:1036A8002046FFF795FD0646686E03681B68984735
:1036B80005F17C0702463146384615F095FA20B1E7
:1036C8003146284616F03AF90EE22B682846DB6C9C
:1036D8009847002800F00882686E03681B689847BE
:1036E80031460246384615F059FAFDE16388032B46
:1036F8007FF61EAFA86FD4F84A60036821461B689E
:10370800984700287FF414AFA86F036821465B68C8
:1037180098472B683246D3F8883021462846984780
:103728002B689B6B2146284673B0BDE8F04F1847BD
:103738000DF1200A94F84B308AF80030638894F829
:103748004A70042B7FF6F4AEA86F036821461B6805
:103758009847064600287FF4EBAEA86F0368214619
:103768005B68984795F81432BB4268D12B6851467C
:103778009B6D2846984704F14C0B814610AF0DF11C
:10378800C4084E452B685ADADB6D3246394628465E
:10379800984763885A46023B4146384616F06CFE05
:1037A800031E5CDD2278C2F38302082A4DD198F803
:1037B80000900793484616F0CEFC00283FD04FEA09
:1037C800991109F03F02079B01FB0222501C984205
:1037D80035DA02329B1ADBB2424429680392049319
:1037E80018F8003003F00F03CDE901930DF1C50877
:1037F800CDF80080D1F868B03B46324621462846CD
:10380800D847D0B1207816F039F8B0B10023CDE907
:103818000233019323790093514604F10A033A468F
:10382800284616F06DFB014638B14FF4FA73009341
:1038380042464B46284616F0ECFAFF2323702B68C5
:1038480021469B6B28469847ACE629680097CDE946
:10385800018328460F6E33462146B847EDE7013607
:103868008FE76388232B7FF663AEA86F94F84A60CE
:10387800036821461B68984700287FF459AEA86F53
:10388800036821465B68984795F81432B3427FF481
:1038980047AF04F14B0608AA04F16B07306871685A
:1038A800134603C30836BE421A46F7D108AA10A920
:1038B80005F5057015F095FF638831AF213B324659
:1038C800394610A816F0D8FD00287FF729AF2B68D5
:1038D800CDE9007010AA1E6F214608AB2846B047F4
:1038E800FF2323701CE708AF94F84A303B706388C5
:1038F800032B7FF61DAEA86F036821461B68984707
:10390800064600287FF414AEA86F036821465B685A
:1039180098472B680DF14009D3F880803946042375
:103928004A462846C04704F14B0A07460DF14108AC
:103938000DF1C40BBE4282DA63884046013B524611
:10394800594616F099FD002808F121080FDD2B686B
:103958002278CDE900B006EB4616D3F88470C2F39E
:10396800830209EB060321462846B84767E7013674
:10397800E0E710A815F000FE10AE04F14A0304F1C8
:103988006A0718685968324603C20833BB421646AC
:10399800F7D16388632B7FF6CBAD202210A905F5FC
:1039A800057022F03CFC00283FF4C2ADA86FD4F8A3
:1039B8006A80036821461B68984700287FF4B8ADE1
:1039C800A86F036821465B6898470DF1400CBCE876
:1039D8000F000DF1C40A56460FC667889CE80F0011
:1039E800643F202F28BF202704F1AE0986E80F0086
:1039F8003A4649463AA8CDF8E48022F0DAFB07F1C6
:103A08002403524604F16E0110A815F0BDFD0028EC
:103A18003FF4C8AD2B68CDE9009710AADE6E2146A9
:103A280043462846B0470AE703F00303023B012B4D
:103A38003FF67EADA86F036821461B6898470028AB
:103A48007FF476ADA86F036821465B6898472B68BA
:103A58002146DB6F2846B5E56288022A7FF668AD05
:103A680094F84A3003F00F03032B7FF461AD042A66
:103A78007FF65EAD31AE304616F068FB23788DF8E0
:103A8800C4304022237904F10A010DF1CE0016F06A
:103A980083FB62888DF8C800013A92B204F14B01A9
:103AA8000DF58770ADF8C62022F083FBA86F036878
:103AB80031461B68984700287FF43AADA86F036821
:103AC80031465B6898472B68DDF80E21D3F88830BB
:103AD8003146284681E5002B7FF489AD304615F044
:103AE800CDFE00287FF4CEAD2378C3F383020F2ADE
:103AF8003FF61EAD01A151F822F000BF393700088A
:103B08003937000839370008F53600087B390008CE
:103B1800EF380008EF3800086B380008393700081C
:103B280039350008613A0008393500083935000888
:103B38003935000839350008313A000830B5084BE6
:103B48000022D3F8205110469C33AA4200DB30BD36
:103B580053F8044F641A002CD8BF01300132F4E73F
:103B6800B8410020014BD3F820017047B84100202C
:103B7800014BD3F820017047DC420020044BD3F8F6
:103B880020219142B4BF53F821000020704700BFA4
:103B9800B8410020044BD3F820219142BABF283104
:103BA80053F8210000207047B8410020054BD3F896
:103BB80020018142BDBF2831012043F82120002087
:103BC800704700BFB841002070B50B4B0022D3F8F6
:103BD800206103F19C05FF208033B24200DB70BDF9
:103BE80055F8044F641A002C03DC9C5CA04228BFE3
:103BF80020460132F1E700BFB8410020F8B5104A6D
:103C08000C46D2F8207102F19C0600234FF0FF31D8
:103C1800FF208032BB4205DB4B1C0FD0084816F052
:103C280072FBF8BD56F8045F2D1B002D04DCD55C33
:103C380085423CBF194628460133EBE70020F0E7F0
:103C4800B841002008B5024816F05DFB08BD00BF6A
:103C5800B841002038B50B4B1C786CB901220A4DCD
:103C68001A700023294609481A46013416F06DFBDC
:103C7800202C05F58275F4D10021044816F043FB89
:103C880038BD00BF1E88002084650020DC4200206B
:103C980008B521B1002302481A4616F056FB08BDA4
:103CA800DC4200202DE9F0471B4E054630460F4602
:103CB8009046994616F049FB0446D8B9D6F8200133
:103CC80018B306F17F0C21462346A04214DC0E44AB
:103CD80096F88030434518D90F4816F014FB2B6826
:103CE80001465B68284698470B484B46424639468A
:103CF80016F02BFBBDE8F0871CF8012F9A4234BF61
:103D08001A46214613460134DFE72B683946284610
:103D18005B68BDE8F0471847B841002038B50E4D3C
:103D28000024281904F5827416F010FAB4F5025F1D
:103D3800F7D10A4B0024214680221846C3F82041B7
:103D480022F05EFA064BC3F820412146184680222D
:103D5800BDE8384022F054BA84650020DC420020D7
:103D6800B84100202DE9F0438DB00D4612F00F0147
:103D78009DF85090804614461E4604D04FF0FF3000
:103D88000DB0BDE8F083184B0693142207A822F063
:103D980037FAB9F1000F0CBF4FF400734FF480737A
:103DA800124F0893102204AB414606A8099721F048
:103DB800F8FE0028E2D105ABCDE90143049800964E
:103DC80023462A463946B9F1000F09D011F052FBB3
:103DD8000446049821F0C9FE002CCFD10598CFE7FE
:103DE80011F0E4FBF4E700BF002480000044400425
:103DF8002DE9F04194B007460C46164600211422DE
:103E080007A81D4622F0FCF94FF48853DFF85C80C0
:103E1800ADF818304FF48073ADF81A304FF4806362
:103E2800CDE90838202204AB394606A821F0B9FEAE
:103E380028B14FF0FF34204614B0BDE8F08105AB3F
:103E48000293202301930CAB009322460498334637
:103E5800414621F082FF0446049821F086FE002C9A
:103E6800E7D1BDF830302B80E5E700BF09008003BB
:103E780030B58DB00D4611461A4603AB0193202389
:103E88000093044604AB0A4821F057FF2A4630B194
:103E9800002120460DB0BDE8304022F0B1B9202DF8
:103EA80028BF202204A9204622F083F90DB030BD96
:103EB800090000022DE9F043A7B004460D46164656
:103EC800002170220AA8DDE92E891F4622F098F900
:103ED80016490AA821F0E2FEE8B93A4631460AA88E
:103EE80021F0FDFEB8B94A4641460AA821F0F7FE7E
:103EF80088B901AB202202A90AA821F007FF50B90E
:103F0800202D2A4602A928BF2022204622F051F956
:103F180027B0BDE8F0830AA821F0B1FE2A460021A7
:103F2800204627B0BDE8F04322F06AB90900000234
:103F380008B5054B002814BF0146194603481AF076
:103F4800F8FD012008F006FCAA950208B6950208BB
:103F5800F0B50B4D8E180346B14203F1020303D1AD
:103F6800002300F81230F0BD11F8014B270904F0C6
:103F78000F04EF5D2C5D03F8027C03F8014CEBE7BE
:103F88002DB9020800487047D695020800487047C6
:103F9800D6950208004870470000C07F0048704767
:103FA800E495020808B503681B689847BDE808400F
:103FB8000146014817F0ABBCA076020808B50349D2
:103FC8001046FDF717F9002008BD00BFF19502085B
:103FD80070B5C3680C4615469BB393F87430DA1F66
:103FE800052A32D81A4A073B214652F82360304640
:103FF800FDF726F848BB2846FCF712FE4FF06E5135
:10400800FCF762FE01464FF07E50FCF753FD314647
:1040180005462046FCF74EFD0E49FCF709FF014610
:104028002846FCF751FE00210446FCF7EBFF60B977
:104038004FF07E512046FDF703F820B14FF07E5037
:1040480070BD0723CEE72046FAE70020F8E700BF57
:10405800347602080000204170B5044616F002FBD1
:10406800D4F88039D4F88429054653EA02004DD0A3
:104078005B1B62EB0102012B72F100003EDB6FF06B
:104088000040834272F1000200DA1846B4F84E3A52
:104098009BB394F9513A803314D0D4F8582AD4F801
:1040A8005C6A521B66EB0106012A76F1000327DBE6
:1040B8006FF000439A4276F1000600DA1346984200
:1040C80028BF1846D4F8683AD4F86C2A53EA020490
:1040D8001CD00F4C1B1942F100025B1B62EB010163
:1040E800012B71F100020DDB6FF00042934271F178
:1040F800000109DA984228BF184670BD0020C5E7BC
:104108000023DCE70023F5E71346F3E70020F4E794
:104118000097490170B5044600254A482060C4E963
:104128000213C4E9042500230020002104F51862C5
:104138002362C4E9065525716362C4F85858C4F867
:104148005C58C4F87059C4F8745984F87859C2E9AD
:10415800000143F69822C4F88C2904F526664FF42A
:10416800004284F88859C4F89059C4F89459C4F89E
:104178009859C4F89C59C4F8A059C4F84C5AA4F8E2
:10418800502A46E90201C6E9000104F5276646E916
:1041980002010126A4F8705A84F8726AC4F8745AA5
:1041A800C4F8785AC4F87C5AC4F8805AA4F8845AD7
:1041B80084F8865AC4F8885AC4F88C5AC4F8905AB5
:1041C800C4F8945AC4F8985AA4F89C2AC4F8A05A77
:1041D800C4F8A45AA4F8A85AC4F8AC5AA4F8C45A03
:1041E800C4F8C83AC4F8CC3AA4F8D05AC4F8D45A97
:1041F800C4F8D85AC4F8DC5AC4F8E05A84F8885B82
:10420800A4F88A5BC4F88C5BC4F8905BC4F8945B30
:1042180004F516601FF0EFFD3246294604F53760B5
:104228001FF0E4F929464FF4036204F1280021F055
:10423800E7FFA822294604F6A41021F0E1FF204652
:1042480070BD00BF5875020808B503468068B3F80A
:104258008A1B8368002908BFFF215B68984758B10B
:10426800084B98420BD800F5FA70400041F28833A9
:10427800984238BF184608BD41F28830FBE76FF412
:104288007A70F8E70BFEFF7FF0B590F8883B89B0AD
:104298000446B3B900F6E825002600270A20CDE930
:1042A8000230CDE900430493CDE90667064B284662
:1042B8000FF05CF9054928461FF09EFA012384F89F
:1042C800883B09B0F0BD00BF09AD01081F96020880
:1042D8002DE9F84305460C461746002114222046CE
:1042E80021F08EFF95F8C53A002B37D0D5F8C80ACB
:1042F800D5F8CC9A95F8D08A95F8D16A2A49FCF76E
:10430800E3FCFCF7E3FE20604846FCF7DFFE83B2DF
:104318001F2B08D035D80F2B05D030D8072B02D04B
:104328000A2B18BF7D23A380B31F022B9ABF043E1C
:10433800F6B20126B8F1080F8CBF1023202384F8A9
:104348000680E6712381EB682BBB1623A372022338
:10435800E3730423E7722374BDE8F883EB683BB189
:10436800986CD3F8789093F8748093F87560C5E7E3
:10437800DFF838900E484FF007080526BEE7142BE3
:10438800CFE7FA2BCFD003D8292BCCD03E2BC8E7C8
:10439800B3F5FA7FC5E793F94C30A372162BD4DC3A
:1043A8000933D4DAF723D1E70024744900007842AE
:1043B8008D67594408B590F8C53A5BB1D0F8C80A7A
:1043C8000749FCF781FC4FF07C51FCF775FBFCF7C3
:1043D8007DFE08BDC3680BB1986CF1E70148EFE7B3
:1043E800002474498D67594408B590F8C53A63B1FB
:1043F800D0F8CC0A0849FCF767FC4FF07C51FCF771
:104408005BFBFCF763FE80B208BDC3680BB1986F15
:10441800F0E70248EEE700BF0000204100007842C4
:104428002DE9F047024616F0D1FB92F8C53A0F463F
:104438000646002B00F09580D2F8CC5A4D4910461C
:1044480016F0D1FB0C2EB04628BF4FF00C085FFACF
:1044580088F8B8F1060F0446284638BF4FF006081A
:10446800FCF7D0FD00B1444D082C28BF0824E4B265
:104478000120052C00FA08F038BF0524FCF7D0FB12
:104488003E4981462846FCF71FFC01464846FCF792
:10449800CFFC082E05468CBF10202020FCF7C0FB5F
:1044A8003749FCF709FB2946FCF70EFC35498146DC
:1044B8002846FCF7C5FD002859D04FF07E5A4046E3
:1044C800FCF7AEFB06463846FCF7AAFB4FF08241E4
:1044D800FCF7FAFB4FF0814107463046FCF7F4FB46
:1044E80001463846FCF7E6FA2749FCF7E5FA4FF0AB
:1044F8008341FCF7E1FA514607465046FCF7DCFADF
:1045080001463046FCF7D6FA4FF08141FCF7DCFB58
:104518004FF07E510646FCF775FD08B14FF0814615
:1045280031463846FCF784FC14F09EFA06462046CD
:10453800FCF776FB3146FCF7C7FB002122F0F9F8BF
:104548004FF08241FCF7B8FA2946FCF7BDFB494613
:10455800FCF7B2FA0949FCF7B7FBFCF7B7FDBDE871
:10456800F087D3680BB19D6F68E7084D66E74FF099
:10457800000AA4E70000E0400000FA4200007A4484
:10458800000088405A2F863C0000E0410000784235
:104598002DE9F04F04468BB016F0ACFB94F8713A55
:1045A80004F1140A002B00F0C5802046002205A95A
:1045B800FFF78EFEBDF818309DF81A001F2B00F08B
:1045C800A58000F290800F2B00F0A38000F2848079
:1045D800072B00F0A180614942F6B1020A2B18BFEF
:1045E8000A4606288CBF4FF0080B4FF00C0BBBF1A6
:1045F800080FBDF81C500CBF112319239D4240F32E
:10460800A8800121814056480023A1FB0001FCF746
:10461800CDFD23680646D3F8D83020469847A5EB49
:104628004B0808F1FF38814606FB08F8052064228C
:104638000023A8FB0001FCF7B9FD09F5FA63A8EB14
:104648000007BB42D4F8742A6ED20E357543A7EB27
:104658000907BD420BFB066608D96B1CA3EB0803D0
:1046680003444B445B089E4238BF1E46964203D122
:10467800D4F8783ABB4203D0C4F8746AC4F8787A9C
:1046880016F163004FF0000545F100016422002394
:10469800FCF78CFDD4F80880814617F163004FF0D1
:1046A80000030E464FF0640245F10001FCF77EFD61
:1046B800D8F808301D6A002D3CD02A4B03948DE8A9
:1046C8000B004A4633464046A84798BB0BF028FDE6
:1046D8000121C4F8940936E0204945F26112142BEF
:1046E80018BF0A467DE7FA2B19D008D8292B18D00D
:1046F8001A494FF224423E2B18BF0A4671E7174A5F
:104708001949B3F5FA7F08BF0A466AE747F6122245
:1047180067E743F6095264E741F6846261E7134AA2
:104728005FE74AF2C3225CE7013203D04FF0FF3360
:10473800C4F8743AA0680B49836822465B699847B5
:104748000028C3DA002150460BB0BDE8F04F15F041
:10475800BCBFD4F8743A0133E7E700BF48E801006A
:1047680040420F00C9A7010820A1070090D003000C
:1047780038B50368D3F8D03004460D469847B8B129
:1047880004F68C3015F04CFF034604F6943015F00F
:1047980047FF1844D4F87C3A984202D1D4F8803ABA
:1047A8003BB9C4F87C0A012D38BF0125C4F8805AEA
:1047B80038BD084AEB1A9342FAD994F8863A072B7F
:1047C800F6D923682046D3F8C83098472046FFF723
:1047D800DFFEE8E7BF270900F8B50368D3F8D4304F
:1047E80004460F469847002838D094F8A83A33B1C1
:1047F800D4F8A03AD4F8A42AFB1A93422ED3D4F8BA
:10480800AC3A23B1FB1A4EF65F22934226D92069AF
:1048180020B303689B68984701460546FCF71AFCD5
:104828000646D8B9284621F0A7FF174BC4F8A43A82
:10483800B4F99C3AC4F8A07A012213F5004F05B2E6
:1048480084F8A82A02D1A4F89C5A07E0EB1A002B96
:10485800B8BF5B42042B02DC84F8A96AF8BD94F85F
:10486800A93A33B943F6982384F8A92AC4F8A43A94
:10487800F4E7236884F8A96A2046D3F8CC3098472F
:104888002046FFF785FEDEE780EE360038B50446A1
:10489800183015F0C5FEA0BB23682046DB6A984790
:1048A80078BB15F0DFFE054604F68C3015F0B8FE2F
:1048B800034604F6943015F0B3FED4F87C2A03447A
:1048C800934202D1D4F8803A63B90023C4F8983AE5
:1048D80029462046FFF74CFF29462046BDE83840C8
:1048E800FFF77ABF074AEB1A9342F1D9D4F8983AFE
:1048F80013B1EB1A9342EBD9012D2B4638BF012394
:10490800E4E738BDBFD401002DE9F04F03688BB050
:10491800D3F8BC300446884617469847824638B9CB
:10492800654A394640460BB0BDE8F04F12F0BABAB6
:10493800D4F89819002900F08E80D4F89C290A230D
:104948005A43D4F8A0396420434302EB510203EBE5
:104958005103B2FBF1F2B3FBF1F194F94D0A94F86B
:104968004C6A05910A2500EB0A03B2FBF5F105FB39
:104978001122CDE90312CDE90003504A504BCDF87E
:1049880008A0002E08BF134627EAE7714D4A4046A3
:1049980012F088FAC72F054640445EDDD4F8943AF1
:1049A8000393D4F8903A0293D4F88C3A0193D4F84C
:1049B800883A0093791BD4F89839434A12F072FA6E
:1049C800054408EB0500791B94F8503A3F4A12F069
:1049D80069FA23680544D3F8B4302046984701465D
:1049E80040B9AF4208EB0500C8BF791B384A12F03E
:1049F80059FA0A35204616F0C3FA8346204616F0BF
:104A0800D6FA94F94D9AD945B8BFD9468145A8BF79
:104A1800814609F1FF36B345CABF0BF1020309F11C
:104A280001035E468342C8BF861E6FF00702C8BFF7
:104A380003469642B8BF16460C2BA8BF0C23099311
:104A480004EBC6044FF0640B099BB34209DA28460D
:104A58000BB0BDE8F08F0A467FE7AF42B3DC002118
:104A6800B2E7B4F8E429B4F8E8C91AB353080BFB61
:104A78000C33B3FBF2F30693B4F8EA39CDE904C377
:104A8800B4F8E639BD42CDE902230AEB0603CDE9C5
:104A98000063B8BF791B08EB0500A8BF00210D4AC9
:104AA800B14514BF20232A2312F0FCF9013605442E
:104AB8000834C9E71346DEE72C9602088B9C0208E7
:104AC8001BA60208349602085A9602086F96020836
:104AD80078960208839602082DE9F047B0F84E3A16
:104AE8000446002B00F0C78015F0BCFD0F4604F506
:104AF800276151E90232064653EA020040F08C80F1
:104B080041E9026794F9515A15F1800F23D0D4F87E
:104B1800582AD4F85C3A964277EB03031BDB2368E8
:104B28002046D3F8B0309847EB000128234440F0E2
:104B38008180B3F8EA290132A3F8EA29802384F8AE
:104B4800513A204616F064FB28B994F84C3A13B150
:104B5800204616F0EBFA94F89339002B00F08B807E
:104B6800002384F8933994F9513A803340F08380D4
:104B780023682046D3F8B430984700287BD094F8AF
:104B88009239002B77D023682046DB6A9847824603
:104B9800002870D104F52668C4F8606A2046C8F871
:104BA800047016F08FFA23680146D3F8AC30074634
:104BB80020469847064615F055FD022E81460D46BB
:104BC8004FD104EBC7014FF6EF73B1F8E4299A42CD
:104BD80002D9204616F05CFAB1F8E4390133A1F89D
:104BE800E439002E49D0B1F8E639022E03F1010369
:104BF800A1F8E63941D1236884F8517AD3F8B43062
:104C08002046984710EB090045F10005643045F14E
:104C1800000548E902052EE01F48F31A67EB020277
:104C280098424FF000039341BFF66CAF204616F050
:104C38002FFA65E7022805D1B3F8E8290132A3F86D
:104C4800E8297BE7B3F8E42912B1013AA3F8E4298B
:104C5800B3F8E629002A3FF471AF013AA3F8E62930
:104C68006CE7514604F1140015F02FFD2046FFF7BC
:104C78008FFC002EA5DABDE8F087204616F0C8FAAA
:104C88000028F8D194F84C3A002BF4D02046BDE81F
:104C9800F04716F04BBA00BF0097490170B50D46B2
:104CA80016460424314628461AF0E5FC40B1642033
:104CB80000211EF068FE013CF4D10248FFF738F9E4
:104CC80070BD00BFA39602082DE9F04FDFF85482AB
:104CD800ADF5257D04460D46174600214FF40072B8
:104CE80024A81E4621F08CFA98F8003043B98E4863
:104CF80019F01FFF98F8003013B98C4819F019FF04
:104D0800402124A81AF0B7FC98F8003081463BB936
:104D180024A816F011FB49460246854819F009FFF8
:104D2800102200210AA821F06BFA10210AA809F024
:104D380065FB0DF1CF0201460DF1280C00238B42D3
:104D480001DA102B58D198F80030002B40F0E6809B
:104D5800784819F0EEFEBFB1B6B1202E314628BF13
:104D680020210DF1DF033A467E1812F8010B13F8E3
:104D7800017FB24280EA07001870F6D198F8003037
:104D880043B96D4819F0D5FE98F8003013B96B484F
:104D980019F0CFFE402180A81AF06DFC98F8003079
:104DA800064673B980A816F0C7FA31460246644829
:104DB80019F0BFFE98F800301BB96248294619F06F
:104DC800B8FE0023079307AF10F094FC202300934C
:104DD8005D4801971CAB4FF4007224A920F0ADFF89
:104DE800064610B9079F202F0FD020211CA815F0C8
:104DF80066FB5648FFF79CF812F801EF1CF8010B08
:104E080080EA0E001070013399E70146142217A8B2
:104E180021F0F6F94E4A08964FF41053ADF8583081
:104E28000DF120084FF48073CDE91832ADF85A30EF
:104E38001CA943463A4616A820F0B3FE3946064652
:104E48001CA815F03CFB002ED3D1102231460EA829
:104E580021F0D6F937460DF1240ABD42D8F80000F2
:104E680017D90023CAF800300DF1380B10230DF1C3
:104E780048093749CDF808A00193CDF800905A4663
:104E880010F0F8FA18B9DAF80030102B14D04FF0F7
:104E9800FF36D8F8000020F068FE10210EA815F0A3
:104EA8000EFB002EA5D1012325441946AC421CD186
:104EB80001B933B327489DE7EA1B102A28BF1022FF
:104EC800E0194946059221F074F9059A17444A46B3
:104ED80012F8013D0133DBB213700BB95A45F7D113
:104EE8001021484615F0EBFAB7E714F8012B32B158
:104EF800FF2A14BF002303F001030021D6E713465D
:104F0800D4E724A84FF4007115F0D9FA10210AA8A3
:104F180015F0D5FA0DF5257DBDE8F08F002F7FF44B
:104F28001BAF37E71F880020C4960208E8960208DE
:104F3800309702085F970208A0970208C2970208F4
:104F48000F9802083E9802080900000277980208A4
:104F5800004440049698020830B5002389B00446FE
:104F68001A4620216846FFF7AFFE6946204614F02E
:104F780021FB65252378013BDBB2FD2B05D82021D9
:104F8800684615F09CFA09B030BD013D02D10748CA
:104F9800FEF7CEFF002368461A462021FFF794FE4D
:104FA8006946204614F006FBE4E700BFC1980208F2
:104FB800014B1870704700BF20880020014A11F08B
:104FC80071BF00BFE798020838B504464068FBF790
:104FD80027FE0649FBF72CFF05462068FBF720FE55
:104FE80001462846FBF768FD38BD00BF0024744918
:104FF800084B1B685BB9084B1B6843B9074B1B6818
:10500800003B18BF0123064A002013707047012394
:10501800F9E700BF0C4400200844002004440020A5
:1050280024880020014B1878704700BF248800208E
:1050380073B5484D1C220021044621F0E1F8286888
:1050480060B316F0B4F948BB28686A460D2116F01B
:10505800B2F928B96846FFF7B7FF01232060237526
:1050680028686A46102116F0A6F928B96846FFF79D
:10507800ABFF012360606375374B1B7873B12868F9
:105088006A460E2116F097F940B96846FFF79CFF6B
:105098003249FBF719FE0123A060A375304E306832
:1050A80018B3A37D0BBB2B68984201D016F07FF98B
:1050B80030686A460E2116F07EF940B96846FFF757
:1050C80083FF2649FBF700FE0123A060A375237D1B
:1050D8005BB930686A460D2116F06DF928B9684643
:1050E800FFF772FF0123206023751E4D2868F8B171
:1050F80016F05DF9E0B928686A46122116F05BF9E6
:1051080028B96846FFF760FF012320612376237DD5
:105118005BB928686A460D2116F04DF940B9684612
:10512800FFF752FF012320602375002002B070BDF5
:10513800237D002BF9D1637D002BF6D1A37D002BB5
:10514800F3D1237E002BF0D1E37D002BEDD16FF05E
:105158003C00EBE70C44002025880020000020419B
:105168000844002004440020014B1878704700BF11
:10517800218800202DE9F043442285B0002104460F
:1051880021F03EF83D4B1B78002B70D03C4D286831
:1051980000286CD03B4B1B78022B41D13A4F00269C
:1051A8003B7884F84030B1463B78B34203DC0020BA
:1051B80005B0BDE8F0830136CDE902692868836847
:1051C800D3F80080B8F1000F28D002AB14224C218C
:1051D800C04718BB286816F0EAF8F8B928686A4684
:1051E8002A2116F0E8F818B96846FFF7EDFE2060A6
:1051F80028686A462C2116F0DEF818B96846FFF7C9
:10520800E3FE606028686A462D2116F0D4F818B9C4
:105218006846FFF7D9FEA060012323731034C3E763
:10522800012384F8403016F0C2F818BB28686A4693
:105238002A2116F0C0F818B96846FFF7C5FE2060A5
:1052480028686A462C2116F0B6F818B96846FFF7A0
:10525800BBFE606028686A462D2116F0ACF818B9C4
:105268006846FFF7B1FEA060012323739FE76FF044
:1052780012009DE76FF004009AE700BF2188002024
:1052880000440020238800202288002070B4CE7DAE
:1052980046B1CD68541B054DAC4203D81BB970BC50
:1052A80016F08CB90023184670BC7047809706002A
:1052B8002DE9F84F032B0A9D0646894690461F465E
:1052C8002FD816F067F90446A0B38668464528D259
:1052D800C168404A691AA8EB06069620761A4FF06C
:1052E8000003A1FB000169EB0909FBF70FFF10F1AF
:1052F8002D020B4641F10001B24271EB09010ADBB4
:105308006FF02C02121A4FF0FF3161EB0303964243
:1053180079EB030307DA25610123A382C4E9028537
:10532800A775BDE8F88FA38A4FF6FF729342F5D0B0
:105338000133F2E70346182106F1170001FB03F2D7
:1053480010F802C0BCF1000F0ED1B418D9F8003023
:105358002360D9F8043063600123C4E9028525611C
:10536800A382A775E375DCE70133102BE6D131463C
:105378004FF0000A4FF0180B2A46304616F01EF977
:10538800CB6818B11448EA1A824217D98A7DBA4202
:1053980014D9ECB1A07D82421AD803D1888AA28A96
:1053A800904215D30BFB0A6260695269424032F0A1
:1053B8007F4203D1E268934238BF0C460AF1010AE2
:1053C800BAF1100F01F11801D6D1002CBED1A8E70F
:1053D8000C46F3E740420F0080510100034690F865
:1053E800900138B1D3F88C310348C91A81428CBF77
:1053F80000200120704700BF7F3A09002DE9F347DC
:105408008A4616460021182204461D4620F0F8FE5A
:10541800DAF88071BE422CBF002301232374324680
:10542800009351462B4604F1180016F0D4F8237E59
:105438001BB940F20123238014E0BE422ED2A37E82
:10544800022B02D840F20133F5E7D4E90832B3F170
:10545800960642F1FF32B6F5167F72F1000305DABF
:1054680001236370204602B0BDE8F0872946504604
:10547800FFF7B4FF08B10523F3E79AF8A03143B169
:10548800DAF89C3145F25F41EB1A8B4201D80623CA
:10549800E7E70223C4E902622370E3E7637E052B92
:1054A800D0D9A27EB3EB420F02DB40F20143C2E740
:1054B800D4E90887002F4646B94602DA764267EBF8
:1054C8004709B6F5167F79F10003C9DB294650462E
:1054D800FFF784FF0028CED19AF8A03133B1DAF86B
:1054E8009C3145F25F42EB1A9342D0D99AF8983131
:1054F800ABB1DAF89431164AED1A4FF496700023DE
:10550800A5FB0001FBF702FE10F5167041F1000142
:10551800B04271EB090102DA40F201738BE7022312
:1055280018F5616F23703B4677F1FF374246B8BFE5
:10553800084A40F61161B8BF4FF0FF338A4273F151
:105548000001A4BF4FF461620023C4E9022389E784
:1055580040420F00F0F1FFFF0138C0B206289ABFA1
:10556800024B53F820000248704700BF78760208C3
:10557800FD9802082DE9F04FB1B005460B93884617
:105588003A9B9DF8ECA00146164616A80B9AFFF721
:1055980035FF9DF858209DF868309DF870400993B4
:1055A800022ADDE91E7940F0358195F88421DDE98C
:1055B800181022B1002880F2A081B74A04E0B74B46
:1055C8008B428241B64A07DBB64B4FF0FF3C99420B
:1055D80070EB0C0C00DB0B46B348B149DDF824C076
:1055E800BCF1000F18BF0146CDE9001222A8AF4A4E
:1055F800382111F057FCBAF1000F00F03081AC4BA4
:10560800A74A9DF871109DF872009DF873C0002C90
:1056180000F02881A14C4FF0000EBC427EEB090E31
:1056280007DBA04C4FF0FF3EA74279EB0E0EA8BF58
:105638003C46209F00920DF1880ECDE90110CDE97E
:1056480003C4CDE9057E9B4A3146404611F02AFC49
:10565800041EC0F24D81B44280F04A81D5F8AC31C5
:1056680003B3D5E96E1C8D4AD5F8B0718A424FF064
:10567800000070EB0C0007DB8A4A4FF0FF309142C4
:105688007CEB0000A8BF0A46CDE90072311B08EB8D
:105698000400894A11F006FC241800F12981B4425B
:1056A80080F02681D5F8B4315BB1311B08EB0400DA
:1056B800824A11F0F7FB241800F11A81B44280F0F5
:1056C80017813A992846FFF789FE98B13A992846F2
:1056D80016F004F9311B7A4A4FF46163B0FBF3F317
:1056E80008EB040011F0DEFB241800F10181B4423C
:1056F80080F0FE80D5F8A8310093311B08EB040038
:10570800D5F8A4316F4A11F0CDFB241800F1F080D0
:10571800B44280F0ED8005F5C0730A934FF0000A9B
:105728002B46DA7D0AB10AF1010A0A9A1833934224
:10573800F7D14FF0000BD946CA4540F3A8808BF04B
:1057480001032F460F93FB7D002B00F09480099BEB
:105758003A9A39462846FFF799FD0F9B834240F055
:105768008A8008EB04030893331B0C933B780D9352
:105778007B783A9A0E93FB68B98A97F816C0D31AC1
:10578800BA68632928BF63219B184FF0000242EBD7
:10579800020E0B9A9B1A414A6EF1000E9A424FF084
:1057A800000272EB0E025FDB3E4A93424FF0FF327B
:1057B8007EEB02025ADBDFF8E8E0434A002808BF24
:1057C8007246CDE903320E9B0093CDE901C10D9BD2
:1057D8003E4A311B08EB040011F064FB002802DB91
:1057E8002044B04244D3089A0023CA4513704EDDC2
:1057F800AAEB0903364A182110A811F053FB0C9B99
:105808008342054643D9421C10A9089820F0D1FCD0
:105818002C443CE0BDF85830B3F5807F15D1B9F180
:10582800000F3B464A4602DA7B4269EB490240F2E6
:105838002D118B4272F10002B4BF264B264B274A2A
:10584800382122A811F02EFBD5E69DF85900FFF764
:1058580083FE03460AB9224AF2E7224AF0E7224BBE
:10586800224ACEE62746E5E60C4BA4E70D4BA2E715
:1058780009F1010904460A9B18379F427FF463AF78
:105888000BF10103022B4FF0010B7FF455AF2046BB
:1058980031B0BDE8F08F00BFFF980208009435775B
:1058A8008AB70208006CCA88189902083E9902084B
:1058B8001BA602086299020897990208B79902087C
:1058C800C5990208CF9902083B990208E399020892
:1058D800FF990208259902082899020847A6020894
:1058E8004B990208559902088B9C020830990208C6
:1058F800741E002308F80430C9E7034B00228B42CA
:105908008241024A66E600BF009435778AB70208EA
:10591800044BBFF35B8F1868BFF35B8F003818BF69
:10592800012070471C44002010B5074BBFF35B8F64
:10593800024653E8001F43E80024002CF9D1BFF3C6
:105948005B8F06F0CDFC10BD1C440020054BBFF357
:105958005B8F53E8002F43E800010029F9D1BFF31A
:105968005B8F704718440020034BBFF35B8F1868A8
:10597800BFF35B8FC0B2704714440020054BBFF3E0
:105988005B8F53E8002F43E800010029F9D1BFF3EA
:105998005B8F704714440020044BBFF35B8F18687B
:1059A800BFF35B8F003818BF0120704710440020F8
:1059B80003289ABF014B185C0020704741B90208C0
:1059C8000138C0B202289ABF014B185C0120704709
:1059D8003EB902080138C0B202289ABF024B53F8F8
:1059E80020000248704700BF947602084F9A0208C8
:1059F80010B50428074BBFF35B8F28BF012053E87D
:105A0800002F43E80004002CF9D1BFF35B8F15F099
:105A180078FF10BD600000201FB508B10023037097
:105A28000E4819F0D4FB6946002006F027FF01460E
:105A380030B90098826819F0E0F9009819F0B2F9C5
:105A4800064807F05BFD6946054819F09DFBB0FA6A
:105A580080F0400905B05DF804FB00BF1401002088
:105A68006E9A020810B50446FEF754FB014B2360FA
:105A7800204610BDB076020810B5054904464FF41B
:105A88000062FEF701FC2046BDE8104015F0A4B9FD
:105A98004090002000487047000080BF00487047D1
:105AA800739A020800487047839A020800487047B2
:105AB800F8A60208004870473C09002000487047D3
:105AC8008829002010B5054801F06EF9044610B188
