:020000040800F2
:1000000000B700203DC300085FE0010829C30008D5
:1000100029C3000829C3000829C300080000000004
:1000200000000000000000000000000095C3000870
:1000300029C300080000000079C5000805F9000880
:10004000F1C50008F1C50008F1C50008F1C50008B8
:10005000F1C50008F1C50008F1C50008F1C50008A8
:10006000F1C50008F1C50008F1C50008F1C5000898
:10007000F1C50008F1C50008F1C50008F1C5000888
:10008000F1C50008F1C50008F1C50008F1C5000878
:10009000F1C50008F1C50008F1C50008F1C5000868
:1000A000F1C50008F1C50008F1C50008F1C5000858
:1000B000F1C50008F1C50008F1C50008F1C5000848
:1000C000F1C50008F1C50008F1C50008F1C5000838
:1000D000F1C50008F1C50008F1C50008F1C5000828
:1000E000F1C50008F1C50008F1C50008F1C5000818
:1000F000F1C50008F1C50008F1C50008F1C5000808
:10010000F1C50008F1C50008F1C50008F1C50008F7
:04011000F1C500082D
:1001180081F0004102E000BF83F0004330B54FEAB0
:1001280041044FEA430594EA050F08BF90EA020F1D
:100138001FBF54EA000C55EA020C7FEA645C7FEAB0
:10014800655C00F0E2804FEA5454D4EB5555B8BFD3
:100158006D420CDD2C4480EA020281EA030382EA44
:10016800000083EA010180EA020281EA0303362DD6
:1001780088BF30BD11F0004F4FEA01314FF4801CA9
:100188004CEA113102D0404261EB410113F0004FBB
:100198004FEA03334CEA133302D0524263EB430372
:1001A80094EA050F00F0A780A4F10104D5F1200E10
:1001B8000DDB02FA0EFC22FA05F2801841F100016B
:1001C80003FA0EF2801843FA05F359410EE0A5F13F
:1001D80020050EF1200E012A03FA0EFC28BF4CF070
:1001E800020C43FA05F3C01851EBE37101F0004526
:1001F80007D54FF0000EDCF1000C7EEB00006EEB33
:100208000101B1F5801F1BD3B1F5001F0CD34908BC
:100218005FEA30004FEA3C0C04F101044FEA445213
:1002280012F5800F80F09A80BCF1004F08BF5FEA9A
:10023800500C50F1000041EB045141EA050130BD7A
:100248005FEA4C0C404141EB0101013C28BFB1F58C
:10025800801FE9D291F0000F04BF01460020B1FAD7
:1002680081F308BF2033A3F10B03B3F120020CDAAA
:100278000C3208DD02F1140CC2F10C0201FA0CF088
:1002880021FA02F10CE002F11402D8BFC2F1200CED
:1002980001FA02F120FA0CFCDCBF41EA0C019040A3
:1002A800E41AA2BF01EB0451294330BD6FEA0404EC
:1002B8001F3C1CDA0C340EDC04F11404C4F12002D7
:1002C80020FA04F001FA02F340EA030021FA04F3E9
:1002D80045EA030130BDC4F10C04C4F1200220FA40
:1002E80002F001FA04F340EA0300294630BD21FA7E
:1002F80004F0294630BD94F0000F83F4801306BF44
:1003080081F480110134013D4EE77FEA645C18BF37
:100318007FEA655C29D094EA050F08BF90EA020FCE
:1003280005D054EA000C04BF1946104630BD91EAC6
:10033800030F1EBF0021002030BD5FEA545C05D1C9
:100348004000494128BF41F0004130BD14F5800408
:100358003CBF01F5801130BD01F0004545F0FE417C
:1003680041F470014FF0000030BD7FEA645C1ABFB1
:10037800194610467FEA655C1CBF0B46024650EAE8
:10038800013406BF52EA033591EA030F41F4002114
:1003980030BD00BF90F0000F04BF0021704730B59A
:1003A8004FF4806404F132044FF000054FF000016F
:1003B80050E700BF90F0000F04BF0021704730B530
:1003C8004FF4806404F1320410F0004548BF404205
:1003D8004FF000013EE700BF42004FEAE2014FEA5A
:1003E80031014FEA02701FBF12F07F4393F07F4F35
:1003F80081F06051704732F07F4208BF704793F038
:100408007F4F04BF41F40021704730B54FF460744A
:1004180001F0004521F000411CE700BF50EA01024D
:1004280008BF704730B54FF000050AE050EA0102F6
:1004380008BF704730B511F0004502D5404261EB66
:1004480041014FF4806404F132045FEA915C3FF4A7
:10045800D8AE4FF003025FEADC0C18BF03325FEA44
:10046800DC0C18BF033202EBDC02C2F1200300FAF5
:1004780003FC20FA02F001FA03FE40EA0E0021FA1A
:1004880002F11444BDE600BF70B54FF0FF0C4CF408
:10049800E06C1CEA11541DBF1CEA135594EA0C0FBA
:1004A80095EA0C0F00F0DEF82C4481EA030621EAF5
:1004B8004C5123EA4C5350EA013518BF52EA033530
:1004C80041F4801143F4801338D0A0FB02CE4FF0E2
:1004D8000005E1FB02E506F00042E0FB03E54FF012
:1004E8000006E1FB03569CF0000F18BF4EF0010E0A
:1004F800A4F1FF04B6F5007F64F5407404D25FEA06
:100508004E0E6D4146EB060642EAC62141EA5551B8
:100518004FEAC52040EA5E504FEACE2EB4F1FD0CFA
:1005280088BFBCF5E06F1ED8BEF1004F08BF5FEA78
:10053800500E50F1000041EB045170BD06F000462A
:1005480046EA010140EA020081EA0301B4EB5C04D7
:10055800C2BFD4EB0C0541EA045170BD41F48011CF
:100568004FF0000E013C00F3AB8014F1360FDEBFF4
:10057800002001F0004170BDC4F10004203C35DAD0
:100588000C341BDC04F11404C4F1200500FA05F353
:1005980020FA04F001FA05F240EA020001F00042F4
:1005A80021F0004110EBD37021FA04F642EB06016A
:1005B8005EEA430E08BF20EAD37070BDC4F10C0494
:1005C800C4F1200500FA04F320FA05F001FA04F258
:1005D80040EA020001F0004110EBD37041F1000144
:1005E8005EEA430E08BF20EAD37070BDC4F120054F
:1005F80000FA05F24EEA020E20FA04F301FA05F2B7
:1006080043EA020321FA04F001F0004121FA04F25E
:1006180020EA020000EBD3705EEA430E08BF20EA2E
:10062800D37070BD94F0000F0FD101F00046400068
:1006380041EB010111F4801F08BF013CF7D041EAEA
:10064800060195F0000F18BF704703F000465200EE
:1006580043EB030313F4801F08BF013DF7D043EABF
:100668000603704794EA0C0F0CEA135518BF95EA75
:100678000C0F0CD050EA410618BF52EA4306D1D1FC
:1006880081EA030101F000414FF0000070BD50EA1B
:10069800410606BF1046194652EA430619D094EAA5
:1006A8000C0F02D150EA013613D195EA0C0F05D18F
:1006B80052EA03361CBF104619460AD181EA0301E3
:1006C80001F0004141F0FE4141F470014FF000009B
:1006D80070BD41F0FE4141F4780170BD70B54FF036
:1006E800FF0C4CF4E06C1CEA11541DBF1CEA1355B6
:1006F80094EA0C0F95EA0C0F00F0A7F8A4EB050498
:1007080081EA030E52EA03354FEA013100F088808E
:100718004FEA03334FF0805545EA131343EA126357
:100728004FEA022245EA111545EA10654FEA00260C
:100738000EF000419D4208BF964244F1FD0404F5C5
:10074800407402D25B084FEA3202B61A65EB030521
:100758005B084FEA32024FF480104FF4002CB6EBDE
:10076800020E75EB030E22BFB61A754640EA0C005E
:100778005B084FEA3202B6EB020E75EB030E22BF9E
:10078800B61A754640EA5C005B084FEA3202B6EBDF
:10079800020E75EB030E22BFB61A754640EA9C009E
:1007A8005B084FEA3202B6EB020E75EB030E22BF6E
:1007B800B61A754640EADC0055EA060E18D04FEA2C
:1007C800051545EA16754FEA06164FEAC30343EACC
:1007D80052734FEAC2025FEA1C1CC0D111F4801F99
:1007E8000BD141EA00014FF000004FF0004CB6E792
:1007F80011F4801F04BF01430020B4F1FD0C88BF31
:10080800BCF5E06F3FF6AFAEB5EB030C04BFB6EB3B
:10081800020C5FEA500C50F1000041EB045170BD2E
:100828000EF0004E4EEA113114EB5C04C2BFD4EB5B
:100838000C0541EA045170BD41F480114FF0000EDF
:10084800013C90E645EA060E8DE60CEA135594EA5B
:100858000C0F08BF95EA0C0F3FF43BAF94EA0C0F5E
:100868000AD150EA01347FF434AF95EA0C0F7FF4D3
:1008780025AF104619462CE795EA0C0F06D152EA27
:1008880003353FF4FDAE1046194622E750EA41060B
:1008980018BF52EA43067FF4C5AE50EA41047FF41C
:1008A8000DAF52EA43057FF4EBAE12E74FF0FF3C81
:1008B80006E000BF4FF0010C02E000BF4FF0010C52
:1008C8004DF804CD4FEA410C7FEA6C5C4FEA430CCB
:1008D80018BF7FEA6C5C1BD001B050EA410C0CBF1A
:1008E80052EA430C91EA030F02BF90EA020F00207C
:1008F800704710F1000F91EA030F58BF994208BFE3
:1009080090422CBFD8176FEAE37040F0010070479F
:100918004FEA410C7FEA6C5C02D150EA013C07D1F6
:100928004FEA430C7FEA6C5CD6D152EA033CD3D041
:100938005DF8040B704700BF8446104662468C463B
:100948001946634600E000BF01B5FFF7B7FF00286E
:1009580048BF10F1000F01BD4DF808EDFFF7F4FF97
:100968000CBF012000205DF808FB00BF4DF808ED22
:10097800FFF7EAFF34BF012000205DF808FB00BF45
:100988004DF808EDFFF7E0FF94BF012000205DF867
:1009980008FB00BF4DF808EDFFF7CEFF94BF01201C
:1009A80000205DF808FB00BF4DF808EDFFF7C4FF15
:1009B80034BF012000205DF808FB00BF4FEA410268
:1009C80012F5001215D211D56FF47873B3EB625299
:1009D80012D94FEAC12343F0004343EA505311F0C0
:1009E800004F23FA02F018BF404270474FF0000052
:1009F800704750EA013005D111F0004008BF6FF090
:100A0800004070474FF00000704700BF4A0011D205
:100A180012F5001211D20DD56FF47873B3EB625250
:100A28000ED44FEAC12343F0004343EA505323FA5C
:100A380002F070474FF00000704750EA013002D1D1
:100A48004FF0FF3070474FF0000070474FEA410207
:100A5800B2F1E04324BFB3F5001CDCF1FE5C0DD914
:100A680001F0004C4FEAC0024CEA5070B2F1004F5E
:100A780040EB830008BF20F00100704711F0804F61
:100A880021D113F13872BCBF01F00040704741F426
:100A980080114FEA5252C2F11802C2F1200C10FA2A
:100AA8000CF320FA02F018BF40F001004FEAC1230E
:100AB8004FEAD32303FA0CFC40EA0C0023FA02F3B2
:100AC8004FEA4303CCE77FEA625307D150EA013388
:100AD8001EBF4FF0FE4040F44000704701F0004058
:100AE80040F0FE4040F40000704700BF80F0004036
:100AF80002E000BF81F0004142001FBF5FEA4103EE
:100B080092EA030F7FEA226C7FEA236C6AD04FEAED
:100B18001262D2EB1363C1BFD21841404840414032
:100B2800B8BF5B42192B88BF704710F0004F40F4E4
:100B3800000020F07F4018BF404211F0004F41F400
:100B4800000121F07F4118BF494292EA030F3FD0CC
:100B5800A2F1010241FA03FC10EB0C00C3F12003DF
:100B680001FA03F100F0004302D5494260EB40006E
:100B7800B0F5000F13D3B0F1807F06D340084FEAD9
:100B8800310102F10102FE2A51D2B1F1004F40EBCE
:100B9800C25008BF20F0010040EA03007047490036
:100BA80040EB0000013A28BFB0F5000FEDD2B0FAD3
:100BB80080FCACF1080CB2EB0C0200FA0CF0AABFF6
:100BC80000EBC25052421843BCBFD0401843704794
:100BD80092F0000F81F4000106BF80F4000001329A
:100BE800013BB5E74FEA41037FEA226C18BF7FEA71
:100BF800236C21D092EA030F04D092F0000F08BFB3
:100C08000846704790EA010F1CBF0020704712F099
:100C18007F4F04D1400028BF40F00040704712F1D8
:100C280000723CBF00F50000704700F0004343F03D
:100C3800FE4040F4000070477FEA226216BF084673
:100C48007FEA23630146420206BF5FEA412390EA36
:100C5800010F40F4800070474FF0000304E000BF2C
:100C680010F0004348BF40425FEA000C08BF7047DD
:100C780043F0964301464FF000001CE050EA0102A1
:100C880008BF70474FF000030AE000BF50EA0102B6
:100C980008BF704711F0004302D5404261EB4101A3
:100CA8005FEA010C02BF84460146002043F0B643C8
:100CB80008BFA3F18053A3F50003BCFA8CF2083AED
:100CC800A3EBC25310DB01FA02FC634400FA02FCF6
:100CD800C2F12002BCF1004F20FA02F243EB0200FD
:100CE80008BF20F00100704702F1200201FA02FC5F
:100CF800C2F1200250EA4C0021FA02F243EB020052
:100D080008BF20EADC7070474FF0FF0C1CEAD05295
:100D18001EBF1CEAD15392EA0C0F93EA0C0F6FD056
:100D28001A4480EA010C400218BF5FEA41211ED034
:100D38004FF0006343EA501043EA5111A0FB013120
:100D48000CF00040B1F5000F3EBF490041EAD371F5
:100D58005B0040EA010062F17F02FD2A1DD8B3F171
:100D6800004F40EBC25008BF20F00100704790F0E0
:100D7800000F0CF0004C08BF49024CEA502040EA32
:100D880051207F3AC2BFD2F1FF0340EAC2507047F8
:100D980040F400004FF00003013A5DDC12F1190F36
:100DA800DCBF00F000407047C2F10002410021FAA8
:100DB80002F1C2F1200200FA02FC5FEA310040F1C0
:100DC800000053EA4C0308BF20EADC70704792F039
:100DD800000F00F0004C02BF400010F4000F013A71
:100DE800F9D040EA0C0093F0000F01F0004C02BF6C
:100DF800490011F4000F013BF9D041EA0C018FE7DB
:100E08000CEAD15392EA0C0F18BF93EA0C0F0AD0E0
:100E180030F0004C18BF31F0004CD8D180EA010006
:100E280000F00040704790F0000F17BF90F0004F9F
:100E3800084691F0000F91F0004F14D092EA0C0F81
:100E480001D142020FD193EA0C0F03D14B0218BF14
:100E5800084608D180EA010000F0004040F0FE405A
:100E680040F40000704740F0FE4040F440007047F6
:100E78004FF0FF0C1CEAD0521EBF1CEAD15392EA75
:100E88000C0F93EA0C0F69D0A2EB030280EA010C65
:100E980049024FEA402037D04FF0805343EA1111FE
:100EA80043EA10130CF000408B4238BF5B0042F15C
:100EB8007D024FF4000C8B4224BF5B1A40EA0C0001
:100EC800B3EB510F24BFA3EB510340EA5C00B3EB33
:100ED800910F24BFA3EB910340EA9C00B3EBD10F21
:100EE80024BFA3EBD10340EADC001B0118BF5FEA73
:100EF8001C1CE0D1FD2A3FF650AF8B4240EBC2509C
:100F080008BF20F0010070470CF0004C4CEA50205C
:100F18007F32C2BFD2F1FF0340EAC250704740F4AB
:100F280000004FF00003013A37E792F0000F00F09D
:100F3800004C02BF400010F4000F013AF9D040EA1B
:100F48000C0093F0000F01F0004C02BF490011F4AF
:100F5800000F013BF9D041EA0C0195E70CEAD153A7
:100F680092EA0C0F08D142027FF47DAF93EA0C0F8E
:100F78007FF470AF084676E793EA0C0F04D14B0272
:100F88003FF44CAF08466EE730F0004C18BF31F024
:100F9800004CCAD130F000427FF45CAF31F000431E
:100FA8007FF43CAF5FE700BF4FF0FF3C06E000BFB7
:100FB8004FF0010C02E000BF4FF0010C4DF804CDDA
:100FC8004FEA40024FEA41037FEA226C18BF7FEAEA
:100FD800236C11D001B052EA530C18BF90EA010FEC
:100FE80058BFB2EB030088BFC81738BF6FEAE1707B
:100FF80018BF40F0010070477FEA226C02D15FEA17
:10100800402C05D17FEA236CE4D15FEA412CE1D082
:101018005DF8040B704700BF844608466146FFE749
:101028000FB5FFF7C9FF002848BF10F1000F0FBD2B
:101038004DF808EDFFF7F4FF0CBF012000205DF824
:1010480008FB00BF4DF808EDFFF7EAFF34BF0120A9
:1010580000205DF808FB00BF4DF808EDFFF7E0FF42
:1010680094BF012000205DF808FB00BF4DF808ED93
:10107800FFF7D2FF94BF012000205DF808FB00BFF6
:101088004DF808EDFFF7C8FF34BF012000205DF8D8
:1010980008FB00BF4FEA40024FEA41037FEA226C97
:1010A80002D15FEA402C08D17FEA236C02D15FEAC3
:1010B800412C02D14FF0000070474FF001007047FB
:1010C8004FEA4002B2F1FE4F0FD34FF09E03B3EB4D
:1010D80012620DD94FEA002343F0004310F0004F8D
:1010E80023FA02F018BF404270474FF000007047E3
:1010F80012F1610F01D1420205D110F0004008BF82
:101108006FF0004070474FF00000704742000ED269
:10111800B2F1FE4F0BD34FF09E03B3EB126209D42A
:101128004FEA002343F0004323FA02F070474FF0E0
:101138000000704712F1610F01D1420202D14FF055
:10114800FF3070474FF00000704700BF7BB972B99D
:101158000029BEBF00204FF0004106E008BF00286C
:101168001CBF6FF000414FF0FF3000F057B8ADF1F1
:10117800080C6DE904CE002909DB002B1ADB00F00E
:101188007CF8DDF804E0DDE9022304B07047404252
:1011980061EB4101002B1BDB00F06FF8DDF804E088
:1011A800DDE9022304B0404261EB4101524263EBA6
:1011B80043037047524263EB430300F05EF8DDF8E7
:1011C80004E0DDE9022304B0404261EB41017047CD
:1011D800524263EB430300F050F8DDF804E0DDE928
:1011E800022304B0524263EB4303704753B94AB930
:1011F800002908BF00281CBF4FF0FF314FF0FF3017
:1012080000F00CB8ADF1080C6DE904CE00F035F82B
:10121800DDF804E0DDE9022304B07047704700BF41
:1012280010F8012B11F8013B012A28BF9A42F7D088
:10123800D01A7047034611F8012B03F8012B002A36
:10124800F9D17047034613F8012B002AFBD1181A6D
:1012580001387047430803F05533C01A00F03333A0
:10126800800800F03330184400EB10104FF00133C1
:1012780000F00F305843000E70472DE9F0478C46B8
:101288008E46089E154604461946002B40F0D0802D
:10129800724547D9B2FA82F74FB1C7F120030EFA67
:1012A80007FC20FA03F3BD4043EA0C0CBC404FEAAC
:1012B800154EA8B2BCFBFEF8230C0EFB18CC08FB9D
:1012C80000F943EA0C43994528D9EB1808F1FF3295
:1012D80004D2994502D9A8F102022B44A3EB0903D1
:1012E800A4B2B3FBFEFC0EFB1C330CFB00F044EA7B
:1012F8000344A04214D92C190CF1FF3304D2A042A4
:1013080002D9ACF102032C44241A43EA02401EB16C
:10131800FC40002334607360BDE8F0874246DDE797
:101328006346F1E7002A79D0B2FA82F3002B3FD066
:101338001946C1F1200302FA01F52EFA03F20EFA5A
:1013480001FE20FA03F343EA0E034FEA154E00FAB2
:1013580001F4B2FBFEFCAFB20EFB1C201A0C0CFB16
:1013680007F842EA004290455AD9AA180CF1FF3012
:1013780004D2904502D9ACF102002A44A2EB08023B
:101388009BB2B2FBFEFC0EFB1C220CFB07F743EAE8
:1013980002439F4246D9EB180CF1FF3204D29F4218
:1013A80002D9ACF102022B44DB1B42EA004202E004
:1013B800AEEB020301224FEA154EAFB2B3FBFEFCBF
:1013C800200C0EFB1C330CFB07F840EA034398453E
:1013D8002AD9EB180CF1FF3004D2984502D9ACF1A8
:1013E80002002B44A3EB0803A4B2B3FBFEFC0EFBE4
:1013F8001C330CFB07F744EA0344A74216D92C19FF
:101408000CF1FF3304D2A74202D9ACF102032C44F9
:10141800E41B43EA00400F46114678E71F2188E79E
:101428006046ABE76246BFE76046DBE76346EFE747
:10143800734506D916B9002108466DE7C6E9000EBE
:10144800F9E7B3FA83F787B9734501D3824207D81E
:10145800841A6EEB030301209C461EB900215BE74A
:101468003846FAE7C6E9004CF8E7C7F1200CBB405C
:1014780022FA0CF51D4320FA0CF12EFA0CF30EFAA1
:1014880007FE41EA0E014FEA154900FA07F4B3FBDB
:10149800F9F81FFA85FE09FB18300B0C08FB0EFA49
:1014A80043EA00439A4502FA07F240D9EB1808F1DB
:1014B800FF3004D29A4502D9A8F102002B44A3EBCD
:1014C8000A0389B2B3FBF9F809FB183308FB0EFECF
:1014D80041EA03418E452CD9691808F1FF3304D23B
:1014E8008E4502D9A8F10203294443EA0040A0FB33
:1014F8000298A1EB0E014145CE46434602D306D1E0
:101508004C4504D2B9EB020E68EB05030138002EF6
:10151800A4D0B4EB0E0261EB030101FA0CFC22FA31
:1015280007F34CEA0303F940C6E9003196E7404661
:10153800C5E74346D9E700002DE9F04F8E078FB085
:101548000F46144640F18F8019F08EFC002800F0F9
:101558008A8004A819F094FC002800F0848094F88C
:10156800C15094F8C03005F10A0898457BDADDE9E6
:101578000401FEF75BFF98A3D3E90023FFF7AEF859
:10158800FFF764FA9649FFF7BFFB00210646FFF70D
:1015980059FD4FF07C5100286CD03046FFF7AAFA6D
:1015A800FFF78EFD8146DDE90601FEF73FFF8AA3BE
:1015B800D3E90023FFF792F8FFF748FA8849FFF7C5
:1015C800A3FB00210646FFF73DFD4FF07C510028A4
:1015D80054D03046FFF78EFAFFF772FD064608989A
:1015E800FFF73EFB7F49FFF743FC7F49FFF78CFB82
:1015F80000218246FFF726FD4FF07C51002841D09C
:101608005046FFF777FAFFF75BFD01236355EB18A8
:10161800DBB28822E254AB1CDBB24FEA2942E25427
:10162800EB1CDBB24FEA2922E2542B1DDBB2321449
:1016380004F803906B1DDBB2E254AB1DDBB232122F
:10164800E254EB1DDBB20214E65405F10803DBB2E9
:10165800E25405F10903DBB202120B35E25484F8B7
:10166800C15004F808007D0700F1AC8001200FB0DC
:10167800BDE8F08F3046FFF73FFA91E73046FFF7B5
:101688003BFAA9E75046FFF737FABCE7404603F0B4
:1016980045F980B909F101034D465FFA83F904A9B8
:1016A800404603F04DF940B108F1010803F030F964
:1016B8004045EBDCDAE70125F1E7BDF81070F806E4
:1016C8001DD5DDF824B051465846FFF7BBFC00286D
:1016D80073D146495846FFF7D3FC00286FD15846C6
:1016E800FFF714FDFFF7B8FA0022CDE901620222E4
:1016F8000346009265212A46204619F01CFCF9078A
:101708000AD502230A22CDE900320296059B2A4611
:101718006721204619F00FFCBB070BD502234FF0B9
:10172800000CCDE9013C0096069B2A46682120461C
:1017380019F001FC78070BD50A230021CDE9013106
:10174800022300932A46079B7321204619F0F3FBD6
:101758003A0709D502230093CDE90166089B2A467A
:101768007921204619F0E7FBBB060AD5022364203D
:10177800CDE9003002960A9B2A467421204619F0CA
:10178800DAFB79060BD502234FF47A72CDE90032E1
:1017980002960B9B2A467521204619F0CCFB3B0686
:1017A80082D50023CDE90163022300932A460C9BCE
:1017B8008021204619F0BFFB76E7D3468FE74FF626
:1017C800FF708FE74FF000084FF0020901264FF035
:1017D800000A6BE7AFF300800000000065CDCD4143
:1017E80000401C4600007A440000C84200FF7F47C2
:1017F8002DE9F0431446426992F8903087B0151DE0
:1018080073B9CDE902538DF804108DF805300493AF
:10181800214601A8059319F02EFC07B0BDE8F08316
:10182800012B1FD18268D2E90289D2E904678DF8B9
:1018380004108DF8053040460FA3D3E9002349462C
:101848000295FEF721FEFFF7B9F80BA3D3E90023B1
:10185800039039463046FEF717FEFFF7AFF800232E
:101868000490D5E7D2E90A89D2E90C6701238DF8FB
:101878000410DEE7AFF300800000000080842E41F2
:101888002DE9F041151D9AB006460F4628469549A0
:101898001C46FFF7C5FC30B9934920461AB0BDE88D
:1018A800F041FFF7C7BC91490A22284623F003FFFD
:1018B800C8B9736993F881208D4B197991420BD17E
:1018C8001B688C4A00928C4A4FF48071204614F0B1
:1018D8007BFF1AB0BDE8F0810130042803F108034A
:1018E800EBD1864BEDE786490722284623F0E3FE35
:1018F80080B9736993F88220824B1979914202D199
:101908001B68814ADEE70130042803F10803F4D19B
:101918007A4BF6E77D490F22284623F0CCFE58B9CA
:1019280073697B4A93F883304FF4807120461AB06C
:10193800BDE8F04114F048BF76490422284623F058
:10194800BAFE40B9736993F88020734B7349002A33
:1019580008BF0B461DE072491522284623F0ABFE4E
:1019680020B9736993F84F306E4ADDE76E490F224C
:10197800284623F0A0FE20B9736993F84E305B0027
:10198800F2E76A490E22284623F095FE18B97369D2
:101998005833674AC8E7DFB966490722284623F063
:1019A8008AFEA8B9B06903685B6D984740220AA906
:1019B80017F063FB1C3602460AA9304601F0EAFD1F
:1019C80033465B4A4FF48071204614F0FDFE80E7F1
:1019D80059490422284623F06EFE10B9736904336E
:1019E800D7E756490622284623F065FE18B97369D9
:1019F80093F84D20A9E752490322284623F05BFEBD
:101A080058B97369D3E90A23CDE900234D4A4FF445
:101A18008071204614F0D8FE5BE74B490322284624
:101A280023F049FE18B97369D3E90C23ECE7474959
:101A38001022284623F03FFE18B9736993F87E30C8
:101A480092E743491222284623F035FE18B97369F4
:101A580093F87D3088E73F490922284623F02BFE7A
:101A680018B9736993F87C307EE73B4912222846FF
:101A780023F021FE38B97369D86EFEF7ADFC374AFA
:101A8800CDE90001C3E736490A22284623F013FEB0
:101A980090B922463E2302F8023B20236370716905
:101AA8009B3111F8013F0BB9137012E70A2B08BFDD
:101AB8007C2302F8013BF4E72A490B22284623F04D
:101AC800FAFD002858D1736993F835310BB92649C6
:101AD800E3E6012B01D12549DFE6022B0CBF24499F
:101AE8002449DAE60F9B0208129B0208369B02087B
:101AF800B4700208489B0208419B0208A4A9020886
:101B0800669B020894700208C3B202086E9B020822
:101B18007E9B0208859B0208189C0208AD9E02085D
:101B28008A9B0208BC960208909B0208A09B0208A8
:101B380020900208AF9B020804A80208039202083A
:101B4800FB910208B79B0208FF910208BE9B02089E
:101B5800CF9B0208E29B0208EC9B0208AA960208A7
:101B6800FF9B02080A9C0208169C02081C9C02089B
:101B7800269C0208319C02089F490A22284623F025
:101B88009AFD78B99D492046FFF754FBB069036870
:101B98005B6D984720220146A01C1AB0BDE8F041B1
:101BA80001F0F8BC96490422284623F084FD28B9A0
:101BB800B0690368DB6898470346EAE691490E2254
:101BC800284623F078FD08B98F4966E68F490D222B
:101BD800284623F070FD08B98D495EE68D4911222B
:101BE800284623F068FDB0B935682B682846D3E944
:101BF8001737984701462846B84736683368054678
:101C0800D3E919373046984701463046B847824AE3
:101C180000902B4658E681490D22284623F04BFDBB
:101C28000028D9D07E490E22284623F044FD50B919
:101C38003068036820229B6B0AA9984708B10AAB51
:101C4800BFE6784929E678490E22284623F033FD75
:101C580028BB30680368DB68984700210746FFF710
:101C6800E7F908B1714918E6306803681B689847B6
:101C780005463846FEF7B0FB6DB16D4B6D4A1B68E3
:101C88001B88CDE90001CDE902534FF4807120464D
:101C980014F09AFD1DE6CDE90001674AB7E66749E9
:101CA8000622284623F007FD20B9736993F81631F8
:101CB800634A39E663490E22284623F0FCFC08B93A
:101CC8006149EAE561490C22284623F0F4FC18B979
:101CD80009F082FD0346EBE75D490922284623F017
:101CE800EAFC18B9736993F92331E1E759490822E5
:101CF800284623F0E0FC90B977B196F8E010C1F1DE
:101D0800A1013E23237002392023A01C63701AB05E
:101D1800BDE8F04102F0B6BD4FF48071F1E74E49DD
:101D28000B22284623F0C7FC18B97369D3F88C3006
:101D38001AE64A490822284623F0BDFC38B919F0AA
:101D480098F8034600287FF40FAE4549A5E54549B4
:101D58000322284623F0AFFC002840F08F8019F0BA
:101D680083F800283FF4B3AE07A819F091F89DF85E
:101D78001C30022B96BF3C4A3C4D52F823500AA80F
:101D880019F07EF8BDF81E6000B3DDE90C01FEF71E
:101D98004DFB17A3D3E90023FEF7A0FCCDE904010E
:101DA800DDE90A01FEF742FB11A3D3E90023FEF7A0
:101DB80095FC089B2E4ACDE90201CDE900634FF45A
:101DC80080712B46204614F0FFFC82E5099B4BB13D
:101DD800CDE90063274A2B464FF48071204614F062
:101DE800F3FC76E5244A00962B466DE5AFF30080B8
:101DF8000000000065CDCD413A9C020826960208F5
:101E0800459C02084A9C0208599C0208679C0208E3
:101E1800759C02089B9C0208AD9C0208C79C02089E
:101E2800D59C0208E49C0208EE9C0208FD9C02086E
:101E3800B86D02081E9D0208499D0208629D0208AD
:101E4800B7970208699D0208789D02089C9D0208C0
:101E5800A99D0208B39D0208BC9D0208C89D0208FE
:101E6800D19D02087C8F020888700208E69C02084F
:101E7800E19D0208159E02083B9E02085D490B225F
:101E8800284623F018FC30B9B0690368D3F88030CD
:101E98009847034668E558490E22284623F00BFC6C
:101EA80018B9736993F81C315EE55449092228462C
:101EB80023F001FCC8B9AFB196F8E050C5F1A1050F
:101EC8004F4A2946204614F07FFC0146B069036852
:101ED8006A1AD3F888302144984700287FF4F9AC6F
:101EE8004849DAE44FF48075EAE74749082228466A
:101EF80023F0E1FB28B97369444993F81A21444B4C
:101F080025E544490A22284623F0D5FB18B9736908
:101F180093F91B31CCE640490B22284623F0CBFB32
:101F280038B9736993F81D31002B7FF41DAD3B4917
:101F3800B3E43B492846FFF773F908B93949ACE4DB
:101F480039490822284623F0B6FB002847D03749EC
:101F58000C22284623F0AFFB002848D1B06903685B
:101F6800D3F89830984705460028B9D0002F3BD0C1
:101F780096F8E070C7F1A107706803681B68984776
:101F880080461BF0EBFB736993F81931003B18BFCF
:101F9800012301934FF47A720023FFF7D7F84346E1
:101FA80000903A462146284602F080FF91E4204AF4
:101FB8002049002D18BF4246384614F02FFC013541
:101FC800032D07443FF485AC73692B4493F81E3105
:101FD800002BECD1002D7FF47CAC17495DE4DFF8D1
:101FE8005C8027460546EFE74FF48077C4E7144A3C
:101FF8002B4699E4589E0208649E0208739E0208C4
:1020080026960208C49702087D9E0208189C0208BA
:10201800AD9E0208869E0208919E02089D9E0208B7
:10202800A79E0208AB9E0208B09E0208D59E020831
:10203800C3B20208B99E0208BE9E0208DC930208D9
:10204800E29E0208000000001BA3D3E90023C0E9B8
:1020580000231BA3D3E90023C0E902231AA3D3E971
:102068000023C0E904231AA3D3E90023C0E9062307
:1020780019A3D3E90023C0E9082319A3D3E900234E
:10208800C0E90A2318A3D3E90023C0E90C2318A345
:10209800D3E900230021C0E90E2300220023C0E970
:1020A8003023C0E93223C0F8D0108022403023F01A
:1020B800EFBA00BFAFF3008008C9BCF367E6096A4E
:1020C8003BA7CA8485AE67BB2BF894FE72F36E3CBF
:1020D800F1361D5F3AF54FA5D182E6AD7F520E511C
:1020E8001F6C3E2B8C68059B6BBD41FBABD9831FD6
:1020F80079217E1319CDE05B2DE9F04F31F00043D3
:1021080087B081460E4607460C460DD180F48007FD
:102118007F0017F5000F40F2528331464846FEF71C
:10212800EBFC07B0BDE8F08F20F00048B8F1FF4F96
:10213800014602D8B3F1FF4F08D9B7F17E5FECD161
:1021480084F48004640014F5000FE4E7002823DA1F
:10215800B3F1974F80F03883B3F17E5F36D3DA1549
:10216800C2F1960243FA02F505FA02F29A4225D123
:1021780005F00105C5F10205B3F17E5F27D1002CFA
:102188007EDA00214846FEF753FFC8B1F80F07B0C2
:10219800BDE8F04F16F0D6B9B3F1FF4F0ED1B8F144
:1021A8007E5F00F00C8304D9002C80F20B830020A2
:1021B800B7E7002CFBDA06F10040B2E70025DBE7C1
:1021C80049464FF07E50FEF753FEAAE70025B4F1CA
:1021D800804F424640F0FE82B8F1BF4F20D2B8F19E
:1021E800D05F04D949464846FEF78EFD99E729F0A5
:1021F8000040B8F1000F40D0F90F0139039129438D
:1022080024D0B3F19A4F40F2D780654B984539D81E
:10221800002C3CDA002007B0BDE8F04F16F08AB970
:1022280027F0404CBCF17E5F29F000401AD1002C09
:1022380004DA01464FF07E50FEF71AFE002FBFF673
:1022480070AFA8F17E5858EA050805D1484607B08E
:10225800BDE8F04F16F07EB9012D7FF462AF00F1B2
:1022680000405EE7B8F1000FC6D1002C05DA17B1BF
:102278006B1E59425941084689E7012D7FF451AF39
:1022880048464EE7474B984507D9002CC2DC00204A
:1022980007B0BDE8F04F23F0EABC4FF07E51FEF7DF
:1022A80029FC41490746FEF72FFD4049814638463B
:1022B800FEF72AFD804638A1D1E90001FEF7C6FBEA
:1022C8004FF07A5182463846FEF71EFD01465046C9
:1022D800FEF710FC3946FEF717FD01464FF07C501B
:1022E800FEF708FC394682463846FEF70DFD0146E2
:1022F8005046FEF709FD2E49FEF706FD0146404609
:10230800FEF7F8FB014680464846FEF7F5FB20F449
:102318007F6727F00F0749463846FEF7EBFB014673
:102328004046FEF7E7FB039B013D6FF30B041D439B
:102338008046214630460CBF1E4D4FF07E55FEF7B5
:10234800D9FB3946FEF7E0FC314681464046FEF7A8
:10235800DBFC01464846FEF7CFFB214606463846D9
:10236800FEF7D2FC014607463046FEF7C5FB0028BB
:102378000446804620F0004340F34481B3F1864F81
:1023880040F22D8100212846FEF75CFE003818BF78
:10239800012040E7AFF30080E13D55555555D53F45
:1023A800F3FF7F3F0700803F00AAB83F70A5EC36D7
:1023B8003BAAB83F000080BF17F0FF4F40F00B81E9
:1023C8004FF09741FEF7A0FC6FF017010246D315B6
:1023D8007F3B0B4496490293C2F316028A4242F0AD
:1023E8007E5308DD93498A4240F3F780029A01320E
:1023F8000292A3F5000300278F4A049352F827B0EE
:10240800184659469A46FEF775FB51468146584686
:10241800FEF772FB01464FF07E50FEF729FD01469C
:1024280005904846FEF770FC0190019B83496FF3C5
:102438000B039846049B01EA630343F0005303F53A
:10244800800303EB4753414618460493FEF75CFCB0
:1024580001464846FEF74EFB049B814659461846FE
:10246800FEF748FB01465046FEF744FB4146FEF79F
:102478004BFC01464846FEF73DFB059A1146FEF720
:1024880043FC019983460846FEF73EFC6C498146A9
:10249800FEF73AFC6B49FEF72FFB4946FEF734FC82
:1024A8006949FEF729FB4946FEF72EFC6749FEF706
:1024B80023FB4946FEF728FC6549FEF71DFB494604
:1024C800FEF722FC6349FEF717FB49468246484659
:1024D800FEF71AFC01465046FEF716FC41468146B7
:1024E8000198FEF709FB5946FEF70EFC4946FEF730
:1024F80003FB414682464046FEF706FC56490490D7
:10250800FEF7FAFA5146FEF7F7FA20F47F6929F048
:102518000F0941464846FEF7F7FB4F4980464846B3
:10252800FEF7E8FA0499FEF7E5FA01465046FEF789
:10253800E1FA0199FEF7E8FB494682465846FEF75C
:10254800E3FB01465046FEF7D7FA8346014640466C
:10255800FEF7D2FA20F47F6929F00F093F4948466F
:10256800FEF7D2FB414682464846FEF7C3FA0146CB
:102578005846FEF7BFFA3A49FEF7C6FB3949804686
:102588004846FEF7C1FB01464046FEF7B5FA364B12
:1025980053F82710FEF7B0FA80460298FEF760FB62
:1025A800324B53F827B0814641465046FEF7A4FA0D
:1025B8005946FEF7A1FA4946FEF79EFA20F47F67CE
:1025C80027F00F0749463846FEF794FA5946FEF7B2
:1025D80091FA5146A1E60021F9E601270CE74BD113
:1025E80023493046FEF788FA394681462046FEF7E9
:1025F80081FA01464846FEF743FD00287FF4C2AE43
:1026080086233EE01B4A934207D900212846FEF75D
:1026180019FD003818BF01203AE62DD13946FEF7DA
:1026280069FA3146FEF722FD0028E9D0EDE700BF40
:1026380071C41C00D6B35D00A08A020800F0FFDF59
:1026480042F1533E55326C3E05A38B3EABAAAA3EDF
:10265800B76DDB3E9A99193F000040400040763F35
:102668004F38763FC623F6B8908A0208988A02083F
:102678003CAA383300001643B3F17C5F40F29B80DC
:10268800DB157E3B4FF400041C414444C4F3C7539C
:1026980057497F3B19412140C4F31604C3F117037E
:1026A80044F400041C41B8F1000F3846B8BF644236
:1026B800FEF720FA074631463846FEF71DFA20F4A1
:1026C8007F6929F00F094B494846FEF71DFB39463B
:1026D80080464846FEF70EFA01463046FEF70AFAEB
:1026E8004549FEF711FB454906464846FEF70CFBEF
:1026F80001463046FEF700FA074601464046FEF717
:10270800FBF941460646FEF7F5F901463846FEF75D
:10271800F1F9314680463046FEF7F6FA3849074661
:10272800FEF7F2FA3749FEF7E5F93946FEF7ECFA13
:102738003549FEF7E1F93946FEF7E6FA3349FEF77F
:10274800D9F93946FEF7E0FA3149FEF7D5F93946A5
:10275800FEF7DAFA01463046FEF7CCF9074601469D
:102768003046FEF7D1FA4FF0804181463846FEF7F1
:10277800C1F901464846FEF77BFB4146074630460D
:10278800FEF7C2FA4146FEF7B7F901463846FEF7AA
:10279800B1F93146FEF7AEF901464FF07E50FEF72B
:1027A800A9F900EBC453B3F5000F06DA214615F07A
:1027B80063FE294618E500247DE71846F9E74FF03F
:1027C8007E50AEE43046ACE4B3F1FF4F3FF4E7ACE3
:1027D80042460225B4F17C5F7FF422AD002FFFF65C
:1027E8001FAD484607B0BDE8F04F23F0D4BA00BF8C
:1027F800000080FF0072313F1872313F8CBEBF3538
:102808004CBB31330EEADD3555B38A38610B363BA4
:10281800ABAA2A3E10B50021074BC0F89011044618
:10282800C0E96011C0E96211C0F894314FF4C07278
:1028380022F02EFF204610BDCDCC4C3E30B50246CE
:1028480001780D4853880D4CC1F38301484002F1CB
:102858004901C2F1FF22082B02F57F0204FB00F0B8
:1028680028BF0823B7325518AB4200DC30BD11F839
:10287800015F68406043F6E7C59D1C819301000134
:102888002DE9F04104460D460746002642F210782D
:102898003B7B3BB17B68EB1A434503D93146204665
:1028A80015F070FE0136182E07F11007F0D1D4F894
:1028B8008C3133B3154AEB1A934222D9D4F88431B8
:1028C800FBB1D4F8903123B9A5F59C53083BC4F863
:1028D800903103F51C41403141F2873641F288308E
:1028E800EA1AB2420BD9D4F8842142B10344A2EBCC
:1028F800D2028B42C4F88421C4F89031F0D1BDE8EB
:10290800F0810023C4F89031F9E700BFE093040098
:1029180070B5C1F51C550346024600F5C076113561
:102928006FF00040147B34B154682C4424EAE474FA
:10293800A04228BF20461032B242F3D1D3F88C21EE
:1029480092B1D3F884417CB10D4C8D1AA5420CD9B3
:10295800D3F890312BB1C1F59C5108310B4423EACF
:10296800E373984228BF184670BDC1F5922101F261
:10297800E131114421EAE171884228BF0846F3E7B2
:10298800E093040010B5D0F88831032B26DDD0F889
:102998008401FEF761F94FF06E51FEF7B5F9002199
:1029A8000446FEF759FBE0B94FF081412046FEF797
:1029B800A3F801462046FEF75BFA0B49FEF7A4F997
:1029C8000A49FEF799F84FF07E510446FEF758FB86
:1029D80010B14FF07E5010BD2046FCE74FF07C5000
:1029E800F9E70248F7E700BF9A99193FCDCCCC3EEA
:1029F80000487047C3B202080048704780EE3600AE
:102A080030B5C0E91912104DC36601220023C0E990
:102A18000433C0E90633C0E90E33C0E91233C0E914
:102A28000A33C0E90C33C0E91533C0E91733056030
:102A3800436080F844300364A0F87030036280F883
:102A48002420A0F8503030BD4069020870B5B8B0F5
:102A580001460446684621F0F9FE9DF80030013B26
:102A6800DBB2FD2B38D8274B28AA03F1400618689B
:102A78005968154603C50833B3422A46F7D1224B95
:102A880008AA03F1200618685968154603C50833D3
:102A9800B3422A46F7D108A920A811F0E5FC20AADC
:102AA800214610A821F07EFE694620A811F0DCFC22
:102AB80020AA28A918A821F075FE202218A910A874
:102AC80017F0F2F8044658B9202110A817F028F991
:102AD800202118A817F024F90024204638B070BD2A
:102AE80010A9002311F8012B1AB90133202BF9D1B1
:102AF800144610A8202117F013F9202118A817F060
:102B08000FF9EAE7D88A0208198B02082DE9F04F75
:102B18000A7802F00303023B012BF3B005460C468A
:102B280070D802F03C06242E0B795BD13F2B1CD8C1
:102B38004E88082E19D991F8527007F00302093E01
:102B48009340F6B21FFA83FC664510D801F1530290
:102B58000368029201F10A02CDE9007203961D6E24
:102B6800D1F84A20D1F84E30A847002037E001219B
:102B7800533301FA02F200F50671E01822F09BFDCA
:102B88000028F2D12B6821465B6C2846984700281C
:102B9800EBD0E86F036821461B6898470028E4D10A
:102BA800E86F036821465B68984794F90201FEF7CD
:102BB80057F84FF07A51FEF7A7F84FF08141FEF72A
:102BC800A3F8FEF77DFA23795A1C234422719872E0
:102BD8002B682146DB6C2846984740F0C06073B0EC
:102BE800BDE8F08F2C2E03F03F030AD191F94A601B
:102BF800002E80F2B782002BB7D103685B6F98472D
:102C0800B3E76BBB104616F056FB002840F08080F7
:102C18002378C3F383020F2AA7D801A151F822F021
:102C2800C32D0008C32D0008C32D0008812D0008FE
:102C380003300008772F0008772F0008F32E0008CC
:102C4800C32D0008732B0008ED300008732B000813
:102C5800732B0008732B0008732B0008BD30000885
:102C68000C2E08D14B88032B05D90368D1F84A20CC
:102C7800D3F88430984722799209013205F5067114
:102C880004F10A0022F017FD00287FF46EAF2B68CC
:102C980021465B6C2846984700283FF466AF2378A6
:102CA800C3F383030A2B04D12146284616F09BFD63
:102CB8005BE7E86F0268032B1268214613D190473F
:102CC800064600287FF451AFE86F036821465B6829
:102CD80098472146284616F0AAFB32462146284640
:102CE80016F02AFD41E7904700287FF43EAFE86FD1
:102CF800036821465B6898472146284616F097FBEB
:102D08002B682146DB6C2846984740F0807066E7C0
:102D18002B6821461B6C2846984700287FF425AF6E
:102D2800207816F0C8FA00283FF472AF2046FFF763
:102D380085FD0646A86E03681B68984705F180075D
:102D480002463146384615F063FC20B13146284624
:102D580016F0CBFA5CE72B6828469B6B984700284F
:102D68003FF456AFA86E03681B6898473146024681
:102D7800384615F027FC4BE76388032B7FF6F5AE42
:102D8800E86FD4F84A60036821461B689847002812
:102D98007FF4EBAEE86F036821465B6898472B68C1
:102DA8003246D3F88430214628469847214628469B
:102DB80073B0BDE8F04F16F05ABB0DF1200A94F835
:102DC8004B308AF80030638894F84A70042B7FF6F9
:102DD800CCAEE86F036821461B6898470646002872
:102DE8007FF4C3AEE86F036821465B68984795F89F
:102DF8001832BB4268D12B6851465B6D284698470C
:102E080004F14C0B814610AF0DF1C408B1455BDDF0
:102E18002B6832469B6D39462846984763885A4640
:102E2800023B4146384616F056FF031E5BDD22780A
:102E3800C2F38302082A4CD198F8009007934846B9
:102E480016F00FFE00283FD04FEA991109F03F0213
:102E5800079B01FB0222501C834235DD02329B1A7C
:102E6800DBB2424429680392049318F8003003F057
:102E78000F03CDE901930DF1C508CDF80080D1F815
:102E880064B03B46324621462846D847D0B1207820
:102E980016F011FAB0B10023CDE90233019323797A
:102EA8000093514604F10A033A46284616F078FB87
:102EB800014638B14FF4FA73009342464B46284610
:102EC80016F05CFDFF2323702146284616F0CFFA42
:102ED80085E629680097CDE901832846CF6D3346FA
:102EE8002146B847EEE7013690E76388232B7FF643
:102EF8003CAEE86F94F84A60036821461B6898471F
:102F080000287FF432AEE86F036821465B68984773
:102F180095F81832B3427FF449AF04F14B0608AA7A
:102F280004F16B0730687168134603C30836BE4264
:102F38001A46F7D108AA10A905F5067016F06EF919
:102F4800638831AF213B3246394610A816F0C3FEDC
:102F580000287FF72BAF2B68CDE9007010AADE6E32
:102F6800214608AB2846B047FF2323701EE708AF69
:102F780094F84A303B706388032B7FF6F6ADE86F10
:102F8800036821461B689847064600287FF4EDAD84
:102F9800E86F036821465B6898472B680DF1400984
:102FA800D3F87C80394604234A462846C04704F1B2
:102FB8004B0A07460DF141080DF1C40BB74283DDFA
:102FC80063884046013B5246594616F084FE002865
:102FD80008F121080FDD2B682278CDE900B006EB57
:102FE8004616D3F88070C2F3830209EB0603214624
:102FF8002846B84768E70136E0E710A815F0D9FF7A
:1030080010AE04F14A0304F16A0718685968324699
:1030180003C20833BB421646F7D16388632B7FF699
:10302800A4AD202210A905F5067022F044FB002863
:103038003FF49BADE86FD4F86AA0036821461B688B
:10304800984700287FF491ADE86F036821465B68D4
:1030580010AF98470FCF0DF1C4094E460FC6B4F80C
:10306800028097E80F00A8F16408B8F1200FA8BF04
:103078004FF0200804F1AE0B86E80F00424659468F
:103088003AA8CDF8E4A022F0DCFA08F124034A4675
:1030980004F16E0110A815F094FF00283FF465AD07
:1030A8002B68CDE900B810AA9E6E214653462846E3
:1030B800B04709E703F00303023B012B3FF655AD88
:1030C800E86F036821461B68984700287FF44DADD8
:1030D800E86F036821465B6898472B6821469B6F19
:1030E80028468CE56288022A7FF63FAD94F84A307C
:1030F80003F00F03032B7FF438AD042A7FF635ADB8
:1031080031AE304616F0A8FC23788DF8C430402242
:10311800237904F10A010DF1CE0016F0C3FC628890
:103128008DF8C800013A92B204F14B010DF5877091
:10313800ADF8C62022F085FAE86F036831461B68AF
:10314800984700287FF411ADE86F036831465B6843
:1031580098472B68DDF80E21D3F88430314628468D
:10316800984702E5002B3FF44DAD84E538B50B4B8D
:103178001C786CB901220A4D1A70002329460948A7
:103188001A46013416F0FBFC202C05F58275F4D1A3
:10319800BDE838400348002116F0CDBC267E00204B
:1031A800A45D00207C4E0020014BD3F8200170471D
:1031B800584D0020014BD3F8200170477C4E002069
:1031C800014816F0B8BC00BF584D0020044BD3F896
:1031D80020219142BABF283153F8210000207047BE
:1031E800584D0020054BD3F820018142BDBF28313E
:1031F800012043F821200020704700BF584D0020CF
:1032080021B1002302481A4616F0B9BC704700BF26
:103218007C4E002070B50B4B0022D3F8206103F1DF
:103228009C05FF208033B24200DB70BD55F8044F87
:10323800641A002C03DC9C5CA04228BF20460132A3
:10324800F1E700BF584D00202DE9F04705469046AC
:1032580099460F4699B31B4E304616F090FC04462B
:1032680068BBD6F8200118B306F17F0C2146234627
:10327800A04214DC0E4496F88030434518D9114812
:1032880016F059FC2B6801465B68284698474B4660
:10329800424639460B48BDE8F04716F070BC1CF8AA
:1032A800012F9A4234BF1A46214613460134DFE7FC
:1032B8002B68394628465B68BDE8F0471847BDE8E3
:1032C800F08700BF584D0020F0B4114A0C46D2F8E0
:1032D800207102F19C0600234FF0FF31FF2080325D
:1032E800BB4205DB4B1C0FD0F0BC094816F023BCD1
:1032F80056F8045F2D1B002D04DCD55C85423CBFCD
:10330800194628460133EBE70020F0BC704700BFA0
:10331800584D002030B50A4B4A1CD3F820510DD027
:1033280000229C331046AA4200DB30BD53F8044FFC
:10333800641A002CD8BF01300132F4E72846F4E7BC
:10334800584D0020002907DB044BD3F82021914277
:1033580002DA53F82100704700207047584D0020CA
:1033680038B50E4D0024281904F5827416F074FB44
:10337800B4F5025FF7D10A4B002421468022184693
:10338800C3F8204122F084F9064BC3F820412146B6
:1033980018468022BDE8384022F07AB9A45D0020A2
:1033A8007C4E0020584D00202DE9F0438DB00D468D
:1033B80012F00F019DF85090804614461E4604D026
:1033C8004FF0FF300DB0BDE8F083184B0693142280
:1033D80007A822F05DF9B9F1000F0CBF4FF4007394
:1033E8004FF48073124F0893102204AB414606A88D
:1033F800099721F047FD0028E2D105ABCDE901434B
:103408000498009623462A463946B9F1000F09D098
:1034180011F0E4FC0446049821F018FD002CCFD1EB
:103428000598CFE711F076FDF4E700BF002480008F
:10343800004440042DE9F04194B007460C46164676
:103448000021142207A81D4622F022F94FF48853C0
:10345800DFF85C80ADF818304FF48073ADF81A309F
:103468004FF48063CDE90838202204AB394606A81A
:1034780021F008FD28B14FF0FF34204614B0BDE814
:10348800F08105AB0293202301930CAB00932246F5
:1034980004983346414621F091FE0446049821F0F1
:1034A800D5FC002CE7D1BDF830302B80E5E700BF14
:1034B8000900800330B58DB00D4611461A4603AB9E
:1034C800019320230093044604AB0A4821F0A6FD8B
:1034D8002A4630B1002120460DB0BDE8304022F028
:1034E800D7B8202D28BF202204A9204622F0A9F809
:1034F8000DB030BD090000022DE9F043A7B0044625
:103508000D461646002170220AA8DDE92E891F46BD
:1035180022F0BEF816490AA821F031FDE8B93A466A
:1035280031460AA821F04CFDB8B94A4641460AA8D6
:1035380021F046FD88B901AB202202A90AA821F092
:1035480056FD50B9202D2A4602A928BF2022204620
:1035580022F077F827B0BDE8F0830AA821F000FD33
:103568002A460021204627B0BDE8F04322F090B853
:103578000900000208B5054B002814BF014619468A
:1035880003481AF02CFC012008F048FB3A8B02088B
:10359800468B0208F0B50B4D8E180346B14203F175
:1035A800020303D1002300F81230F0BD11F8014BDB
:1035B800270904F00F04EF5D2C5D03F8027C03F883
:1035C800014CEBE7EDB402082DE9F041DFF8348057
:1035D80005460C468F18BC4201D1BDE8F08114F8AD
:1035E800016B2B6832099B6818F802102846984727
:1035F80006F00F062B6818F806109B6828469847AF
:10360800E9E700BFEDB40208004870470000C07F3A
:1036180000487047668B020808B503491046FDF755
:1036280009FE002008BD00BF738B020830B514489E
:10363800134D8BB00022702101F016FE041E19DD17
:103648002246691C284622F00AF8013C02A801F02B
:10365800D3FE60B16F2C0ADC039B019305AB00938A
:10366800084A029BC4F17001281913F0ADF8044808
:103678000BB030BD04492846FDF7DCFD0724E5E71B
:10368800277E0020A98B0208A18B020838B50446C2
:103698004FF0FF324FF0FF330F480FF035F81FF0AF
:1036A800D0FB00230A22FDF7A1FDD4E90253002B29
:1036B80008DB421B42F2107561EB0303AA4273F167
:1036C800000303DBC4E902010023E380E488024825
:1036D8000FF0BEF8204638BDA405002008B50368E1
:1036E8001B689847BDE808400146014818F071B9C1
:1036F800B86D020807B5064B8DF8070001220DF1D9
:103708000701044801F028FF03B05DF804FB00BF7F
:10371800C68B0208D68B020873B5124B124C1D7863
:1037280015B1207802B070BD012610481E7017F040
:1037380025FF0028F5D00D488DF8035001AB32461F
:103748000DF10301019517F032FF38B1019B2BB140
:103758009DF80330012B08BF4C232370034817F052
:1037680018FFDEE7987E0020977E0020D68B02089F
:103778004C28024607D0552807D0054B0548002A93
:1037880008BF18467047044870470448704700BF90
:10379800E28B0208A18B0208E78B0208F38B020870
:1037A8003E28024630D016D8142830D00AD80A2825
:1037B80030D00F2831D0204B41F68460072A18BF3B
:1037C800184670471F282BD01B4B4AF2C320292AC2
:1037D80018BF18467047B0F5FA7F24D00AD8FA28DF
:1037E80023D0B0F5C87F22D0134B1448C82A18BF7D
:1037F80018467047B0F5487F1BD00F4B1048B2F5FC
:103808007A7F18BF184670474FF22440704745F238
:103818006110704742F6B100704743F6095070478F
:1038280047F612207047074870470748704707480F
:1038380070470748704700BF48E80100F8180300C0
:1038480040420F0020A1070090D00300F03106008D
:10385800E0630C0070B5036993F87430073B052BDF
:103868000D4614462ED8184A52F823603046FDF704
:1038780007FC38BB2046FDF7F3F94FF06E51FDF712
:1038880043FA01464FF07E50FDF734F931460446BD
:103898002846FDF72FF90D49FDF7EAFA01462046BB
:1038A800FDF732FA00210446FDF7CCFB50B94FF082
:1038B8007E512046FDF7E4FB10B14FF07E5070BDFD
:1038C8002046FCE70020FAE75C6B02080000204174
:1038D80070B5044616F064FBD4F88039D4F884290E
:1038E800054653EA02004DD05B1B62EB0102012B37
:1038F80072F100003EDB6FF00040834272F100027B
:1039080000DA1846B4F8683A9BB394F95A3A803307
:1039180014D0D4F8602AD4F8646A521B66EB010606
:10392800012A76F1000327DB6FF000439A4276F113
:10393800000600DA1346984228BF1846D4F8703AB1
:10394800D4F8742A53EA02041CD00F4C1B1942F114
:1039580000025B1B62EB0101012B71F100020DDB20
:103968006FF00042934271F1000109DA984228BFD2
:10397800184670BD0020C5E70023DCE70023F5E703
:103988001346F3E70020F4E7009749012DE9F04FCB
:103998008BB004468846174616F0ABFA814638B90C
:1039A800694A394640460BB0BDE8F04F12F00CBFEB
:1039B800D4F89809002800F09280D4F89C290A23AA
:1039C8005A43D4F8A03964214B4302EB500203EB6D
:1039D8005003B2FBF0F2B3FBF0F094F8573A04F658
:1039E800A81A27EAE771002B7BD194F854CA574DDF
:1039F800574B94F9556ABCF1000F08BF2B460A25AE
:103A08000590B2FBF5F005FB1022CDE9030209EBA6
:103A18000602CDE90062CDF808904E4A404612F001
:103A2800D3FEC72F054640445FDDD4F89C3A039384
:103A3800D4F8983A0293D4F8943A0193D4F8903A87
:103A48000093791BD4F89839434A12F0BDFE054417
:103A580008EB0500791B94F8583A404A12F0B4FE76
:103A68000544204616F0A3FB014640B9AF4208EBD7
:103A78000500C8BF791B3A4A12F0A6FE0A3550461F
:103A880016F0E2FF8346504616F0F4FF5E45B8BFD5
:103A98005E468642B246A8BF82460AF1FF36B34563
:103AA800CABF0BF102030AF101035E468342C8BF95
:103AB800861E6FF00702C8BF03469642B8BF164677
:103AC8000C2BA8BF0C23099304EBC6044FF0640B1E
:103AD800099B9E420DDD28460BB0BDE8F08F0246DB
:103AE8007BE794F9566A1F4B89E7AF42B2DC0021A5
:103AF800B1E7B4F8EC29B4F8F0C91AB353080BFBD2
:103B08000C33B3FBF2F30693B4F8F239CDE904C3EE
:103B1800B4F8EE39BD42CDE9022309EB0603CDE93D
:103B28000063B8BF791B08EB0500A8BF00210E4A47
:103B3800B24514BF20232A2312F046FE013605445D
:103B48000834C5E71346DEE7008C0208189C020813
:103B5800AD9E0208088C02082E8C0208438C0208CD
:103B68004C8C0208DD910208578C02082DE9F843B5
:103B78004A4B03604A4F8C330025002643604FF0C0
:103B8800000800F518634FF00009C0E902714662A9
:103B9800C0E90452C0E9065505628662C0F85C585F
:103BA800C0F86058C0F8745980F87859C0F87C5942
:103BB800C3E9008943F69823044680F88859C0F879
:103BC8008C39C0F89059C0F89459C0F89859C0F881
:103BD8009C59C0F8A059011D00F6A81016F01FFF47
:103BE80004F52763A4F8685AC3E900893B6984F897
:103BF800785A5B1B18BF012384F8793A4FF40043C5
:103C0800C4F87C5AC4F8805AC4F8845AC4F8885A4C
:103C1800A4F88C5A84F88E5AC4F8905AC4F8945A66
:103C2800C4F8985AC4F89C5AC4F8A05AA4F8A43AFC
:103C3800C4F8A85AC4F8AC5AA4F8B05AC4F8B45A8C
:103C4800A4F8CC5AC4F8D06AC4F8D46AA4F8D85AEC
:103C5800C4F8DC5AC4F8E05AC4F8E45AC4F8E85A7C
:103C680084F8A05BA4F8A25BC4F8A45BC4F8A85BC2
:103C7800C4F8AC5B04F664101FF032FA012229463E
:103C880004F688301EF0C3FE4FF40362294604F19F
:103C98002C0021F0FDFC2046BDE8F883C06A02082C
:103CA800C06D020808B50346C068B3F8A21B836854
:103CB800002908BFFF219B68984758B1084B9842D4
:103CC8000BD800F5FA70400041F28833984238BFAB
:103CD800184608BD41F28830FBE76FF47A70F8E7C0
:103CE8000BFEFF7F30B590F8A03B89B00446CBB9F6
:103CF80000F52F65002000210A22CDE90601CDE953
:103D08000232CDE9004304930749084B4FF400629F
:103D180028460FF017F9064928461EF058FF0123D8
:103D280084F8A03B09B030BD0083002011A301082E
:103D3800778C02082DE9F84305460C461746002102
:103D48001422204621F0A4FC95F8CD3A002B35D05A
:103D5800D5F8D00AD5F8D49A95F8D88A95F8D96ABA
:103D68001B49FCF7D1FFFDF7D1F920604846FDF764
:103D7800CDF9B31F80B216F073F8022B9ABF043E38
:103D8800F6B20126B8F1080F8CBF10232023A080BB
:103D980084F80680E67123812B6993F94C302773E8
:103DA800162BA8BF16236FF008029342B8BF13461C
:103DB800A37240F202432382BDE8F8832B69986C12
:103DC800D3F8789093F8748093F87560C8E700BFCB
:103DD8000024744908B590F8CD3A5BB1D0F8D00A00
:103DE8000649FCF791FF4FF07C51FCF785FEFDF783
:103DF8008DF908BD0369986CF2E700BF0024744987
:103E080008B590F8CD3A63B1D0F8D40A0649FCF762
:103E18007BFF4FF07C51FCF76FFEFDF777F980B21E
:103E280008BD0369986FF1E7000020412DE9F047CC
:103E3800024616F0C3F992F8CD3A0F460546002B14
:103E480000F0BD80D2F8D49A104616F0C1F99368F4
:103E580093F8008008F10506F6B2B542044603D38C
:103E68000C2D28BF0C25EEB25B494846FDF7EAF851
:103E780008B1DFF868914846FDF748F980B215F0B7
:103E8800EFFFFFF78DFC082C28BF08240546E4B295
:103E98000120052C00FA06F038BF0524FCF7E0FEE7
:103EA80081462846FCF7D8FE4D49FCF7E1FF4C490E
:103EB800FCF72AFF01464846FCF7DAFF8146B8F1CD
:103EC800000F01D1062E7ED9082E4FF000057DD8AF
:103ED8002020FCF7C5FE4349FCF70EFE2946804624
:103EE8002846FCF709FE01464046FCF705FE494610
:103EF800FCF70AFF3C4980464846FDF7C1F8002810
:103F080066D04FF07E5A3046FCF7AAFE0646384681
:103F1800FCF7A6FE4FF08241FCF7F6FE4FF0814118
:103F280007463046FCF7F0FE01463846FCF7E2FD4E
:103F38002E49FCF7E1FD4FF08341FCF7DDFD4FF022
:103F4800824107462846FCF7DFFE01463846FCF763
:103F5800D1FD514607465046FCF7CEFD0146304696
:103F6800FCF7C8FD4FF08141FCF7CEFE4FF07E51C3
:103F78000546FDF767F808B14FF0814529463846F0
:103F8800FCF776FF14F028FA05462046FCF768FE91
:103F98002946FCF7B9FE002121F017FE4FF08241B7
:103FA800FCF7AAFD4946FCF7AFFE4146FCF7A4FD25
:103FB8000B49FCF7A9FEFDF7A9F8BDE8F0871369DE
:103FC800D3F8789040E74FF07E5581E7102080E7DE
:103FD8004FF0000A97E700BF0000E0400000FA42F7
:103FE80000007A44000088405A2F863C0000E041D7
:103FF8002DE9F04F04468BB016F080F994F8783A22
:1040080004F1180A002B00F09080002205A9204630
:10401800FFF790FE9DF81A60BDF81C50062E8CBF65
:104028004FF0080B4FF00C0BBBF1080F0CBF11231E
:1040380019239D4240F38880BDF81800FFF7B0FBB4
:10404800012102464248B1400023A1FB0001FDF7CF
:10405800CDF8A368DB690646002B5DD0E068984779
:104068008146A5EB4B0808F1FF3806FB08F8052048
:1040780064220023A8FB0001FDF7B8F809F5FA63EC
:10408800A8EB0007BB42D4F87C2A48D20E3575430A
:10409800A7EB0907BD420BFB066608D96B1CA3EB0F
:1040A800080303444B445B089E4238BF1E469642B1
:1040B80003D1D4F8803ABB4203D0C4F87C6AC4F870
:1040C800807A16F163004FF0000545F10001642283
:1040D8000023FDF78BF8D4F80C80814617F16300B4
:1040E8004FF000030E464FF0640245F10001FDF762
:1040F8007DF8D8F808309D6ABDB1164B03948DE859
:104108000B004A4633464046A84770B91DF083FA6B
:104118000121C4F8940911E040F2DC59A1E7013209
:1041280003D04FF0FF33C4F87C3AE068094983684C
:1041380022469B6998470028E8DA002150460BB0D0
:10414800BDE8F04F15F051BFD4F87C3A0133E7E7EA
:1041580040420F00C7A0010838B583689B6A04462F
:104168000D46BBB100F6A43015F0F4FE034604F684
:10417800AC3015F0EFFE1844D4F8843A984202D1D6
:10418800D4F8883A3BB9C4F8840A012D38BF012510
:10419800C4F8885A38BD084ACB1A9342FAD994F819
:1041A8008E3A072BF6D9A3689B6A0BB1E06898474B
:1041B8002046FFF71DFFE8E7BF270900F8B5836829
:1041C800DB6A04460F46002B38D090F8B03A33B17A
:1041D800D0F8A83AD0F8AC2ACB1A93422ED3D4F808
:1041E800B43A23B1FB1A4EF65F22934226D960698E
:1041F80020B303685B68984701460546FCF74AFF09
:104208000646D8B9284621F003FD174BC4F8AC3A46
:10421800B4F9A43AC4F8A87A012213F5004F05B2FC
:1042280084F8B02A02D1A4F8A45A07E0EB1A002BAC
:10423800B8BF5B42042B02DC84F8B16AF8BD94F87D
:10424800B13A33B943F6982384F8B12AC4F8AC3AA2
:10425800F4E7A36884F8B16ADB6A0BB1E0689847B1
:104268002046FFF7C5FEDEE780EE360038B5044687
:104278001C3015F06FFE98BB204616F04EF978BB3F
:1042880015F08EFE054604F6A43015F063FE0346CD
:1042980004F6AC3015F05EFED4F8842A0344934249
:1042A80002D1D4F8883A63B90023C4F8A03A294661
:1042B8002046FFF751FF29462046BDE83840FFF762
:1042C8007DBF084AEB1A9342F1D9D4F8A03A13B14A
:1042D800EB1A9342EBD9012D2B4638BF0123E4E7B3
:1042E80038BD00BFBFD401002DE9F843B0F8683AE3
:1042F80004463BB190F8CD8AB8F1000F04D00023F2
:1043080080F89339BDE8F88304F5276715F048FE6F
:10431800D4F8702A7B680E4652EA0301054662D13A
:10432800C4F8705A7E6094F95A3A803315D0D4F89C
:10433800602AD4F8643A954276EB03030DDBA36850
:10434800596B04F6A81511B1E0688847014628465C
:1043580016F063FC284615F008FF94F89339002BF3
:10436800D0D0002384F8933994F95A3A8033C9D1CC
:10437800204615F01CFF0028C4D094F89239002B71
:10438800C0D0204616F0C9F80028BBD104F6A819F9
:10439800484616F0F6FBA3681B6B074683B3014635
:1043A800E0689847064615F0FBFD022E80460D464C
:1043B80029D1321E18BF01223946484616F015FC8D
:1043C800022E2BD1204615F0F2FE10EB080045F125
:1043D8000005643045F1000584F85A7AC4F8600A8B
:1043E800C4F8645A8EE70F49AA1A66EB0303914290
:1043F80078EB030397DA04F6A81016F0B0FB8FE702
:104408006FF05706CFE7002104F1180015F0EDFD15
:104418002046FFF7EDFD002ECBDA73E7484615F08E
:10442800A4FE6FE70097490110B504461EF009FD88
:104438000A220023FCF7DAFE00234FF47A72FCF715
:1044480085FEA3681844064B984207D9054B1A689D
:1044580082421FBF1860044B044A1A6010BD00BF97
:104468008081A369C8D80020C4D8002033CC55AABD
:10447800002343608360074B074A02601A68074BB2
:104488009A4205D1064B074A1B68934288BF83604E
:10449800704700BFC4D80020886B020833CC55AAE7
:1044A800C8D800208081A36938B505460C461EF09F
:1044B800C8FC0A220023FCF799FE4FF47A72002305
:1044C800FCF744FE034B044A1C60044B201AA86006
:1044D8001A6038BDC8D8002033CC55AAC4D80020EB
:1044E80070B50D4616460424314628461AF0BFF921
:1044F80040B1642000210EF0A5FF013CF4D1024830
:10450800FFF738F870BD00BF848C02082DE9F04F22
:10451800DFF8C882ADF5397D04460D4617460021FF
:104528004FF4007238A81E4621F0B2F898F800300F
:1045380043B9AB4819F053FC98F8003013B9A948AF
:1045480019F04DFC402138A81AF091F998F800307C
:1045580081463BB938A816F069FC49460246A2488C
:1045680019F03DFC102200210AA821F091F8102131
:104578000AA809F065FA0DF21F1201460DF1280C80
:1045880000238B4202DA102B40F0838098F8003029
:10459800002B40F01F81954819F021FCBFB1B6B13E
:1045A800202E314628BF20210DF22F133A467E18BF
:1045B80012F8010B13F8017FB24280EA0700187065
:1045C800F6D198F8003043B9894819F008FC98F8F2
:1045D800003013B9874819F002FC402194A81AF05A
:1045E80046F998F80030064673B994A816F01EFCF0
:1045F80031460246804819F0F2FB98F800301BB9A2
:104608007E48294619F0EBFB7D4B24AF3A4603F16F
:10461800180C18685968164603C6083363453246AD
:10462800F7D1186899889B793060B180B3713122CD
:1046380000210DF11C0A07F11F0021F029F80023C1
:10464800CAF8003010F004FD202300938046CDF80E
:1046580004A06C481CAB4FF4007238A920F0DEFCB3
:10466800064620B9DAF80090B9F1200F1AD02021B7
:104678001CA815F055FBCDF80480DAF8003000933B
:10468800614A33465021384612F09EF824A8FEF7B6
:1046980071FF12F801EF1CF8010B80EA0E00107090
:1046A80001336EE70146142217A820F0F1FF574A9C
:1046B80008964FF41053ADF858300DF1200A4FF416
:1046C8008073CDE91832ADF85A301CA953464A46D2
:1046D80016A820F0D7FB494606461CA815F020FB73
:1046E80046B14B4ACDF8008033465021384612F087
:1046F8006BF8CBE7102231460EA820F0C9FF3746E9
:104708000DF1240BBD42DAF800001ED90023CBF8C6
:1047180000300DF14809102301930EAA3B49CDF84A
:1047280008B0CDF8009010F059FBDBF800200346E4
:1047380008B9102A1BD00092CDE90178354A5021DA
:1047480024A812F041F84FF0FF36089820F07EFBBD
:1047580010210EA815F0E4FA002E97D10123254464
:104768001946AC421DD101B93BB32B488FE7EA1B70
:10477800102A28BF1022E0194946059220F061FF4F
:10478800059A17444A4612F8013D0133DBB213700B
:1047980013B90EAB9A42F6D11021484615F0C0FA6B
:1047A800B0E714F8012B32B1FF2A14BF002303F03D
:1047B80001030021D5E71346D3E738A84FF4007169
:1047C80015F0AEFA10210AA815F0AAFA0DF5397DF0
:1047D800BDE8F08F002F7FF4E2AEFEE6997E002060
:1047E800A58C0208C98C0208118D0208408D0208A8
:1047F800818D0208A38D0208F08D02081F8E020821
:10480800108F020809000002588E02080044400474
:10481800868E0208B18E0208E58E020830B50023A4
:1048280089B004461A4620216846FFF76FFE69469C
:10483800204614F0DCFB65252378013BDBB2FD2B19
:1048480005D82021684615F06BFA09B030BD013D46
:1048580002D10748FEF78EFE002368461A4620213B
:10486800FFF754FE6946204614F0C1FBE4E700BF99
:104878002F8F020811B1024A11F0A6BF704700BF7E
:10488800558F0208014A11F09FBF00BF668F0208CA
:1048980037B5144683686A461B69984788B90198F2
:1048A800FCF7DEF90849FCF7E3FA05460098FCF73F
:1048B800D7F901462846FCF71FF92060012003B00C
:1048C80030BD0020FBE700BF0024744938B50D4611
:1048D8000446B8B11DF06EFF10B920461DF061FF07
:1048E80020461DF067FF68B1074B1A780F2A09D8D0
:1048F800511C1970054B43F8324003EBC2030022E8
:104908001D715A7138BD00BF9A7E0020A04F00204B
:10491800014B1878704700BF9A7E0020064B1B7821
:10492800984207D2054B03EBC0031879031F58427E
:1049380058417047002070479A7E0020A04F002001
:104948002DE9F3410C46064624220021204620F09A
:104958009FFE644B1B789E4280F0C180624D05EB40
:10496800C6034FEAC6081A79062A11D15B7955F8A9
:10497800360000930022019283681F68002F00F020
:10498800AB806B4614224E21B847002840F0A48023
:1049980055F8360083684E21DB689847074600289B
:1049A80040F09A8005EB08031B79042B55D006D9F3
:1049B800053B012B6AD9384602B0BDE8F08155F8AD
:1049C8003600221D0D21FFF763FF18B1238843F03D
:1049D8000103238005EB08031B79012B2BD955F81C
:1049E800360004F10C020E21FFF752FF0028E2D036
:1049F800E0683E49FCF788F92688E060A84446F05C
:104A08000403238098F8043003F0FD03012BD2D16E
:104A18003749FCF72DFA3749FDF76EFB01464FF091
:104A28007E50FCF767F83449FCF76EF946F00C063F
:104A380020612680BFE755F8360004F108021021EE
:104A4800FFF726FF18B1238843F00203238005EB04
:104A580008031B79002BAED0C1E755F8360004F1E6
:104A680014021221FFF714FF18B1238843F0100332
:104A7800238055F83600221D0D21FFF709FF002875
:104A880099D0238843F00103238094E755F8360032
:104A980004F118022B21FFF7FBFE18B1238843F01D
:104AA8002003238055F8360004F11C022D21FFF75E
:104AB800EFFE18B1238843F04003238055F83600F1
:104AC80004F120022E21FFF7E3FE00283FF473AF24
:104AD800238843F08003D7E76FF004076BE76FF094
:104AE800150768E79A7E0020A04F002000002041AB
:104AF80000507D4401DE423E002A2D47024B1878C3
:104B0800003818BF012070479A7E002010B50C4667
:104B180016F0A8F918B1002C014818BF002010BDE4
:104B28007C8F020810B50C4616F09CF940B144B9C8
:104B380016F09AF9044B01460448002908BF1846A4
:104B480010BD0020FCE700BFCAA30208B1B30208E9
:104B580070B50E46154616F085F9044668B10E493B
:104B68003046FCF75DFB50B90C492846FCF758FB6A
:104B7800003818BF012016F07BF9204670BD08499F
:104B88003046FCF74DFB28B9284620F08CFD16F07E
:104B980074F9F2E70024F0E77C8F0208CAA3020840
:104BA800808F0208054B064A1A6000200021C3E9DD
:104BB8000201C3E90401C3E906017047F0050020BA
:104BC800A86B020870B4CE7D46B1CD68541B054D64
:104BD800AC4203D81BB970BC16F001BB00231846C1
:104BE80070BC7047809706002DE9F84F032B0A9D8B
:104BF8000646894690461F462FD816F0DCFA04462A
:104C0800A0B38668464528D2C168404A691AA8EB0D
:104C180006069620761A4FF00003A1FB000169EB07
:104C28000909FCF793FA10F12D020B4641F1000136
:104C3800B24271EB09010ADB6FF02C02121A4FF035
:104C4800FF3161EB0303964279EB030307DA256131
:104C58000123A382C4E90285A775BDE8F88FA38A5A
:104C68004FF6FF729342F5D00133F2E7034618215D
:104C780006F1170001FB03F210F802C0BCF1000FA7
:104C88000ED1B418D9F800302360D9F80430636025
:104C98000123C4E902852561A382A775E375DCE7D2
:104CA8000133202BE6D131464FF0000A4FF0180BA4
:104CB8002A46304616F093FACB6818B11448EA1A17
:104CC800824217D98A7DBA4214D9ECB1A07D8242BA
:104CD8001AD803D1888AA28A904215D30BFB0A629C
:104CE80060695269424032F07F4203D1E2689342E0
:104CF80038BF0C460AF1010ABAF1200F01F1180178
:104D0800D6D1002CBED1A8E70C46F3E740420F00ED
:104D180080510100034690F8100338B1D3F80C33E2
:104D28000348C91A81428CBF00200120704700BF88
:104D38007F3A09002DE9F3478A46164600211822D2
:104D480004461D4620F0A4FCDAF80073BE422CBFCE
:104D58000023012323743246009351462B4604F165
:104D6800180016F049FA237E1BB940F2012323806C
:104D780014E0BE422ED2A37E022B02D840F20133A9
:104D8800F5E7D4E90832B3F1960642F1FF32B6F5F9
:104D9800167F72F1000305DA01236370204602B022
:104DA800BDE8F08729465046FFF7B4FF08B1052350
:104DB800F3E79AF8203343B1DAF81C3345F25F4140
:104DC800EB1A8B4201D80623E7E70223C4E9026203
:104DD8002370E3E7637E052BD0D9A27EB3EB420FA5
:104DE80002DB40F20143C2E7D4E90887002F4646B8
:104DF800B94602DA764267EB4709B6F5167F79F1CC
:104E08000003C9DB29465046FFF784FF0028CED1AE
:104E18009AF8203333B1DAF81C3345F25F42EB1AC3
:104E28009342D0D99AF81833ABB1DAF81433164A4A
:104E3800ED1A4FF496700023A5FB0001FCF786F9E4
:104E480010F5167041F10001B04271EB090102DA68
:104E580040F201738BE7022318F5616F23703B461C
:104E680077F1FF374246B8BF084A40F61161B8BF2C
:104E78004FF0FF338A4273F10001A4BF4FF461621F
:104E88000023C4E9022389E740420F00F0F1FFFF45
:104E98000138C0B206289ABF024B53F820000248D6
:104EA800704700BFCC6B02087D9402082DE9F04FD3
:104EB800B1B005469DF8ECA00B9388461646002A2B
:104EC80000F0B9813A9B0B9A014616A8FFF732FF0A
:104ED8009DF858209DF868309DF870400993022A83
:104EE800DDE91E7940F0358195F80423DDE91810D5
:104EF80022B1002880F2A181B64A04E0B64B8B4269
:104F08008241B64A07DBB64B4FF0FF3C994270EB43
:104F18000C0C00DB0B46B348B049DDF824C0BCF1EB
:104F2800000F18BF0146CDE9001222A8AE4A382169
:104F380011F04AFCBAF1000F00F03081AB4BA74AE0
:104F48009DF871109DF872009DF873C0002C00F058
:104F58002881A14C4FF0000EBC427EEB090E07DB06
:104F68009F4C4FF0FF3EA74279EB0E0EA8BF3C4680
:104F7800209F00920DF1880ECDE90110CDE903C400
:104F8800CDE9057E9A4A3146404611F01DFC041EC3
:104F9800C0F24C81B44280F04981D5F82C3303B378
:104FA800D5E9CE1C8C4AD5F830738A424FF0000000
:104FB80070EB0C0007DB8A4A4FF0FF3091427CEB24
:104FC8000000A8BF0A46CDE90072311B08EB0400B7
:104FD800884A11F0F9FB241800F12881B44280F0C6
:104FE8002581D5F834335BB1311B08EB0400824AC4
:104FF80011F0EAFB241800F11981B44280F01681FF
:105008003A992846FFF786FE98B13A99284616F04D
:1050180074FA311B794A4FF46163B0FBF3F308EB80
:10502800040011F0D1FB241800F10081B44280F093
:10503800FD80D5F828330093311B08EB0400D5F820
:1050480024336F4A11F0C0FB241800F1EF80B442FA
:1050580080F0EC8005F540730A934FF0000A2B4668
:10506800DA7D0AB10AF1010A0A9A18339342F7D194
:105078004FF0000BD946CA4540F3A8808BF00103D6
:105088002F460F93FB7D002B00F09480099B3A9AE2
:1050980039462846FFF796FD0F9B834240F08A80E9
:1050A80008EB04030893331B0C933B780D937B7830
:1050B8003A9A0E93FB68B98A97F816C0D31ABA6859
:1050C800632928BF63219B184FF0000242EB020EB0
:1050D8000B9A9B1A404A6EF1000E9A424FF000025A
:1050E80072EB0E025FDB3E4A93424FF0FF327EEBDB
:1050F80002025ADBDFF8E4E0424A002808BF7246A1
:10510800CDE903320E9B0093CDE901C10D9B3E4AC8
:10511800311B08EB040011F057FB002802DB204488
:10512800B04244D3089A0023CA4513704EDDAAEB57
:105138000903364A182110A811F046FB0C9B83423C
:10514800054643D9421C10A9089820F07AFA2C4445
:105158003CE0BDF85830B3F5807F15D1B9F1000FA8
:105168003B464A4602DA7B4269EB490240F22D117E
:105178008B4272F10002B4BF254B264B264A3821D8
:1051880022A811F021FBD5E69DF85900FFF780FE13
:1051980003460AB9214AF2E7214AF0E7214B224A9D
:1051A800CEE62746E5E60C4BA4E70D4BA2E709F14E
:1051B800010904460A9B18379F427FF463AF0BF13D
:1051C8000103022B4FF0010B7FF455AF204631B09D
:1051D800BDE8F08F8D8F020800943577C3B20208BE
:1051E800006CCA88A68F0208CC8F0208AD9E020800
:1051F800F08F020825900208459002085390020893
:105208005D900208C98F0208719002088D9002080B
:10521800B38F0208B68F02083A950208D98F0208A0
:10522800E38F0208189C0208BE8F0208741E002330
:1052380008F80430CAE71446C8E7034B00228B423B
:105248008241024A65E600BF00943577C3B202087E
:10525800034A0346107810B1024A12681A60704770
:105268009B7E0020205000202DE9F04F85B00F468E
:105278000292064618B9002005B0BDE8F08F002953
:10528800F9D0194B1B7800240470002BF3D0174D6C
:10529800DFF85CA0DFF85CB005F1CC082A68DAF822
:1052A80000301A421CD0029BABB1AB68002B08BF80
:1052B8005B46009306EB0409391B6B680E4A0391A1
:1052C800484611F081FA0028039906DA002389F884
:1052D80000302046D0E7074BEBE78142F6D904447B
:1052E8000C354545DAD1F4E79B7E0020E86B0208CF
:1052F80020500020C3B20208429B020800B5A3B0A8
:105308000023019301A808F0B7FB024658B9084BDF
:1053180001991960074B0121197002A88021FFF734
:10532800A3FF08F0DFFB002023B05DF804FB00BFFB
:10533800205000209B7E0020044A0548082352F88C
:10534800041F013B81EAF060F9D17047CCD80020F6
:1053580017F4437AF8B50D4E0D4B32689A4212D1C4
:10536800FFF7EAFF746A84420DD1351D0FCD094F4E
:105378003C460FC495E80F0084E80F000023FB7734
:10538800054B01221A7000203060F8BDCCD80020EF
:1053980017F4437A245000209C7E002070B5114CED
:1053A80006460D4610481C22002120F071F966605F
:1053B8001DB1AB69A3606B69E36007F027F90B4B7C
:1053C80018581DF007FC014618B10948132220F0AF
:1053D800B2F9084B2360FFF7AFFF6062012006F0C7
:1053E8001DFC00BFCCD80020D4D800200800000045
:1053F800DCD8002017F4437A70B5064B1E780446B3
:1054080036B1054D0FCD0FC495E80F0084E80F00A5
:10541800304670BD9C7E002024500020044BBFF312
:105428005B8F1868BFF35B8F003818BF0120704787
:105438005050002008B50146034816F06DF808469C
:1054480006F07CFA08BD00BF505000200146014814
:1054580016F062B84C500020034BBFF35B8F1868FE
:10546800BFF35B8FC0B27047485000200146014827
:1054780016F052B848500020044BBFF35B8F1868F1
:10548800BFF35B8F003818BF0120704744500020DD
:1054980064280146024828BF642116F03DB800BFC1
:1054A8008000002007B508B1002303700A4818F0EF
:1054B80096FF01A9002006F043FC014618B901989F
:1054C800826818F09CFD044807F002FB034803B00B
:1054D8005DF804EB16F03BB828010020D5910208CE
:1054E80070B594B0034605460C4616464021194A45
:1054F80004A811F069F901383E281FD804A816F04D
:1055080048F80023122204A901A8CDE901338DF837
:105518000C3018F0E5FD002810DB314601A8A04743
:10552800044601A818F07CFE064601A818F036FECD
:105538000CB1002E06DA04A818F0A6FE00242046B6
:1055480014B070BD294604A818F0C6FE0028F6DA83
:10555800F1E700BFDA91020807B5CDE90012034967
:105568006A46FFF7BDFF03B05DF804FB39B50108D3
:1055780070B5B2B005460E4616F000F8C0B100236B
:105588000193802201AB12A9284616F010F80446B0
:1055980080B9114A2B46402102A811F015F93F287D
:1055A80006DC02A815F0F5FF02A9284618F094FEBB
:1055B80000240EE0019A3F2AEBD912A9304613F0D5
:1055C80099FD30B9019A12A9304613F0F3FD00286D
:1055D800DFD0204632B070BDE191020810B5A0B00E
:1055E800802204460846694613F06BFD024620B146
:1055F800034B69462046FFF7AFFF20B010BD00BF40
:10560800E89102081FB5084A0B46CDE9012001229E
:105618008DF80C2018684A6801A9904708B19DF8D0
:105628000C0005B05DF804FBE46C02082DE9F041BC
:10563800DAB018AD0F4629468046164618F087FEA0
:10564800044620B1002420465AB0BDE8F081D5F8C0
:105658000431002BF6D0CDE900008DF808000122B6
:105668004146684618F03CFD00286D46EADB074BCA
:105678008DF85C4003A9C1E91244C1E900353846F8
:10568800B0470446684618F089FDDCE7BC6C0208A0
:105698002DE9F0419AB005460F46164615F06EFF03
:1056A80050B30024012229466846CDE900448DF80C
:1056B800084018F015FDA042E8461DDB154B039382
:1056C800154B8DF86040CDE904380123CDE9164427
:1056D8008DF8643003A93846B047044640B19DF8B8
:1056E80064402CB104A816F014F8431C5C425C41D9
:1056F800404618F053FD44B9084B094903AA284607
:10570800CDE90376FFF7ECFE044620461AB0BDE863
:10571800F08100BF0C6D0208BC6C0208F191020810
:105728000D560008F8B5002380F8233080F847307C
:1057380080F8673080F8133180F8543180F891315F
:1057480080F8D13190F8D2310568012B28BF0123A8
:10575800044680F8D23129462846FBF769FC48B14F
:1057680000212846FBF76EFC20B939492846FBF78B
:1057780087FC00B1364D2560256D29462846FBF784
:1057880057FC48B100212846FBF75CFC20B9314999
:105798002846FBF775FC00B100252565D4F898501C
:1057A80029462846FBF744FC48B100212846FBF768
:1057B80049FC20B928492846FBF762FC00B10025BE
:1057C800C4F89850E56E29462846FBF731FC50B1DD
:1057D80000212846FBF736FC28B94FF080412846BF
:1057E800FBF74EFC00B11D4DE566D4E90A67324669
:1057F8003B4630463946FBF7AFF868B1184B0022F4
:1058080030463946FBF7B2F830B9164B002230461D
:105818003946FBF7C9F808B100260027C4E90A672A
:10582800D4E90C6732463B4630463946FBF794F8D4
:10583800F0B10D4B002230463946FBF797F8B8B95E
:105848000A4B002230463946FBF7AEF890B10FE01C
:1058580000001041000061450060EA46CDCC4C3E96
:10586800008056C000805640008066C000806640B8
:105878000026002794F87530082B28BF0823052B2D
:1058880038BF052384F8753094F94C30162BC4E9D9
:105898000C6700F35F811E2B6FF00802A8BF1E2360
:1058A8009342B8BF134684F84C3094F832315A1EEC
:1058B8005342534184F8323194F82531591E4B42F2
:1058C8004B4184F8253194F87730581E43424341C0
:1058D80084F8773094F830315D1E6B426B4184F860
:1058E800303194F886305E1E7342734184F88630F6
:1058F80094F887305F1E7B427B4184F8873094F8A8
:105908006C3103F1FF3CDCF1000343EB0C0384F83A
:105918006C3194F816315A1E5342534184F81631AB
:1059280094F88030591E4B424B4184F8803094F8EB
:105938008130042B28BF002384F8813094F882300A
:10594800042B28BF002384F8823094F88330642B1A
:1059580028BF642384F8833094F81931581E4342D1
:10596800434184F8193194F81A31012B28BF0123D7
:1059780084F81A3194F876305D1E6B426B4184F8D6
:10598800763094F884305E1E7342734184F8843014
:1059980094F885305F1E7B427B4184F8853094F80B
:1059A800213103F1FF3CDCF1000343EB0C0384F8E5
:1059B800213194F822315A1E5342534184F822313E
:1059C80094F81431012B28BF012384F8143194F87A
:1059D8001531012B28BF012384F8153194F867315C
:1059E800012B28BF012384F8673194F86D31012B0E
:1059F80028BF012384F86D3194F86531591E4B4254
:105A08004B4184F8653194F82631022B84BF00237A
:105A180084F8263194F82731022B84BF002384F8B8
:105A2800273194F82831022B84BF002384F82831C9
:105A380094F89030022B84BF002384F8903094F8B7
:105A48003531032B84BF012384F8353194F8333181
:105A5800022B84BF012384F8333194F83431402B6E
:105A680028BF402384F8343194F87C30402B28BF79
:105A7800402384F87C3094F87D30D4F82C21402BD6
:105A880028BF402384F87D3094F87E30402B28BF0F
:105A9800402384F87E3094F81D315A2B28BF5A23AE
:105AA80084F81D3194F81B310833DBB2142B84BF02
:105AB800002384F81B3194F823310C33DBB21A2B02
:105AC80084BF002384F8233194F81C31013B082B50
