:020000040800F2
:10000000C0B3002069A400083FB4010855A400084B
:1000100055A4000855A4000855A4000800000000DD
:10002000000000000000000000000000C1A4000863
:1000300055A400080000000089A6000889D5000822
:1000400005A7000805A7000805A7000805A70008E0
:1000500005A7000805A7000805A7000805A70008D0
:1000600005A7000805A7000805A7000805A70008C0
:1000700005A7000805A7000805A7000805A70008B0
:1000800005A7000805A7000805A7000805A70008A0
:1000900005A7000805A7000805A7000805A7000890
:1000A00005A7000805A7000805A7000805A7000880
:1000B00005A7000805A7000805A7000805A7000870
:1000C00005A7000805A7000805A7000805A7000860
:1000D00005A7000805A7000805A7000805A7000850
:1000E00005A7000805A7000805A7000805A7000840
:1000F00005A7000805A7000805A7000805A7000830
:1001000005A7000805A7000805A7000805A700081F
:0401100005A7000837
:1001180081F0004102E000BF83F0004330B54FEAB0
:1001280041044FEA430594EA050F08BF90EA020F1D
:100138001FBF54EA000C55EA020C7FEA645C7FEAB0
:10014800655C00F0E2804FEA5454D4EB5555B8BFD3
:100158006D420CDD2C4480EA020281EA030382EA44
:10016800000083EA010180EA020281EA0303362DD6
:1001780088BF30BD11F0004F4FEA01314FF4801CA9
:100188004CEA113102D0404261EB410113F0004FBB
:100198004FEA03334CEA133302D0524263EB430372
:1001A80094EA050F00F0A780A4F10104D5F1200E10
:1001B8000DDB02FA0EFC22FA05F2801841F100016B
:1001C80003FA0EF2801843FA05F359410EE0A5F13F
:1001D80020050EF1200E012A03FA0EFC28BF4CF070
:1001E800020C43FA05F3C01851EBE37101F0004526
:1001F80007D54FF0000EDCF1000C7EEB00006EEB33
:100208000101B1F5801F1BD3B1F5001F0CD34908BC
:100218005FEA30004FEA3C0C04F101044FEA445213
:1002280012F5800F80F09A80BCF1004F08BF5FEA9A
:10023800500C50F1000041EB045141EA050130BD7A
:100248005FEA4C0C404141EB0101013C28BFB1F58C
:10025800801FE9D291F0000F04BF01460020B1FAD7
:1002680081F308BF2033A3F10B03B3F120020CDAAA
:100278000C3208DD02F1140CC2F10C0201FA0CF088
:1002880021FA02F10CE002F11402D8BFC2F1200CED
:1002980001FA02F120FA0CFCDCBF41EA0C019040A3
:1002A800E41AA2BF01EB0451294330BD6FEA0404EC
:1002B8001F3C1CDA0C340EDC04F11404C4F12002D7
:1002C80020FA04F001FA02F340EA030021FA04F3E9
:1002D80045EA030130BDC4F10C04C4F1200220FA40
:1002E80002F001FA04F340EA0300294630BD21FA7E
:1002F80004F0294630BD94F0000F83F4801306BF44
:1003080081F480110134013D4EE77FEA645C18BF37
:100318007FEA655C29D094EA050F08BF90EA020FCE
:1003280005D054EA000C04BF1946104630BD91EAC6
:10033800030F1EBF0021002030BD5FEA545C05D1C9
:100348004000494128BF41F0004130BD14F5800408
:100358003CBF01F5801130BD01F0004545F0FE417C
:1003680041F470014FF0000030BD7FEA645C1ABFB1
:10037800194610467FEA655C1CBF0B46024650EAE8
:10038800013406BF52EA033591EA030F41F4002114
:1003980030BD00BF90F0000F04BF0021704730B59A
:1003A8004FF4806404F132044FF000054FF000016F
:1003B80050E700BF90F0000F04BF0021704730B530
:1003C8004FF4806404F1320410F0004548BF404205
:1003D8004FF000013EE700BF42004FEAE2014FEA5A
:1003E80031014FEA02701FBF12F07F4393F07F4F35
:1003F80081F06051704732F07F4208BF704793F038
:100408007F4F04BF41F40021704730B54FF460744A
:1004180001F0004521F000411CE700BF50EA01024D
:1004280008BF704730B54FF000050AE050EA0102F6
:1004380008BF704730B511F0004502D5404261EB66
:1004480041014FF4806404F132045FEA915C3FF4A7
:10045800D8AE4FF003025FEADC0C18BF03325FEA44
:10046800DC0C18BF033202EBDC02C2F1200300FAF5
:1004780003FC20FA02F001FA03FE40EA0E0021FA1A
:1004880002F11444BDE600BF70B54FF0FF0C4CF408
:10049800E06C1CEA11541DBF1CEA135594EA0C0FBA
:1004A80095EA0C0F00F0DEF82C4481EA030621EAF5
:1004B8004C5123EA4C5350EA013518BF52EA033530
:1004C80041F4801143F4801338D0A0FB02CE4FF0E2
:1004D8000005E1FB02E506F00042E0FB03E54FF012
:1004E8000006E1FB03569CF0000F18BF4EF0010E0A
:1004F800A4F1FF04B6F5007F64F5407404D25FEA06
:100508004E0E6D4146EB060642EAC62141EA5551B8
:100518004FEAC52040EA5E504FEACE2EB4F1FD0CFA
:1005280088BFBCF5E06F1ED8BEF1004F08BF5FEA78
:10053800500E50F1000041EB045170BD06F000462A
:1005480046EA010140EA020081EA0301B4EB5C04D7
:10055800C2BFD4EB0C0541EA045170BD41F48011CF
:100568004FF0000E013C00F3AB8014F1360FDEBFF4
:10057800002001F0004170BDC4F10004203C35DAD0
:100588000C341BDC04F11404C4F1200500FA05F353
:1005980020FA04F001FA05F240EA020001F00042F4
:1005A80021F0004110EBD37021FA04F642EB06016A
:1005B8005EEA430E08BF20EAD37070BDC4F10C0494
:1005C800C4F1200500FA04F320FA05F001FA04F258
:1005D80040EA020001F0004110EBD37041F1000144
:1005E8005EEA430E08BF20EAD37070BDC4F120054F
:1005F80000FA05F24EEA020E20FA04F301FA05F2B7
:1006080043EA020321FA04F001F0004121FA04F25E
:1006180020EA020000EBD3705EEA430E08BF20EA2E
:10062800D37070BD94F0000F0FD101F00046400068
:1006380041EB010111F4801F08BF013CF7D041EAEA
:10064800060195F0000F18BF704703F000465200EE
:1006580043EB030313F4801F08BF013DF7D043EABF
:100668000603704794EA0C0F0CEA135518BF95EA75
:100678000C0F0CD050EA410618BF52EA4306D1D1FC
:1006880081EA030101F000414FF0000070BD50EA1B
:10069800410606BF1046194652EA430619D094EAA5
:1006A8000C0F02D150EA013613D195EA0C0F05D18F
:1006B80052EA03361CBF104619460AD181EA0301E3
:1006C80001F0004141F0FE4141F470014FF000009B
:1006D80070BD41F0FE4141F4780170BD70B54FF036
:1006E800FF0C4CF4E06C1CEA11541DBF1CEA1355B6
:1006F80094EA0C0F95EA0C0F00F0A7F8A4EB050498
:1007080081EA030E52EA03354FEA013100F088808E
:100718004FEA03334FF0805545EA131343EA126357
:100728004FEA022245EA111545EA10654FEA00260C
:100738000EF000419D4208BF964244F1FD0404F5C5
:10074800407402D25B084FEA3202B61A65EB030521
:100758005B084FEA32024FF480104FF4002CB6EBDE
:10076800020E75EB030E22BFB61A754640EA0C005E
:100778005B084FEA3202B6EB020E75EB030E22BF9E
:10078800B61A754640EA5C005B084FEA3202B6EBDF
:10079800020E75EB030E22BFB61A754640EA9C009E
:1007A8005B084FEA3202B6EB020E75EB030E22BF6E
:1007B800B61A754640EADC0055EA060E18D04FEA2C
:1007C800051545EA16754FEA06164FEAC30343EACC
:1007D80052734FEAC2025FEA1C1CC0D111F4801F99
:1007E8000BD141EA00014FF000004FF0004CB6E792
:1007F80011F4801F04BF01430020B4F1FD0C88BF31
:10080800BCF5E06F3FF6AFAEB5EB030C04BFB6EB3B
:10081800020C5FEA500C50F1000041EB045170BD2E
:100828000EF0004E4EEA113114EB5C04C2BFD4EB5B
:100838000C0541EA045170BD41F480114FF0000EDF
:10084800013C90E645EA060E8DE60CEA135594EA5B
:100858000C0F08BF95EA0C0F3FF43BAF94EA0C0F5E
:100868000AD150EA01347FF434AF95EA0C0F7FF4D3
:1008780025AF104619462CE795EA0C0F06D152EA27
:1008880003353FF4FDAE1046194622E750EA41060B
:1008980018BF52EA43067FF4C5AE50EA41047FF41C
:1008A8000DAF52EA43057FF4EBAE12E74FF0FF3C81
:1008B80006E000BF4FF0010C02E000BF4FF0010C52
:1008C8004DF804CD4FEA410C7FEA6C5C4FEA430CCB
:1008D80018BF7FEA6C5C1BD001B050EA410C0CBF1A
:1008E80052EA430C91EA030F02BF90EA020F00207C
:1008F800704710F1000F91EA030F58BF994208BFE3
:1009080090422CBFD8176FEAE37040F0010070479F
:100918004FEA410C7FEA6C5C02D150EA013C07D1F6
:100928004FEA430C7FEA6C5CD6D152EA033CD3D041
:100938005DF8040B704700BF8446104662468C463B
:100948001946634600E000BF01B5FFF7B7FF00286E
:1009580048BF10F1000F01BD4DF808EDFFF7F4FF97
:100968000CBF012000205DF808FB00BF4DF808ED22
:10097800FFF7EAFF34BF012000205DF808FB00BF45
:100988004DF808EDFFF7E0FF94BF012000205DF867
:1009980008FB00BF4DF808EDFFF7CEFF94BF01201C
:1009A80000205DF808FB00BF4DF808EDFFF7C4FF15
:1009B80034BF012000205DF808FB00BF4FEA410268
:1009C80012F5001215D211D56FF47873B3EB625299
:1009D80012D94FEAC12343F0004343EA505311F0C0
:1009E800004F23FA02F018BF404270474FF0000052
:1009F800704750EA013005D111F0004008BF6FF090
:100A0800004070474FF00000704700BF4FEA4102B6
:100A1800B2F1E04324BFB3F5001CDCF1FE5C0DD954
:100A280001F0004C4FEAC0024CEA5070B2F1004F9E
:100A380040EB830008BF20F00100704711F0804FA1
:100A480021D113F13872BCBF01F00040704741F466
:100A580080114FEA5252C2F11802C2F1200C10FA6A
:100A68000CF320FA02F018BF40F001004FEAC1234E
:100A78004FEAD32303FA0CFC40EA0C0023FA02F3F2
:100A88004FEA4303CCE77FEA625307D150EA0133C8
:100A98001EBF4FF0FE4040F44000704701F0004098
:100AA80040F0FE4040F40000704700BF80F0004076
:100AB80002E000BF81F0004142001FBF5FEA41032E
:100AC80092EA030F7FEA226C7FEA236C6AD04FEA2E
:100AD8001262D2EB1363C1BFD21841404840414073
:100AE800B8BF5B42192B88BF704710F0004F40F425
:100AF800000020F07F4018BF404211F0004F41F441
:100B0800000121F07F4118BF494292EA030F3FD00C
:100B1800A2F1010241FA03FC10EB0C00C3F120031F
:100B280001FA03F100F0004302D5494260EB4000AE
:100B3800B0F5000F13D3B0F1807F06D340084FEA19
:100B4800310102F10102FE2A51D2B1F1004F40EB0E
:100B5800C25008BF20F0010040EA03007047490076
:100B680040EB0000013A28BFB0F5000FEDD2B0FA13
:100B780080FCACF1080CB2EB0C0200FA0CF0AABF36
:100B880000EBC25052421843BCBFD04018437047D4
:100B980092F0000F81F4000106BF80F400000132DA
:100BA800013BB5E74FEA41037FEA226C18BF7FEAB1
:100BB800236C21D092EA030F04D092F0000F08BFF3
:100BC8000846704790EA010F1CBF0020704712F0DA
:100BD8007F4F04D1400028BF40F00040704712F119
:100BE80000723CBF00F50000704700F0004343F07E
:100BF800FE4040F4000070477FEA226216BF0846B4
:100C08007FEA23630146420206BF5FEA412390EA76
:100C1800010F40F4800070474FF0000304E000BF6C
:100C280010F0004348BF40425FEA000C08BF70471D
:100C380043F0964301464FF000001CE050EA0102E1
:100C480008BF70474FF000030AE000BF50EA0102F6
:100C580008BF704711F0004302D5404261EB4101E3
:100C68005FEA010C02BF84460146002043F0B64308
:100C780008BFA3F18053A3F50003BCFA8CF2083A2D
:100C8800A3EBC25310DB01FA02FC634400FA02FC36
:100C9800C2F12002BCF1004F20FA02F243EB02003D
:100CA80008BF20F00100704702F1200201FA02FC9F
:100CB800C2F1200250EA4C0021FA02F243EB020092
:100CC80008BF20EADC7070474FF0FF0C1CEAD052D6
:100CD8001EBF1CEAD15392EA0C0F93EA0C0F6FD097
:100CE8001A4480EA010C400218BF5FEA41211ED075
:100CF8004FF0006343EA501043EA5111A0FB013161
:100D08000CF00040B1F5000F3EBF490041EAD37135
:100D18005B0040EA010062F17F02FD2A1DD8B3F1B1
:100D2800004F40EBC25008BF20F00100704790F020
:100D3800000F0CF0004C08BF49024CEA502040EA72
:100D480051207F3AC2BFD2F1FF0340EAC250704738
:100D580040F400004FF00003013A5DDC12F1190F76
:100D6800DCBF00F000407047C2F10002410021FAE8
:100D780002F1C2F1200200FA02FC5FEA310040F100
:100D8800000053EA4C0308BF20EADC70704792F079
:100D9800000F00F0004C02BF400010F4000F013AB1
:100DA800F9D040EA0C0093F0000F01F0004C02BFAC
:100DB800490011F4000F013BF9D041EA0C018FE71B
:100DC8000CEAD15392EA0C0F18BF93EA0C0F0AD021
:100DD80030F0004C18BF31F0004CD8D180EA010047
:100DE80000F00040704790F0000F17BF90F0004FE0
:100DF800084691F0000F91F0004F14D092EA0C0FC2
:100E080001D142020FD193EA0C0F03D14B0218BF54
:100E1800084608D180EA010000F0004040F0FE409A
:100E280040F40000704740F0FE4040F44000704736
:100E38004FF0FF0C1CEAD0521EBF1CEAD15392EAB5
:100E48000C0F93EA0C0F69D0A2EB030280EA010CA5
:100E580049024FEA402037D04FF0805343EA11113E
:100E680043EA10130CF000408B4238BF5B0042F19C
:100E78007D024FF4000C8B4224BF5B1A40EA0C0041
:100E8800B3EB510F24BFA3EB510340EA5C00B3EB73
:100E9800910F24BFA3EB910340EA9C00B3EBD10F61
:100EA80024BFA3EBD10340EADC001B0118BF5FEAB3
:100EB8001C1CE0D1FD2A3FF650AF8B4240EBC250DC
:100EC80008BF20F0010070470CF0004C4CEA50209D
:100ED8007F32C2BFD2F1FF0340EAC250704740F4EC
:100EE80000004FF00003013A37E792F0000F00F0DE
:100EF800004C02BF400010F4000F013AF9D040EA5C
:100F08000C0093F0000F01F0004C02BF490011F4EF
:100F1800000F013BF9D041EA0C0195E70CEAD153E7
:100F280092EA0C0F08D142027FF47DAF93EA0C0FCE
:100F38007FF470AF084676E793EA0C0F04D14B02B2
:100F48003FF44CAF08466EE730F0004C18BF31F064
:100F5800004CCAD130F000427FF45CAF31F000435E
:100F68007FF43CAF5FE700BF4FF0FF3C06E000BFF7
:100F78004FF0010C02E000BF4FF0010C4DF804CD1A
:100F88004FEA40024FEA41037FEA226C18BF7FEA2A
:100F9800236C11D001B052EA530C18BF90EA010F2C
:100FA80058BFB2EB030088BFC81738BF6FEAE170BB
:100FB80018BF40F0010070477FEA226C02D15FEA57
:100FC800402C05D17FEA236CE4D15FEA412CE1D0C3
:100FD8005DF8040B704700BF844608466146FFE78A
:100FE8000FB5FFF7C9FF002848BF10F1000F0FBD6C
:100FF8004DF808EDFFF7F4FF0CBF012000205DF865
:1010080008FB00BF4DF808EDFFF7EAFF34BF0120E9
:1010180000205DF808FB00BF4DF808EDFFF7E0FF82
:1010280094BF012000205DF808FB00BF4DF808EDD3
:10103800FFF7D2FF94BF012000205DF808FB00BF36
:101048004DF808EDFFF7C8FF34BF012000205DF818
:1010580008FB00BF4FEA40024FEA41037FEA226CD7
:1010680002D15FEA402C08D17FEA236C02D15FEA03
:10107800412C02D14FF0000070474FF0010070473B
:101088004FEA4002B2F1FE4F0FD34FF09E03B3EB8D
:1010980012620DD94FEA002343F0004310F0004FCD
:1010A80023FA02F018BF404270474FF00000704723
:1010B80012F1610F01D1420205D110F0004008BFC2
:1010C8006FF0004070474FF00000704742000ED2AA
:1010D800B2F1FE4F0BD34FF09E03B3EB126209D46B
:1010E8004FEA002343F0004323FA02F070474FF021
:1010F8000000704712F1610F01D1420202D14FF096
:10110800FF3070474FF00000704700BF7BB972B9DD
:101118000029BEBF00204FF0004106E008BF0028AC
:101128001CBF6FF000414FF0FF3000F057B8ADF131
:10113800080C6DE904CE002909DB002B1ADB00F04E
:101148007CF8DDF804E0DDE9022304B07047404292
:1011580061EB4101002B1BDB00F06FF8DDF804E0C8
:10116800DDE9022304B0404261EB4101524263EBE6
:1011780043037047524263EB430300F05EF8DDF827
:1011880004E0DDE9022304B0404261EB410170470D
:10119800524263EB430300F050F8DDF804E0DDE968
:1011A800022304B0524263EB4303704753B94AB970
:1011B800002908BF00281CBF4FF0FF314FF0FF3057
:1011C80000F00CB8ADF1080C6DE904CE00F035F86C
:1011D800DDF804E0DDE9022304B07047704700BF82
:1011E80010F8012B11F8013B012A28BF9A42F7D0C9
:1011F800D01A7047034611F8012B03F8012B002A77
:10120800F9D17047034613F8012B002AFBD1181AAD
:1012180001387047430803F05533C01A00F03333E0
:10122800800800F03330184400EB10104FF0013301
:1012380000F00F305843000E70472DE9F0478C46F8
:101248008E46089E154604461946002B40F0D0806D
:10125800724547D9B2FA82F74FB1C7F120030EFAA7
:1012680007FC20FA03F3BD4043EA0C0CBC404FEAEC
:10127800154EA8B2BCFBFEF8230C0EFB18CC08FBDD
:1012880000F943EA0C43994528D9EB1808F1FF32D5
:1012980004D2994502D9A8F102022B44A3EB090311
:1012A800A4B2B3FBFEFC0EFB1C330CFB00F044EABB
:1012B8000344A04214D92C190CF1FF3304D2A042E4
:1012C80002D9ACF102032C44241A43EA02401EB1AD
:1012D800FC40002334607360BDE8F0874246DDE7D8
:1012E8006346F1E7002A79D0B2FA82F3002B3FD0A7
:1012F8001946C1F1200302FA01F52EFA03F20EFA9B
:1013080001FE20FA03F343EA0E034FEA154E00FAF2
:1013180001F4B2FBFEFCAFB20EFB1C201A0C0CFB56
:1013280007F842EA004290455AD9AA180CF1FF3052
:1013380004D2904502D9ACF102002A44A2EB08027B
:101348009BB2B2FBFEFC0EFB1C220CFB07F743EA28
:1013580002439F4246D9EB180CF1FF3204D29F4258
:1013680002D9ACF102022B44DB1B42EA004202E044
:10137800AEEB020301224FEA154EAFB2B3FBFEFCFF
:10138800200C0EFB1C330CFB07F840EA034398457E
:101398002AD9EB180CF1FF3004D2984502D9ACF1E8
:1013A80002002B44A3EB0803A4B2B3FBFEFC0EFB24
:1013B8001C330CFB07F744EA0344A74216D92C193F
:1013C8000CF1FF3304D2A74202D9ACF102032C443A
:1013D800E41B43EA00400F46114678E71F2188E7DF
:1013E8006046ABE76246BFE76046DBE76346EFE788
:1013F800734506D916B9002108466DE7C6E9000EFF
:10140800F9E7B3FA83F787B9734501D3824207D85E
:10141800841A6EEB030301209C461EB900215BE78A
:101428003846FAE7C6E9004CF8E7C7F1200CBB409C
:1014380022FA0CF51D4320FA0CF12EFA0CF30EFAE1
:1014480007FE41EA0E014FEA154900FA07F4B3FB1B
:10145800F9F81FFA85FE09FB18300B0C08FB0EFA89
:1014680043EA00439A4502FA07F240D9EB1808F11B
:10147800FF3004D29A4502D9A8F102002B44A3EB0D
:101488000A0389B2B3FBF9F809FB183308FB0EFE0F
:1014980041EA03418E452CD9691808F1FF3304D27B
:1014A8008E4502D9A8F10203294443EA0040A0FB73
:1014B8000298A1EB0E014145CE46434602D306D120
:1014C8004C4504D2B9EB020E68EB05030138002E37
:1014D800A4D0B4EB0E0261EB030101FA0CFC22FA72
:1014E80007F34CEA0303F940C6E9003196E74046A2
:1014F800C5E74346D9E7000010B588B004466846FA
:1015080017F04EF950B1DDE90001FEF78FFF06A391
:10151800D3E90023FFF7E2F808B010BDD4E9B2011F
:10152800FAE700BFAFF300800000000065CDCD41B1
:1015380010B588B00446684617F032F950B1DDE9B5
:101548000201FEF773FF06A3D3E90023FFF7C6F8ED
:1015580008B010BDD4E9B401FAE700BFAFF30080CA
:101568000000000065CDCD4170B594B00C4617F071
:101578000DF930B92A49204614B0BDE87040FFF78C
:1015880039BE07A817F014F99DF81C30022B96BF36
:10159800244A254D52F823500CA817F001F9BDF83C
:1015A8001E6008B3DDE90E01FEF740FF1AA3D3E978
:1015B8000023FFF793F8CDE90401DDE90C01FEF7FC
:1015C80035FF15A3D3E90023FFF788F8089B174ACE
:1015D800CDE90201CDE900634FF480712B46204626
:1015E80012F04EFF14B070BD099B4BB1CDE90063FA
:1015F8000F4A2B464FF48071204612F041FFF1E765
:101608000C4A00962B464FF48071204612F038FFA2
:10161800E8E700BFAFF300800000000065CDCD41D2
:101628000F680208183F0208776802083C60020841
:101638006E600208926002082DE9F04F00F58054B0
:10164800DDB0C4F8F0281A78012A80468B467BD191
:10165800046ED0F8780203681B689847ADF8A800B4
:10166800D8F8680003685B699847ADF8AA00D8F80D
:10167800600003681B6A9847ADF8AC0023682046F1
:101688009B6B9847FFF7FCFCADF8AE00236820463B
:101698009B6E98472C9023682046DB6E98474FF442
:1016A8007A754FF47A72D8F814302D90B3FBF5F3AD
:1016B800D8E9A2012E930023FFF778FDD8F840302F
:1016C8003093D8F844303193D8F848303293D8F86A
:1016D8004C303393B8F86C302F90ADF8D030236885
:1016E8002046DB6B98474FF08141FFF7EDFAFFF793
:1016F800C7FCD8F87830ADF8D200D3F80825ADF893
:10170800D420D3F80C35ADF8D630D8F81830B3FB60
:10171800F5F33693236820461B6F984708F5C7589A
:1017280037902AAA08F1140838AC134603CBA34211
:10173800C8F80000C8F804101A4608F10808F4D1DF
:101748003C205DB0BDE8F08F032A40F06081D0F8FE
:10175800780203681B68984706AD08F5C753143329
:10176800B4222B600023C5E90123FFF759FAC449C5
:10177800FFF75EFBC349FFF7A7FAFFF781FC0DF1FE
:10178800240903B274222846012117F072FD484645
:10179800D5E90067AC6802F067FA002840F0E380FA
:1017A80099F81430002B00F0C680D9F800200121E8
:1017B800284603F075FCD5E90067AC6899F8153040
:1017C8008BB104F10308B8450DD80123D9F80410EA
:1017D80033553444682363700846FFF76DF9FFF703
:1017E80075FCA070444699F81630A3B104F10408BA
:1017F800474510D3D9F80800A349FFF765FAFFF762
:1018080065FC01233355344473236370C0F3072305
:10181800A370E070444699F8183003B3D9F81080E3
:1018280000214046FFF7EEFB002840F09A809749D8
:101838004046FFF705FC002800F09180934804F12A
:10184800040847450BD3FFF741FC012333553444C3
:1018580065236370C0F30723A370E070444602F069
:101868009FFA68B12AA802F0A1FA824640B90DF1A0
:10187800A8084FF002099DF8E830534500F3888026
:101888009BF8203003F00303032B52D12AA816F04B
:1018980087FF002845D004F10B08B84541D8DDE999
:1018A8002A01FEF7C3FD74A3D3E90023FEF716FF50
:1018B800FFF7ACF87649FFF707FAFFF7E1FB0746B1
:1018C800DDE92C01FEF7B2FD6BA3D3E90023FEF797
:1018D80005FFFFF79BF86E49FFF7F6F9FFF7D0FB16
:1018E80005462E98FFF79CF96549FFF7A1FA654967
:1018F800FFF7EAF9FFF7C4FB012232552644882294
:1019080072703A14B2703A12F2702A1472712A1272
:10191800B2710214327202123771F5717272B072BA
:10192800444616F031FF20B116F030FF08B116F02A
:101938003EFF201D05E799F8173013B1D9F80C20A0
:1019480035E7D8F8780203689B68984701468046CF
:10195800FFF780FB00287FF431AF424627E7404677
:101968006DE700206BE7D8F8780203689B68984712
:1019780001468046FFF76EFB00287FF470AF4246B1
:101988000121284603F08CFBD5E90067AC6866E7BF
:1019980098F80C30B3B33B49D8F80000FFF794F936
:1019A800FFF76EFB742203B249462846C5E9006773
:1019B800AC6017F05EFC3249D8F80400FFF784F9F0
:1019C800FFF75EFB752203B24946284617F051FC23
:1019D800D5E90067AC68231DBB4203930ED8D8F83D
:1019E8000800FFF773FB06F8049034448022039B39
:1019F8006270C0F30722A270E0701C4609F1010969
:101A08005FFA89F90AF1010A08F1100833E7052A93
:101A180040D191F8202002F00302032A40F02481EB
:101A28005A789B781A4340F01F8100F2144504232A
:101A380041F6F006D4F814188A421846BFF681AE6B
:101A4800AD2B3FF67EAE95F8201079B199192F6825
:101A580048F8017008EB0100A9888180991D58FA9F
:101A680081F195F8200088550733DBB20132A035A3
:101A7800E0E700BFAFF300800000000065CDCD4176
:101A880000007A440000C8420000204100FF7F4760
:101A980000401C46062A40F0D3805D78002D40F0B7
:101AA800E3809A7804929A79B3F803705979202AD6
:101AB80028BF202200F513539346283300F53654E7
:101AC800586A30B15CAA681C02EB850545F8C83C29
:101AD80005B22C33A342F3D1032909D8DFE801F07A
:101AE800023B56722AAB002405F1FF3A54451DDB30
:101AF8000BF1050A5FFA8AF309AE002403935E44EA
:101B0800A146049B4B4501DDBD4277DC08F58053B7
:101B180008F5C750A3F8F458A3F8F698224609A97F
:101B2800183020F046FE04F108000AE601341E468B
:101B3800A446654501DC0433D8E771681A68486A29
:101B4800D2F824E0704588BF19600CF1010C88BFF9
:101B580072600436EDE72AAB002405F1FF3A5445DC
:101B6800C6DA01341E46A446654501DC0433F6E7AF
:101B780071681A68486AD2F824E0704538BF19605D
:101B88000CF1010C38BF72600436EDE72AAB002176
:101B980005F1FF3E7145ABDA013118460C46A54206
:101BA80001DC0433F6E742681E6892F928A096F92A
:101BB8002890CA45C8BF1A6004F10104C8BF46602E
:101BC8000430ECE72AAB002105F1FF3E71458FDABE
:101BD800013118460C46A54201DC0433F6E7426899
:101BE8001E6892F928A096F92890CA45B8BF1A60CD
:101BF80004F10104B8BF46600430ECE7039B2344BA
:101C0800822B059382DCD8F874002AAB046853F859
:101C180027A02468A047DAF824405146041B5A46F6
:101C2800A6EB0B0020F0C5FD039B9AF82810346042
:101C380031711E44059B09F1010901371C4660E713
:101C4800072A11D100F5C75400F54E731434074A1A
:101C58000749009300F52973204612F03BFC204603
:101C6800FFF7D0FA04306CE500206AE5115F02083E
:101C7800BD600208000000002DE9F04FC36893F82A
:101C88008C4087B006468A46154603F1040B74B9A2
:101C9800CDE902B4CDE904448DF804108DF805406F
:101CA800294601A816F0DCFD07B0BDE8F08F012C2D
:101CB8002AD100690368D3F8903098478046306984
:101CC8000368D3F894308946984717A3D3E90023CB
:101CD80006460F468DF804A08DF80540CDF808B0EB
:101CE80040464946FEF7D0FBFEF768FE0EA3D3E94F
:101CF8000023039039463046FEF7C6FBFEF75EFE2A
:101D0800002304900593CBE7D3E90A01D3E90C67D4
:101D180001238DF805308DF804A003A3D3E900232F
:101D2800CDF808B0DEE700BF0000000080842E4137
:101D38001BA3D3E90023C0E900231BA3D3E9002395
:101D4800C0E902231AA3D3E90023C0E904231AA394
:101D5800D3E90023C0E9062319A3D3E90023C0E986
:101D6800082319A3D3E90023C0E90A2318A3D3E958
:101D78000023C0E90C2318A3D3E900230021C0E9FC
:101D88000E2300220023C0E93023C0E93223C0F823
:101D9800D0108022403020F01ABD00BFAFF3008081
:101DA80008C9BCF367E6096A3BA7CA8485AE67BB66
:101DB8002BF894FE72F36E3CF1361D5F3AF54FA591
:101DC800D182E6AD7F520E511F6C3E2B8C68059B6D
:101DD8006BBD41FBABD9831F79217E1319CDE05B25
:101DE80010B50021074BC0F890110446C0E96011F6
:101DF800C0E96211C0F894314FF4C07220F0E7FCDA
:101E0800204610BDCDCC4C3E30B5024601780D4879
:101E180053880D4CC1F38301484002F14901C2F1D6
:101E2800FF22082B02F57F0204FB00F028BF0823DD
:101E3800B7325518AB4200DC30BD11F8015F68407D
:101E48006043F6E7C59D1C81930100012DE9F0412F
:101E580004460D460746002642F210783B7B3BB10C
:101E68007B68EB1A434503D93146204614F064F9E0
:101E78000136182E07F11007F0D1D4F88C3133B39E
:101E8800154AEB1A934222D9D4F88431FBB1D4F81D
:101E9800903123B9A5F59C53083BC4F8903103F55C
:101EA8001C41403141F2873641F28830EA1AB24289
:101EB8000BD9D4F8842142B10344A2EBD2028B425D
:101EC800C4F88421C4F89031F0D1BDE8F081002332
:101ED800C4F89031F9E700BFE093040070B5C1F58C
:101EE8001C550346024600F5C07611356FF00040D8
:101EF800147B34B154682C4424EAE474A04228BF0B
:101F080020461032B242F3D1D3F88C2192B1D3F8E3
:101F180084417CB10D4C8D1AA5420CD9D3F890316F
:101F28002BB1C1F59C5108310B4423EAE373984265
:101F380028BF184670BDC1F5922101F2E131114464
:101F480021EAE171884228BF0846F3E7E0930400DC
:101F580010B5D0F88831032B26DDD0F88401FEF7C0
:101F68005BFE4FF06E51FEF7AFFE00210446FFF70F
:101F780053F8E0B94FF081412046FEF79DFD014638
:101F88002046FEF755FF0B49FEF79EFE0A49FEF76D
:101F980093FD4FF07E510446FFF752F810B14FF011
:101FA8007E5010BD2046FCE74FF07C50F9E7024810
:101FB800F7E700BF9A99193FCDCCCC3E004870474F
:101FC800CA7A02080048704780EE360030B5C0E98A
:101FD80018120F4D836601220023C0E90533C0E9BA
:101FE8000733C0E90933C0E90B33C0E90D33C0E951
:101FF8001033C0E91233C0E91433C0E91633056061
:1020080043600372A0F86C30828780F83E3030BDA0
:102018007039020870B5B8B00146044668461FF02A
:10202800A4FD9DF80030013BDBB2FD2B38D8274BCF
:1020380028AA03F1400618685968154603C50833ED
:10204800B3422A46F7D1224B08AA03F120061868A2
:102058005968154603C50833B3422A46F7D108A97B
:1020680020A810F03BF820AA214610A81FF029FD4F
:10207800694620A810F032F820AA28A918A81FF04D
:1020880020FD202218A910A815F0D0FB044658B945
:10209800202110A815F004FC202118A815F000FC38
:1020A8000024204638B070BD10A9002311F8012B78
:1020B8001AB90133202BF9D1144610A8202115F0A4
:1020C800EFFB202118A815F0EBFBEAE7B05902084E
:1020D800F159020838B504461D46059BFFF776FFFF
:1020E800084B2360049B6367069BA367256704F17D
:1020F8007C00FFF775FE04F5057014F047FD2046D7
:1021080038BD00BFB03902082DE9F04F0E7806F04F
:102118000303023B012BF3B005460C4600F2FA829A
:1021280006F03C02242A0B795BD13F2B1CD84E8841
:10213800082E19D991F8527007F00302093E93400E
:10214800F6B21FFA83FC664510D801F15302036802
:10215800029201F10A02CDE9007203965D6ED1F890
:102168004A20D1F84E30A847002037E001215333E8
:1021780001FA02F200F50571E01820F037FB00289B
:10218800F2D12B6821461B6C284698470028EBD0D3
:10219800A86F036821461B6898470028E4D1A86FF8
:1021A800036821465B68984794F90201FEF738FDF9
:1021B8004FF07A51FEF788FD4FF08141FEF784FD1C
:1021C800FEF75EFF23795A1C2344227198722B680C
:1021D80021469B6C2846984740F0C06073B0BDE824
:1021E800F08F2C2A03F03F030AD191F94A20002AE4
:1021F80080F28D82002BB7D103689B6F9847B3E7B5
:102208004BB90C2A40F086820368D1F84A20D3F8EB
:1022180088309847A8E70C2A05D10368D1F84A20E6
:10222800D3F88830984722799209013205F505716B
:1022380004F10A0020F0DAFA002895D12B6821462B
:102248001B6C2846984700288ED02378C3F3830355
:102258000A2B04D12146284615F008F884E7A86F10
:102268000268032B1268214613D1904706460028BE
:102278007FF47AAFA86F036821465B6898472146C8
:10228800284614F0F5FE32462146284614F097FFFA
:102298006AE7904700287FF467AFA86F0368214674
:1022A8005B6898472146284614F0E2FE2B682146D1
:1022B8009B6C2846984740F080708FE72B68214632
:1022C800DB6B2846984700287FF44EAF207814F03F
:1022D800CDFD002800F024822046FFF795FD064634
:1022E800686E03681B68984705F17C07024631460B
:1022F800384613F067FF20B13146284614F016FE21
:102308000EE22B682846DB6C9847002800F008820C
:10231800686E03681B68984731460246384613F0D2
:102328002BFFFDE16388032B7FF61EAFA86FD4F85F
:102338004A60036821461B68984700287FF414AF59
:10234800A86F036821465B6898472B683246D3F824
:1023580088302146284698472B689B6B214628469B
:1023680073B0BDE8F04F18470DF1200A94F84B30D0
:102378008AF80030638894F84A70042B7FF6F4AE2C
:10238800A86F036821461B689847064600287FF413
:10239800EBAEA86F036821465B68984795F814323E
:1023A800BB4268D12B6851469B6D2846984704F17B
:1023B8004C0B814610AF0DF1C4084E452B685ADA14
:1023C800DB6D324639462846984763885A46023BB1
:1023D8004146384615F041FA031E5CDD2278C2F307
:1023E8008302082A4DD198F800900793484615F0C3
:1023F80017F900283FD04FEA991109F03F02079BCF
:1024080001FB0222501C984235DA02329B1ADBB2D9
:10241800424429680392049318F8003003F00F032C
:10242800CDE901930DF1C508CDF80080D1F868B069
:102438003B46324621462846D847D0B1207814F08A
:1024480015FDB0B10023CDE9023301932379009340
:10245800514604F10A033A46284615F02EF801467B
:1024680038B14FF4FA73009342464B46284614F0AD
:10247800C8FFFF2323702B6821469B6B284698478B
:10248800ACE629680097CDE9018328460F6E3346EC
:102498002146B847EDE701368FE76388232B7FF69F
:1024A80063AEA86F94F84A60036821461B68984792
:1024B80000287FF459AEA86F036821465B689847E7
:1024C80095F81432B3427FF447AF04F14B0608AADB
:1024D80004F16B0730687168134603C30836BE42BF
:1024E8001A46F7D108AA10A905F5057014F071FC71
:1024F800638831AF213B3246394610A815F0ADF953
:1025080000287FF729AF2B68CDE9007010AA1E6F4D
:10251800214608AB2846B047FF2323701CE708AFC5
:1025280094F84A303B706388032B7FF61DAEA86F82
:10253800036821461B689847064600287FF414AEB6
:10254800A86F036821465B6898472B680DF140091E
:10255800D3F88080394604234A462846C04704F108
:102568004B0A07460DF141080DF1C40BBE4282DA51
:1025780063884046013B5246594615F06EF90028DB
:1025880008F121080FDD2B682278CDE900B006EBB1
:102598004616D3F88470C2F3830209EB060321467A
:1025A8002846B84767E70136E0E710A814F0DCFAD8
:1025B80010AE04F14A0304F16A07186859683246F4
:1025C80003C20833BB421646F7D16388632B7FF6F4
:1025D800CBAD202210A905F5057020F007F90028D9
:1025E8003FF4C2ADA86FD4F86A80036821461B681F
:1025F800984700287FF4B8ADA86F036821465B6848
:1026080098470DF1400CBCE80F000DF1C40A56467E
:102618000FC667889CE80F00643F202F28BF20273B
:1026280004F1AE0986E80F003A4649463AA8CDF8C3
:10263800E48020F0BEF807F12403524604F16E014D
:1026480010A814F099FA00283FF4C8AD2B68CDE91A
:10265800009710AADE6E214643462846B0470AE78F
:1026680003F00303023B012B3FF67EADA86F03681E
:1026780021461B68984700287FF476ADA86F036849
:1026880021465B6898472B682146DB6F2846B5E5ED
:102698006288022A7FF668AD94F84A3003F00F0387
:1026A800032B7FF461AD042A7FF65EAD31AE304670
:1026B80014F0B1FF23788DF8C4304022237904F157
:1026C8000A010DF1CE0014F0CCFF62888DF8C80025
:1026D800013A92B204F14B010DF58770ADF8C620AE
:1026E80020F067F8A86F036831461B6898470028F0
:1026F8007FF43AADA86F036831465B6898472B684A
:10270800DDF80E21D3F888303146284681E5002BC4
:102718007FF489AD304614F0A9FB00287FF4CEADD4
:102728002378C3F383020F2A3FF61EAD01A151F8A7
:1027380022F000BF712300087123000871230008EC
:102748002D230008B32500082725000827250008A1
:10275800A3240008712300087121000899260008A5
:1027680071210008712100087121000871210008F9
:102778006926000830B5084B0022D3F820511046CE
:102788009C33AA4200DB30BD53F8044F641A002C76
:10279800D8BF01300132F4E7084B0020014BD3F8D1
:1027A80020017047084B0020014BD3F820017047E7
:1027B8002C4C0020044BD3F820219142B4BF53F88D
:1027C80021000020704700BF084B0020044BD3F8BD
:1027D80020219142BABF283153F8210000207047C8
:1027E800084B0020054BD3F820018142BDBF28319A
:1027F800012043F821200020704700BF084B00202B
:1028080070B50B4B0022D3F8206103F19C05FF2023
:102818008033B24200DB70BD55F8044F641A002CB7
:1028280003DC9C5CA04228BF20460132F1E700BFD0
:10283800084B0020F8B5104A0C46D2F8207102F176
:102848009C0600234FF0FF31FF208032BB4205DB9E
:102858004B1C0FD0084814F047FFF8BD56F8045F2A
:102868002D1B002D04DCD55C85423CBF194628464B
:102878000133EBE70020F0E7084B002008B50248D9
:1028880014F032FF08BD00BF084B002038B50B4BD1
:102898001C786CB901220A4D1A7000232946094890
:1028A8001A46013414F042FF202C05F58275F4D144
:1028B8000021044814F018FF38BD00BFE67A002054
:1028C800645A00202C4C002008B521B1002302488E
:1028D8001A4614F02BFF08BD2C4C00202DE9F047B8
:1028E8001B4E054630460F469046994614F01EFF8B
:1028F8000446D8B9D6F8200118B306F17F0C214652
:102908002346A04214DC0E4496F88030434518D97B
:102918000F4814F0E9FE2B6801465B682846984783
:102928000B484B464246394614F000FFBDE8F08795
:102938001CF8012F9A4234BF1A4621461346013427
:10294800DFE72B68394628465B68BDE8F04718473B
:10295800084B002038B50E4D0024281904F5827460
:1029680014F059FEB4F5025FF7D10A4B0024214652
:1029780080221846C3F820411FF029FF064BC3F8F0
:102988002041214618468022BDE838401FF01FBF6D
:10299800645A00202C4C0020084B00202DE9F043FD
:1029A8008DB00D4612F00F019DF8509080461446E8
:1029B8001E4604D04FF0FF300DB0BDE8F083184B31
:1029C8000693142207A81FF002FFB9F1000F0CBFED
:1029D8004FF400734FF48073124F0893102204AB26
:1029E800414606A809971FF0DCFB0028E2D105AB99
:1029F800CDE901430498009623462A463946B9F1A1
:102A0800000F09D010F024F8044604981FF0ADFB1D
:102A1800002CCFD10598CFE710F0B6F8F4E700BF47
:102A280000248000004440042DE9F04194B007469A
:102A38000C4616460021142207A81D461FF0C7FEA3
:102A48004FF48853DFF85C80ADF818304FF480738A
:102A5800ADF81A304FF48063CDE90838202204AB72
:102A6800394606A81FF09DFB28B14FF0FF342046D9
:102A780014B0BDE8F08105AB0293202301930CABA1
:102A8800009322460498334641461FF066FC0446EC
:102A980004981FF06AFB002CE7D1BDF830302B807A
:102AA800E5E700BF0900800330B58DB00D4611463B
:102AB8001A4603AB019320230093044604AB0A484B
:102AC8001FF03BFC2A4630B1002120460DB0BDE87E
:102AD80030401FF07CBE202D28BF202204A92046AC
:102AE8001FF067FE0DB030BD090000022DE9F0436C
:102AF800A7B004460D461646002170220AA8DDE953
:102B08002E891F461FF063FE16490AA81FF0C6FB50
:102B1800E8B93A4631460AA81FF0E1FBB8B94A4677
:102B280041460AA81FF0DBFB88B901AB202202A9A5
:102B38000AA81FF0EBFB50B9202D2A4602A928BF8E
:102B4800202220461FF035FE27B0BDE8F0830AA8F2
:102B58001FF095FB2A460021204627B0BDE8F04328
:102B68001FF035BE0900000208B5054B002814BF48
:102B780001461946034818F09BFA012007F04AF964
:102B8800125A02081E5A0208F0B50B4D8E18034659
:102B9800B14203F1020303D1002300F81230F0BD63
:102BA80011F8014B270904F00F04EF5D2C5D03F8C1
:102BB800027C03F8014CEBE76D7C02080048704783
:102BC8003E5A0208004870473E5A020800487047BB
:102BD8000000C07F004870474C5A020808B50368D7
:102BE8001B689847BDE808400146014816F094B8AC
:102BF8001C3C020808B503491046FEF7FBFA002002
:102C080008BD00BF595A020870B5C3680C4615467E
:102C18009BB393F87430DA1F052A32D81A4A073B57
:102C2800214652F823603046FEF70AFA48BB284688
:102C3800FDF7F6FF4FF06E51FEF746F801464FF0EC
:102C48007E50FDF737FF314605462046FDF732FF37
:102C58000E49FEF7EDF801462846FEF735F8002143
:102C68000446FEF7CFF960B94FF07E512046FEF7D3
:102C7800E7F920B14FF07E5070BD0723CEE720461C
:102C8800FAE70020F8E700BFBC3B0208000020413B
:102C980070B5044614F0D7FED4F88039D4F88429E6
:102CA800054653EA02004DD05B1B62EB0102012B83
:102CB80072F100003EDB6FF00040834272F10002C7
:102CC80000DA1846B4F84E3A9BB394F9513A803377
:102CD80014D0D4F8582AD4F85C6A521B66EB010663
:102CE800012A76F1000327DB6FF000439A4276F160
:102CF800000600DA1346984228BF1846D4F8683A06
:102D0800D4F86C2A53EA02041CD00F4C1B1942F168
:102D180000025B1B62EB0101012B71F100020DDB6C
:102D28006FF00042934271F1000109DA984228BF1E
:102D3800184670BD0020C5E70023DCE70023F5E74F
:102D48001346F3E70020F4E70097490170B50446FD
:102D580000254A482060C4E90213C4E90425002379
:102D68000020002104F518622362C4E90655257184
:102D78006362C4F85858C4F85C58C4F87059C4F869
:102D8800745984F87859C2E9000143F69822C4F8C6
:102D98008C2904F526664FF4004284F88859C4F853
:102DA8009059C4F89459C4F89859C4F89C59C4F86F
:102DB800A059C4F84C5AA4F8502A46E90201C6E9B9
:102DC800000104F5276646E902010126A4F8705AB5
:102DD80084F8726AC4F8745AC4F8785AC4F87C5AE9
:102DE800C4F8805AA4F8845A84F8865AC4F8885AD1
:102DF800C4F88C5AC4F8905AC4F8945AC4F8985A2B
:102E0800A4F89C2AC4F8A05AC4F8A45AA4F8A85A4A
:102E1800C4F8AC5AA4F8C45AC4F8C83AC4F8CC3AAE
:102E2800A4F8D05AC4F8D45AC4F8D85AC4F8DC5A0A
:102E3800C4F8E05A84F8885BA4F88A5BC4F88C5B11
:102E4800C4F8905BC4F8945B04F516601DF0D3FADF
:102E58003246294604F537601CF0C8FE29464FF46F
:102E6800036204F128001FF0B2FCA822294604F6E8
:102E7800A4101FF0ACFC204670BD00BFE03A020869
:102E880008B503468068B3F88A1B8368002908BF21
:102E9800FF215B68984758B1084B98420BD800F55A
:102EA800FA70400041F28833984238BF184608BD8E
:102EB80041F28830FBE76FF47A70F8E70BFEFF7F8A
:102EC800F0B590F8883B89B00446B3B900F6E82518
:102ED800002600270A20CDE90230CDE900430493FB
:102EE800CDE90667064B28460DF02EFE0549284613
:102EF8001CF082FF012384F8883B09B0F0BD00BFB5
:102F0800EB800108875A02082DE9F84305460C466C
:102F180017460021142220461FF059FC95F8C53A9F
:102F2800002B37D0D5F8C80AD5F8CC9A95F8D08AAE
:102F380095F8D16A2A49FDF7C7FEFEF7C7F8206061
:102F48004846FEF7C3F883B21F2B08D035D80F2B9D
:102F580005D030D8072B02D00A2B18BF7D23A380B9
:102F6800B31F022B9ABF043EF6B20126B8F1080F30
:102F78008CBF1023202384F80680E6712381EB6838
:102F88002BBB1623A3720223E3730423E772237473
:102F9800BDE8F883EB683BB1986CD3F8789093F868
:102FA800748093F87560C5E7DFF838900E484FF0E5
:102FB80007080526BEE7142BCFE7FA2BCFD003D896
:102FC800292BCCD03E2BC8E7B3F5FA7FC5E793F998
:102FD8004C30A372162BD4DC0933D4DAF723D1E7AB
:102FE80000247449000078428D67594408B590F868
:102FF800C53A5BB1D0F8C80A0749FDF765FE4FF03E
:103008007C51FDF759FDFEF761F808BDC3680BB1A7
:10301800986CF1E70148EFE7002474498D6759443B
:1030280008B590F8C53A63B1D0F8CC0A0849FDF75D
:103038004BFE4FF07C51FDF73FFDFEF747F880B29D
:1030480008BDC3680BB1986FF0E70248EEE700BF10
:1030580000002041000078422DE9F047024614F0B4
:10306800A6FF92F8C53A0F460646002B00F0958059
:10307800D2F8CC5A4D49104614F0A6FF0C2EB04693
:1030880028BF4FF00C085FFA88F8B8F1060F04461D
:10309800284638BF4FF00608FDF7B4FF00B1444D8D
:1030A800082C28BF0824E4B20120052C00FA08F0F7
:1030B80038BF0524FDF7B4FD3E4981462846FDF793
:1030C80003FE01464846FDF7B3FE082E05468CBFB1
:1030D80010202020FDF7A4FD3749FDF7EDFC294617
:1030E800FDF7F2FD354981462846FDF7A9FF00287E
:1030F80059D04FF07E5A4046FDF792FD06463846B5
:10310800FDF78EFD4FF08241FDF7DEFD4FF0814166
:1031180007463046FDF7D8FD01463846FDF7CAFC9C
:103128002749FDF7C9FC4FF08341FDF7C5FC51461F
:1031380007465046FDF7C0FC01463046FDF7BAFC8D
:103148004FF08141FDF7C0FD4FF07E510646FDF777
:1031580059FF08B14FF0814631463846FDF768FE01
:1031680012F070FF06462046FDF75AFD3146FDF77E
:10317800ABFD00211FF0C4FD4FF08241FDF79CFC20
:103188002946FDF7A1FD4946FDF796FC0949FDF7DB
:103198009BFDFDF79BFFBDE8F087D3680BB19D6FE2
:1031A80068E7084D66E74FF0000AA4E70000E04032
:1031B8000000FA4200007A44000088405A2F863CFA
:1031C8000000E041000078422DE9F04F04468BB042
:1031D80014F081FF94F8713A04F1140A002B00F0FE
:1031E800C5802046002205A9FFF78EFEBDF81830DD
:1031F8009DF81A001F2B00F0A58000F290800F2B7D
:1032080000F0A38000F28480072B00F0A1806149C0
:1032180042F6B1020A2B18BF0A4606288CBF4FF0A7
:10322800080B4FF00C0BBBF1080FBDF81C500CBF7E
:10323800112319239D4240F3A8800121814056485B
:103248000023A1FB0001FDF7B1FF23680646D3F870
:10325800D83020469847A5EB4B0808F1FF3881463F
:1032680006FB08F8052064220023A8FB0001FDF7EF
:103278009DFF09F5FA63A8EB0007BB42D4F8742A4E
:103288006ED20E357543A7EB0907BD420BFB0666E8
:1032980008D96B1CA3EB080303444B445B089E420C
:1032A80038BF1E46964203D1D4F8783ABB4203D0C1
:1032B800C4F8746AC4F8787A16F163004FF0000510
:1032C80045F1000164220023FDF770FFD4F808805F
:1032D800814617F163004FF000030E464FF0640279
:1032E80045F10001FDF762FFD8F808301D6A002D8E
:1032F8003CD02A4B03948DE80B004A46334640469F
:10330800A84798BB0AF0FAF90121C4F8940936E0F5
:10331800204945F26112142B18BF0A467DE7FA2BA3
:1033280019D008D8292B18D01A494FF224423E2B1D
:1033380018BF0A4671E7174A1949B3F5FA7F08BF5B
:103348000A466AE747F6122267E743F6095264E736
:1033580041F6846261E7134A5FE74AF2C3225CE7F9
:10336800013203D04FF0FF33C4F8743AA0680B4918
:10337800836822465B6998470028C3DA00215046D3
:103388000BB0BDE8F04F14F091BBD4F8743A013398
:10339800E7E700BF48E8010040420F00AB7B0108A7
:1033A80020A1070090D0030038B50368D3F8D030C7
:1033B80004460D469847B8B104F68C3014F021FB4A
:1033C800034604F6943014F01CFB1844D4F87C3AF5
:1033D800984202D1D4F8803A3BB9C4F87C0A012D4E
:1033E80038BF0125C4F8805A38BD084AEB1A934201
:1033F800FAD994F8863A072BF6D923682046D3F8E9
:10340800C83098472046FFF7DFFEE8E7BF270900E6
:10341800F8B50368D3F8D43004460F469847002817
:1034280038D094F8A83A33B1D4F8A03AD4F8A42AFA
:10343800FB1A93422ED3D4F8AC3A23B1FB1A4EF6BA
:103448005F22934226D9206920B303689B68984776
:1034580001460546FDF7FEFD0646D8B928461FF089
:1034680072FC174BC4F8A43AB4F99C3AC4F8A07A91
:10347800012213F5004F05B284F8A82A02D1A4F856
:103488009C5A07E0EB1A002BB8BF5B42042B02DC06
:1034980084F8A96AF8BD94F8A93A33B943F6982391
:1034A80084F8A92AC4F8A43AF4E7236884F8A96A36
:1034B8002046D3F8CC3098472046FFF785FEDEE754
:1034C80080EE360038B50446183014F09AFAA0BBDE
:1034D80023682046DB6A984778BB14F0B4FA05469F
:1034E80004F68C3014F08DFA034604F6943014F088
:1034F80088FAD4F87C2A0344934202D1D4F8803A5B
:1035080063B90023C4F8983A29462046FFF74CFFD0
:1035180029462046BDE83840FFF77ABF074AEB1A2C
:103528009342F1D9D4F8983A13B1EB1A9342EBD9F4
:10353800012D2B4638BF0123E4E738BDBFD4010075
:103548002DE9F04F03688BB0D3F8BC3004468846A9
:1035580017469847824638B9654A394640460BB0FF
:10356800BDE8F04F10F08CBFD4F89819002900F08E
:103578008E80D4F89C290A235A43D4F8A0396420B1
:10358800434302EB510203EB5103B2FBF1F2B3FBED
:10359800F1F194F94D0A94F84C6A05910A2500EB6B
:1035A8000A03B2FBF5F105FB1122CDE90312CDE9BF
:1035B8000003504A504BCDF808A0002E08BF134610
:1035C80027EAE7714D4A404610F05AFFC72F0546D3
:1035D80040445EDDD4F8943A0393D4F8903A0293C9
:1035E800D4F88C3A0193D4F8883A0093791BD4F82C
:1035F8009839434A10F044FF054408EB0500791B4D
:1036080094F8503A3F4A10F03BFF23680544D3F83A
:10361800B43020469847014640B9AF4208EB050050
:10362800C8BF791B384A10F02BFF0A35204614F022
:10363800B2FE8346204614F0C5FE94F94D9AD9454A
:10364800B8BFD9468145A8BF814609F1FF36B345C1
:10365800CABF0BF1020309F101035E468342C8BFEA
:10366800861E6FF00702C8BF03469642B8BF1646CB
:103678000C2BA8BF0C23099304EBC6044FF0640B72
:10368800099BB34209DA28460BB0BDE8F08F0A4619
:103698007FE7AF42B3DC0021B2E7B4F8E429B4F81D
:1036A800E8C91AB353080BFB0C33B3FBF2F30693C8
:1036B800B4F8EA39CDE904C3B4F8E639BD42CDE936
:1036C80002230AEB0603CDE90063B8BF791B08EBB8
:1036D8000500A8BF00210D4AB14514BF20232A23A5
:1036E80010F0CEFE013605440834C9E71346DEE77C
:1036F800945A02080F680208BB6902089C5A02081B
:10370800C25A0208D75A0208E05A0208EB5A0208BD
:103718002DE9F047B0F84E3A0446002B00F0C78078
:1037280014F091F90F4604F5276151E90232064673
:1037380053EA020040F08C8041E9026794F9515A3B
:1037480015F1800F23D0D4F8582AD4F85C3A964261
:1037580077EB03031BDB23682046D3F8B030984788
:10376800EB000128234440F08180B3F8EA290132B4
:10377800A3F8EA29802384F8513A204614F053FF2D
:1037880028B994F84C3A13B1204614F0DAFE94F8AC
:103798009339002B00F08B80002384F8933994F937
:1037A800513A803340F0838023682046D3F8B43000
:1037B800984700287BD094F89239002B77D023685B
:1037C8002046DB6A98478246002870D104F52668AF
:1037D800C4F8606A2046C8F8047014F07EFE2368B6
:1037E8000146D3F8AC30074620469847064614F001
:1037F8002AF9022E81460D464FD104EBC7014FF638
:10380800EF73B1F8E4299A4202D9204614F04BFE2E
:10381800B1F8E4390133A1F8E439002E49D0B1F800
:10382800E639022E03F10103A1F8E63941D12368F4
:1038380084F8517AD3F8B4302046984710EB090041
:1038480045F10005643045F1000548E902052EE020
:103858001F48F31A67EB020298424FF000039341A6
:10386800BFF66CAF204614F01EFE65E7022805D1AE
:10387800B3F8E8290132A3F8E8297BE7B3F8E4298B
:1038880012B1013AA3F8E429B3F8E629002A3FF473
:1038980071AF013AA3F8E6296CE7514604F1140028
:1038A80014F004F92046FFF78FFC002EA5DABDE8D6
:1038B800F087204614F0B7FE0028F8D194F84C3A67
:1038C800002BF4D02046BDE8F04714F03ABE00BF04
:1038D8000097490170B50D4616460424314628461E
:1038E80018F0C9F940B1642000211CF04CFB013CE0
:1038F800F4D10248FFF738F970BD00BF0B5B02082E
:103908002DE9F04FDFF85482ADF5257D04460D46CC
:10391800174600214FF4007224A81E461EF057FFD8
:1039280098F8003043B98E4817F0C2FB98F8003079
:1039380013B98C4817F0BCFB402124A818F09BF958
:1039480098F8003081463BB924A814F000FF494696
:103958000246854817F0ACFB102200210AA81EF089
:1039680036FF10210AA808F07DF80DF1CF020146B4
:103978000DF1280C00238B4201DA102B58D198F84E
:103988000030002B40F0E680784817F091FBBFB17B
:10399800B6B1202E314628BF20210DF1DF033A466B
:1039A8007E1812F8010B13F8017FB24280EA070073
:1039B8001870F6D198F8003043B96D4817F078FBC5
:1039C80098F8003013B96B4817F072FB402180A8B3
:1039D80018F051F998F80030064673B980A814F029
:1039E800B6FE31460246644817F062FB98F800308C
:1039F8001BB96248294617F05BFB0023079307AF02
:103A08000FF066F9202300935D4801971CAB4FF433
:103A1800007224A91EF091FC064610B9079F202FBA
:103A28000FD020211CA813F03BFF5648FFF79CF845
:103A380012F801EF1CF8010B80EA0E001070013338
:103A480099E70146142217A81EF0C1FE4E4A0896AF
:103A58004FF41053ADF858300DF120084FF480732F
:103A6800CDE91832ADF85A301CA943463A4616A893
:103A78001EF097FB394606461CA813F011FF002ECE
:103A8800D3D1102231460EA81EF0A1FE37460DF103
:103A9800240ABD42D8F8000017D90023CAF800301C
:103AA8000DF1380B10230DF148093749CDF808A05E
:103AB8000193CDF800905A460EF0CAFF18B9DAF80B
:103AC8000030102B14D04FF0FF36D8F800001EF04D
:103AD8004CFB10210EA813F0E3FE002EA5D1012304
:103AE80025441946AC421CD101B933B327489DE798
:103AF800EA1B102A28BF1022E019494605921EF039
:103B080058FE059A17444A4612F8013D0133DBB2C4
:103B180013700BB95A45F7D11021484613F0C0FE6F
:103B2800B7E714F8012B32B1FF2A14BF002303F0C2
:103B380001030021D6E71346D4E724A84FF4007107
:103B480013F0AEFE10210AA813F0AAFE0DF5257D8C
:103B5800BDE8F08F002F7FF41BAF37E7E77A00202E
:103B68002C5B0208505B0208985B0208C75B0208DE
:103B7800085C02082A5C0208775C0208A65C020856
:103B880009000002DF5C020800444004FE5C0208F1
:103B980030B5002389B004461A4620216846FFF74D
:103BA800AFFE6946204612F0FDFF65252378013BEC
:103BB800DBB2FD2B05D82021684613F071FE09B051
:103BC80030BD013D02D10748FEF7CEFF002368460D
:103BD8001A462021FFF794FE6946204612F0E2FFBC
:103BE800E4E700BF295D0208014B1870704700BF69
:103BF800E87A0020014A10F043BC00BF4F5D02087C
:103C080038B504464068FDF70BF80649FDF710F98A
:103C180005462068FDF704F801462846FCF74CFFE6
:103C280038BD00BF00247449084B1B685BB9084BBA
:103C38001B6843B9074B1B68003B18BF0123064AA2
:103C48000020137070470123F9E700BF5C4D002086
:103C5800584D0020544D0020EC7A0020014B187874
:103C6800704700BFEC7A002073B5484D1C22002134
:103C780004461EF0ACFD286860B314F09EFD48BBF6
:103C880028686A460D2114F09CFD28B96846FFF79C
:103C9800B7FF01232060237528686A46102114F0B5
:103CA80090FD28B96846FFF7ABFF01236060637594
:103CB800374B1B7873B128686A460E2114F081FDD2
:103CC80040B96846FFF79CFF3249FCF7FDFF012326
:103CD800A060A375304E306818B3A37D0BBB2B686A
:103CE800984201D014F069FD30686A460E2114F03C
:103CF80068FD40B96846FFF783FF2649FCF7E4FFF3
:103D08000123A060A375237D5BB930686A460D2145
:103D180014F057FD28B96846FFF772FF01232060A9
:103D280023751E4D2868F8B114F047FDE0B92868DE
:103D38006A46122114F045FD28B96846FFF760FF6E
:103D4800012320612376237D5BB928686A460D210B
:103D580014F037FD40B96846FFF752FF0123206091
:103D68002375002002B070BD237D002BF9D1637D3F
:103D7800002BF6D1A37D002BF3D1237E002BF0D1AD
:103D8800E37D002BEDD16FF03C00EBE75C4D0020AC
:103D9800ED7A002000002041584D0020544D0020AD
:103DA800014B1878704700BFE97A00202DE9F043ED
:103DB800442285B0002104461EF009FD3D4B1B78C6
:103DC800002B70D03C4D286800286CD03B4B1B78EA
:103DD800022B41D13A4F00263B7884F84030B14657
:103DE8003B78B34203DC002005B0BDE8F083013620
:103DF800CDE9026928688368D3F80080B8F1000F1C
:103E080028D002AB14224C21C04718BB286814F0F4
:103E1800D4FCF8B928686A462A2114F0D2FC18B9EB
:103E28006846FFF7EDFE206028686A462C2114F0EA
:103E3800C8FC18B96846FFF7E3FE606028686A4660
:103E48002D2114F0BEFC18B96846FFF7D9FEA06012
:103E5800012323731034C3E7012384F8403014F09E
:103E6800ACFC18BB28686A462A2114F0AAFC18B9C9
:103E78006846FFF7C5FE206028686A462C2114F0C2
:103E8800A0FC18B96846FFF7BBFE606028686A4660
:103E98002D2114F096FC18B96846FFF7B1FEA06012
:103EA800012323739FE76FF012009DE76FF0040072
:103EB8009AE700BFE97A0020504D0020EB7A0020F5
:103EC800EA7A002070B4CE7D46B1CD68541B054D0A
:103ED800AC4203D81BB970BC14F076BD0023184659
:103EE80070BC7047809706002DE9F84F032B0A9D98
:103EF8000646894690461F462FD814F051FD0446C1
:103F0800A0B38668464528D2C168404A691AA8EB1A
:103F180006069620761A4FF00003A1FB000169EB14
:103F28000909FDF7F3F810F12D020B4641F10001E4
:103F3800B24271EB09010ADB6FF02C02121A4FF042
:103F4800FF3161EB0303964279EB030307DA25613E
:103F58000123A382C4E90285A775BDE8F88FA38A67
:103F68004FF6FF729342F5D00133F2E7034618216A
:103F780006F1170001FB03F210F802C0BCF1000FB4
:103F88000ED1B418D9F800302360D9F80430636032
:103F98000123C4E902852561A382A775E375DCE7DF
:103FA8000133202BE6D131464FF0000A4FF0180BB1
:103FB8002A46304614F008FDCB6818B11448EA1AAE
:103FC800824217D98A7DBA4214D9ECB1A07D8242C7
:103FD8001AD803D1888AA28A904215D30BFB0A62A9
:103FE80060695269424032F07F4203D1E2689342ED
:103FF80038BF0C460AF1010ABAF1200F01F1180185
:10400800D6D1002CBED1A8E70C46F3E740420F00FA
:1040180080510100034690F8100338B1D3F80C33EF
:104028000348C91A81428CBF00200120704700BF95
:104038007F3A09002DE9F3478A46164600211822DF
:1040480004461D461EF0C3FBDAF80073BE422CBFBF
:104058000023012323743246009351462B4604F172
:10406800180014F0BEFC237E1BB940F20123238004
:1040780014E0BE422ED2A37E022B02D840F20133B6
:10408800F5E7D4E90832B3F1960642F1FF32B6F506
:10409800167F72F1000305DA01236370204602B02F
:1040A800BDE8F08729465046FFF7B4FF08B105235D
:1040B800F3E79AF8203343B1DAF81C3345F25F414D
:1040C800EB1A8B4201D80623E7E70223C4E9026210
:1040D8002370E3E7637E052BD0D9A27EB3EB420FB2
:1040E80002DB40F20143C2E7D4E90887002F4646C5
:1040F800B94602DA764267EB4709B6F5167F79F1D9
:104108000003C9DB29465046FFF784FF0028CED1BB
:104118009AF8203333B1DAF81C3345F25F42EB1AD0
:104128009342D0D99AF81833ABB1DAF81433164A57
:10413800ED1A4FF496700023A5FB0001FCF7E6FF8B
:1041480010F5167041F10001B04271EB090102DA75
:1041580040F201738BE7022318F5616F23703B4629
:1041680077F1FF374246B8BF084A40F61161B8BF39
:104178004FF0FF338A4273F10001A4BF4FF461622C
:104188000023C4E9022389E740420F00F0F1FFFF52
:104198000138C0B206289ABF024B53F820000248E3
:1041A800704700BF003C0208BB6002082DE9F04FD1
:1041B800B1B005460B9388463A9B9DF8ECA00146A2
:1041C800164616A80B9AFFF735FF9DF858209DF85C
:1041D80068309DF870400993022ADDE91E7940F0A5
:1041E800358195F80423DDE9181022B1002880F202
:1041F800A081B74A04E0B74B8B428241B64A07DB3D
:10420800B64B4FF0FF3C994270EB0C0C00DB0B46B1
:10421800B348B149DDF824C0BCF1000F18BF01460E
:10422800CDE9001222A8AF4A382110F029F9BAF1D5
:10423800000F00F03081AC4BA74A9DF871109DF833
:1042480072009DF873C0002C00F02881A14C4FF03B
:10425800000EBC427EEB090E07DBA04C4FF0FF3E80
:10426800A74279EB0E0EA8BF3C46209F00920DF1A5
:10427800880ECDE90110CDE903C4CDE9057E9B4A3E
:104288003146404610F0FCF8041EC0F24D81B4429D
:1042980080F04A81D5F82C3303B3D5E9CE1C8D4A7A
:1042A800D5F830738A424FF0000070EB0C0007DB42
:1042B8008A4A4FF0FF3091427CEB0000A8BF0A46C3
:1042C800CDE90072311B08EB0400894A10F0D8F8D8
:1042D800241800F12981B44280F02681D5F83433BE
:1042E8005BB1311B08EB0400824A10F0C9F82418AE
:1042F80000F11A81B44280F017813A992846FFF7F5
:1043080089FE98B13A99284614F0F0FC311B7A4A94
:104318004FF46163B0FBF3F308EB040010F0B0F85E
:10432800241800F10181B44280F0FE80D5F82833CA
:104338000093311B08EB0400D5F824336F4A10F0C2
:104348009FF8241800F1F080B44280F0ED8005F564
:1043580040730A934FF0000A2B46DA7D0AB10AF13E
:10436800010A0A9A18339342F7D14FF0000BD94645
:10437800CA4540F3A8808BF001032F460F93FB7DBD
:10438800002B00F09480099B3A9A39462846FFF79B
:1043980099FD0F9B834240F08A8008EB0403089341
:1043A800331B0C933B780D937B783A9A0E93FB68FA
:1043B800B98A97F816C0D31ABA68632928BF632147
:1043C8009B184FF0000242EB020E0B9A9B1A414ACF
:1043D8006EF1000E9A424FF0000272EB0E025FDBA4
:1043E8003E4A93424FF0FF327EEB02025ADBDFF87F
:1043F800E8E0434A002808BF7246CDE903320E9B25
:104408000093CDE901C10D9B3E4A311B08EB040026
:1044180010F036F8002802DB2044B04244D3089A52
:104428000023CA4513704EDDAAEB0903364A18214A
:1044380010A810F025F80C9B8342054643D9421C6E
:1044480010A908981EF0B5F92C443CE0BDF8583086
:10445800B3F5807F15D1B9F1000F3B464A4602DA21
:104468007B4269EB490240F22D118B4272F1000246
:10447800B4BF264B264B274A382122A810F000F853
:10448800D5E69DF85900FFF783FE03460AB9224A8C
:10449800F2E7224AF0E7224B224ACEE62746E5E633
:1044A8000C4BA4E70D4BA2E709F1010904460A9B4E
:1044B80018379F427FF463AF0BF10103022B4FF0D3
:1044C800010B7FF455AF204631B0BDE8F08F00BF37
:1044D800655D020800943577CA7A0208006CCA88BC
:1044E8007E5D0208A45D0208BB690208C85D020877
:1044F800FD5D02081D5E02082B5E0208355E02089B
:10450800A15D0208495E0208655E02088B5D02082B
:104518008E5D0208C3600208B15D0208BB5D020837
:104528000F680208965D0208741E002308F804301C
:10453800C9E7034B00228B428241024A66E600BF6C
:1045480000943577CA7A0208044BBFF35B8F18686A
:10455800BFF35B8F003818BF012070476C4D0020F7
:1045680010B5074BBFF35B8F024653E8001F43E8C3
:104578000024002CF9D1BFF35B8F05F0CBFA10BDF6
:104588006C4D0020054BBFF35B8F53E8002F43E8C9
:1045980000010029F9D1BFF35B8F7047684D0020F7
:1045A800034BBFF35B8F1868BFF35B8FC0B27047D4
:1045B800644D0020054BBFF35B8F53E8002F43E8A1
:1045C80000010029F9D1BFF35B8F7047644D0020CB
:1045D800044BBFF35B8F1868BFF35B8F003818BFBD
:1045E80001207047604D00201FB508B100230370FB
:1045F8000E4817F0ECF86946002005F09FFC0146CC
:1046080030B90098826816F0E8FE009816F0BAFEF5
:10461800064806F0D3FA6946054817F0B5F8B0FA27
:1046280080F0400905B05DF804FB00BFF4000020ED
:10463800B55E020810B50446FEF788FB014B2360FF
:10464800204610BD2C3C020810B5054904464FF41D
:104658000062FEF735FC2046BDE8104013F0ADBD02
:10466800C07F0020014813F070B900BF6800002027
:104678000A22A0FB022301480CF014BA30000020E3
:1046880038B5064D2B681BB1441E14F8011F01B93B
:1046980038BD286814F0C0FBF7E700BFA45200201B
:1046A80010B5044690B0A3685B6CBBB9A3681B6CDB
:1046B800D3B9A3685B6BE3B9A3689B69002BF2D0FD
:1046C8004022694620469847021EECDD69460B48A1
:1046D80016F054FD0A480CF03DF9E4E720469847E7
:1046E8000028E3D110B010BD204698470028E0D13B
:1046F800F8E7204698470028D5D0DDE790520020FB
:104708007000002007B50F4B1868B8B103685B6BE1
:10471800984732284EF6602338BF3220984228BF87
:1047280018460A23A0FB032300210020CDE900013D
:1047380005480CF093FF03B05DF804FB4EF66020CB
:10474800EFE700BF8C520020100500200146014809
:104758001BF0C6BEAC52002030B52E4CC3B00DF1D4
:1047680007052D480122294616F028FD012801D009
:1047780043B030BD2978294A0D291378117045D0E6
:104788000A291CD10D2BEAD02388254A2449002563
:10479800D55402A8FF221EF069F88DF80751214868
:1047A8000022002302A91BF0D0F920B90420FFF74A
:1047B800CDFF2580D3E71C48FFF762FFF9E77F2983
:1047C800238801D0082913D1002BC8D0174D286899
:1047D800013B23800028C2D0082114F01DFB286863
:1047E800202114F019FB2868082114F015FBB6E7FE
:1047F800FE2BB4D80D4B186808B114F00DFB2388B4
:1048080029785A1C2280064AD154A8E70D2BBBD020
:104818000A2BB8E7E47A002090520020EF7A0020B3
:10482800F07B0020CC050020BA5E0208A4520020CC
:1048380010B5029C039B012C73F1000313DB0A489B
:10484800214613F05EFFBFF35B8F084B53E8002F40
:1048580043E800410029F9D1BFF35B8F4020BDE850
:104868001040FFF773BF10BD80520020A8520020EF
:10487800024B1B680BB183F8200370478C52002051
:104888007FB5154E154D164B1648336000247460DD
:10489800B46015F0D2FC2346134A14491448FFF7B4
:1048A800C9FE2846134B40F8043B21464FF4A0624A
:1048B8001DF08DFF104BC5F80445C5F80C45C5F82B
:1048C80008450B4A0093CDE901650C4B06490C4895
:1048D80000F082FC04B070BD80520020704D0020B2
:1048E800E83B0208EE7A0020680000204431020804
:1048F80058370020103D02086000002064000020A6
:10490800000600202DE9F7432F4B1B68002B58D0D9
:104918002E4C2046FEF76AFB0546204613F047FB5F
:1049280006462046FEF77CFB0746204613F04CFB64
:104938008046204613F05FFB8146204613F04EF870
:1049480000B243463A463146CDE90090284605F084
:1049580089F9204613F04DFB0546204613F041FB2C
:104968000646204694F8718A13F02FF80746204629
:1049780013F04DF8BFF35B8FA369BFF35B8F003B68
:1049880018BF0123CDE9000342463B46314628467D
:1049980005F07EF9BFF35B8FD4F88C0BBFF35B8F08
:1049A800BFF35B8FD4F8901BBFF35B8FBFF35B8FB4
:1049B800D4F8942BBFF35B8F03B0BDE8F04305F048
:1049C8007DB903B0BDE8F0838C5200205837002031
:1049D8002DE9F041AF48DCB012F0BDFFAE4C2046E7
:1049E8001AF0BAFF50B12269A168136843F0200396
:1049F80013600B68A94A052120469847A84801F08A
:104A08000FF908B9FFF7F0FDA5481CAD01F0ECF867
:104A180013F0B8FEFFF708F913F0D6FE284614F095
:104A280078F918B129689F4813F06BFE13F0ACFEB3
:104A38009D4C60B19D4813F0A2FE9D4813F0A0FE66
:104A4800D4F8280313F0A9FE012013F0A1FE994E13
:104A580005F0E6F814F058F9FFF700F93460964FBE
:104A680096481BF037FD964A964BC7F8DC2A964ABB
:104A7800C7F8D43A0023C4E91423944AC7F8D83AAB
:104A880004A8C4E91623C7F8E03A12F07FF884486E
:104A980004A901F011F930B904A8FFF779F88048A2
:104AA80004A901F04FF9DFF828828A48602204A996
:104AB8001DF07FFE41467A4801F03CFB94F8200344
:104AC800C7F80C80003818BF0120FFF749FD94F89B
:104AD8002103FFF757FD94F82203FFF76BFD704998
:104AE800A8F5287015F0D2F894F8A4322BB17A49B9
:104AF80008F10400FCF774FB88B90821284606F081
:104B0800B1FF03280BDDEB780293AB7801936B7848
:104B180000932B78714A724820210FF0B1FC94F869
:104B2800B0136548003918BF012112F0B0FF94F89E
:104B3800B1136148003918BF012114F045F994F800
:104B4800B2135D48003918BF012113F0A8FD94F88D
:104B5800C03394F8B613019394F8B933009300392D
:104B680094F8B83394F9B723534818BF012113F0C8
:104B78003EFC514894F8C08312F033FF804597F902
:104B88004D3A03D194F9B7239A4209D04A4884F898
:104B9800B73312F026FF84F8C003434814F023FB10
:104BA80094F8BE034F4C003818BF012004F0F6FEFD
:104BB8004B4805F097F8FFF7A5FE4B4804F0D4FFE3
:104BC800344812F0C2FE002105F080F813F0DCFD35
:104BD80005F096F8454A464800230BF02BFF454858
:104BE80020601AF0B9FE002852D0434B434A1A609D
:104BF8000022C3E901222068DA604FF400711961CC
:104C080083681BB19B6C0BB13D499847206883684A
:104C18009B6A03B198473B483B4FFFF731FDFFF7CD
:104C280071FD4FF0FF334FF0FF32CDE9002340F222
:104C3800FF11002221481BF05AFC044601461F4878
:104C48001BF051FCE30601D513F0B6FD600763D5F0
:104C58003368002B60D02D482946002200230BF032
:104C6800B3FB01463068002956D13B462A463970C5
:104C780000F0D2FBFFF746FE3B782BB12448FFF744
:104C8800FFFC3846FFF7FCFC2248FFF7F9FCDFE79A
:104C98002060C0E7680000202430020801000A00F4
:104CA800EE7A0020805200200006002039480008D3
:104CB800AF8E01088C52002058370020AC520020DB
:104CC800A38E0108A98E0108794600089B8E010869
:104CD800A008002014080020C85E0208D15E02085F
:104CE800A4080020A45200206D460008A0860100F8
:104CF80000000020A430020890520020F07C002020
:104D0800A9460008EB5E0208F07A0020CC050020D6
:104D1800095F0208065F0208306840B1210606D51F
:104D280003680022D3F8D0304FF4FA7198473068FE
:104D380028B140F227131C4201D015F05BF9306806
:104D480008B112F0E4F822070AD5306808B115F066
:104D580051F9134813F0C5FC04F0BEFFFFF7D2FD6C
:104D680063061AD5BFF35B8F0E4B1868BFF35B8FD2
:104D780013F0D1FF346884B11BF0E5F90A2200234F
:104D8800FCF714FA4FF47A720023FCF7BFF90146D6
:104D980004F53850183013F00CFFFFF7B3FC40E768
:104DA80080520020A852002008B54FF07E51D0F85C
:104DB800A002FBF781FE01460548FCF739F84FF0E1
:104DC8007C51FBF779FEFCF781F9C0B208BD00BF42
:104DD8000000C84200487047115F02080048704749
:104DE800115F020800487047215F020800487047B9
:104DF800215F02080048704768630208004870474E
:104E0800686302080048704700A302000048704722
:104E180000A3020010B590F8EE12044621B1044B2D
:104E2800594311F08BFB0146C4F8901210BD00BF26
:104E3800C0D4010010B590F8EF12044621B1044B1C
:104E4800594311F07BFB0146C4F8941210BD00BF12
:104E580080EE36002DE9F3410346D0F878025E6E05
:104E68009F6EB3F86C8003681B680C4698473368DC
:104E780005461B68304698473B6806465B693846D6
:104E880098470749CDE900802A4620464FF47A73AF
:104E9800B6FBF3F30FF01EFB02B0BDE8F08100BFD4
:104EA8002D5F02082DE9FF47046E2368D0E905A5A8
:104EB8001B6A20460F469847236806469B6B204688
:104EC800984723688046DB6B2046984781464046D2
:104ED800FCF7D6F80FFA80F848464FF47A73B5FB1A
:104EE800F3F5BAFBF3F303950293FBF775FA36B2C1
:104EF800CDE9000143460449324638460FF0EAFA44
:104F080004B0BDE8F08700BF6B5F02082DE9F04FE1
:104F1800046E236887B0D0E91089D0E912AB9B6E84
:104F280020460D46984723680646DB6E204698477C
:104F3800236807461B6F20469847CDE9019ACDE9BB
:104F480003B00549CDF800803B46324628460FF0AD
:104F5800C1FA07B0BDE8F08FBF5F020810B5406F17
:104F6800036888B01B68984700230446069006A883
:104F780007930FF0C9F9A8B143690E4A03F26C739D
:104F88000493036901330393C3680293036801938D
:104F9800436800938368084830210FF071FA064887
:104FA80008B010BD054A0448234630210FF068FABE
:104FB800F5E700BF20600208F07E00202F66020897
:104FC8002DE9F04F00F51353B9B080460E4628334B
:104FD80000F536520025596A31B138A8691C00EB32
:104FE800850545F8C83C0DB22C339342F3D106AB86
:104FF8000022994605F1FF3A524514DB3446002752
:105008004FF00A0ABD4202DDA31B852B21DDB44205
:1050180004D120462049FCF7EDF80634002323701C
:1050280039B0BDE8F08F01321C461746BD4201DC9D
:105038000433E1E760681968D0F824C0D1F824E0A7
:10504800F44588BF186007F1010788BF6160043420
:10505800ECE759F827B00FB104F801AB0422594620
:1050680003A8FDF791FDD8F8740003681B689847FA
:10507800DBF824309BF928200092C31A074903AAB9
:1050880020460FF027FA23461C4613F8012B002A66
:10509800FAD10137B6E700BFB6600208AD60020872
:1050A80070B504460D4610460649FBF70DFEFBF7A2
:1050B800E7FF294603B267222046BDE8704014F096
:1050C800D8B800BF000020412DE9F0410546406FE7
:1050D800069C1F4603681B6890469847014605F5DD
:1050E8001250383014F051F948B354B33B7805F5F1
:1050F800805686F8E83953B105F5CD50621E791C03
:10510800083012F0AEFA10B9FF2386F8E839C6F86D
:10511800F088686F03681B68984705F5C75418340A
:105128000949C6F8F40805F54E7305F529722046B5
:105138000FF0D0F92046FCF765F80830C0B2BDE89A
:10514800F0812046FBE700BFC060020870B590F808
:10515800ED420546ACBB0A78104614F0B8F870B3B7
:105168000B7995F81C6303F03F039E4229D902F09E
:105178000306012E03D195F81D639E4221D902F042
:105188003C02102A03D195F81E239A4219D905F535
:105198000053D3F89034B3B195F8D13363B1012BF0
:1051A8000BD00A4A0A48022B08BF0246284614F0C8
:1051B800BDFB80F00100C0B270BD064AF6E70120D1
:1051C800FAE70020F8E71846F6E700BFD804002001
:1051D800DC040020E00400202DE9F04385B00446FB
:1051E80004200D9F0E461546984615F064FD08B13B
:1051F8007D4B03600E9B009742462946CDE901038B
:105208000C9B2046FCF766FF784B236004F5826907
:1052180003F59C7304F58055C4E99D36484614F09F
:105228006BF804F51D73C5F81868C5F8283800260A
:1052380004F5C1530020002104F52878C5F81C782E
:10524800C5F8209885F8E068C5F82488C3E93201D4
:1052580004F5C550664910301AF0A3FDC5F80C6B6B
:1052680004F5CF550C3504F5D8502946103001F017
:10527800CDFB294604F5FE5004F5005501F0C6FBA8
:1052880004F5135778220423C5F8AC242837B42230
:10529800C5F8B064A5F8B464C5F8C064A5F8C464DA
:1052A800C5F8D064A5F8D464C5F8A834C5F8B834EE
:1052B800C5F8BC24C5F8C834C5F8CC2404F536595B
:1052C8003E4630462C3611F04FFC4E45F9D104F5D8
:1052D800385048490022183013F03DFB00260022C0
:1052E800002304F51250C4E9A223C4E99F66C4E967
:1052F800A4661022C5F8E464C5F8846DC5F8806D0D
:10530800314684F89862153085F8E064C5F89064F1
:1053180085F894641DF05BFAC5F8D864C5F8DC64B8
:1053280038462C3714F045F84F45F9D14FF4B87288
:10533800002140461DF04BFA2F4BC4F8A0322F49EC
:105348000F2204F536701DF091FA0F222C4904F54E
:105358003E701DF08BFA2B4BC4F8E83240F207532D
:10536800A4F81433162384F8EC322F2384F8EF3290
:10537800254BC4F80C334FF07C53C4F8F432234B5C
:10538800C4F80833224BC4F8183344F24003A4F895
:105398001C33082384F81E334FF49673C4F828335B
:1053A80040F20113A4F8B03340F60F730125A4F8B6
:1053B800B8334FF6FF73A4F80A34164984F8B65385
:1053C80084F8035484F8085404F52970FBF712FF95
:1053D8000223204684F82C3384F8D13384F8CF5341
:1053E80005B0BDE8F08300BF443A0208243D020836
:1053F80005AC0108C09B9A6A00001041CD660208FE
:10540800CA7A02088D675944CDCC4C3E9A99993E88
:1054180000007A42C85E02082DE9F04300F5005802
:1054280095B098F8E0C406460F4614461D46BCF1F0
:10543800000F04D015B0BDE8F04300F0D9B81AB198
:10544800511E11F8013F23B900232B7015B0BDE898
:10545800F083093BDBB2172B04D85A4A22FA03F32C
:10546800DB07EED42246144612F8013B202BFAD073
:105478002046FBF7C7FE042808D9A3787C2B05D162
:1054880023882B80A378AB70033403354E49082258
:1054980020461DF0ABF9814600284AD10834202166
:1054A80020461DF0B3F9074630B94849284615B0DB
:1054B800BDE8F043FBF79EBE07F8019B2046FBF7CB
:1054C800A1FE02282AD84946102220460FF04CFB9C
:1054D8005FFA80F93846FBF795FE402828BF402040
:1054E80044103A46214603A812F0E2F9F8B1CDF883
:1054F8000090234603AA06F5057106F5826001F0BF
:1055080037FA90B1D8F8E43433B941F288313046EB
:1055180011F014F8C8F8E4042D49C7E738461DF01F
:1055280061F927465FFA80F9D4E72A49BEE72A4994
:10553800BCE7D7B929492046FBF752FE8046A0B9F7
:1055480006F2144406F58056D6F814389845BFF686
:105558007BAF94F8203023B12022214603A8FDF721
:1055680013FB08F10108A034EEE71D490622204686
:105578001DF03CF938B92A462146304615B0BDE839
:10558800F04300F0BDB81749122220461DF02EF94D
:1055980060B9113414F8013F202BFBD00BB112492C
:1055A80084E7304614F047FB10497FE706F5C05002
:1055B8002B4622463946183015B0BDE8F04301F0B5
:1055C8006BBC00BF13008000C6600208CF600208F1
:1055D800E0600208E3600208F86002080961020856
:1055E8002262020811610208246102084C61020863
:1055F8002DE9F047044688461E4615461AB1511E45
:1056080011F8012FB2B904F5805504F5FE514FF495
:10561800966205F5316004F500541DF0CAF80023C0
:1056280084F8E034B5F81A2B33493046BDE8F04722
:105638000EF050BF093AD2B2172A03D82F4BD340E5
:10564800DB07DDD42B46187820281F469A4603F13D
:105658000103F8D0B7EB05090ED101F0EBF958B109
:1056680004F500532A4683F8E09441463346204621
:10567800BDE8F047FFF7D0BE55461AF8010B01F018
:10568800D9F90028F8D12B780BB128705546A846CF
:1056980015F8013B0BB1462BF9D109F1FF33062B65
:1056A8001ED83B78E3B104EB890909F50059D9F80C
:1056B8006C54ADB104F5D8503946103001F0CEF92C
:1056C80004F5FE542A88054670B1038839462046F9
:1056D80015F08FF820B14DB12B790371C9F870041A
:1056E80000233370BDE8F0870346EFE798F80030F1
:1056F800463B18BF0123F0E77161020813008000E0
:105708002DE9F04F002387B0044613700F46154665
:105718000B461E4601333278202AFAD0AB490A22BA
:1057280030461DF091F8002877D1B37A13F0DF0FD7
:1057380073D106F10A031E4601333278202AFAD0C3
:10574800304614F06AFD337833B9A149284607B0CA
:10575800BDE8F04FFBF74EBD04F5D854103404F201
:105768008C494FF000083378202BB24606F1010629
:10577800F9D063BBA0222946204607B0BDE8F04F08
:1057880015F0E7B81FB13B780BB99249DEE7B9F8D5
:10579800002000235946204615F02BF8814640B9D1
:1057A8008D4A5B46A021284607B0BDE8F04F0EF0B1
:1057B80067BE80F80480002FD5D03946204601F016
:1057C8007DF981460028CED1844A3B46EAE7534614
:1057D8001A781E46013322B1202AF9D186F80080B2
:1057E8001E4653461A4613F8017B6FB17C2F01D031
:1057F8002C2FF7D182F800801F4613F8012B202A9E
:10580800FAD0384614F009FDD3461AF8013B202B8C
:10581800FAD0002BB6D1724998E7384620230422E3
:1058280002A912F069F80128074609D104F5D850F1
:10583800A0222946103015F08CF807B0BDE8F08F8B
:1058480040F3AA81039E67493046FBF7C9FC01462D
:10585800C0B904F58053B3F8142BA3F8CA0F04F5A4
:105868001150A3F8C42F34301C221CF0B0FF04F5EB
:10587800005304F511540C340122C3F8704483F822
:10588800E024DAE758493046FBF7AAFCD0B9606F44
:1058980003681B6898472368C4F83003D3F8C030FE
:1058A80020469847D4F87C0200F0F6F9014604F542
:1058B800D850103014F0C9FE4C494D4B002808BF91
:1058C800194643E7022F6FD04A493046FBF788FC58
:1058D80070B904F5D8500499103001F0EFF828B1E8
:1058E800037923F00103037140492FE742492DE76B
:1058F80042493046FBF774FC58B904F5D85004996E
:10590800103001F0DBF80028F0D0037943F00103F0
:10591800E9E73B493046FBF763FC58BB04F5D8542C
:1059280010340499204601F0C9F806460028DDD055
:105938004188204614F0AAFF3379721D03F0010351
:1059480068B1018859B12F4C2F49002B18BF214647
:105958000091431D2D4928460EF0BCFD6DE72949ED
:105968002948002B18BF08460346294928460EF047
:10597800B1FD62E727493046FBF732FC002851D1D8
:1059880004F5D85410340499204601F097F80646D7
:105998000028ABD00146204614F093FF1E49721D23
:1059A80028460EF097FD48E71A493046FBF718FCE1
:1059B800002840F0868004F5D850103014F07EFF9F
:1059C80010B1421D1549EBE7154AFBE79A61020839
:1059D800A5610208C6610208D7610208EC610208E5
:1059E800B56102080362020808620208E060020862
:1059F800886102080D62020814620208296202081E
:105A08004C710208CA7A0208A86E02082F620208BE
:105A18003B620208426202084762020857620208B3
:105A2800B67602085D493046FBF7DAFB002859D103
:105A3800DDF810805A494046FBF7D2FB04F5D857E9
:105A480006461037A0B90146384614F044FF04F55D
:105A580012501022314615301CF0B9FED4F87C02E1
:105A680000F01AF90146384614F0EFFD4D496DE68D
:105A78004146384601F022F8064638B90346024640
:105A88000499384614F0B5FE0646C0B100233371B8
:105A98003146384614F01FFF04F51252153201231F
:105AA8003146384614F044FED4F87C0200F0F4F88D
:105AB8000146384614F0C9FD3B49721D70E73B4961
:105AC80044E636493046FBF78BFB002864D104F5E1
