:10000000E8E9002065AA0000F5CE010051AA000031
:1000100051AA000051AA000051AA000051AA0000F4
:100020000000000000000000000000009DAA000089
:1000300051AA00000000000071AC000051AA0000AD
:10004000F5AC0000F5AC0000F5AC0000F5AC00002C
:10005000F5AC0000F5AC0000F5AC0000F5AC00001C
:10006000F5AC0000F5AC0000F5AC0000F5AC00000C
:10007000F5AC0000F5AC0000F5AC0000F5AC0000FC
:1004800081F0004102E000BF83F0004330B54FEA45
:1004900041044FEA430594EA050F08BF90EA020FB2
:1004A0001FBF54EA000C55EA020C7FEA645C7FEA45
:1004B000655C00F0E2804FEA5454D4EB5555B8BF68
:1004C0006D420CDD2C4480EA020281EA030382EAD9
:1004D000000083EA010180EA020281EA0303362D6B
:1004E00088BF30BD11F0004F4FEA01314FF4801C3E
:1004F0004CEA113102D0404261EB410113F0004F50
:100500004FEA03334CEA133302D0524263EB430306
:1005100094EA050F00F0A780A4F10104D5F1200EA4
:100520000DDB02FA0EFC22FA05F2801841F10001FF
:1005300003FA0EF2801843FA05F359410EE0A5F1D3
:1005400020050EF1200E012A03FA0EFC28BF4CF004
:10055000020C43FA05F3C01851EBE37101F00045BA
:1005600007D54FF0000EDCF1000C7EEB00006EEBC7
:100570000101B1F5801F1BD3B1F5001F0CD3490851
:100580005FEA30004FEA3C0C04F101044FEA4452A8
:1005900012F5800F80F09A80BCF1004F08BF5FEA2F
:1005A000500C50F1000041EB045141EA050130BD0F
:1005B0005FEA4C0C404141EB0101013C28BFB1F521
:1005C000801FE9D291F0000F04BF01460020B1FA6C
:1005D00081F308BF2033A3F10B03B3F120020CDA3F
:1005E0000C3208DD02F1140CC2F10C0201FA0CF01D
:1005F00021FA02F10CE002F11402D8BFC2F1200C82
:1006000001FA02F120FA0CFCDCBF41EA0C01904037
:10061000E41AA2BF01EB0451294330BD6FEA040480
:100620001F3C1CDA0C340EDC04F11404C4F120026B
:1006300020FA04F001FA02F340EA030021FA04F37D
:1006400045EA030130BDC4F10C04C4F1200220FAD4
:1006500002F001FA04F340EA0300294630BD21FA12
:1006600004F0294630BD94F0000F83F4801306BFD8
:1006700081F480110134013D4EE77FEA645C18BFCC
:100680007FEA655C29D094EA050F08BF90EA020F63
:1006900005D054EA000C04BF1946104630BD91EA5B
:1006A000030F1EBF0021002030BD5FEA545C05D15E
:1006B0004000494128BF41F0004130BD14F580049D
:1006C0003CBF01F5801130BD01F0004545F0FE4111
:1006D00041F470014FF0000030BD7FEA645C1ABF46
:1006E000194610467FEA655C1CBF0B46024650EA7D
:1006F000013406BF52EA033591EA030F41F40021A9
:1007000030BD00BF90F0000F04BF0021704730B52E
:100710004FF4806404F132044FF000054FF0000103
:1007200050E700BF90F0000F04BF0021704730B5C4
:100730004FF4806404F1320410F0004548BF404299
:100740004FF000013EE700BF42004FEAE2014FEAEE
:1007500031014FEA02701FBF12F07F4393F07F4FC9
:1007600081F06051704732F07F4208BF704793F0CC
:100770007F4F04BF41F40021704730B54FF46074DF
:1007800001F0004521F000411CE700BF50EA0102E2
:1007900008BF704730B54FF000050AE050EA01028B
:1007A00008BF704730B511F0004502D5404261EBFB
:1007B00041014FF4806404F132045FEA915C3FF43C
:1007C000D8AE4FF003025FEADC0C18BF03325FEAD9
:1007D000DC0C18BF033202EBDC02C2F1200300FA8A
:1007E00003FC20FA02F001FA03FE40EA0E0021FAAF
:1007F00002F11444BDE600BF70B54FF0FF0C4CF49D
:10080000E06C1CEA11541DBF1CEA135594EA0C0F4E
:1008100095EA0C0F00F0DEF82C4481EA030621EA89
:100820004C5123EA4C5350EA013518BF52EA0335C4
:1008300041F4801143F4801338D0A0FB02CE4FF076
:100840000005E1FB02E506F00042E0FB03E54FF0A6
:100850000006E1FB03569CF0000F18BF4EF0010E9E
:10086000A4F1FF04B6F5007F64F5407404D25FEA9A
:100870004E0E6D4146EB060642EAC62141EA55514D
:100880004FEAC52040EA5E504FEACE2EB4F1FD0C8F
:1008900088BFBCF5E06F1ED8BEF1004F08BF5FEA0D
:1008A000500E50F1000041EB045170BD06F00046BF
:1008B00046EA010140EA020081EA0301B4EB5C046C
:1008C000C2BFD4EB0C0541EA045170BD41F4801164
:1008D0004FF0000E013C00F3AB8014F1360FDEBF89
:1008E000002001F0004170BDC4F10004203C35DA65
:1008F0000C341BDC04F11404C4F1200500FA05F3E8
:1009000020FA04F001FA05F240EA020001F0004288
:1009100021F0004110EBD37021FA04F642EB0601FE
:100920005EEA430E08BF20EAD37070BDC4F10C0428
:10093000C4F1200500FA04F320FA05F001FA04F2EC
:1009400040EA020001F0004110EBD37041F10001D8
:100950005EEA430E08BF20EAD37070BDC4F12005E3
:1009600000FA05F24EEA020E20FA04F301FA05F24B
:1009700043EA020321FA04F001F0004121FA04F2F3
:1009800020EA020000EBD3705EEA430E08BF20EAC3
:10099000D37070BD94F0000F0FD101F000464000FD
:1009A00041EB010111F4801F08BF013CF7D041EA7F
:1009B000060195F0000F18BF704703F00046520083
:1009C00043EB030313F4801F08BF013DF7D043EA54
:1009D0000603704794EA0C0F0CEA135518BF95EA0A
:1009E0000C0F0CD050EA410618BF52EA4306D1D191
:1009F00081EA030101F000414FF0000070BD50EAB0
:100A0000410606BF1046194652EA430619D094EA39
:100A10000C0F02D150EA013613D195EA0C0F05D123
:100A200052EA03361CBF104619460AD181EA030177
:100A300001F0004141F0FE4141F470014FF000002F
:100A400070BD41F0FE4141F4780170BD70B54FF0CA
:100A5000FF0C4CF4E06C1CEA11541DBF1CEA13554A
:100A600094EA0C0F95EA0C0F00F0A7F8A4EB05042C
:100A700081EA030E52EA03354FEA013100F0888023
:100A80004FEA03334FF0805545EA131343EA1263EC
:100A90004FEA022245EA111545EA10654FEA0026A1
:100AA0000EF000419D4208BF964244F1FD0404F55A
:100AB000407402D25B084FEA3202B61A65EB0305B6
:100AC0005B084FEA32024FF480104FF4002CB6EB73
:100AD000020E75EB030E22BFB61A754640EA0C00F3
:100AE0005B084FEA3202B6EB020E75EB030E22BF33
:100AF000B61A754640EA5C005B084FEA3202B6EB74
:100B0000020E75EB030E22BFB61A754640EA9C0032
:100B10005B084FEA3202B6EB020E75EB030E22BF02
:100B2000B61A754640EADC0055EA060E18D04FEAC0
:100B3000051545EA16754FEA06164FEAC30343EA60
:100B400052734FEAC2025FEA1C1CC0D111F4801F2D
:100B50000BD141EA00014FF000004FF0004CB6E726
:100B600011F4801F04BF01430020B4F1FD0C88BFC5
:100B7000BCF5E06F3FF6AFAEB5EB030C04BFB6EBD0
:100B8000020C5FEA500C50F1000041EB045170BDC3
:100B90000EF0004E4EEA113114EB5C04C2BFD4EBF0
:100BA0000C0541EA045170BD41F480114FF0000E74
:100BB000013C90E645EA060E8DE60CEA135594EAF0
:100BC0000C0F08BF95EA0C0F3FF43BAF94EA0C0FF3
:100BD0000AD150EA01347FF434AF95EA0C0F7FF468
:100BE00025AF104619462CE795EA0C0F06D152EABC
:100BF00003353FF4FDAE1046194622E750EA4106A0
:100C000018BF52EA43067FF4C5AE50EA41047FF4B0
:100C10000DAF52EA43057FF4EBAE12E74FF0FF3C15
:100C200006E000BF4FF0010C02E000BF4FF0010CE6
:100C30004DF804CD4FEA410C7FEA6C5C4FEA430C5F
:100C400018BF7FEA6C5C1BD001B050EA410C0CBFAE
:100C500052EA430C91EA030F02BF90EA020F002010
:100C6000704710F1000F91EA030F58BF994208BF77
:100C700090422CBFD8176FEAE37040F00100704734
:100C80004FEA410C7FEA6C5C02D150EA013C07D18B
:100C90004FEA430C7FEA6C5CD6D152EA033CD3D0D6
:100CA0005DF8040B704700BF8446104662468C46D0
:100CB0001946634600E000BF01B5FFF7B7FF002803
:100CC00048BF10F1000F01BD4DF808EDFFF7F4FF2C
:100CD0000CBF012000205DF808FB00BF4DF808EDB7
:100CE000FFF7EAFF34BF012000205DF808FB00BFDA
:100CF0004DF808EDFFF7E0FF94BF012000205DF8FC
:100D000008FB00BF4DF808EDFFF7CEFF94BF0120B0
:100D100000205DF808FB00BF4DF808EDFFF7C4FFA9
:100D200034BF012000205DF808FB00BF4FEA4102FC
:100D300012F5001215D211D56FF47873B3EB62522D
:100D400012D94FEAC12343F0004343EA505311F054
:100D5000004F23FA02F018BF404270474FF00000E6
:100D6000704750EA013005D111F0004008BF6FF024
:100D7000004070474FF00000704700BF4FEA41024B
:100D8000B2F1E04324BFB3F5001CDCF1FE5C0DD9E9
:100D900001F0004C4FEAC0024CEA5070B2F1004F33
:100DA00040EB830008BF20F00100704711F0804F36
:100DB00021D113F13872BCBF01F00040704741F4FB
:100DC00080114FEA5252C2F11802C2F1200C10FAFF
:100DD0000CF320FA02F018BF40F001004FEAC123E3
:100DE0004FEAD32303FA0CFC40EA0C0023FA02F387
:100DF0004FEA4303CCE77FEA625307D150EA01335D
:100E00001EBF4FF0FE4040F44000704701F000402C
:100E100040F0FE4040F40000704700BF80F000400A
:100E200002E000BF81F0004142001FBF5FEA4103C2
:100E300092EA030F7FEA226C7FEA236C6AD04FEAC2
:100E40001262D2EB1363C1BFD21841404840414007
:100E5000B8BF5B42192B88BF704710F0004F40F4B9
:100E6000000020F07F4018BF404211F0004F41F4D5
:100E7000000121F07F4118BF494292EA030F3FD0A1
:100E8000A2F1010241FA03FC10EB0C00C3F12003B4
:100E900001FA03F100F0004302D5494260EB400043
:100EA000B0F5000F13D3B0F1807F06D340084FEAAE
:100EB000310102F10102FE2A51D2B1F1004F40EBA3
:100EC000C25008BF20F0010040EA0300704749000B
:100ED00040EB0000013A28BFB0F5000FEDD2B0FAA8
:100EE00080FCACF1080CB2EB0C0200FA0CF0AABFCB
:100EF00000EBC25052421843BCBFD0401843704769
:100F000092F0000F81F4000106BF80F4000001326E
:100F1000013BB5E74FEA41037FEA226C18BF7FEA45
:100F2000236C21D092EA030F04D092F0000F08BF87
:100F30000846704790EA010F1CBF0020704712F06E
:100F40007F4F04D1400028BF40F00040704712F1AD
:100F500000723CBF00F50000704700F0004343F012
:100F6000FE4040F4000070477FEA226216BF084648
:100F70007FEA23630146420206BF5FEA412390EA0B
:100F8000010F40F4800070474FF0000304E000BF01
:100F900010F0004348BF40425FEA000C08BF7047B2
:100FA00043F0964301464FF000001CE050EA010276
:100FB00008BF70474FF000030AE000BF50EA01028B
:100FC00008BF704711F0004302D5404261EB410178
:100FD0005FEA010C02BF84460146002043F0B6439D
:100FE00008BFA3F18053A3F50003BCFA8CF2083AC2
:100FF000A3EBC25310DB01FA02FC634400FA02FCCB
:10100000C2F12002BCF1004F20FA02F243EB0200D1
:1010100008BF20F00100704702F1200201FA02FC33
:10102000C2F1200250EA4C0021FA02F243EB020026
:1010300008BF20EADC7070474FF0FF0C1CEAD0526A
:101040001EBF1CEAD15392EA0C0F93EA0C0F6FD02B
:101050001A4480EA010C400218BF5FEA41211ED009
:101060004FF0006343EA501043EA5111A0FB0131F5
:101070000CF00040B1F5000F3EBF490041EAD371CA
:101080005B0040EA010062F17F02FD2A1DD8B3F146
:10109000004F40EBC25008BF20F00100704790F0B5
:1010A000000F0CF0004C08BF49024CEA502040EA07
:1010B00051207F3AC2BFD2F1FF0340EAC2507047CD
:1010C00040F400004FF00003013A5DDC12F1190F0B
:1010D000DCBF00F000407047C2F10002410021FA7D
:1010E00002F1C2F1200200FA02FC5FEA310040F195
:1010F000000053EA4C0308BF20EADC70704792F00E
:10110000000F00F0004C02BF400010F4000F013A45
:10111000F9D040EA0C0093F0000F01F0004C02BF40
:10112000490011F4000F013BF9D041EA0C018FE7AF
:101130000CEAD15392EA0C0F18BF93EA0C0F0AD0B5
:1011400030F0004C18BF31F0004CD8D180EA0100DB
:1011500000F00040704790F0000F17BF90F0004F74
:10116000084691F0000F91F0004F14D092EA0C0F56
:1011700001D142020FD193EA0C0F03D14B0218BFE9
:10118000084608D180EA010000F0004040F0FE402F
:1011900040F40000704740F0FE4040F440007047CB
:1011A0004FF0FF0C1CEAD0521EBF1CEAD15392EA4A
:1011B0000C0F93EA0C0F69D0A2EB030280EA010C3A
:1011C00049024FEA402037D04FF0805343EA1111D3
:1011D00043EA10130CF000408B4238BF5B0042F131
:1011E0007D024FF4000C8B4224BF5B1A40EA0C00D6
:1011F000B3EB510F24BFA3EB510340EA5C00B3EB08
:10120000910F24BFA3EB910340EA9C00B3EBD10FF5
:1012100024BFA3EBD10340EADC001B0118BF5FEA47
:101220001C1CE0D1FD2A3FF650AF8B4240EBC25070
:1012300008BF20F0010070470CF0004C4CEA502031
:101240007F32C2BFD2F1FF0340EAC250704740F480
:1012500000004FF00003013A37E792F0000F00F072
:10126000004C02BF400010F4000F013AF9D040EAF0
:101270000C0093F0000F01F0004C02BF490011F484
:10128000000F013BF9D041EA0C0195E70CEAD1537C
:1012900092EA0C0F08D142027FF47DAF93EA0C0F63
:1012A0007FF470AF084676E793EA0C0F04D14B0247
:1012B0003FF44CAF08466EE730F0004C18BF31F0F9
:1012C000004CCAD130F000427FF45CAF31F00043F3
:1012D0007FF43CAF5FE700BF4FF0FF3C06E000BF8C
:1012E0004FF0010C02E000BF4FF0010C4DF804CDAF
:1012F0004FEA40024FEA41037FEA226C18BF7FEABF
:10130000236C11D001B052EA530C18BF90EA010FC0
:1013100058BFB2EB030088BFC81738BF6FEAE1704F
:1013200018BF40F0010070477FEA226C02D15FEAEB
:10133000402C05D17FEA236CE4D15FEA412CE1D057
:101340005DF8040B704700BF844608466146FFE71E
:101350000FB5FFF7C9FF002848BF10F1000F0FBD00
:101360004DF808EDFFF7F4FF0CBF012000205DF8F9
:1013700008FB00BF4DF808EDFFF7EAFF34BF01207E
:1013800000205DF808FB00BF4DF808EDFFF7E0FF17
:1013900094BF012000205DF808FB00BF4DF808ED68
:1013A000FFF7D2FF94BF012000205DF808FB00BFCB
:1013B0004DF808EDFFF7C8FF34BF012000205DF8AD
:1013C00008FB00BF4FEA40024FEA41037FEA226C6C
:1013D00002D15FEA402C08D17FEA236C02D15FEA98
:1013E000412C02D14FF0000070474FF001007047D0
:1013F0004FEA4002B2F1FE4F0FD34FF09E03B3EB22
:1014000012620DD94FEA002343F0004310F0004F61
:1014100023FA02F018BF404270474FF000007047B7
:1014200012F1610F01D1420205D110F0004008BF56
:101430006FF0004070474FF00000704742000ED23E
:10144000B2F1FE4F0BD34FF09E03B3EB126209D4FF
:101450004FEA002343F0004323FA02F070474FF0B5
:101460000000704712F1610F01D1420202D14FF02A
:10147000FF3070474FF00000704700BF7BB972B972
:101480000029BEBF00204FF0004106E008BF002841
:101490001CBF6FF000414FF0FF3000F057B8ADF1C6
:1014A000080C6DE904CE002909DB002B1ADB00F0E3
:1014B0007CF8DDF804E0DDE9022304B07047404227
:1014C00061EB4101002B1BDB00F06FF8DDF804E05D
:1014D000DDE9022304B0404261EB4101524263EB7B
:1014E00043037047524263EB430300F05EF8DDF8BC
:1014F00004E0DDE9022304B0404261EB41017047A2
:10150000524263EB430300F050F8DDF804E0DDE9FC
:10151000022304B0524263EB4303704753B94AB904
:10152000002908BF00281CBF4FF0FF314FF0FF30EB
:1015300000F00CB8ADF1080C6DE904CE00F035F800
:10154000DDF804E0DDE9022304B07047704700BF16
:1015500010F8012B11F8013B012A28BF9A42F7D05D
:10156000D01A7047034611F8012B03F8012B002A0B
:10157000F9D17047034613F8012B002AFBD1181A42
:1015800001387047430803F05533C01A00F0333375
:10159000800800F0333018444FF0013300EB101096
:1015A00000F00F305843000E70472DE9F0478C468D
:1015B0008E46089E154604461946002B40F0D08002
:1015C000724547D9B2FA82F74FB1C7F120030EFA3C
:1015D00007FCBD40BC4020FA03F343EA0C0C4FEA81
:1015E000154EA8B2230CBCFBFEF80EFB18CC08FB72
:1015F00000F943EA0C43994528D9EB1808F1FF326A
:1016000004D2994502D9A8F102022B44A3EB0903A5
:10161000A4B2B3FBFEFC0EFB1C330CFB00F044EA4F
:101620000344A04214D92C190CF1FF3304D2A04278
:1016300002D9ACF102032C44241A43EA02401EB141
:10164000FC40002334607360BDE8F0874246DDE76C
:101650006346F1E7002A79D0B2FA82F3002B3FD03B
:101660001946C1F1200302FA01F500FA01F42EFA3D
:1016700003F20EFA01FE20FA03F3AFB243EA0E03BF
:101680004FEA154EB2FBFEFC0EFB1C201A0C0CFBA5
:1016900007F842EA004290455AD9AA180CF1FF30E7
:1016A00004D2904502D9ACF102002A44A2EB080210
:1016B0009BB2B2FBFEFC0EFB1C220CFB07F743EABD
:1016C00002439F4246D9EB180CF1FF3204D29F42ED
:1016D00002D9ACF102022B44DB1B42EA004202E0D9
:1016E000AEEB020301224FEA154EAFB2200CB3FB62
:1016F000FEFC0EFB1C330CFB07F840EA0343984545
:101700002AD9EB180CF1FF3004D2984502D9ACF17C
:1017100002002B44A3EB0803A4B2B3FBFEFC0EFBB8
:101720001C330CFB07F744EA0344A74216D92C19D3
:101730000CF1FF3304D2A74202D9ACF102032C44CE
:10174000E41B43EA00400F46114678E71F2188E773
:101750006046ABE76246BFE76046DBE76346EFE71C
:10176000734506D916B9002108466DE7C6E9000E93
:10177000F9E7B3FA83F787B9734501D3824207D8F3
:10178000841A6EEB030301209C461EB900215BE71F
:101790003846FAE7C6E9004CF8E7C7F1200CBB4031
:1017A00000FA07F422FA0CF520FA0CF1BA401D43B6
:1017B0002EFA0CF30EFA07FE4FEA154941EA0E0124
:1017C0001FFA85FEB3FBF9F809FB18300B0C08FB78
:1017D0000EFA43EA00439A4540D9EB1808F1FF306E
:1017E00004D29A4502D9A8F102002B44A3EB0A03C4
:1017F00089B2B3FBF9F809FB183308FB0EFE41EA86
:1018000003418E452CD9691808F1FF3304D28E4567
:1018100002D9A8F10203294443EA0040A1EB0E01DA
:10182000A0FB02984145CE46434602D306D14C4523
:1018300004D20138B9EB020E68EB0503002EA5D0E7
:10184000B4EB0E0261EB030101FA0CFC22FA07F380
:10185000F9404CEA0303C6E9003197E74046C5E783
:101860004346D9E70000000010B588B0044668463A
:1018700018F002FC50B1DDE90001FEF78FFF06A36E
:10188000D3E90023FFF7E2F808B010BDD4E9B201B4
:10189000FAE700BFAFF300800000000065CDCD4146
:1018A00010B588B00446684618F0E6FB50B1DDE993
:1018B0000201FEF773FF06A3D3E90023FFF7C6F882
:1018C00008B010BDD4E9B401FAE700BFAFF300805F
:1018D0000000000065CDCD4170B594B00C4618F005
:1018E000C1FB30B920462A4914B0BDE87040FFF76B
:1018F00039BE07A818F0C8FB9DF81C300CA8022BB5
:1019000096BF244A244D52F8235018F0B5FBBDF879
:101910001E6008B3DDE90E01FEF740FF1AA3D3E90C
:101920000023FFF793F8CDE90401DDE90C01FEF790
:1019300035FF15A3D3E90023FFF788F8089BCDE90D
:101940000201CDE900634FF480712B462046134A13
:1019500014F0FEF914B070BD099B4BB1CDE90063E2
:101960004FF480712B4620460D4A14F0F1F9F1E74F
:101970002B464FF4807120460A4A009614F0E8F98D
:10198000E8E700BFAFF300800000000065CDCD4167
:10199000B5800200786002001D810200E27802003A
:1019A00014790200387902002DE9F04F00F58054D7
:1019B000DDB0C4F8F0281A788046012A8B467BD126
:1019C000046ED0F878024FF47A7503681B68984764
:1019D000ADF8A800D8F8680003685B699847ADF8CF
:1019E000AA00D8F8600003681B6A9847ADF8AC00FD
:1019F000236820469B6B9847FFF7FAFCADF8AE00D2
:101A0000236820469B6E98472C9023682046DB6E07
:101A10009847D8F814304FF47A72B3FBF5F32D9051
:101A20002E93D8E9A2010023FFF778FDD8F84030C3
:101A30002F903093D8F8443020463193D8F848306E
:101A40003293D8F84C303393B8F86C30ADF8D030CE
:101A50002368DB6B98474FF08141FFF7EDFAFFF702
:101A6000C7FCD8F87830ADF8D200D3F80825204666
:101A7000ADF8D420D3F80C35ADF8D630D8F81830FE
:101A800008F5C758B3FBF5F33693236808F114083B
:101A90001B6F984738AC37902AAA134603CBA34252
:101AA000C8F80000C8F804101A4608F10808F4D174
:101AB0003C205DB0BDE8F08F032A40F06081D0F893
:101AC000780206AD03680DF124091B68984708F5F4
:101AD000C7531433B4222B600023C5E90123FFF759
:101AE00057FAC349FFF75CFBC249FFF7A5FAFFF7B6
:101AF0007FFC742203B20121284619F046F8D5E98B
:101B000000674846AC6802F085FA002840F0E380A0
:101B100099F81430002B00F0C680D9F8002001217C
:101B2000284603F0AFFCD5E90067AC6899F815309A
:101B30008BB104F10308B8450DD80123D9F804107E
:101B400033556823344463700846FFF76DF9FFF797
:101B500075FCA070444699F81630A3B104F104084E
:101B6000474510D3D9F80800A349FFF765FAFFF7F6
:101B700065FC01233355732334446370C0F307239A
:101B8000A370E070444699F8183003B3D9F8108078
:101B900000214046FFF7EEFB002840F09A804046C7
:101BA0009649FFF705FC002800F09180934804F166
:101BB000040847450BD3FFF741FC01233355652348
:101BC00034446370C0F30723A370E070444602F00E
:101BD000D3FA68B12AA802F0D5FA824640B94FF08C
:101BE00002090DF1A8089DF8E830534500F38880FC
:101BF0009BF8203003F00303032B52D12AA818F0DE
:101C00003BFA002845D004F10B08B84541D8DDE97E
:101C10002A01FEF7C3FD74A3D3E90023FEF716FFE4
:101C2000FFF7ACF87649FFF707FAFFF7E1FB074645
:101C3000DDE92C01FEF7B2FD6BA3D3E90023FEF72B
:101C400005FFFFF79BF86E49FFF7F6F9FFF7D0FBAA
:101C500005462E98FFF79CF96549FFF7A1FA6549FB
:101C6000FFF7EAF9FFF7C4FB012232558822264428
:101C7000444672703A14B2703A12F2702A147271B9
:101C80002A12B2710214327202123771F571727235
:101C9000B07218F0E5F920B118F0E4F908B118F0C5
:101CA000F2F9201D05E799F8173013B1D9F80C2087
:101CB00035E7D8F8780203689B6898470146804664
:101CC000FFF780FB00287FF431AF424627E740460C
:101CD0006DE700206BE7D8F8780203689B689847A7
:101CE00001468046FFF76EFB00287FF470AF424646
:101CF0000121284603F0C6FBD5E90067AC6866E71A
:101D000098F80C30B3B33B49D8F80000FFF794F9CA
:101D1000FFF76EFB742203B249462846C5E9006707
:101D2000AC6018F032FF3249D8F80400FFF784F9AC
:101D3000FFF75EFB752203B24946284618F025FFDF
:101D4000D5E90067AC68231DBB4203930ED8D8F8D1
:101D50000800FFF773FB802206F80490039B3444CD
:101D60006270C0F30722A270E0701C4609F10109FD
:101D70005FFA89F90AF1010A08F1100833E7052A28
:101D800040D191F8202002F00302032A40F026817E
:101D90005A789B781A4340F02181042341F6F006DB
:101DA00000F21445D4F8141818468A42BFF681AEE2
:101DB000AD2B3FF67EAE95F8201079B12F689919BA
:101DC00048F8017008EB0100A988818095F820008F
:101DD000991D58FA81F10733DBB288550132A035DD
:101DE000E0E700BFAFF300800000000065CDCD410B
:101DF00000007A440000C8420000204100FF7F47F5
:101E000000401C46062A40F0D5805D78002D40F049
:101E1000E5809A78B3F8037004929A795979202A68
:101E200028BF2022934600F51353283300F536547B
:101E3000586A30B15CAA681C02EB850545F8C83CBD
:101E400005B22C33A342F3D1032909D8DFE801F00E
:101E5000023C587400242AAB05F1FF3A54451DDBBF
:101E60000024A1460BF1050A5FFA8AF309AE039339
:101E70005E44049B4B4501DDBD4279DC08F580538F
:101E800008F5C7502246A3F8F458A3F8F69809A914
:101E9000183022F005FA04F108000AE601341E4663
:101EA000A446654501DC0433D8E771681A68486ABE
:101EB000D2F824E00CF1010C704588BF196006F1DE
:101EC000040688BF3260ECE700242AAB05F1FF3A34
:101ED0005445C5DA01341E46A446654501DC043389
:101EE000F6E771681A68486AD2F824E00CF1010C30
:101EF000704538BF196006F1040638BF3260ECE760
:101F000000212AAB05F1FF3E7145A9DA01311846DF
:101F10000C46A54201DC0433F6E742681E6892F9DC
:101F200028A096F928900134CA45C8BF1A6000F16C
:101F30000400C8BF0660ECE700212AAB05F1FF3EB4
:101F400071458DDA013118460C46A54201DC043397
:101F5000F6E742681E6892F928A096F928900134A5
:101F6000CA45B8BF1A6000F10400B8BF0660ECE7CC
:101F7000039B2344822B059380DCD8F874002AABA2
:101F8000046853F827A02468A047DAF82440514693
:101F9000041B5A46A6EB0B0022F082F9039B9AF829
:101FA0002810346031711E44059B09F101091C465B
:101FB00001375EE7072A11D100F5C75400F54E73CB
:101FC0001434074A0749009300F52973204613F09B
:101FD000E9FE2046FFF7CEFA04306AE5002068E506
:101FE000B7770200637902002DE9F04FC368064617
:101FF00093F88C408A46154687B003F1040B74B9F8
:10200000CDE902B4CDE904448DF804108DF8054003
:10201000294601A818F090F807B0BDE8F08F012C10
:102020002AD100690368D3F8903098478046306918
:1020300089460368D3F89430984717A3D3E900235F
:1020400006460F46404649468DF804A08DF80540E7
:10205000CDF808B0FEF7D0FBFEF768FE0EA3D3E97B
:102060000023039039463046FEF7C6FBFEF75EFEBE
:10207000002304900593CBE7D3E90A01D3E90C6769
:1020800001238DF804A08DF80530CDF808B002A327
:10209000D3E90023DEE700BF0000000080842E416A
:1020A0001BA3D3E900230021C0E900231AA3D3E92D
:1020B0000023C0E902231AA3D3E90023C0E90423C3
:1020C00019A3D3E90023C0E9062319A3D3E9002308
:1020D000C0E9082318A3D3E90023C0E90A2318A301
:1020E000D3E90023C0E90C2317A3D3E90023C0E9F7
:1020F0000E2300220023C0F8D010C0E93023C0E92D
:1021000032238022403022F0D8B800BFAFF30080E5
:1021100008C9BCF367E6096A3BA7CA8485AE67BBFA
:102120002BF894FE72F36E3CF1361D5F3AF54FA525
:10213000D182E6AD7F520E511F6C3E2B8C68059B01
:102140006BBD41FBABD9831F79217E1319CDE05BB9
:10215000002110B50446074B4FF4C072C0E960116E
:10216000C0E96211C0F89011C0F8943122F0A5F8CE
:10217000204610BDCDCC4C3E024630B55388017888
:10218000082B28BF08230B48C1F383010A4C4840A1
:10219000604302F14901C2F1FF2202F57F02B7322A
:1021A0005518AB4200DC30BD11F8015F6840604358
:1021B000F6E700BFC59D1C81930100012DE9F041A8
:1021C00004460D460746002642F210783B7B3BB1A1
:1021D0007B68EB1A434503D93146204615F006FCCF
:1021E0000136182E07F11007F0D1D4F88C3133B333
:1021F000154AEB1A934222D9D4F88431FBB1D4F8B2
:10220000903123B9A5F59C53083BC4F8903141F2B5
:10221000873641F2883003F51C414031EA1AB24258
:102220000BD9D4F8842142B10344A2EBD2028B42F1
:10223000C4F88421C4F89031F0D1BDE8F0810023C6
:10224000C4F89031F9E700BFE093040070B503468D
:10225000024600F5C0766FF00040C1F51C551135FF
:10226000147B34B154682C4424EAE474A04228BF9F
:1022700020461032B242F3D1D3F88C2192B1D3F878
:1022800084417CB10D4C8D1AA5420CD9D3F8903104
:102290002BB1C1F59C5108310B4423EAE3739842FA
:1022A00028BF184670BDC1F5922101F2E1311144F9
:1022B00021EAE171884228BF0846F3E7E093040071
:1022C00010B5D0F88831032B26DDD0F88401FEF755
:1022D0005BFE4FF06E51FEF7AFFE00210446FFF7A4
:1022E00053F8E0B94FF081412046FEF79DFD0146CD
:1022F0002046FEF755FF0B49FEF79EFE0A49FEF702
:1023000093FD4FF07E510446FFF752F810B14FF0A5
:102310007E5010BD2046FCE74FF07C50F9E70248A4
:10232000F7E700BF9A99193FCDCCCC3E00487047E3
:10233000939302000048704780EE360030B5C0E944
:1023400018128366012200230D4DC0E90533C0E950
:102350000733C0E90933C0E90B33C0E90D33C0E9E5
:102360001033C0E91233C0E91433C0E916330560F5
:1023700043600372A0F86C30828780F83E3030BD35
:10238000C05A020070B5B8B001460446684621F054
:1023900058F99DF80030013BDBB2FD2B38D8274BB4
:1023A00028AA03F14006154618685968083303C582
:1023B000B3422A46F7D1224B08AA03F1200615465C
:1023C00018685968083303C5B3422A46F7D108A9EB
:1023D00020A811F0F7F9214620AA10A821F0DDF875
:1023E000694620A811F0EEF920AA28A918A821F022
:1023F000D4F8202218A910A816F072FE044658B985
:10240000202110A816F0A6FE202118A816F0A2FE82
:102410000024204638B070BD002310A911F8012B0C
:102420001AB90133202BF9D1144610A8202116F037
:1024300091FE202118A816F08DFEEAE75A720200DC
:102440009B72020038B504461D46059BFFF776FFD8
:10245000084B25672360049B04F17C006367069B9F
:10246000A367FFF775FE04F5057015F0E9FF204638
:1024700038BD00BF005B02002DE9F04F0E78054625
:1024800006F00303023B012B0C46F3B000F2FA8284
:1024900006F03C02242A0B795BD13F2B1CD84E88D6
:1024A000082E19D991F85270093E07F003029340A3
:1024B000F6B21FFA83FC664510D801F15302036897
:1024C000029201F10A02CDE9007203965D6ED1F825
:1024D0004A20D1F84E30A847002037E0012153337D
:1024E00001FA02F200F50571E01821F0F5FE00286E
:1024F000F2D12B68214628461B6C98470028EBD068
:10250000A86F214603681B6898470028E4D1A86F8C
:10251000214603685B68984794F90201FEF738FD8D
:102520004FF07A51FEF788FD4FF08141FEF784FDB0
:10253000FEF75EFF237921465A1C234422719872CC
:102540002B6828469B6C984740F0C06073B0BDE88C
:10255000F08F2C2A03F03F030AD191F94A20002A78
:1025600080F28D82002BB7D103689B6F9847B3E749
:102570004BB90C2A40F086820368D1F84A20D3F880
:1025800088309847A8E70C2A05D10368D1F84A207B
:10259000D3F888309847227905F505719209013200
:1025A00004F10A0021F098FE002895D12B682146FD
:1025B00028461B6C984700288ED02378C3F38303EA
:1025C0000A2B04D12146284616F0AAFA84E7A86F00
:1025D000032B02682146126813D190470646002853
:1025E0007FF47AAFA86F214603685B68984721465D
:1025F000284616F097F932462146284616F039FA51
:102600006AE7904700287FF467AFA86F2146036808
:102610005B6898472146284616F084F92B682146C6
:1026200028469B6C984740F080708FE72B682146C6
:102630002846DB6B984700287FF44EAF207816F0D1
:102640006FF8002800F024822046FFF795FD06462B
:10265000686E05F17C0703681B689847314602469F
:10266000384615F009FA20B13146284616F0B8F878
:102670000EE22B682846DB6C9847002800F00882A1
:10268000686E03681B68984731460246384615F065
:10269000CDF9FDE16388032B7FF61EAFA86F2146BD
:1026A0000368D4F84A601B68984700287FF414AF89
:1026B000A86F214603685B6898472B68324621461D
:1026C0002846D3F888309847214628462B689B6BCC
:1026D00073B0BDE8F04F184794F84B300DF1200A65
:1026E0008AF80030638894F84A70042B7FF6F4AEC1
:1026F000A86F214603681B689847064600287FF4A8
:10270000EBAEA86F214603685B68984795F81432D2
:10271000BB4268D12B68514628469B6D984781463D
:1027200004F14C0B10AF0DF1C4084E452B685ADA7A
:10273000324639462846DB6D984763885A46023B45
:102740004146384616F0E3FC031E5CDD2278C2F3F6
:102750008302082A4DD198F800900793484616F056
:10276000B9FB00283FD04FEA991109F03F0201FB65
:102770000222079B501C984235DA02329B1ADBB2C8
:10278000424429680392049318F800300DF1C508FB
:1027900003F00F03CDE90193CDF80080D1F868B0C4
:1027A0003B46324621462846D847D0B1207815F01E
:1027B000B7FFB0B10023CDE902330193237951462D
:1027C00000933A46284604F10A0316F0D0FA01466F
:1027D00038B14FF4FA734246009328464B4616F040
:1027E0006AFAFF2323702B68214628469B6B984783
:1027F000ACE62968CDE9018300970F6E3346214688
:102800002846B847EDE701368FE76388232B7FF62C
:1028100063AEA86F2146036894F84A601B68984726
:1028200000287FF459AEA86F214603685B6898477B
:1028300095F81432B3427FF447AF04F14B0608AA6F
:1028400004F16B07134630687168083603C3BE4253
:102850001A46F7D108AA10A905F5057015F013FF5F
:10286000638831AF32463946213B10A816F04FFC41
:1028700000287FF729AF2B68CDE9007021461E6F35
:10288000284608AB10AAB047FF2323701CE794F832
:102890004A3008AF3B706388032B7FF61DAEA86FEC
:1028A000214603681B689847064600287FF414AE4B
:1028B000A86F214603680DF140095B6898472B68B3
:1028C0003946D3F880804A4604232846C047074645
:1028D00004F14B0A0DF141080DF1C40BBE4282DA3E
:1028E0006388404652465946013B16F010FC0028CA
:1028F00008F121080FDD2B682278CDE900B006EB46
:102900004616D3F884702146284609EB0603C2F325
:102910008302B84767E70136E0E710A815F07EFDAF
:1029200010AE04F14A0304F16A0732461868596888
:10293000083303C2BB421646F7D16388632B7FF688
:10294000CBAD202210A905F5057021F0C5FC0028AB
:102950003FF4C2ADA86F21460368D4F86A801B68B3
:10296000984700287FF4B8ADA86F0DF1C40A03683A
:1029700021465B685646984767880DF1400C643FD6
:10298000202F28BF2027BCE80F000FC69CE80F00AF
:1029900004F1AE0986E80F003A4649463AA8CDF858
:1029A000E48021F07DFC524607F1240304F16E011E
:1029B00010A815F03BFD00283FF4C8AD2B68CDE909
:1029C00000972146DE6E2846434610AAB0470AE724
:1029D00003F00303023B012B3FF67EADA86F2146B7
:1029E00003681B68984700287FF476ADA86F2146DE
:1029F00003685B6898472B6821462846DB6FB5E57E
:102A00006288022A7FF668AD94F84A3003F00F031B
:102A1000032B7FF461AD042A7FF65EAD31AE304604
:102A200016F053FA237840228DF8C43004F10A01DD
:102A300023790DF1CE0016F06EFA62888DF8C80089
:102A4000013A92B204F14B010DF58770ADF8C62042
:102A500021F026FCA86F314603681B6898470028C0
:102A60007FF43AADA86F314603685B6898472B68DE
:102A700031462846D3F88830DDF80E2181E5002B59
:102A80007FF489AD304615F04BFE00287FF4CEADC3
:102A90002378C3F383020F2A3FF61EAD01A151F83C
:102AA00022F000BFD9260000D9260000D926000058
:102AB000952600001B2900008F2800008F280000A9
:102AC0000B280000D9260000D9240000012A0000AC
:102AD000D9240000D9240000D9240000D924000002
:102AE000D12900000022104630B5074BD3F8205101
:102AF0009C33AA4200DB30BD53F8044F0132641A04
:102B0000002CD8BF0130F4E7B84C0020014BD3F8BB
:102B100020017047B84C0020014BD3F820017047CA
:102B2000DC4D0020044BD3F820219142B4BF53F870
:102B300021000020704700BFB84C0020044BD3F8A0
:102B400020219142BABF283153F82100002070475C
:102B5000B84C0020054BD3F820018142BDBF28317D
:102B6000012043F821200020704700BFB84C00200E
:102B70000022FF2070B50A4BD3F8206103F19C05B9
:102B80008033B24200DB70BD55F8044F641A002C4C
:102B900003DC9C5CA04228BF20460132F1E700BF65
:102BA000B84C0020F8B5FF200C4600234FF0FF3151
:102BB0000D4AD2F8207102F19C068032BB4205DB3F
:102BC0004B1C0FD0084816F0E9F9F8BD56F8045F21
:102BD0002D1B002D04DCD55C85423CBF19462846E0
:102BE0000133EBE70020F0E7B84C002008B50248BD
:102BF00016F0D4F908BD00BFB84C002038B50B4B17
:102C00001C786CB901220A4D1A70002329461A4615
:102C10000848013416F0E4F9202C05F58275F4D14A
:102C20000021044816F0BAF938BD00BFCC9E002040
:102C3000487E0020DC4D002008B521B10023024869
:102C40001A4616F0CDF908BDDC4D00202DE9F047FD
:102C50001B4E054630460F469046994616F0C0F981
:102C60000446D8B9D6F8200118B32146234606F108
:102C70007F0CA04214DC0E4496F88030434518D9EE
:102C80000F4816F08BF92B6801465B682846984779
:102C90004B46424639460A4816F0A2F9BDE8F0878D
:102CA0001CF8012F9A4234BF1A46214613460134BC
:102CB000DFE72B6839462846BDE8F0475B681847D0
:102CC000B84C002038B500240D4D281904F5827445
:102CD00016F0FBF8B4F5025FF7D10024094B21464A
:102CE00080221846C3F8204121F0E7FA064B21461E
:102CF000C3F820411846BDE83840802221F0DDBAF3
:102D0000487E0020DC4D0020B84C00202DE9F04327
:102D10000D468DB012F00F01804614461E469DF8F8
:102D2000509004D04FF0FF300DB0BDE8F083184B49
:102D3000142207A8069321F0C0FAB9F1000F0CBFC6
:102D40004FF400734FF48073124F089310224146E2
:102D500004AB06A8099720F09CFF0028E2D105AB40
:102D6000CDE901432A462346394604980096B9F135
:102D7000000F09D011F0E0F90446049820F06DFF2F
:102D8000002CCFD10598CFE711F072FAF4E700BF1D
:102D900000248000004440042DE9F04194B007462F
:102DA0000C4616460021142207A81D4621F085FA7C
:102DB0004FF48853ADF818304FF48073ADF81A30E3
:102DC0004FF48063DFF84C802022CDE90838394683
:102DD00004AB06A820F05DFF28B14FF0FF34204679
:102DE00014B0BDE8F08105AB0293202301930CAB36
:102DF0002246009341463346049821F026F80446C3
:102E0000049820F02AFF002CE7D1BDF830302B8049
:102E1000E5E700BF0900800330B58DB00D461146CF
:102E20001A4603AB01932023044600930A4804ABDF
:102E300020F0FBFF2A4630B1002120460DB0BDE84E
:102E4000304021F03ABA202D28BF2022204604A984
:102E500021F026FA0DB030BD090000022DE9F04343
:102E6000A7B00446DDE92E890D46164600217022E2
:102E70000AA81F4621F021FA16490AA820F086FF69
:102E8000E8B93A4631460AA820F0A1FFB8B94A4647
:102E900041460AA820F09BFF88B9202201AB02A975
:102EA0000AA820F0ABFF50B9202D2A46204628BFA3
:102EB000202202A921F0F4F927B0BDE8F0830AA886
:102EC00020F055FF2A460021204627B0BDE8F043F8
:102ED00021F0F3B90900000208B5054B002814BF22
:102EE00001461946034819F08FFD012007F00CFA3E
:102EF000BC720200C87202000346F0B50A4D8E187B
:102F0000B14203F1020303D1002300F81230F0BDF7
:102F100011F8014B270904F00F04EF5D2C5D03F855
:102F2000027C03F8014CEBE7129502000048704761
:102F3000E872020000487047E872020000487047DB
:102F4000F672020008B503681B689847BDE80840A0
:102F50000146014817F052BB6C5D020008B51046EF
:102F60000249FEF7FFFA002008BD00BFFF72020011
:102F700037B5124C20461EF043FA10B9104803B082
:102F800030BDA5684C212046EB6898470028F5D154
:102F90000C216A4620462B6998470028EED10198FB
:102FA000FDF7F6FF0749FEF7FBF804460098FDF72A
:102FB000EFFF01462046FDF737FFE0E7AC4B02008C
:102FC0000000C07F0024744970B5C3680C461546E4
:102FD0009BB393F87430DA1F052A32D81A4A073B9C
:102FE00052F8236021463046FEF7E2F948BB2846F6
:102FF000FDF7CEFF4FF06E51FEF71EF801464FF081
:103000007E50FDF70FFF314605462046FDF70AFFCB
:103010000E49FEF7C5F801462846FEF70DF80021D7
:103020000446FEF7A7F960B94FF07E512046FEF73F
:10303000BFF920B14FF07E5070BD0723CEE7204688
:10304000FAE70020F8E700BF0C5D02000000204115
:1030500070B5044616F04EF9D4F88039D4F88429B6
:10306000054653EA02004DD05B1B62EB0102012BC7
:1030700072F100003EDB6FF00040834272F100020B
:1030800000DA1846B4F84E3A9BB394F9513A8033BB
:1030900014D0D4F8582AD4F85C6A521B66EB0106A7
:1030A000012A76F1000327DB6FF000439A4276F1A4
:1030B000000600DA1346984228BF1846D4F8683A4A
:1030C000D4F86C2A53EA02041CD00F4C1B1942F1AD
:1030D00000025B1B62EB0101012B71F100020DDBB1
:1030E0006FF00042934271F1000109DA984228BF63
:1030F000184670BD0020C5E70023DCE70023F5E794
:103100001346F3E70020F4E70097490170B5044641
:103110004A480025C4E90213206000230020002152
:10312000C4E9042504F518622362C4E90655257133
:103130006362C4F85858C4F85C58C4F87059C4F8AD
:10314000745984F87859C2E9000143F69822C4F80A
:103150008C294FF4004204F5266684F88859C4F897
:103160009059C4F89459C4F89859C4F89C59C4F8B3
:10317000A059C4F84C5AA4F8502A46E90201C6E9FD
:10318000000104F5276646E902010126A4F8705AF9
:1031900084F8726AC4F8745AC4F8785AC4F87C5A2D
:1031A000C4F8805AA4F8845A84F8865AC4F8885A15
:1031B000C4F88C5AC4F8905AC4F8945AC4F8985A6F
:1031C000A4F89C2AC4F8A05AC4F8A45AA4F8A85A8F
:1031D000C4F8AC5AA4F8C45AC4F8C83AC4F8CC3AF3
:1031E000A4F8D05AC4F8D45AC4F8D85AC4F8DC5A4F
:1031F000C4F8E05A84F8885BA4F88A5BC4F88C5B56
:10320000C4F8905BC4F8945B04F516601EF05FFE92
:103210003246294604F537601EF03CFA29464FF441
:10322000036204F1280021F048F8A822294604F698
:10323000A41021F042F8204670BD00BF305C0200AF
:1032400008B503468068B3F88A1B8368002908BF65
:10325000FF215B68984758B1084B98420BD841F260
:10326000883300F5FA704000984238BF184608BD10
:1032700041F28830FBE76FF47A70F8E70BFEFF7FCE
:10328000F0B590F8883B044689B0B3B900F6E8255C
:10329000002600270A20CDE90043CDE9023004933F
:1032A0002846CDE90667064B0EF094FF05492846EF
:1032B0001EF0F6FA012384F8883B09B0F0BD00BF88
:1032C000819901002D7302002DE9F8430C46054653
:1032D000174600211422204620F0EFFF95F8C53A4A
:1032E000002B37D0D5F8C80AD5F8CC9A95F8D08AF3
:1032F00095F8D16A2A49FDF79FFEFEF79FF82060F6
:103300004846FEF79BF883B21F2B08D035D80F2B09
:1033100005D030D8072B02D00A2B18BF7D23A380FD
:10332000B31F022B96BF043E0126F6B2B8F1080F78
:103330008CBF1023202384F80680E6712381EB687C
:103340002BBB1623A3720223E3730423E7722374B7
:10335000BDE8F883EB683BB1986CD3F8789093F8AC
:10336000748093F87560C5E74FF007080526DFF80D
:1033700034900D48BEE7142BCFE7FA2BCFD003D8FB
:10338000292BCCD03E2BC8E7B3F5FA7FC5E793F9DC
:103390004C30162BA372D4DC0933D4DAF723D1E7EF
:1033A00000247449000078428D67594408B590F8AC
:1033B000C53A5BB1D0F8C80A0749FDF73DFE4FF0AA
:1033C0007C51FDF731FDFEF739F808BDC3680BB13C
:1033D000986CF1E70148EFE7002474498D67594480
:1033E00008B590F8C53A63B1D0F8CC0A0849FDF7A2
:1033F00023FE4FF07C51FDF717FDFEF71FF880B25A
:1034000008BDC3680BB1986FF0E70248EEE700BF54
:10341000000020410000784202462DE9F04716F0F6
:1034200015FA92F8C53A0F460646002B00F0958033
:10343000D2F8CC5A104616F016FA0C2EB04628BF19
:103440004FF00C085FFA88F8B8F1060F04464749B8
:10345000284638BF4FF00608FDF78CFF00B1444DF9
:10346000082C28BF08240120E4B2052C00FA08F03B
:1034700038BF0524FDF78CFD3E4981462846FDF7FF
:10348000DBFD01464846FDF78BFE0546082E8CBF46
:1034900010202020FDF77CFD3749FDF7C5FC2946AB
:1034A000FDF7CAFD354981462846FDF781FF002812
:1034B00059D04FF07E5A4046FDF76AFD0646384621
:1034C000FDF766FD4FF08241FDF7B6FD4FF08141FB
:1034D00007463046FDF7B0FD01463846FDF7A2FC31
:1034E0002749FDF7A1FC4FF08341FDF79DFC5146B4
:1034F00007465046FDF798FC01463046FDF792FC22
:103500004FF08141FDF798FD4FF07E510646FDF7E3
:1035100031FF08B14FF0814631463846FDF740FE95
:1035200014F0EAF906462046FDF732FD3146FDF774
:1035300083FD002121F058F94FF08241FDF774FC22
:103540002946FDF779FD4946FDF76EFC0949FDF76F
:1035500073FDFDF773FFBDE8F087D3680BB19D6F76
:1035600068E7084D66E74FF0000AA4E70000E04076
:103570000000FA4200007A44000088405A2F863C3E
:103580000000E041000078422DE9F04705468AB08E
:1035900016F0F0F995F8713A05F11407002B00F0D8
:1035A000BA802846002205A9FFF78EFEBDF8183024
:1035B0009DF81A001F2B00F09A8000F285800F2BD7
:1035C00000F0988079D8072B00F0978042F6B1027E
:1035D0005A490A2B18BF0A4606288CBF4FF0080A22
:1035E0004FF00C0ABAF1080F0CBF11231923BDF8D4
:1035F0001C609E4240F39E80012181405048002380
:10360000A1FB0001FDF78AFF2B680446D3F8D830F0
:103610002846984780460520A6EB4A0909F1FF395C
:1036200004FB09F964220023A9FB0001FDF776FFE2
:1036300008F5FA63A9EB00018B42D5F8742A64D22D
:103640000E366643A1EB08018E420AFB044408D9FA
:10365000731CA3EB0903034443445B089C4238BF3B
:103660001C46944203D1D5F8783A8B4203D0C5F872
:10367000744AC5F8781A00261F34A86846F100037A
:103680001F314FEA541246F1000486684909366A30
:1036900042EAC36241EAC4615B096409002E3AD080
:1036A000DFF8A0C003958DE81210B04798BB1CF05E
:1036B000CCF90121C5F8940936E045F261121F49A1
:1036C000142B18BF0A4687E7FA2B19D008D8292BE4
:1036D00018D04FF2244219493E2B18BF0A467BE707
:1036E000164A1949B3F5FA7F08BF0A4674E747F648
:1036F000122271E743F609526EE741F684626BE7E6
:10370000124A69E74AF2C32266E7013203D04FF05A
:10371000FF33C5F8743AA8682A46836809495B698B
:1037200098470028C3DA002138460AB0BDE8F047C0
:1037300015F01ABED5F8743A0133E7E748E80100FE
:1037400040420F004794010020A1070090D00300E1
:1037500038B503680446D3F8D0300D469847B8B161
:1037600004F68C3015F0A7FD034604F6943015F0EE
:10377000A2FD1844D4F87C3A984202D1D4F8803A99
:103780003BB9C4F87C0A012D38BF0125C4F8805A22
:1037900038BD084AEB1A9342FAD994F8863A072BB7
:1037A000F6D923682046D3F8C83098472046FFF75B
:1037B000EBFEE8E7BF270900F8B503680446D3F835
:1037C000D4300F469847002838D094F8A83A33B13F
:1037D000D4F8A03AD4F8A42AFB1A93422ED3D4F8F2
:1037E000AC3A23B14EF65F22FB1A934226D92069E8
:1037F00020B303689B68984701460546FDF7E2FD44
:103800000646D8B9284621F012F80122164B05B217
:10381000C4F8A43AB4F99C3A84F8A82A13F5004FE6
:10382000C4F8A07A02D1A4F89C5A07E0EB1A002B46
:10383000B8BF5B42042B02DC84F8A96AF8BD94F897
:10384000A93A33B943F6982384F8A92AC4F8A43ACC
:10385000F4E7236884F8A96A2046D3F8CC30984767
:103860002046FFF791FEDEE780EE360038B50446CD
:10387000183015F020FDA0BB23682046DB6A98476E
:1038800078BB15F037FD054604F68C3015F013FDB6
:10389000034604F6943015F00EFDD4F87C2A034458
:1038A000934202D1D4F8803A63B90023C4F8983A1D
:1038B00029462046FFF74CFF29462046BDE8384000
:1038C000FFF77ABF074AEB1A9342F1D9D4F8983A36
:1038D00013B1EB1A9342EBD9012D2B4638BF0123CC
:1038E000E4E738BDBFD401002DE9F04F03688BB089
:1038F000D3F8BC300446884617469847824638B904
:1039000039464046644A0BB0BDE8F04F12F020BA89
:10391000D4F89819002900F08D800A236420D4F887
:103920009C295A43D4F8A03902EB5102434303EBDC
:103930005103B2FBF1F2B3FBF1F10A2594F94D0A00
:1039400094F84C6A0591B2FBF5F105FB112200EBEE
:103950000A03CDE90312CDE90003504A504B40461B
:10396000002E08BF1346CDF808A04E4A27EAE7719B
:1039700012F0EEF9C72F054640445DDDD4F8943AC5
:10398000791B0393D4F8903A474A0293D4F88C3ABF
:103990000193D4F8883A0093D4F8983912F0D8F902
:1039A000054408EB0500791B94F8503A3F4A12F0A1
:1039B000CFF923680544D3F8B43020469847014630
:1039C00040B9AF4208EB0500C8BF791B384A12F076
:1039D000BFF90A35204616F035F98346204616F021
:1039E00048F994F94D9A6FF00702D945B8BFD94606
:1039F0008145A8BF814609F1FF36B345CABF0BF127
:103A0000020309F101035E468342C4BF0346861EDA
:103A10009642B8BF16460C2BA8BF0C234FF0640B80
:103A2000099304EBC604099BB34209DA28460BB09C
:103A3000BDE8F08F0A4680E7AF42B4DC0021B3E76F
:103A4000B4F8E429B4F8E8C91AB353080BFB0C33F3
:103A5000B3FBF2F30693B4F8EA39BD42CDE904C3EF
:103A6000B4F8E639B8BF791BCDE902230AEB0603A7
:103A7000CDE90063A8BF002108EB0500B14514BFE4
:103A800020232A230B4A12F063F901360544083437
:103A9000C9E71346DEE700BF3A730200B5800200B3
:103AA0006182020042730200687302007D730200AB
:103AB00086730200917302002DE9F047B0F84E3A88
:103AC0000446002B00F0C78015F014FC0F4604F5E7
:103AD0002761064651E9023253EA020040F08C8029
:103AE00041E9026794F9515A15F1800F23D0D4F8B7
:103AF000582AD4F85C3A964277EB03031BDB236821
:103B00002046D3F8B0309847EB000128234440F01A
:103B10008180B3F8EA290132A3F8EA2980232046FC
:103B200084F8513A16F0D6F928B994F84C3A13B102
:103B3000204616F05DF994F89339002B00F08B8045
:103B4000002384F8933994F9513A803340F083800C
:103B500023682046D3F8B430984700287BD094F8E7
:103B60009239002B77D023682046DB6A984782463B
:103B7000002870D104F52668C4F8606A2046C8F8A9
:103B8000047016F001F923680146D3F8AC300746FB
:103B900020469847064615F0ADFB022E81460D469D
:103BA0004FD14FF6EF7304EBC701B1F8E4299A4205
:103BB00002D9204616F0CEF8B1F8E4390133A1F865
:103BC000E439002E49D0B1F8E639022E03F10103A1
:103BD000A1F8E63941D1236884F8517A2046D3F818
:103BE000B430984710EB090045F10005643045F109
:103BF000000548E902052EE01F48F31A67EB0202B0
:103C000098424FF000039341BFF66CAF204616F088
:103C1000A1F865E7022805D1B3F8E8290132A3F835
:103C2000E8297BE7B3F8E42912B1013AA3F8E429C3
:103C3000B3F8E629002A3FF471AF013AA3F8E62968
:103C40006CE7514604F1140015F08EFB2046FFF797
:103C50009BFC002EA5DABDE8F087204616F03AF965
:103C60000028F8D194F84C3A002BF4D02046BDE857
:103C7000F04716F0BDB800BF0097490170B50D467A
:103C8000164604243146284619F058FD48B140F242
:103C9000391000211DF0E0FE013CF3D10148FFF78F
:103CA0001BF970BDB17302002DE9F04FDFF85882A7
:103CB000ADF5257D04460D46174600214FF40072F0
:103CC00024A81E4620F0F9FA98F8003043B98F482E
:103CD00018F09AFE98F8003013B98D4818F094FE49
:103CE000402124A819F02AFD98F8003081463BB9FC
:103CF00024A816F098F949460246864818F084FE32
:103D0000102200210AA820F0D8FA10210AA808F0F1
:103D100037FA002301460DF1CF020DF1280C8B423A
:103D200001DA102B58D198F80030002B40F0E780D2
:103D3000794818F069FEBFB1B6B1202E314628BFD0
:103D400020213A460DF1DF037E1812F8010B13F81B
:103D5000017FB24280EA07001870F6D198F800306F
:103D600043B96E4818F050FE98F8003013B96C480B
:103D700018F04AFE402180A819F0E0FC98F80030C5
:103D8000064673B980A816F04EF9314602466548DA
:103D900018F03AFE98F800301BB92946624818F02E
:103DA00033FE0023079310F007FB202307AF009397
:103DB0004FF400725D4801971CAB24A920F035F840
:103DC000064610B9079F202F0FD020211CA815F000
:103DD000C1F95748FFF780F812F801EF1CF8010B02
:103DE000013380EA0E00107099E70146142217A8EB
:103DF00020F063FA4FF41053ADF858304FF480734D
:103E00004C4A0DF12008CDE91832ADF85A301CA902
:103E100043463A4616A8C8F800601FF03AFF064627
:103E200039461CA815F096F9002ED2D11022314641
:103E30000EA820F042FA37460DF1240ABD42D8F808
:103E4000000017D90023CAF8003010230DF1380BF9
:103E50000DF148095A463749CDF808A00193CDF82D
:103E6000009010F069F918B9DAF80030102B14D06E
:103E70004FF0FF36D8F800001FF0EFFE10210EA81B
:103E800015F068F9002EA4D1012319462544AC424F
:103E90001CD101B933B328489CE7EA1B102A28BF7C
:103EA0001022E0194946059220F0FAF9059A1744C4
:103EB0004A4612F8013D0133DBB213700BB95A4583
:103EC000F7D11021484615F045F9B7E714F8012B52
:103ED00032B1FF2A14BF002303F001030021D6E70B
:103EE0001346D4E724A84FF4007115F033F91021DC
:103EF0000AA815F02FF90DF5257DBDE8F08F002FEC
:103F00007FF41AAF36E700BFCD9E0020D2730200C7
:103F1000F67302003E7402006D740200AE7402007B
:103F2000D07402001D7502004C75020009000002E9
:103F30008575020000444004A4750200002330B5DA
:103F4000044689B01A4620216846FFF7ADFE69464F
:103F5000204614F081FA65252378013BDBB2FD2B66
:103F600005D82021684615F0F5F809B030BD013DAF
:103F700002D10748FEF7B0FF002368461A46202109
:103F8000FFF792FE6946204614F066FAE4E700BFA8
:103F9000CF750200014B1870704700BFCE9E002005
:103FA000014A11F0D5BE00BFF575020038B50446D0
:103FB0004068FCF7EDFF0649FDF7F2F8054620687A
:103FC000FCF7E6FF01462846FCF72EFF38BD00BF90
:103FD00000247449084B1B685BB9084B1B6843B944
:103FE000074B1B68003B18BF0123064A00201370D3
:103FF00070470123F9E700BF0C4F0020084F002055
:10400000044F0020D29E0020014B1878704700BF5B
:10401000D29E002073B5524D1C220021044620F090
:104020004CF9286860B316F034F848BB6A460D2195
:10403000286816F032F828B96846FFF7B7FF012361
:10404000206023756A461021286816F026F828B9E2
:104050006846FFF7ABFF012360606375414B1B7837
:1040600073B16A460E21286816F017F840B9684601
:10407000FFF79CFF3C49FCF7DFFF0123A060A3751D
:104080003A4E306818B3A37D0BBB2B68984201D021
:1040900015F0FFFF6A460E21306815F0FEFF40B9AB
:1040A0006846FFF783FF3049FCF7C6FF0123A06095
:1040B000A375237D5BB96A460D21306815F0EDFFCD
:1040C00028B96846FFF772FF012320602375284D49
:1040D0002868E0B115F0DDFFC8B96A4612212868EA
:1040E00015F0DBFF28B96846FFF760FF0123206168
:1040F0002376237D5BB96A460D21286815F0CDFF34
:1041000028B96846FFF752FF01232060237519483C
:104110001DF076F978B1174815F0BBFF58B96A461B
:104120000C21144815F0B9FF28B96846FFF73EFF87
:104130000123E060E375207D68B9637D4BB9A07D04
:1041400058B9237E2BB9E37D002B14BF00206FF0FC
:104150003C0002B070BD0020FBE71846F9E700BF45
:104160000C4F0020D39E002000002041084F00206B
:10417000044F0020AC4B0200014B1878704700BF81
:10418000CF9E00202DE9F0434422002185B0044653
:1041900020F093F83D4B1B78002B70D03C4D2868E5
:1041A00000286CD03B4B1B78022B41D10026B14636
:1041B000394F3B7884F840303B78B34203DC002031
:1041C00005B0BDE8F0830136CDE90269286883684F
:1041D000D3F80080B8F1000F28D014224C2102AB94
:1041E000C04718BB286815F054FFF8B96A462A2161
:1041F000286815F052FF18B96846FFF7D7FE20600F
:104200006A462C21286815F048FF18B96846FFF760
:10421000CDFE60606A462D21286815F03EFF18B972
:104220006846FFF7C3FEA060012323731034C3E781
:10423000012384F8403015F02CFF18BB6A462A2170
:10424000286815F02AFF18B96846FFF7AFFE20600E
:104250006A462C21286815F020FF18B96846FFF738
:10426000A5FE60606A462D21286815F016FF18B972
:104270006846FFF79BFEA060012323739FE76FF062
:1042800012009DE76FF004009AE700BFCF9E002068
:10429000004F0020D19E0020D09E002070B4CE7D23
:1042A00046B1CD68541B054DAC4203D81BB970BC58
:1042B00015F0F6BF002370BC1846704780970600C3
:1042C0002DE9F84F032B0646894690461F460A9D66
:1042D0002FD815F0D1FF0446A0B38668464528D2F2
:1042E000C1689620691AA8EB0606761A4FF00003FB
:1042F0003C4AA1FB000169EB0909FDF7BFF810F189
:104300002D020B4641F10001B24271EB09010ADBBB
:104310006FF02C024FF0FF31121A61EB030396424B
:1043200079EB030307DA01232561A382C4E902853F
:10433000A775BDE8F88F4FF6FF72A38A9342F5D0B8
:104340000133F2E71821034606F1170001FB03F2DF
:1043500010F802C0BCF1000F0ED1B418D9F800302B
:104360002360D9F80430C4E9028563600123256124
:10437000A382A775E375DCE70133202BE6D1314634
:104380004FF0000A4FF0180B2A46304615F088FF10
:10439000CB6818B11448EA1A824217D98A7DBA420A
:1043A00014D9ECB1A07D82421AD803D1888AA28A9E
:1043B000904215D30BFB0A6260695269424032F0A9
:1043C0007F4203D1E268934238BF0C460AF1010AEA
:1043D000BAF1200F01F11801D6D1002CBED1A8E707
:1043E0000C46F3E740420F0080510100034690F86D
:1043F000100338B1D3F80C330348C91A81428CBF7B
:1044000000200120704700BF7F3A09002DE9F347E3
:104410008A4616460021182204461D461FF04DFF0D
:10442000DAF800733246BE422CBF00230123514606
:10443000237404F1180000932B4615F03EFF237EF1
:104440001BB940F20123238014E0BE422ED2A37E8A
:10445000022B02D840F20133F5E7D4E90832B3F178
:10446000960642F1FF32B6F5167F72F1000305DAC7
:1044700001236370204602B0BDE8F087294650460C
:10448000FFF7B4FF08B10523F3E79AF8203343B1EF
:1044900045F25F41DAF81C33EB1A8B4201D8062350
:1044A000E7E70223C4E902622370E3E7637E052B9A
:1044B000D0D9A27EB3EB420F02DB40F20143C2E748
:1044C000D4E90887002F4646B94602DA764267EB00
:1044D0004709B6F5167F79F10003C9DB2946504636
:1044E000FFF784FF0028CED19AF8203333B145F28C
:1044F0005F42DAF81C33EB1A9342D0D99AF818339A
:10450000ABB14FF49670DAF81433154AED1AA5FBE7
:1045100000010023FCF7B2FF10F5167041F1000115
:10452000B04271EB090102DA40F201738BE702231A
:1045300018F5616F424640F6116123703B4677F1F2
:10454000FF37BCBF4FF0FF33064A8A4273F10001C8
:10455000A4BF4FF461620023C4E902238AE700BFCD
:1045600040420F00F0F1FFFF0138C0B206289ABFA9
:10457000024B53F820000248704700BF505D020014
:10458000617902002DE9F04FB1B00B9305463A9BDB
:104590008846164601460B9A16A89DF8ECA0FFF730
:1045A00035FFDDE91E799DF858209DF86830022A14
:1045B0009DF87040099340F03581DDE9181095F8B9
:1045C000042322B1002880F2A081B74A04E0B74B4F
:1045D0008B428241B64A07DB4FF0FF3CB54B994214
:1045E00070EB0C0C00DB0B46B348B149DDF824C07E
:1045F000BCF1000F18BF014622A8CDE900123821F6
:10460000AE4A11F0A5FBBAF1000F00F03081AC4BBF
:10461000A74A9DF871109DF872009DF873C0002C98
:1046200000F028814FF0000EA04CBC427EEB090E3A
:1046300007DB4FF0FF3E9F4CA74279EB0E0EA8BF61
:104640003C46209F0DF1880ECDE90110CDE903C451
:10465000009231464046CDE9057E9A4A11F078FB3A
:10466000041EC0F24D81B44280F04A81D5F82C334B
:10467000FBB1D5E9CE1C00208C4AD5F830738A42B4
:1046800070EB0C0007DB4FF0FF308A4A91427CEB65
:104690000000A8BF0A46CDE90072311B08EB0400F8
:1046A000894A11F055FB241800F12A81B44280F0A8
:1046B0002781D5F834335BB1311B08EB0400834A02
:1046C00011F046FB241800F11B81B44280F01881E0
:1046D00028463A99FFF78AFE98B13A99284615F08C
:1046E00077FF4FF46163311BB0FBF3F3784A08EBBB
:1046F000040011F02DFB241800F10281B44280F077
:10470000FF80D5F82833311B009308EB0400D5F85F
:104710002433704A11F01CFB241800F1F180B442DC
:1047200080F0EE8005F540730A934FF0000A2B46A7
:10473000DA7D0AB10AF1010A0A9A18339342F7D1D5
:104740004FF0000BD946CA4540F3A9802F468BF0A5
:1047500001030F93FB7D002B00F09580099B3946E8
:1047600028463A9AFFF79AFD0F9B834240F08B80D0
:1047700008EB04030893331B0C933B783A9A0D9390
:104780007B78B98A0E93FB686329A2EB0303BA68AE
:1047900028BF63219B184FF0000242EB020E0B9AD8
:1047A00097F816C09B1A414A6EF1000E9A424FF0DC
:1047B000000272EB0E025FDB3E4A93424FF0FF3283
:1047C0007EEB02025ADBDFF8E8E0434ACDE901C1A3
:1047D000002808BF7246CDE903320E9B3F4A009382
:1047E000311B0D9B08EB040011F0B2FA002802DB2C
:1047F0002044B04244D30023089ACA4513704EDDCA
:10480000AAEB09031821364A10A811F0A1FA0C9B53
:104810000546834243D9421C10A908981FF040FD69
:104820002C443CE0BDF85830B3F5807F15D1B9F188
:10483000000F3B464A4602DA7B4269EB490240F2EE
:104840002D118B4272F10002B4BF264B264B274A32
:10485000382122A811F07CFAD5E69DF85900FFF71F
:1048600083FE03460AB9224AF2E7224AF0E7224BC6
:10487000224ACEE62746E5E60C4BA4E70D4BA2E71D
:10488000044609F101090A9B18379F427FF462AF81
:104890000BF10103022B4FF0010B7FF454AF2046C4
:1048A00031B0BDE8F08F00BF0B7602000094357781
:1048B00093930200006CCA88247602004A760200B4
:1048C000618202006E760200A3760200C3760200C7
:1048D000D1760200DB76020047760200EF76020016
:1048E0000B7702003176020034760200697902000B
:1048F0005776020061760200B58002003C76020025
:104900000023741E08F80430C9E70022024B8B42D2
:104910008241024A66E600BF009435779393020015
:10492000034BD3E8AF0F003818BF0120704700BF1A
:104930001C4F0020024610B5044BD3E8EF1FC3E81C
:10494000E42F002CF9D105F00BFB10BD1C4F00200B
:10495000034BD3E8EF2FC3E8E10F0029F9D17047EB
:10496000184F0020024BD3E8AF0FC0B2704700BF12
:10497000144F0020034BD3E8EF2FC3E8E10F0029C9
:10498000F9D17047144F0020034BD3E8AF0F003824
:1049900018BF0120704700BF104F00201FB508B19D
:1049A000002303700E4818F08BFC6946002005F0C8
:1049B000BBFD014630B90098826818F03CFA0098B7
:1049C00018F00EFA064806F005FD6946054818F08D
:1049D00054FCB0FA80F0400905B05DF804FB00BF5C
:1049E000340200205B77020010B50446FEF78EFB10
:1049F000014B2046236010BD7C5D020010B50446CB
:104A00004FF400620349FEF73BFC2046BDE810402E
:104A100015F02EB8A8A50020014814F0F0BB00BF87
:104A2000F800002010B547F6122C0446002140F291
:104A3000E7304FF47A720023E4FB0C01FCF76EFDC3
:104A4000BDE8104002460B4601480DF07FBB00BF99
:104A50003000002038B5064D2B681BB1441E14F8F9
:104A6000011F01B938BD286815F048FEF7E700BFFF
:104A70005454002010B5044690B0A368DB6BBBB95A
:104A8000A3689B6BD3B9A368DB6AE3B9A3681B690E
:104A9000002BF2D04022694620469847021EECDDEA
:104AA00069460B4818F014F90A480DF0A7FAE4E734
:104AB000204698470028E3D110B010BD2046984703
:104AC0000028E0D1F8E7204698470028D5D0DDE758
:104AD000405400200001002013B5144B186810B397
:104AE00003685B6B9847322838BF32204EF660234C
:104AF0009842044628BF1C4647F6122C40F2E73085
:104B000000214FF47A720023E4FB0C01FCF706FD50
:104B100002460B4600210020CDE9000104480EF0BA
:104B2000E1F802B010BD4EF66024E5E73C540020E9
:104B300058060020014601481DF03FBA5C54002091
:104B400030B52E4CC3B00DF10705012229462C4883
:104B500018F0DEF8012801D043B030BD2978294A89
:104B60000D291378117045D00A291CD10D2BEAD0DC
:104B700000252388244A2449D55402A8FF221FF087
:104B8000EBFB8DF8075100220023204802A91CF0FE
:104B900030FD20B90420FFF7CDFF2580D3E71C4866
:104BA000FFF758FFF9E77F29238801D0082913D19F
:104BB000002BC8D0174D013B286823800028C2D0A5
:104BC000082115F09BFD2868202115F097FD08218C
:104BD000286815F093FDB6E7FE2BB4D80D4B186886
:104BE00008B115F08BFD238829785A1C2280064ACB
:104BF000D154A8E70D2BBBD00A2BB8E7C89E0020E4
:104C000040540020D59E0020D69F0020140700208D
:104C1000607702005454002010B5029C039B012CC5
:104C200073F100030FDB2146074815F0CFF9074B5E
:104C3000D3E8EF2FC3E8E14F0029F9D1BDE81040D8
:104C40004020FFF777BF10BD30540020585400209B
:104C5000024B1B680BB183F8200370473C540020C3
:104C60007FB50024144E154B154D16483360746003
:104C7000B46016F081FF2346134A14491448FFF725
:104C8000B3FE2846134B21464FF4A06240F8043B84
:104C90001FF013FB104BC5F80445C5F80C45C5F8CB
:104CA00008450B4A0093CDE901650C4B06490C48B9
:104CB00000F084FC04B070BD30540020385D020068
:104CC000204F0020D49E0020F80000208C4B0200D2
:104CD000A0380020605E0200F0000020F4000020F8
:104CE000480700202DE9F7432C4B1B68002B51D0BF
:104CF0002B4C2046FEF75AFB0546204614F0A6FD35
:104D000006462046FEF76CFB0746204614F0ABFD36
:104D10008046204614F0BEFD8146204614F0B8FAC5
:104D200000B243463A463146CDE90090284605F0A8
:104D300007FA204614F0ACFD0546204614F0A0FD0D
:104D40000646204694F8718A14F099FA07462046E0
:104D500014F0B4FA04F11803D3E8AF3F003B18BFD6
:104D600001234246CDE9000331463B46284605F083
:104D7000FDF904F68C33D3E8AF0F04F53963D3E8BB
:104D8000AF1F04F69434D4E8AF2F03B0BDE8F0436E
:104D900005F002BA03B0BDE8F08300BF3C54002028
:104DA000A03800202DE9F041AE48DCB014F02DFA17
:104DB000AD481CF025FB10B1AC4815F012FDAA4817
:104DC0001CF01EFB10B1AA4815F00BFDA94801F01C
:104DD0001BF908B9FFF7E2FDA6481CAD01F0F8F891
:104DE00015F03CF9FFF7F6F815F05AF9284615F0DA
:104DF00002FC18B12968A04815F0E8F815F030F960
:104E00009E4C60B19E4815F026F99E4815F024F995
:104E1000D4F8280315F02DF9012015F025F99A4E44
:104E200005F06CF915F0E2FBFFF7EEF834609748F7
:104E30001DF0BDF8964F974B974AC7F8D43A002318
:104E4000C7F8DC2A954A04A8C4E91423944AC7F891
:104E5000D83AC4E91623C7F8E03A13F0F1FA8548C6
:104E600004A901F01DF930B904A8FFF767F88148DB
:104E700004A901F05BF9DFF82C82602204A98A48BA
:104E80001FF00EFA41467B4801F048FB94F82003DE
:104E9000C7F80C80003818BF0120FFF74BFD94F8CD
:104EA0002103FFF755FD94F82203FFF763FD7149D5
:104EB000A8F5287016F07DFB94F8A4322BB17B493D
:104EC00008F10400FCF744FB88B90821284607F0E4
:104ED00057F903280BDDEB7820210293AB78744A55
:104EE00001936B78734800932B7810F031FF94F89E
:104EF000B0136748003918BF012114F026FA94F85E
:104F0000B1136348003918BF012115F0CFFB94F8A5
:104F1000B2135F48003918BF012115F017F894F853
:104F2000C03394F8B613019394F8B9330039009361
:104F300018BF012194F8B83394F9B723544814F0FA
:104F4000ADFE534894F8C08314F0A5F9804597F955
:104F50004D3A03D194F9B7239A4209D04C4884F8CA
:104F6000B73314F098F984F8C003444815F0C7FD2E
:104F700094F8BE03504C003818BF012004F026FFFF
:104F80004C4805F01DF9FFF7ADFE4C4805F012F84E
:104F9000344814F034F9002105F006F915F060F8F2
:104FA00005F01CF90023464A46480DF097F846489C
:104FB00020601CF025FA002852D0444B444A4FF49C
:104FC00000711A600022C3E901222068DA601961C9
:104FD00083681BB11B6C0BB13E49984720688368FE
:104FE0001B6A03B198473C48FFF734FDFFF774FD97
:104FF0003A4F4FF0FF334FF0FF3240F2FF11CDE94F
:105000000023224800221CF0DFFF044601461F480F
:105010001CF0D6FFE30601D515F03AF8600765D518
:105020003368002B62D00022294600232C480CF064
:105030001FFD01463068002958D13B462A46397089
:1050400000F0DCFBFFF74EFE3B782BB12548FFF765
:1050500001FD3846FFF7FEFC2348FFF7FBFCDFE7C6
:105060002060C0E7F80000208C4A0200745E020055
:105070006C5E0200D49E00203054002048070020BF
:10508000194C00008BA701003C5400205C54002008
:10509000A038002085A701007FA70100254A000055
:1050A00077A70100E80900205C0900206E77020064
:1050B00077770200EC09002054540020194A0000C0
:1050C000B4C40400000000200C4B02004054002037
:1050D000D6A00020754A000091770200D69E0020DD
:1050E00014070020AF770200AC770200306840B1AF
:1050F000210606D5036800224FF4FA71D3F8D030A8
:105100009847306828B140F227131C4201D016F0AE
:1051100004FC306808B113F054FB22070AD530684C
:1051200008B116F0FAFB174814F039FF05F042F801
:10513000FFF7D8FD630621D5134BD3E8AF0F15F069
:105140005CFAD6F80080B8F1000F17D01CF067FDAC
:105150004FF47A74A0FB040C47F61222002304FBE0
:1051600001C1FCF7DBF94FF47A720023FCF786F9F2
:10517000014608F53850183015F086F9FFF7ACFCF9
:1051800037E700BF305400205854002008B54FF0D6
:105190007E51D0F8A002FBF747FE01460548FBF719
:1051A000FFFF4FF07C51FBF73FFEFCF747F9C0B221
:1051B00008BD00BF0000C84200487047B777020032
:1051C00000487047B777020000487047C777020071
:1051D00000487047C7770200004870470E7C020005
:1051E000004870470E7C02000048704700A3020090
:1051F0000048704700A3020010B590F8EE12044674
:1052000021B1044B594312F0F3FD0146C4F890124A
:1052100010BD00BFC0D4010010B590F8EF120446D5
:1052200021B1044B594312F0E3FD0146C4F8941236
:1052300010BD00BF80EE360003462DE9F341D0F8E3
:1052400078025E6E9F6EB3F86C8003680C461B6834
:105250009847336805461B68304698473B680646C2
:105260005B69384698474FF47A73CDE90080B6FB06
:10527000F3F32A462046034910F094FD02B0BDE83E
:10528000F08100BFD37702002DE9FF47046ED0E91B
:1052900005A5236820461B6A0F46984723680646E3
:1052A0009B6B2046984723688046DB6B20469847D7
:1052B00081464046FCF79CF84FF47A73B5FBF3F552
:1052C000BAFBF3F30FFA80F8484602930395FBF715
:1052D0003BFA36B2CDE9000143463246384603492F
:1052E00010F060FD04B0BDE8F08700BF1178020047
:1052F0002DE9F04F046E87B02368D0E91089D0E91A
:1053000012AB9B6E20460D46984723680646DB6E1F
:1053100020469847236807461B6F204698473B4620
:10532000CDE903B032462846CDE9019A0349CDF8CC
:10533000008010F037FD07B0BDE8F08F65780200FF
:1053400010B5406F88B003681B6898470023044677
:10535000069006A8079310F041FCA8B143693021DC
:1053600003F26C73049303690B4A01330393C3681C
:10537000029303680193436800938368074810F021
:10538000E7FC064808B010BD23463021044A034814
:1053900010F0DEFCF5E700BFC6780200D6A20020C0
:1053A000D57E02002DE9F04F80460E46002500F51F
:1053B0001353B9B0283300F53652596A31B138A8C1
:1053C000691C00EB850545F8C83C0DB22C339342AF
:1053D000F3D106AB0022994605F1FF3A524514DBA2
:1053E000344600274FF00A0ABD4202DDA31B852B7D
:1053F00021DDB44204D120462049FCF7B3F806343D
:105400000023237039B0BDE8F08F01321C461746E7
:10541000BD4201DC0433E1E760681968D0F824C0BC
:10542000D1F824E00137F44588BF186004F1040482
:1054300088BF2160ECE759F827B00FB104F801AB41
:105440000422594603A8FDF757FDD8F874000368F5
:105450001B689847DBF824309BF92820C31A009278
:105460002046074903AA10F09DFC23461C4613F86A
:10547000012B002AFAD10137B6E700BF5C790200A0
:105480005379020070B504460D4610460649FBF7F5
:10549000D3FDFBF7ADFF294603B267222046BDE8E6
:1054A000704015F072BB00BF000020412DE9F041B3
:1054B0000546406F1F46036890461B68069C984748
:1054C000014605F51250383015F0EBFB48B354B3E4
:1054D0003B7805F5805686F8E83953B105F5CD508F
:1054E000621E791C083013F016FD10B9FF2386F8F0
:1054F000E839C6F8F088686F05F5C75403681834B2
:105500001B6898470949C6F8F40805F54E7305F578
:105510002972204610F046FC2046FCF72BF8083094
:10552000C0B2BDE8F0812046FBE700BF667902000B
:1055300070B590F8ED420546ACBB0A78104615F000
:1055400052FB70B30B7995F81C6303F03F039E4246
:1055500029D902F00306012E03D195F81D639E425E
:1055600021D902F03C02102A03D195F81E239A4259
:1055700019D905F50053D3F89034B3B195F8D13368
:1055800063B1012B0BD00A4A0A48022B08BF02461E
:10559000284615F05EFE80F00100C0B270BD064ADC
:1055A000F6E70120FAE70020F8E71846F6E700BF23
:1055B000F8050020FC050020000600202DE9F0433E
:1055C000044685B004200E46154698460D9F17F0F8
:1055D0001EF808B17D4B03600E9B42462946CDE97B
:1055E000010300970C9B2046FCF72CFF784B04F539
:1055F0008269236003F59C7304F58055C4E99D36E8
:10560000484615F005FBC5F8186800200026002163
:1056100004F51D73C5F8283804F5287804F5C1533E
:10562000C5F81C78C5F8209885F8E068C5F8248886
:10563000C3E9320104F5C550664910301CF005F984
:10564000C5F80C6B04F5CF550C3504F5D850294638
:10565000103001F0CFFB294604F5FE5001F0CAFBE3
:10566000782204F5005504F513570423C5F8AC243B
:105670002837B422C5F8B064A5F8B464C5F8C0648E
:10568000A5F8C464C5F8D064A5F8D4643E46C5F84E
:10569000A834C5F8B834C5F8BC24C5F8C834C5F872
:1056A000CC2404F5365930462C3612F0B7FE4E4560
:1056B000F9D104F5385000224749183014F0B7FDED
:1056C00000260022002304F51250C4E9A223C4E9F5
:1056D0009F66C4E9A4661022C5F8E464C5F8846D29
:1056E000C5F8806D314684F89862153085F8E0641D
:1056F000C5F8906485F894641EF0DFFDC5F8D864A1
:10570000C5F8DC6438462C3715F0DFFA4F45F9D17F
:105710004FF4B872002140461EF0CFFD2F4B0F22F0
:10572000C4F8A0322E4904F536701EF015FE0F2283
:105730002C4904F53E701EF00FFE2B4B0125C4F8DA
:10574000E83240F20753A4F81433162384F8EC32FD
:105750002F2384F8EF32254B2549C4F80C334FF042
:105760007C53C4F8F432234B84F8B653C4F808339E
:10577000214B84F80354C4F8183344F24003A4F8CE
:105780001C33082384F81E334FF49673C4F828336F
:1057900040F20113A4F8B03340F60F73A4F8B83305
:1057A0004FF6FF7384F80854A4F80A3404F52970FE
:1057B000FBF7D8FE0223204684F82C3384F8D1333B
:1057C00084F8CF5305B0BDE8F08300BF945B0200BE
:1057D000845E020049C501006E9B9A6A0000104178
:1057E000737F0200939302008D675944CDCC4C3EE9
:1057F0006E7702009A99993E00007A422DE9F043B3
:1058000000F5005898F8E0C406460F4614461D46B9
:1058100095B0BCF1000F04D015B0BDE8F04300F026
:10582000DBB81AB1511E11F8013F23B900232B70C8
:1058300015B0BDE8F083093BDBB2172B04D85B4AF7
:1058400022FA03F3DB07EED42246144612F8013B9A
:10585000202BFAD02046FBF78DFE04280AD9A37826
:105860007C2B07D12388033525F8033CA378033428
:1058700005F8013C082220464D491EF02DFD8146C9
:1058800000284AD10834202120461EF035FD074665
:1058900030B94849284615B0BDE8F043FBF762BE71
:1058A000204607F8019BFBF765FE02282AD84946E7
:1058B0001022204610F0BAFD5FFA80F93846FBF757
:1058C00059FE402828BF402044103A46214603A8EC
:1058D00013F048FCF8B12346CDF8009003AA06F572
:1058E000057106F5826001F037FA90B1D8F8E4341A
:1058F00033B941F28831304612F07AFAC8F8E4043C
:105900002D49C7E738461EF0E3FC27465FFA80F9C9
:10591000D4E72A49BEE72A49BCE7D7B92046294936
:10592000FBF716FE8046A0B906F2144406F5805631
:10593000D6F814389845BFF679AF94F8203023B1E3
:105940002022214603A8FDF7D7FA08F10108A03468
:10595000EEE7062220461C491EF0BEFC38B92A4656
:105960002146304615B0BDE8F04300F0BDB8122224
:10597000204616491EF0B0FC60B9113414F8013FFE
:10598000202BFBD00BB1124984E7304615F0E6FD21
:1059900010497FE72B462246394606F5C05018309D
:1059A00015B0BDE8F04301F06BBC00BF13008000F0
:1059B0006C7902007579020086790200897902000B
:1059C0009E790200AF790200C87A0200B77902001E
:1059D000CA790200F27902002DE9F04704468846B0
:1059E0001E4615461AB1511E11F8012FB2B904F521
:1059F000805504F5FE514FF4966205F531601EF0B6
:105A00004FFC002304F5005484F8E0343046B5F828
:105A10001A2B3349BDE8F04710F0C4B9093AD2B2A5
:105A2000172A03D82F4BD340DB07DDD42B46187839
:105A30001F4620289A4603F10103F8D0B7EB050969
:105A40000ED101F0EBF958B104F5005383F8E0945E
:105A50002A46334641462046BDE8F047FFF7CEBE12
:105A600055461AF8010B01F0D9F90028F8D12B7826
:105A70000BB128705546A84615F8013B0BB1462BD3
:105A8000F9D109F1FF33062B1ED83B78E3B104EBC3
:105A9000890909F50059D9F86C54ADB104F5D8500D
:105AA0003946103001F0D0F904F5FE542A88054635
:105AB00070B103883946204616F03AFB20B14DB14B
:105AC0002B790371C9F8700400233370BDE8F087A7
:105AD0000346EFE798F80030463B18BF0123F0E794
:105AE000177A02001300800000232DE9F04F0446CE
:105AF00087B00F46137015460B461E4632780133A9
:105B0000202AFAD00A223046AA491EF013FC0028A7
:105B100077D1B37A13F0DF0F73D106F10A031E4673
:105B200032780133202AFAD0304616F015F833784F
:105B300033B9A149284607B0BDE8F04FFBF712BDC5
:105B40004FF0000804F5D854103404F28C4933782F
:105B5000B246202B06F10106F9D063BBA0222946EC
:105B6000204607B0BDE8F04F16F092BB1FB13B785E
:105B70000BB99249DEE7B9F80020002359462046C8
:105B800016F0D6FA814640B95B468D4AA0212846D8
:105B900007B0BDE8F04F10F0DBB880F80480002FAC
:105BA000D5D03946204601F07FF981460028CED174
:105BB0003B46844AEAE753461A781E46013322B12F
:105BC000202AF9D186F800801E4653461A4613F85B
:105BD000017B6FB17C2F01D02C2FF7D182F8008090
:105BE0001F4613F8012B202AFAD0384615F0B4FFCF
:105BF000D3461AF8013B202BFAD0002BB6D17249BC
:105C000098E738462023042202A913F0CFFA01288E
:105C1000074609D104F5D850A0222946103016F0C5
:105C200037FB07B0BDE8F08F40F3AA81039E6749B8
:105C30003046FBF78DFC0146C0B904F58053B3F83C
:105C4000142BA3F8CA0F04F51150A3F8C42F343055
:105C50001C221EF032FB012204F5005304F51154FE
:105C60000C34C3F8704483F8E024DAE7304658492E
:105C7000FBF76EFCD0B9606F03681B689847236818
:105C8000C4F83003D3F8C03020469847D4F87C02DB
:105C900000F0F6F9014604F5D850103016F074F90A
:105CA0004C494D4B002808BF194643E7022F6FD0DF
:105CB00030464A49FBF74CFC70B904F5D8500499BA
:105CC000103001F0F1F828B1037923F001030371DA
:105CD00040492FE742492DE730464249FBF738FC5F
:105CE00058B904F5D8500499103001F0DDF80028B7
:105CF000F0D0037943F00103E9E730463A49FBF776
:105D000027FC58BB04F5D85410342046049901F000
:105D1000CBF806460028DDD04188204616F055FA1B
:105D20003379721D03F0010368B1018859B12F4C1A
:105D30002F49002B18BF2146431D009128462D49AD
:105D400010F030F86DE729492948002B18BF0846A4
:105D500029490346284610F025F862E730462749CE
:105D6000FBF7F6FB002851D104F5D8541034204637
:105D7000049901F099F806460028ABD00146204668
:105D800016F03EFA1E49721D284610F00BF848E73F
:105D900030461A49FBF7DCFB002840F0868004F50A
:105DA000D850103016F029FA10B1421D1549EBE712
:105DB000154AFBE7407A02004B7A02006C7A020037
:105DC0007D7A0200927A02005B7A0200A97A0200D0
:105DD000AE7A0200867902002E7A0200B37A0200BF
:105DE000BA7A0200CF7A0200F2890200939302008D
:105DF0004E870200D57A0200E17A0200E87A0200BA
:105E0000ED7A0200FD7A02005C8F020030465D49A7
:105E1000FBF79EFB002859D1DDF810805A49404617
:105E2000FBF796FB04F5D85706461037A0B9014694
:105E3000384616F0EFF904F51250102231461530AD
:105E40001EF03BFAD4F87C0200F01AF901463846FD
:105E500016F09AF84D496DE64146384601F024F8AF
:105E6000064638B9034602460499384616F060F9EA
:105E70000646C0B1002331463846337116F0CAF9E0
:105E800004F51252153201233146384616F0EFF868
:105E9000D4F87C0200F0F4F80146384616F074F8A5
:105EA0003B49721D70E73B4944E630463549FBF7F4
:105EB0004FFB002864D104F5D850103016F0A4F937
:105EC00010B1421D34495FE72F4AFBE730463349A2
:105ED000FBF73EFBD8B904F5D854032F04F11004A6
