:1000000068FA0220FDED000075A30300E9ED000091
:10001000E9ED0000E9ED0000E9ED0000E9ED000088
:1000200000000000000000000000000035EE0000AD
:10003000E9ED00000000000005F00000E9ED00001F
:1000400085F0000085F0000085F0000085F00000DC
:1000500085F0000085F0000085F0000085F00000CC
:1000600085F0000085F0000085F0000085F00000BC
:1000700085F0000085F0000085F0000085F00000AC
:1002600085F0000085F000004D11020085F00000CF
:1002700085F0000085F0000085F0000085F00000AA
:1002800085F0000085F0000085F0000085F000009A
:1002900085F0000085F0000085F0000085F000008A
:1002A00085F0000085F0000085F0000085F000007A
:1004800081F0004102E000BF83F0004330B54FEA45
:1004900041044FEA430594EA050F08BF90EA020FB2
:1004A0001FBF54EA000C55EA020C7FEA645C7FEA45
:1004B000655C00F0E2804FEA5454D4EB5555B8BF68
:1004C0006D420CDD2C4480EA020281EA030382EAD9
:1004D000000083EA010180EA020281EA0303362D6B
:1004E00088BF30BD11F0004F4FEA01314FF4801C3E
:1004F0004CEA113102D0404261EB410113F0004F50
:100500004FEA03334CEA133302D0524263EB430306
:1005100094EA050F00F0A780A4F10104D5F1200EA4
:100520000DDB02FA0EFC22FA05F2801841F10001FF
:1005300003FA0EF2801843FA05F359410EE0A5F1D3
:1005400020050EF1200E012A03FA0EFC28BF4CF004
:10055000020C43FA05F3C01851EBE37101F00045BA
:1005600007D54FF0000EDCF1000C7EEB00006EEBC7
:100570000101B1F5801F1BD3B1F5001F0CD3490851
:100580005FEA30004FEA3C0C04F101044FEA4452A8
:1005900012F5800F80F09A80BCF1004F08BF5FEA2F
:1005A000500C50F1000041EB045141EA050130BD0F
:1005B0005FEA4C0C404141EB0101013C28BFB1F521
:1005C000801FE9D291F0000F04BF01460020B1FA6C
:1005D00081F308BF2033A3F10B03B3F120020CDA3F
:1005E0000C3208DD02F1140CC2F10C0201FA0CF01D
:1005F00021FA02F10CE002F11402D8BFC2F1200C82
:1006000001FA02F120FA0CFCDCBF41EA0C01904037
:10061000E41AA2BF01EB0451294330BD6FEA040480
:100620001F3C1CDA0C340EDC04F11404C4F120026B
:1006300020FA04F001FA02F340EA030021FA04F37D
:1006400045EA030130BDC4F10C04C4F1200220FAD4
:1006500002F001FA04F340EA0300294630BD21FA12
:1006600004F0294630BD94F0000F83F4801306BFD8
:1006700081F480110134013D4EE77FEA645C18BFCC
:100680007FEA655C29D094EA050F08BF90EA020F63
:1006900005D054EA000C04BF1946104630BD91EA5B
:1006A000030F1EBF0021002030BD5FEA545C05D15E
:1006B0004000494128BF41F0004130BD14F580049D
:1006C0003CBF01F5801130BD01F0004545F0FE4111
:1006D00041F470014FF0000030BD7FEA645C1ABF46
:1006E000194610467FEA655C1CBF0B46024650EA7D
:1006F000013406BF52EA033591EA030F41F40021A9
:1007000030BD00BF90F0000F04BF0021704730B52E
:100710004FF4806404F132044FF000054FF0000103
:1007200050E700BF90F0000F04BF0021704730B5C4
:100730004FF4806404F1320410F0004548BF404299
:100740004FF000013EE700BF42004FEAE2014FEAEE
:1007500031014FEA02701FBF12F07F4393F07F4FC9
:1007600081F06051704732F07F4208BF704793F0CC
:100770007F4F04BF41F40021704730B54FF46074DF
:1007800001F0004521F000411CE700BF50EA0102E2
:1007900008BF704730B54FF000050AE050EA01028B
:1007A00008BF704730B511F0004502D5404261EBFB
:1007B00041014FF4806404F132045FEA915C3FF43C
:1007C000D8AE4FF003025FEADC0C18BF03325FEAD9
:1007D000DC0C18BF033202EBDC02C2F1200300FA8A
:1007E00003FC20FA02F001FA03FE40EA0E0021FAAF
:1007F00002F11444BDE600BF70B54FF0FF0C4CF49D
:10080000E06C1CEA11541DBF1CEA135594EA0C0F4E
:1008100095EA0C0F00F0DEF82C4481EA030621EA89
:100820004C5123EA4C5350EA013518BF52EA0335C4
:1008300041F4801143F4801338D0A0FB02CE4FF076
:100840000005E1FB02E506F00042E0FB03E54FF0A6
:100850000006E1FB03569CF0000F18BF4EF0010E9E
:10086000A4F1FF04B6F5007F64F5407404D25FEA9A
:100870004E0E6D4146EB060642EAC62141EA55514D
:100880004FEAC52040EA5E504FEACE2EB4F1FD0C8F
:1008900088BFBCF5E06F1ED8BEF1004F08BF5FEA0D
:1008A000500E50F1000041EB045170BD06F00046BF
:1008B00046EA010140EA020081EA0301B4EB5C046C
:1008C000C2BFD4EB0C0541EA045170BD41F4801164
:1008D0004FF0000E013C00F3AB8014F1360FDEBF89
:1008E000002001F0004170BDC4F10004203C35DA65
:1008F0000C341BDC04F11404C4F1200500FA05F3E8
:1009000020FA04F001FA05F240EA020001F0004288
:1009100021F0004110EBD37021FA04F642EB0601FE
:100920005EEA430E08BF20EAD37070BDC4F10C0428
:10093000C4F1200500FA04F320FA05F001FA04F2EC
:1009400040EA020001F0004110EBD37041F10001D8
:100950005EEA430E08BF20EAD37070BDC4F12005E3
:1009600000FA05F24EEA020E20FA04F301FA05F24B
:1009700043EA020321FA04F001F0004121FA04F2F3
:1009800020EA020000EBD3705EEA430E08BF20EAC3
:10099000D37070BD94F0000F0FD101F000464000FD
:1009A00041EB010111F4801F08BF013CF7D041EA7F
:1009B000060195F0000F18BF704703F00046520083
:1009C00043EB030313F4801F08BF013DF7D043EA54
:1009D0000603704794EA0C0F0CEA135518BF95EA0A
:1009E0000C0F0CD050EA410618BF52EA4306D1D191
:1009F00081EA030101F000414FF0000070BD50EAB0
:100A0000410606BF1046194652EA430619D094EA39
:100A10000C0F02D150EA013613D195EA0C0F05D123
:100A200052EA03361CBF104619460AD181EA030177
:100A300001F0004141F0FE4141F470014FF000002F
:100A400070BD41F0FE4141F4780170BD70B54FF0CA
:100A5000FF0C4CF4E06C1CEA11541DBF1CEA13554A
:100A600094EA0C0F95EA0C0F00F0A7F8A4EB05042C
:100A700081EA030E52EA03354FEA013100F0888023
:100A80004FEA03334FF0805545EA131343EA1263EC
:100A90004FEA022245EA111545EA10654FEA0026A1
:100AA0000EF000419D4208BF964244F1FD0404F55A
:100AB000407402D25B084FEA3202B61A65EB0305B6
:100AC0005B084FEA32024FF480104FF4002CB6EB73
:100AD000020E75EB030E22BFB61A754640EA0C00F3
:100AE0005B084FEA3202B6EB020E75EB030E22BF33
:100AF000B61A754640EA5C005B084FEA3202B6EB74
:100B0000020E75EB030E22BFB61A754640EA9C0032
:100B10005B084FEA3202B6EB020E75EB030E22BF02
:100B2000B61A754640EADC0055EA060E18D04FEAC0
:100B3000051545EA16754FEA06164FEAC30343EA60
:100B400052734FEAC2025FEA1C1CC0D111F4801F2D
:100B50000BD141EA00014FF000004FF0004CB6E726
:100B600011F4801F04BF01430020B4F1FD0C88BFC5
:100B7000BCF5E06F3FF6AFAEB5EB030C04BFB6EBD0
:100B8000020C5FEA500C50F1000041EB045170BDC3
:100B90000EF0004E4EEA113114EB5C04C2BFD4EBF0
:100BA0000C0541EA045170BD41F480114FF0000E74
:100BB000013C90E645EA060E8DE60CEA135594EAF0
:100BC0000C0F08BF95EA0C0F3FF43BAF94EA0C0FF3
:100BD0000AD150EA01347FF434AF95EA0C0F7FF468
:100BE00025AF104619462CE795EA0C0F06D152EABC
:100BF00003353FF4FDAE1046194622E750EA4106A0
:100C000018BF52EA43067FF4C5AE50EA41047FF4B0
:100C10000DAF52EA43057FF4EBAE12E74FF0FF3C15
:100C200006E000BF4FF0010C02E000BF4FF0010CE6
:100C30004DF804CD4FEA410C7FEA6C5C4FEA430C5F
:100C400018BF7FEA6C5C1BD001B050EA410C0CBFAE
:100C500052EA430C91EA030F02BF90EA020F002010
:100C6000704710F1000F91EA030F58BF994208BF77
:100C700090422CBFD8176FEAE37040F00100704734
:100C80004FEA410C7FEA6C5C02D150EA013C07D18B
:100C90004FEA430C7FEA6C5CD6D152EA033CD3D0D6
:100CA0005DF8040B704700BF8446104662468C46D0
:100CB0001946634600E000BF01B5FFF7B7FF002803
:100CC00048BF10F1000F01BD4DF808EDFFF7F4FF2C
:100CD0000CBF012000205DF808FB00BF4DF808EDB7
:100CE000FFF7EAFF34BF012000205DF808FB00BFDA
:100CF0004DF808EDFFF7E0FF94BF012000205DF8FC
:100D000008FB00BF4DF808EDFFF7CEFF94BF0120B0
:100D100000205DF808FB00BF4DF808EDFFF7C4FFA9
:100D200034BF012000205DF808FB00BF4FEA4102FC
:100D300012F5001215D211D56FF47873B3EB62522D
:100D400012D94FEAC12343F0004343EA505311F054
:100D5000004F23FA02F018BF404270474FF00000E6
:100D6000704750EA013005D111F0004008BF6FF024
:100D7000004070474FF00000704700BF4A0011D29A
:100D800012F5001211D20DD56FF47873B3EB6252E5
:100D90000ED44FEAC12343F0004343EA505323FAF1
:100DA00002F070474FF00000704750EA013002D166
:100DB0004FF0FF3070474FF0000070474FEA41029C
:100DC000B2F1E04324BFB3F5001CDCF1FE5C0DD9A9
:100DD00001F0004C4FEAC0024CEA5070B2F1004FF3
:100DE00040EB830008BF20F00100704711F0804FF6
:100DF00021D113F13872BCBF01F00040704741F4BB
:100E000080114FEA5252C2F11802C2F1200C10FABE
:100E10000CF320FA02F018BF40F001004FEAC123A2
:100E20004FEAD32303FA0CFC40EA0C0023FA02F346
:100E30004FEA4303CCE77FEA625307D150EA01331C
:100E40001EBF4FF0FE4040F44000704701F00040EC
:100E500040F0FE4040F40000704700BF80F00040CA
:100E600002E000BF81F0004142001FBF5FEA410382
:100E700092EA030F7FEA226C7FEA236C6AD04FEA82
:100E80001262D2EB1363C1BFD218414048404140C7
:100E9000B8BF5B42192B88BF704710F0004F40F479
:100EA000000020F07F4018BF404211F0004F41F495
:100EB000000121F07F4118BF494292EA030F3FD061
:100EC000A2F1010241FA03FC10EB0C00C3F1200374
:100ED00001FA03F100F0004302D5494260EB400003
:100EE000B0F5000F13D3B0F1807F06D340084FEA6E
:100EF000310102F10102FE2A51D2B1F1004F40EB63
:100F0000C25008BF20F0010040EA030070474900CA
:100F100040EB0000013A28BFB0F5000FEDD2B0FA67
:100F200080FCACF1080CB2EB0C0200FA0CF0AABF8A
:100F300000EBC25052421843BCBFD0401843704728
:100F400092F0000F81F4000106BF80F4000001322E
:100F5000013BB5E74FEA41037FEA226C18BF7FEA05
:100F6000236C21D092EA030F04D092F0000F08BF47
:100F70000846704790EA010F1CBF0020704712F02E
:100F80007F4F04D1400028BF40F00040704712F16D
:100F900000723CBF00F50000704700F0004343F0D2
:100FA000FE4040F4000070477FEA226216BF084608
:100FB0007FEA23630146420206BF5FEA412390EACB
:100FC000010F40F4800070474FF0000304E000BFC1
:100FD00010F0004348BF40425FEA000C08BF704772
:100FE00043F0964301464FF000001CE050EA010236
:100FF00008BF70474FF000030AE000BF50EA01024B
:1010000008BF704711F0004302D5404261EB410137
:101010005FEA010C02BF84460146002043F0B6435C
:1010200008BFA3F18053A3F50003BCFA8CF2083A81
:10103000A3EBC25310DB01FA02FC634400FA02FC8A
:10104000C2F12002BCF1004F20FA02F243EB020091
:1010500008BF20F00100704702F1200201FA02FCF3
:10106000C2F1200250EA4C0021FA02F243EB0200E6
:1010700008BF20EADC7070474FF0FF0C1CEAD0522A
:101080001EBF1CEAD15392EA0C0F93EA0C0F6FD0EB
:101090001A4480EA010C400218BF5FEA41211ED0C9
:1010A0004FF0006343EA501043EA5111A0FB0131B5
:1010B0000CF00040B1F5000F3EBF490041EAD3718A
:1010C0005B0040EA010062F17F02FD2A1DD8B3F106
:1010D000004F40EBC25008BF20F00100704790F075
:1010E000000F0CF0004C08BF49024CEA502040EAC7
:1010F00051207F3AC2BFD2F1FF0340EAC25070478D
:1011000040F400004FF00003013A5DDC12F1190FCA
:10111000DCBF00F000407047C2F10002410021FA3C
:1011200002F1C2F1200200FA02FC5FEA310040F154
:10113000000053EA4C0308BF20EADC70704792F0CD
:10114000000F00F0004C02BF400010F4000F013A05
:10115000F9D040EA0C0093F0000F01F0004C02BF00
:10116000490011F4000F013BF9D041EA0C018FE76F
:101170000CEAD15392EA0C0F18BF93EA0C0F0AD075
:1011800030F0004C18BF31F0004CD8D180EA01009B
:1011900000F00040704790F0000F17BF90F0004F34
:1011A000084691F0000F91F0004F14D092EA0C0F16
:1011B00001D142020FD193EA0C0F03D14B0218BFA9
:1011C000084608D180EA010000F0004040F0FE40EF
:1011D00040F40000704740F0FE4040F4400070478B
:1011E0004FF0FF0C1CEAD0521EBF1CEAD15392EA0A
:1011F0000C0F93EA0C0F69D0A2EB030280EA010CFA
:1012000049024FEA402037D04FF0805343EA111192
:1012100043EA10130CF000408B4238BF5B0042F1F0
:101220007D024FF4000C8B4224BF5B1A40EA0C0095
:10123000B3EB510F24BFA3EB510340EA5C00B3EBC7
:10124000910F24BFA3EB910340EA9C00B3EBD10FB5
:1012500024BFA3EBD10340EADC001B0118BF5FEA07
:101260001C1CE0D1FD2A3FF650AF8B4240EBC25030
:1012700008BF20F0010070470CF0004C4CEA5020F1
:101280007F32C2BFD2F1FF0340EAC250704740F440
:1012900000004FF00003013A37E792F0000F00F032
:1012A000004C02BF400010F4000F013AF9D040EAB0
:1012B0000C0093F0000F01F0004C02BF490011F444
:1012C000000F013BF9D041EA0C0195E70CEAD1533C
:1012D00092EA0C0F08D142027FF47DAF93EA0C0F23
:1012E0007FF470AF084676E793EA0C0F04D14B0207
:1012F0003FF44CAF08466EE730F0004C18BF31F0B9
:10130000004CCAD130F000427FF45CAF31F00043B2
:101310007FF43CAF5FE700BF4FF0FF3C06E000BF4B
:101320004FF0010C02E000BF4FF0010C4DF804CD6E
:101330004FEA40024FEA41037FEA226C18BF7FEA7E
:10134000236C11D001B052EA530C18BF90EA010F80
:1013500058BFB2EB030088BFC81738BF6FEAE1700F
:1013600018BF40F0010070477FEA226C02D15FEAAB
:10137000402C05D17FEA236CE4D15FEA412CE1D017
:101380005DF8040B704700BF844608466146FFE7DE
:101390000FB5FFF7C9FF002848BF10F1000F0FBDC0
:1013A0004DF808EDFFF7F4FF0CBF012000205DF8B9
:1013B00008FB00BF4DF808EDFFF7EAFF34BF01203E
:1013C00000205DF808FB00BF4DF808EDFFF7E0FFD7
:1013D00094BF012000205DF808FB00BF4DF808ED28
:1013E000FFF7D2FF94BF012000205DF808FB00BF8B
:1013F0004DF808EDFFF7C8FF34BF012000205DF86D
:1014000008FB00BF4FEA40024FEA41037FEA226C2B
:1014100002D15FEA402C08D17FEA236C02D15FEA57
:10142000412C02D14FF0000070474FF0010070478F
:101430004FEA4002B2F1FE4F0FD34FF09E03B3EBE1
:1014400012620DD94FEA002343F0004310F0004F21
:1014500023FA02F018BF404270474FF00000704777
:1014600012F1610F01D1420205D110F0004008BF16
:101470006FF0004070474FF00000704742000ED2FE
:10148000B2F1FE4F0BD34FF09E03B3EB126209D4BF
:101490004FEA002343F0004323FA02F070474FF075
:1014A0000000704712F1610F01D1420202D14FF0EA
:1014B000FF3070474FF00000704700BF7BB972B932
:1014C0000029BEBF00204FF0004106E008BF002801
:1014D0001CBF6FF000414FF0FF3000F057B8ADF186
:1014E000080C6DE904CE002909DB002B1ADB00F0A3
:1014F0007CF8DDF804E0DDE9022304B070474042E7
:1015000061EB4101002B1BDB00F06FF8DDF804E01C
:10151000DDE9022304B0404261EB4101524263EB3A
:1015200043037047524263EB430300F05EF8DDF87B
:1015300004E0DDE9022304B0404261EB4101704761
:10154000524263EB430300F050F8DDF804E0DDE9BC
:10155000022304B0524263EB4303704753B94AB9C4
:10156000002908BF00281CBF4FF0FF314FF0FF30AB
:1015700000F00CB8ADF1080C6DE904CE00F035F8C0
:10158000DDF804E0DDE9022304B07047704700BFD6
:1015900010F8012B11F8013B012A28BF9A42F7D01D
:1015A000D01A7047034611F8012B03F8012B002ACB
:1015B000F9D17047034613F8012B002AFBD1181A02
:1015C00001387047430803F05533C01A00F0333335
:1015D000800800F0333018444FF0013300EB101056
:1015E00000F00F305843000E70472DE9F0478C464D
:1015F0008E46089E154604461946002B40F0D080C2
:10160000724547D9B2FA82F74FB1C7F120030EFAFB
:1016100007FCBD40BC4020FA03F343EA0C0C4FEA40
:10162000154EA8B2230CBCFBFEF80EFB18CC08FB31
:1016300000F943EA0C43994528D9EB1808F1FF3229
:1016400004D2994502D9A8F102022B44A3EB090365
:10165000A4B2B3FBFEFC0EFB1C330CFB00F044EA0F
:101660000344A04214D92C190CF1FF3304D2A04238
:1016700002D9ACF102032C44241A43EA02401EB101
:10168000FC40002334607360BDE8F0874246DDE72C
:101690006346F1E7002A79D0B2FA82F3002B3FD0FB
:1016A0001946C1F1200302FA01F500FA01F42EFAFD
:1016B00003F20EFA01FE20FA03F3AFB243EA0E037F
:1016C0004FEA154EB2FBFEFC0EFB1C201A0C0CFB65
:1016D00007F842EA004290455AD9AA180CF1FF30A7
:1016E00004D2904502D9ACF102002A44A2EB0802D0
:1016F0009BB2B2FBFEFC0EFB1C220CFB07F743EA7D
:1017000002439F4246D9EB180CF1FF3204D29F42AC
:1017100002D9ACF102022B44DB1B42EA004202E098
:10172000AEEB020301224FEA154EAFB2200CB3FB21
:10173000FEFC0EFB1C330CFB07F840EA0343984504
:101740002AD9EB180CF1FF3004D2984502D9ACF13C
:1017500002002B44A3EB0803A4B2B3FBFEFC0EFB78
:101760001C330CFB07F744EA0344A74216D92C1993
:101770000CF1FF3304D2A74202D9ACF102032C448E
:10178000E41B43EA00400F46114678E71F2188E733
:101790006046ABE76246BFE76046DBE76346EFE7DC
:1017A000734506D916B9002108466DE7C6E9000E53
:1017B000F9E7B3FA83F787B9734501D3824207D8B3
:1017C000841A6EEB030301209C461EB900215BE7DF
:1017D0003846FAE7C6E9004CF8E7C7F1200CBB40F1
:1017E00000FA07F422FA0CF520FA0CF1BA401D4376
:1017F0002EFA0CF30EFA07FE4FEA154941EA0E01E4
:101800001FFA85FEB3FBF9F809FB18300B0C08FB37
:101810000EFA43EA00439A4540D9EB1808F1FF302D
:1018200004D29A4502D9A8F102002B44A3EB0A0383
:1018300089B2B3FBF9F809FB183308FB0EFE41EA45
:1018400003418E452CD9691808F1FF3304D28E4527
:1018500002D9A8F10203294443EA0040A1EB0E019A
:10186000A0FB02984145CE46434602D306D14C45E3
:1018700004D20138B9EB020E68EB0503002EA5D0A7
:10188000B4EB0E0261EB030101FA0CFC22FA07F340
:10189000F9404CEA0303C6E9003197E74046C5E743
:1018A0004346D9E7000000002DE9F04F8E070F46B0
:1018B00014468FB040F18F8031F05FFF002800F0B8
:1018C0008A8004A831F068FF002800F0848094F832
:1018D000C15094F8C03005F10A0898457BDADDE97B
:1018E0000401FEF75BFF98A3D3E90023FFF7AEF8EE
:1018F000FFF764FA9649FFF7BFFB00210646FFF7A2
:1019000059FD4FF07C5100286CD03046FFF7AAFA01
:10191000FFF78EFD8146DDE90601FEF73FFF8AA352
:10192000D3E90023FFF792F8FFF748FA8849FFF759
:10193000A3FB00210646FFF73DFD4FF07C51002838
:1019400054D03046FFF78EFAFFF772FD064608982E
:10195000FFF73EFB7F49FFF743FC7F49FFF78CFB16
:1019600000218246FFF726FD4FF07C51002841D030
:101970005046FFF777FAFFF75BFD01238822635596
:10198000EB18DBB2E254AB1CDBB24FEA2942E25463
:10199000EB1CDBB24FEA2922E2542B1DDBB204F828
:1019A00003906B1DDBB23214E254AB1DDBB232127A
:1019B000E254EB1DDBB2E65405F10803DBB202147E
:1019C000E25405F10903DBB202120B35E25484F84C
:1019D000C15004F808007D0700F1AC8001200FB071
:1019E000BDE8F08F3046FFF73FFA91E73046FFF74A
:1019F0003BFAA9E75046FFF737FABCE7404603F049
:101A0000D9FC80B909F101034D465FFA83F94046DC
:101A100004A903F0E1FC40B108F1010803F0C4FCA3
:101A20004045EBDCDAE70125F1E7BDF81070F80678
:101A30001DD5DDF824B051465846FFF7BBFC002801
:101A400073D158464549FFF7D3FC00286FD158465B
:101A5000FFF714FDFFF7B8FA0022CDE90162022278
:101A60000346009265212A46204631F0F0FEF90730
:101A70000AD502230A226721CDE9003220462A46F0
:101A8000059B029631F0E3FEBB070BD502234FF016
:101A9000000C2A46CDE9013C68212046069B0096B1
:101AA00031F0D5FE78070BD50A230021CDE90131AD
:101AB00002232A46009373212046079B31F0C7FE7C
:101AC0003A0709D502232A46009379212046CDE919
:101AD0000166089B31F0BBFEBB060AD502236420D9
:101AE0002A46CDE90030742120460A9B029631F047
:101AF000AEFE79060BD502234FF47A727521CDE93B
:101B0000003220462A460B9B029631F0A0FE3B068F
:101B100082D50023CDE9016302232A460093802168
:101B200020460C9B31F093FE76E7D3468FE74FF6C5
:101B3000FF708FE74FF000084FF0020901264FF0C9
:101B4000000A6BE7AFF300800000000065CDCD41D7
:101B500000401C4600007A440000C84200FF7F4756
:101B600030B50D46194640F201138FB00446CDE959
:101B70000135104610A3D3E90023FEF73DFEFFF721
:101B8000D5F80DA3D3E900230390DDE91201FEF798
:101B900033FEFFF7CBF80023049006A901A80593B4
:101BA00031F0F5FE06AA034604F50671204630F032
:101BB0004AF80FB030BD00BF0000000080842E4105
:101BC000F0B5072A054699B005D8062134F02EFC59
:101BD000012019B0F0BD002700F5B03484F860731F
:101BE00000F50436D6F8480886F8847018B137F046
:101BF000E6FCC6F84878002705F50730C6F84C78AB
:101C0000C6F85078C6F8047C083040F0BAF90123D1
:101C100086F8E63BA86E03681B68984705F506330F
:101C200000F6B830C3E9FA07284686F8007C37F09A
:101C300073F894F8DD327BB196F8003C63B9D6F8BE
:101C4000A03A4BB1284608F01DFE28B1A86F0368E2
:101C50001B689847C6F8A00A40F20513ADF8043097
:101C600094F8BC3102AE8DF80630162305F50E77D8
:101C70008DF8073005F50673324618685968083341
:101C800003C2BB421646F7D1D4E9680128A3D3E9C1
:101C90000023FEF7B1FDFFF749F825A3D3E90023A0
:101CA0000646D4E96601FEF7A7FDFFF73FF894F872
:101CB000E73194F898228DF8303094F80032CDE96D
:101CC0000A068DF8313094F89732D4F8B8019B00A9
:101CD00043EA021394F89622174913438DF83230E1
:101CE00094F8953204F5BA748DF83330FFF7C4F9DF
:101CF000FFF7C4FB10490D90606FFFF7BDF9FFF7C8
:101D0000BDFBB4F870300E901F212046ADF83C307A
:101D100043F0BFFD0646024621460DF13E0043F06A
:101D20001DFD284606F13A0201A934F066FB4FE793
:101D30000000000080842E4100007A440000000072
:101D4000082AF8B5044632D9481C34F057F91C4A21
:101D50001C4E0244B242034629D8481D34F04EF9C5
:101D6000194A0546904222DBB04220DC1846FEF7B5
:101D7000D9FC11A3D3E90023FEF768FE04F5B036C1
:101D8000C6E966012846FEF7CDFC0BA3D3E9002384
:101D9000FEF75CFEC6E96801D6F8480306F5B8719F
:101DA00007F084F8204634F036FB0120F8BD062108
:101DB000204634F03BFBF8E70000000080842E4111
:101DC000804A5D050095BA0A006B45F500000000E9
:101DD0002DE9F041151D06460F469AB028469E494A
:101DE0001C46FFF7D5FB30B99C4920461AB0BDE828
:101DF000F041FFF7D7BB0A222846994943F0E7FC98
:101E0000B8B9736993F88120964B1979914209D139
:101E10001B68954A0092954A4FF4807120462DF038
:101E2000B7F8B1E00130042803F10803EDD1904B7D
:101E3000EFE7072228468F4943F0C9FC80B9736950
:101E400093F882208C4B1979914202D11B688B4AFE
:101E5000E0E70130042803F10803F4D1844BF6E7EE
:101E60000F222846864943F0B2FC58B97369854A67
:101E700093F883304FF4807120461AB0BDE8F041EA
:101E80002DF086B8042228467F4943F0A0FC40B9D3
:101E9000736993F880207D4B7D49002A08BF0B466B
:101EA0002FE0062228467B4943F091FC58B973691C
:101EB00093F8300104F054F8054604F063F82B461B
:101EC000754A0090A8E715222846744943F07FFC24
:101ED00020B9736993F84F30714ACBE70F22284637
:101EE000704943F074FC20B9736993F84E305B007D
:101EF000F2E70E2228466C4943F069FC18B9736971
:101F000058336A4AB6E7DFB907222846684943F0E2
:101F10005EFCA8B9B0691C3603685B6D9847402227
:101F20000AA92FF050FC0AA90246304601F0E6FF4C
:101F300033464FF4807120465C4A2DF029F823E0A7
:101F4000042228465B4943F042FC10B9736904330C
:101F5000D7E706222846584943F039FC18B9736977
:101F600093F84D2097E703222846544943F02FFC6D
:101F700068B97369D3E90A23CDE90023504A4FF4C5
:101F8000807120462DF004F81AB0BDE8F0810322DC
:101F900028464C4943F01BFC18B97369D3E90C235C
:101FA000EAE710222846484943F011FC18B9736942
:101FB00093F87E3090E712222846444943F007FC0C
:101FC00018B9736993F87D3086E70922284640499D
:101FD00043F0FDFB18B9736993F87C307CE712225B
:101FE00028463C4943F0F3FB38B97369D86EFEF7D5
:101FF000ABFB394ACDE90001C1E70A22284637493F
:1020000043F0E5FB90B93E23224602F8023B202331
:10201000637071699B3111F8013F0BB91370B3E71D
:102020000A2B08BF7C2302F8013BF4E70B22284669
:102030002B4943F0CCFB00285CD1736993F8353110
:102040000BB92849D1E6012B01D12749CDE6022B56
:102050000CBF26492649C8E6ABB10400AEB1040066
:10206000D2B10400207C0400E4B10400DDB104001E
:1020700007A8040002B20400007C0400B2C80400F7
:102080000AB204001AB2040021B20400CEA804006F
:102090004CB5040026B204002DB2040037B204008F
:1020A00022AE04003DB204004DB20400A6A3040019
:1020B0005CB20400A7AD0400A8A50400A0A504001C
:1020C00064B20400A4A504006BB204007CB2040056
:1020D0008FB2040099B204001BAE0400ACB204003D
:1020E000B7B20400C3B20400C9B20400D3B2040002
:1020F000DEB204000A2228469D4943F068FB78B905
:102100009C492046FFF74EFAB06903685B6D98471B
:1021100020220146A01C1AB0BDE8F04101F0EEBE3D
:1021200004222846944943F052FB28B9B069036859
:10213000DB6898470346E4E60E2228468F4943F0C1
:1021400046FB08B98E4950E60D2228468D4943F0DA
:102150003EFB08B98C4948E6112228468B4943F0DA
:1021600036FBB0B935682B682846D3E9173798474E
:1021700001462846B8473668054633683046D3E9F5
:102180001937984701463046B8472B46804A009099
:1021900042E60D2228467F4943F019FB0028D9D09A
:1021A0000E2228467C4943F012FB50B930682022A9
:1021B00003680AA99B6B984708B10AABB9E677494F
:1021C00013E60E222846764943F001FB28BB30680F
:1021D0000368DB68984700210746FFF7E1F808B17C
:1021E000704902E6306803681B6898470546384620
:1021F000FEF7AAFA6DB16C4B6C4A1B681B88CDE9DF
:102200000001CDE902534FF4807120462CF0C0FE4E
:10221000BAE6CDE90001664AB1E6062228466549DC
:1022200043F0D5FA20B9736993F81631624A21E672
:102230000E222846614943F0CAFA08B96049D4E53C
:102240000C2228465F4943F0C2FA18B90BF042FA53
:102250000346EBE7092228465B4943F0B8FA18B970
:10226000736993F92331E1E708222846574943F07F
:10227000AEFA90B977B196F8E010C1F1A1013E2312
:10228000237020230239A01C63701AB0BDE8F0410E
:1022900003F044B84FF48071F1E70B2228464C4913
:1022A00043F095FA18B97369D3F88C3014E6082214
:1022B0002846484943F08BFA38B931F066FA0346AC
:1022C00000287FF409AE44498FE50322284643499C
:1022D00043F07DFA002840F08D8031F04EFA00285E
:1022E0003FF4AFAE07A831F05FFA9DF81C300AA8A2
:1022F000022B96BF3A4A3B4D52F8235031F04CFA2C
:10230000BDF81E6000B3DDE90C01FEF747FA16A325
:10231000D3E90023FEF79AFBCDE90401DDE90A01C8
:10232000FEF73CFA10A3D3E90023FEF78FFB089BCE
:10233000CDE90201CDE900634FF480712B462046C0
:10234000294A2CF025FE1FE6099B4BB1CDE900631D
:102350004FF480712B462046244A2CF019FE13E6D8
:102360002B46234A009657E50000000065CDCD417D
:10237000E7B20400E1AE0400F2B20400F7B20400D8
:1023800006B3040014B3040022B3040048B30400ED
:102390005AB3040074B3040082B3040091B3040080
:1023A0009BB30400AAB3040064770400CBB3040019
:1023B000F6B304000FB40400D4AE040016B4040055
:1023C00025B4040049B4040007AE040056B4040068
:1023D0005FB404006BB4040074B4040000A30400F0
:1023E000F47B040093B3040084B40400B8B4040084
:1023F000DEB404000B2228465C4943F0E8F930B90A
:10240000B0690368D3F880309847034664E50E222C
:102410002846574943F0DBF918B9736993F81C3122
:102420005AE509222846534943F0D1F9C8B9AFB15A
:1024300096F8E050C5F1A10529464F4A20462CF0F8
:10244000A7FD0146B0696A1A03682144D3F88830B1
:10245000984700287FF498AD4849C6E44FF480754A
:10246000EAE708222846464943F0B1F928B97369DA
:10247000444993F81A21444B0FE50A222846434960
:1024800043F0A5F918B9736993F91B31CEE60B2215
:1024900028463F4943F09BF938B9736993F81D31D9
:1024A000002B7FF419AD3B499FE428463A49FFF7DA
:1024B0006FF808B9394998E408222846384943F0AA
:1024C00086F9002847D00C222846364943F07FF988
:1024D000002848D1B0690368D3F89830984705467A
:1024E0000028B9D0002F3BD096F8E070C7F1A107C3
:1024F000706803681B689847804636F015FE73695C
:102500004FF47A7293F81931003B18BF01230193FD
:102510000023FEF7D3FF434600903A462146284663
:1025200003F010FA30E5204A3846002D18BF424625
:102530001E492CF057FD0135032D07443FF424AD0F
:1025400073692B4493F81E31002BECD1002D7FF4DE
:102550001BAD174949E427460546DFF85880EFE7E9
:102560004FF48077C4E72B46134A83E4FBB404009E
:1025700007B5040016B50400E1AE04006CAB04001E
:1025800020B50400CEA804004CB5040029B5040011
:1025900034B5040040B5040011AD04004AB5040090
:1025A0004FB50400B1AB0400B2C8040058B5040034
:1025B0005DB5040056A7040074B5040000000000D7
:1025C000012208B50A4B0B481A7007A3D3E9002370
:1025D00028F0EAFC084B1B781BB1BDE808400AF064
:1025E000D9BB08BDAFF30080389C1C000000000080
:1025F0006BA5022078000020800B00200000000066
:10260000F7B5002240F6034011460EF019FA0446D1
:10261000002853D10DF0D8FE214641F2030001AA53
:102620000EF00EFA0446002848D1019ABD4DD1683B
:1026300005F17803D1F80100D1F8051003C3104665
:102640000DF092F8214641F2010001AA0EF0F8F9CE
:10265000044698BB0198C3685A7885F86F205A8859
:10266000A5F872201A7985F87020B3F80720A5F82C
:102670007420B3F80530A5F876300DF075F82146D2
:1026800041F2020001AA0EF0DBF90446B0B9019F45
:1026900005F18006FA68531C4132344618685968BF
:1026A000083303C493422646F7D138460DF05CF850
:1026B00095F87C305E0607D46FF0120420460EF0C9
:1026C00027F9204603B0F0BD002142F2030001AA21
:1026D0000EF0B6F904460028F0D1019B924EDA685C
:1026E000D2F80100D2F8051003C618460DF03CF8E8
:1026F000214642F2020001AA0EF0A2F90446002887
:10270000DCD1019CE368B3F8012091B249B1D978DA
:1027100039B1A5F8E820DA78114606F10C003FF04F
:102720004BFB20460DF020F81F2395F87C60A5F8A0
:10273000043116F0200619D14FF0FF304FF0FF3171
:102740000EF07EF80446002800F0098102210C30CA
:1027500037F0DEFE0123214603704670324640F614
:102760006D400EF06DF904460028A7D195F89C3015
:102770001C0712D5002142F21C0001AA0EF060F9DC
:10278000044600289AD10198C368D3F80120D3F8F1
:102790000530C5E938230CF0E7FF95F8D830580626
:1027A0000FD5002142F22A0001AA0EF049F9044691
:1027B000002883D10198C3685B7885F806310CF056
:1027C000D3FF4FF0FF304FF0FF310EF039F80646DF
:1027D000002800F0C48008210C3037F099FE95F8ED
:1027E000D84040F2022314F0400F08BF0323A10792
:1027F00095F8D9104CBF43F02C0343F00C03A70607
:1028000048BF43F0400311F0090F18BF43F40063C1
:1028100004F001040246002143EA041038F040FDB0
:102820000022314642F201000EF00AF90446002867
:102830007FF444AF95F87C30B5F8E81098066CD476
:10284000C9B941F2050001AA0EF0FAF804460028C1
:102850007FF434AFB5F8E830019C4BB9E368B3F8C6
:102860000120A5F8E8209A88304811463FF0A4FAE4
:1028700020460CF079FF4FF0FF304FF0FF310DF0A4
:10288000DFFF044600286AD008210C3037F040FEF4
:1028900095F8D8300246D9074ED44FF0005124485D
:1028A00038F0FEFC2146002240F601400EF0C8F848
:1028B000044600287FF402AF014601AA4FF601400A
:1028C0000EF0BEF8044688B901980CF04DFF214681
:1028D0004FF6024001AA0EF0B3F838B90198C36868
:1028E000B3F80130A5F8C0300CF03EFFEB793BBBEC
:1028F0000EF0E4FE044600287FF4E0AE10F0FEF88F
:10290000044600287FF4DAAEEB79002B3FF4D9AE11
:102910002021084838F0E9FBD0E60029ABD16FF060
:102920000404CBE608010020E0010020F4010020AF
:1029300010880002DC01002018A1D1E90001AFE7F6
:102940002E78002ED4D195F8C0309B061ED54FF0BE
:10295000FF304FF0FF310DF073FF044610B96FF0F8
:102960006804ABE606210C3037F0D2FDD5F8013013
:1029700021460360084B32469B8883804FF6064011
:102980000EF05EF804460028B2D097E66FF085049A
:1029900094E600BFAFF30080090100209088000298
:1029A00000800020000000001BA3D3E900230021C9
:1029B000C0E900231AA3D3E90023C0E902231AA324
:1029C000D3E90023C0E9042319A3D3E90023C0E914
:1029D000062319A3D3E90023C0E9082318A3D3E9E8
:1029E0000023C0E90A2318A3D3E90023C0E90C237C
:1029F00017A3D3E90023C0E90E2300220023C0F867
:102A0000D010C0E93023C0E932238022403042F0A8
:102A1000CBBE00BFAFF3008008C9BCF367E6096A0C
:102A20003BA7CA8485AE67BB2BF894FE72F36E3C5D
:102A3000F1361D5F3AF54FA5D182E6AD7F520E51BA
:102A40001F6C3E2B8C68059B6BBD41FBABD9831F74
:102A500079217E1319CDE05B31F000432DE9F04F71
:102A6000814687B00E4607460C460DD180F480079C
:102A70007F0017F5000F40F2578331464846FEF7B6
:102A8000F3F907B0BDE8F08F20F000480146B8F137
:102A9000FF4F02D8B3F1FF4F08D9B7F17E5FECD1F9
:102AA00084F48004640014F5000FE4E7002823DABE
:102AB000B3F1974F80F03D83B3F17E5F36D3DA15E3
:102AC000C2F1960243FA02F505FA02F29A4225D1C2
:102AD00005F00105C5F10205B3F17E5F27D1002C99
:102AE0007EDA00214846FEF75BFCC8B1F80F07B05C
:102AF000BDE8F04F2EF0D6B8B3F1FF4F0ED1B8F1CC
:102B00007E5F00F0118304D9002C80F21083002036
:102B1000B7E7002CFBDA06F10040B2E70025DBE75F
:102B200049464FF07E50FEF75BFBAAE70025B4F163
:102B3000804F424640F00383B8F1BF4F20D2B8F136
:102B4000D05F04D949464846FEF796FA99E729F03E
:102B50000040B8F1000F40D0F90F0139039129432B
:102B600024D0B3F19A4F40F2D780654B984539D8BD
:102B7000002C3CDA002007B0BDE8F04F2EF08AB8F8
:102B800027F0404C29F00040BCF17E5F1AD1002CA8
:102B900004DA01464FF07E50FEF722FB002FBFF60D
:102BA00070AFA8F17E5858EA050805D1484607B02D
:102BB000BDE8F04F2EF07EB8012D7FF462AF00F13A
:102BC00000405EE7B8F1000FC6D1002C05DA17B15E
:102BD0006B1E59425941084689E7012D7FF451AFD8
:102BE00048464EE7474B984507D9002CC2DC0020E9
:102BF00007B0BDE8F04F43F0D2B84FF07E51FEF77A
:102C000031F907464049FEF737FA404981463846D0
:102C1000FEF732FA804638A1D1E90001FEF7CEF87E
:102C200082464FF07A513846FEF726FA0146504662
:102C3000FEF718F93946FEF71FFA01464FF07C50AF
:102C4000FEF710F9824639463846FEF715FA014676
:102C50005046FEF711FA2E49FEF70EFA014640469D
:102C6000FEF700F9014680464846FEF7FDF820F4DD
:102C70007F67494627F00F073846FEF7F3F801460D
:102C80004046013DFEF7EEF8039B6FF30B048046D0
:102C90001D433046214614BF4FF07E551D4DFEF7B3
:102CA000E1F83946FEF7E8F9814631464046FEF73D
:102CB000E3F901464846FEF7D7F80646214638466E
:102CC000FEF7DAF9014607463046FEF7CDF8002850
:102CD0000446804620F0004340F34481B3F1864F20
:102CE00040F22D8100212846FEF764FB003818BF12
:102CF000012040E7AFF30080E13D55555555D53FE4
:102D0000F3FF7F3F0700803F00AAB83F70A5EC3675
:102D10003BAAB83F000080BF17F0FF4F40F00B8187
:102D20004FF09741FEF7A8F96FF017010246D3154F
:102D3000C2F316027F3B0B4495498A42029342F04C
:102D40007E5308DD93498A4240F3F780029AA3F547
:102D500000030132029200278F4A9A4618460493D4
:102D600052F827B05946FEF77DF85146814658463D
:102D7000FEF77AF801464FF07E50FEF731FA014631
:102D800005904846FEF778F90190019B83496FF35F
:102D90000B039846049B01EA6303414643F000534A
:102DA00003F5800303EB475318460493FEF764F9D9
:102DB00001464846FEF756F8049B81465946184698
:102DC000FEF750F801465046FEF74CF84146FEF734
:102DD00053F901464846FEF745F8059A1146FEF7B5
:102DE0004BF9019983460846FEF746F96C4981463E
:102DF000FEF742F96B49FEF737F84946FEF73CF912
:102E00006949FEF731F84946FEF736F96749FEF79A
:102E10002BF84946FEF730F96549FEF725F8494693
:102E2000FEF72AF96349FEF71FF8824649464846ED
:102E3000FEF722F901465046FEF71EF9414681464B
:102E40000198FEF711F85946FEF716F94946FEF7C4
:102E50000BF8414682464046FEF70EF9564904906B
:102E6000FEF702F85146FDF7FFFF20F47F69414667
:102E700029F00F094846FEF7FFF84F4980464846BB
:102E8000FDF7F0FF0499FDF7EDFF01465046FDF711
:102E9000E9FF0199FEF7F0F8824649465846FEF7E9
:102EA000EBF801465046FDF7DFFF834601464046FA
:102EB000FDF7DAFF20F47F69404929F00F09484601
:102EC000FEF7DAF8414682464846FDF7CBFF014659
:102ED0005846FDF7C7FF3A49FEF7CEF88046394914
:102EE0004846FEF7C9F801464046FDF7BDFF364BA0
:102EF00053F82710FDF7B8FF80460298FEF768F8F0
:102F0000324B8146414653F827B05046FDF7ACFF9F
:102F10005946FDF7A9FF4946FDF7A6FF20F47F6754
:102F2000494627F00F073846FDF79CFF5946FDF745
:102F300099FF5146A1E60021F9E601270CE74BD1A4
:102F400023493046FDF790FF814639462046FDF77C
:102F500089FF01464846FEF74BFA00287FF4C2AECF
:102F600086233EE01B4A934207D900212846FEF7FC
:102F700021FA003818BF01203AE62DD13946FDF775
:102F800071FF3146FEF72AFA0028E9D0EDE700BFCD
:102F900071C41C00D6B35D00909D040000F0FFDFFB
:102FA00042F1533E55326C3E05A38B3EABAAAA3E7E
:102FB000B76DDB3E9A99193F000040400040763FD4
:102FC0004F38763FC623F6B8809D0400889D0400E4
:102FD0003CAA383300001643B3F17C5F40F2A08076
:102FE000DB157E3B4FF400045B49B8F1000F44FA57
:102FF00003F438464444C4F3C753A3F17F0341FAB2
:1030000003F1C3F1170301EA0401C4F3160444F405
:10301000000444FA03F4B8BF6442FDF723FF0746F7
:1030200031463846FDF720FF20F47F694B4929F0EF
:103030000F094846FEF720F8394680464846FDF716
:1030400011FF01463046FDF70DFF4549FEF714F824
:10305000064644494846FEF70FF801463046FDF75C
:1030600003FF074601464046FDF7FEFE4146064681
:10307000FDF7F8FE01463846FDF7F4FE314680467E
:103080003046FDF7F9FF38490746FDF7F5FF3749A8
:10309000FDF7E8FE3946FDF7EFFF3549FDF7E4FEA1
:1030A0003946FDF7E9FF3349FDF7DCFE3946FDF708
:1030B000E3FF3149FDF7D8FE3946FDF7DDFF014654
:1030C0003046FDF7CFFE074601463046FDF7D4FFF8
:1030D00081464FF080413846FDF7C4FE0146484620
:1030E000FEF77EF8414607463046FDF7C5FF4146EC
:1030F000FDF7BAFE01463846FDF7B4FE3146FDF74E
:10310000B1FE01464FF07E50FDF7ACFE00EBC4531C
:10311000B3F5000F06DA21462DF05EFD294613E5D2
:1031200000247DE71846F9E74FF07E50A9E43046C9
:10313000A7E4B3F1FF4F3FF4E2AC42460225B4F1FD
:103140007C5F7FF41DAD002FFFF61AAD484607B037
:10315000BDE8F04F42F0B8BE000080FF0072313F82
:103160001872313F8CBEBF354CBB31330EEADD35B2
:1031700055B38A38610B363BABAA2A3E002110B505
:103180000446074B4FF4C072C0E96011C0E96211F8
:10319000C0F89011C0F8943142F006FB204610BDF3
:1031A000CDCC4C3E024630B553880178082B28BF61
:1031B00008230B48C1F383010A4C4840604302F1E5
:1031C0004901C2F1FF2202F57F02B7325518AB4226
:1031D00000DC30BD11F8015F68406043F6E700BFD6
:1031E000C59D1C81930100012DE9F04104460D4667
:1031F0000746002642F210783B7B3BB17B68EB1A16
:10320000434503D9314620462DF06CFD0136182E7A
:1032100007F11007F0D1D4F88C3133B3154AEB1A0B
:10322000934222D9D4F88431FBB1D4F8903123B938
:10323000A5F59C53083BC4F8903141F2873641F222
:10324000883003F51C414031EA1AB2420BD9D4F858
:10325000842142B10344A2EBD2028B42C4F8842100
:10326000C4F89031F0D1BDE8F0810023C4F890316A
:10327000F9E700BFE093040070B50346024600F58D
:10328000C0766FF00040C1F51C551135147B34B188
:1032900054682C4424EAE474A04228BF204610322B
:1032A000B242F3D1D3F88C2192B1D3F884417CB1EE
:1032B0000D4C8D1AA5420CD9D3F890312BB1C1F524
:1032C0009C5108310B4423EAE373984228BF184607
:1032D00070BDC1F5922101F2E131114421EAE171A1
:1032E000884228BF0846F3E7E093040010B5D0F801
:1032F0008831032B26DDD0F88401FDF765FE4FF001
:103300006E51FDF7B9FE00210446FEF75DF8E0B905
:103310004FF081412046FDF7A7FD01462046FDF70D
:103320005FFF0B49FDF7A8FE0A49FDF79DFD4FF031
:103330007E510446FEF75CF810B14FF07E5010BD90
:103340002046FCE74FF07C50F9E70248F7E700BF62
:103350009A99193FCDCCCC3E00487047B2C80400C2
:103360000048704780EE360030B5C0E91912C366D8
:10337000012200230E4DC0E90433C0E90633C0E941
:103380000E33C0E91233C0E90A33C0E90C33C0E997
:103390001533C0E917330560436080F84430036497
:1033A000A0F87030036280F82420A0F8503030BDBF
:1033B000E072040070B5B8B001460446684640F0BB
:1033C0006DFC9DF80030013BDBB2FD2B38D8274B5C
:1033D00028AA03F14006154618685968083303C542
:1033E000B3422A46F7D1224B08AA03F1200615461C
:1033F00018685968083303C5B3422A46F7D108A9AB
:1034000020A829F039F9214620AA10A840F0F2FBA3
:10341000694620A829F030F920AA28A918A840F068
:10342000E9FB202218A910A82FF0EDF8044658B99E
:10343000202110A82FF023F9202118A82FF01FF920
:103440000024204638B070BD002310A911F8012BCC
:103450001AB90133202BF9D1144610A820212FF0DE
:103460000EF9202118A82FF00AF9EAE7609E04005F
:10347000A19E04002DE9F04F0A78054602F00303EF
:10348000023B012B0C46F3B070D802F03C06242E10
:103490000B795BD13F2B1CD84E88082E19D991F897
:1034A0005270093E07F003029340F6B21FFA83FC04
:1034B000664510D801F153020368029201F10A0235
:1034C000CDE9007203961D6ED1F84A20D1F84E3036
:1034D000A847002037E00121533301FA02F200F53A
:1034E0000671E01842F073F90028F2D12B682146EA
:1034F00028465B6C98470028EBD0E86F21460368AC
:103500001B6898470028E4D1E86F214603685B6890
:10351000984794F90201FDF75BFD4FF07A51FDF7F2
:10352000ABFD4FF08141FDF7A7FDFDF781FF23794A
:1035300021465A1C2344227198722B682846DB6C62
:10354000984740F0C06073B0BDE8F08F2C2E03F0B8
:103550003F030AD191F94A60002E80F2B782002B16
:10356000B7D103685B6F9847B3E76BBB10462EF08B
:1035700048FA002840F080802378C3F383020F2AA2
:10358000A7D801A151F822F023370000233700000B
:1035900023370000E136000063390000D73800000F
:1035A000D73800005338000023370000D334000020
:1035B0004D3A0000D3340000D3340000D33400006F
:1035C000D33400001D3A00000C2E08D14B88032B89
:1035D00005D90368D1F84A20D3F884309847227976
:1035E00005F506719209013204F10A0042F0EFF884
:1035F00000287FF46EAF2B68214628465B6C984705
:1036000000283FF466AF2378C3F383030A2B04D169
:10361000214628462EF0DEFC5BE7E86F032B0268AC
:103620002146126813D19047064600287FF451AF17
:10363000E86F214603685B689847214628462EF0CC
:103640009CFA3246214628462EF06DFC41E7904711
:1036500000287FF43EAFE86F214603685B68984717
:10366000214628462EF089FA2B6821462846DB6C35
:10367000984740F0807066E72B68214628461B6C0F
:10368000984700287FF425AF20782EF0BAF900285B
:103690003FF472AF2046FFF785FD0646A86E05F1A0
:1036A000800703681B6898473146024638462DF06C
:1036B0005FFB20B1314628462EF0BDF95CE72B6850
:1036C00028469B6B984700283FF456AFA86E0368C6
:1036D0001B6898473146024638462DF023FB4BE7DE
:1036E0006388032B7FF6F5AEE86F21460368D4F8B4
:1036F0004A601B68984700287FF4EBAEE86F2146CC
:1037000003685B6898472B68324621462846D3F801
:10371000843098472146284673B0BDE8F04F2EF01C
:103720004CBA94F84B300DF1200A8AF800306388C7
:1037300094F84A70042B7FF6CCAEE86F21460368FC
:103740001B689847064600287FF4C3AEE86F214601
:1037500003685B68984795F81832BB4268D12B68BC
:10376000514628465B6D9847814604F14C0B10AFDB
:103770000DF1C408B1455BDD2B6832463946284659
:103780009B6D984763885A46023B414638462EF067
:1037900051FF031E5BDD2278C2F38302082A4CD15D
:1037A00098F80090079348462EF094FD00283FD0EB
:1037B0004FEA991109F03F0201FB0222079B501CBE
:1037C000834235DD02329B1ADBB242442968039200
:1037D000049318F800300DF1C50803F00F03CDE98C
:1037E0000193CDF80080D1F864B03B4632462146C3
:1037F0002846D847D0B120782EF003F9B0B1002385
:10380000CDE9023301932379514600933A46284685
:1038100004F10A032EF06AFA014638B14FF4FA7344
:103820004246009328464B462EF0C6FCFF232370E9
:10383000214628462EF0C1F985E62968CDE90183A5
:103840000097CF6D334621462846B847EEE701364C
:1038500090E76388232B7FF63CAEE86F2146036830
:1038600094F84A601B68984700287FF432AEE86FEE
:10387000214603685B68984795F81832B3427FF495
:1038800049AF04F14B0608AA04F16B0713463068F0
:103890007168083603C3BE421A46F7D108AA10A9B8
:1038A00005F506702EF060F8638831AF3246394670
:1038B000213B10A82EF0BEFE00287FF72BAF2B680F
:1038C000CDE900702146DE6E284608AB10AAB0474D
:1038D000FF2323701EE794F84A3008AF3B706388DB
:1038E000032B7FF6F6ADE86F214603681B68984707
:1038F000064600287FF4EDADE86F214603680DF120
:1039000040095B6898472B683946D3F87C804A4663
:1039100004232846C047074604F14B0A0DF141082D
:103920000DF1C40BB74283DD6388404652465946C9
:10393000013B2EF07FFE002808F121080FDD2B68E7
:103940002278CDE900B006EB4616D3F88070214608
:10395000284609EB0603C2F38302B84768E701363D
:10396000E0E710A82DF0CBFE10AE04F14A0304F1FD
:103970006A07324618685968083303C2BB421646C4
:10398000F7D16388632B7FF6A4AD202210A905F53B
:10399000067041F01CFF00283FF49BADE86F214604
:1039A0000368D4F86AA01B68984700287FF491AD9B
:1039B000E86F0DF1C409036821465B684E469847DD
:1039C000B4F8028010AFA8F16408B8F1200FA8BFC6
:1039D0004FF020080FCF0FC697E80F0004F1AE0B91
:1039E00086E80F00424659463AA8CDF8E4A041F0D7
:1039F000B5FE4A4608F1240304F16E0110A82DF02B
:103A000086FE00283FF465AD2B68CDE900B821465D
:103A10009E6E2846534610AAB04709E703F00303F9
:103A2000023B012B3FF655ADE86F214603681B684A
:103A3000984700287FF44DADE86F214603685B6826
:103A400098472B68214628469B6F8CE56288022A9E
:103A50007FF63FAD94F84A3003F00F03032B7FF459
:103A600038AD042A7FF635AD31AE30462EF02DFC50
:103A7000237840228DF8C43004F10A0123790DF136
:103A8000CE002EF048FC62888DF8C800013A92B250
:103A900004F14B010DF58770ADF8C62041F05EFED4
:103AA000E86F314603681B68984700287FF411AD22
:103AB000E86F314603685B6898472B6831462846B3
:103AC000D3F88430DDF80E21984702E5002B3FF44F
:103AD0004DAD84E538B50B4B1C786CB901220A4D0D
:103AE0001A70002329461A46084801342EF0F6FCC5
:103AF000202C05F58275F4D10021BDE8384003483B
:103B00002EF0C8BCEEA402205C830220B44D02203B
:103B1000014BD3F820017047904C0220014BD3F8A1
:103B200020017047B44D022001482EF0B3BC00BF05
:103B3000904C0220044BD3F820219142BABF283187
:103B400053F8210000207047904C0220054BD3F819
:103B500020018142BDBF2831012043F821200020EF
:103B6000704700BF904C022021B1002302481A4642
:103B70002EF0B4BC704700BFB44D02200022FF20DD
:103B800070B50A4BD3F8206103F19C058033B24233
:103B900000DB70BD55F8044F641A002C03DC9C5CFC
:103BA000A04228BF20460132F1E700BF904C02201E
:103BB0002DE9F0470546904699460F4699B31B4EAE
:103BC00030462EF08BFC044668BBD6F8200118B3B3
:103BD0002146234606F17F0CA04214DC0E4496F8E1
:103BE0008030434518D911482EF054FC2B6801460B
:103BF0005B68284698474B4642463946BDE8F04741
:103C00000A482EF06BBC1CF8012F9A4234BF1A46AA
:103C1000214613460134DFE72B6839462846BDE8C4
:103C2000F0475B681847BDE8F08700BF904C022062
:103C3000F0B400230C46FF204FF0FF310E4AD2F8BB
:103C4000207102F19C068032BB4205DB4B1C0FD079
:103C5000F0BC09482EF01EBC56F8045F2D1B002D49
:103C600004DCD55C85423CBF194628460133EBE7AE
:103C70000020F0BC704700BF904C022030B50A4BCA
:103C80004A1CD3F820510DD0002210469C33AA4282
:103C900000DB30BD53F8044F0132641A002CD8BF4A
:103CA0000130F4E72846F4E7904C0220002907DBB6
:103CB000044BD3F82021914202DA53F821007047D7
:103CC00000207047904C022038B500240D4D281973
:103CD00004F582742EF0F9FAB4F5025FF7D10024EE
:103CE000094B214680221846C3F8204141F05CFD73
:103CF000064B2146C3F820411846BDE838408022D3
:103D000041F052BD5C830220B44D0220904C022051
:103D10002DE9F0430D468DB012F00F018046144698
:103D20001E469DF8509004D04FF0FF300DB0BDE816
:103D3000F083184B142207A8069341F035FDB9F122
:103D4000000F0CBF4FF400734FF48073124F0893B1
:103D50001022414604AB06A8099740F089FB0028D1
:103D6000E2D105ABCDE901432A4623463946049802
:103D70000096B9F1000F09D029F070F904460498B3
:103D800040F0ACFA002CCFD10598CFE729F002FA29
:103D9000F4E700BF00248000004440042DE9F04116
:103DA00094B007460C4616460021142207A81D466B
:103DB00041F0FAFC4FF48853ADF818304FF480739B
:103DC000ADF81A304FF48063DFF84C802022CDE943
:103DD0000838394604AB06A840F04AFB28B14FF03A
:103DE000FF34204614B0BDE8F08105AB02932023D8
:103DF00001930CAB2246009341463346049840F0B1
:103E0000E6FC0446049840F069FA002CE7D1BDF8BE
:103E100030302B80E5E700BF0900800330B58DB05E
:103E20000D4611461A4603AB019320230446009326
:103E30000A4804AB40F0FBFB2A4630B10021204683
:103E40000DB0BDE8304041F0AFBC202D28BF20228E
:103E5000204604A941F082FC0DB030BD09000002EB
:103E60002DE9F043A7B00446DDE92E890D4616463C
:103E7000002170220AA81F4641F096FC16490AA8A4
:103E800040F086FBE8B93A4631460AA840F0A1FB6B
:103E9000B8B94A4641460AA840F09BFB88B920229F
:103EA00001AB02A90AA840F0ABFB50B9202D2A466D
:103EB000204628BF202202A941F050FC27B0BDE8CF
:103EC000F0830AA840F055FB2A460021204627B07F
:103ED000BDE8F04341F068BC0900000208B5054B9D
:103EE000002814BF01461946034835F066FD01203D
:103EF00009F00CFFC29E0400CE9E04000346F0B5FC
:103F00000A4D8E18B14203F1020303D1002300F8D9
:103F10001230F0BD11F8014B270904F00F04EF5DDA
:103F20002C5D03F8027C03F8014CEBE73CCB04006A
:103F30002DE9F04105460C46DFF830808F18BC4271
:103F400001D1BDE8F08114F8016B2B68320918F833
:103F5000021028469B6898472B6806F00F062846F3
:103F60009B6818F806109847E9E700BF3CCB0400AF
:103F700000487047EE9E040008B510460249FDF760
:103F800011FB002008BD00BFF79E040030B50022E1
:103F9000702113488BB001F0B3FE041E104D19DDE3
:103FA00022462846691C41F0E6FB013C02A801F0CC
:103FB00087FF60B16F2C0ADC039B0A4A019305ABB3
:103FC0000093C4F17001029B28192AF0E1FF044814
:103FD0000BB030BD28460449FDF7E4FA0724E5E7B5
:103FE000EFA402202D9F0400259F040037B5124C3A
:103FF00020463DF093FC10B9104803B030BDA568D1
:104000004E212046EB6898470028F5D10C216A46DE
:1040100020462B6998470028EED10198FCF7D8FF7D
:104020000749FDF7DDF804460098FCF7D1FF01468B
:104030002046FCF719FFE0E7006204000000C07FA3
:104040000024744970B504464FF0FF324FF0FF333F
:10405000134826F091FB3EF0F9F84FF47A75A0FB77
:104060000506002305FB016147F61222FDF776FAEB
:10407000D4E90253002B08DB421B42F2107561EBBE
:104080000303AA4273F1000303DB0023C4E9020126
:10409000E380E488024826F011FC204670BD00BF92
:1040A000F40C002008B503681B689847BDE8084079
:1040B0000146014830F018B96477040007B5064B93
:1040C0008DF8070001220DF10701044801F0D2FF2D
:1040D00003B05DF804FB00BF4A9F04005A9F040030
:1040E00073B5124B124C1D7815B1207802B070BD1B
:1040F000012610481E702FF0D1FE0028F5D0324660
:104100000C4801AB0DF103018DF8035001952FF020
:10411000DEFE38B1019B2BB19DF80330012B08BFA7
:104120004C23237003482FF0C4FEDEE760A5022075
:104130005FA502205A9F04004C28024607D055284C
:1041400007D0054B0548002A08BF184670470448A9
:1041500070470448704700BF669F0400259F040015
:104160006B9F0400779F040083B503F0F9FE35F0E0
:1041700009FA2FF01FFB0021264A27482EF015FBD5
:104180000821264A26482EF010FB3EF05FF84FF437
:104190007A74A0FB0405002304FB015147F61222A8
:1041A000FDF7DCF941F288331D4FC418D7F81080B1
:1041B00041F10005BB681A485B6801A9984790B9AE
:1041C000D8F80020019B5340DB050CD4154A164B50
:1041D000D2F8A0100B4043F4403343F00C03C2F874
:1041E000A03035F0F7FB3EF031F84FF47A76A0FBC3
:1041F000060C47F61222002306FB01C1FDF7AEF9BB
:10420000A042A941E2DA40F23910002127F0E4F996
:10421000D0E700BF01001A00006104001100010096
:10422000E060040000820D50F0F0FCFF3E280246E2
:1042300030D016D8142830D00AD80A2830D00F2809
:1042400031D041F684601F4B072A18BF18467047CB
:104250001F282BD04AF2C3201A4B292A18BF184610
:104260007047B0F5FA7F24D00AD8FA2823D0B0F5E9
:10427000C87F22D0134B1448C82A18BF184670476D
:10428000B0F5487F1BD00F4B1048B2F57A7F18BFAE
:10429000184670474FF22440704745F2611070474E
:1042A00042F6B100704743F60950704747F61220B6
:1042B00070470748704707487047074870470748E6
:1042C000704700BF48E80100F818030040420F00A3
:1042D00020A1070090D00300F0310600E0630C003D
:1042E00070B503690D4693F874301446073B052BEF
:1042F0002ED8184A52F823603046FDF779F838BBBB
:104300002046FCF765FE4FF06E51FCF7B5FE014606
:104310004FF07E50FCF7A6FD314604462846FCF7D8
:10432000A1FD0D49FCF75CFF01462046FCF7A4FE09
:1043300000210446FDF73EF850B94FF07E5120466B
:10434000FDF756F810B14FF07E5070BD2046FCE7E7
:104350000020FAE7FC7404000000204170B5044618
:104360002EF0DFFAD4F88039D4F88429054653EAD0
:1043700002004DD05B1B62EB0102012B72F10000C9
:104380003EDB6FF00040834272F1000200DA184613
:10439000B4F8683A9BB394F95A3A803314D0D4F8FD
:1043A000602AD4F8646A521B66EB0106012A76F192
:1043B000000327DB6FF000439A4276F1000600DA33
:1043C0001346984228BF1846D4F8703AD4F8742A95
:1043D00053EA02041CD00F4C1B1942F100025B1B74
:1043E00062EB0101012B71F100020DDB6FF0004265
:1043F000934271F1000109DA984228BF184670BD56
:104400000020C5E70023DCE70023F5E71346F3E7C8
:104410000020F4E7009749012DE9F04F8BB00446E6
:10442000884617462EF029FA814638B93946404663
:10443000684A0BB0BDE8F04F2AF0AABDD4F898093D
:10444000002800F091800A236421D4F89C295A4363
:10445000D4F8A03902EB50024B4303EB5003B2FBFC
:10446000F0F2B3FBF0F094F8573A04F6A81A27EAF2
:10447000E771002B7AD194F854CA574D574B94F9F1
:10448000556ABCF1000F08BF2B460A250590B2FB08
:10449000F5F005FB1022CDE9030209EB0602CDE998
:1044A000006240464E4ACDF808902AF071FDC72FB1
:1044B000054640445EDDD4F89C3A791B0393D4F85A
:1044C000983A484A0293D4F8943A0193D4F8903A2F
:1044D0000093D4F898392AF05BFD054408EB0500F9
:1044E000791B94F8583A404A2AF052FD0544204678
:1044F0002EF019FB014640B9AF4208EB0500C8BFDA
:10450000791B3A4A2AF044FD0A3550462EF032FF14
:10451000834650462EF044FF5E45B8BF5E46864255
:10452000B246A8BF82460AF1FF36B345CABF0BF1B7
:1045300002030AF101035E466FF007028342C4BF23
:104540000346861E9642B8BF16460C2BA8BF0C2306
:104550004FF0640B099304EBC604099B9E420DDDEA
:1045600028460BB0BDE8F08F02467CE794F9566A06
:104570001F4B8AE7AF42B3DC0021B2E7B4F8EC2965
:10458000B4F8F0C91AB353080BFB0C33B3FBF2F3C6
:104590000693B4F8F239BD42CDE904C3B4F8EE395C
:1045A000B8BF791BCDE9022309EB0603CDE900630F
:1045B000A8BF002108EB0500B24514BF20232A2321
:1045C0000C4A2AF0E5FC013605440834C5E71346D9
:1045D000DEE700BF849F0400CEA804004CB50400B1
:1045E0008C9F0400B29F0400C79F0400D09F04006A
:1045F00082A50400DB9F04002DE9F8430025002676
:104600004FF000084FF00009474B484F03608C33D0
:10461000436000F51863C0E902714662C0E90452C4
:10462000C0E9065505628662C0F85C58C0F860585B
:10463000C0F8745980F87859C0F87C59C3E90089EA
:1046400043F69823044680F88859C0F88C39C0F89E
:104650009059C0F89459C0F89859C0F89C59C0F8BE
:10466000A059011D00F6A8102EF06FFE04F5276377
:10467000A4F8685AC3E900893B6984F8785A5B1B3F
:1046800018BF012384F8793A4FF40043C4F87C5AE8
:10469000C4F8805AC4F8845AC4F8885AA4F88C5ACA
:1046A00084F88E5AC4F8905AC4F8945AC4F8985AA8
:1046B000C4F89C5AC4F8A05AA4F8A43AC4F8A85A5A
:1046C000C4F8AC5AA4F8B05AC4F8B45AA4F8CC5AF6
:1046D000C4F8D06AC4F8D46AA4F8D85AC4F8DC5A2A
:1046E000C4F8E05AC4F8E45AC4F8E85A84F8A05B65
:1046F000A4F8A25BC4F8A45BC4F8A85BC4F8AC5BE4
:1047000004F664103DF0F1FE0122294604F68830DB
:104710003DF052FB4FF40362294604F12C0041F0B6
:1047200043F82046BDE8F883607404006C77040009
:1047300008B50346C068B3F8A21B8368002908BF08
:10474000FF219B68984758B1084B98420BD841F21B
:10475000883300F5FA704000984238BF184608BD0B
:1047600041F28830FBE76FF47A70F8E70BFEFF7FC9
:1047700030B590F8A03B044689B0CBB900F52F6561
:10478000002000210A22CDE90601CDE90232CDE95F
:10479000004304934FF400622846064B064926F076
:1047A0009BFC064928463DF005FC012384F8A03B0C
:1047B00009B030BD812C0300B8A60220FB9F040085
:1047C0002DE9F8430C4605461746002114222046E1
:1047D00040F0EAFF95F8CD3A002B35D0D5F8D00A55
:1047E000D5F8D49A95F8D88A95F8D96A1B49FCF778
:1047F00043FCFCF743FE20604846FCF73FFEB31F36
:1048000080B22DF0F1FF022B96BF043E0126F6B2D6
:10481000B8F1080F8CBF10232023A08084F80680F5
:10482000E67123812B696FF0080293F94C302773EE
:10483000162BA8BF16239342B8BF1346A37240F2AB
:1048400002432382BDE8F8832B69986CD3F87890F3
:1048500093F8748093F87560C8E700BF002474492A
:1048600008B590F8CD3A5BB1D0F8D00A0649FCF70C
:1048700003FC4FF07C51FCF7F7FAFCF7FFFD08BD95
:104880000369986CF2E700BF0024744908B590F8FA
:10489000CD3A63B1D0F8D40A0649FCF7EDFB4FF0EE
:1048A0007C51FCF7E1FAFCF7E9FD80B208BD036931
:1048B000986FF1E70000204102462DE9F0472EF005
:1048C00039F992F8CD3A0F460546002B00F0BD802D
:1048D000D2F8D49A10462EF037F99368044693F82C
:1048E000008008F10506F6B2B54203D30C2D28BFAF
:1048F0000C25EEB248465B49FCF75CFD08B1DFF8D9
:1049000068914846FCF7BAFD80B22DF06DFFFFF7C5
:104910008DFC082C28BF082405460120E4B2052C94
:1049200000FA06F038BF0524FCF752FB8146284602
:10493000FCF74AFB4D49FCF753FC4C49FCF79CFB48
:1049400001464846FCF74CFC8146B8F1000F01D106
:10495000062E7ED9082E4FF000057DD82020FCF7CA
:1049600037FB4349FCF780FA294680462846FCF786
:104970007BFA01464046FCF777FA4946FCF77CFB98
:104980003C4980464846FCF733FD002866D04FF08E
:104990007E5A3046FCF71CFB06463846FCF718FBEF
:1049A0004FF08241FCF768FB4FF0814107463046EB
:1049B000FCF762FB01463846FCF754FA2E49FCF737
:1049C00053FA4FF08341FCF74FFA4FF0824107460C
:1049D0002846FCF751FB01463846FCF743FA51469E
:1049E00007465046FCF740FA01463046FCF73AFAD3
:1049F0004FF08141FCF740FB4FF07E510546FCF73C
:104A0000D9FC08B14FF0814529463846FCF7E8FB50
:104A10002CF092F805462046FCF7DAFA2946FCF716
:104A20002BFB002141F06AF94FF08241FCF71CFAA0
:104A30004946FCF721FB4146FCF716FA0B49FCF707
:104A40001BFBFCF71BFDBDE8F0871369D3F87890DA
:104A500040E74FF07E5581E7102080E74FF0000AD5
:104A600097E700BF0000E0400000FA4200007A44EF
:104A7000000088405A2F863C0000E0412DE9F047B5
:104A800005468AB02EF0F6F895F8783A05F1180741
:104A9000002B00F085800022284605A9FFF790FE34
:104AA0009DF81A40BDF81C60062C8CBF4FF0080A18
:104AB0004FF00C0ABAF1080F0CBF112319239E42C4
:104AC0007DDDBDF81800FFF7B1FB012102463E482D
:104AD000A1400023A1FB0001FCF740FDAB680446A8
:104AE000DB69002B53D0E868984780460520A6EB89
:104AF0004A0909F1FF3904FB09F964220023A9FBE3
:104B00000001FCF72BFD08F5FA63A9EB00018B42CD
:104B1000D5F87C2A3ED20E366643A1EB08018E42C0
:104B20000AFB044408D9731CA3EB09030344434460
:104B30005B089C4238BF1C46944203D1D5F8803AAA
:104B40008B4203D0C5F87C4AC5F8801A00261F3472
:104B5000E86846F100031F314FEA541246F10004A1
:104B600086684909B66A42EAC36241EAC4615B09E0
:104B70006409AEB1DFF854C003958DE81210B04758
:104B800070B93BF0C3F90121C5F8940911E040F276
:104B9000DC58ABE7013203D04FF0FF33C5F87C3A65
:104BA000E8682A46836809499B6998470028E8DA3B
:104BB000002138460AB0BDE8F0472DF0DEBED5F83A
:104BC0007C3A0133E7E700BF40420F00372A030079
:104BD00038B5836804469B6A0D46BBB100F6A43025
:104BE0002DF07CFE034604F6AC302DF077FE184421
:104BF000D4F8843A984202D1D4F8883A3BB9C4F840
:104C0000840A012D38BF0125C4F8885A38BD084AE6
:104C1000CB1A9342FAD994F88E3A072BF6D9A368A7
:104C20009B6A0BB1E06898472046FFF727FFE8E74B
:104C3000BF270900F8B583680446DB6A0F46002BDE
:104C400038D090F8B03A33B1D0F8A83AD0F8AC2ABE
:104C5000CB1A93422ED3D4F8B43A23B14EF65F2246
:104C6000FB1A934226D9606920B303685B689847B2
:104C700001460546FCF7C6FB0646D8B9284641F072
:104C800060F80122164B05B2C4F8AC3AB4F9A43A64
:104C900084F8B02A13F5004FC4F8A87A02D1A4F81A
:104CA000A45A07E0EB1A002BB8BF5B42042B02DCCE
:104CB00084F8B16AF8BD94F8B13A33B943F6982351
:104CC00084F8B12AC4F8AC3AF4E7A36884F8B16A6E
:104CD000DB6A0BB1E06898472046FFF7CFFEDEE7BE
:104CE00080EE360038B504461C302DF0F7FD98BB39
:104CF00020462EF0AFF878BB2DF013FE054604F6E3
:104D0000A4302DF0EBFD034604F6AC302DF0E6FDAB
:104D1000D4F8842A0344934202D1D4F8883A63B980
:104D20000023C4F8A03A29462046FFF751FF294640
:104D30002046BDE83840FFF77DBF084AEB1A934292
:104D4000F1D9D4F8A03A13B1EB1A9342EBD9012D63
:104D50002B4638BF0123E4E738BD00BFBFD40100B4
:104D60002DE9F843B0F8683A04463BB190F8CD8A93
:104D7000B8F1000F04D0002380F89339BDE8F88320
:104D80002DF0CFFDD4F8702AD4F8743A0E4652EACA
:104D9000030104F52767054662D1C4F8705A7E60A6
:104DA00094F95A3A803315D0D4F8602AD4F8643A8A
:104DB000954276EB03030DDBA36804F6A815596B47
:104DC00011B1E0688847014628462EF0A7FB284627
:104DD0002DF087FE94F89339002BCFD0002384F870
:104DE000933994F95A3A8033C8D120462DF09BFE6E
:104DF0000028C3D094F89239002BBFD020462EF063
:104E000029F80028BAD104F6A81948462EF03AFB32
:104E1000A36807461B6B83B30146E06898470646C4
:104E20002DF07FFD022E80460D4629D1321E18BF7F
:104E30000122394648462EF059FB022E2BD120463E
:104E40002DF071FE10EB080045F10005643045F1CE
:104E5000000584F85A7AC4F8600AC4F8645A8DE7E9
:104E60000F49AA1A66EB0303914278EB030397DA22
:104E700004F6A8102EF0F1FA8FE76FF05706CFE78F
:104E8000002104F118002DF078FD2046FFF7F6FD13
:104E9000002ECBDA72E748462DF023FE6EE700BF06
:104EA0000097490170B504463DF0D0F94FF47A758A
:104EB000A0FB050647F61222002305FB0161FCF763
:104EC0004DFB00234FF47A72FCF7F8FAA3681844FC
:104ED000054B984207D9054B1A6882421FBF1860DC
:104EE000034A044B1A6070BD8081A369B01203208D
:104EF00033CC55AAAC1203200023084A43608360D8
:104F0000074B02601A68074B9A4205D1064B074AC5
:104F10001B68934288BF8360704700BF28750400F8
:104F2000AC12032033CC55AAB01203208081A369B0
:104F3000F8B505460C463DF089F94FF47A76A0FBAA
:104F4000060747F61222002306FB0171FCF706FB59
:104F50004FF47A720023FCF7B1FA044B044A1C6048
:104F6000044B201AA8601A60F8BD00BFB0120320DD
:104F700033CC55AAAC12032070B50D461646042456
:104F80003146284635F0E0FE48B140F239100021A4
:104F900026F022FB013CF3D10148FEF79FFF70BDD4
:104FA00008A004002DE9F04FDFF8C882ADF5397D87
:104FB00004460D46174600214FF4007238A81E46DD
:104FC00040F0F2FB98F8003043B9AB4834F0F5FC00
:104FD00098F8003013B9A94834F0EFFC402138A804
:104FE00035F0B2FE98F8003081463BB938A82EF073
:104FF000A5FB49460246A24834F0DFFC10220021FE
:105000000AA840F0D1FB10210AA81FF095FE00234A
:1050100001460DF21F120DF1280C8B4202DA102B03
:1050200040F0828098F80030002B40F01F819548B6
:1050300034F0C3FCBFB1B6B1202E314628BF2021C9
:105040003A460DF22F137E1812F8010B13F8017F68
:10505000B24280EA07001870F6D198F8003043B9E0
:10506000894834F0AAFC98F8003013B9874834F026
:10507000A4FC402194A835F067FE98F8003006465D
:1050800073B994A82EF05AFB31460246804834F09A
:1050900094FC98F800301BB929467E4834F08DFC0A
:1050A00024AF3A467C4B03F1180C16461868596831
:1050B000083303C663453246F7D1186899889B794F
:1050C00031223060B180B371002107F11F0040F040
:1050D0006BFB0023079328F007F920230DF11C0A2E
:1050E000009380464FF400726C48CDF804A01CABCE
:1050F00038A93FF09CFA064620B9DAF80090B9F1D9
:10510000200F1AD020211CA82DF0B9FACDF8048068
:10511000DAF800305021009338463346604A29F0CF
:1051200037FF24A8FEF7DAFE12F801EF1CF8010B96
:10513000013380EA0E0010706FE70146142217A8B1
:1051400040F032FB4FF41053ADF858304FF48073F9
:10515000544A0DF1200ACDE91832ADF85A301CA995
:1051600053464A4616A8CAF800603FF081F9064641
:1051700049461CA82DF083FA46B1334650213846E3
:10518000494ACDF8008029F003FFCAE710223146D2
:105190000EA840F009FB37460DF1240BBD42DAF8AA
:1051A00000001ED90023CBF8003010230DF1480970
:1051B00001930EAA3B49CDF808B0CDF8009027F036
:1051C0004DFFDBF80020034608B9102A1BD00092DF
:1051D0005021CDE90178354A24A829F0D9FE4FF0B5
:1051E000FF3608983FF07AF810210EA82DF047FA04
:1051F000002E96D1012319462544AC421DD101B998
:105200003BB32B488EE7EA1B102A28BF1022E01977
:105210004946059240F0A2FA059A17444A4612F808
:10522000013D0133DBB2137013B90EAB9A42F6D1D4
:10523000102148462DF023FAB0E714F8012B32B1C3
:10524000FF2A14BF002303F001030021D5E7134612
:10525000D3E738A84FF400712DF011FA10210AA8F5
:105260002DF00DFA0DF5397DBDE8F08F002F7FF49C
:10527000E2AEFEE661A5022029A004004DA00400D4
:1052800095A00400C4A0040005A1040027A1040007
:1052900074A10400A3A1040094A204000900000268
:1052A000DCA10400004440040AA2040035A204006A
:1052B00069A20400002330B5044689B01A462021B3
:1052C0006846FFF76FFE694620462CF036FA6525E2
:1052D0002378013BDBB2FD2B05D8202168462DF059
:1052E000CEF909B030BD013D02D10748FEF7F6FD09
:1052F000002368461A462021FFF754FE69462046DF
:105300002CF01BFAE4E700BFB3A2040011B1024A7B
:1053100029F03EBE704700BFD9A20400014A29F01F
:1053200037BE00BFEAA2040037B5144683686A4658
:105330001B69984788B90198FBF74AFE0849FBF7B3
:105340004FFF05460098FBF743FE01462846FBF752
:105350008BFD2060012003B030BD0020FBE700BFC3
:105360000024744938B50D460446B8B13CF0D6FA6D
:1053700010B920463CF0C9FA20463CF0CFFA68B19B
:10538000074B1A780F2A09D8511C1970054B43F89E
:10539000324003EBC20300221D715A7138BD00BFB9
:1053A00062A50220D84E0220014B1878704700BF3A
:1053B00062A50220064B1B78984207D2054B03EBEF
:1053C000C0031879031F58425841704700207047A6
:1053D00062A50220D84E02202DE9F3410C46064674
:1053E00024220021204640F0DFF9644B1B789E42C6
:1053F00080F0C180624D4FEAC60805EBC6031A79FA
:10540000062A11D100225B7955F8360001920093EB
:1054100083681F68002F00F0AB806B4614224E217A
:10542000B847002840F0A48055F8360083684E2124
:10543000DB6898470746002840F09A8005EB080390
:105440001B79042B55D006D9053B012B6AD9384668
:1054500002B0BDE8F0810D2155F83600221DFFF79E
:1054600063FF18B1238843F00103238005EB080391
:105470001B79012B2BD90E2155F8360004F10C02B3
:10548000FFF752FF0028E2D0E0683E49FBF7F4FD49
:105490002688A84446F00403238098F80430E0608E
:1054A00003F0FD03012BD2D13749FBF799FE3749B1
:1054B000FDF7D2FA01464FF07E50FBF7D3FC34499A
:1054C000FBF7DAFD46F00C0620612680BFE71021CD
:1054D00055F8360004F10802FFF726FF18B12388BB
:1054E00043F00203238005EB08031B79002BAED0A9
:1054F000C1E7122155F8360004F11402FFF714FF3A
:1055000018B1238843F0100323800D2155F836008D
:10551000221DFFF709FF002899D0238843F00103DB
:10552000238094E72B2155F8360004F11802FFF789
:10553000FBFE18B1238843F0200323802D2155F86A
:10554000360004F11C02FFF7EFFE18B1238843F088
:10555000400323802E2155F8360004F12002FFF786
:10556000E3FE00283FF473AF238843F08003D7E7BE
:105570006FF004076BE76FF0150768E762A502207C
:10558000D84E02200000204100507D4401DE423E02
:10559000002A2D47024B1878003818BF01207047A9
:1055A00062A5022010B50C462EF0E5F818B1002CCB
:1055B000014818BF002010BD00A3040010B50C4620
:1055C0002EF0D9F840B144B92EF0D7F80146044B7B
:1055D0000448002908BF184610BD0020FCE700BFA2
:1055E000D7BA040001B7040070B50E4615462EF078
:1055F000C2F8044668B130460D49FBF7C9FF50B9FF
:1056000028460C49FBF7C4FF003818BF01202EF0D4
:10561000B7F8204670BD30460749FBF7B9FF28B9F7
:10562000284640F0CCF82EF0B4F8F2E70024F0E77A
:1056300000A30400D7BA040004A304000020002142
:10564000044B054AC3E90201C3E90401C3E90601A9
:105650001A607047200F00204875040070B4CE7D9A
:1056600046B1CD68541B054DAC4203D81BB970BC84
:105670002EF041BA002370BC184670478097060090
:105680002DE9F84F032B0646894690461F460A9D92
:105690002FD82EF01CFA0446A0B38668464528D2BF
:1056A000C1689620691AA8EB0606761A4FF0000327
:1056B0003C4AA1FB000169EB0909FBF7FFFE10F171
:1056C0002D020B4641F10001B24271EB09010ADBE8
:1056D0006FF02C024FF0FF31121A61EB0303964278
:1056E00079EB030307DA01232561A382C4E902856C
:1056F000A775BDE8F88F4FF6FF72A38A9342F5D0E5
:105700000133F2E71821034606F1170001FB03F20B
:1057100010F802C0BCF1000F0ED1B418D9F8003057
:105720002360D9F80430C4E9028563600123256150
:10573000A382A775E375DCE70133102BE6D1314670
:105740004FF0000A4FF0180B2A4630462EF0D3F9DE
:10575000CB6818B11448EA1A824217D98A7DBA4236
:1057600014D9ECB1A07D82421AD803D1888AA28ACA
:10577000904215D30BFB0A6260695269424032F0D5
:105780007F4203D1E268934238BF0C460AF1010A16
:10579000BAF1100F01F11801D6D1002CBED1A8E743
:1057A0000C46F3E740420F0080510100034690F899
:1057B000900138B1D3F88C310348C91A81428CBFAB
:1057C00000200120704700BF7F3A09002DE9F34710
:1057D0008A4616460021182204461D463FF0E4FF83
:1057E000DAF880713246BE422CBF002301235146B5
:1057F000237404F1180000932B462EF089F9237EC0
:105800001BB940F20123238014E0BE422ED2A37EB6
:10581000022B02D840F20133F5E7D4E90832B3F1A4
:10582000960642F1FF32B6F5167F72F1000305DAF3
:1058300001236370204602B0BDE8F0872946504638
:10584000FFF7B4FF08B10523F3E79AF8A03143B19D
:1058500045F25F41DAF89C31EB1A8B4201D80623FE
:10586000E7E70223C4E902622370E3E7637E052BC6
:10587000D0D9A27EB3EB420F02DB40F20143C2E774
:10588000D4E90887002F4646B94602DA764267EB2C
:105890004709B6F5167F79F10003C9DB2946504662
:1058A000FFF784FF0028CED19AF8A03133B145F23A
:1058B0005F42DAF89C31EB1A9342D0D99AF89831CA
:1058C000ABB14FF49670DAF89431154AED1AA5FB96
:1058D00000010023FBF7F2FD10F5167041F1000105
:1058E000B04271EB090102DA40F201738BE7022347
:1058F00018F5616F424640F6116123703B4677F11F
:10590000FF37BCBF4FF0FF33064A8A4273F10001F4
:10591000A4BF4FF461620023C4E902238AE700BFF9
:1059200040420F00F0F1FFFF0138C0B206289ABFD5
:10593000024B53F820000248704700BF6C7504000A
:1059400011A304002DE9F04FB1B005468846164674
:105950009DF8ECA00B93002A00F0B98101463A9B18
:105960000B9A16A8FFF732FFDDE91E799DF8582043
:105970009DF86830022A9DF87040099340F0358107
:10598000DDE9181095F8842122B1002880F2A18168
:10599000B64A04E0B64B8B428241B64A07DB4FF071
:1059A000FF3CB54B994270EB0C0C00DB0B46B34847
:1059B000B049DDF824C0BCF1000F18BF014622A891
:1059C000CDE900123821AE4A29F0E2FABAF1000F0F
:1059D00000F03081AB4BA74A9DF871109DF8720022
:1059E0009DF873C0002C00F028814FF0000EA04CF1
:1059F000BC427EEB090E07DB4FF0FF3E9E4CA742F8
:105A000079EB0E0EA8BF3C46209F0DF1880ECDE924
:105A10000110CDE903C4009231464046CDE9057E30
:105A2000994A29F0B5FA041EC0F24C81B44280F0C4
:105A30004981D5F8AC31FBB1D5E96E1C00208C4A08
:105A4000D5F8B0718A4270EB0C0007DB4FF0FF30E5
:105A5000894A91427CEB0000A8BF0A46CDE900725A
:105A6000311B08EB0400894A29F092FA241800F14E
:105A70002981B44280F02681D5F8B4315BB1311B65
:105A800008EB0400824A29F083FA241800F11A81F5
:105A9000B44280F0178128463A99FFF787FE98B103
:105AA0003A9928462EF0B9F94FF46163311BB0FBE7
:105AB000F3F3784A08EB040029F06AFA241800F19D
:105AC0000181B44280F0FE80D5F8A831311B0093EB
:105AD00008EB0400D5F8A4316F4A29F059FA2418CC
:105AE00000F1F080B44280F0ED8005F5C0730A93B8
:105AF0004FF0000A2B46DA7D0AB10AF1010A0A9A30
:105B000018339342F7D14FF0000BD946CA4540F302
:105B1000A9802F468BF001030F93FB7D002B00F033
:105B20009580099B394628463A9AFFF797FD0F9BC7
:105B3000834240F08B8008EB04030893331B0C93E3
:105B40003B783A9A0D937B78B98A0E93FB68632968
:105B5000A2EB0303BA6828BF63219B184FF0000231
:105B600042EB020E0B9A97F816C09B1A404A6EF150
:105B7000000E9A424FF0000272EB0E025FDB3E4ACB
:105B800093424FF0FF327EEB02025ADBDFF8E4E093
:105B9000424ACDE901C1002808BF7246CDE903326F
:105BA0000E9B3F4A0093311B0D9B08EB040029F02C
:105BB000EFF9002802DB2044B04244D30023089AC6
:105BC000CA4513704EDDAAEB09031821354A10A807
:105BD00029F0DEF90C9B0546834243D9421C10A9EB
:105BE00008983FF0BBFD2C443CE0BDF85830B3F5BD
:105BF000807F15D1B9F1000F3B464A4602DA7B425D
:105C000069EB490240F22D118B4272F10002B4BFE0
:105C1000254B264B264A382122A829F0B9F9D5E68A
:105C20009DF85900FFF780FE03460AB9214AF2E7C2
:105C3000214AF0E7214B224ACEE62746E5E60C4B07
:105C4000A4E70D4BA2E7044609F101090A9B1837A6
:105C50009F427FF462AF0BF10103022B4FF0010B67
:105C60007FF454AF204631B0BDE8F08F13A3040099
:105C700000943577B2C80400006CCA882CA30400D5
:105C800052A304004CB5040076A30400ABA30400A7
:105C9000CBA30400D9A30400E3A304004FA3040092
:105CA000F7A3040013A4040039A304003CA30400D8
:105CB00078B504005FA3040069A30400CEA8040023
:105CC00044A304000023741E08F80430CAE71446F5
:105CD000C8E70022024B8B428241024A65E600BFC0
:105CE00000943577B2C80400034A0346107810B117
:105CF000024A12681A60704763A50220584F0220BA
:105D00002DE9F04F85B00F460646029218B90020E3
:105D100005B0BDE8F08F0029F9D00024184B0470BD
:105D20001B78002BF3D0174DDFF85CA0DFF85CB0D8
:105D300005F1CC082A68DAF800301A421CD0029B20
:105D4000ABB1AB68002B08BF5B46009306EB0409C0
:105D5000391B48466B680E4A039129F019F900284F
:105D6000039906DA002389F800302046D0E7074B74
:105D7000EBE78142F6D904440C354545DAD1F4E726
:105D800063A5022088750400584F0220B2C80400A1
:105D9000DEB10400002300B5A3B0019301A81EF0FA
:105DA000E3FF024658B90199074B02A81960012187
:105DB000064B19708021FFF7A3FF1FF011F8002098
:105DC00023B05DF804FB00BF584F022063A50220FA
:105DD00010B5084B187860B1074B084C19680023C0
:105DE000184654F8232003330A40332B40EA0200BC
:105DF000F7D110BD63A50220584F0220887504001A
:105E00000823044A044852F8041F013B81EAF06069
:105E1000F9D17047B412032017F4437AF8B50D4E48
:105E20000D4B32689A4212D1FFF7EAFF746A84423E
:105E30000DD10A4F351D3C460FCD0FC495E80F001C
:105E400084E80F0000230122FB77054B1A70002025
:105E50003060F8BDB412032017F4437A5C4F02207F
:105E600064A5022070B506460D46104C1C22002188
:105E70000F483FF099FC66601DB1AB69A3606B6988
:105E8000E36009F011F90B4B18583CF096F8014605
