:10000000A0F90020B5E800005B250200A1E800008F
:10001000A1E80000A1E80000A1E80000A1E80000BC
:10002000000000000000000000000000EDE80000FB
:10003000A1E8000000000000A1EA0000A1E8000023
:1000400021EB000021EB000021EB000021EB000080
:1000500021EB000021EB000021EB000021EB000070
:1000600021EB000021EB000021EB000021EB000060
:1000700021EB000021EB000021EB000021EB000050
:1004800081F0004102E000BF83F0004330B54FEA45
:1004900041044FEA430594EA050F08BF90EA020FB2
:1004A0001FBF54EA000C55EA020C7FEA645C7FEA45
:1004B000655C00F0E2804FEA5454D4EB5555B8BF68
:1004C0006D420CDD2C4480EA020281EA030382EAD9
:1004D000000083EA010180EA020281EA0303362D6B
:1004E00088BF30BD11F0004F4FEA01314FF4801C3E
:1004F0004CEA113102D0404261EB410113F0004F50
:100500004FEA03334CEA133302D0524263EB430306
:1005100094EA050F00F0A780A4F10104D5F1200EA4
:100520000DDB02FA0EFC22FA05F2801841F10001FF
:1005300003FA0EF2801843FA05F359410EE0A5F1D3
:1005400020050EF1200E012A03FA0EFC28BF4CF004
:10055000020C43FA05F3C01851EBE37101F00045BA
:1005600007D54FF0000EDCF1000C7EEB00006EEBC7
:100570000101B1F5801F1BD3B1F5001F0CD3490851
:100580005FEA30004FEA3C0C04F101044FEA4452A8
:1005900012F5800F80F09A80BCF1004F08BF5FEA2F
:1005A000500C50F1000041EB045141EA050130BD0F
:1005B0005FEA4C0C404141EB0101013C28BFB1F521
:1005C000801FE9D291F0000F04BF01460020B1FA6C
:1005D00081F308BF2033A3F10B03B3F120020CDA3F
:1005E0000C3208DD02F1140CC2F10C0201FA0CF01D
:1005F00021FA02F10CE002F11402D8BFC2F1200C82
:1006000001FA02F120FA0CFCDCBF41EA0C01904037
:10061000E41AA2BF01EB0451294330BD6FEA040480
:100620001F3C1CDA0C340EDC04F11404C4F120026B
:1006300020FA04F001FA02F340EA030021FA04F37D
:1006400045EA030130BDC4F10C04C4F1200220FAD4
:1006500002F001FA04F340EA0300294630BD21FA12
:1006600004F0294630BD94F0000F83F4801306BFD8
:1006700081F480110134013D4EE77FEA645C18BFCC
:100680007FEA655C29D094EA050F08BF90EA020F63
:1006900005D054EA000C04BF1946104630BD91EA5B
:1006A000030F1EBF0021002030BD5FEA545C05D15E
:1006B0004000494128BF41F0004130BD14F580049D
:1006C0003CBF01F5801130BD01F0004545F0FE4111
:1006D00041F470014FF0000030BD7FEA645C1ABF46
:1006E000194610467FEA655C1CBF0B46024650EA7D
:1006F000013406BF52EA033591EA030F41F40021A9
:1007000030BD00BF90F0000F04BF0021704730B52E
:100710004FF4806404F132044FF000054FF0000103
:1007200050E700BF90F0000F04BF0021704730B5C4
:100730004FF4806404F1320410F0004548BF404299
:100740004FF000013EE700BF42004FEAE2014FEAEE
:1007500031014FEA02701FBF12F07F4393F07F4FC9
:1007600081F06051704732F07F4208BF704793F0CC
:100770007F4F04BF41F40021704730B54FF46074DF
:1007800001F0004521F000411CE700BF50EA0102E2
:1007900008BF704730B54FF000050AE050EA01028B
:1007A00008BF704730B511F0004502D5404261EBFB
:1007B00041014FF4806404F132045FEA915C3FF43C
:1007C000D8AE4FF003025FEADC0C18BF03325FEAD9
:1007D000DC0C18BF033202EBDC02C2F1200300FA8A
:1007E00003FC20FA02F001FA03FE40EA0E0021FAAF
:1007F00002F11444BDE600BF70B54FF0FF0C4CF49D
:10080000E06C1CEA11541DBF1CEA135594EA0C0F4E
:1008100095EA0C0F00F0DEF82C4481EA030621EA89
:100820004C5123EA4C5350EA013518BF52EA0335C4
:1008300041F4801143F4801338D0A0FB02CE4FF076
:100840000005E1FB02E506F00042E0FB03E54FF0A6
:100850000006E1FB03569CF0000F18BF4EF0010E9E
:10086000A4F1FF04B6F5007F64F5407404D25FEA9A
:100870004E0E6D4146EB060642EAC62141EA55514D
:100880004FEAC52040EA5E504FEACE2EB4F1FD0C8F
:1008900088BFBCF5E06F1ED8BEF1004F08BF5FEA0D
:1008A000500E50F1000041EB045170BD06F00046BF
:1008B00046EA010140EA020081EA0301B4EB5C046C
:1008C000C2BFD4EB0C0541EA045170BD41F4801164
:1008D0004FF0000E013C00F3AB8014F1360FDEBF89
:1008E000002001F0004170BDC4F10004203C35DA65
:1008F0000C341BDC04F11404C4F1200500FA05F3E8
:1009000020FA04F001FA05F240EA020001F0004288
:1009100021F0004110EBD37021FA04F642EB0601FE
:100920005EEA430E08BF20EAD37070BDC4F10C0428
:10093000C4F1200500FA04F320FA05F001FA04F2EC
:1009400040EA020001F0004110EBD37041F10001D8
:100950005EEA430E08BF20EAD37070BDC4F12005E3
:1009600000FA05F24EEA020E20FA04F301FA05F24B
:1009700043EA020321FA04F001F0004121FA04F2F3
:1009800020EA020000EBD3705EEA430E08BF20EAC3
:10099000D37070BD94F0000F0FD101F000464000FD
:1009A00041EB010111F4801F08BF013CF7D041EA7F
:1009B000060195F0000F18BF704703F00046520083
:1009C00043EB030313F4801F08BF013DF7D043EA54
:1009D0000603704794EA0C0F0CEA135518BF95EA0A
:1009E0000C0F0CD050EA410618BF52EA4306D1D191
:1009F00081EA030101F000414FF0000070BD50EAB0
:100A0000410606BF1046194652EA430619D094EA39
:100A10000C0F02D150EA013613D195EA0C0F05D123
:100A200052EA03361CBF104619460AD181EA030177
:100A300001F0004141F0FE4141F470014FF000002F
:100A400070BD41F0FE4141F4780170BD70B54FF0CA
:100A5000FF0C4CF4E06C1CEA11541DBF1CEA13554A
:100A600094EA0C0F95EA0C0F00F0A7F8A4EB05042C
:100A700081EA030E52EA03354FEA013100F0888023
:100A80004FEA03334FF0805545EA131343EA1263EC
:100A90004FEA022245EA111545EA10654FEA0026A1
:100AA0000EF000419D4208BF964244F1FD0404F55A
:100AB000407402D25B084FEA3202B61A65EB0305B6
:100AC0005B084FEA32024FF480104FF4002CB6EB73
:100AD000020E75EB030E22BFB61A754640EA0C00F3
:100AE0005B084FEA3202B6EB020E75EB030E22BF33
:100AF000B61A754640EA5C005B084FEA3202B6EB74
:100B0000020E75EB030E22BFB61A754640EA9C0032
:100B10005B084FEA3202B6EB020E75EB030E22BF02
:100B2000B61A754640EADC0055EA060E18D04FEAC0
:100B3000051545EA16754FEA06164FEAC30343EA60
:100B400052734FEAC2025FEA1C1CC0D111F4801F2D
:100B50000BD141EA00014FF000004FF0004CB6E726
:100B600011F4801F04BF01430020B4F1FD0C88BFC5
:100B7000BCF5E06F3FF6AFAEB5EB030C04BFB6EBD0
:100B8000020C5FEA500C50F1000041EB045170BDC3
:100B90000EF0004E4EEA113114EB5C04C2BFD4EBF0
:100BA0000C0541EA045170BD41F480114FF0000E74
:100BB000013C90E645EA060E8DE60CEA135594EAF0
:100BC0000C0F08BF95EA0C0F3FF43BAF94EA0C0FF3
:100BD0000AD150EA01347FF434AF95EA0C0F7FF468
:100BE00025AF104619462CE795EA0C0F06D152EABC
:100BF00003353FF4FDAE1046194622E750EA4106A0
:100C000018BF52EA43067FF4C5AE50EA41047FF4B0
:100C10000DAF52EA43057FF4EBAE12E74FF0FF3C15
:100C200006E000BF4FF0010C02E000BF4FF0010CE6
:100C30004DF804CD4FEA410C7FEA6C5C4FEA430C5F
:100C400018BF7FEA6C5C1BD001B050EA410C0CBFAE
:100C500052EA430C91EA030F02BF90EA020F002010
:100C6000704710F1000F91EA030F58BF994208BF77
:100C700090422CBFD8176FEAE37040F00100704734
:100C80004FEA410C7FEA6C5C02D150EA013C07D18B
:100C90004FEA430C7FEA6C5CD6D152EA033CD3D0D6
:100CA0005DF8040B704700BF8446104662468C46D0
:100CB0001946634600E000BF01B5FFF7B7FF002803
:100CC00048BF10F1000F01BD4DF808EDFFF7F4FF2C
:100CD0000CBF012000205DF808FB00BF4DF808EDB7
:100CE000FFF7EAFF34BF012000205DF808FB00BFDA
:100CF0004DF808EDFFF7E0FF94BF012000205DF8FC
:100D000008FB00BF4DF808EDFFF7CEFF94BF0120B0
:100D100000205DF808FB00BF4DF808EDFFF7C4FFA9
:100D200034BF012000205DF808FB00BF4FEA4102FC
:100D300012F5001215D211D56FF47873B3EB62522D
:100D400012D94FEAC12343F0004343EA505311F054
:100D5000004F23FA02F018BF404270474FF00000E6
:100D6000704750EA013005D111F0004008BF6FF024
:100D7000004070474FF00000704700BF4A0011D29A
:100D800012F5001211D20DD56FF47873B3EB6252E5
:100D90000ED44FEAC12343F0004343EA505323FAF1
:100DA00002F070474FF00000704750EA013002D166
:100DB0004FF0FF3070474FF0000070474FEA41029C
:100DC000B2F1E04324BFB3F5001CDCF1FE5C0DD9A9
:100DD00001F0004C4FEAC0024CEA5070B2F1004FF3
:100DE00040EB830008BF20F00100704711F0804FF6
:100DF00021D113F13872BCBF01F00040704741F4BB
:100E000080114FEA5252C2F11802C2F1200C10FABE
:100E10000CF320FA02F018BF40F001004FEAC123A2
:100E20004FEAD32303FA0CFC40EA0C0023FA02F346
:100E30004FEA4303CCE77FEA625307D150EA01331C
:100E40001EBF4FF0FE4040F44000704701F00040EC
:100E500040F0FE4040F40000704700BF80F00040CA
:100E600002E000BF81F0004142001FBF5FEA410382
:100E700092EA030F7FEA226C7FEA236C6AD04FEA82
:100E80001262D2EB1363C1BFD218414048404140C7
:100E9000B8BF5B42192B88BF704710F0004F40F479
:100EA000000020F07F4018BF404211F0004F41F495
:100EB000000121F07F4118BF494292EA030F3FD061
:100EC000A2F1010241FA03FC10EB0C00C3F1200374
:100ED00001FA03F100F0004302D5494260EB400003
:100EE000B0F5000F13D3B0F1807F06D340084FEA6E
:100EF000310102F10102FE2A51D2B1F1004F40EB63
:100F0000C25008BF20F0010040EA030070474900CA
:100F100040EB0000013A28BFB0F5000FEDD2B0FA67
:100F200080FCACF1080CB2EB0C0200FA0CF0AABF8A
:100F300000EBC25052421843BCBFD0401843704728
:100F400092F0000F81F4000106BF80F4000001322E
:100F5000013BB5E74FEA41037FEA226C18BF7FEA05
:100F6000236C21D092EA030F04D092F0000F08BF47
:100F70000846704790EA010F1CBF0020704712F02E
:100F80007F4F04D1400028BF40F00040704712F16D
:100F900000723CBF00F50000704700F0004343F0D2
:100FA000FE4040F4000070477FEA226216BF084608
:100FB0007FEA23630146420206BF5FEA412390EACB
:100FC000010F40F4800070474FF0000304E000BFC1
:100FD00010F0004348BF40425FEA000C08BF704772
:100FE00043F0964301464FF000001CE050EA010236
:100FF00008BF70474FF000030AE000BF50EA01024B
:1010000008BF704711F0004302D5404261EB410137
:101010005FEA010C02BF84460146002043F0B6435C
:1010200008BFA3F18053A3F50003BCFA8CF2083A81
:10103000A3EBC25310DB01FA02FC634400FA02FC8A
:10104000C2F12002BCF1004F20FA02F243EB020091
:1010500008BF20F00100704702F1200201FA02FCF3
:10106000C2F1200250EA4C0021FA02F243EB0200E6
:1010700008BF20EADC7070474FF0FF0C1CEAD0522A
:101080001EBF1CEAD15392EA0C0F93EA0C0F6FD0EB
:101090001A4480EA010C400218BF5FEA41211ED0C9
:1010A0004FF0006343EA501043EA5111A0FB0131B5
:1010B0000CF00040B1F5000F3EBF490041EAD3718A
:1010C0005B0040EA010062F17F02FD2A1DD8B3F106
:1010D000004F40EBC25008BF20F00100704790F075
:1010E000000F0CF0004C08BF49024CEA502040EAC7
:1010F00051207F3AC2BFD2F1FF0340EAC25070478D
:1011000040F400004FF00003013A5DDC12F1190FCA
:10111000DCBF00F000407047C2F10002410021FA3C
:1011200002F1C2F1200200FA02FC5FEA310040F154
:10113000000053EA4C0308BF20EADC70704792F0CD
:10114000000F00F0004C02BF400010F4000F013A05
:10115000F9D040EA0C0093F0000F01F0004C02BF00
:10116000490011F4000F013BF9D041EA0C018FE76F
:101170000CEAD15392EA0C0F18BF93EA0C0F0AD075
:1011800030F0004C18BF31F0004CD8D180EA01009B
:1011900000F00040704790F0000F17BF90F0004F34
:1011A000084691F0000F91F0004F14D092EA0C0F16
:1011B00001D142020FD193EA0C0F03D14B0218BFA9
:1011C000084608D180EA010000F0004040F0FE40EF
:1011D00040F40000704740F0FE4040F4400070478B
:1011E0004FF0FF0C1CEAD0521EBF1CEAD15392EA0A
:1011F0000C0F93EA0C0F69D0A2EB030280EA010CFA
:1012000049024FEA402037D04FF0805343EA111192
:1012100043EA10130CF000408B4238BF5B0042F1F0
:101220007D024FF4000C8B4224BF5B1A40EA0C0095
:10123000B3EB510F24BFA3EB510340EA5C00B3EBC7
:10124000910F24BFA3EB910340EA9C00B3EBD10FB5
:1012500024BFA3EBD10340EADC001B0118BF5FEA07
:101260001C1CE0D1FD2A3FF650AF8B4240EBC25030
:1012700008BF20F0010070470CF0004C4CEA5020F1
:101280007F32C2BFD2F1FF0340EAC250704740F440
:1012900000004FF00003013A37E792F0000F00F032
:1012A000004C02BF400010F4000F013AF9D040EAB0
:1012B0000C0093F0000F01F0004C02BF490011F444
:1012C000000F013BF9D041EA0C0195E70CEAD1533C
:1012D00092EA0C0F08D142027FF47DAF93EA0C0F23
:1012E0007FF470AF084676E793EA0C0F04D14B0207
:1012F0003FF44CAF08466EE730F0004C18BF31F0B9
:10130000004CCAD130F000427FF45CAF31F00043B2
:101310007FF43CAF5FE700BF4FF0FF3C06E000BF4B
:101320004FF0010C02E000BF4FF0010C4DF804CD6E
:101330004FEA40024FEA41037FEA226C18BF7FEA7E
:10134000236C11D001B052EA530C18BF90EA010F80
:1013500058BFB2EB030088BFC81738BF6FEAE1700F
:1013600018BF40F0010070477FEA226C02D15FEAAB
:10137000402C05D17FEA236CE4D15FEA412CE1D017
:101380005DF8040B704700BF844608466146FFE7DE
:101390000FB5FFF7C9FF002848BF10F1000F0FBDC0
:1013A0004DF808EDFFF7F4FF0CBF012000205DF8B9
:1013B00008FB00BF4DF808EDFFF7EAFF34BF01203E
:1013C00000205DF808FB00BF4DF808EDFFF7E0FFD7
:1013D00094BF012000205DF808FB00BF4DF808ED28
:1013E000FFF7D2FF94BF012000205DF808FB00BF8B
:1013F0004DF808EDFFF7C8FF34BF012000205DF86D
:1014000008FB00BF4FEA40024FEA41037FEA226C2B
:1014100002D15FEA402C08D17FEA236C02D15FEA57
:10142000412C02D14FF0000070474FF0010070478F
:101430004FEA4002B2F1FE4F0FD34FF09E03B3EBE1
:1014400012620DD94FEA002343F0004310F0004F21
:1014500023FA02F018BF404270474FF00000704777
:1014600012F1610F01D1420205D110F0004008BF16
:101470006FF0004070474FF00000704742000ED2FE
:10148000B2F1FE4F0BD34FF09E03B3EB126209D4BF
:101490004FEA002343F0004323FA02F070474FF075
:1014A0000000704712F1610F01D1420202D14FF0EA
:1014B000FF3070474FF00000704700BF7BB972B932
:1014C0000029BEBF00204FF0004106E008BF002801
:1014D0001CBF6FF000414FF0FF3000F057B8ADF186
:1014E000080C6DE904CE002909DB002B1ADB00F0A3
:1014F0007CF8DDF804E0DDE9022304B070474042E7
:1015000061EB4101002B1BDB00F06FF8DDF804E01C
:10151000DDE9022304B0404261EB4101524263EB3A
:1015200043037047524263EB430300F05EF8DDF87B
:1015300004E0DDE9022304B0404261EB4101704761
:10154000524263EB430300F050F8DDF804E0DDE9BC
:10155000022304B0524263EB4303704753B94AB9C4
:10156000002908BF00281CBF4FF0FF314FF0FF30AB
:1015700000F00CB8ADF1080C6DE904CE00F035F8C0
:10158000DDF804E0DDE9022304B07047704700BFD6
:1015900010F8012B11F8013B012A28BF9A42F7D01D
:1015A000D01A7047034611F8012B03F8012B002ACB
:1015B000F9D17047034613F8012B002AFBD1181A02
:1015C00001387047430803F05533C01A00F0333335
:1015D000800800F0333018444FF0013300EB101056
:1015E00000F00F305843000E70472DE9F0478C464D
:1015F0008E46089E154604461946002B40F0D080C2
:10160000724547D9B2FA82F74FB1C7F120030EFAFB
:1016100007FCBD40BC4020FA03F343EA0C0C4FEA40
:10162000154EA8B2230CBCFBFEF80EFB18CC08FB31
:1016300000F943EA0C43994528D9EB1808F1FF3229
:1016400004D2994502D9A8F102022B44A3EB090365
:10165000A4B2B3FBFEFC0EFB1C330CFB00F044EA0F
:101660000344A04214D92C190CF1FF3304D2A04238
:1016700002D9ACF102032C44241A43EA02401EB101
:10168000FC40002334607360BDE8F0874246DDE72C
:101690006346F1E7002A79D0B2FA82F3002B3FD0FB
:1016A0001946C1F1200302FA01F500FA01F42EFAFD
:1016B00003F20EFA01FE20FA03F3AFB243EA0E037F
:1016C0004FEA154EB2FBFEFC0EFB1C201A0C0CFB65
:1016D00007F842EA004290455AD9AA180CF1FF30A7
:1016E00004D2904502D9ACF102002A44A2EB0802D0
:1016F0009BB2B2FBFEFC0EFB1C220CFB07F743EA7D
:1017000002439F4246D9EB180CF1FF3204D29F42AC
:1017100002D9ACF102022B44DB1B42EA004202E098
:10172000AEEB020301224FEA154EAFB2200CB3FB21
:10173000FEFC0EFB1C330CFB07F840EA0343984504
:101740002AD9EB180CF1FF3004D2984502D9ACF13C
:1017500002002B44A3EB0803A4B2B3FBFEFC0EFB78
:101760001C330CFB07F744EA0344A74216D92C1993
:101770000CF1FF3304D2A74202D9ACF102032C448E
:10178000E41B43EA00400F46114678E71F2188E733
:101790006046ABE76246BFE76046DBE76346EFE7DC
:1017A000734506D916B9002108466DE7C6E9000E53
:1017B000F9E7B3FA83F787B9734501D3824207D8B3
:1017C000841A6EEB030301209C461EB900215BE7DF
:1017D0003846FAE7C6E9004CF8E7C7F1200CBB40F1
:1017E00000FA07F422FA0CF520FA0CF1BA401D4376
:1017F0002EFA0CF30EFA07FE4FEA154941EA0E01E4
:101800001FFA85FEB3FBF9F809FB18300B0C08FB37
:101810000EFA43EA00439A4540D9EB1808F1FF302D
:1018200004D29A4502D9A8F102002B44A3EB0A0383
:1018300089B2B3FBF9F809FB183308FB0EFE41EA45
:1018400003418E452CD9691808F1FF3304D28E4527
:1018500002D9A8F10203294443EA0040A1EB0E019A
:10186000A0FB02984145CE46434602D306D14C45E3
:1018700004D20138B9EB020E68EB0503002EA5D0A7
:10188000B4EB0E0261EB030101FA0CFC22FA07F340
:10189000F9404CEA0303C6E9003197E74046C5E743
:1018A0004346D9E7000000002DE9F04F8E070F46B0
:1018B00014468FB040F18F801DF004F9002800F02D
:1018C0008A8004A81DF009F9002800F0848094F8AB
:1018D000C15094F8C03005F10A0898457BDADDE97B
:1018E0000401FEF75BFF98A3D3E90023FFF7AEF8EE
:1018F000FFF764FA9649FFF7BFFB00210646FFF7A2
:1019000059FD4FF07C5100286CD03046FFF7AAFA01
:10191000FFF78EFD8146DDE90601FEF73FFF8AA352
:10192000D3E90023FFF792F8FFF748FA8849FFF759
:10193000A3FB00210646FFF73DFD4FF07C51002838
:1019400054D03046FFF78EFAFFF772FD064608982E
:10195000FFF73EFB7F49FFF743FC7F49FFF78CFB16
:1019600000218246FFF726FD4FF07C51002841D030
:101970005046FFF777FAFFF75BFD01238822635596
:10198000EB18DBB2E254AB1CDBB24FEA2942E25463
:10199000EB1CDBB24FEA2922E2542B1DDBB204F828
:1019A00003906B1DDBB23214E254AB1DDBB232127A
:1019B000E254EB1DDBB2E65405F10803DBB202147E
:1019C000E25405F10903DBB202120B35E25484F84C
:1019D000C15004F808007D0700F1AC8001200FB071
:1019E000BDE8F08F3046FFF73FFA91E73046FFF74A
:1019F0003BFAA9E75046FFF737FABCE7404603F049
:101A00005BF980B909F101034D465FFA83F940465D
:101A100004A903F063F940B108F1010803F046F9A5
:101A20004045EBDCDAE70125F1E7BDF81070F80678
:101A30001DD5DDF824B051465846FFF7BBFC002801
:101A400073D158464549FFF7D3FC00286FD158465B
:101A5000FFF714FDFFF7B8FA0022CDE90162022278
:101A60000346009265212A4620461DF091F8F907A9
:101A70000AD502230A226721CDE9003220462A46F0
:101A8000059B02961DF084F8BB070BD502234FF08F
:101A9000000C2A46CDE9013C68212046069B0096B1
:101AA0001DF076F878070BD50A230021CDE9013126
:101AB00002232A46009373212046079B1DF068F8F5
:101AC0003A0709D502232A46009379212046CDE919
:101AD0000166089B1DF05CF8BB060AD50223642052
:101AE0002A46CDE90030742120460A9B02961DF05B
:101AF0004FF879060BD502234FF47A727521CDE9A0
:101B0000003220462A460B9B02961DF041F83B0608
:101B100082D50023CDE9016302232A460093802168
:101B200020460C9B1DF034F876E7D3468FE74FF63E
:101B3000FF708FE74FF000084FF0020901264FF0C9
:101B4000000A6BE7AFF300800000000065CDCD41D7
:101B500000401C4600007A440000C84200FF7F4756
:101B60002DE9F0431446426987B092F88C30151D78
:101B700073B9CDE902538DF804108DF80530049344
:101B8000214601A805931DF0A3F807B0BDE8F08336
:101B9000012B1FD18268D2E90289D2E904678DF84E
:101BA00004108DF8053040460FA3D3E900234946C1
:101BB0000295FEF721FEFFF7B9F80BA3D3E9002346
:101BC000039039463046FEF717FEFFF7AFF80023C3
:101BD0000490D5E7D2E90A89D2E90C6701238DF890
:101BE0000410DEE7AFF300800000000080842E4187
:101BF0002DE9F041151D06460F469AB028469B492F
:101C00001C46FFF7C5FC30B9994920461AB0BDE81B
:101C1000F041FFF7C7BC0A222846964929F092F8FE
:101C2000C8B9736993F88120934B197991420BD10C
:101C30001B68924A0092924A4FF48071204618F035
:101C4000B5FB1AB0BDE8F0810130042803F10803A8
:101C5000EBD18C4BEDE7072228468B4929F072F82F
:101C600080B9736993F88220884B1979914202D127
:101C70001B68874ADEE70130042803F10803F4D12A
:101C8000804BF6E704222846824929F05BF840B9E8
:101C9000736993F88020804B8049002A08BF0B4667
:101CA0001DE0152228467E4929F04CF820B97369B9
:101CB00093F84F307B4A13E00F2228467A4929F0E7
:101CC00041F820B9736993F84E305B00F2E70E22B9
:101CD0002846764929F036F850B973695833744A62
:101CE0004FF4807120461AB0BDE8F04118F05EBB99
:101CF000DFB9072228466F4929F024F8A8B9B0694E
:101D00001C3603685B6D984740220AA91AF099FFB8
:101D10000AA90246304601F0DDFD33464FF48071DA
:101D20002046634A18F042FB8BE7042228466249AA
:101D300029F008F810B973690433D0E70622284661
:101D40005E4928F0FFFF18B9736993F84D20A2E7A8
:101D5000032228465A4928F0F5FF58B97369D3E998
:101D60000A23CDE90023574A4FF48071204618F02A
:101D70001DFB66E703222846534928F0E3FF18B904
:101D80007369D3E90C23ECE7102228464F4928F069
:101D9000D9FF18B9736993F87E308BE71222284671
:101DA0004B4928F0CFFF18B9736993F87D3081E76C
:101DB00009222846474928F0C5FF18B9736993F8E6
:101DC0007C3077E712222846434928F0BBFF38B918
:101DD0007369D86EFEF7B8FC404ACDE90001C3E74D
:101DE0000A2228463E4928F0ADFF90B93E232246FC
:101DF00002F8023B202363707169973111F8013FAB
:101E00000BB913701DE70A2B08BF7C2302F8013BB6
:101E1000F4E70B222846334928F094FF70B9736920
:101E200093F831310BB93049EFE6012B01D12F493D
:101E3000EBE6022B0CBF2E492E49E6E60A22284685
:101E40002D4928F07FFF00285AD12C492046FFF762
:101E5000A9FBB06903685B6D984720220146A01C6E
:101E60001AB0BDE8F04101F035BD00BF0EFD020023
:101E700011FD020035FD0200E0CF020047FD020027
:101E800040FD0200010B030065FD0200C0CF02000F
:101E9000491803006DFD020000FE0200650003000A
:101EA00072FD0200BBF8020078FD020088FD02000E
:101EB000DEF1020097FD020061090300E0F3020079
:101EC000D8F302009FFD0200DCF30200A6FD020031
:101ED000B7FD0200CAFD0200D4FD0200A9F802000D
:101EE000E7FD0200F2FD0200FEFD020004FE02001A
:101EF0000EFE020019FE020022FE02002BF8020074
:101F0000042228469A4928F01DFF28B9B0690368C1
:101F1000DB6898470346E2E60E222846954928F0FA
:101F200011FF08B9944970E60D222846934928F01C
:101F300009FF08B9924968E611222846914928F01C
:101F400001FFB0B935682B682846D3E917379847A1
:101F500001462846B8473668054633683046D3E917
:101F60001937984701463046B8472B46864A0090B5
:101F700062E60D222846854928F0E4FE0028D9D0E3
:101F80000E222846824928F0DDFE50B93068202212
:101F900003680AA99B6B984708B10AABBEE67D4966
:101FA00033E60E2228467C4928F0CCFE28BB306858
:101FB0000368DB68984700210746FFF7F1F908B18D
:101FC000764922E6306803681B689847054638461C
:101FD000FEF7BAFB6DB1724B724A1B681B88CDE9E4
:101FE0000001CDE902534FF48071204618F0DEF96C
:101FF00027E6CDE900016C4AB6E6062228466B4981
:1020000028F0A0FE20B9736993F81231684A67E698
:102010000E222846674928F095FE18B909F04AFEB5
:102020000346F3E70C222846634928F08BFE10B9DB
:102030000AF038F9F4E709222846604928F082FEC0
:1020400018B9736993F91F31E0E7082228465C4903
:1020500028F078FE90B977B196F8E010C1F1A101AF
:102060003E23237020230239A01C63701AB0BDE800
:10207000F04102F0D5BD4FF48071F1E70822284607
:10208000504928F05FFE38B91CF021FD03460028B6
:102090007FF410AE4C49B8E5032228464B4928F09E
:1020A00051FE002846D11CF00DFD00283FF4BBAEC8
:1020B00007A81CF01AFD9DF81C300AA8022B96BF39
:1020C000434A444D52F823501CF007FDBDF81E60F2
:1020D00000B3DDE90C01FEF761FB23A3D3E9002384
:1020E000FEF7B4FCCDE90401DDE90A01FEF756FB79
:1020F0001DA3D3E90023FEF7A9FC089BCDE902014B
:10210000CDE900634FF480712B462046324A18F027
:102110004DF996E5099B4BB1CDE900634FF4807111
:102120002B4620462D4A18F041F98AE52B462C4AC9
:10213000009681E50B2228462A4928F003FE30B993
:10214000B0690368D3F8803098470346B2E50E22A1
:102150002846254928F0F6FD002847D1736993F8F1
:102160001831A7E5AFF300800000000065CDCD4138
:102170002DFE020032FE020041FE02004FFE020070
:102180005DFE020083FE020095FE0200AFFE02002B
:10219000BDFE0200CCFE0200D6FE0200E5FE0200FB
:1021A000E4CC020006FF020031FF02004AFF0200F9
:1021B000B6F9020051FF020060FF02006DFF02004D
:1021C00077FF020080FF020089FF02003AF102005F
:1021D000B4CF0200CEFE020099FF0200CDFF020044
:1021E000F3FF0200100003001C0003000922284630
:1021F000514928F0A7FDC8B9AFB196F8E050C5F134
:10220000A10529464D4A204618F0D0F80146B0698C
:102210006A1A03682144D3F88830984700287FF46D
:1022200010AD4749F1E44FF48075EAE708222846EB
:10223000444928F087FD28B97369434993F816216A
:10224000424B2AE50A222846414928F07BFD18B96D
:10225000736993F91731D9E60B2228463D4928F0D6
:1022600071FD38B9736993F81931002B7FF422ADF1
:102270003949CAE428463949FFF78AF908B9384983
:10228000C3E408222846374928F05CFD002847D0DF
:102290000C222846344928F055FD002848D1B06961
:1022A0000368D3F89830984705460028B9D0002F26
:1022B0003BD096F8E070C7F1A107706803681B680F
:1022C000984780461FF070F873694FF47A7293F85C
:1022D0001531003B18BF012301930023FFF7EEF8EF
:1022E000434600903A462146284602F0FFFFA8E404
:1022F0001E4A3846002D18BF42461D4918F080F886
:102300000135032D07443FF49CAC73692B4493F8CB
:102310001A31002BECD1002D7FF493AC154974E4F5
:1023200027460546DFF85080EFE74FF48077C4E793
:102330002B46124AD4E400BF2B0003002BF8020006
:10234000C3F902003500030000FE0200650003002F
:102350003E00030049000300550003005F00030036
:1023600063000300680003008D00030049180300A8
:102370007100030076000300A5F502009A00030037
:102380001BA3D3E900230021C0E900231AA3D3E94A
:102390000023C0E902231AA3D3E90023C0E90423E0
:1023A00019A3D3E90023C0E9062319A3D3E9002325
:1023B000C0E9082318A3D3E90023C0E90A2318A31E
:1023C000D3E90023C0E90C2317A3D3E90023C0E914
:1023D0000E2300220023C0F8D010C0E93023C0E94A
:1023E00032238022403028F09ABC00BFAFF3008037
:1023F00008C9BCF367E6096A3BA7CA8485AE67BB18
:102400002BF894FE72F36E3CF1361D5F3AF54FA542
:10241000D182E6AD7F520E511F6C3E2B8C68059B1E
:102420006BBD41FBABD9831F79217E1319CDE05BD6
:1024300031F000432DE9F04F814687B00E46074644
:102440000C460DD180F480077F0017F5000F40F295
:10245000578331464846FEF707FD07B0BDE8F08FC9
:1024600020F000480146B8F1FF4F02D8B3F1FF4F0A
:1024700008D9B7F17E5FECD184F48004640014F5D0
:10248000000FE4E7002823DAB3F1974F80F03D8393
:10249000B3F17E5F36D3DA15C2F1960243FA02F544
:1024A00005FA02F29A4225D105F00105C5F10205AF
:1024B000B3F17E5F27D1002C7EDA00214846FEF77B
:1024C0006FFFC8B1F80F07B0BDE8F04F19F01EBE9E
:1024D000B3F1FF4F0ED1B8F17E5F00F0118304D944
:1024E000002C80F210830020B7E7002CFBDA06F105
:1024F0000040B2E70025DBE749464FF07E50FEF78B
:102500006FFEAAE70025B4F1804F424640F00383F6
:10251000B8F1BF4F20D2B8F1D05F04D94946484640
:10252000FEF7AAFD99E729F00040B8F1000F40D06E
:10253000F90F01390391294324D0B3F19A4F40F2A6
:10254000D780654B984539D8002C3CDA002007B07D
:10255000BDE8F04F19F0D2BD27F0404C29F0004003
:10256000BCF17E5F1AD1002C04DA01464FF07E5098
:10257000FEF736FE002FBFF670AFA8F17E5858EA7E
:10258000050805D1484607B0BDE8F04F19F0C6BDB3
:10259000012D7FF462AF00F100405EE7B8F1000F5B
:1025A000C6D1002C05DA17B16B1E594259410846B5
:1025B00089E7012D7FF451AF48464EE7474B9845D8
:1025C00007D9002CC2DC002007B0BDE8F04F28F08E
:1025D00092BE4FF07E51FEF745FC07464049FEF79C
:1025E0004BFD404981463846FEF746FD804638A1FE
:1025F000D1E90001FEF7E2FB82464FF07A513846FE
:10260000FEF73AFD01465046FEF72CFC3946FEF730
:1026100033FD01464FF07C50FEF724FC82463946DC
:102620003846FEF729FD01465046FEF725FD2E49A6
:10263000FEF722FD01464046FEF714FC01468046A7
:102640004846FEF711FC20F47F67494627F00F0744
:102650003846FEF707FC01464046013DFEF702FC06
:10266000039B6FF30B0480461D433046214614BF85
:102670004FF07E551D4DFEF7F5FB3946FEF7FCFC8D
:10268000814631464046FEF7F7FC01464846FEF7D4
:10269000EBFB064621463846FEF7EEFC01460746B0
:1026A0003046FEF7E1FB00280446804620F0004358
:1026B00040F34481B3F1864F40F22D81002128463A
:1026C000FEF778FE003818BF012040E7AFF3008026
:1026D000E13D55555555D53FF3FF7F3F0700803FFE
:1026E00000AAB83F70A5EC363BAAB83F000080BFF7
:1026F00017F0FF4F40F00B814FF09741FEF7BCFC05
:102700006FF017010246D315C2F316027F3B0B444C
:1027100095498A42029342F07E5308DD93498A42EA
:1027200040F3F780029AA3F50003013202920027DA
:102730008F4A9A461846049352F827B05946FEF736
:1027400091FB514681465846FEF78EFB01464FF0FD
:102750007E50FEF745FD014605904846FEF78CFC8D
:102760000190019B83496FF30B039846049B01EA98
:102770006303414643F0005303F5800303EB4753E3
:1027800018460493FEF778FC01464846FEF76AFBBC
:10279000049B814659461846FEF764FB01465046A5
:1027A000FEF760FB4146FEF767FC01464846FEF730
:1027B00059FB059A1146FEF75FFC019983460846CE
:1027C000FEF75AFC6C498146FEF756FC6B49FEF752
:1027D0004BFB4946FEF750FC6949FEF745FB49466D
:1027E000FEF74AFC6749FEF73FFB4946FEF744FC0B
:1027F0006549FEF739FB4946FEF73EFC6349FEF7A3
:1028000033FB824649464846FEF736FC01465046B1
:10281000FEF732FC414681460198FEF725FB5946FA
:10282000FEF72AFC4946FEF71FFB4146824640461A
:10283000FEF722FC56490490FEF716FB5146FEF7C0
:1028400013FB20F47F69414629F00F094846FEF743
:1028500013FC4F4980464846FEF704FB0499FEF7F7
:1028600001FB01465046FEF7FDFA0199FEF704FC14
:10287000824649465846FEF7FFFB01465046FEF7A2
:10288000F3FA834601464046FEF7EEFA20F47F69EC
:10289000404929F00F094846FEF7EEFB41468246C3
:1028A0004846FEF7DFFA01465846FEF7DBFA3A499A
:1028B000FEF7E2FB804639494846FEF7DDFB01465C
:1028C0004046FEF7D1FA364B53F82710FEF7CCFA04
:1028D00080460298FEF77CFB324B8146414653F816
:1028E00027B05046FEF7C0FA5946FEF7BDFA4946F2
:1028F000FEF7BAFA20F47F67494627F00F073846FB
:10290000FEF7B0FA5946FEF7ADFA5146A1E60021AE
:10291000F9E601270CE74BD123493046FEF7A4FA2C
:10292000814639462046FEF79DFA01464846FEF7A5
:102930005FFD00287FF4C2AE86233EE01B4A93422F
:1029400007D900212846FEF735FD003818BF0120C1
:102950003AE62DD13946FEF785FA3146FEF73EFDBF
:102960000028E9D0EDE700BF71C41C00D6B35D00BC
:10297000D0EB020000F0FFDF42F1533E55326C3ED7
:1029800005A38B3EABAAAA3EB76DDB3E9A99193FD1
:10299000000040400040763F4F38763FC623F6B8EF
:1029A000C0EB0200C8EB02003CAA3833000016431B
:1029B000B3F17C5F40F2A080DB157E3B4FF4000456
:1029C0005B49B8F1000F44FA03F438464444C4F3B9
:1029D000C753A3F17F0341FA03F1C3F1170301EADF
:1029E0000401C4F3160444F4000444FA03F4B8BF29
:1029F0006442FEF737FA074631463846FEF734FAA6
:102A000020F47F694B4929F00F094846FEF734FB53
:102A1000394680464846FEF725FA01463046FEF71D
:102A200021FA4549FEF728FB064644494846FEF789
:102A300023FB01463046FEF717FA0746014640469B
:102A4000FEF712FA41460646FEF70CFA01463846F2
:102A5000FEF708FA314680463046FEF70DFB38494E
:102A60000746FEF709FB3749FEF7FCF93946FEF742
:102A700003FB3549FEF7F8F93946FEF7FDFA33490D
:102A8000FEF7F0F93946FEF7F7FA3149FEF7ECF9AF
:102A90003946FEF7F1FA01463046FEF7E3F90746FC
:102AA00001463046FEF7E8FA81464FF0804138464D
:102AB000FEF7D8F901464846FEF792FB4146074625
:102AC0003046FEF7D9FA4146FEF7CEF901463846C0
:102AD000FEF7C8F93146FEF7C5F901464FF07E50C2
:102AE000FEF7C0F900EBC453B3F5000F06DA214638
:102AF00019F0A6FA294613E500247DE71846F9E700
:102B00004FF07E50A9E43046A7E4B3F1FF4F3FF405
:102B1000E2AC42460225B4F17C5F7FF41DAD002F8C
:102B2000FFF61AAD484607B0BDE8F04F28F078BC74
:102B3000000080FF0072313F1872313F8CBEBF35FC
:102B40004CBB31330EEADD3555B38A38610B363B69
:102B5000ABAA2A3E002110B50446074B4FF4C072C1
:102B6000C0E96011C0E96211C0F89011C0F8943159
:102B700028F0D5F8204610BDCDCC4C3E024630B5ED
:102B800053880178082B28BF08230B48C1F3830121
:102B90000A4C4840604302F14901C2F1FF2202F5AC
:102BA0007F02B7325518AB4200DC30BD11F8015F2F
:102BB00068406043F6E700BFC59D1C81930100019A
:102BC0002DE9F04104460D460746002642F21078F2
:102BD0003B7B3BB17B68EB1A434503D9314620462A
:102BE00019F0B4FA0136182E07F11007F0D1D4F815
:102BF0008C3133B3154AEB1A934222D9D4F884317D
:102C0000FBB1D4F8903123B9A5F59C53083BC4F827
:102C1000903141F2873641F2883003F51C41403152
:102C2000EA1AB2420BD9D4F8842142B10344A2EB90
:102C3000D2028B42C4F88421C4F89031F0D1BDE8AF
:102C4000F0810023C4F89031F9E700BFE09304005D
:102C500070B50346024600F5C0766FF00040C1F53E
:102C60001C551135147B34B154682C4424EAE474A7
:102C7000A04228BF20461032B242F3D1D3F88C21B3
:102C800092B1D3F884417CB10D4C8D1AA5420CD978
:102C9000D3F890312BB1C1F59C5108310B4423EA94
:102CA000E373984228BF184670BDC1F5922101F226
:102CB000E131114421EAE171884228BF0846F3E777
:102CC000E093040010B5D0F88831032B26DDD0F84E
:102CD0008401FEF779F94FF06E51FEF7CDF900212E
:102CE0000446FEF771FBE0B94FF081412046FEF744
:102CF000BBF801462046FEF773FA0B49FEF7BCF914
:102D00000A49FEF7B1F84FF07E510446FEF770FB1A
:102D100010B14FF07E5010BD2046FCE74FF07C50C4
:102D2000F9E70248F7E700BF9A99193FCDCCCC3EAE
:102D300000487047491803000048704780EE36008D
:102D400030B5C0E91912C366012200230E4DC0E957
:102D50000433C0E90633C0E90E33C0E91233C0E9D9
:102D60000A33C0E90C33C0E91533C0E917330560F5
:102D7000436080F844300364A0F87030036280F848
:102D80002420A0F8503030BD60C8020070B5B8B043
:102D900001460446684627F096F89DF80030013B4E
:102DA000DBB2FD2B38D8274B28AA03F14006154685
:102DB00018685968083303C5B3422A46F7D1224B35
:102DC00008AA03F12006154618685968083303C598
:102DD000B3422A46F7D108A920A815F043F82146A6
:102DE00020AA10A827F01BF8694620A815F03AF889
:102DF00020AA28A918A827F012F8202218A910A89C
:102E00001AF036FD044658B9202110A81AF06AFDC0
:102E1000202118A81AF066FD0024204638B070BDA5
:102E2000002310A911F8012B1AB90133202BF9D175
:102E3000144610A820211AF055FD202118A81AF0D8
:102E400051FDEAE78EEC0200CFEC02002DE9F04FD5
:102E50000A78054602F00303023B012B0C46F3B04F
:102E600070D802F03C06242E0B795BD13F2B1CD886
:102E70004E88082E19D991F85270093E07F00302C6
:102E80009340F6B21FFA83FC664510D801F1530255
:102E90000368029201F10A02CDE9007203961D6EE9
:102EA000D1F84A20D1F84E30A847002037E0012160
:102EB000533301FA02F200F50671E01827F042FFE1
:102EC0000028F2D12B68214628465B6C98470028E1
:102ED000EBD0E86F214603681B6898470028E4D1CF
:102EE000E86F214603685B68984794F90201FEF792
:102EF0006FF84FF07A51FEF7BFF84FF08141FEF7BF
:102F0000BBF8FEF795FA237921465A1C2344227117
:102F100098722B682846DB6C984740F0C06073B00D
:102F2000BDE8F08F2C2E03F03F030AD191F94A60DF
:102F3000002E80F2B782002BB7D103685B6F9847F1
:102F4000B3E76BBB104619F09AFF002840F0808071
:102F50002378C3F383020F2AA7D801A151F822F0E6
:102F6000FB300000FB300000FB300000B9300000F7
:102F70003B330000AF320000AF3200002B320000C4
:102F8000FB300000AB2E000025340000AB2E00000B
:102F9000AB2E0000AB2E0000AB2E0000F53300007E
:102FA0000C2E08D14B88032B05D90368D1F84A2091
:102FB000D3F884309847227905F5067192090132D9
:102FC00004F10A0027F0BEFE00287FF46EAF2B68E4
:102FD000214628465B6C984700283FF466AF23786B
:102FE000C3F383030A2B04D1214628461AF0DFF9E4
:102FF0005BE7E86F032B02682146126813D1904704
:10300000064600287FF451AFE86F214603685B68ED
:1030100098472146284619F0EEFF324621462846B9
:103020001AF06EF941E7904700287FF43EAFE86F51
:10303000214603685B6898472146284619F0DBFF64
:103040002B6821462846DB6C984740F0807066E785
:103050002B68214628461B6C984700287FF425AF33
:10306000207819F00CFF00283FF472AF2046FFF7DC
:1030700085FD0646A86E05F1800703681B68984722
:1030800031460246384619F0A7F820B131462846A5
:1030900019F00FFF5CE72B6828469B6B98470028C8
:1030A0003FF456AFA86E03681B6898473146024646
:1030B000384619F06BF84BE76388032B7FF6F5AEC3
:1030C000E86F21460368D4F84A601B6898470028D7
:1030D0007FF4EBAEE86F214603685B6898472B6886
:1030E000324621462846D3F8843098472146284660
:1030F00073B0BDE8F04F19F09EBF94F84B300DF15E
:10310000200A8AF80030638894F84A70042B7FF60E
:10311000CCAEE86F214603681B6898470646002836
:103120007FF4C3AEE86F214603685B68984795F863
:103130001832BB4268D12B68514628465B6D9847D0
:10314000814604F14C0B10AF0DF1C408B1455BDDB5
:103150002B683246394628469B6D984763885A4605
:10316000023B414638461AF09AFB031E5BDD22788B
:10317000C2F38302082A4CD198F80090079348467E
:103180001AF053FA00283FD04FEA991109F03F0294
:1031900001FB0222079B501C834235DD02329B1A41
:1031A000DBB2424429680392049318F800300DF111
:1031B000C50803F00F03CDE90193CDF80080D1F8E5
:1031C00064B03B46324621462846D847D0B12078E5
:1031D00019F055FEB0B10023CDE9023301932379F4
:1031E000514600933A46284604F10A0319F0BCFF01
:1031F000014638B14FF4FA734246009328464B46D5
:103200001AF0A0F9FF2323702146284619F013FF76
:1032100085E62968CDE901830097CF6D33462146C5
:103220002846B847EEE7013690E76388232B7FF600
:103230003CAEE86F2146036894F84A601B689847E3
:1032400000287FF432AEE86F214603685B68984738
:1032500095F81832B3427FF449AF04F14B0608AA3F
:1032600004F16B07134630687168083603C3BE4229
:103270001A46F7D108AA10A905F5067019F0B2FD93
:10328000638831AF32463946213B10A81AF007FB5C
:1032900000287FF72BAF2B68CDE900702146DE6E4A
:1032A000284608AB10AAB047FF2323701EE794F806
:1032B0004A3008AF3B706388032B7FF6F6ADE86FAA
:1032C000214603681B689847064600287FF4EDAD49
:1032D000E86F214603680DF140095B6898472B6849
:1032E0003946D3F87C804A4604232846C04707461F
:1032F00004F14B0A0DF141080DF1C40BB74283DD17
:103300006388404652465946013B1AF0C8FA0028E5
:1033100008F121080FDD2B682278CDE900B006EB1B
:103320004616D3F880702146284609EB0603C2F3FF
:103330008302B84768E70136E0E710A819F01DFCE2
:1033400010AE04F14A0304F16A073246186859685E
:10335000083303C2BB421646F7D16388632B7FF65E
:10336000A4AD202210A905F5067027F0EBFC00287B
:103370003FF49BADE86F21460368D4F86AA01B6850
:10338000984700287FF491ADE86F0DF1C4090368F8
:1033900021465B684E469847B4F8028010AFA8F10A
:1033A0006408B8F1200FA8BF4FF020080FCF0FC658
:1033B00097E80F0004F1AE0B86E80F00424659462D
:1033C0003AA8CDF8E4A027F084FC4A4608F124038B
:1033D00004F16E0110A819F0D8FB00283FF465AD88
:1033E0002B68CDE900B821469E6E2846534610AAA8
:1033F000B04709E703F00303023B012B3FF655AD4D
:10340000E86F214603681B68984700287FF44DAD9C
:10341000E86F214603685B6898472B682146284679
:103420009B6F8CE56288022A7FF63FAD94F84A30A4
:1034300003F00F03032B7FF438AD042A7FF635AD7C
:1034400031AE30461AF0ECF8237840228DF8C430C3
:1034500004F10A0123790DF1CE001AF007F9628810
:103460008DF8C800013A92B204F14B010DF5877056
:10347000ADF8C62027F02DFCE86F314603681B68C5
:10348000984700287FF411ADE86F314603685B6808
:1034900098472B6831462846D3F88430DDF80E2152
:1034A000984702E5002B3FF44DAD84E538B50B4B52
:1034B0001C786CB901220A4D1A70002329461A465D
:1034C000084801341AF03FF9202C05F58275F4D133
:1034D0000021BDE8384003481AF011B99EA300202E
:1034E0001883002034510020014BD3F8200170478D
:1034F00010500020014BD3F82001704734510020B8
:1035000001481AF0FCB800BF10500020044BD3F85B
:1035100020219142BABF283153F821000020704782
:1035200010500020054BD3F820018142BDBF283147
:10353000012043F821200020704700BF10500020D8
:1035400021B1002302481A461AF0FDB8704700BFA7
:10355000345100200022FF2070B50A4BD3F82061BF
:1035600003F19C058033B24200DB70BD55F8044F77
:10357000641A002C03DC9C5CA04228BF2046013268
:10358000F1E700BF105000202DE9F04705469046B6
:1035900099460F4699B31B4E30461AF0D4F80446AC
:1035A00068BBD6F8200118B32146234606F17F0CEC
:1035B000A04214DC0E4496F88030434518D91148D7
:1035C0001AF09DF82B6801465B68284698474B46E1
:1035D00042463946BDE8F0470A481AF0B4B81CF82C
:1035E000012F9A4234BF1A46214613460134DFE7C1
:1035F0002B6839462846BDE8F0475B681847BDE8A8
:10360000F08700BF10500020F0B400230C46FF20CC
:103610004FF0FF310E4AD2F8207102F19C06803241
:10362000BB4205DB4B1C0FD0F0BC09481AF067B851
:1036300056F8045F2D1B002D04DCD55C85423CBF91
:10364000194628460133EBE70020F0BC704700BF65
:103650001050002030B50A4B4A1CD3F820510DD031
:10366000002210469C33AA4200DB30BD53F8044FC1
:103670000132641A002CD8BF0130F4E72846F4E781
:1036800010500020002907DB044BD3F82021914281
:1036900002DA53F8210070470020704710500020D4
:1036A00038B500240D4D281904F5827419F0B8FFBF
:1036B000B4F5025FF7D10024094B21468022184659
:1036C000C3F8204127F02BFB064B2146C3F82041CD
:1036D0001846BDE83840802227F021BB188300201F
:1036E00034510020105000202DE9F0430D468DB0DC
:1036F00012F00F01804614461E469DF8509004D0EB
:103700004FF0FF300DB0BDE8F083184B142207A82E
:10371000069327F004FBB9F1000F0CBF4FF40073C0
:103720004FF48073124F08931022414604AB06A851
:10373000099726F0F0FE0028E2D105ABCDE9014360
:103740002A462346394604980096B9F1000F09D05D
:1037500015F042F80446049826F0C1FE002CCFD1A3
:103760000598CFE715F0D4F8F4E700BF00248000F7
:10377000004440042DE9F04194B007460C4616463B
:103780000021142207A81D4627F0C9FA4FF48853D8
:10379000ADF818304FF48073ADF81A304FF48063F1
:1037A000DFF84C802022CDE90838394604AB06A862
:1037B00026F0B1FE28B14FF0FF34204614B0BDE82A
:1037C000F08105AB0293202301930CAB22460093BA
:1037D00041463346049827F03AF80446049826F008
:1037E0007EFE002CE7D1BDF830302B80E5E700BF2E
:1037F0000900800330B58DB00D4611461A4603AB63
:1038000001932023044600930A4804AB26F04FFF9F
:103810002A4630B1002120460DB0BDE8304027F0E7
:103820007EBA202D28BF2022204604A927F051FA75
:103830000DB030BD090000022DE9F043A7B00446E9
:10384000DDE92E890D461646002170220AA81F4682
:1038500027F065FA16490AA826F0DAFEE8B93A46D2
:1038600031460AA826F0F5FEB8B94A4641460AA8EC
:1038700026F0EFFE88B9202201AB02A90AA826F0A3
:10388000FFFE50B9202D2A46204628BF202202A93B
:1038900027F01FFA27B0BDE8F0830AA826F0A9FE9A
:1038A0002A460021204627B0BDE8F04327F037BA6A
:1038B0000900000208B5054B002814BF014619464F
:1038C00003481EF0B5FA01200AF0DCF8F0EC020023
:1038D000FCEC02000346F0B50A4D8E18B14203F12C
:1038E000020303D1002300F81230F0BD11F8014BA0
:1038F000270904F00F04EF5D2C5D03F8027C03F848
:10390000014CEBE76D1A03002DE9F04105460C462A
:10391000DFF830808F18BC4201D1BDE8F08114F887
:10392000016B2B68320918F8021028469B689847EB
:103930002B6806F00F0628469B6818F80610984773
:10394000E9E700BF6D1A0300004870471CED020054
:1039500008B510460249FDF725FE002008BD00BF4E
:1039600031ED020030B50022702113488BB001F018
:103970009BFE041E104D19DD22462846691C27F0C7
:10398000B5F9013C02A801F057FF60B16F2C0ADCC9
:10399000039B0A4A019305AB0093C4F17001029B9B
:1039A000281916F003FD04480BB030BD2846044921
:1039B000FDF7F8FD0724E5E79FA3002067ED02006F
:1039C0005FED020037B5124C204624F05DFA10B9C5
:1039D000104803B030BDA5684E212046EB689847DB
:1039E0000028F5D10C216A4620462B69984700280B
:1039F000EED10198FDF7ECFA0749FDF7F1FB04461B
:103A00000098FDF7E5FA01462046FDF72DFAE0E7BC
:103A100040B802000000C07F0024744970B504461D
:103A20004FF0FF324FF0FF33134812F07FFB24F0CA
:103A300031FD4FF47A75A0FB0506002305FB0161FB
:103A400047F61222FDF78AFDD4E90253002B08DB6A
:103A5000421B42F2107561EB0303AA4273F10003AB
:103A600003DB0023C4E90201E380E488024812F08A
:103A7000FFFB204670BD00BF7407002008B5036837
:103A80001B689847BDE80840014601481BF0C9BDC6
:103A9000E4CC020007B5064B8DF8070001220DF1BA
:103AA0000701044801F092FF03B05DF804FB00BF7A
:103AB00084ED020094ED020073B5124B124C1D7898
:103AC00015B1207802B070BD012610481E701BF0A1
:103AD0007DFB0028F5D032460C4801AB0DF1030107
:103AE0008DF8035001951BF08AFB38B1019B2BB177
:103AF0009DF80330012B08BF4C23237003481BF0B3
:103B000070FBDEE710A400200FA4002094ED02005B
:103B10004C28024607D0552807D0054B0548002AF7
:103B200008BF18467047044870470448704700BFF4
:103B3000A0ED02005FED0200A5ED0200B1ED020074
:103B400083B519F084FF1DF016FE1AF0D4FF06218C
:103B5000264A274819F05CFF0921264A264819F011
:103B600057FF24F097FC4FF47A74A0FB0405002360
:103B700004FB015147F61222FDF7F0FC41F28833B5
:103B80001D4FC418D7F8108041F10005BB681A48D2
:103B90005B6801A9984790B9D8F80020019B534071
:103BA0009B050CD4154A164BD2F8A4100B4043F4D5
:103BB000403343F00C03C2F8A4301EF046F924F061
:103BC00069FC4FF47A76A0FB060C47F6122200231C
:103BD00006FB01C1FDF7C2FCA042A941E2DA40F2B6
:103BE0003910002113F01CF9D0E700BF01001A00C2
:103BF00060B602001100010080B60200000405500A
:103C0000F0F0FCFF3E28024630D016D8142830D001
:103C10000AD80A2830D00F2831D041F684601F4BD3
:103C2000072A18BF184670471F282BD04AF2C32016
:103C30001A4B292A18BF18467047B0F5FA7F24D0CE
:103C40000AD8FA2823D0B0F5C87F22D0134B1448E5
:103C5000C82A18BF18467047B0F5487F1BD00F4BD5
:103C60001048B2F57A7F18BF184670474FF22440CB
:103C7000704745F26110704742F6B100704743F655
:103C80000950704747F612207047074870470748A9
:103C90007047074870470748704700BF48E8010071
:103CA000F818030040420F0020A1070090D0030045
:103CB000F0310600E0630C0070B503690D4693F81F
:103CC00074301446073B052B2ED8184A52F823604F
:103CD0003046FDF78DFB38BB2046FDF779F94FF0F4
:103CE0006E51FDF7C9F901464FF07E50FDF7BAF865
:103CF000314604462846FDF7B5F80D49FDF770FA40
:103D000001462046FDF7B8F900210446FDF752FBB5
:103D100050B94FF07E512046FDF76AFB10B14FF0CD
:103D20007E5070BD2046FCE70020FAE77CCA020006
:103D30000000204170B5044619F027FFD4F88039FF
:103D4000D4F88429054653EA02004DD05B1B62EB90
:103D50000102012B72F100003EDB6FF00040834254
:103D600072F1000200DA1846B4F8683A9BB394F98D
:103D70005A3A803314D0D4F8602AD4F8646A521BBB
:103D800066EB0106012A76F1000327DB6FF00043A2
:103D90009A4276F1000600DA1346984228BF184688
:103DA000D4F8703AD4F8742A53EA02041CD00F4CA9
:103DB0001B1942F100025B1B62EB0101012B71F147
:103DC00000020DDB6FF00042934271F1000109DA4D
:103DD000984228BF184670BD0020C5E70023DCE7E5
:103DE0000023F5E71346F3E70020F4E700974901C5
:103DF0002DE9F04F8BB004468846174619F071FE46
:103E0000814638B939464046684A0BB0BDE8F04FA4
:103E100016F0CCBAD4F89809002800F091800A2353
:103E20006421D4F89C295A43D4F8A03902EB5002FB
:103E30004B4303EB5003B2FBF0F2B3FBF0F094F80A
:103E4000573A04F6A81A27EAE771002B7AD194F8BA
:103E500054CA574D574B94F9556ABCF1000F08BF2F
:103E60002B460A250590B2FBF5F005FB1022CDE9A3
:103E7000030209EB0602CDE9006240464E4ACDF846
:103E8000089016F093FAC72F054640445EDDD4F83B
:103E90009C3A791B0393D4F8983A484A0293D4F891
:103EA000943A0193D4F8903A0093D4F8983916F0E4
:103EB0007DFA054408EB0500791B94F8583A404A0E
:103EC00016F074FA0544204619F061FF014640B926
:103ED000AF4208EB0500C8BF791B3A4A16F066FAF4
:103EE0000A3550461AF0A5FB834650461AF0B7FB38
:103EF0005E45B8BF5E468642B246A8BF82460AF11A
:103F0000FF36B345CABF0BF102030AF101035E4657
:103F10006FF007028342C4BF0346861E9642B8BFB5
:103F200016460C2BA8BF0C234FF0640B099304EB2F
:103F3000C604099B9E420DDD28460BB0BDE8F08FFC
:103F400002467CE794F9566A1F4B8AE7AF42B3DC1E
:103F50000021B2E7B4F8EC29B4F8F0C91AB3530859
:103F60000BFB0C33B3FBF2F30693B4F8F239BD420A
:103F7000CDE904C3B4F8EE39B8BF791BCDE902230B
:103F800009EB0603CDE90063A8BF002108EB05009B
:103F9000B24514BF20232A230C4A16F007FA013633
:103FA00005440834C5E71346DEE700BFBEED020056
:103FB00000FE020065000300C6ED0200ECED020009
:103FC00001EE02000AEE0200BAF3020015EE020052
:103FD0002DE9F843002500264FF000084FF00009B6
:103FE000474B484F03608C33436000F51863C0E9CA
:103FF00002714662C0E90452C0E906550562866254
:10400000C0F85C58C0F86058C0F8745980F8785906
:10401000C0F87C59C3E9008943F69823044680F828
:104020008859C0F88C39C0F89059C0F89459C0F834
:104030009859C0F89C59C0F8A059011D00F6A81065
:104040001AF0E2FA04F52763A4F8685AC3E9008974
:104050003B6984F8785A5B1B18BF012384F8793ACE
:104060004FF40043C4F87C5AC4F8805AC4F8845A08
:10407000C4F8885AA4F88C5A84F88E5AC4F8905A16
:10408000C4F8945AC4F8985AC4F89C5AC4F8A05A70
:10409000A4F8A43AC4F8A85AC4F8AC5AA4F8B05A80
:1040A000C4F8B45AA4F8CC5AC4F8D06AC4F8D46A94
:1040B000A4F8D85AC4F8DC5AC4F8E05AC4F8E45A50
:1040C000C4F8E85A84F8A05BA4F8A25BC4F8A45B27
:1040D000C4F8A85BC4F8AC5B04F6641024F029FBB8
:1040E0000122294604F6883023F0BAFF4FF4036218
:1040F000294604F12C0026F012FE2046BDE8F88384
:10410000E0C90200ECCC020008B50346C068B3F871
:10411000A21B8368002908BFFF215B68984758B13C
:10412000084B98420BD841F2883300F5FA704000F2
:10413000984238BF184608BD41F28830FBE76FF45B
:104140007A70F8E70BFEFF7F30B590F8A03B04468D
:1041500089B0CBB900F52F65002000210A22CDE9F6
:104160000601CDE90232CDE9004304934FF4006229
:104170002846064B064912F0D3FB0649284624F090
:104180004FF8012384F8A03B09B030BDE9DE0100FF
:1041900060AF002035EE02002DE9F8430C460546DD
:1041A000174600211422204626F0B9FD95F8CD3A95
:1041B000002B35D0D5F8D00AD5F8D49A95F8D88AFE
:1041C00095F8D96A1B49FCF757FFFDF757F92060AE
:1041D0004846FDF753F9B31F80B219F039FC022BA2
:1041E00096BF043E0126F6B2B8F1080F8CBF10232B
:1041F0002023A08084F80680E67123812B696FF06C
:10420000080293F94C302773162BA8BF162393424C
:10421000B8BF1346A37240F202432382BDE8F8837D
:104220002B69986CD3F8789093F8748093F8756044
:10423000C8E700BF0024744908B590F8CD3A5BB1D7
:10424000D0F8D00A0649FCF717FF4FF07C51FCF775
:104250000BFEFDF713F908BD0369986CF2E700BF88
:104260000024744908B590F8CD3A63B1D0F8D40A67
:104270000649FCF701FF4FF07C51FCF7F5FDFDF717
:10428000FDF880B208BD0369986FF1E70000204196
:1042900002462DE9F04719F081FD92F8CD3A0F461C
:1042A0000546002B00F0BD80D2F8D49A104619F0D4
:1042B0007FFD9368044693F8008008F10506F6B286
:1042C000B54203D30C2D28BF0C25EEB248465B49FE
:1042D000FDF770F808B1DFF868914846FDF7CEF8B1
:1042E00080B219F0B5FBFFF78DFC082C28BF08241D
:1042F00005460120E4B2052C00FA06F038BF05247B
:10430000FCF766FE81462846FCF75EFE4D49FCF749
:1043100067FF4C49FCF7B0FE01464846FCF760FFDA
:104320008146B8F1000F01D1062E7ED9082E4FF03C
:1043300000057DD82020FCF74BFE4349FCF794FD97
:10434000294680462846FCF78FFD01464046FCF78B
:104350008BFD4946FCF790FE3C4980464846FDF7F8
:1043600047F8002866D04FF07E5A3046FCF730FE02
:1043700006463846FCF72CFE4FF08241FCF77CFEE7
:104380004FF0814107463046FCF776FE014638463D
:10439000FCF768FD2E49FCF767FD4FF08341FCF701
:1043A00063FD4FF0824107462846FCF765FE014653
:1043B0003846FCF757FD514607465046FCF754FD7A
:1043C00001463046FCF74EFD4FF08141FCF754FEAC
:1043D0004FF07E510546FCF7EDFF08B14FF08145E7
:1043E00029463846FCF7FCFE17F0DAFD0546204664
:1043F000FCF7EEFD2946FCF73FFE002126F02AFFE0
:104400004FF08241FCF730FD4946FCF735FE41464E
:10441000FCF72AFD0B49FCF72FFEFDF72FF8BDE84E
:10442000F0871369D3F8789040E74FF07E5581E725
:10443000102080E74FF0000A97E700BF0000E0403F
:104440000000FA4200007A44000088405A2F863C5F
:104450000000E0412DE9F04705468AB019F03EFD25
:1044600095F8783A05F11807002B00F085800022B6
:10447000284605A9FFF790FE9DF81A40BDF81C607C
:10448000062C8CBF4FF0080A4FF00C0ABAF1080F47
:104490000CBF112319239E427DDDBDF81800FFF7E4
:1044A000B1FB012102463E48A1400023A1FB0001CF
:1044B000FDF754F8AB680446DB69002B53D0E8687D
:1044C000984780460520A6EB4A0909F1FF3904FB0D
:1044D00009F964220023A9FB0001FDF73FF808F564
:1044E000FA63A9EB00018B42D5F87C2A3ED20E3646
:1044F0006643A1EB08018E420AFB044408D9731CF1
:10450000A3EB0903034443445B089C4238BF1C46A9
:10451000944203D1D5F8803A8B4203D0C5F87C4A47
:10452000C5F8801A00261F34E86846F100031F31E1
:104530004FEA541246F1000486684909766A42EA55
:10454000C36241EAC4615B096409AEB1DFF854C0DB
:1045500003958DE81210B04770B921F0D3FE012108
:10456000C5F8940911E040F2DC58ABE7013203D002
:104570004FF0FF33C5F87C3AE8682A46836809495A
:104580005B6998470028E8DA002138460AB0BDE8A0
:10459000F04719F026BBD5F87C3A0133E7E700BFB6
:1045A00040420F009FDC010038B5836804469B6AD7
:1045B0000D46BBB100F6A43019F0C4FA034604F668
:1045C000AC3019F0BFFA1844D4F8843A984202D1BA
:1045D000D4F8883A3BB9C4F8840A012D38BF0125C4
:1045E000C4F8885A38BD084ACB1A9342FAD994F8CD
:1045F0008E3A072BF6D9A3689B6A0BB1E0689847FF
:104600002046FFF727FFE8E7BF270900F8B58368D2
:104610000446DB6A0F46002B38D090F8B03A33B12D
:10462000D0F8A83AD0F8AC2ACB1A93422ED3D4F8BB
:10463000B43A23B14EF65F22FB1A934226D9606941
:1046400020B303685B68984701460546FCF7DAFE2D
:104650000646D8B9284626F020FE0122164B05B2A0
:10466000C4F8AC3AB4F9A43A84F8B02A13F5004F70
:10467000C4F8A87A02D1A4F8A45A07E0EB1A002BD8
:10468000B8BF5B42042B02DC84F8B16AF8BD94F831
:10469000B13A33B943F6982384F8B12AC4F8AC3A56
:1046A000F4E7A36884F8B16ADB6A0BB1E068984765
:1046B0002046FFF7CFFEDEE780EE360038B5044631
:1046C0001C3019F03FFA98BB204619F022FD78BB48
:1046D00019F05BFA054604F6A43019F033FA0346E4
:1046E00004F6AC3019F02EFAD4F8842A034493422D
:1046F00002D1D4F8883A63B90023C4F8A03A294615
:104700002046FFF751FF29462046BDE83840FFF715
:104710007DBF084AEB1A9342F1D9D4F8A03A13B1FD
:10472000EB1A9342EBD9012D2B4638BF0123E4E766
:1047300038BD00BFBFD401002DE9F843B0F8683A96
:1047400004463BB190F8CD8AB8F1000F04D00023A5
:1047500080F89339BDE8F88319F017FAD4F8702A75
:10476000D4F8743A0E4652EA030104F52767054669
:1047700062D1C4F8705A7E6094F95A3A803315D0E9
:10478000D4F8602AD4F8643A954276EB03030DDB43
:10479000A36804F6A815596B11B1E0688847014673
:1047A00028461AF032F8284619F0CFFA94F89339CF
:1047B000002BCFD0002384F8933994F95A3A8033F0
:1047C000C8D1204619F0E3FA0028C3D094F89239F2
:1047D000002BBFD0204619F09CFC0028BAD104F66B
:1047E000A819484619F0C5FFA36807461B6B83B399
:1047F0000146E0689847064619F0C7F9022E804640
:104800000D4629D1321E18BF01223946484619F0FB
:10481000E4FF022E2BD1204619F0B9FA10EB080064
:1048200045F10005643045F1000584F85A7AC4F872
:10483000600AC4F8645A8DE70F49AA1A66EB0303AD
:10484000914278EB030397DA04F6A81019F07CFF85
:104850008FE76FF05706CFE7002104F1180019F039
:10486000C0F92046FFF7F6FD002ECBDA72E7484686
:1048700019F06BFA6EE700BF0097490170B50D465D
:1048800016460424314628461EF075FA48B140F217
:104890003910002112F0C4FA013CF3D10148FFF7AE
:1048A00009F870BD42EE02002DE9F04FDFF8C88232
:1048B000ADF5397D04460D46174600214FF40072D0
:1048C00038A81E4626F02BFA98F8003043B9AB48BA
:1048D0001DF0AEFA98F8003013B9A9481DF0A8FAF7
:1048E000402138A81EF047FA98F8003081463BB9BD
:1048F00038A81AF0C9F849460246A2481DF098FAAD
:10490000102200210AA826F00AFA10210AA80BF0AA
:1049100069FB002301460DF21F120DF1280C8B429A
:1049200002DA102B40F0828098F80030002B40F023
:104930001F8195481DF07CFABFB1B6B1202E3146DB
:1049400028BF20213A460DF22F137E1812F8010BD2
:1049500013F8017FB24280EA07001870F6D198F888
:10496000003043B989481DF063FA98F8003013B954
:1049700087481DF05DFA402194A81EF0FCF998F8D4
:104980000030064673B994A81AF07EF83146024604
:1049900080481DF04DFA98F800301BB929467E4832
:1049A0001DF046FA24AF3A467C4B03F1180C16462C
:1049B00018685968083303C663453246F7D118684A
:1049C00099889B7931223060B180B371002107F161
:1049D0001F0026F0A4F90023079314F037F82023D2
:1049E0000DF11C0A009380464FF400726C48CDF81C
:1049F00004A01CAB38A925F05AFE064620B9DAF807
:104A00000090B9F1200F1AD020211CA818F06AFFDD
:104A1000CDF80480DAF80030502100933846334650
:104A2000604A15F0C3FC24A8FEF744FF12F801EF1A
:104A30001CF8010B013380EA0E0010706FE701468D
:104A4000142217A826F06BF94FF41053ADF8583024
:104A50004FF48073544A0DF1200ACDE91832ADF8B5
:104A60005A301CA953464A4616A8CAF8006025F0D9
:104A700052FD064649461CA818F034FF46B133469D
:104A800050213846494ACDF8008015F08FFCCAE71E
:104A9000102231460EA826F042F937460DF1240BBC
:104AA000BD42DAF800001ED90023CBF800301023F5
:104AB0000DF1480901930EAA3B49CDF808B0CDF895
:104AC000009013F089FEDBF80020034608B9102A95
:104AD0001BD000925021CDE90178354A24A815F069
:104AE00065FC4FF0FF36089825F0F9FC10210EA860
:104AF00018F0F8FE002E96D1012319462544AC4249
:104B00001DD101B93BB32B488EE7EA1B102A28BF01
:104B10001022E0194946059226F0DBF8059A174461
:104B20004A4612F8013D0133DBB2137013B90EABE4
:104B30009A42F6D11021484618F0D4FEB0E714F896
:104B4000012B32B1FF2A14BF002303F0010300211F
:104B5000D5E71346D3E738A84FF4007118F0C2FE2A
:104B600010210AA818F0BEFE0DF5397DBDE8F08FC2
:104B7000002F7FF4E2AEFEE611A4002063EE0200F7
:104B800087EE0200CFEE0200FEEE02003FEF0200D1
:104B900061EF0200AEEF0200DDEF0200CEF0020096
:104BA0000900000216F002000044400444F0020034
:104BB0006FF00200A3F00200002330B5044689B074
:104BC0001A4620216846FFF76FFE6946204617F017
:104BD000F2FF65252378013BDBB2FD2B05D82021B0
:104BE000684618F07FFE09B030BD013D02D107488C
:104BF000FEF760FE002368461A462021FFF754FEA8
:104C00006946204617F0D7FFE4E700BFEDF0020049
:104C100011B1024A15F0CABB704700BF13F1020080
:104C2000014A15F0C3BB00BF24F1020037B514469A
:104C300083686A461B69984788B90198FCF7C8F9E8
:104C40000849FCF7CDFA05460098FCF7C1F9014682
:104C50002846FCF709F92060012003B030BD002090
:104C6000FBE700BF0024744938B50D460446B8B1CF
:104C700023F00AF910B9204623F0FDF8204623F06E
:104C800003F968B1074B1A780F2A09D8511C19701B
:104C9000054B43F8324003EBC20300221D715A71E9
:104CA00038BD00BF12A4002058520020014B1878D4
:104CB000704700BF12A40020064B1B78984207D211
:104CC000054B03EBC0031879031F58425841704746
:104CD0000020704712A40020585200202DE9F34113
:104CE0000C46064624220021204626F018F8644B84
:104CF0001B789E4280F0C180624D4FEAC60805EBEA
:104D0000C6031A79062A11D100225B7955F83600BC
:104D10000192009383681F68002F00F0AB806B4600
:104D200014224E21B847002840F0A48055F83600E0
:104D300083684E21DB6898470746002840F09A8038
:104D400005EB08031B79042B55D006D9053B012B35
:104D50006AD9384602B0BDE8F0810D2155F8360019
:104D6000221DFFF763FF18B1238843F0010323805E
:104D700005EB08031B79012B2BD90E2155F83600C2
:104D800004F10C02FFF752FF0028E2D0E0683E4930
:104D9000FCF772F92688A84446F00403238098F8AB
:104DA0000430E06003F0FD03012BD2D13749FCF75A
:104DB00017FA3749FDF73CFB01464FF07E50FCF7F0
:104DC00051F83449FCF758F946F00C06206126806A
:104DD000BFE7102155F8360004F10802FFF726FF5F
:104DE00018B1238843F00203238005EB08031B79E5
:104DF000002BAED0C1E7122155F8360004F11402A1
:104E0000FFF714FF18B1238843F0100323800D210E
:104E100055F83600221DFFF709FF002899D0238896
:104E200043F00103238094E72B2155F8360004F169
:104E30001802FFF7FBFE18B1238843F020032380FC
:104E40002D2155F8360004F11C02FFF7EFFE18B1D2
:104E5000238843F0400323802E2155F8360004F1C7
:104E60002002FFF7E3FE00283FF473AF238843F0EE
:104E70008003D7E76FF004076BE76FF0150768E76B
:104E800012A40020585200200000204100507D4410
:104E900001DE423E002A2D47024B1878003818BF29
:104EA0000120704712A40020F0B5142200218BB01D
:104EB0000446002525F033FF224E234F33789D42D0
:104EC0000FDB237C002B39D1607C002838D1A37CF8
:104ED0002BB9E37C002B14BF00206FF03C000BB01B
:104EE000F0BD17F83530042B26D8284601A9FFF766
:104EF000F5FE08BBBDF80430D80705D5227C1AB9E9
:104F0000029A226001222274990705D5627C1AB99F
:104F1000039A6260012262745A0705D5A27C1AB90D
:104F2000049AA2600122A274DB0605D5E37C1BB9BA
:104F3000069BE3600123E3740135BFE70020CEE761
:104F40001846CCE712A400205C52002010B50C4695
:104F500019F0B6FD18B1002C014818BF002010BD93
:104F60003AF1020010B50C4619F0AAFD40B144B95F
:104F700019F0A8FD0146044B0448002908BF184653
:104F800010BD0020FCE700BF410503001419030019
:104F900070B50E46154619F093FD044668B13046CB
:104FA0000D49FCF7F5FA50B928460C49FCF7F0FA20
:104FB000003818BF012019F089FD204670BD304629
:104FC0000749FCF7E5FA28B9284625F0B3FE19F0A1
:104FD00081FDF2E70024F0E73AF102004105030009
:104FE0003EF1020000200021044B054AC3E9020102
:104FF000C3E90401C3E906011A607047D80700201D
:10500000C8CA020070B4CE7D46B1CD68541B054DB0
:10501000AC4203D81BB970BC19F00EBF002370BCA2
:1050200018467047809706002DE9F84F032B064677
:10503000894690461F460A9D2FD819F0E9FE04467E
:10504000A0B38668464528D2C1689620691AA8EBA5
:105050000606761A4FF000033C4AA1FB000169EBFB
:105060000909FCF72BFA10F12D020B4641F1000162
:10507000B24271EB09010ADB6FF02C024FF0FF31F5
:10508000121A61EB0303964279EB030307DA01235B
:105090002561A382C4E90285A775BDE8F88F4FF6A4
:1050A000FF72A38A9342F5D00133F2E71821034639
:1050B00006F1170001FB03F210F802C0BCF1000F6B
:1050C0000ED1B418D9F800302360D9F80430C4E9FF
:1050D0000285636001232561A382A775E375DCE780
:1050E0000133202BE6D131464FF0000A4FF0180B68
:1050F0002A46304619F0A0FECB6818B11448EA1AC7
:10510000824217D98A7DBA4214D9ECB1A07D82427D
:105110001AD803D1888AA28A904215D30BFB0A625F
:1051200060695269424032F07F4203D1E2689342A3
:1051300038BF0C460AF1010ABAF1200F01F118013B
:10514000D6D1002CBED1A8E70C46F3E740420F00B1
:1051500080510100034690F8100338B1D3F80C33A6
:105160000348C91A81428CBF00200120704700BF4C
:105170007F3A09002DE9F3478A4616460021182296
:1051800004461D4625F0CBFDDAF800733246BE42D8
:105190002CBF002301235146237404F1180000930F
:1051A0002B4619F056FE237E1BB940F201232380C3
:1051B00014E0BE422ED2A37E022B02D840F201336D
:1051C000F5E7D4E90832B3F1960642F1FF32B6F5BD
:1051D000167F72F1000305DA01236370204602B0E6
:1051E000BDE8F08729465046FFF7B4FF08B1052314
:1051F000F3E79AF8203343B145F25F41DAF81C3304
:10520000EB1A8B4201D80623E7E70223C4E90262C6
:105210002370E3E7637E052BD0D9A27EB3EB420F68
:1052200002DB40F20143C2E7D4E90887002F46467B
:10523000B94602DA764267EB4709B6F5167F79F18F
:105240000003C9DB29465046FFF784FF0028CED172
:105250009AF8203333B145F25F42DAF81C33EB1A87
:105260009342D0D99AF81833ABB14FF49670DAF86C
:105270001433154AED1AA5FB00010023FCF71EF9B3
:1052800010F5167041F10001B04271EB090102DA2C
:1052900040F201738BE7022318F5616F424640F636
:1052A000116123703B4677F1FF37BCBF4FF0FF33EE
:1052B000064A8A4273F10001A4BF4FF461620023E1
:1052C000C4E902238AE700BF40420F00F0F1FFFF6C
:1052D0000138C0B206289ABF024B53F8200002489A
:1052E000704700BFECCA02001E1903002DE9F04F01
:1052F000B1B00546884616469DF8ECA00B93002AEF
:1053000000F0B98101463A9B0B9A16A8FFF732FFCD
:10531000DDE91E799DF858209DF86830022A9DF835
:105320007040099340F03581DDE9181095F80423A9
:1053300022B1002880F2A181B64A04E0B64B8B422C
:105340008241B64A07DB4FF0FF3CB54B994270EB08
:105350000C0C00DB0B46B348B049DDF824C0BCF1AF
:10536000000F18BF014622A8CDE900123821AE4A2D
:1053700015F01CF8BAF1000F00F03081AB4BA74AD2
:105380009DF871109DF872009DF873C0002C00F01C
:1053900028814FF0000EA04CBC427EEB090E07DBCB
:1053A0004FF0FF3E9E4CA74279EB0E0EA8BF3C4645
:1053B000209F0DF1880ECDE90110CDE903C40092C4
:1053C00031464046CDE9057E994A14F0EFFF041EB0
:1053D000C0F24C81B44280F04981D5F82C33FBB146
:1053E000D5E9CE1C00208C4AD5F830738A4270EB88
:1053F0000C0007DB4FF0FF30894A91427CEB000044
:10540000A8BF0A46CDE90072311B08EB0400894AA7
:1054100014F0CCFF241800F12981B44280F02681D9
:10542000D5F834335BB1311B08EB0400824A14F029
:10543000BDFF241800F11A81B44280F0178128467C
:105440003A99FFF787FE98B13A99284619F088FEF5
:105450004FF46163311BB0FBF3F3784A08EB0400AF
:1054600014F0A4FF241800F10181B44280F0FE8002
:10547000D5F82833311B009308EB0400D5F824330A
:105480006F4A14F093FF241800F1F080B44280F0CA
:10549000ED8005F540730A934FF0000A2B46DA7D44
:1054A0000AB10AF1010A0A9A18339342F7D14FF070
:1054B000000BD946CA4540F3A9802F468BF0010363
:1054C0000F93FB7D002B00F09580099B3946284601
:1054D0003A9AFFF797FD0F9B834240F08B8008EBD1
:1054E00004030893331B0C933B783A9A0D937B7813
:1054F000B98A0E93FB686329A2EB0303BA6828BF3D
:1055000063219B184FF0000242EB020E0B9A97F8B2
:1055100016C09B1A404A6EF1000E9A424FF00002EC
:1055200072EB0E025FDB3E4A93424FF0FF327EEB9E
:1055300002025ADBDFF8E4E0424ACDE901C100286B
:1055400008BF7246CDE903320E9B3F4A0093311BE0
:105550000D9B08EB040014F029FF002802DB204417
:10556000B04244D30023089ACA4513704EDDAAEB1B
:1055700009031821354A10A814F018FF0C9B0546A2
:10558000834243D9421C10A9089825F0A2FB2C4461
:105590003CE0BDF85830B3F5807F15D1B9F1000F6C
:1055A0003B464A4602DA7B4269EB490240F22D1142
:1055B0008B4272F10002B4BF254B264B264A38219C
:1055C00022A814F0F3FED5E69DF85900FFF780FEFF
:1055D00003460AB9214AF2E7214AF0E7214B224A61
:1055E000CEE62746E5E60C4BA4E70D4BA2E70446C2
:1055F00009F101090A9B18379F427FF462AF0BF152
:105600000103022B4FF0010B7FF454AF204631B061
:10561000BDE8F08F4BF10200009435774918030084
:10562000006CCA8864F102008AF102006500030080
:10563000AEF10200E3F1020003F2020011F20200F7
:105640001BF2020087F102002FF202004BF202006F
:1056500071F1020074F102003FF7020097F10200BD
:10566000A1F1020000FE02007CF102000023741E82
:1056700008F80430CAE71446C8E70022024B8B4200
:105680008241024A65E600BF00943577491803005D
:10569000034A0346107810B1024A12681A60704734
:1056A00013A40020D85200202DE9F04F85B00F46FA
:1056B0000646029218B9002005B0BDE8F08F002917
:1056C000F9D00024184B04701B78002BF3D0174D31
:1056D000DFF85CA0DFF85CB005F1CC082A68DAF8E6
:1056E00000301A421CD0029BABB1AB68002B08BF44
:1056F0005B46009306EB0409391B48466B680E4A6B
:10570000039114F053FE0028039906DA002389F868
:1057100000302046D0E7074BEBE78142F6D904443E
:105720000C354545DAD1F4E713A4002008CB02007C
:10573000D85200204918030041FD0200002300B5A3
:10574000A3B0019301A80AF065FC024658B901997B
:10575000074B02A819600121064B19708021FFF741
:10576000A3FF0AF093FC002023B05DF804FB00BF08
:10577000D852002013A400200823044A044852F8F9
:10578000041F013B81EAF060F9D17047E811012064
:1057900017F4437AF8B50D4E0D4B32689A4212D188
:1057A000FFF7EAFF746A84420DD10A4F351D3C466B
:1057B0000FCD0FC495E80F0084E80F0000230122ED
:1057C000FB77054B1A7000203060F8BDE81101200E
:1057D00017F4437ADC52002014A4002070B506466A
:1057E0000D46104C1C2200210F4825F098FA6660E7
:1057F0001DB1AB69A3606B69E36009F0A3F90B4BC2
:10580000185822F010FD014618B11322084825F05F
:10581000D9FA084B2360FFF7AFFF6062012008F060
:1058200031F900BFE8110120F0110120080000004B
:10583000F811012017F4437A70B5064B04461E7820
:1058400036B1054D0FCD0FC495E80F0084E80F0069
:10585000304670BD14A40020DC520020034BD3E876
:10586000AF0F003818BF0120704700BF0853002059
:10587000024610B5044BD3E8EF1FC3E8E42F002C19
:10588000F9D106F0D9FD10BD08530020034BD3E831
:10589000EF2FC3E8E10F0029F9D17047045300202E
:1058A000024BD3E8AF0FC0B2704700BF00530020D7
:1058B000034BD3E8EF2FC3E8E10F0029F9D170477C
:1058C00000530020034BD3E8AF0F003818BF01206E
:1058D000704700BFFC5200200138C0B202289ABFB6
:1058E000024B53F820000248704700BFD4CB02009F
:1058F00093F3020010B5044619F040FC18B9601E7D
:1059000018BF012010BD022C96BF024B0120185D6C
:10591000F8E700BF7E1A030007B508B10023037043
:105920000A481CF0F6FF01A9002008F0B1F9014671
:1059300018B9019882681CF02AFC044809F098FC08
:10594000034803B05DF804EB19F029BC60020020A5
:10595000B2F3020070B594B0034605460C461646F5
:105960004021194A04A814F021FD01383E281FD80F
:1059700004A819F036FC0023122204A901A8CDE9DD
:1059800001338DF80C301CF045FE002810DB314649
:1059900001A8A047044601A81CF0DCFE064601A8A9
:1059A0001CF096FE0CB1002E06DA04A81CF006FFCF
:1059B0000024204614B070BD294604A81CF026FF20
:1059C0000028F6DAF1E700BFB7F3020007B5CDE92A
:1059D00000126A460249FFF7BDFF03B05DF804FB01
:1059E00081F1010070B5B2B005460E4619F0EEFB2C
:1059F000C0B1002380220193284601AB12A919F0FF
:105A0000FEFB044680B92B464021104A02A814F040
:105A1000CDFC3F2806DC02A819F0E3FB284602A9CA
:105A20001CF0F4FE00240EE0019A3F2AEBD9304628
:105A300012A917F043F930B93046019A12A917F0AC
:105A40009DF90028DFD0204632B070BDBEF30200C1
:105A500010B5A0B0802204460846694617F015F933
:105A6000024620B169462046024BFFF7AFFF20B047
:105A700010BD00BFC5F302001FB5084A0B46CDE9B3
:105A80000120012218688DF80C204A6801A990476E
:105A900008B19DF80C0005B05DF804FB10CC0200C5
:105AA0002DE9F041DAB018AD0F462946804616467A
:105AB0001CF0E7FE044620B1002420465AB0BDE8A1
:105AC000F081D5F80431002BF6D0CDE900008DF837
:105AD00008000122414668461CF09CFD00286D46E6
:105AE000EADB074B03A9C1E9124481F8504038466C
:105AF000C1E90035B047044668461CF0E9FDDCE723
:105B0000E8CB02002DE9F0419AB005460F46164653
:105B100019F05CFB50B30024012229466846CDE908
:105B200000448DF808401CF075FDA042E8461DDBDE
:105B3000154BCDE916440393144B8DF86040CDE925
:105B40000438012338468DF8643003A9B047044671
:105B500040B19DF864402CB104A819F002FC431C2C
:105B60005C425C4140461CF0B3FD44B92846084BFA
:105B7000084903AACDE90376FFF7ECFE0446204668
:105B80001AB0BDE8F08100BF38CC0200E8CB0200BB
:105B9000CEF30200795A0000F8B5002380F82330D4
:105BA00080F8473080F8673080F80F3180F8503146
:105BB00080F88D3180F8CD3190F8CE310568012B19
:105BC00028BF0123044680F8CE3129462846FBF73A
:105BD000E7FB48B100212846FBF7ECFB20B928463B
:105BE0003849FBF705FC00B1364D2560256D294687
:105BF0002846FBF7D5FB48B100212846FBF7DAFB26
:105C000020B928463049FBF7F3FB00B10025256594
:105C1000D4F8945029462846FBF7C2FB48B100212E
:105C20002846FBF7C7FB20B928462849FBF7E0FBCD
:105C300000B10025C4F89450E56E29462846FBF7CC
:105C4000AFFB50B100212846FBF7B4FB28B94FF059
:105C500080412846FBF7CCFB00B11D4DD4E90A6713
:105C6000E56632463B4630463946FBF72DF868B1CB
:105C7000002230463946174BFBF730F830B9002286
:105C800030463946144BFBF747F808B10026002789
:105C9000C4E90A67D4E90C6732463B4630463946C8
:105CA000FBF712F8F0B10022304639460B4BFBF7F8
:105CB00015F8B8B9002230463946094BFBF72CF8E5
:105CC00090B10FE000001041000061450060EA461D
:105CD000CDCC4C3E008056C000805640008066C04F
:105CE000008066400026002794F87530C4E90C67F0
:105CF000082B28BF0823052B38BF052384F87530EF
:105D000094F94C30162B00F352811E2B6FF00802D1
:105D1000A8BF1E239342B8BF134684F84C3094F8B2
:105D20002E315A1E5342534184F82E3194F82131BA
:105D3000591E4B424B4184F8213194F87730581E5C
:105D40004342434184F8773094F82C315D1E6B4216
:105D50006B4184F82C3194F885305E1E7342734198
:105D600084F8853094F886305F1E7B427B4184F84E
:105D7000863094F8683103F1FF3CDCF1000343EB1B
:105D80000C0384F8683194F812315A1E534253417F
:105D900084F8123194F88030591E4B424B4184F8FC
:105DA000803094F88130042B28BF002384F88130A0
:105DB00094F88230042B28BF002384F8823094F8B2
:105DC0001531581E4342434184F8153194F8163179
:105DD000012B28BF012384F8163194F876305D1E1C
:105DE0006B426B4184F8763094F883305E1E7342C8
:105DF000734184F8833094F884305F1E7B427B418A
:105E000084F8843094F81D3103F1FF3CDCF1000389
:105E100043EB0C0384F81D3194F81E315A1E534293
:105E2000534184F81E3194F81031012B28BF01230F
:105E300084F8103194F81131012B28BF012384F824
:105E4000113194F86331012B28BF012384F86331A9
:105E500094F86931012B28BF012384F8693194F843
:105E60006131591E4B424B4184F8613194F8223123
:105E7000022B84BF002384F8223194F82331022BB3
:105E800084BF002384F8233194F82431022B84BF8B
:105E9000002384F8243194F88C30022B84BF002333
:105EA00084F88C3094F83131032B84BF012384F8BB
:105EB000313194F82F31022B84BF012384F82F3124
:105EC00094F83031402B28BF402384F8303194F8C7
:105ED0007C30402B28BF402384F87C3094F87D3000
