:1000000060060320AD0C01006FCE0300990C0100C7
:10001000990C0100990C0100990C0100990C010048
:10002000000000000000000000000000E50C0100DE
:10003000990C010000000000B50E0100990C0100B0
:10004000350F0100350F0100350F0100350F01009C
:10005000350F0100350F0100350F0100350F01008C
:10006000350F0100350F0100350F0100350F01007C
:10007000350F0100350F0100350F0100350F01006C
:10026000350F0100350F0100FD2E0200350F010092
:10027000350F0100350F0100350F0100350F01006A
:10028000350F0100350F0100350F0100350F01005A
:10029000350F0100350F0100350F0100350F01004A
:1002A000350F0100350F0100350F0100350F01003A
:1004800081F0004102E000BF83F0004330B54FEA45
:1004900041044FEA430594EA050F08BF90EA020FB2
:1004A0001FBF54EA000C55EA020C7FEA645C7FEA45
:1004B000655C00F0E2804FEA5454D4EB5555B8BF68
:1004C0006D420CDD2C4480EA020281EA030382EAD9
:1004D000000083EA010180EA020281EA0303362D6B
:1004E00088BF30BD11F0004F4FEA01314FF4801C3E
:1004F0004CEA113102D0404261EB410113F0004F50
:100500004FEA03334CEA133302D0524263EB430306
:1005100094EA050F00F0A780A4F10104D5F1200EA4
:100520000DDB02FA0EFC22FA05F2801841F10001FF
:1005300003FA0EF2801843FA05F359410EE0A5F1D3
:1005400020050EF1200E012A03FA0EFC28BF4CF004
:10055000020C43FA05F3C01851EBE37101F00045BA
:1005600007D54FF0000EDCF1000C7EEB00006EEBC7
:100570000101B1F5801F1BD3B1F5001F0CD3490851
:100580005FEA30004FEA3C0C04F101044FEA4452A8
:1005900012F5800F80F09A80BCF1004F08BF5FEA2F
:1005A000500C50F1000041EB045141EA050130BD0F
:1005B0005FEA4C0C404141EB0101013C28BFB1F521
:1005C000801FE9D291F0000F04BF01460020B1FA6C
:1005D00081F308BF2033A3F10B03B3F120020CDA3F
:1005E0000C3208DD02F1140CC2F10C0201FA0CF01D
:1005F00021FA02F10CE002F11402D8BFC2F1200C82
:1006000001FA02F120FA0CFCDCBF41EA0C01904037
:10061000E41AA2BF01EB0451294330BD6FEA040480
:100620001F3C1CDA0C340EDC04F11404C4F120026B
:1006300020FA04F001FA02F340EA030021FA04F37D
:1006400045EA030130BDC4F10C04C4F1200220FAD4
:1006500002F001FA04F340EA0300294630BD21FA12
:1006600004F0294630BD94F0000F83F4801306BFD8
:1006700081F480110134013D4EE77FEA645C18BFCC
:100680007FEA655C29D094EA050F08BF90EA020F63
:1006900005D054EA000C04BF1946104630BD91EA5B
:1006A000030F1EBF0021002030BD5FEA545C05D15E
:1006B0004000494128BF41F0004130BD14F580049D
:1006C0003CBF01F5801130BD01F0004545F0FE4111
:1006D00041F470014FF0000030BD7FEA645C1ABF46
:1006E000194610467FEA655C1CBF0B46024650EA7D
:1006F000013406BF52EA033591EA030F41F40021A9
:1007000030BD00BF90F0000F04BF0021704730B52E
:100710004FF4806404F132044FF000054FF0000103
:1007200050E700BF90F0000F04BF0021704730B5C4
:100730004FF4806404F1320410F0004548BF404299
:100740004FF000013EE700BF42004FEAE2014FEAEE
:1007500031014FEA02701FBF12F07F4393F07F4FC9
:1007600081F06051704732F07F4208BF704793F0CC
:100770007F4F04BF41F40021704730B54FF46074DF
:1007800001F0004521F000411CE700BF50EA0102E2
:1007900008BF704730B54FF000050AE050EA01028B
:1007A00008BF704730B511F0004502D5404261EBFB
:1007B00041014FF4806404F132045FEA915C3FF43C
:1007C000D8AE4FF003025FEADC0C18BF03325FEAD9
:1007D000DC0C18BF033202EBDC02C2F1200300FA8A
:1007E00003FC20FA02F001FA03FE40EA0E0021FAAF
:1007F00002F11444BDE600BF70B54FF0FF0C4CF49D
:10080000E06C1CEA11541DBF1CEA135594EA0C0F4E
:1008100095EA0C0F00F0DEF82C4481EA030621EA89
:100820004C5123EA4C5350EA013518BF52EA0335C4
:1008300041F4801143F4801338D0A0FB02CE4FF076
:100840000005E1FB02E506F00042E0FB03E54FF0A6
:100850000006E1FB03569CF0000F18BF4EF0010E9E
:10086000A4F1FF04B6F5007F64F5407404D25FEA9A
:100870004E0E6D4146EB060642EAC62141EA55514D
:100880004FEAC52040EA5E504FEACE2EB4F1FD0C8F
:1008900088BFBCF5E06F1ED8BEF1004F08BF5FEA0D
:1008A000500E50F1000041EB045170BD06F00046BF
:1008B00046EA010140EA020081EA0301B4EB5C046C
:1008C000C2BFD4EB0C0541EA045170BD41F4801164
:1008D0004FF0000E013C00F3AB8014F1360FDEBF89
:1008E000002001F0004170BDC4F10004203C35DA65
:1008F0000C341BDC04F11404C4F1200500FA05F3E8
:1009000020FA04F001FA05F240EA020001F0004288
:1009100021F0004110EBD37021FA04F642EB0601FE
:100920005EEA430E08BF20EAD37070BDC4F10C0428
:10093000C4F1200500FA04F320FA05F001FA04F2EC
:1009400040EA020001F0004110EBD37041F10001D8
:100950005EEA430E08BF20EAD37070BDC4F12005E3
:1009600000FA05F24EEA020E20FA04F301FA05F24B
:1009700043EA020321FA04F001F0004121FA04F2F3
:1009800020EA020000EBD3705EEA430E08BF20EAC3
:10099000D37070BD94F0000F0FD101F000464000FD
:1009A00041EB010111F4801F08BF013CF7D041EA7F
:1009B000060195F0000F18BF704703F00046520083
:1009C00043EB030313F4801F08BF013DF7D043EA54
:1009D0000603704794EA0C0F0CEA135518BF95EA0A
:1009E0000C0F0CD050EA410618BF52EA4306D1D191
:1009F00081EA030101F000414FF0000070BD50EAB0
:100A0000410606BF1046194652EA430619D094EA39
:100A10000C0F02D150EA013613D195EA0C0F05D123
:100A200052EA03361CBF104619460AD181EA030177
:100A300001F0004141F0FE4141F470014FF000002F
:100A400070BD41F0FE4141F4780170BD70B54FF0CA
:100A5000FF0C4CF4E06C1CEA11541DBF1CEA13554A
:100A600094EA0C0F95EA0C0F00F0A7F8A4EB05042C
:100A700081EA030E52EA03354FEA013100F0888023
:100A80004FEA03334FF0805545EA131343EA1263EC
:100A90004FEA022245EA111545EA10654FEA0026A1
:100AA0000EF000419D4208BF964244F1FD0404F55A
:100AB000407402D25B084FEA3202B61A65EB0305B6
:100AC0005B084FEA32024FF480104FF4002CB6EB73
:100AD000020E75EB030E22BFB61A754640EA0C00F3
:100AE0005B084FEA3202B6EB020E75EB030E22BF33
:100AF000B61A754640EA5C005B084FEA3202B6EB74
:100B0000020E75EB030E22BFB61A754640EA9C0032
:100B10005B084FEA3202B6EB020E75EB030E22BF02
:100B2000B61A754640EADC0055EA060E18D04FEAC0
:100B3000051545EA16754FEA06164FEAC30343EA60
:100B400052734FEAC2025FEA1C1CC0D111F4801F2D
:100B50000BD141EA00014FF000004FF0004CB6E726
:100B600011F4801F04BF01430020B4F1FD0C88BFC5
:100B7000BCF5E06F3FF6AFAEB5EB030C04BFB6EBD0
:100B8000020C5FEA500C50F1000041EB045170BDC3
:100B90000EF0004E4EEA113114EB5C04C2BFD4EBF0
:100BA0000C0541EA045170BD41F480114FF0000E74
:100BB000013C90E645EA060E8DE60CEA135594EAF0
:100BC0000C0F08BF95EA0C0F3FF43BAF94EA0C0FF3
:100BD0000AD150EA01347FF434AF95EA0C0F7FF468
:100BE00025AF104619462CE795EA0C0F06D152EABC
:100BF00003353FF4FDAE1046194622E750EA4106A0
:100C000018BF52EA43067FF4C5AE50EA41047FF4B0
:100C10000DAF52EA43057FF4EBAE12E74FF0FF3C15
:100C200006E000BF4FF0010C02E000BF4FF0010CE6
:100C30004DF804CD4FEA410C7FEA6C5C4FEA430C5F
:100C400018BF7FEA6C5C1BD001B050EA410C0CBFAE
:100C500052EA430C91EA030F02BF90EA020F002010
:100C6000704710F1000F91EA030F58BF994208BF77
:100C700090422CBFD8176FEAE37040F00100704734
:100C80004FEA410C7FEA6C5C02D150EA013C07D18B
:100C90004FEA430C7FEA6C5CD6D152EA033CD3D0D6
:100CA0005DF8040B704700BF8446104662468C46D0
:100CB0001946634600E000BF01B5FFF7B7FF002803
:100CC00048BF10F1000F01BD4DF808EDFFF7F4FF2C
:100CD0000CBF012000205DF808FB00BF4DF808EDB7
:100CE000FFF7EAFF34BF012000205DF808FB00BFDA
:100CF0004DF808EDFFF7E0FF94BF012000205DF8FC
:100D000008FB00BF4DF808EDFFF7CEFF94BF0120B0
:100D100000205DF808FB00BF4DF808EDFFF7C4FFA9
:100D200034BF012000205DF808FB00BF4FEA4102FC
:100D300012F5001215D211D56FF47873B3EB62522D
:100D400012D94FEAC12343F0004343EA505311F054
:100D5000004F23FA02F018BF404270474FF00000E6
:100D6000704750EA013005D111F0004008BF6FF024
:100D7000004070474FF00000704700BF4A0011D29A
:100D800012F5001211D20DD56FF47873B3EB6252E5
:100D90000ED44FEAC12343F0004343EA505323FAF1
:100DA00002F070474FF00000704750EA013002D166
:100DB0004FF0FF3070474FF0000070474FEA41029C
:100DC000B2F1E04324BFB3F5001CDCF1FE5C0DD9A9
:100DD00001F0004C4FEAC0024CEA5070B2F1004FF3
:100DE00040EB830008BF20F00100704711F0804FF6
:100DF00021D113F13872BCBF01F00040704741F4BB
:100E000080114FEA5252C2F11802C2F1200C10FABE
:100E10000CF320FA02F018BF40F001004FEAC123A2
:100E20004FEAD32303FA0CFC40EA0C0023FA02F346
:100E30004FEA4303CCE77FEA625307D150EA01331C
:100E40001EBF4FF0FE4040F44000704701F00040EC
:100E500040F0FE4040F40000704700BF80F00040CA
:100E600002E000BF81F0004142001FBF5FEA410382
:100E700092EA030F7FEA226C7FEA236C6AD04FEA82
:100E80001262D2EB1363C1BFD218414048404140C7
:100E9000B8BF5B42192B88BF704710F0004F40F479
:100EA000000020F07F4018BF404211F0004F41F495
:100EB000000121F07F4118BF494292EA030F3FD061
:100EC000A2F1010241FA03FC10EB0C00C3F1200374
:100ED00001FA03F100F0004302D5494260EB400003
:100EE000B0F5000F13D3B0F1807F06D340084FEA6E
:100EF000310102F10102FE2A51D2B1F1004F40EB63
:100F0000C25008BF20F0010040EA030070474900CA
:100F100040EB0000013A28BFB0F5000FEDD2B0FA67
:100F200080FCACF1080CB2EB0C0200FA0CF0AABF8A
:100F300000EBC25052421843BCBFD0401843704728
:100F400092F0000F81F4000106BF80F4000001322E
:100F5000013BB5E74FEA41037FEA226C18BF7FEA05
:100F6000236C21D092EA030F04D092F0000F08BF47
:100F70000846704790EA010F1CBF0020704712F02E
:100F80007F4F04D1400028BF40F00040704712F16D
:100F900000723CBF00F50000704700F0004343F0D2
:100FA000FE4040F4000070477FEA226216BF084608
:100FB0007FEA23630146420206BF5FEA412390EACB
:100FC000010F40F4800070474FF0000304E000BFC1
:100FD00010F0004348BF40425FEA000C08BF704772
:100FE00043F0964301464FF000001CE050EA010236
:100FF00008BF70474FF000030AE000BF50EA01024B
:1010000008BF704711F0004302D5404261EB410137
:101010005FEA010C02BF84460146002043F0B6435C
:1010200008BFA3F18053A3F50003BCFA8CF2083A81
:10103000A3EBC25310DB01FA02FC634400FA02FC8A
:10104000C2F12002BCF1004F20FA02F243EB020091
:1010500008BF20F00100704702F1200201FA02FCF3
:10106000C2F1200250EA4C0021FA02F243EB0200E6
:1010700008BF20EADC7070474FF0FF0C1CEAD0522A
:101080001EBF1CEAD15392EA0C0F93EA0C0F6FD0EB
:101090001A4480EA010C400218BF5FEA41211ED0C9
:1010A0004FF0006343EA501043EA5111A0FB0131B5
:1010B0000CF00040B1F5000F3EBF490041EAD3718A
:1010C0005B0040EA010062F17F02FD2A1DD8B3F106
:1010D000004F40EBC25008BF20F00100704790F075
:1010E000000F0CF0004C08BF49024CEA502040EAC7
:1010F00051207F3AC2BFD2F1FF0340EAC25070478D
:1011000040F400004FF00003013A5DDC12F1190FCA
:10111000DCBF00F000407047C2F10002410021FA3C
:1011200002F1C2F1200200FA02FC5FEA310040F154
:10113000000053EA4C0308BF20EADC70704792F0CD
:10114000000F00F0004C02BF400010F4000F013A05
:10115000F9D040EA0C0093F0000F01F0004C02BF00
:10116000490011F4000F013BF9D041EA0C018FE76F
:101170000CEAD15392EA0C0F18BF93EA0C0F0AD075
:1011800030F0004C18BF31F0004CD8D180EA01009B
:1011900000F00040704790F0000F17BF90F0004F34
:1011A000084691F0000F91F0004F14D092EA0C0F16
:1011B00001D142020FD193EA0C0F03D14B0218BFA9
:1011C000084608D180EA010000F0004040F0FE40EF
:1011D00040F40000704740F0FE4040F4400070478B
:1011E0004FF0FF0C1CEAD0521EBF1CEAD15392EA0A
:1011F0000C0F93EA0C0F69D0A2EB030280EA010CFA
:1012000049024FEA402037D04FF0805343EA111192
:1012100043EA10130CF000408B4238BF5B0042F1F0
:101220007D024FF4000C8B4224BF5B1A40EA0C0095
:10123000B3EB510F24BFA3EB510340EA5C00B3EBC7
:10124000910F24BFA3EB910340EA9C00B3EBD10FB5
:1012500024BFA3EBD10340EADC001B0118BF5FEA07
:101260001C1CE0D1FD2A3FF650AF8B4240EBC25030
:1012700008BF20F0010070470CF0004C4CEA5020F1
:101280007F32C2BFD2F1FF0340EAC250704740F440
:1012900000004FF00003013A37E792F0000F00F032
:1012A000004C02BF400010F4000F013AF9D040EAB0
:1012B0000C0093F0000F01F0004C02BF490011F444
:1012C000000F013BF9D041EA0C0195E70CEAD1533C
:1012D00092EA0C0F08D142027FF47DAF93EA0C0F23
:1012E0007FF470AF084676E793EA0C0F04D14B0207
:1012F0003FF44CAF08466EE730F0004C18BF31F0B9
:10130000004CCAD130F000427FF45CAF31F00043B2
:101310007FF43CAF5FE700BF4FF0FF3C06E000BF4B
:101320004FF0010C02E000BF4FF0010C4DF804CD6E
:101330004FEA40024FEA41037FEA226C18BF7FEA7E
:10134000236C11D001B052EA530C18BF90EA010F80
:1013500058BFB2EB030088BFC81738BF6FEAE1700F
:1013600018BF40F0010070477FEA226C02D15FEAAB
:10137000402C05D17FEA236CE4D15FEA412CE1D017
:101380005DF8040B704700BF844608466146FFE7DE
:101390000FB5FFF7C9FF002848BF10F1000F0FBDC0
:1013A0004DF808EDFFF7F4FF0CBF012000205DF8B9
:1013B00008FB00BF4DF808EDFFF7EAFF34BF01203E
:1013C00000205DF808FB00BF4DF808EDFFF7E0FFD7
:1013D00094BF012000205DF808FB00BF4DF808ED28
:1013E000FFF7D2FF94BF012000205DF808FB00BF8B
:1013F0004DF808EDFFF7C8FF34BF012000205DF86D
:1014000008FB00BF4FEA40024FEA41037FEA226C2B
:1014100002D15FEA402C08D17FEA236C02D15FEA57
:10142000412C02D14FF0000070474FF0010070478F
:101430004FEA4002B2F1FE4F0FD34FF09E03B3EBE1
:1014400012620DD94FEA002343F0004310F0004F21
:1014500023FA02F018BF404270474FF00000704777
:1014600012F1610F01D1420205D110F0004008BF16
:101470006FF0004070474FF00000704742000ED2FE
:10148000B2F1FE4F0BD34FF09E03B3EB126209D4BF
:101490004FEA002343F0004323FA02F070474FF075
:1014A0000000704712F1610F01D1420202D14FF0EA
:1014B000FF3070474FF00000704700BF7BB972B932
:1014C0000029BEBF00204FF0004106E008BF002801
:1014D0001CBF6FF000414FF0FF3000F057B8ADF186
:1014E000080C6DE904CE002909DB002B1ADB00F0A3
:1014F0007CF8DDF804E0DDE9022304B070474042E7
:1015000061EB4101002B1BDB00F06FF8DDF804E01C
:10151000DDE9022304B0404261EB4101524263EB3A
:1015200043037047524263EB430300F05EF8DDF87B
:1015300004E0DDE9022304B0404261EB4101704761
:10154000524263EB430300F050F8DDF804E0DDE9BC
:10155000022304B0524263EB4303704753B94AB9C4
:10156000002908BF00281CBF4FF0FF314FF0FF30AB
:1015700000F00CB8ADF1080C6DE904CE00F035F8C0
:10158000DDF804E0DDE9022304B07047704700BFD6
:1015900010F8012B11F8013B012A28BF9A42F7D01D
:1015A000D01A7047034611F8012B03F8012B002ACB
:1015B000F9D17047034613F8012B002AFBD1181A02
:1015C00001387047430803F05533C01A00F0333335
:1015D000800800F0333018444FF0013300EB101056
:1015E00000F00F305843000E70472DE9F0478C464D
:1015F0008E46089E154604461946002B40F0D080C2
:10160000724547D9B2FA82F74FB1C7F120030EFAFB
:1016100007FCBD40BC4020FA03F343EA0C0C4FEA40
:10162000154EA8B2230CBCFBFEF80EFB18CC08FB31
:1016300000F943EA0C43994528D9EB1808F1FF3229
:1016400004D2994502D9A8F102022B44A3EB090365
:10165000A4B2B3FBFEFC0EFB1C330CFB00F044EA0F
:101660000344A04214D92C190CF1FF3304D2A04238
:1016700002D9ACF102032C44241A43EA02401EB101
:10168000FC40002334607360BDE8F0874246DDE72C
:101690006346F1E7002A79D0B2FA82F3002B3FD0FB
:1016A0001946C1F1200302FA01F500FA01F42EFAFD
:1016B00003F20EFA01FE20FA03F3AFB243EA0E037F
:1016C0004FEA154EB2FBFEFC0EFB1C201A0C0CFB65
:1016D00007F842EA004290455AD9AA180CF1FF30A7
:1016E00004D2904502D9ACF102002A44A2EB0802D0
:1016F0009BB2B2FBFEFC0EFB1C220CFB07F743EA7D
:1017000002439F4246D9EB180CF1FF3204D29F42AC
:1017100002D9ACF102022B44DB1B42EA004202E098
:10172000AEEB020301224FEA154EAFB2200CB3FB21
:10173000FEFC0EFB1C330CFB07F840EA0343984504
:101740002AD9EB180CF1FF3004D2984502D9ACF13C
:1017500002002B44A3EB0803A4B2B3FBFEFC0EFB78
:101760001C330CFB07F744EA0344A74216D92C1993
:101770000CF1FF3304D2A74202D9ACF102032C448E
:10178000E41B43EA00400F46114678E71F2188E733
:101790006046ABE76246BFE76046DBE76346EFE7DC
:1017A000734506D916B9002108466DE7C6E9000E53
:1017B000F9E7B3FA83F787B9734501D3824207D8B3
:1017C000841A6EEB030301209C461EB900215BE7DF
:1017D0003846FAE7C6E9004CF8E7C7F1200CBB40F1
:1017E00000FA07F422FA0CF520FA0CF1BA401D4376
:1017F0002EFA0CF30EFA07FE4FEA154941EA0E01E4
:101800001FFA85FEB3FBF9F809FB18300B0C08FB37
:101810000EFA43EA00439A4540D9EB1808F1FF302D
:1018200004D29A4502D9A8F102002B44A3EB0A0383
:1018300089B2B3FBF9F809FB183308FB0EFE41EA45
:1018400003418E452CD9691808F1FF3304D28E4527
:1018500002D9A8F10203294443EA0040A1EB0E019A
:10186000A0FB02984145CE46434602D306D14C45E3
:1018700004D20138B9EB020E68EB0503002EA5D0A7
:10188000B4EB0E0261EB030101FA0CFC22FA07F340
:10189000F9404CEA0303C6E9003197E74046C5E743
:1018A0004346D9E7000000002DE9F04F8E070F46B0
:1018B00014468FB040F18F8034F04CF9002800F0CE
:1018C0008A8004A834F054F9002800F0848094F849
:1018D000C15094F8C03005F10A0898457BDADDE97B
:1018E0000401FEF75BFF98A3D3E90023FFF7AEF8EE
:1018F000FFF764FA9649FFF7BFFB00210646FFF7A2
:1019000059FD4FF07C5100286CD03046FFF7AAFA01
:10191000FFF78EFD8146DDE90601FEF73FFF8AA352
:10192000D3E90023FFF792F8FFF748FA8849FFF759
:10193000A3FB00210646FFF73DFD4FF07C51002838
:1019400054D03046FFF78EFAFFF772FD064608982E
:10195000FFF73EFB7F49FFF743FC7F49FFF78CFB16
:1019600000218246FFF726FD4FF07C51002841D030
:101970005046FFF777FAFFF75BFD01238822635596
:10198000EB18DBB2E254AB1CDBB24FEA2942E25463
:10199000EB1CDBB24FEA2922E2542B1DDBB204F828
:1019A00003906B1DDBB23214E254AB1DDBB232127A
:1019B000E254EB1DDBB2E65405F10803DBB202147E
:1019C000E25405F10903DBB202120B35E25484F84C
:1019D000C15004F808007D0700F1AC8001200FB071
:1019E000BDE8F08F3046FFF73FFA91E73046FFF74A
:1019F0003BFAA9E75046FFF737FABCE7404603F049
:101A00005BFC80B909F101034D465FFA83F940465A
:101A100004A903F063FC40B108F1010803F046FC9F
:101A20004045EBDCDAE70125F1E7BDF81070F80678
:101A30001DD5DDF824B051465846FFF7BBFC002801
:101A400073D158464549FFF7D3FC00286FD158465B
:101A5000FFF714FDFFF7B8FA0022CDE90162022278
:101A60000346009265212A46204634F0DCF8F90747
:101A70000AD502230A226721CDE9003220462A46F0
:101A8000059B029634F0CFF8BB070BD502234FF02D
:101A9000000C2A46CDE9013C68212046069B0096B1
:101AA00034F0C1F878070BD50A230021CDE90131C4
:101AB00002232A46009373212046079B34F0B3F893
:101AC0003A0709D502232A46009379212046CDE919
:101AD0000166089B34F0A7F8BB060AD502236420F0
:101AE0002A46CDE90030742120460A9B029634F044
:101AF0009AF879060BD502234FF47A727521CDE955
:101B0000003220462A460B9B029634F08CF83B06A6
:101B100082D50023CDE9016302232A460093802168
:101B200020460C9B34F07FF876E7D3468FE74FF6DC
:101B3000FF708FE74FF000084FF0020901264FF0C9
:101B4000000A6BE7AFF300800000000065CDCD41D7
:101B500000401C4600007A440000C84200FF7F4756
:101B600030B50D46194640F201138FB00446CDE959
:101B70000135104610A3D3E90023FEF73DFEFFF721
:101B8000D5F80DA3D3E900230390DDE91201FEF798
:101B900033FEFFF7CBF80023049006A901A80593B4
:101BA00034F0E1F806AA034604F50671204632F047
:101BB0000AFA0FB030BD00BF0000000080842E4143
:101BC0002DE9F041072A054698B006D8062136F0DF
:101BD00000FE012018B0BDE8F081002700F5B03408
:101BE00084F8187300F50436D6F8000886F83C70BF
:101BF00018B13AF0E6F8C6F80078002705F506387F
:101C0000C6F80478C6F80878C6F8BC7B08F570708A
:101C100044F000F8012386F89E3BA86E03681B6819
:101C2000984700F6B830C8E9E807284686F8B87B38
:101C300039F033FA94F899327BB196F8B83B63B92E
:101C4000D6F8583A4BB1284608F012FE28B1A86FD2
:101C500003681B689847C6F8580A40F20513ADF8A8
:101C6000043094F87C3102AE8DF80630162305F569
:101C70000E778DF8073005F50673324618685968F7
:101C8000083303C2BB421646F7D1D4E958012AA350
:101C9000D3E90023FEF7B0FDFFF748F826A3D3E908
:101CA00000230646D4E95601FEF7A6FDFFF73EF8ED
:101CB00094F8A73194F854228DF8303094F8BC3160
:101CC000CDE90A068DF8313094F85332D4F8780112
:101CD0009B0043EA021394F85222194913438DF8EA
:101CE000323094F8513204F59A748DF83330FFF79E
:101CF000C3F9FFF7C3FB12490D90606FFFF7BCF902
:101D0000FFF7BCFBB4F870300E901F212046ADF8F1
:101D10003C3047F0F5FB0646024621460DF13E00F9
:101D200047F053FB284606F13A0201A936F038FD88
:101D30004FE700BFAFF300800000000080842E4119
:101D400000007A4400000000082AF8B5044632D9A1
:101D5000481C36F026FB1C4A1C4E0244B242034685
:101D600029D8481D36F01DFB194A0546904222DB52
:101D7000B04220DC1846FEF7D5FC11A3D3E90023BE
:101D8000FEF764FE04F5B036C6E956012846FEF7B4
:101D9000C9FC0BA3D3E90023FEF758FEC6E958019E
:101DA000D6F8000306F5987107F042F8204636F0A1
:101DB00005FD0120F8BD0621204636F00AFDF8E7B2
:101DC0000000000080842E41804A5D050095BA0A1B
:101DD000006B45F5000000002DE9F041151D064699
:101DE0000F469AB0284699491C46FFF7D1FB30B9F7
:101DF000974920461AB0BDE8F041FFF7D3BB0A224D
:101E00002846944947F01AFBC8B9736993F88120B2
:101E1000914B197991420BD11B68904A0092904ADC
:101E20004FF4807120462FF073FA1AB0BDE8F081AC
:101E30000130042803F10803EBD18A4BEDE70722B8
:101E40002846894947F0FAFA80B9736993F88220E5
:101E5000864B1979914202D11B68854ADEE7013031
:101E6000042803F10803F4D17E4BF6E70422284648
:101E7000804947F0E3FA40B9736993F880207E4BBC
:101E80007E49002A08BF0B462FE0062228467C49DF
:101E900047F0D4FA58B9736993F82C0104F034F878
:101EA000054604F043F82B46764A0090B8E7152221
:101EB0002846754947F0C2FA20B9736993F84F3044
:101EC000724A13E00F222846714947F0B7FA20B949
:101ED000736993F84E305B00F2E70E2228466D4995
:101EE00047F0ACFA50B9736958336B4A4FF48071BC
:101EF00020461AB0BDE8F0412FF00ABADFB9072238
:101F00002846664947F09AFAA8B9B0691C360368B2
:101F10005B6D984740220AA931F015FE0AA90246D6
:101F2000304601F0D7FF33464FF4807120465A4ABD
:101F30002FF0EEF979E704222846594947F07EFA56
:101F400010B973690433D0E706222846554947F093
:101F500075FA18B9736993F84D2090E70322284663
:101F6000514947F06BFA58B97369D3E90A23CDE9AF
:101F700000234E4A4FF4807120462FF0C9F954E7F0
:101F8000032228464A4947F059FA18B97369D3E938
:101F90000C23ECE710222846464947F04FFA18B9BF
:101FA000736993F87E308BE712222846424947F046
:101FB00045FA18B9736993F87D3081E709222846FC
:101FC0003E4947F03BFA18B9736993F87C3077E7DC
:101FD000122228463A4947F031FA38B97369D86E67
:101FE000FEF7B2FB374ACDE90001C3E70A222846D3
:101FF000354947F023FA90B93E23224602F8023BC6
:10200000202363707169973111F8013F0BB9137088
:102010000BE70A2B08BF7C2302F8013BF4E70B22F5
:1020200028462A4947F00AFA002859D1736993F8DB
:1020300031310BB92649DCE6012B01D12549D8E61F
:10204000022B0CBF24492549D3E600BF1FFB040027
:1020500022FB040046FB040080BA040058FB040085
:1020600051FB04007BF1040076FB040060BA04001D
:102070009C1505007EFB040042F2040079FE04007A
:1020800083FB04008AFB040094FB040096F7040021
:102090009AFB0400AAFB0400F7EC0400B9FB04005F
:1020A0001BF70400F9EE0400F1EE0400C1FB04008C
:1020B000F5EE0400C8FB0400D9FB0400ECFB0400AF
:1020C000F6FB04008FF7040009FC040014FC040074
:1020D00020FC040026FC040030FC04003BFC04004F
:1020E0000A222846A04947F0A9F978B99F49204615
:1020F000FFF758FAB06903685B6D984720220146E4
:10210000A01C1AB0BDE8F04101F0E4BE042228464C
:10211000974947F093F928B9B0690368DB68984795
:102120000346E2E60E222846924947F087F908B9AD
:1021300091495EE60D222846904947F07FF908B99B
:102140008F4956E6112228468E4947F077F9B0B9F3
:1021500035682B682846D3E9173798470146284643
:10216000B8473668054633683046D3E9193798478B
:1021700001463046B8472B46834A009050E60D2270
:102180002846824947F05AF90028D9D00E2228461D
:102190007F4947F053F950B93068202203680AA9F3
:1021A0009B6B984708B10AABBEE67A4921E60E223E
:1021B0002846794947F042F928BB30680368DB6854
:1021C000984700210746FFF7EBF808B1734910E67E
:1021D000306803681B68984705463846FEF7B4FA2E
:1021E0006DB16F4B6F4A1B681B88CDE90001CDE9CB
:1021F00002534FF4807120462FF08AF815E6CDE99E
:102200000001694AB6E606222846684947F016F9F1
:1022100020B9736993F81231654A67E60E222846A1
:10222000644947F00BF918B90BF06EFA0346F3E76F
:102230000C222846604947F001F910B90BF05CFD0B
:10224000F4E7092228465D4947F0F8F818B97369A0
:1022500093F91F31E0E708222846594947F0EEF884
:1022600090B977B196F8E010C1F1A1013E23237037
:1022700020230239A01C63701AB0BDE8F04102F0BF
:10228000CFBF4FF48071F1E7082228464D4947F04F
:10229000D5F838B933F066FC034600287FF410AE59
:1022A0004949A6E503222846484947F0C7F80028CF
:1022B00046D133F04FFC00283FF4BCAE07A833F002
:1022C0005FFC9DF81C300AA8022B96BF404A414D86
:1022D00052F8235033F04CFCBDF81E6000B3DDE92A
:1022E0000C01FEF75BFA1EA3D3E90023FEF7AEFB59
:1022F000CDE90401DDE90A01FEF750FA18A3D3E99C
:102300000023FEF7A3FB089BCDE90201CDE90063A2
:102310004FF480712B4620462F4A2EF0F9FF84E5BA
:10232000099B4BB1CDE900634FF480712B462046E9
:102330002A4A2EF0EDFF78E52B46294A00966FE5F4
:102340000B222846274947F079F800284CD1B0697C
:102350000368D3F8803098470346B1E5AFF30080B7
:102360000000000065CDCD4144FC040055F8040098
:102370004FFC040054FC040063FC040071FC0400E6
:102380007FFC0400A5FC0400B7FC0400D1FC0400A1
:10239000DFFC0400EEFC0400F8FC040007FD040070
:1023A000C4B5040028FD040053FD04006CFD0400C6
:1023B00048F8040073FD040082FD04007BF704006C
:1023C0008FFD040098FD0400A1FD040053EC0400FF
:1023D00054BA0400F0FC0400B1FD0400E5FD040063
:1023E0000BFE040028FE04000E222846564947F042
:1023F00025F818B9736993F8183161E50922284660
:10240000524947F01BF8C8B9AFB196F8E050C5F192
:10241000A10529464E4A20462EF07AFF0146B069B2
:102420006A1A03682144D3F88830984700287FF45B
:10243000FCAC4849DDE44FF48075EAE70822284601
:10244000454946F0FBFF28B97369444993F81621C2
:10245000434B16E50A222846424946F0EFFF18B9D9
:10246000736993F91731D7E60B2228463E4946F0A7
:10247000E5FF38B9736993F81931002B7FF420AD6B
:102480003A49B6E428463A49FFF782F808B939498B
:10249000AFE408222846384946F0D0FF002847D04C
:1024A0000C222846354946F0C9FF002848D1B069BA
:1024B0000368D3F89830984705460028B9D0002F14
:1024C0003BD096F8E070C7F1A107706803681B68FD
:1024D0009847804638F0E8FF73694FF47A7293F8B2
:1024E0001531003B18BF012301930023FEF7E6FFDF
:1024F000434600903A462146284603F0F7F994E413
:102500001F4A3846002D18BF42461E492EF02AFFAA
:102510000135032D07443FF488AC73692B4493F8CD
:102520001A31002BECD1002D7FF47FAC164960E40A
:1025300027460546DFF85480EFE74FF48077C4E77D
:102540002B46134AD2E400BF34FE040043FE0400CD
:1025500055F80400E0F404004DFE040042F20400CB
:1025600079FE040056FE040061FE04006DFE0400C6
:1025700085F6040077FE04007CFE040025F50400C7
:102580009C15050085FE04008AFE04008EF0040000
:10259000A1FE040000000000012208B50A4B0B4810
:1025A0001A7007A3D3E900232AF0DCFE084B1B783E
:1025B0001BB1BDE808400AF089BB08BDAFF300803D
:1025C000389C1C0000000000B1A60220780000200A
:1025D000A00B002000000000F7B5002240F60340E9
:1025E000114610F08DF90446002853D10FF06AFE11
:1025F000214641F2030001AA10F082F904460028A6
:1026000048D1019ABD4DD16805F17803D1F8010098
:10261000D1F8051003C310460EF0F2FF214641F237
:10262000010001AA10F06CF9044698BB0198C36838
:102630005A7885F86F205A88A5F872201A7985F89B
:102640007020B3F80720A5F87420B3F80530A5F87A
:1026500076300EF0D5FF214641F2020001AA10F0BB
:102660004FF90446B0B9019F05F18006FA68531C82
:102670004132344618685968083303C493422646E9
:10268000F7D138460EF0BCFF95F87C305E0607D4D3
:102690006FF01204204610F09BF8204603B0F0BD06
:1026A000002142F2030001AA10F02AF90446002892
:1026B000F0D1019B924EDA68D2F80100D2F80510F1
:1026C00003C618460EF09CFF214642F2020001AA02
:1026D00010F016F904460028DCD1019CE368B3F839
:1026E000012091B249B1D97839B1A5F8E820DA785A
:1026F000114606F10C0043F0A8F920460EF080FFC9
:102700001F2395F87C60A5F8043116F0200619D136
:102710004FF0FF304FF0FF310FF0F2FF044600287A
:1027200000F0098102210C303AF06FFC01232146B0
:1027300003704670324640F66D4010F0E1F80446F2
:102740000028A7D195F89C301C0712D5002142F231
:102750001C0001AA10F0D4F8044600289AD1019870
:10276000C368D3F80120D3F80530C5E938230EF04B
:1027700047FF95F8D83058060FD5002142F22A00BD
:1027800001AA10F0BDF80446002883D10198C3685F
:102790005B7885F806310EF033FF4FF0FF304FF0D5
:1027A000FF310FF0ADFF0646002800F0C48008217D
:1027B0000C303AF02AFC95F8D84040F2022314F08D
:1027C000400F08BF0323A10795F8D9104CBF43F071
:1027D0002C0343F00C03A70648BF43F0400311F05D
:1027E000090F18BF43F4006304F0010402460021FE
:1027F00043EA04103BF01AFB0022314642F201008A
:1028000010F07EF8044600287FF444AF95F87C3041
:10281000B5F8E81098066CD4C9B941F2050001AAD0
:1028200010F06EF8044600287FF434AFB5F8E830B5
:10283000019C4BB9E368B3F80120A5F8E8209A8819
:102840003048114643F001F920460EF0D9FE4FF012
:10285000FF304FF0FF310FF053FF044600286AD0DD
:1028600008210C303AF0D1FB95F8D8300246D90750
:102870004ED44FF0005124483BF0D8FA21460022B4
:1028800040F6014010F03CF8044600287FF402AF07
:10289000014601AA4FF6014010F032F8044688B90B
:1028A00001980EF0ADFE21464FF6024001AA10F04D
:1028B00027F838B90198C368B3F80130A5F8C030DB
:1028C0000EF09EFEEB793BBB3BF0F8FD0446002882
:1028D0007FF4E0AE11F0EAFF044600287FF4DAAEA0
:1028E000EB79002B3FF4D9AE102108483BF06EF98C
:1028F000D0E60029ABD16FF00404CBE6080100203C
:10290000E0010020F401002010880002DC0100201A
:1029100018A1D1E90001AFE72E78002ED4D195F8A7
:10292000C0309B061ED54FF0FF304FF0FF310FF047
:10293000E7FE044610B96FF06804ABE606210C30E0
:102940003AF063FBD5F8013021460360084B32466C
:102950009B8883804FF606400FF0D2FF0446002884
:10296000B2D097E66FF0850494E600BFAFF3008025
:102970000901002090880002008000200000000073
:102980001BA3D3E900230021C0E900231AA3D3E944
:102990000023C0E902231AA3D3E90023C0E90423DA
:1029A00019A3D3E90023C0E9062319A3D3E900231F
:1029B000C0E9082318A3D3E90023C0E90A2318A318
:1029C000D3E90023C0E90C2317A3D3E90023C0E90E
:1029D0000E2300220023C0F8D010C0E93023C0E944
:1029E00032238022403046F016BD00BFAFF3008096
:1029F00008C9BCF367E6096A3BA7CA8485AE67BB12
:102A00002BF894FE72F36E3CF1361D5F3AF54FA53C
:102A1000D182E6AD7F520E511F6C3E2B8C68059B18
:102A20006BBD41FBABD9831F79217E1319CDE05BD0
:102A300031F000432DE9F04F814687B00E4607463E
:102A40000C460DD180F480077F0017F5000F40F28F
:102A5000578331464846FEF707FA07B0BDE8F08FC6
:102A600020F000480146B8F1FF4F02D8B3F1FF4F04
:102A700008D9B7F17E5FECD184F48004640014F5CA
:102A8000000FE4E7002823DAB3F1974F80F03D838D
:102A9000B3F17E5F36D3DA15C2F1960243FA02F53E
:102AA00005FA02F29A4225D105F00105C5F10205A9
:102AB000B3F17E5F27D1002C7EDA00214846FEF775
:102AC0006FFCC8B1F80F07B0BDE8F04F30F0AABAFC
:102AD000B3F1FF4F0ED1B8F17E5F00F0118304D93E
:102AE000002C80F210830020B7E7002CFBDA06F1FF
:102AF0000040B2E70025DBE749464FF07E50FEF785
:102B00006FFBAAE70025B4F1804F424640F00383F3
:102B1000B8F1BF4F20D2B8F1D05F04D9494648463A
:102B2000FEF7AAFA99E729F00040B8F1000F40D06B
:102B3000F90F01390391294324D0B3F19A4F40F2A0
:102B4000D780654B984539D8002C3CDA002007B077
:102B5000BDE8F04F30F05EBA27F0404C29F000405D
:102B6000BCF17E5F1AD1002C04DA01464FF07E5092
:102B7000FEF736FB002FBFF670AFA8F17E5858EA7B
:102B8000050805D1484607B0BDE8F04F30F052BA0D
:102B9000012D7FF462AF00F100405EE7B8F1000F55
:102BA000C6D1002C05DA17B16B1E594259410846AF
:102BB00089E7012D7FF451AF48464EE7474B9845D2
:102BC00007D9002CC2DC002007B0BDE8F04F46F06A
:102BD0001DBF4FF07E51FEF745F907464049FEF70D
:102BE0004BFA404981463846FEF746FA804638A1FE
:102BF000D1E90001FEF7E2F882464FF07A513846FB
:102C0000FEF73AFA01465046FEF72CF93946FEF730
:102C100033FA01464FF07C50FEF724F982463946DC
:102C20003846FEF729FA01465046FEF725FA2E49A6
:102C3000FEF722FA01464046FEF714F901468046A7
:102C40004846FEF711F920F47F67494627F00F0741
:102C50003846FEF707F901464046013DFEF702F906
:102C6000039B6FF30B0480461D433046214614BF7F
:102C70004FF07E551D4DFEF7F5F83946FEF7FCF98D
:102C8000814631464046FEF7F7F901464846FEF7D1
:102C9000EBF8064621463846FEF7EEF901460746B0
:102CA0003046FEF7E1F800280446804620F0004355
:102CB00040F34481B3F1864F40F22D810021284634
:102CC000FEF778FB003818BF012040E7AFF3008023
:102CD000E13D55555555D53FF3FF7F3F0700803FF8
:102CE00000AAB83F70A5EC363BAAB83F000080BFF1
:102CF00017F0FF4F40F00B814FF09741FEF7BCF902
:102D00006FF017010246D315C2F316027F3B0B4446
:102D100095498A42029342F07E5308DD93498A42E4
:102D200040F3F780029AA3F50003013202920027D4
:102D30008F4A9A461846049352F827B05946FEF730
:102D400091F8514681465846FEF78EF801464FF0FD
:102D50007E50FEF745FA014605904846FEF78CF98D
:102D60000190019B83496FF30B039846049B01EA92
:102D70006303414643F0005303F5800303EB4753DD
:102D800018460493FEF778F901464846FEF76AF8BC
:102D9000049B814659461846FEF764F801465046A2
:102DA000FEF760F84146FEF767F901464846FEF730
:102DB00059F8059A1146FEF75FF9019983460846CE
:102DC000FEF75AF96C498146FEF756F96B49FEF752
:102DD0004BF84946FEF750F96949FEF745F8494670
:102DE000FEF74AF96749FEF73FF84946FEF744F90E
:102DF0006549FEF739F84946FEF73EF96349FEF7A3
:102E000033F8824649464846FEF736F901465046B1
:102E1000FEF732F9414681460198FEF725F85946FA
:102E2000FEF72AF94946FEF71FF84146824640461A
:102E3000FEF722F956490490FEF716F85146FEF7C0
:102E400013F820F47F69414629F00F094846FEF740
:102E500013F94F4980464846FEF704F80499FEF7F7
:102E600001F801465046FDF7FDFF0199FEF704F910
:102E7000824649465846FEF7FFF801465046FDF7A0
:102E8000F3FF834601464046FDF7EEFF20F47F69DD
:102E9000404929F00F094846FEF7EEF841468246C0
:102EA0004846FDF7DFFF01465846FDF7DBFF3A498C
:102EB000FEF7E2F8804639494846FEF7DDF801465C
:102EC0004046FDF7D1FF364B53F82710FDF7CCFFF6
:102ED00080460298FEF77CF8324B8146414653F813
:102EE00027B05046FDF7C0FF5946FDF7BDFF4946E4
:102EF000FDF7BAFF20F47F67494627F00F073846F1
:102F0000FDF7B0FF5946FDF7ADFF5146A1E60021A0
:102F1000F9E601270CE74BD123493046FDF7A4FF22
:102F2000814639462046FDF79DFF01464846FEF79B
:102F30005FFA00287FF4C2AE86233EE01B4A93422C
:102F400007D900212846FEF735FA003818BF0120BE
:102F50003AE62DD13946FDF785FF3146FEF73EFAB8
:102F60000028E9D0EDE700BF71C41C00D6B35D00B6
:102F700060E6040000F0FFDF42F1533E55326C3E44
:102F800005A38B3EABAAAA3EB76DDB3E9A99193FCB
:102F9000000040400040763F4F38763FC623F6B8E9
:102FA00050E6040058E604003CAA383300001643FB
:102FB000B3F17C5F40F2A080DB157E3B4FF4000450
:102FC0005B49B8F1000F44FA03F438464444C4F3B3
:102FD000C753A3F17F0341FA03F1C3F1170301EAD9
:102FE0000401C4F3160444F4000444FA03F4B8BF23
:102FF0006442FDF737FF074631463846FDF734FF98
:1030000020F47F694B4929F00F094846FEF734F850
:10301000394680464846FDF725FF01463046FDF714
:1030200021FF4549FEF728F8064644494846FEF781
:1030300023F801463046FDF717FF07460146404694
:10304000FDF712FF41460646FDF70CFF01463846E4
:10305000FDF708FF314680463046FEF70DF8384947
:103060000746FEF709F83749FDF7FCFE3946FEF73B
:1030700003F83549FDF7F8FE3946FDF7FDFF334902
:10308000FDF7F0FE3946FDF7F7FF3149FDF7ECFE9D
:103090003946FDF7F1FF01463046FDF7E3FE0746EE
:1030A00001463046FDF7E8FF81464FF08041384643
:1030B000FDF7D8FE01464846FEF792F8414607461E
:1030C0003046FDF7D9FF4146FDF7CEFE01463846B2
:1030D000FDF7C8FE3146FDF7C5FE01464FF07E50B4
:1030E000FDF7C0FE00EBC453B3F5000F06DA21462E
:1030F0002FF032FF294613E500247DE71846F9E753
:103100004FF07E50A9E43046A7E4B3F1FF4F3FF4FF
:10311000E2AC42460225B4F17C5F7FF41DAD002F86
:10312000FFF61AAD484607B0BDE8F04F46F003BDC4
:10313000000080FF0072313F1872313F8CBEBF35F6
:103140004CBB31330EEADD3555B38A38610B363B63
:10315000ABAA2A3E002110B50446074B4FF4C072BB
:10316000C0E96011C0E96211C0F89011C0F8943153
:1031700046F051F9204610BDCDCC4C3E024630B54C
:1031800053880178082B28BF08230B48C1F383011B
:103190000A4C4840604302F14901C2F1FF2202F5A6
:1031A0007F02B7325518AB4200DC30BD11F8015F29
:1031B00068406043F6E700BFC59D1C819301000194
:1031C0002DE9F04104460D460746002642F21078EC
:1031D0003B7B3BB17B68EB1A434503D93146204624
:1031E0002FF040FF0136182E07F11007F0D1D4F868
:1031F0008C3133B3154AEB1A934222D9D4F8843177
:10320000FBB1D4F8903123B9A5F59C53083BC4F821
:10321000903141F2873641F2883003F51C4140314C
:10322000EA1AB2420BD9D4F8842142B10344A2EB8A
:10323000D2028B42C4F88421C4F89031F0D1BDE8A9
:10324000F0810023C4F89031F9E700BFE093040057
:1032500070B50346024600F5C0766FF00040C1F538
:103260001C551135147B34B154682C4424EAE474A1
:10327000A04228BF20461032B242F3D1D3F88C21AD
:1032800092B1D3F884417CB10D4C8D1AA5420CD972
:10329000D3F890312BB1C1F59C5108310B4423EA8E
:1032A000E373984228BF184670BDC1F5922101F220
:1032B000E131114421EAE171884228BF0846F3E771
:1032C000E093040010B5D0F88831032B26DDD0F848
:1032D0008401FDF779FE4FF06E51FDF7CDFE002120
:1032E0000446FEF771F8E0B94FF081412046FDF742
:1032F000BBFD01462046FDF773FF0B49FDF7BCFE01
:103300000A49FDF7B1FD4FF07E510446FEF770F813
:1033100010B14FF07E5010BD2046FCE74FF07C50BE
:10332000F9E70248F7E700BF9A99193FCDCCCC3EA8
:10333000004870479C1505000048704780EE360035
:1033400030B5C0E91912C366012200230E4DC0E951
:103350000433C0E90633C0E90E33C0E91233C0E9D3
:103360000A33C0E90C33C0E91533C0E917330560EF
:10337000436080F844300364A0F87030036280F842
:103380002420A0F8503030BD40B1040070B5B8B072
:1033900001460446684644F0B8FA9DF80030013B07
:1033A000DBB2FD2B38D8274B28AA03F1400615467F
:1033B00018685968083303C5B3422A46F7D1224B2F
:1033C00008AA03F12006154618685968083303C592
:1033D000B3422A46F7D108A920A82BF00DFB2146BD
:1033E00020AA10A844F03DFA694620A82BF004FB5F
:1033F00020AA28A918A844F034FA202218A910A855
:1034000031F0C1FA044658B9202110A831F0F5FA7C
:10341000202118A831F0F1FA0024204638B070BD00
:10342000002310A911F8012B1AB90133202BF9D16F
:10343000144610A8202131F0E0FA202118A831F01C
:10344000DCFAEAE7BCE70400FDE704002DE9F04FF1
:103450000A78054602F00303023B012B0C46F3B049
:1034600070D802F03C06242E0B795BD13F2B1CD880
:103470004E88082E19D991F85270093E07F00302C0
:103480009340F6B21FFA83FC664510D801F153024F
:103490000368029201F10A02CDE9007203961D6EE3
:1034A000D1F84A20D1F84E30A847002037E001215A
:1034B000533301FA02F200F50671E01845F0BEFF41
:1034C0000028F2D12B68214628465B6C98470028DB
:1034D000EBD0E86F214603681B6898470028E4D1C9
:1034E000E86F214603685B68984794F90201FDF78D
:1034F0006FFD4FF07A51FDF7BFFD4FF08141FDF7B1
:10350000BBFDFDF795FF237921465A1C2344227108
:1035100098722B682846DB6C984740F0C06073B007
:10352000BDE8F08F2C2E03F03F030AD191F94A60D9
:10353000002E80F2B782002BB7D103685B6F9847EB
:10354000B3E76BBB104630F01CFC002840F08080D5
:103550002378C3F383020F2AA7D801A151F822F0E0
:10356000FB360000FB360000FB360000B9360000D9
:103570003B390000AF380000AF3800002B380000A6
:10358000FB360000AB340000253A0000AB340000ED
:10359000AB340000AB340000AB340000F539000060
:1035A0000C2E08D14B88032B05D90368D1F84A208B
:1035B000D3F884309847227905F5067192090132D3
:1035C00004F10A0045F03AFF00287FF46EAF2B6843
:1035D000214628465B6C984700283FF466AF237865
:1035E000C3F383030A2B04D12146284630F0B2FEF0
:1035F0005BE7E86F032B02682146126813D19047FE
:10360000064600287FF451AFE86F214603685B68E7
:1036100098472146284630F070FC3246214628461D
:1036200030F041FE41E7904700287FF43EAFE86F5D
:10363000214603685B6898472146284630F05DFCC8
:103640002B6821462846DB6C984740F0807066E77F
:103650002B68214628461B6C984700287FF425AF2D
:10366000207830F08EFB00283FF472AF2046FFF741
:1036700085FD0646A86E05F1800703681B6898471C
:103680003146024638462FF033FD20B131462846F8
:1036900030F091FB5CE72B6828469B6B984700282D
:1036A0003FF456AFA86E03681B6898473146024640
:1036B00038462FF0F7FC4BE76388032B7FF6F5AE17
:1036C000E86F21460368D4F84A601B6898470028D1
:1036D0007FF4EBAEE86F214603685B6898472B6880
:1036E000324621462846D3F884309847214628465A
:1036F00073B0BDE8F04F30F020BC94F84B300DF1C2
:10370000200A8AF80030638894F84A70042B7FF608
:10371000CCAEE86F214603681B6898470646002830
:103720007FF4C3AEE86F214603685B68984795F85D
:103730001832BB4268D12B68514628465B6D9847CA
:10374000814604F14C0B10AF0DF1C408B1455BDDAF
:103750002B683246394628469B6D984763885A46FF
:10376000023B4146384631F025F9031E5BDD2278E5
:10377000C2F38302082A4CD198F800900793484678
:1037800030F068FF00283FD04FEA991109F03F025E
:1037900001FB0222079B501C834235DD02329B1A3B
:1037A000DBB2424429680392049318F800300DF10B
:1037B000C50803F00F03CDE90193CDF80080D1F8DF
:1037C00064B03B46324621462846D847D0B12078DF
:1037D00030F0D7FAB0B10023CDE902330193237959
:1037E000514600933A46284604F10A0330F03EFC65
:1037F000014638B14FF4FA734246009328464B46CF
:1038000030F09AFEFF2323702146284630F095FBC6
:1038100085E62968CDE901830097CF6D33462146BF
:103820002846B847EEE7013690E76388232B7FF6FA
:103830003CAEE86F2146036894F84A601B689847DD
:1038400000287FF432AEE86F214603685B68984732
:1038500095F81832B3427FF449AF04F14B0608AA39
:1038600004F16B07134630687168083603C3BE4223
:103870001A46F7D108AA10A905F5067030F034FAF7
:10388000638831AF32463946213B10A831F092F8B7
:1038900000287FF72BAF2B68CDE900702146DE6E44
:1038A000284608AB10AAB047FF2323701EE794F800
:1038B0004A3008AF3B706388032B7FF6F6ADE86FA4
:1038C000214603681B689847064600287FF4EDAD43
:1038D000E86F214603680DF140095B6898472B6843
:1038E0003946D3F87C804A4604232846C047074619
:1038F00004F14B0A0DF141080DF1C40BB74283DD11
:103900006388404652465946013B31F053F800283F
:1039100008F121080FDD2B682278CDE900B006EB15
:103920004616D3F880702146284609EB0603C2F3F9
:103930008302B84768E70136E0E710A830F09FF847
:1039400010AE04F14A0304F16A0732461868596858
:10395000083303C2BB421646F7D16388632B7FF658
:10396000A4AD202210A905F5067045F067FD0028DA
:103970003FF49BADE86F21460368D4F86AA01B684A
:10398000984700287FF491ADE86F0DF1C4090368F2
:1039900021465B684E469847B4F8028010AFA8F104
:1039A0006408B8F1200FA8BF4FF020080FCF0FC652
:1039B00097E80F0004F1AE0B86E80F004246594627
:1039C0003AA8CDF8E4A045F000FD4A4608F12403EA
:1039D00004F16E0110A830F05AF800283FF465ADEC
:1039E0002B68CDE900B821469E6E2846534610AAA2
:1039F000B04709E703F00303023B012B3FF655AD47
:103A0000E86F214603681B68984700287FF44DAD96
:103A1000E86F214603685B6898472B682146284673
:103A20009B6F8CE56288022A7FF63FAD94F84A309E
:103A300003F00F03032B7FF438AD042A7FF635AD76
:103A400031AE304630F001FE237840228DF8C4308C
:103A500004F10A0123790DF1CE0030F01CFE6288DA
:103A60008DF8C800013A92B204F14B010DF5877050
:103A7000ADF8C62045F0A9FCE86F314603681B6825
:103A8000984700287FF411ADE86F314603685B6802
:103A900098472B6831462846D3F88430DDF80E214C
:103AA000984702E5002B3FF44DAD84E538B50B4B4C
:103AB0001C786CB901220A4D1A70002329461A4657
:103AC0000848013430F0CAFE202C05F58275F4D187
:103AD0000021BDE83840034830F09CBE34A60220E7
:103AE000A0840220FC4D0220014BD3F82001704736
:103AF000D84C0220014BD3F820017047FC4D022026
:103B0000014830F087BE00BFD84C0220044BD3F8E8
:103B100020219142BABF283153F82100002070477C
:103B2000D84C0220054BD3F820018142BDBF28317B
:103B3000012043F821200020704700BFD84C02200C
:103B400021B1002302481A4630F088BE704700BFFA
:103B5000FC4D02200022FF2070B50A4BD3F82061F3
:103B600003F19C058033B24200DB70BD55F8044F71
:103B7000641A002C03DC9C5CA04228BF2046013262
:103B8000F1E700BFD84C02202DE9F04705469046EA
:103B900099460F4699B31B4E304630F05FFE0446FF
:103BA00068BBD6F8200118B32146234606F17F0CE6
:103BB000A04214DC0E4496F88030434518D91148D1
:103BC00030F028FE2B6801465B68284698474B4634
:103BD00042463946BDE8F0470A4830F03FBE1CF87F
:103BE000012F9A4234BF1A46214613460134DFE7BB
:103BF0002B6839462846BDE8F0475B681847BDE8A2
:103C0000F08700BFD84C0220F0B400230C46FF2000
:103C10004FF0FF310E4AD2F8207102F19C0680323B
:103C2000BB4205DB4B1C0FD0F0BC094830F0F2BDA5
:103C300056F8045F2D1B002D04DCD55C85423CBF8B
:103C4000194628460133EBE70020F0BC704700BF5F
:103C5000D84C022030B50A4B4A1CD3F820510DD065
:103C6000002210469C33AA4200DB30BD53F8044FBB
:103C70000132641A002CD8BF0130F4E72846F4E77B
:103C8000D84C0220002907DB044BD3F820219142B5
:103C900002DA53F82100704700207047D84C022008
:103CA00038B500240D4D281904F5827430F0CDFC90
:103CB000B4F5025FF7D10024094B21468022184653
:103CC000C3F8204145F0A7FB064B2146C3F820412D
:103CD0001846BDE83840802245F09DBBA0840220F4
:103CE000FC4D0220D84C02202DE9F0430D468DB04A
:103CF00012F00F01804614461E469DF8509004D0E5
:103D00004FF0FF300DB0BDE8F083184B142207A828
:103D1000069345F080FBB9F1000F0CBF4FF4007320
:103D20004FF48073124F08931022414604AB06A84B
:103D3000099744F0D4F90028E2D105ABCDE901435D
:103D40002A462346394604980096B9F1000F09D057
:103D50002BF044FB0446049844F0F7F8002CCFD134
:103D60000598CFE72BF0D6FBF4E700BF00248000D6
:103D7000004440042DE9F04194B007460C46164635
:103D80000021142207A81D4645F045FB4FF4885337
:103D9000ADF818304FF48073ADF81A304FF48063EB
:103DA000DFF84C802022CDE90838394604AB06A85C
:103DB00044F095F928B14FF0FF34204614B0BDE827
:103DC000F08105AB0293202301930CAB22460093B4
:103DD00041463346049844F031FB0446049844F0CD
:103DE000B4F8002CE7D1BDF830302B80E5E700BFF8
:103DF0000900800330B58DB00D4611461A4603AB5D
:103E000001932023044600930A4804AB44F046FA89
:103E10002A4630B1002120460DB0BDE8304045F0C3
:103E2000FABA202D28BF2022204604A945F0CDFA59
:103E30000DB030BD090000022DE9F043A7B00446E3
:103E4000DDE92E890D461646002170220AA81F467C
:103E500045F0E1FA16490AA844F0D1F9E8B93A4622
:103E600031460AA844F0ECF9B8B94A4641460AA8D6
:103E700044F0E6F988B9202201AB02A90AA844F06F
:103E8000F6F950B9202D2A46204628BF202202A943
:103E900045F09BFA27B0BDE8F0830AA844F0A0F9EA
:103EA0002A460021204627B0BDE8F04345F0B3BACA
:103EB0000900000208B5054B002814BF0146194649
:103EC000034838F07CF901200BF070FB1EE8040079
:103ED0002AE804000346F0B50A4D8E18B14203F1FA
:103EE000020303D1002300F81230F0BD11F8014B9A
:103EF000270904F00F04EF5D2C5D03F8027C03F842
:103F0000014CEBE7371805002DE9F04105460C465A
:103F1000DFF830808F18BC4201D1BDE8F08114F881
:103F2000016B2B68320918F8021028469B689847E5
:103F30002B6806F00F0628469B6818F8061098476D
:103F4000E9E700BF37180500004870473E1105003B
:103F500008B510460249FDF725FB002008BD00BF4B
:103F60004AE8040030B50022702113488BB001F0FC
:103F70009BFE041E104D19DD22462846691C45F0A3
:103F800031FA013C02A801F06FFF60B16F2C0ADC2E
:103F9000039B0A4A019305AB0093C4F17001029B95
:103FA00028192DF0B5F904480BB030BD2846044956
:103FB000FDF7F8FA0724E5E735A6022080E80400BB
:103FC00078E8040037B5124C204641F004FB10B9E4
:103FD000104803B030BDA5684E212046EB689847D5
:103FE0000028F5D10C216A4620462B699847002805
:103FF000EED10198FCF7ECFF0749FDF7F1F8044614
:104000000098FCF7E5FF01462046FCF72DFFE0E7AE
:104010008C9F04000000C07F0024744970B50446E2
:104020004FF0FF324FF0FF33134828F083FD41F08B
:1040300044FF4FF47A75A0FB0506002305FB0161E0
:1040400047F61222FDF78AFAD4E90253002B08DB67
:10405000421B42F2107561EB0303AA4273F10003A5
:1040600003DB0023C4E90201E380E488024828F06E
:1040700003FE204670BD00BFEC0C002008B50368AD
:104080001B689847BDE808400146014832F010BB64
:10409000C4B5040007B5064B8DF8070001220DF1E9
:1040A0000701044801F0CCFF03B05DF804FB00BF3A
:1040B0009DE80400ADE8040073B5124B124C1D7866
:1040C00015B1207802B070BD012610481E7032F084
:1040D000C9F80028F5D032460C4801AB0DF10301B8
:1040E0008DF80350019532F0D6F838B1019B2BB111
:1040F0009DF80330012B08BF4C232370034832F096
:10410000BCF8DEE7A6A60220A5A60220ADE80400C2
:104110004C28024607D0552807D0054B0548002AF1
:1041200008BF18467047044870470448704700BFEE
:10413000B9E8040078E80400BEE80400CAE8040016
:1041400083B503F057FF37F053FC31F01FFD062114
:10415000264A274830F0E7FC0921264A264830F055
:10416000E2FC41F0AAFE4FF47A74A0FB04050023A0
:1041700004FB015147F61222FDF7F0F941F28833B2
:104180001D4FC418D7F8108041F10005BB681A48CC
:104190005B6801A9984790B9D8F80020019B53406B
:1041A0009B050CD4154A164BD2F8A4100B4043F4CF
:1041B000403343F00C03C2F8A43038F00DF841F05E
:1041C0007CFE4FF47A76A0FB060C47F61222002301
:1041D00006FB01C1FDF7C2F9A042A941E2DA40F2B3
:1041E0003910002129F0D6FBD0E700BF01001A00EA
:1041F0008C9D040011000100AC9D040000040550DA
:10420000F0F0FCFF3E28024630D016D8142830D0FB
:104210000AD80A2830D00F2831D041F684601F4BCD
:10422000072A18BF184670471F282BD04AF2C32010
:104230001A4B292A18BF18467047B0F5FA7F24D0C8
:104240000AD8FA2823D0B0F5C87F22D0134B1448DF
:10425000C82A18BF18467047B0F5487F1BD00F4BCF
:104260001048B2F57A7F18BF184670474FF22440C5
:10427000704745F26110704742F6B100704743F64F
:104280000950704747F612207047074870470748A3
:104290007047074870470748704700BF48E801006B
:1042A000F818030040420F0020A1070090D003003F
:1042B000F0310600E0630C0070B503690D4693F819
:1042C00074301446073B052B2ED8184A52F8236049
:1042D0003046FDF78DF838BB2046FCF779FE4FF0ED
:1042E0006E51FCF7C9FE01464FF07E50FCF7BAFD57
:1042F000314604462846FCF7B5FD0D49FCF770FF32
:1043000001462046FCF7B8FE00210446FDF752F8AE
:1043100050B94FF07E512046FDF76AF810B14FF0CA
:104320007E5070BD2046FCE70020FAE75CB3040035
:104330000000204170B5044630F0B1FCD4F880395B
:10434000D4F88429054653EA02004DD05B1B62EB8A
:104350000102012B72F100003EDB6FF0004083424E
:1043600072F1000200DA1846B4F8683A9BB394F987
:104370005A3A803314D0D4F8602AD4F8646A521BB5
:1043800066EB0106012A76F1000327DB6FF000439C
:104390009A4276F1000600DA1346984228BF184682
:1043A000D4F8703AD4F8742A53EA02041CD00F4CA3
:1043B0001B1942F100025B1B62EB0101012B71F141
:1043C00000020DDB6FF00042934271F1000109DA47
:1043D000984228BF184670BD0020C5E70023DCE7DF
:1043E0000023F5E71346F3E70020F4E700974901BF
:1043F0002DE9F04F8BB004468846174630F0FBFBA2
:10440000814638B939464046684A0BB0BDE8F04F9E
:104410002CF07EBFD4F89809002800F091800A2380
:104420006421D4F89C295A43D4F8A03902EB5002F5
:104430004B4303EB5003B2FBF0F2B3FBF0F094F804
:10444000573A04F6A81A27EAE771002B7AD194F8B4
:1044500054CA574D574B94F9556ABCF1000F08BF29
:104460002B460A250590B2FBF5F005FB1022CDE99D
:10447000030209EB0602CDE9006240464E4ACDF840
:1044800008902CF045FFC72F054640445EDDD4F868
:104490009C3A791B0393D4F8983A484A0293D4F88B
:1044A000943A0193D4F8903A0093D4F898392CF0C8
:1044B0002FFF054408EB0500791B94F8583A404A51
:1044C0002CF026FF0544204630F0EBFC014640B9B5
:1044D000AF4208EB0500C8BF791B3A4A2CF018FF21
:1044E0000A35504631F004F98346504631F016F94A
:1044F0005E45B8BF5E468642B246A8BF82460AF114
:10450000FF36B345CABF0BF102030AF101035E4651
:104510006FF007028342C4BF0346861E9642B8BFAF
:1045200016460C2BA8BF0C234FF0640B099304EB29
:10453000C604099B9E420DDD28460BB0BDE8F08FF6
:1045400002467CE794F9566A1F4B8AE7AF42B3DC18
:104550000021B2E7B4F8EC29B4F8F0C91AB3530853
:104560000BFB0C33B3FBF2F30693B4F8F239BD4204
:10457000CDE904C3B4F8EE39B8BF791BCDE9022305
:1045800009EB0603CDE90063A8BF002108EB050095
:10459000B24514BF20232A230C4A2CF0B9FE013661
:1045A00005440834C5E71346DEE700BFD7E804003A
:1045B00042F2040079FE0400DFE8040005E904008B
:1045C0001AE9040023E90400D3EE04002EE90400F4
:1045D0002DE9F843002500264FF000084FF00009B0
:1045E000474B484F03608C33436000F51863C0E9C4
:1045F00002714662C0E90452C0E90655056286624E
:10460000C0F85C58C0F86058C0F8745980F8785900
:10461000C0F87C59C3E9008943F69823044680F822
:104620008859C0F88C39C0F89059C0F89459C0F82E
:104630009859C0F89C59C0F8A059011D00F6A8105F
:1046400031F041F804F52763A4F8685AC3E90089FA
:104650003B6984F8785A5B1B18BF012384F8793AC8
:104660004FF40043C4F87C5AC4F8805AC4F8845A02
:10467000C4F8885AA4F88C5A84F88E5AC4F8905A10
:10468000C4F8945AC4F8985AC4F89C5AC4F8A05A6A
:10469000A4F8A43AC4F8A85AC4F8AC5AA4F8B05A7A
:1046A000C4F8B45AA4F8CC5AC4F8D06AC4F8D46A8E
:1046B000A4F8D85AC4F8DC5AC4F8E05AC4F8E45A4A
:1046C000C4F8E85A84F8A05BA4F8A25BC4F8A45B21
:1046D000C4F8A85BC4F8AC5B04F6641041F03CFD80
:1046E0000122294604F6883041F0AFF94FF4036205
:1046F000294604F12C0044F08EFE2046BDE8F883E4
:10470000C0B20400CCB5040008B50346C068B3F8D5
:10471000A21B8368002908BFFF215B68984758B136
:10472000084B98420BD841F2883300F5FA704000EC
:10473000984238BF184608BD41F28830FBE76FF455
:104740007A70F8E70BFEFF7F30B590F8A03B044687
:1047500089B0CBB900F52F65002000210A22CDE9F0
:104760000601CDE90232CDE9004304934FF4006223
:104770002846064B064928F08DFE0649284641F09A
:1047800062FA012384F8A03B09B030BDFD4F03005D
:10479000B0AC02204EE904002DE9F8430C46054672
:1047A000174600211422204644F035FE95F8CD3AF4
:1047B000002B35D0D5F8D00AD5F8D49A95F8D88AF8
:1047C00095F8D96A1B49FCF757FCFCF757FE2060A7
:1047D0004846FCF753FEB31F80B230F0C3F9022BFA
:1047E00096BF043E0126F6B2B8F1080F8CBF102325
:1047F0002023A08084F80680E67123812B696FF066
:10480000080293F94C302773162BA8BF1623934246
:10481000B8BF1346A37240F202432382BDE8F88377
:104820002B69986CD3F8789093F8748093F875603E
:10483000C8E700BF0024744908B590F8CD3A5BB1D1
:10484000D0F8D00A0649FCF717FC4FF07C51FCF772
:104850000BFBFCF713FE08BD0369986CF2E700BF81
:104860000024744908B590F8CD3A63B1D0F8D40A61
:104870000649FCF701FC4FF07C51FCF7F5FAFCF718
:10488000FDFD80B208BD0369986FF1E7000020418B
:1048900002462DE9F04730F00BFB92F8CD3A0F4677
:1048A0000546002B00F0BD80D2F8D49A104630F0B7
:1048B00009FB9368044693F8008008F10506F6B2F8
:1048C000B54203D30C2D28BF0C25EEB248465B49F8
:1048D000FCF770FD08B1DFF868914846FCF7CEFDA3
:1048E00080B230F03FF9FFF78DFC082C28BF082478
:1048F00005460120E4B2052C00FA06F038BF052475
:10490000FCF766FB81462846FCF75EFB4D49FCF749
:1049100067FC4C49FCF7B0FB01464846FCF760FCDD
:104920008146B8F1000F01D1062E7ED9082E4FF036
:1049300000057DD82020FCF74BFB4349FCF794FA97
:10494000294680462846FCF78FFA01464046FCF788
:104950008BFA4946FCF790FB3C4980464846FCF7F9
:1049600047FD002866D04FF07E5A3046FCF730FBFA
:1049700006463846FCF72CFB4FF08241FCF77CFBE7
:104980004FF0814107463046FCF776FB014638463A
:10499000FCF768FA2E49FCF767FA4FF08341FCF701
:1049A00063FA4FF0824107462846FCF765FB014653
:1049B0003846FCF757FA514607465046FCF754FA7A
:1049C00001463046FCF74EFA4FF08141FCF754FBAC
:1049D0004FF07E510546FCF7EDFC08B14FF08145E4
:1049E00029463846FCF7FCFB2EF066FA05462046C1
:1049F000FCF7EEFA2946FCF73FFB002144F0B5FF37
:104A00004FF08241FCF730FA4946FCF735FB41464E
:104A1000FCF72AFA0B49FCF72FFBFCF72FFDBDE84A
:104A2000F0871369D3F8789040E74FF07E5581E71F
:104A3000102080E74FF0000A97E700BF0000E04039
:104A40000000FA4200007A44000088405A2F863C59
:104A50000000E0412DE9F04705468AB030F0C8FA81
:104A600095F8783A05F11807002B00F085800022B0
:104A7000284605A9FFF790FE9DF81A40BDF81C6076
:104A8000062C8CBF4FF0080A4FF00C0ABAF1080F41
:104A90000CBF112319239E427DDDBDF81800FFF7DE
:104AA000B1FB012102463E48A1400023A1FB0001C9
:104AB000FCF754FDAB680446DB69002B53D0E86873
:104AC000984780460520A6EB4A0909F1FF3904FB07
:104AD00009F964220023A9FB0001FCF73FFD08F55A
:104AE000FA63A9EB00018B42D5F87C2A3ED20E3640
:104AF0006643A1EB08018E420AFB044408D9731CEB
:104B0000A3EB0903034443445B089C4238BF1C46A3
:104B1000944203D1D5F8803A8B4203D0C5F87C4A41
:104B2000C5F8801A00261F34E86846F100031F31DB
:104B30004FEA541246F1000486684909766A42EA4F
:104B4000C36241EAC4615B096409AEB1DFF854C0D5
:104B500003958DE81210B04770B93EF07AFF01213D
:104B6000C5F8940911E040F2DC58ABE7013203D0FC
:104B70004FF0FF33C5F87C3AE8682A468368094954
:104B80005B6998470028E8DA002138460AB0BDE89A
:104B9000F04730F0B0B8D5F87C3A0133E7E700BF12
:104BA00040420F00B34D030038B5836804469B6A4A
:104BB0000D46BBB100F6A43030F04EF8034604F6C3
:104BC000AC3030F049F81844D4F8843A984202D115
:104BD000D4F8883A3BB9C4F8840A012D38BF0125BE
:104BE000C4F8885A38BD084ACB1A9342FAD994F8C7
:104BF0008E3A072BF6D9A3689B6A0BB1E0689847F9
:104C00002046FFF727FFE8E7BF270900F8B58368CC
:104C10000446DB6A0F46002B38D090F8B03A33B127
:104C2000D0F8A83AD0F8AC2ACB1A93422ED3D4F8B5
:104C3000B43A23B14EF65F22FB1A934226D960693B
:104C400020B303685B68984701460546FCF7DAFB2A
:104C50000646D8B9284644F0ABFE0122164B05B2F1
:104C6000C4F8AC3AB4F9A43A84F8B02A13F5004F6A
:104C7000C4F8A87A02D1A4F8A45A07E0EB1A002BD2
:104C8000B8BF5B42042B02DC84F8B16AF8BD94F82B
:104C9000B13A33B943F6982384F8B12AC4F8AC3A50
:104CA000F4E7A36884F8B16ADB6A0BB1E06898475F
:104CB0002046FFF7CFFEDEE780EE360038B504462B
:104CC0001C302FF0C9FF98BB204630F081FA78BB2A
:104CD0002FF0E5FF054604F6A4302FF0BDFF034694
:104CE00004F6AC302FF0B8FFD4F8842A0344934282
:104CF00002D1D4F8883A63B90023C4F8A03A29460F
:104D00002046FFF751FF29462046BDE83840FFF70F
:104D10007DBF084AEB1A9342F1D9D4F8A03A13B1F7
:104D2000EB1A9342EBD9012D2B4638BF0123E4E760
:104D300038BD00BFBFD401002DE9F843B0F8683A90
:104D400004463BB190F8CD8AB8F1000F04D000239F
:104D500080F89339BDE8F8832FF0A1FFD4F8702ACA
:104D6000D4F8743A0E4652EA030104F52767054663
:104D700062D1C4F8705A7E6094F95A3A803315D0E3
:104D8000D4F8602AD4F8643A954276EB03030DDB3D
:104D9000A36804F6A815596B11B1E068884701466D
:104DA000284630F079FD284630F059F894F89339C8
:104DB000002BCFD0002384F8933994F95A3A8033EA
:104DC000C8D1204630F06DF80028C3D094F892394D
:104DD000002BBFD0204630F0FBF90028BAD104F6F2
:104DE000A819484630F00CFDA36807461B6B83B337
:104DF0000146E068984706462FF051FF022E804694
:104E00000D4629D1321E18BF01223946484630F0DE
:104E10002BFD022E2BD1204630F043F810EB08007A
:104E200045F10005643045F1000584F85A7AC4F86C
:104E3000600AC4F8645A8DE70F49AA1A66EB0303A7
:104E4000914278EB030397DA04F6A81030F0C3FC24
:104E50008FE76FF05706CFE7002104F118002FF01D
:104E60004AFF2046FFF7F6FD002ECBDA72E74846F0
:104E70002FF0F5FF6EE700BF0097490170B50D46B2
:104E8000164604243146284638F0DBFC48B140F28F
:104E90003910002128F07EFD013CF3D10148FFF7D5
:104EA00009F870BD5BE904002DE9F04FDFF8C88216
:104EB000ADF5397D04460D46174600214FF40072CA
:104EC00038A81E4644F0A7FA98F8003043B9AB481A
:104ED00037F075F998F8003013B9A94837F06FF931
:104EE000402138A838F0ADFC98F8003081463BB935
:104EF00038A830F010FE49460246A24837F05FF964
:104F0000102200210AA844F086FA10210AA821F0F4
:104F10006DFD002301460DF21F120DF1280C8B428E
:104F200002DA102B40F0828098F80030002B40F01D
:104F30001F81954837F043F9BFB1B6B1202E3146F5
:104F400028BF20213A460DF22F137E1812F8010BCC
:104F500013F8017FB24280EA07001870F6D198F882
:104F6000003043B9894837F02AF998F8003013B96E
:104F7000874837F024F9402194A838F062FC98F86B
:104F80000030064673B994A830F0C5FD314602469C
:104F9000804837F014F998F800301BB929467E484C
:104FA00037F00DF924AF3A467C4B03F1180C164646
:104FB00018685968083303C663453246F7D1186844
:104FC00099889B7931223060B180B371002107F15B
:104FD0001F0044F020FA002307932AF045FB20230A
:104FE0000DF11C0A009380464FF400726C48CDF816
:104FF00004A01CAB38A943F051F9064620B9DAF8F1
:105000000090B9F1200F1AD020211CA82FF0F5FC38
:10501000CDF80480DAF8003050210093384633464A
:10502000604A2CF075F924A8FEF744FF12F801EF4E
:105030001CF8010B013380EA0E0010706FE7014687
:10504000142217A844F0E7F94FF41053ADF8583084
:105050004FF48073544A0DF1200ACDE91832ADF8AF
:105060005A301CA953464A4616A8CAF8006043F0B5
:1050700036F8064649461CA82FF0BFFC46B1334619
:1050800050213846494ACDF800802CF041F9CAE752
:10509000102231460EA844F0BEF937460DF1240B1C
:1050A000BD42DAF800001ED90023CBF800301023EF
:1050B0000DF1480901930EAA3B49CDF808B0CDF88F
:1050C00000902AF08BF9DBF80020034608B9102A7B
:1050D0001BD000925021CDE90178354A24A82CF04C
:1050E00017F94FF0FF36089842F02FFF10210EA855
:1050F0002FF083FC002E96D1012319462544AC42A3
:105100001DD101B93BB32B488EE7EA1B102A28BFFB
:105110001022E0194946059244F057F9059A1744C0
:105120004A4612F8013D0133DBB2137013B90EABDE
:105130009A42F6D1102148462FF05FFCB0E714F8F0
:10514000012B32B1FF2A14BF002303F00103002119
:10515000D5E71346D3E738A84FF400712FF04DFC84
:1051600010210AA82FF049FC0DF5397DBDE8F08F1C
:10517000002F7FF4E2AEFEE6A7A602207CE9040041
:10518000A0E90400E8E9040017EA040058EA040072
:105190007AEA0400C7EA0400F6EA0400E7EB040038
:1051A000090000022FEB0400004440045DEB040002
:1051B00088EB0400BCEB0400002330B5044689B042
:1051C0001A4620216846FFF76FFE694620462EF0FA
:1051D00074FC65252378013BDBB2FD2B05D820212B
:1051E00068462FF00AFC09B030BD013D02D10748E6
:1051F000FEF760FE002368461A462021FFF754FEA2
:10520000694620462EF059FCE4E700BF06EC040096
:1052100011B1024A2CF07CB8704700BF2CEC04009E
:10522000014A2CF075B800BF3DEC040037B51446B8
:1052300083686A461B69984788B90198FBF7C8FEDE
:105240000849FBF7CDFF05460098FBF7C1FE014674
:105250002846FBF709FE2060012003B030BD002086
:10526000FBE700BF0024744938B50D460446B8B1C9
:1052700040F0B1F910B9204640F0A4F9204640F0C2
:10528000AAF968B1074B1A780F2A09D8511C19706E
:10529000054B43F8324003EBC20300221D715A71E3
:1052A00038BD00BFA8A60220204F0220014B18786D
:1052B000704700BFA8A60220064B1B78984207D271
:1052C000054B03EBC0031879031F58425841704740
:1052D00000207047A8A60220204F02202DE9F341AC
:1052E0000C46064624220021204644F094F8644BE4
:1052F0001B789E4280F0C180624D4FEAC60805EBE4
:10530000C6031A79062A11D100225B7955F83600B6
:105310000192009383681F68002F00F0AB806B46FA
:1053200014224E21B847002840F0A48055F83600DA
:1053300083684E21DB6898470746002840F09A8032
:1053400005EB08031B79042B55D006D9053B012B2F
:105350006AD9384602B0BDE8F0810D2155F8360013
:10536000221DFFF763FF18B1238843F00103238058
:1053700005EB08031B79012B2BD90E2155F83600BC
:1053800004F10C02FFF752FF0028E2D0E0683E492A
:10539000FBF772FE2688A84446F00403238098F8A1
:1053A0000430E06003F0FD03012BD2D13749FBF755
:1053B00017FF3749FDF73CFB01464FF07E50FBF7E6
:1053C00051FD3449FBF758FE46F00C06206126805B
:1053D000BFE7102155F8360004F10802FFF726FF59
:1053E00018B1238843F00203238005EB08031B79DF
:1053F000002BAED0C1E7122155F8360004F114029B
:10540000FFF714FF18B1238843F0100323800D2108
:1054100055F83600221DFFF709FF002899D0238890
:1054200043F00103238094E72B2155F8360004F163
:105430001802FFF7FBFE18B1238843F020032380F6
:105440002D2155F8360004F11C02FFF7EFFE18B1CC
:10545000238843F0400323802E2155F8360004F1C1
:105460002002FFF7E3FE00283FF473AF238843F0E8
:105470008003D7E76FF004076BE76FF0150768E765
:10548000A8A60220204F02200000204100507D44A9
:1054900001DE423E002A2D47024B1878003818BF23
:1054A00001207047A8A60220F0B5142200218BB07D
:1054B0000446002543F0AFFF224E234F33789D4230
:1054C0000FDB237C002B39D1607C002838D1A37CF2
:1054D0002BB9E37C002B14BF00206FF03C000BB015
:1054E000F0BD17F83530042B26D8284601A9FFF760
:1054F000F5FE08BBBDF80430D80705D5227C1AB9E3
:10550000029A226001222274990705D5627C1AB999
:10551000039A6260012262745A0705D5A27C1AB907
:10552000049AA2600122A274DB0605D5E37C1BB9B4
:10553000069BE3600123E3740135BFE70020CEE75B
:105540001846CCE7A8A60220244F022010B50C462E
:1055500030F0FEFA18B1002C014818BF002010BD31
:1055600053EC040010B50C4630F0F2FA40B144B9E7
:1055700030F0F0FA0146044B0448002908BF1846F1
:1055800010BD0020FCE700BFC3030500EDFF0400D1
:1055900070B50E46154630F0DBFA044668B1304669
:1055A0000D49FBF7F5FF50B928460C49FBF7F0FF12
:1055B000003818BF012030F0D0FA204670BD3046C8
:1055C0000749FBF7E5FF28B9284643F02FFF30F0E5
:1055D000CCFAF2E70024F0E753EC0400C303050023
:1055E00057EC040000200021044B054AC3E90201E6
:1055F000C3E90401C3E906011A607047300F0020B7
:10560000A8B3040070B4CE7D46B1CD68541B054DDF
:10561000AC4203D81BB970BC30F059BC002370BC3D
:1056200018467047809706002DE9F84F032B064671
:10563000894690461F460A9D2FD830F034FC044618
:10564000A0B38668464528D2C1689620691AA8EB9F
:105650000606761A4FF000033C4AA1FB000169EBF5
:105660000909FBF72BFF10F12D020B4641F1000158
:10567000B24271EB09010ADB6FF02C024FF0FF31EF
:10568000121A61EB0303964279EB030307DA012355
:105690002561A382C4E90285A775BDE8F88F4FF69E
:1056A000FF72A38A9342F5D00133F2E71821034633
:1056B00006F1170001FB03F210F802C0BCF1000F65
:1056C0000ED1B418D9F800302360D9F80430C4E9F9
:1056D0000285636001232561A382A775E375DCE77A
:1056E0000133102BE6D131464FF0000A4FF0180B72
:1056F0002A46304630F0EBFBCB6818B11448EA1A62
:10570000824217D98A7DBA4214D9ECB1A07D824277
:105710001AD803D1888AA28A904215D30BFB0A6259
:1057200060695269424032F07F4203D1E26893429D
:1057300038BF0C460AF1010ABAF1100F01F1180145
:10574000D6D1002CBED1A8E70C46F3E740420F00AB
:1057500080510100034690F8900138B1D3F88C31A4
:105760000348C91A81428CBF00200120704700BF46
:105770007F3A09002DE9F3478A4616460021182290
:1057800004461D4643F047FEDAF880713246BE42B9
:105790002CBF002301235146237404F11800009309
:1057A0002B4630F0A1FB237E1BB940F2012323805E
:1057B00014E0BE422ED2A37E022B02D840F2013367
:1057C000F5E7D4E90832B3F1960642F1FF32B6F5B7
:1057D000167F72F1000305DA01236370204602B0E0
:1057E000BDE8F08729465046FFF7B4FF08B105230E
:1057F000F3E79AF8A03143B145F25F41DAF89C3102
:10580000EB1A8B4201D80623E7E70223C4E90262C0
:105810002370E3E7637E052BD0D9A27EB3EB420F62
:1058200002DB40F20143C2E7D4E90887002F464675
:10583000B94602DA764267EB4709B6F5167F79F189
:105840000003C9DB29465046FFF784FF0028CED16C
:105850009AF8A03133B145F25F42DAF89C31EB1A85
:105860009342D0D99AF89831ABB14FF49670DAF8E8
:105870009431154AED1AA5FB00010023FBF71EFE2B
:1058800010F5167041F10001B04271EB090102DA26
:1058900040F201738BE7022318F5616F424640F630
:1058A000116123703B4677F1FF37BCBF4FF0FF33E8
:1058B000064A8A4273F10001A4BF4FF461620023DB
:1058C000C4E902238AE700BF40420F00F0F1FFFF66
:1058D0000138C0B206289ABF024B53F82000024894
:1058E000704700BFCCB30400E81605002DE9F04F67
:1058F000B1B00546884616469DF8ECA00B93002AE9
:1059000000F0B98101463A9B0B9A16A8FFF732FFC7
:10591000DDE91E799DF858209DF86830022A9DF82F
:105920007040099340F03581DDE9181095F8842125
:1059300022B1002880F2A181B64A04E0B64B8B4226
:105940008241B64A07DB4FF0FF3CB54B994270EB02
:105950000C0C00DB0B46B348B049DDF824C0BCF1A9
:10596000000F18BF014622A8CDE900123821AE4A27
:105970002BF0CEFCBAF1000F00F03081AB4BA74A00
:105980009DF871109DF872009DF873C0002C00F016
:1059900028814FF0000EA04CBC427EEB090E07DBC5
:1059A0004FF0FF3E9E4CA74279EB0E0EA8BF3C463F
:1059B000209F0DF1880ECDE90110CDE903C40092BE
:1059C00031464046CDE9057E994A2BF0A1FC041EE4
:1059D000C0F24C81B44280F04981D5F8AC31FBB1C2
:1059E000D5E96E1C00208C4AD5F8B0718A4270EB64
:1059F0000C0007DB4FF0FF30894A91427CEB00003E
:105A0000A8BF0A46CDE90072311B08EB0400894AA1
:105A10002BF07EFC241800F12981B44280F026810D
:105A2000D5F8B4315BB1311B08EB0400824A2BF08E
:105A30006FFC241800F11A81B44280F017812846C7
:105A40003A99FFF787FE98B13A99284630F0D1FB92
:105A50004FF46163311BB0FBF3F3784A08EB0400A9
:105A60002BF056FC241800F10181B44280F0FE8036
:105A7000D5F8A831311B009308EB0400D5F8A43108
:105A80006F4A2BF045FC241800F1F080B44280F0FE
:105A9000ED8005F5C0730A934FF0000A2B46DA7DBE
:105AA0000AB10AF1010A0A9A18339342F7D14FF06A
:105AB000000BD946CA4540F3A9802F468BF001035D
:105AC0000F93FB7D002B00F09580099B39462846FB
:105AD0003A9AFFF797FD0F9B834240F08B8008EBCB
:105AE00004030893331B0C933B783A9A0D937B780D
:105AF000B98A0E93FB686329A2EB0303BA6828BF37
:105B000063219B184FF0000242EB020E0B9A97F8AC
:105B100016C09B1A404A6EF1000E9A424FF00002E6
:105B200072EB0E025FDB3E4A93424FF0FF327EEB98
:105B300002025ADBDFF8E4E0424ACDE901C1002865
:105B400008BF7246CDE903320E9B3F4A0093311BDA
:105B50000D9B08EB04002BF0DBFB002802DB20444C
:105B6000B04244D30023089ACA4513704EDDAAEB15
:105B700009031821354A10A82BF0CAFB0C9B0546D7
:105B8000834243D9421C10A9089843F01EFC2C44C0
:105B90003CE0BDF85830B3F5807F15D1B9F1000F66
:105BA0003B464A4602DA7B4269EB490240F22D113C
:105BB0008B4272F10002B4BF254B264B264A382196
:105BC00022A82BF0A5FBD5E69DF85900FFF780FE33
:105BD00003460AB9214AF2E7214AF0E7214B224A5B
:105BE000CEE62746E5E60C4BA4E70D4BA2E70446BC
:105BF00009F101090A9B18379F427FF462AF0BF14C
:105C00000103022B4FF0010B7FF454AF204631B05B
:105C1000BDE8F08F64EC0400009435779C15050016
:105C2000006CCA887DEC0400A3EC040079FE04003B
:105C3000C7EC0400FCEC04001CED04002AED040099
:105C400034ED0400A0EC040048ED040064ED040011
:105C50008AEC04008DEC0400A5FE0400B0EC040006
:105C6000BAEC040042F2040095EC04000023741E18
:105C700008F80430CAE71446C8E70022024B8B42FA
:105C80008241024A65E600BF009435779C15050005
:105C9000034A0346107810B1024A12681A6070472E
:105CA000A9A60220A04F02202DE9F04F85B00F4693
:105CB0000646029218B9002005B0BDE8F08F002911
:105CC000F9D00024184B04701B78002BF3D0174D2B
:105CD000DFF85CA0DFF85CB005F1CC082A68DAF8E0
:105CE00000301A421CD0029BABB1AB68002B08BF3E
:105CF0005B46009306EB0409391B48466B680E4A65
:105D000003912BF005FB0028039906DA002389F89C
:105D100000302046D0E7074BEBE78142F6D9044438
:105D20000C354545DAD1F4E7A9A60220E8B3040012
:105D3000A04F02209C15050052FB0400002300B573
:105D4000A3B0019301A820F069FE024658B9019959
:105D5000074B02A819600121064B19708021FFF73B
:105D6000A3FF20F097FE002023B05DF804FB00BFE6
:105D7000A04F0220A9A6022010B5084B187860B1E8
:105D8000074B084C19680023184654F823200333A6
:105D90000A40332B40EA0200F7D110BDA9A6022029
:105DA000A04F0220E8B304000823044A044852F834
:105DB000041F013B81EAF060F9D17047A41E032063
:105DC00017F4437AF8B50D4E0D4B32689A4212D152
:105DD000FFF7EAFF746A84420DD10A4F351D3C4635
:105DE0000FCD0FC495E80F0084E80F0000230122B7
:105DF000FB77054B1A7000203060F8BDA41E03200D
:105E000017F4437AA44F0220AAA6022070B50646D2
:105E10000D46104C1C2200210F4843F0FCFA66602E
:105E20001DB1AB69A3606B69E3600BF095F80B4B98
:105E300018583FF00BFF014618B11322084843F0F1
:105E40004CFB084B2360FFF7AFFF6062012009F0B5
:105E5000ADFB00BFA41E0320AC1E03200800000001
:105E6000B41E032017F4437A70B5064B04461E781F
:105E700036B1054D0FCD0FC495E80F0084E80F0033
:105E8000304670BDAAA60220A44F0220034BD3E8DF
