:020000040800F2
:10000000D8A7022099EC00081BD7030885EC00084C
:1000100085EC000885EC000885EC000885EC0008FC
:10002000000000000000000000000000F1EC0008EB
:1000300085EC00080000000015EF000885EC0008C2
:10004000D9DA0008C9EF0008C9EF0008C9EF0008B5
:10005000C9EF0008C9EF0008C9EF0008C9EF0008A0
:10006000C9EF0008C9EF0008C9EF0008C9EF000890
:10007000C9EF0008C9EF0008C9EF0008C9EF000880
:10008000C9EF0008C9EF0008C9EF0008C9EF000870
:10009000C9EF0008C9EF0008C9EF0008C9EF000860
:1000A000C9EF0008C9EF0008C9EF0008C9EF000850
:1000B000C9EF0008C9EF0008C9EF0008C9EF000840
:1000C000C9EF0008C9EF0008C9EF0008C9EF000830
:1000D000C9EF0008C9EF0008C9EF0008C9EF000820
:1000E000C9EF0008C9EF0008C9EF0008C9EF000810
:1000F000C9EF0008C9EF0008C9EF0008C9EF000800
:10010000C9EF0008C9EF0008C9EF0008C9EF0008EF
:10011000C9EF0008C9EF0008C9EF0008C9EF0008DF
:10012000C9EF0008C9EF0008C9EF0008C9EF0008CF
:10013000C9EF0008C9EF0008C9EF0008C9EF0008BF
:10014000C9EF0008C9EF0008C9EF0008C9EF0008AF
:10015000C9EF0008C9EF0008C9EF0008C9EF00089F
:0C016000C9EF0008C9EF0008C9EF000853
:1001700081F0004102E000BF83F0004330B54FEA58
:1001800041044FEA430594EA050F08BF90EA020FC5
:100190001FBF54EA000C55EA020C7FEA645C7FEA58
:1001A000655C00F0E2804FEA5454D4EB5555B8BF7B
:1001B0006D420CDD2C4480EA020281EA030382EAEC
:1001C000000083EA010180EA020281EA0303362D7E
:1001D00088BF30BD11F0004F4FEA01314FF4801C51
:1001E0004CEA113102D0404261EB410113F0004F63
:1001F0004FEA03334CEA133302D0524263EB43031A
:1002000094EA050F00F0A780A4F10104D5F1200EB7
:100210000DDB02FA0EFC22FA05F2801841F1000112
:1002200003FA0EF2801843FA05F359410EE0A5F1E6
:1002300020050EF1200E012A03FA0EFC28BF4CF017
:10024000020C43FA05F3C01851EBE37101F00045CD
:1002500007D54FF0000EDCF1000C7EEB00006EEBDA
:100260000101B1F5801F1BD3B1F5001F0CD3490864
:100270005FEA30004FEA3C0C04F101044FEA4452BB
:1002800012F5800F80F09A80BCF1004F08BF5FEA42
:10029000500C50F1000041EB045141EA050130BD22
:1002A0005FEA4C0C404141EB0101013C28BFB1F534
:1002B000801FE9D291F0000F04BF01460020B1FA7F
:1002C00081F308BF2033A3F10B03B3F120020CDA52
:1002D0000C3208DD02F1140CC2F10C0201FA0CF030
:1002E00021FA02F10CE002F11402D8BFC2F1200C95
:1002F00001FA02F120FA0CFCDCBF41EA0C0190404B
:10030000E41AA2BF01EB0451294330BD6FEA040493
:100310001F3C1CDA0C340EDC04F11404C4F120027E
:1003200020FA04F001FA02F340EA030021FA04F390
:1003300045EA030130BDC4F10C04C4F1200220FAE7
:1003400002F001FA04F340EA0300294630BD21FA25
:1003500004F0294630BD94F0000F83F4801306BFEB
:1003600081F480110134013D4EE77FEA645C18BFDF
:100370007FEA655C29D094EA050F08BF90EA020F76
:1003800005D054EA000C04BF1946104630BD91EA6E
:10039000030F1EBF0021002030BD5FEA545C05D171
:1003A0004000494128BF41F0004130BD14F58004B0
:1003B0003CBF01F5801130BD01F0004545F0FE4124
:1003C00041F470014FF0000030BD7FEA645C1ABF59
:1003D000194610467FEA655C1CBF0B46024650EA90
:1003E000013406BF52EA033591EA030F41F40021BC
:1003F00030BD00BF90F0000F04BF0021704730B542
:100400004FF4806404F132044FF000054FF0000116
:1004100050E700BF90F0000F04BF0021704730B5D7
:100420004FF4806404F1320410F0004548BF4042AC
:100430004FF000013EE700BF42004FEAE2014FEA01
:1004400031014FEA02701FBF12F07F4393F07F4FDC
:1004500081F06051704732F07F4208BF704793F0DF
:100460007F4F04BF41F40021704730B54FF46074F2
:1004700001F0004521F000411CE700BF50EA0102F5
:1004800008BF704730B54FF000050AE050EA01029E
:1004900008BF704730B511F0004502D5404261EB0E
:1004A00041014FF4806404F132045FEA915C3FF44F
:1004B000D8AE4FF003025FEADC0C18BF03325FEAEC
:1004C000DC0C18BF033202EBDC02C2F1200300FA9D
:1004D00003FC20FA02F001FA03FE40EA0E0021FAC2
:1004E00002F11444BDE600BF70B54FF0FF0C4CF4B0
:1004F000E06C1CEA11541DBF1CEA135594EA0C0F62
:1005000095EA0C0F00F0DEF82C4481EA030621EA9C
:100510004C5123EA4C5350EA013518BF52EA0335D7
:1005200041F4801143F4801338D0A0FB02CE4FF089
:100530000005E1FB02E506F00042E0FB03E54FF0B9
:100540000006E1FB03569CF0000F18BF4EF0010EB1
:10055000A4F1FF04B6F5007F64F5407404D25FEAAD
:100560004E0E6D4146EB060642EAC62141EA555160
:100570004FEAC52040EA5E504FEACE2EB4F1FD0CA2
:1005800088BFBCF5E06F1ED8BEF1004F08BF5FEA20
:10059000500E50F1000041EB045170BD06F00046D2
:1005A00046EA010140EA020081EA0301B4EB5C047F
:1005B000C2BFD4EB0C0541EA045170BD41F4801177
:1005C0004FF0000E013C00F3AB8014F1360FDEBF9C
:1005D000002001F0004170BDC4F10004203C35DA78
:1005E0000C341BDC04F11404C4F1200500FA05F3FB
:1005F00020FA04F001FA05F240EA020001F000429C
:1006000021F0004110EBD37021FA04F642EB060111
:100610005EEA430E08BF20EAD37070BDC4F10C043B
:10062000C4F1200500FA04F320FA05F001FA04F2FF
:1006300040EA020001F0004110EBD37041F10001EB
:100640005EEA430E08BF20EAD37070BDC4F12005F6
:1006500000FA05F24EEA020E20FA04F301FA05F25E
:1006600043EA020321FA04F001F0004121FA04F206
:1006700020EA020000EBD3705EEA430E08BF20EAD6
:10068000D37070BD94F0000F0FD101F00046400010
:1006900041EB010111F4801F08BF013CF7D041EA92
:1006A000060195F0000F18BF704703F00046520096
:1006B00043EB030313F4801F08BF013DF7D043EA67
:1006C0000603704794EA0C0F0CEA135518BF95EA1D
:1006D0000C0F0CD050EA410618BF52EA4306D1D1A4
:1006E00081EA030101F000414FF0000070BD50EAC3
:1006F000410606BF1046194652EA430619D094EA4D
:100700000C0F02D150EA013613D195EA0C0F05D136
:1007100052EA03361CBF104619460AD181EA03018A
:1007200001F0004141F0FE4141F470014FF0000042
:1007300070BD41F0FE4141F4780170BD70B54FF0DD
:10074000FF0C4CF4E06C1CEA11541DBF1CEA13555D
:1007500094EA0C0F95EA0C0F00F0A7F8A4EB05043F
:1007600081EA030E52EA03354FEA013100F0888036
:100770004FEA03334FF0805545EA131343EA1263FF
:100780004FEA022245EA111545EA10654FEA0026B4
:100790000EF000419D4208BF964244F1FD0404F56D
:1007A000407402D25B084FEA3202B61A65EB0305C9
:1007B0005B084FEA32024FF480104FF4002CB6EB86
:1007C000020E75EB030E22BFB61A754640EA0C0006
:1007D0005B084FEA3202B6EB020E75EB030E22BF46
:1007E000B61A754640EA5C005B084FEA3202B6EB87
:1007F000020E75EB030E22BFB61A754640EA9C0046
:100800005B084FEA3202B6EB020E75EB030E22BF15
:10081000B61A754640EADC0055EA060E18D04FEAD3
:10082000051545EA16754FEA06164FEAC30343EA73
:1008300052734FEAC2025FEA1C1CC0D111F4801F40
:100840000BD141EA00014FF000004FF0004CB6E739
:1008500011F4801F04BF01430020B4F1FD0C88BFD8
:10086000BCF5E06F3FF6AFAEB5EB030C04BFB6EBE3
:10087000020C5FEA500C50F1000041EB045170BDD6
:100880000EF0004E4EEA113114EB5C04C2BFD4EB03
:100890000C0541EA045170BD41F480114FF0000E87
:1008A000013C90E645EA060E8DE60CEA135594EA03
:1008B0000C0F08BF95EA0C0F3FF43BAF94EA0C0F06
:1008C0000AD150EA01347FF434AF95EA0C0F7FF47B
:1008D00025AF104619462CE795EA0C0F06D152EACF
:1008E00003353FF4FDAE1046194622E750EA4106B3
:1008F00018BF52EA43067FF4C5AE50EA41047FF4C4
:100900000DAF52EA43057FF4EBAE12E74FF0FF3C28
:1009100006E000BF4FF0010C02E000BF4FF0010CF9
:100920004DF804CD4FEA410C7FEA6C5C4FEA430C72
:1009300018BF7FEA6C5C1BD001B050EA410C0CBFC1
:1009400052EA430C91EA030F02BF90EA020F002023
:10095000704710F1000F91EA030F58BF994208BF8A
:1009600090422CBFD8176FEAE37040F00100704747
:100970004FEA410C7FEA6C5C02D150EA013C07D19E
:100980004FEA430C7FEA6C5CD6D152EA033CD3D0E9
:100990005DF8040B704700BF8446104662468C46E3
:1009A0001946634600E000BF01B5FFF7B7FF002816
:1009B00048BF10F1000F01BD4DF808EDFFF7F4FF3F
:1009C0000CBF012000205DF808FB00BF4DF808EDCA
:1009D000FFF7EAFF34BF012000205DF808FB00BFED
:1009E0004DF808EDFFF7E0FF94BF012000205DF80F
:1009F00008FB00BF4DF808EDFFF7CEFF94BF0120C4
:100A000000205DF808FB00BF4DF808EDFFF7C4FFBC
:100A100034BF012000205DF808FB00BF4FEA41020F
:100A200012F5001215D211D56FF47873B3EB625240
:100A300012D94FEAC12343F0004343EA505311F067
:100A4000004F23FA02F018BF404270474FF00000F9
:100A5000704750EA013005D111F0004008BF6FF037
:100A6000004070474FF00000704700BF4A0011D2AD
:100A700012F5001211D20DD56FF47873B3EB6252F8
:100A80000ED44FEAC12343F0004343EA505323FA04
:100A900002F070474FF00000704750EA013002D179
:100AA0004FF0FF3070474FF0000070474FEA4102AF
:100AB000B2F1E04324BFB3F5001CDCF1FE5C0DD9BC
:100AC00001F0004C4FEAC0024CEA5070B2F1004F06
:100AD00040EB830008BF20F00100704711F0804F09
:100AE00021D113F13872BCBF01F00040704741F4CE
:100AF00080114FEA5252C2F11802C2F1200C10FAD2
:100B00000CF320FA02F018BF40F001004FEAC123B5
:100B10004FEAD32303FA0CFC40EA0C0023FA02F359
:100B20004FEA4303CCE77FEA625307D150EA01332F
:100B30001EBF4FF0FE4040F44000704701F00040FF
:100B400040F0FE4040F40000704700BF7BB972B92E
:100B50000029BEBF00204FF0004106E008BF00287A
:100B60001CBF6FF000414FF0FF3000F057B8ADF1FF
:100B7000080C6DE904CE002909DB002B1ADB00F01C
:100B80007CF8DDF804E0DDE9022304B07047404260
:100B900061EB4101002B1BDB00F06FF8DDF804E096
:100BA000DDE9022304B0404261EB4101524263EBB4
:100BB00043037047524263EB430300F05EF8DDF8F5
:100BC00004E0DDE9022304B0404261EB41017047DB
:100BD000524263EB430300F050F8DDF804E0DDE936
:100BE000022304B0524263EB4303704753B94AB93E
:100BF000002908BF00281CBF4FF0FF314FF0FF3025
:100C000000F00CB8ADF1080C6DE904CE00F035F839
:100C1000DDF804E0DDE9022304B07047704700BF4F
:100C200010F8012B11F8013B012A28BF9A42F7D096
:100C3000D01A7047034611F8012B03F8012B002A44
:100C4000F9D17047034613F8012B002AFBD1181A7B
:100C500001387047430803F05533C01A00F03333AE
:100C6000800800F0333018444FF0013300EB1010CF
:100C700000F00F305843000E70472DE9F0478C46C6
:100C80008E46089E154604461946002B40F0D0803B
:100C9000724547D9B2FA82F74FB1C7F120030EFA75
:100CA00007FCBD40BC4020FA03F343EA0C0C4FEABA
:100CB000154EA8B2230CBCFBFEF80EFB18CC08FBAB
:100CC00000F943EA0C43994528D9EB1808F1FF32A3
:100CD00004D2994502D9A8F102022B44A3EB0903DF
:100CE000A4B2B3FBFEFC0EFB1C330CFB00F044EA89
:100CF0000344A04214D92C190CF1FF3304D2A042B2
:100D000002D9ACF102032C44241A43EA02401EB17A
:100D1000FC40002334607360BDE8F0874246DDE7A5
:100D20006346F1E7002A79D0B2FA82F3002B3FD074
:100D30001946C1F1200302FA01F500FA01F42EFA76
:100D400003F20EFA01FE20FA03F3AFB243EA0E03F8
:100D50004FEA154EB2FBFEFC0EFB1C201A0C0CFBDE
:100D600007F842EA004290455AD9AA180CF1FF3020
:100D700004D2904502D9ACF102002A44A2EB080249
:100D80009BB2B2FBFEFC0EFB1C220CFB07F743EAF6
:100D900002439F4246D9EB180CF1FF3204D29F4226
:100DA00002D9ACF102022B44DB1B42EA004202E012
:100DB000AEEB020301224FEA154EAFB2200CB3FB9B
:100DC000FEFC0EFB1C330CFB07F840EA034398457E
:100DD0002AD9EB180CF1FF3004D2984502D9ACF1B6
:100DE00002002B44A3EB0803A4B2B3FBFEFC0EFBF2
:100DF0001C330CFB07F744EA0344A74216D92C190D
:100E00000CF1FF3304D2A74202D9ACF102032C4407
:100E1000E41B43EA00400F46114678E71F2188E7AC
:100E20006046ABE76246BFE76046DBE76346EFE755
:100E3000734506D916B9002108466DE7C6E9000ECC
:100E4000F9E7B3FA83F787B9734501D3824207D82C
:100E5000841A6EEB030301209C461EB900215BE758
:100E60003846FAE7C6E9004CF8E7C7F1200CBB406A
:100E700000FA07F422FA0CF520FA0CF1BA401D43EF
:100E80002EFA0CF30EFA07FE4FEA154941EA0E015D
:100E90001FFA85FEB3FBF9F809FB18300B0C08FBB1
:100EA0000EFA43EA00439A4540D9EB1808F1FF30A7
:100EB00004D29A4502D9A8F102002B44A3EB0A03FD
:100EC00089B2B3FBF9F809FB183308FB0EFE41EABF
:100ED00003418E452CD9691808F1FF3304D28E45A1
:100EE00002D9A8F10203294443EA0040A1EB0E0114
:100EF000A0FB02984145CE46434602D306D14C455D
:100F000004D20138B9EB020E68EB0503002EA5D020
:100F1000B4EB0E0261EB030101FA0CFC22FA07F3B9
:100F2000F9404CEA0303C6E9003197E74046C5E7BC
:100F30004346D9E7000000002DE9F0430F462DEDB0
:100F4000028BB90714468DB040F1938035F061FFF4
:100F5000002800F08E8002A835F069FF002800F01C
:100F6000888094F8C15094F8C03005F10A0898457B
:100F70007FDADDE90201FFF789FA95A3D3E90023BF
:100F8000FFF7DCFBFFF792FDDFED938A07EE900A97
:100F9000DDE9040167EEA87AF5EEC07AB6EE008AC4
:100FA000F1EE10FA4CBF77EEC87A77EE887AFDEE54
:100FB000E77A17EE906AFFF769FA85A3D3E9002371
:100FC000FFF7BCFBFFF772FD07EE900A67EEA87A09
:100FD000F5EEC07AF1EE10FA4CBF77EEC87A77EEF4
:100FE000887AFDEEE77A17EE902ADDED067ADFEDDE
:100FF0007B6AB8EEE77AC7EE267A9FED797A67EEDC
:10100000877AF5EEC07AF1EE10FA4CBF77EEC87A27
:1010100077EE887AFDEEE77A0121882017EE903A84
:1010200061556918C9B26054A91CC9B23014605422
:10103000E91CC9B230126054291DC9B26654691D39
:101040001014C9B26054A91DC9B210126054E91D30
:10105000C9B2625405F10802D2B21914A15405F1C3
:101060000902D2B219120B35A15484F8C15004F808
:1010700008307A0700F19F8001200DB0BDEC028B93
:10108000BDE8F083404604F09FF880B909F1010300
:101090004D465FFA83F9404602A904F0A7F840B133
:1010A00008F1010804F08AF84045EBDCE4E701258B
:1010B000F1E7BDF80860F30618D59DED070AB5EE17
:1010C000C00AF1EE10FA70D4B4EEE80AF1EE10FAAC
:1010D0006EDCBCEEC00A0023B8EE400ACDE9007316
:1010E0002A4602236521204635F0FCFEF0070AD58A
:1010F0000A239DED030A00932A4602236721204616
:10110000019735F0EFFEB1070BD5022300229DEDCC
:10111000040ACDE90032682101232A46204635F031
:10112000E1FE73070CD50A234FF0000C9DED050A74
:10113000CDE9003C2A4602237321204635F0D2FE39
:10114000300709D502239DED060A2A46792120465B
:10115000CDE9007735F0C6FEB1060AD564239DEDD2
:10116000080A00932A46022374212046019735F08D
:10117000B9FE72060BD54FF47A739DED090A009300
:101180002A46022375212046019735F0ABFE33062F
:1011900086D500239DED0A0ACDE900732A46022375
:1011A0008021204635F09EFE7AE7B0EE480A90E7AF
:1011B0009FED0C0A8FE74FF000084FF0020901275E
:1011C0009FED098ADFED098A6CE700BFAFF300806D
:1011D0000000000065CDCD4100401C4600007A446F
:1011E0000000C842FFFF00000000000000FF7F4732
:1011F0000B4640F20112D0B58EB00446CDE9012372
:1012000013A3D3E9002351EC100B57EC116BFFF73C
:101210006BF9FFF703FC0EA3D3E9002303903946D3
:101220003046FFF761F9FFF7F9FB0023049006A9A8
:1012300001A8059335F0E7FE06AA034604F50671FA
:10124000204634F0E7F90EB0D0BD00BFAFF3008008
:101250000000000080842E412DE9F041072A044659
:1012600098B006D8062138F01FFC012018B0BDE860
:10127000F081002700F5883585F8A87900F5E0367B
:10128000D6F8900E86F8CC7618B13BF0A9FCC6F8DB
:10129000907E002704F5E938C6F8947EC6F8987E5B
:1012A00004F5E836C6F84C7208F1500044F0AFF887
:1012B000012386F82E32A06E03681B68984700F65B
:1012C000B830C8E90C07204686F848723BF063F84E
:1012D00095F829397BB196F8483263B9D6F8E830E9
:1012E0004BB1204609F020FA28B1A06F03681B68B3
:1012F0009847C6F8E80040F20513ADF8043095F8B9
:101300000C3802AE8DF80630162304F50E778DF8F2
:10131000073004F50673324618685968083303C26B
:10132000BB421646F7D12FA3D3E9002304F58B3631
:10133000D6E97C01FFF7D8F8FFF770FB29A3D3E9C2
:1013400000230746D6E97A01FFF7CEF8FFF766FBE0
:1013500095F8373895F8E4288DF8303095F84C3802
:101360009FED1F7A8DF8313095F8E33806F5E27677
:101370009B0043EA021395F8E228CDE90A071343DC
:101380008DF8323095F8E1381F218DF8333005F6AD
:101390000803D3ED007A67EE877AFCEEE77A05F66C
:1013A0003803CDED0D7AD3ED007A67EE877AFCEE47
:1013B000E77AB5F834383046CDED0E7AADF83C30EA
:1013C0004EF0F3FB0546024631460DF13E004EF06D
:1013D00051FB204605F13A0201A938F04CFB44E7E5
:1013E00000007A440000000080842E4100000000CC
:1013F000082AF8B5044634D9481C38F036F91E4A94
:101400001E4E0244B24203462BD8481D38F02DF937
:101410001B4A0546904224DBB04222DC1846FEF708
:10142000F9FF13A3D3E90023FFF788F904F58B36FE
:10143000C6E97A012846FEF7EDFF0DA3D3E90023A4
:10144000FFF77CF9C6E97C0104F58833D3F89009ED
:1014500006F5E07107F03AFC204638F01AFB01204F
:10146000F8BD0621204638F01FFBF8E7AFF30080F7
:101470000000000080842E41804A5D050095BA0A74
:10148000006B45F5000000002DE9F0412DED028BC9
:10149000151D06460F469AB028469C491C46FFF784
:1014A000BFFB40B99A4920461AB0BDEC028BBDE89B
:1014B000F041FFF7BFBB0A22284696494EF013FBC6
:1014C000D8B9736993F88120934B197991420DD162
:1014D0001B68924A0092924A4FF48071204631F084
:1014E0005DFC1AB0BDEC028BBDE8F0810130042830
:1014F00003F10803E9D18B4BEBE7072228468A4921
:101500004EF0F1FA80B9736993F88220874B19790C
:10151000914202D11B68864ADCE70130042803F1BE
:101520000803F4D17F4BF6E70422284681494EF0A8
:10153000DAFA40B9736993F880207F4B7F49002A1B
:1015400008BF0B462FE0062228467D494EF0CBFA15
:1015500058B9736993F82C0104F00EFC054604F0A9
:101560001DFC2B46774A0090B6E71522284676499F
:101570004EF0B9FA20B9736993F84F30734A13E00B
:101580000F22284672494EF0AEFA20B9736993F8DB
:101590004E305B00F2E70E2228466E494EF0A3FA69
:1015A00060B9736958336C4A4FF4807120461AB0A1
:1015B000BDEC028BBDE8F04131F0F0BBDFB9072292
:1015C000284666494EF08FFAA8B9B0691C36036800
:1015D0005B6D984740220AA933F0D3FD0AA9024661
:1015E000304602F09BF933464FF4807120465A4A48
:1015F00031F0D4FB75E70422284659494EF073FABE
:1016000010B973690433CEE70622284655494EF0D7
:101610006AFA18B9736993F84D208EE703222846B9
:1016200051494EF060FA58B97369D3E90A23CDE9FC
:1016300000234E4A4FF48071204631F0AFFB50E753
:10164000032228464A494EF04EFA18B97369D3E985
:101650000C23ECE71022284646494EF044FA18B90C
:10166000736993F87E3089E71222284642494EF08A
:101670003AFA18B9736993F87D307FE70922284652
:101680003E494EF030FA18B9736993F87C3075E72B
:10169000122228463A494EF026FA38B97369D86EB4
:1016A000FEF7CAFE374ACDE90001C3E70A22284601
:1016B00035494EF018FA90B93E23224602F8023B13
:1016C000202363707169973111F8013F0BB91370D2
:1016D00007E70A2B08BF7C2302F8013BF4E70B2243
:1016E00028462A494EF0FFF9002859D1736993F82A
:1016F00031310BB92649D6E6012B01D12549D2E675
:10170000022B0CBF24492549CDE600BFF8A10508EE
:10171000FBA105081FA205083028050831A205080D
:101720002AA2050894BD05084FA20508102805083F
:1017300083BD050857A205081B99050876A505086D
:101740005CA2050863A205086DA205086F9E050846
:1017500073A2050883A205080E94050892A2050845
:10176000F49D050810960508089605089AA2050834
:101770000C960508A1A20508B2A20508C5A2050895
:10178000CFA20508689E0508E2A20508EDA205089B
:10179000F9A20508FFA2050809A3050814A3050876
:1017A0000A222846A2494EF09EF988B9A14920464E
:1017B000FFF740FAB06903685B6D98472022014645
:1017C000A01C1AB0BDEC028BBDE8F04102F0A6B837
:1017D0000422284698494EF086F928B9B069036872
:1017E000DB6898470346DEE60E22284693494EF012
:1017F0007AF908B9924956E60D22284691494EF0E9
:1018000072F908B990494EE6112228468F494EF0E8
:101810006AF9B0B935682B682846D3E91737984775
:1018200001462846B8473668054633683046D3E94E
:101830001937984701463046B8472B46844A0090EE
:101840004AE60D22284683494EF04DF90028D9D0AA
:101850000E22284680494EF046F950B930682022C1
:1018600003680AA99B6B984708B10AABBCE67B49A1
:1018700019E60E2228467A494EF035F940BB306809
:101880000368DB689847B5EE400AF1EE10FAB0EE57
:10189000408A01D1734906E6306803681B6898479F
:1018A000054618EE100AFEF7C7FD6DB16E4B6F4A84
:1018B0001B681B88CDE90001CDE902534FF480710C
:1018C000204631F06BFA0CE6CDE90001684AB1E63A
:1018D0000622284667494EF006F920B9736993F845
:1018E0001231654A60E60E22284664494EF0FBF844
:1018F00008B96349D7E50C22284662494EF0F3F84F
:1019000018B90BF0DFFD0346EBE7092228465E49D4
:101910004EF0E9F818B9736993F91F31E1E708222D
:1019200028465A494EF0DFF8A0B987B196F8E01082
:10193000C1F1A1013E23237020230239A01C637052
:101940001AB0BDEC028BBDE8F04103F0F1BB4FF4DF
:101950008071EFE7082228464D494EF0C4F838B9A7
:1019600035F05FFA034600287FF408AE49499AE54E
:101970000322284648494EF0B6F8002846D135F0F3
:1019800048FA00283FF4B6AE07A835F058FA9DF89B
:101990001C300AA8022B96BF404A414D52F82350F2
:1019A00035F045FABDF81E6000B3DDE90C01FEF725
:1019B0006DFD1DA3D3E90023FEF7C0FECDE90401B0
:1019C000DDE90A01FEF762FD17A3D3E90023FEF764
:1019D000B5FE089BCDE90201CDE900634FF48071AB
:1019E0002B4620462F4A31F0D9F97AE5099B4BB1B5
:1019F000CDE900634FF480712B4620462A4A31F02E
:101A0000CDF96EE52B46294A009665E50B2228465E
:101A100027494EF068F800284CD1B0690368D3F824
:101A2000803098470346A9E50000000065CDCD4110
:101A30001DA305082E9F050828A305082DA305084A
:101A40003CA305084AA3050858A305087EA305087A
:101A500090A30508AAA30508B8A30508C7A305080D
:101A6000D1A30508E0A305087423050801A405080F
:101A70002CA4050845A40508219F05084CA40508C9
:101A80005BA405087FA40508549E05088CA40508DE
:101A900095A405089EA40508689305080428050870
:101AA000C9A30508AEA40508E2A4050808A5050811
:101AB00025A505080E22284656494EF014F818B9F7
:101AC000736993F8183159E50922284652494EF0B6
:101AD0000AF8C8B9AFB196F8E050C5F1A10529469A
:101AE0004E4A204631F05AF90146B0696A1A036835
:101AF0002144D3F88830984700287FF4F2AC484955
:101B0000D1E44FF48075EAE70822284645494DF0B4
:101B1000EAFF28B97369444993F81621434B0EE54F
:101B20000A22284642494DF0DEFF18B9736993F93D
:101B30001731D6E60B2228463E494DF0D4FF38B97E
:101B4000736993F81931002B7FF418AD3A49AAE470
:101B500028463A49FFF764F808B93949A3E408224E
:101B6000284638494DF0BFFF002847D00C222846B0
:101B700035494DF0B8FF002848D1B0690368D3F863
:101B80009830984705460028B9D0002F3BD096F8EA
:101B9000E070C7F1A107706803681B68984780462A
:101BA0003AF0FEFD73694FF47A7293F81531003BF9
:101BB00018BF012301930023FEF7C8FF434600909E
:101BC0003A462146284603F0CBFD8AE41F4A3846B0
:101BD000002D18BF42461E4931F00AF90135032D88
:101BE00007443FF47EAC73692B4493F81A31002B01
:101BF000ECD1002D7FF475AC164954E42746054618
:101C0000DFF85880EFE74FF48077C4E72B46124A9D
:101C1000CAE400BF31A5050840A505082E9F0508A8
:101C2000B99B05084AA505081B99050876A505086E
:101C300053A505085EA505086AA505085E9D05086B
:101C400074A5050879A50508FE9B050883BD050850
:101C500082A5050887A505089EA50508A59705087E
:101C6000F7B5002141F2030001AA0EF0F3FD04468E
:101C700000284DD1019AB64DD16805F17803D1F80D
:101C80000100D1F8051003C310460DF00DFD2146EB
:101C900041F2010001AA0EF0DDFD0446002837D113
:101CA0000198C3685A7885F86F205A88A5F8722081
:101CB0001A7985F87020B3F80720A5F87420B3F8D6
:101CC0000530A5F876300DF0EFFC214641F2020018
:101CD00001AA0EF0BFFD0446D0B9019F05F18006B0
:101CE000FA68531C4132344618685968083303C4F3
:101CF00093422646F7D138460DF0D6FC3DF067F802
:101D0000044628B995F87C305F0607D46FF01204BA
:101D100020460EF007FD204603B0F0BD014601AAA3
:101D200042F203000EF096FD04460028F0D1019B1C
:101D3000884EDA68D2F80100D2F8051003C61846BA
:101D40000DF0B2FC214642F2020001AA0EF082FD23
:101D500004460028DCD1019CE368B3F8012091B26D
:101D600049B1D97839B1A5F8E820DA78114606F1F9
:101D70000C0043F066FA20460DF096FC1F2395F800
:101D80007C60A5F8043116F0200619D14FF0FF3021
:101D90004FF0FF310EF05EFC0446002800F09C80FE
:101DA00002210C303BF06DFD01232146037046708B
:101DB000324640F66D400EF04DFD04460028A7D196
:101DC00095F89C301E0712D5002142F21C0001AA92
:101DD0000EF040FD044600289AD10198C368D3F85C
:101DE0000120D3F80530C5E938230DF05DFC95F8E6
:101DF000D8305C060FD5002142F22A0001AA0EF06D
:101E000029FD0446002883D10198C3685B7885F8D2
:101E100006310DF049FC4FF0FF304FF0FF310EF06E
:101E200019FC0646002857D008210C303BF029FD4C
:101E300095F8D84040F2022314F0400F08BF032366
:101E40000246A0074CBF43F02C0343F00C03A1064D
:101E500095F8D91048BF43F0400311F0090F18BF9F
:101E600043F4006304F0010443EA041000213CF051
:101E700015FC0022314642F201000EF0EBFC044654
:101E800000287FF445AF95F87C30B5F8E8109A0645
:101E900025D4C9B941F2050001AA0EF0DBFC0446C5
:101EA00000287FF435AFB5F8E830019C4BB9E36802
:101EB000B3F80120A5F8E8209A882748114643F096
:101EC000C0F920460DF0F0FB4FF0FF304FF0FF312E
:101ED0000EF0C0FB044638B96FF0680418E700291B
:101EE000F2D16FF0040413E708210C303BF0C9FC79
:101EF00095F8D8300246DB0747BF13A1D1E90001AE
:101F00004FF0005115483CF0C9FB2146002240F635
:101F100001400EF09FFC044600287FF4F9AE3CF02F
:101F2000CDFE044600287FF4F3AE10F05FFC0446BB
:101F300000287FF4EDAEEB79002B3FF4ECAE1021DE
:101F400007483CF07EFAE3E690880002008000201B
:101F5000C8020020A0030020B40300201088000263
:101F600098030020000000001BA3D3E900230021F8
:101F7000C0E900231AA3D3E90023C0E902231AA36E
:101F8000D3E90023C0E9042319A3D3E90023C0E95E
:101F9000062319A3D3E90023C0E9082318A3D3E932
:101FA0000023C0E90A2318A3D3E90023C0E90C23C6
:101FB00017A3D3E90023C0E90E2300220023C0F8B1
:101FC000D010C0E93023C0E93223802240304DF0E8
:101FD00077BD00BFAFF3008008C9BCF367E6096AAC
:101FE0003BA7CA8485AE67BB2BF894FE72F36E3CA8
:101FF000F1361D5F3AF54FA5D182E6AD7F520E5105
:102000001F6C3E2B8C68059B6BBD41FBABD9831FBE
:1020100079217E1319CDE05B40F6FC039842F7B5B9
:1020200088BF012304464FF0000782BFA0F6FC04DE
:1020300063F30707A4B220F06FF9054620F06CF9AE
:102040004DF036F906462046FEF7E4F90CA3D3E935
:102050000023FEF749FAFEF709FD074B82190093AA
:1020600028460023054901974DF00AF8B0FA80F0A0
:10207000400903B0F0BD00BFFBBF0408C81C02202C
:102080000000000080842E412DE9F84F81468846EB
:1020900000232DED028B19F803705A1C202F00F03D
:1020A0009E81A7F10901042940F299812B2F144642
:1020B00031D02D2F34D0042547F02003692B31D0A7
:1020C0006E2B68D000224FF00A0B924694461346BE
:1020D000114615F4006073D047F02006A6F1610E9A
:1020E000BEF1050F6CD8573EF6B25E456DD347F092
:1020F000200705F08006782F40F0AC80002E5BD0E2
:1021000053EA010640F0A88045F4006E4FF0100B32
:102110001FFA8EFE8CE0042519F802709C1CCBE798
:102120004425F9E79FEDB08BB54B13F8011B49B17E
:1021300019F80420601C42F020028A422FD0B14AD4
:10214000934239D1B0EE480AF0EE680A4DF050FFE4
:1021500048B119F80430282B05D1013419F804309E
:102160000134292B1DD16B0607D518EE901A18EEF5
:10217000102A01F1004343EC182BB8F1000F02D0F4
:102180004C44C8F80040B0EE480AF0EE680ABDECD6
:10219000028BBDE8F88F9FED968B9B4BC5E70446FD
:1021A000C3E723F02002413A192AD7D9A3F130021C
:1021B000092AD3D95F2BD1D000249FED8F8BDCE788
:1021C000A7F13006F6B25E4539D245F0800E15F41F
:1021D00080701FFA8EFE23D1BBF10A0F14BF0F27A8
:1021E0001027BA450EDCAF0527D4ABFB0335F31837
:1021F0000BFB015545F1000153EA010018D00AF12B
:10220000010A15E045F4C07EBBF10A0F1FFA8EFEED
:1022100006D1042E04D9052E4FF0020C08BF064645
:10222000002E18BF4CF0010C1EF4007F00D10132CB
:1022300019F80470754601344BE7013AD5E7FE2ED4
:102240007FF455AFAE053FF552AF45F4007E1FFA5F
:102250008EFEEDE7002EAFD0002876D092007020E1
:10226000B84217D119F80400661C2B2804D02D2879
:102270006DD145F48065ADB219F80670A61C044610
:102280003846A0F13007092F64D901340CBF06F19C
:10229000FF34B41E53EA010004F1FF3400F09C80C7
:1022A00028057CD53632B1F5800F6AD3574FB1F58A
:1022B000000F6BD2BA4269DB4CEA0303084603F015
:1022C0000306032E03D003F00606062E09D10433BD
:1022D00041F10000B0F5000F22BF013201234FF49D
:1022E0008000B2F5806F74DAB0F5800F4FEA900687
:1022F0004FEA930326BF02F2FF3226F48016002233
:1023000043EA807346EA0251184641EC180BB0EEDE
:10231000480AF0EE680A32F0A1F80138022804D821
:102320003B4B22220CF062FE1A50B0EE480AF0EE4F
:10233000680A32F093F8013802283FF614AF344BA4
:1023400022220CF053FE1A500DE7652088E74FF06B
:10235000FF3496E7002440F2D34E4FF00A0B744549
:10236000DCBF30380BFB040419F806000136A0F17D
:102370003007092FF3D96F0548BF64422244344621
:1023800088E7DB1802F1FF3249418CE75E0803F071
:102390000103013246EAC1764908334387E7924494
:1023A0001AF5A27F12DDBAF59B7F12DA03F0010065
:1023B00040EA0C0001308008181841F1000100F0DB
:1023C0002BF8B0EE408AF0EE608AAEE79FED0A8B04
:1023D000ABE79FED058BA8E79FED078BC3E61346A0
:1023E00059E600BFAFF30080000000000000F07F5E
:1023F000000000000000F87F000000000000000066
:10240000CAC40508CDC40508C7C4050802FCFFFFFF
:102410000C000000000000002DE9FF478046164632
:102420000F46002900F0A380B1FA81F4341B002E7E
:1024300004F10A04C0F2A380304631F0F3FE0444F4
:10244000304631F0F5FEA4EB0609054669463046F4
:1024500031F016FFA9EB05036A4640467D33394645
:102460004DF0E5FBA64282460D4600F38480B9F1AB
:102470003F0F00F382804FF0FF33A9F12000C9F134
:10248000200103FA00F003FA09F223FA01F103FA3A
:1024900009F3024328EA03030A4327EA020213432B
:1024A0000CBF01200020002D00F08B80B5FA85F3D1
:1024B000E31A40F2FE7203F23E43934200F3878038
:1024C000002B23EAE371D4BF01220A46121BA2F2B9
:1024D0003344A2F2344EA2F25343C4F120072AFA45
:1024E00004F625FA03F3CEF1200C05FA07F725FAD6
:1024F00004F405FA0CFCCEF120083E43A2F2544746
:10250000A2F254421E432AFA0EF325FA07F743EAD1
:102510000C033B4313F0010318D04FF0FF3707FAC9
:1025200002F307FA0EFC4CEA030C27FA08F307FA49
:102530000EF74CEA030C2AEA070A25EA0C055AEAC8
:10254000050A42D1002840D006F001039A1944F14F
:1025500000041646C4F3130452EA040008BFC91865
:1025600044EA015747EC106B04B0BDE8F087B0FABD
:1025700080F420345AE7012095E7002093E7C6F164
:102580000009484631F054FE241A484631F050FE06
:10259000A61B0546694648462E4431F0E3FE6A46CE
:1025A000404606F17C0339464DF041FB82460D461C
:1025B0004046394631F04CFE81458CBF0020012059
:1025C00071E7BAFA8AF3203372E70123BEE79FED81
:1025D000020BC9E7AFF30080000000000000F07FAD
:1025E000F8B510EE904A10EE103A34F000472DED99
:1025F000048BB0EE609A0DD183F480035B0013F579
:10260000000F40F2AA8230EE098AB0EE480ABDEC13
:10261000048BF8BD23F000411846B1F1FF4F02D8FA
:10262000B7F1FF4F08D9B3F17E5FECD184F4800499
:10263000640014F5000FE4E7002B25DAB7F1974F9B
:1026400080F09482B7F17E5F39D3FA15C2F1960219
:1026500047FA02F505FA02F2BA4229D105F001055E
:10266000C5F10205B7F17E5F2AD1002C80F27B8292
:10267000B5EE400AF1EE10FA1CD1D80FBDEC048B78
:10268000BDE8F84031F0C6BFB7F1FF4F10D1B1F14E
:102690007E5F00F0628205D9002CDFEDD17A29FE41
:1026A000278AB2E7002C80F25B82B1EE498AACE760
:1026B0000025D7E7B7EE007A87EE008AA5E7002568
:1026C000B4F1804F0A4640F05782B1F1BF4F0CD2AF
:1026D000B1F1D05F02D920EE008A96E7B0EEC08A51
:1026E00059BB012D00FE088A8FE723F04046B0EE6B
:1026F000C08AB6F17E5F17D1002CBCBFB7EE007A5E
:1027000087EE088A002B80DAA1F17E51294305D19A
:10271000BDEC048BBDE8F84031F08ABF012D7FF499
:1027200074AFB1EE488A70E739B9002CD9DA002BC2
:10273000A4D06B1E58425841A0E7DE0F013E55EA77
:102740000600E5D0B7F19A4F71D9A64B994208D847
:10275000002C0BDA0020BDEC048BBDE8F84031F012
:102760004BBFA14B994208D9002CF3DC0020BDECF3
:10277000048BBDE8F84031F031BFB7EE007ADFEDF1
:102780009B7ADFED9B9A38EE478A93A1D1E900014D
:1027900068EE278AFEF78AF9B5EE007A07EE900A0E
:1027A000DFED946A68EE299A48EE477AB6EE007A31
:1027B00007EEC87A68EE087A27EE277AF0EE687A94
:1027C00047EE667A39EEA77A17EE103A6FF30B03ED
:1027D00007EE103A77EE699A77EEE97A013DF7EE67
:1027E000006ABFEE008A6FF30B04354367EE890A77
:1027F00008FE268A06EE904A39EE666A67EE267A69
:1028000046EE070A30EEA77A17EE101A002921F0DB
:10281000004340F31381B3F1864F40F2CC80B5EE14
:10282000C08AF1EE10FA4CBF0120002093E713F0AC
:10283000FF4F05BF9FED707A6FF01701002168EE22
:10284000077A08BF17EE902AD315C2F316027F3B12
:1028500042F07E500B4469498A4206DD68498A424B
:1028600040F3A7800133A0F500000021654A06EE81
:10287000100AF7EE006A02EB8102D2ED005A75EE03
:10288000867A36EE657AC6EEA74A27EE245A15EE0A
:10289000102A6FF30B0206EE902A5B4A02EA6002EE
:1028A00042F0005202F5800202EB415207EE902AFC
:1028B00006EEE77A77EEE57ADFED545A36EE676A90
:1028C00065EE057A06EE667A9FED516A47EE865A06
:1028D0009FED506A27EE247A66EEA64A05EEA76AB7
:1028E000DFED4D5A46EE275A9FED4C6A05EEA76A7A
:1028F000DFED4B5A46EE275A36EE856A67EEA77A29
:1029000026EE076A05EEA76AF0EE085A74EEA57A7D
:1029100077EE867A17EE902A6FF30B0207EE902A75
:1029200077EEE55A27EE277A66EEA76A75EEE45A47
:1029300036EE656A06EE057A9FED3A6A76EE877A9C
:1029400017EE902A6FF30B0207EE902A364A77EEC5
:10295000E66A02EB810227EE866A37EE667ADFEDE1
:10296000336A67EEA67ADFED326A47EE267A92ED99
:10297000007A77EE877A07EE103A2E4BF8EEC76AA8
:1029800003EB810336EE277AD3ED005A37EE257A32
:1029900037EE267A17EE103A6FF30B0307EE103A74
:1029A00077EE666A76EEE56A76EEC66A77EEE67AE6
:1029B00014E701215AE755D1DFED1F6A37EE677A38
:1029C00070EEA66AF4EEC76AF1EE10FA3FF727AF91
:1029D00086234BE0AFF30080E13D55555555D53F7B
:1029E00000000000F3FF7F3F0700803F70A5EC363A
:1029F00000AAB83F3BAAB83F0000804B71C41C003E
:102A0000D6B35D00688C050800F0FFDF55326C3EE0
:102A100042F1533E05A38B3EABAAAA3EB76DDB3E07
:102A20009A99193F0040763F588C0508C623F6B89E
:102A30004F38763F608C05083CAA3833534A93429E
:102A400007D9B5EEC08AF1EE10FA4CBF0120002084
:102A50008DE607D137EE677AB4EEE07AF1EE10FA40
:102A6000B6DBEEE7B3F17C5F72D9DB157E3B4FF44A
:102A70000000474A002940FA03F00844C0F3C75356
:102A8000A3F17F0342FA03F2C3F1170302EA000243
:102A9000C0F3160040F4000007EE102A40FA03F0DD
:102AA00077EEC77AB8BF404237EEA07ADFED396AD9
:102AB000DFED395AB7EE000A9FED386A17EE103A8B
:102AC0006FF30B0307EE103A77EE677A67EE266A2C
:102AD00070EEE70ADFED327A27EE277ADFED317A02
:102AE00000EEA77A76EE877A77EEE66A37EE667AB8
:102AF00067EEA76A07EE877A16EEA56ADFED2A5A17
:102B000046EE265A9FED296A15EEA66ADFED285A91
:102B100046EE265AB0EE676A05EEE66AF0EE006A07
:102B200067EE865A36EE666AC5EE866A36EEC77A74
:102B300077EE677A30EE670A10EE103A03EBC05377
:102B4000B3F5000F06DA31F0ABFC20EE088A5CE545
:102B50000020A9E700EE103AF7E7B7EE008A54E547
:102B60009FED148A51E5B0EE408A4EE5B7F1FF4F74
:102B70003FF48DAD0A460225B4F17C5F7FF4B5AD1C
:102B8000002BFFF6B2ADB1EEC08A3EE50000164361
:102B9000000080FF0072313F4CBB31330EEADD355F
:102BA0008CBEBF351872313F55B38A38610B363B46
:102BB000ABAA2A3E00000000002110B50446074BD6
:102BC0004FF4C072C0E96011C0E96211C0F8901101
:102BD000C0F894314CF074FF204610BDCDCC4C3E73
:102BE000024630B553880178082B28BF08230B48CC
:102BF000C1F383010A4C4840604302F14901C2F12C
:102C0000FF2202F57F02B7325518AB4200DC30BD1F
:102C100011F8015F68406043F6E700BFC59D1C8165
:102C2000930100012DE9F04104460D4607460026B8
:102C300042F210783B7B3BB17B68EB1A434503D9EA
:102C40003146204631F024FD0136182E07F11007D9
:102C5000F0D1D4F88C3133B3154AEB1A934222D910
:102C6000D4F88431FBB1D4F8903123B9A5F59C5345
:102C7000083BC4F8903141F2873641F2883003F5C1
:102C80001C414031EA1AB2420BD9D4F8842142B136
:102C90000344A2EBD2028B42C4F88421C4F89031E1
:102CA000F0D1BDE8F0810023C4F89031F9E700BF0E
:102CB000E093040070B50346024600F5C0766FF05D
:102CC0000040C1F51C551135147B34B154682C44B7
:102CD00024EAE474A04228BF20461032B242F3D165
:102CE000D3F88C2192B1D3F884417CB10D4C8D1A6C
:102CF000A5420CD9D3F890312BB1C1F59C510831C4
:102D00000B4423EAE373984228BF184670BDC1F50F
:102D1000922101F2E131114421EAE171884228BF98
:102D20000846F3E7E0930400D0F88831032B1DDD5B
:102D3000D0ED617AFBEECC7AF5EEC07AF1EE10FAC6
:102D40009FED0C0A14D9B1EE007A37EE877AC7EE00
:102D5000876ADFED097AA6EEA70AF7EE007AB4EEED
:102D6000E70AF1EE10FA37FE800A7047B6EE000A65
:102D7000704700BFCDCCCC3E9A99193F00487047B0
:102D800083BD05080048704780EE360030B5C0E9C5
:102D90001912C366012200230E4DC0E90433C0E9B5
:102DA0000633C0E90E33C0E91233C0E90A33C0E983
:102DB0000C33C0E91533C0E917330560436080F870
:102DC00044300364A0F87030036280F82420A0F837
:102DD000503030BDF01E050870B5B8B0014604464D
:102DE000684644F082F99DF80030013BDBB2FD2BD0
:102DF00038D8274B28AA03F14006154618685968A9
:102E0000083303C5B3422A46F7D1224B08AA03F17F
:102E10002006154618685968083303C5B3422A4688
:102E2000F7D108A920A81DF015FC214620AA10A85A
:102E300044F007F9694620A81DF00CFC20AA28A937
:102E400018A844F0FEF8202218A910A833F0C2F800
:102E5000044658B9202110A833F0F6F8202118A80C
:102E600033F0F2F80024204638B070BD002310A9DA
:102E700011F8012B1AB90133202BF9D1144610A8EF
:102E8000202133F0E1F8202118A833F0DDF8EAE73B
:102E9000268E0508678E05082DE9F04F0A7805464D
:102EA00002F00303023B012B0C46F3B06ED802F094
:102EB0003C06242E0B7959D13F2B1CD84E88082E66
:102EC00019D991F85270093E07F003029340F6B207
:102ED0001FFA83FC664510D801F153020368029281
:102EE00001F10A02CDE9007203961D6ED1F84A2065
:102EF000D1F84E30A847002035E00121533301FAC4
:102F000002F200F50671E0184CF0EDFD0028F2D158
:102F10002B68214628465B6C98470028EBD0E86F69
:102F2000214603681B6898470028E4D1E86F2146D2
:102F300003685B68984794F90231227907EE903A6A
:102F4000FAEECF7AB0EE677ABEEECF7A17EE103A8D
:102F5000511C2244217193722B6821462846DB6C58
:102F6000984740F0C06073B0BDE8F08F2C2E03F09E
:102F70003F030AD191F94A60002E80F2B782002BFC
:102F8000B9D103685B6F9847B5E76BBB104632F069
:102F900016FA002840F080802378C3F383020F2ABA
:102FA000A9D801A151F822F04331000843310008AB
:102FB000433100080131000883330008F73200086C
:102FC000F73200087332000843310008F72E00087A
:102FD0006D340008F72E0008F72E0008F72E0008C1
:102FE000F72E00083D3400080C2E08D14B88032B27
:102FF00005D90368D1F84A20D3F88430984722795C
:1030000005F506719209013204F10A004CF06BFDDE
:1030100000287FF470AF2B68214628465B6C9847E8
:1030200000283FF468AF2378C3F383030A2B04D14D
:103030002146284632F0B5FC5DE7E86F032B0268B5
:103040002146126813D19047064600287FF453AFFB
:10305000E86F214603685B6898472146284632F0AE
:1030600073FA32462146284632F044FC43E7904743
:1030700000287FF440AFE86F214603685B689847FB
:103080002146284632F060FA2B6821462846DB6C40
:10309000984740F0807066E72B68214628461B6CF5
:1030A000984700287FF427AF207832F088F900286D
:1030B0003FF472AF2046FFF793FD0646A86E05F178
:1030C000800703681B68984731460246384631F04E
:1030D00025FB20B13146284632F08BF95CE72B689E
:1030E00028469B6B984700283FF456AFA86E0368AC
:1030F0001B68984731460246384631F0E9FA4BE7FB
:103100006388032B7FF6F7AEE86F21460368D4F897
:103110004A601B68984700287FF4EDAEE86F2146AF
:1031200003685B6898472B68324621462846D3F8E7
:10313000843098472146284673B0BDE8F04F32F0FE
:1031400023BA94F84B300DF1200A8AF800306388D6
:1031500094F84A70042B7FF6CEAEE86F21460368E0
:103160001B689847064600287FF4C5AEE86F2146E5
:1031700003685B68984795F81832BB4268D12B68A2
:10318000514628465B6D9847814604F14C0B10AFC1
:103190000DF1C408B1455BDD2B683246394628463F
:1031A0009B6D984763885A46023B4146384632F049
:1031B00028FF031E5BDD2278C2F38302082A4CD16C
:1031C00098F800900793484632F06BFD00283FD0F6
:1031D0004FEA991109F03F0201FB0222079B501CA4
:1031E000834235DD02329B1ADBB2424429680392E6
:1031F000049318F800300DF1C50803F00F03CDE972
:103200000193CDF80080D1F864B03B4632462146A8
:103210002846D847D0B1207832F0D1F8B0B1002399
:10322000CDE9023301932379514600933A4628466B
:1032300004F10A0332F041FA014638B14FF4FA734F
:103240004246009328464B4632F09DFCFF232370F4
:103250002146284632F098F985E62968CDE90183B0
:103260000097CF6D334621462846B847EEE7013632
:1032700090E76388232B7FF63EAEE86F2146036814
:1032800094F84A601B68984700287FF434AEE86FD2
:10329000214603685B68984795F81832B3427FF47B
:1032A00049AF04F14B0608AA04F16B0713463068D6
:1032B0007168083603C3BE421A46F7D108AA10A99E
:1032C00005F5067032F02EF8638831AF3246394684
:1032D000213B10A832F095FE00287FF72BAF2B681A
:1032E000CDE900702146DE6E284608AB10AAB04733
:1032F000FF2323701EE794F84A3008AF3B706388C1
:10330000032B7FF6F8ADE86F214603681B689847EA
:10331000064600287FF4EFADE86F214603680DF103
:1033200040095B6898472B683946D3F87C804A4649
:1033300004232846C047074604F14B0A0DF1410813
:103340000DF1C40BB74283DD6388404652465946AF
:10335000013B32F056FE002808F121080FDD2B68F2
:103360002278CDE900B006EB4616D3F880702146EE
:10337000284609EB0603C2F38302B84768E7013623
:10338000E0E710A831F099FE10AE04F14A0304F111
:103390006A07324618685968083303C2BB421646AA
:1033A000F7D16388632B7FF6A6AD202210A905F51F
:1033B00006704CF098FB00283FF49DADE86F214665
:1033C0000368D4F86AA01B68984700287FF493AD7F
:1033D000E86F0DF1C409036821465B684E469847C3
:1033E000B4F8028010AFA8F16408B8F1200FA8BFAC
:1033F0004FF020080FCF0FC697E80F0004F1AE0B77
:1034000086E80F00424659463AA8CDF8E4A04CF0B1
:1034100031FB4A4608F1240304F16E0110A831F093
:1034200054FE00283FF467AD2B68CDE900B8214673
:103430009E6E2846534610AAB04709E703F00303DF
:10344000023B012B3FF657ADE86F214603681B682E
:10345000984700287FF44FADE86F214603685B680A
:1034600098472B68214628469B6F8CE56288022A84
:103470007FF641AD94F84A3003F00F03032B7FF43D
:103480003AAD042A7FF637AD31AE304632F004FC57
:10349000237840228DF8C43004F10A0123790DF11C
:1034A000CE0032F01FFC62888DF8C800013A92B25B
:1034B00004F14B010DF58770ADF8C6204CF0DAFA37
:1034C000E86F314603681B68984700287FF413AD06
:1034D000E86F314603685B6898472B683146284699
:1034E000D3F88430DDF80E21984704E5002B3FF433
:1034F0004DAD84E538B50B4B1C786CB901220A4DF3
:103500001A70002329461A460848013432F0CDFCCF
:10351000202C05F58275F4D10021BDE83840034820
:1035200032F09FBC6A4C0220AC2A0220E403022045
:10353000014BD3F820017047C0020220014BD3F8A1
:1035400020017047E4030220014832F08ABC00BF2A
:10355000C0020220044BD3F820219142BABF283187
:1035600053F8210000207047C0020220054BD3F819
:1035700020018142BDBF2831012043F821200020D5
:10358000704700BFC002022021B1002302481A4642
:1035900032F08BBC704700BFE40302200022FF2002
:1035A00070B50A4BD3F8206103F19C058033B24219
:1035B00000DB70BD55F8044F641A002C03DC9C5CE2
:1035C000A04228BF20460132F1E700BFC00202201E
:1035D0002DE9F0470546904699460F4699B31B4E94
:1035E000304632F062FC044668BBD6F8200118B3BE
:1035F0002146234606F17F0CA04214DC0E4496F8C7
:103600008030434518D9114832F02BFC2B68014615
:103610005B68284698474B4642463946BDE8F04726
:103620000A4832F042BC1CF8012F9A4234BF1A46B5
:10363000214613460134DFE72B6839462846BDE8AA
:10364000F0475B681847BDE8F08700BFC002022062
:10365000F0B400230C46FF204FF0FF310E4AD2F8A1
:10366000207102F19C068032BB4205DB4B1C0FD05F
:10367000F0BC094832F0F5BB56F8045F2D1B002D55
:1036800004DCD55C85423CBF194628460133EBE794
:103690000020F0BC704700BFC002022030B50A4BCA
:1036A0004A1CD3F820510DD0002210469C33AA4268
:1036B00000DB30BD53F8044F0132641A002CD8BF30
:1036C0000130F4E72846F4E7C0020220002907DBB6
:1036D000044BD3F82021914202DA53F821007047BD
:1036E00000207047C002022038B500240D4D281973
:1036F00004F5827432F0D0FAB4F5025FF7D10024F9
:10370000094B214680221846C3F820414CF0D8F9D5
:10371000064B2146C3F820411846BDE838408022B8
:103720004CF0CEB9AC2A0220E4030220C0020220F1
:103730002DE9F0430D468DB012F00F01804614467E
:103740001E469DF8509004D04FF0FF300DB0BDE8FC
:10375000F083184B142207A806934CF0B1F9B9F185
:10376000000F0CBF4FF400734FF48073124F089397
:103770001022414604AB06A809971DF0D9FC002889
:10378000E2D105ABCDE901432A46234639460498E8
:103790000096B9F1000F09D01DF008FE0446049808
:1037A00043F027FF002CCFD10598CFE71DF0AEFEE8
:1037B000F4E700BF00248000004440042DE9F041FC
:1037C00094B007460C4616460021142207A81D4651
:1037D0004CF076F94FF48853ADF818304FF48073FD
:1037E000ADF81A304FF48063DFF84C802022CDE929
:1037F0000838394604AB06A81DF09AFC28B14FF0F2
:10380000FF34204614B0BDE8F08105AB02932023BD
:1038100001930CAB2246009341463346049844F092
:10382000A2F80446049843F0E4FE002CE7D1BDF86A
:1038300030302B80E5E700BF0900800330B58DB044
:103840000D4611461A4603AB01932023044600930C
:103850000A4804AB43F0FBFF2A4630B10021204662
:103860000DB0BDE830404CF02BB9202D28BF2022F0
:10387000204604A94CF0FEF80DB030BD090000024E
:103880002DE9F043C1B00446DDE948890D461646EE
:103890000021DC2209A81F464CF012F9164909A89C
:1038A00043F086FFE8B93A46314609A843F0A1FF44
:1038B000B8B94A46414609A843F09BFF88B96B4610
:1038C000202201A909A843F0ABFF50B9202D2A46B8
:1038D000204628BF202201A94CF0CCF841B0BDE819
:1038E000F08309A843F055FF2A460021204641B045
:1038F000BDE8F0434CF0E4B80900000208B5054B00
:10390000002814BF01461946034839F067FB01201F
:103910000AF0CEF8888E0508948E05080346F0B5A7
:103920000A4D8E18B14203F1020303D1002300F8BF
:103930001230F0BD11F8014B270904F00F04EF5DC0
:103940002C5D03F8027C03F8014CEBE76DBE050823
:103950002DE9F04105460C46DFF830808F18BC4257
:1039600001D1BDE8F08114F8016B2B68320918F819
:10397000021028469B6898472B6806F00F062846D9
:103980009B6818F806109847E9E700BF6DBE050868
:103990009FED010A704700BF000000009FED010A83
:1039A000704700BF0000C07F00487047B48E050814
:1039B00008B510460249FDF73DF9002008BD00BFDB
:1039C000BE8E050830B50022702113488BB002F07E
:1039D000A3F8041E104D19DD22462846691C4CF040
:1039E00056F8013C02A802F077F960B16F2C0ADCAE
:1039F000039B0A4A019305AB0093C4F17001029B3B
:103A000028192FF0CBF904480BB030BD28460449E3
:103A1000FDF710F90724E5E76B4C0220F48E05084A
:103A2000EC8E050838B504464FF0FF324FF0FF33F7
:103A300013481AF04FFE41F03DFE4FF47A75A0FB9B
:103A4000053205FB0121D4E90202DB0B002A43EA1F
:103A500041434FEAD13108DB42F21075181A61EB8D
:103A60000202A84272F1000203DB0022C4E9023123
:103A7000E280E48802481AF0CFFE204638BD00BF3D
:103A8000740B002008B503681B689847BDE8084020
:103A90000146014833F05EBF7423050807B5064BA5
:103AA0008DF8070001220DF10701044802F0EEF93C
:103AB00003B05DF804FB00BF118F0508218F0508D6
:103AC00073B5124B124C1D7815B1207802B070BD41
:103AD000012610481E7033F017FD0028F5D032463D
:103AE0000C4801AB0DF103018DF80350019533F043
:103AF00024FD38B1019B2BB19DF80330012B08BF89
:103B00004C232370034833F00AFDDEE7DC4C02202F
:103B1000DB4C0220218F05084C28024607D055288F
:103B200007D0054B0548002A08BF184670470448CF
:103B300070470448704700BF2D8F0508EC8E0508BC
:103B4000328F05083E8F050808B504F0B1F939F049
:103B50002AF833F07AF9074802698168136843F05C
:103B6000040313600B68044A02219847012009F0FE
:103B70009FFF00BF78020508010006003E280246AC
:103B800030D016D8142830D00AD80A2830D00F28C0
:103B900031D041F684601F4B072A18BF1846704782
:103BA0001F282BD04AF2C3201A4B292A18BF1846C7
:103BB0007047B0F5FA7F24D00AD8FA2823D0B0F5A0
:103BC000C87F22D0134B1448C82A18BF1846704724
:103BD000B0F5487F1BD00F4B1048B2F57A7F18BF65
:103BE000184670474FF22440704745F26110704705
:103BF00042F6B100704743F60950704747F612206D
:103C0000704707487047074870470748704707489C
:103C1000704700BF48E80100F818030040420F0059
:103C200020A1070090D00300F0310600E0630C00F3
:103C3000036907EE101A93F87430073B052B27D859
:103C4000154A02EB8303D3ED007AF4EEC07AF1EE6D
:103C500010FA1DDC30EE670AF2EE046AC0EE267A36
:103C6000B7EE000AB8EEC77A9FED0C6AF0EE406A34
:103C7000E7EE466A67EEA67AF5EEC07AF1EE10FA44
:103C800006D4F4EEC07AF1EE10FA30FE270A70473F
:103C90009FED030A704700BF0C2105080000803B20
:103CA0000000000070B5044632F001FBD4F8803902
:103CB000D4F88429054653EA02004DD05B1B62EB21
:103CC0000102012B72F100003EDB6FF000408342E5
:103CD00072F1000200DA1846B4F8683A9BB394F91E
:103CE0005A3A803314D0D4F8602AD4F8646A521B4C
:103CF00066EB0106012A76F1000327DB6FF0004333
:103D00009A4276F1000600DA1346984228BF184618
:103D1000D4F8703AD4F8742A53EA02041CD00F4C39
:103D20001B1942F100025B1B62EB0101012B71F1D7
:103D300000020DDB6FF00042934271F1000109DADD
:103D4000984228BF184670BD0020C5E70023DCE775
:103D50000023F5E71346F3E70020F4E70097490155
:103D60002DE9F04F8BB004468846174632F049FAE9
:103D7000814638B939464046684A0BB0BDE8F04F35
:103D80002FF00CB8D4F89809002800F091800A238D
:103D90006421D4F89C295A43D4F8A03902EB50028C
:103DA0004B4303EB5003B2FBF0F2B3FBF0F094F89B
:103DB000573A04F6A81A27EAE771002B7AD194F84B
:103DC00054CA574D574B94F9556ABCF1000F08BFC0
:103DD0002B460A250590B2FBF5F005FB1022CDE934
:103DE000030209EB0602CDE9006240464E4ACDF8D7
:103DF00008902EF0D3FFC72F054640445EDDD4F86F
:103E00009C3A791B0393D4F8983A484A0293D4F821
:103E1000943A0193D4F8903A0093D4F898392EF05C
:103E2000BDFF054408EB0500791B94F8583A404A59
:103E30002EF0B4FF0544204632F044FB014640B961
:103E4000AF4208EB0500C8BF791B3A4A2EF0A6FF27
:103E50000A35504632F0AFFD8346504632F0C1FD80
:103E60005E45B8BF5E468642B246A8BF82460AF1AA
:103E7000FF36B345CABF0BF102030AF101035E46E8
:103E80006FF007028342C4BF0346861E9642B8BF46
:103E900016460C2BA8BF0C234FF0640B099304EBC0
:103EA000C604099B9E420DDD28460BB0BDE8F08F8D
:103EB00002467CE794F9566A1F4B8AE7AF42B3DCAF
:103EC0000021B2E7B4F8EC29B4F8F0C91AB35308EA
:103ED0000BFB0C33B3FBF2F30693B4F8F239BD429B
:103EE000CDE904C3B4F8EE39B8BF791BCDE902239C
:103EF00009EB0603CDE90063A8BF002108EB05002C
:103F0000B24514BF20232A230C4A2EF047FF013666
:103F100005440834C5E71346DEE700BF4B8F0508AC
:103F20001B99050876A50508538F0508798F0508A4
:103F30008E8F0508978F0508EA950508A28F05085A
:103F40002DE9F843002500264FF000084FF0000946
:103F5000484B494F03608C33436000F51863C0E958
:103F600002714662C0E90452C0E9065505628662E4
:103F7000C0F85C58C0F86058C0F8745980F8785997
:103F8000C0F87C59C3E9008943F69823044680F8B9
:103F90008859C0F88C39C0F89059C0F89459C0F8C5
:103FA0009859C0F89C59C0F8A059011D00F6A810F6
:103FB00032F0ECFC04F52763A4F8685AC3E90089E1
:103FC0003B6984F8785A5B1B18BF012384F8793A5F
:103FD0004FF40043A4F8A43A04F52D63C4F87C5AC6
:103FE000C4F8805AC4F8845AC4F8885AA4F88C5A81
:103FF00084F88E5AC4F8905AC4F8945AC4F8985A5F
:10400000C4F89C5AC4F8A05AC4F8A85AC4F8AC5AC8
:10401000A4F8B05AC4F8B45AA4F8CC5A1E6004F6F6
:10402000D4231E60A4F8D85AC4F8DC5AC4F8E05A65
:10403000C4F8E45AC4F8E85A84F8E85BA4F8EA5BE8
:10404000C4F8EC5BC4F8F05BC4F8F45B04F66410ED
:1040500041F07FFC0122294604F53D6041F0F1F872
:104060004FF40362294604F12C004BF029FD204651
:10407000BDE8F883702005087C23050808B50346D1
:10408000C068B3F8EA1B8368002908BFFF215B689A
:10409000984758B1084B98420BD841F2883300F545
:1040A000FA704000984238BF184608BD41F2883087
:1040B000FBE76FF47A70F8E70BFEFF7F30B590F8FE
:1040C000E83B044689B0CBB900F52F6500200021FC
:1040D0000A22CDE90601CDE90232CDE9004304937D
:1040E0004FF400622846064B06491AF09BFF06492A
:1040F000284641F0A5F9012384F8E83B09B030BD1A
:104100004D660308A04E0220C28F050870B50C460C
:10411000054616460021142220464BF0D1FC95F8A6
:10412000CD3A002B39D005F52D63D3ED007A05F695
:10413000D42393ED007A95F8D82A95F8D93ADFED93
:104140001C6ABCEEC77A67EEA67A17EE101AFCEE70
:10415000E77A88B2C4ED007A991F32F009F8022993
:104160008EBF0123043BDBB2082AE3718CBF10230E
:104170002023A271A08023812B696FF0080293F99C
:104180004C302673162BA8BF16239342B8BF134694
:10419000A37240F20243238270BD2B69D3ED127AE1
:1041A00093ED1E7A93F8742093F87530C7E700BF3B
:1041B0000024744990F8CD3A73B100F52D6090ED6C
:1041C000007ADFED076AF6EE007AE7EE267AFCEE7B
:1041D000E77A17EE900A7047036993ED127AF0E7D9
:1041E00000247449024670B532F08AF992F8CD3A4B
:1041F00006EE101A0546002B00F09F8002F6D4232D
:10420000D3ED007A104632F085F9936804461E78A3
:10421000711DC9B28D4203D30C2D28BF0C25E9B204
:10422000B1EE0C7AF4EE477A9FED487AF1EE10FA8F
:1042300048BFF0EE477AFCEEE77A17EE903A98B274
:1042400031F096FFFFF79AFC06EE900A01239FEDEE
:10425000405AF8EEE66A8B4007EE903A86EE857A91
:10426000082C28BF0824F8EEE77A27EE057AE4B296
:10427000052C38BF0524C7EE874AF7EE002A0EB991
:1042800006295ED90829DFED335A5DD8202307EED1
:10429000903AB8EEE77AF1EE017A37EE277ADFED61
:1042A0002E7AF4EEE74AB7EE003AF1EE10FADFEDBF
:1042B000297A33FE273A07EE901AF1EE003AB0EE73
:1042C000002AF8EEE77AB2EE004A63EEE76AB8EE4B
:1042D000C66AE3EE427AE6EE046A67EEA37AB3EECC
:1042E0000C6AF4EE627A76EE866AB3EE006AF1EE5C
:1042F00010FA76EE866AA5EE827AE5EEC46A48BFC9
:10430000F0EE637A27EE247A86EEA76AFAFE466A12
:1043100007EE904AF8EEE77A67EEA67ADFED0D6ACF
:10432000C7FEA67A77EE847AA4EEA77A67EE057ABE
:10433000FCEEE77A17EE900A70BD1369D3ED1E7A92
:1043400060E7F0EE625AA1E71023A0E70000FA420E
:1043500000007A44000000005A2F863C2DE9F04FFF
:1043600004468BB032F06CF994F8783A04F1180AEC
:10437000002B00F08F800022204605A9FFF7C6FE23
:104380009DF81A60BDF81C50062E8CBF4FF0080B2C
:104390004FF00C0BBBF1080F0CBF112319239D42EA
:1043A00040F38780BDF81800FFF7E8FB01210246C3
:1043B0004248B1400023A1FB0001FCF717FCA368B1
:1043C0000646DB69002B5CD0E068984781460520F3
:1043D000A5EB4B0808F1FF3806FB08F86422002320
:1043E000A8FB0001FCF702FC09F5FA63A8EB000743
:1043F000BB42D4F87C2A47D20E357543A7EB090798
:10440000BD420BFB066608D96B1CA3EB08030344F3
:104410004B445B089E4238BF1E46964203D1D4F8F7
:10442000803ABB4203D0C4F87C6AC4F8807A244D39
:104430004FF4004B284600210023E6FB0B011F4AE6
:10444000FCF7D4FB81460E4628460021D4F80C80A8
:104450000023E7FB0B01194AFCF7C8FBD8F808302A
:104460005D6ABDB1174B4A468DE80B000394334695
:104470004046A84770B913F0F7FB0121C4F894092E
:1044800011E040F2DC59A2E7013203D04FF0FF33D4
:10449000C4F87C3AE068224683680A495B69984719
:1044A0000028E8DA002150460BB0BDE8F04F31F0AB
:1044B00029BFD4F87C3A0133E7E700BF40420F0040
:1044C0003F420F00CD63030838B5836804469B6AFA
:1044D0000D46BBB100F6EC3031F0C6FE034604F6E3
:1044E000F43031F0C1FE1844D4F8843A984202D135
:1044F000D4F8883A3BB9C4F8840A012D38BF0125A5
:10450000C4F8885A38BD084ACB1A9342FAD994F8AD
:104510008E3A072BF6D9A3689B6A0BB1E0689847DF
:104520002046FFF71BFFE8E7BF27090070B5836847
:104530000446DB6A0E46BBB390F8B03A33B1D0F80C
:10454000A83AD0F8AC2ACB1A93422DD3D4F8B43A77
:1045500023B14EF65F22F31A934225D9606918B34E
:1045600003685B689847B4EE400AF1EE10FA1BD678
:104570002FF0F8FF0122184B05B2C4F8AC3AB4F999
:10458000A43A84F8B02A13F5004FC4F8A86A02D1FF
:10459000A4F8A45A08E0EB1A002BB8BF5B42042B26
:1045A00003DC002384F8B13A70BD94F8B13A33B912
:1045B00043F6982384F8B12AC4F8AC3AF4E7002310
:1045C00084F8B13AA368DB6A0BB1E06898472046EB
:1045D000FFF7C4FEDCE700BF80EE36002DE9FF47A1
:1045E000C0F87C19044631F062FE002304F5186A15
:1045F00084F89339D4F88029DAF804300E4652EA68
:104600000301074603D0974276EB03030FDB94F8D0
:104610008839012B0ED9002384F88839D4F88C39D5
:10462000DB1946F10006C4F88039CAF8046004B00A
:10463000BDE8F087013384F8883941F28833FB18EC
:1046400046F10002C4F8803904F11800CAF80420C9
:1046500031F00AFE0028EAD004F11C0031F004FE1B
:104660000028E4D1204631F0EDFD804628B9D4F889
:104670009C3A0133C4F89C3AD9E7204632F0CFF88F
:1046800005460028D3D1204631F023FF814613F0A0
:10469000EBFAD4F89439B849C01AA0FB01010A23F7
:1046A000B9FBF3F39BB2012B38BF012303F2A73907
:1046B000B9FBF3F9B14B1A682B46FCF797FAB0EB4C
:1046C000091FB4D34B4608226946204632F073F8DE
:1046D000031E05DAD4F8983A0133C4F8983AA6E7ED
:1046E000D4F8900A072B1844C4F8900A05DCD4F8D3
:1046F000943A0133C4F8943AECE76A462946D4F870
:104700008C39DB1946F10006C4F88039CAF8046018
:1047100084F8885932F9027F0B46164636F902CCE6
:10472000674503DA013B26F802C9F7D204AE01312E
:1047300006EB4303072923F80E7CEBD1BDF90EE00D
:10474000BDF900C0D4F89C69BDF90820BDF9063058
:10475000E645AEEB0C073744134408BFD4F8A06914
:10476000D4F8982908BF013602F1010203EBD37394
:1047700008BFC4F8A069B2F5005F4FEA6301C4F84E
:10478000982943F34F03C4F89C791CD35208C4F80A
:104790009829D4F8A0297F085208C4F8A029D4F891
:1047A000942A40085208C4F8942AD4F8982AC4F8E5
:1047B0009C795208C4F8982AD4F89C2AC4F8900A24
:1047C0005208C4F89C2AD4F87469A4F890393EB110
:1047D00006F107084145CCBF4FF000084FF0010833
:1047E000012284F89329B4F98C2A84F892899A4298
:1047F00031D194F88E3AFF2B02D0013384F88E3AEF
:10480000204631F066FE0A22B0FBF2F292B23E2A56
:1048100066D040F2752398422AD8142A63D0D12852
:104820001DD80A2A62D00F2A63D0072A14BF6FF05E
:104830007A026FF08602002E70D18A42B8BF0A4613
:104840006FF0310384F878699A42D4BFC4F87429B0
:10485000C4F87439EBE6A4F88C3A0023CEE71F2A9B
:104860004AD0292A14BF6FF07A026FF07F02E2E784
:10487000B2F5CB7F43D040F6E573984216D8FA2ABA
:1048800040D040F6CD13984208D8C82A3DD0CB2A54
:1048900014BF6FF07A026FF07802CCE7B2F5C87FF0
:1048A00014BF6FF07A026FF07502C4E7B2F54B7F68
:1048B0002ED041F6C17398420AD8B2F5FA7F2AD0B9
:1048C000B2F5487F14BF6FF07A026FF07202B2E760
:1048D000B2F57A7F14BF6FF07A026FF07102AAE727
:1048E0006FF07D02A7E76FF08202A4E76FF0850208
:1048F000A1E76FF083029EE76FF080029BE76FF005
:10490000750298E76FF0770295E76FF0780292E70B
:104910006FF072028FE76FF074028CE794F87839C9
:10492000072B84BF03F00F05B5FA85F503F10100ED
:1049300088BF6D09072B84F8780905D925B906F1D8
:104940000D0399423FF773AE891B0029CCBF0423A6
:104950006FF00303C91848BF073106EBE106964222
:10496000B8BF16466FF031039E42D4BFC4F87469D5
:10497000C4F874395BE600BF40420F00B009002064
:1049800038B504461C3031F06FFC98BB204631F03E
:1049900046FF78BB31F08BFC054604F6EC3031F075
:1049A00063FC034604F6F43031F05EFCD4F8842A4C
:1049B0000344934202D1D4F8883A63B90023C4F87F
:1049C000A03A29462046FFF77FFD29462046BDE84C
:1049D0003840FFF7ABBD084AEB1A9342F1D9D4F83F
:1049E000A03A13B1EB1A9342EBD9012D2B4638BFF5
:1049F0000123E4E738BD00BFBFD401002DE9F8432F
:104A0000B0F8683A04463BB190F8CD8AB8F1000F8F
:104A100004D0002380F89339BDE8F88331F047FCD7
:104A2000D4F8702AD4F8743A0E4652EA030104F519
:104A30002767054662D1C4F8705A7E6094F95A3AE5
:104A4000803315D0D4F8602AD4F8643A954276EBD6
:104A500003030DDBA36804F6A815596B11B1E068D8
:104A600088470146284632F07AF8284631F008FD9A
:104A700094F89339002BCFD0002384F8933994F91C
:104A80005A3A8033C8D1204631F01CFD0028C3D0EB
:104A900094F89239002BBFD0204631F0C0FE002898
:104AA000BAD104F6A819484632F00DF8A3680746B3
:104AB0001B6B83B30146E0689847064631F0F7FB6D
:104AC000022E80460D4629D1321E18BF01223946DA
:104AD000484632F02CF8022E2BD1204631F0F2FC61
:104AE00010EB080045F10005643045F1000584F83D
:104AF0005A7AC4F8600AC4F8645A8DE70F49AA1AB2
:104B000066EB0303914278EB030397DA04F6A810EF
:104B100031F0C4FF8FE76FF05706CFE7002104F1B3
:104B2000180031F0EFFB2046FFF718FC002ECBDA1F
:104B300072E7484631F0A4FC6EE700BF00974901D8
:104B4000F0B50C4B85B01B7893B9D1E902240F7DE9
:104B5000094B0A4E0D69002F18BF3346CDE90024DA
:104B6000CDE90253D1E900230146054838F036FA71
:104B700005B0F0BDDE4C0220D48F0508CF8F0508AC
:104B8000D98F050870B50D461646042431462846CF
:104B900039F0A9FA48B14FF4A47000211AF032FD9F
:104BA000013CF3D10148FEF7A9FE70BD1C90050839
:104BB0002DE9F04FDFF89C811D4698F8003004463F
:104BC0000E46174691B033B911F034F811F03EF8A3
:104BD000012388F8003040F06DFD4FF47A794FF0F2
:104BE000000BA0FB090309FB01312022C30B43EAA0
:104BF0004143DB19DA465F464FF0FF384FEAD131C7
:104C000006930DEB020041F10003002107934AF0E7
:104C100057FFCDE902BBCDF804B040F04BFD4FF497
:104C20007A73A0FB030C09FB01C1069B4FEAD03C41
:104C30004CEA414C9C45079B4FEAD13199411EDB20
:104C4000BBF10F0F40F3848001981F28D4BF0120CF
:104C50000020BAF1040FD8BF00206DB1BBF1000FE6
:104C600008BF4FF00008019BC5E900BAAB60029B8A
:104C7000C5F80C802B61287511B0BDE8F08F12F0DB
:104C8000F3FF04900AF0D6F9059012F0EDFF049BB3
:104C9000C01A61EB0101102871F10001F5D30AF08F
:104CA000C9F9C6F3080C059B14F80C10C01A414052
:104CB00004F80C10711CC1F3080114F801C08CEA4F
:104CC000102C04F801C006F1020CCCF3080C14F807
:104CD0000CE0F11C8EEA104E04F80CE0C1F3080160
:104CE00014F801C004368CEA106C04F801C0C0F35B
:104CF0000D00BBF1000F23D0039B984220D1019BF4
:104D00000137BB42B8BF3B460193BAF1070F0BDC3A
:104D100000210DF1200C8A4514D110AB03EB8A0160
:104D200041F8200C0AF1010A029B804528BF804609
:104D3000834238BF03460BF1010B029303906CE7EB
:104D40000127E2E75CF8043B9842EDD00131E2E74D
:104D5000002082E7DD4C02202DE9F04FAC4EADF58E
:104D6000457D04460D46904600214FF4007244A84C
:104D70001F464AF0A5FE33783BB9A64838F02EF915
:104D8000337813B9A44838F029F9402144A839F000
:104D9000AAF9337881463BB944A832F01BF849465A
:104DA00002469E4838F01AF9102200210AA84AF05B
:104DB00087FE10210AA83CF04EF9002301460DF2AF
:104DC0004F120DF1280C8B4202DA102B40F0B0800C
:104DD000337813B9924838F001F9B8F1000F16D0C2
:104DE000AFB1202F3946424628BF20210DF25F1374
:104DF000571812F8010B13F801CFBA4280EA0C00E1
:104E00001870F6D1337813B9864838F0E7F81822CD
:104E1000002116A84AF054FE7021C82216AB44A8FF
:104E2000FFF7C6FE074616A97F48FFF789FEB7B908
:104E3000337813B97D4838F0D1F870214FF4C87237
:104E400016AB44A8FFF7B4FE074616A97848FFF74B
:104E500077FE27B9337813B9764838F0BFF8402188
:104E6000A0A839F040F9337807463BB9A0A831F043
:104E7000B1FF39460246704838F0B0F818220021D8
:104E80001CA84AF01DFE1CAB32224FF4D87144A876
:104E9000FFF78EFE69481CA9FFF752FE33781BB955
:104EA0002946674838F09AF830AF3A46654B03F127
:104EB000180C164618685968083303C6634532460D
:104EC000F7D1186899889B7931223060B180B3712D
:104ED000002107F11F004AF0F3FD002307931CF0A7
:104EE000D1FB20230DF11C0A009380464FF4007281
:104EF0005548CDF804A028AB44A942F0A8FC0646CA
:104F000020B9DAF80090B9F1200F1AD0202128A892
:104F100031F09AF8CDF80480DAF80030502100938F
:104F200038463346494A2DF039FF30A8FEF7E6FCF3
:104F300012F801EF1CF8010B013380EA0E0010702B
:104F400041E70146142223A84AF0BAFD4FF410535A
:104F5000ADF888304FF480733D4A0DF1200ACDE959
:104F60002432ADF88A3028A953464A4622A8CAF806
:104F700000601CF0DDF80646494628A831F064F8C8
:104F800046B1334650213846324ACDF800802DF0E4
:104F900005FFCAE7102231460EA84AF091FD3746B8
:104FA0000DF1240BBD42DAF800001ED90023CBF826
:104FB000003010230DF1480901930EAA2449CDF8C1
:104FC00008B0CDF800901CF0F1F9DBF800200346A2
:104FD00008B9102A44D000925021CDE901781E4A28
:104FE00030A82DF0DBFE4FF0FF36089842F001FBB1
:104FF00010210EA831F028F8002E96D10123194671
:105000002544AC4246D109B9002B4FD013488DE757
:10501000DE4C02203D90050861900508A990050826
:10502000D8900508199105083B9105084D91050890
:105030007A9105088C910508CA910508F99105082F
:105040000B920508FC92050809000002449205082D
:1050500000444004729205089D920508D19205080B
:10506000EA1B102A28BF1022E019494605924AF08F
:1050700001FD059A17444A4612F8013D0133DBB29F
:10508000137013B90EAB9A42F6D11021484630F096
:10509000DBFF87E714F8012B32B1FF2A14BF00238E
:1050A00003F001030021ACE71346AAE744A84FF43C
:1050B000007130F0C9FF10210AA830F0C5FF0DF5CE
:1050C000457DBDE8F08F00BF002330B5044689B0B0
:1050D0001A4620216846FFF73FFE6946204630F019
:1050E0000AF865252378013BDBB2FD2B05D820218A
:1050F000684630F0A9FF09B030BD013D02D1074834
:10510000FEF7FCFB002368461A462021FFF724FE29
:10511000694620462FF0EFFFE4E700BF1B93050828
:1051200011B1024A2DF03ABE704700BF4193050805
:10513000014A2DF033BE00BF5293050813B5144643
:1051400083686A461B69984790B9DDED017ADFED07
:10515000096AB8EEE77AC7EE267A9DED007AB8EED6
:10516000C77A77EE877A0120C4ED007A02B010BDCD
:105170000020FBE70024744938B50D460446B8B159
:105180003FF03FFE10B920463FF032FE20463FF090
:1051900038FE68B1074B1A780F2A09D8511C1970CC
:1051A000054B43F8324003EBC20300221D715A71D4
:1051B00038BD00BFDF4C022008050220014B1878E3
:1051C000704700BFDF4C0220064B1B78984207D285
:1051D000054B03EBC0031879031F58425841704731
:1051E00000207047DF4C0220080502202DE9F34122
:1051F0000C4606462422002120464AF061FC674BFB
:105200001B789E4280F0C780654D4FEAC60805EBCB
:10521000C6031A79062A11D100225B7955F83600A7
:105220000192009383681F68002F00F0B1806B46E5
:1052300014224E21B847002840F0AA8055F83600C5
:1052400083684E21DB6898470746002840F0A0801D
:1052500005EB08031B79042B5BD006D9053B012B1A
:1052600070D9384602B0BDE8F0810D2155F83600FE
:10527000221DFFF763FF18B1238843F00103238049
:1052800005EB08031B79012B31D90E2155F83600A7
:1052900004F10C02FFF752FF0028E2D0D4ED037AAC
:1052A000B2EE047A67EE877A2688A84446F00403B3
:1052B000238098F80430C4ED037A03F0FD03012B3A
:1052C000CFD19FED380ADFED380A87EE800AFDF76F
:1052D00087F9F7EE007A9FED357A77EEC07A67EEC0
:1052E000877A46F00C06C4ED047A2680B9E71021CF
:1052F00055F8360004F10802FFF720FF18B12388A3
:1053000043F00203238005EB08031B79002BA8D090
:10531000BBE7122155F8360004F11402FFF70EFF27
:1053200018B1238843F0100323800D2155F836006F
:10533000221DFFF703FF002893D0238843F00103C9
:1053400023808EE72B2155F8360004F11802FFF771
:10535000F5FE18B1238843F0200323802D2155F852
:10536000360004F11C02FFF7E9FE18B1238843F070
:10537000400323802E2155F8360004F12002FFF768
:10538000DDFE00283FF46DAF238843F08003D7E7AC
:105390006FF0040765E76FF0150762E7DF4C022046
:1053A0000805022000507D4401DE423E002A2D47C0
:1053B000024B1878003818BF01207047DF4C0220DC
:1053C00010B50C4631F023FD18B1002C014818BF70
:1053D000002010BD6893050810B50C4631F017FD8C
:1053E00040B144B931F015FD0146044B0448002991
:1053F00008BF184610BD0020FCE700BFC0AA050882
:10540000EAA6050870B50E46154631F000FD0446C3
:1054100068B130460D49FBF703FC50B928460C49EA
:10542000FBF7FEFB003818BF012031F0F5FC2046E9
:1054300070BD30460749FBF7F3FB28B928464AF010
:105440004AFB31F0F1FCF2E70024F0E7689305082D
:10545000C0AA05086C93050800200021044B054AEA
:10546000C3E90201C3E90401C3E906011A607047F8
:10547000B80D00205821050870B4CE7D46B1CD6826
:10548000541B054DAC4203D81BB970BC31F06FBE44
:10549000002370BC18467047809706002DE9F84F2E
:1054A000032B0646894690461F460A9D2FD831F0A9
:1054B0004AFE0446A0B38668464528D2C1689620B5
:1054C000691AA8EB0606761A4FF000033C4AA1FBC6
:1054D000000169EB0909FBF739FB10F12D020B46BE
:1054E00041F10001B24271EB09010ADB6FF02C02BD
:1054F0004FF0FF31121A61EB0303964279EB03037D
:1055000007DA01232561A382C4E90285A775BDE8F6
:10551000F88F4FF6FF72A38A9342F5D00133F2E77A
:105520001821034606F1170001FB03F210F802C030
:10553000BCF1000F0ED1B418D9F800302360D9F8AF
:105540000430C4E90285636001232561A382A77545
:10555000E375DCE70133102BE6D131464FF0000A4A
:105560004FF0180B2A46304631F001FECB6818B1D7
:105570001448EA1A824217D98A7DBA4214D9ECB18A
:10558000A07D82421AD803D1888AA28A904215D37C
:105590000BFB0A6260695269424032F07F4203D1DC
:1055A000E268934238BF0C460AF1010ABAF1100FC3
:1055B00001F11801D6D1002CBED1A8E70C46F3E7C3
:1055C00040420F0080510100034690F8900138B12D
:1055D000D3F88C310348C91A81428CBF00200120C6
:1055E000704700BF7F3A09002DE9F3478A46164607
:1055F0000021182204461D464AF062FADAF880714A
:105600003246BE422CBF002301235146237404F1CD
:10561000180000932B4631F0B7FD237E1BB940F2F2
:105620000123238014E0BE422ED2A37E022B02D897
:1056300040F20133F5E7D4E90832B3F1960642F1BE
:10564000FF32B6F5167F72F1000305DA01236370AD
:10565000204602B0BDE8F08729465046FFF7B4FF68
:1056600008B10523F3E79AF8A03143B145F25F4151
:10567000DAF89C31EB1A8B4201D80623E7E70223C4
:10568000C4E902622370E3E7637E052BD0D9A27ED2
:10569000B3EB420F02DB40F20143C2E7D4E90887D3
:1056A000002F4646B94602DA764267EB4709B6F55F
:1056B000167F79F10003C9DB29465046FFF784FFC6
:1056C0000028CED19AF8A03133B145F25F42DAF822
:1056D0009C31EB1A9342D0D99AF89831ABB14FF480
:1056E0009670DAF89431154AED1AA5FB00010023F3
:1056F000FBF72CFA10F5167041F10001B04271EB86
:10570000090102DA40F201738BE7022318F5616F99
:10571000424640F6116123703B4677F1FF37BCBF2C
:105720004FF0FF33064A8A4273F10001A4BF4FF4E1
:1057300061620023C4E902238AE700BF40420F00F0
:10574000F0F1FFFF0138C0B206289ABF024B53F8B0
:1057500020000248704700BF7C21050879930508A6
:105760002DE9F04FB3B00546884616469DF8F4A0E3
:105770000C93002A00F0B78101463C9B0C9A18A8B4
:10578000FFF732FFDDE920799DF860209DF8703049
:10579000022A9DF878B00A9340F03181DDE91A10B1
:1057A00095F8842122B1002880F29F81B54A04E057
:1057B000B54B8B428241B54A07DB4FF0FF3CB44BFF
:1057C000994270EB0C0C00DB0B46B248AF490A9CC7
:1057D000002C18BF014624A8CDE900123821AE4A9A
:1057E0002DF0DCFABAF1000F00F02E81AB4BA74A86
:1057F0009DF879109DF87A009DF87BC0BBF1000FF1
:1058000000F025814FF0000E9F4CBC427EEB090E4C
:1058100007DB4FF0FF3E9E4CA74279EB0E0EA8BF70
:105820003C46229F0DF1900ECDE90110CDE903C455
:10583000009231464046CDE9057E994A2DF0AEFAF8
:10584000041EC0F24B81B44280F04881D5F8AC31DF
:10585000FBB1D5E96E1C00208B4AD5F8B0718A42A5
:1058600070EB0C0007DB4FF0FF30894A91427CEB74
:105870000000A8BF0A46CDE90072311B08EB040006
:10588000884A2DF08BFA241800F12881B44280F068
:105890002581D5F8B4315BB1311B08EB0400824A95
:1058A0002DF07CFA241800F11981B44280F01681A1
:1058B00028463C99FFF788FE98B13C99284631F07C
:1058C000E9FD4FF46163311BB0FBF3F3774A08EB5A
:1058D00004002DF063FA241800F10081B44280F036
:1058E000FD80D5F8A831311B009308EB0400D5F8F2
:1058F000A4316F4A2DF052FA241800F1EF80B4421F
:1059000080F0EC8005F5C0730B934FF0000A2B4636
:10591000DA7D0AB10AF1010A0B9A18339342F7D1E2
:105920004FF0000BD946CA4540F3A7802F468BF0B5
:1059300001031193FB7D002B00F093800A9B3946F5
:1059400028463C9AFFF798FD119B834240F08980DE
:1059500008EB0403B98A0993331B0D933B78632941
:1059600028BF63210E937B783C9A0F93FB681091BC
:10597000D31A0022B96897F816C05B180C9942EB4D
:10598000020E5B1A40496EF1000E994272EB0E0254
:1059900060DB3F4A93424FF0FF327EEB02025BDB5B
:1059A0003A49444A002808BF0A46CDE90332109B11
:1059B000414ACDE901C30F9B311B009308EB040062
:1059C0000E9B2DF0EBF9002802DB2044B04245D3BA
:1059D0000023099ACA4513704FDDAAEB0903182169
:1059E000364A12A82DF0DAF90D9B0546834244D9B8
:1059F000421C12A909984AF03DF82C443DE0BDF83C
:105A00006030B3F5807F15D1B9F1000F3B464A46AF
:105A100002DA7B4269EB490240F22D118B4272F1AE
:105A20000002B4BF264B274B274A382124A82DF06B
:105A3000B5F9D7E69DF86100FFF784FE03460AB981
:105A4000224AF2E7224AF0E7224B234AD0E65C469C
:105A50005F46E7E60C4BA3E70D4BA1E7044609F1CF
:105A600001090B9B18379F427FF464AF0BF10103D0
:105A7000022B4FF0010B7FF456AF204633B0BDE848
:105A8000F08F00BF7B9305080094357783BD050830
:105A9000006CCA8894930508BA93050876A5050892
:105AA000DE9305081394050833940508419405080E
:105AB0004B940508B79305085F9405087B94050887
:105AC000A1930508A4930508A2A50508C793050896
:105AD000D19305081B990508AC9305080023741E93
