:1000000060EC002051AD0000F1E601003DAD0000C4
:100010003DAD00003DAD00003DAD00003DAD000038
:1000200000000000000000000000000089AD00009A
:100030003DAD0000000000005DAF00003DAD0000E0
:10004000E1AF0000E1AF0000E1AF0000E1AF000070
:10005000E1AF0000E1AF0000E1AF0000E1AF000060
:10006000E1AF0000E1AF0000E1AF0000E1AF000050
:10007000E1AF0000E1AF0000E1AF0000E1AF000040
:1004800081F0004102E000BF83F0004330B54FEA45
:1004900041044FEA430594EA050F08BF90EA020FB2
:1004A0001FBF54EA000C55EA020C7FEA645C7FEA45
:1004B000655C00F0E2804FEA5454D4EB5555B8BF68
:1004C0006D420CDD2C4480EA020281EA030382EAD9
:1004D000000083EA010180EA020281EA0303362D6B
:1004E00088BF30BD11F0004F4FEA01314FF4801C3E
:1004F0004CEA113102D0404261EB410113F0004F50
:100500004FEA03334CEA133302D0524263EB430306
:1005100094EA050F00F0A780A4F10104D5F1200EA4
:100520000DDB02FA0EFC22FA05F2801841F10001FF
:1005300003FA0EF2801843FA05F359410EE0A5F1D3
:1005400020050EF1200E012A03FA0EFC28BF4CF004
:10055000020C43FA05F3C01851EBE37101F00045BA
:1005600007D54FF0000EDCF1000C7EEB00006EEBC7
:100570000101B1F5801F1BD3B1F5001F0CD3490851
:100580005FEA30004FEA3C0C04F101044FEA4452A8
:1005900012F5800F80F09A80BCF1004F08BF5FEA2F
:1005A000500C50F1000041EB045141EA050130BD0F
:1005B0005FEA4C0C404141EB0101013C28BFB1F521
:1005C000801FE9D291F0000F04BF01460020B1FA6C
:1005D00081F308BF2033A3F10B03B3F120020CDA3F
:1005E0000C3208DD02F1140CC2F10C0201FA0CF01D
:1005F00021FA02F10CE002F11402D8BFC2F1200C82
:1006000001FA02F120FA0CFCDCBF41EA0C01904037
:10061000E41AA2BF01EB0451294330BD6FEA040480
:100620001F3C1CDA0C340EDC04F11404C4F120026B
:1006300020FA04F001FA02F340EA030021FA04F37D
:1006400045EA030130BDC4F10C04C4F1200220FAD4
:1006500002F001FA04F340EA0300294630BD21FA12
:1006600004F0294630BD94F0000F83F4801306BFD8
:1006700081F480110134013D4EE77FEA645C18BFCC
:100680007FEA655C29D094EA050F08BF90EA020F63
:1006900005D054EA000C04BF1946104630BD91EA5B
:1006A000030F1EBF0021002030BD5FEA545C05D15E
:1006B0004000494128BF41F0004130BD14F580049D
:1006C0003CBF01F5801130BD01F0004545F0FE4111
:1006D00041F470014FF0000030BD7FEA645C1ABF46
:1006E000194610467FEA655C1CBF0B46024650EA7D
:1006F000013406BF52EA033591EA030F41F40021A9
:1007000030BD00BF90F0000F04BF0021704730B52E
:100710004FF4806404F132044FF000054FF0000103
:1007200050E700BF90F0000F04BF0021704730B5C4
:100730004FF4806404F1320410F0004548BF404299
:100740004FF000013EE700BF42004FEAE2014FEAEE
:1007500031014FEA02701FBF12F07F4393F07F4FC9
:1007600081F06051704732F07F4208BF704793F0CC
:100770007F4F04BF41F40021704730B54FF46074DF
:1007800001F0004521F000411CE700BF50EA0102E2
:1007900008BF704730B54FF000050AE050EA01028B
:1007A00008BF704730B511F0004502D5404261EBFB
:1007B00041014FF4806404F132045FEA915C3FF43C
:1007C000D8AE4FF003025FEADC0C18BF03325FEAD9
:1007D000DC0C18BF033202EBDC02C2F1200300FA8A
:1007E00003FC20FA02F001FA03FE40EA0E0021FAAF
:1007F00002F11444BDE600BF70B54FF0FF0C4CF49D
:10080000E06C1CEA11541DBF1CEA135594EA0C0F4E
:1008100095EA0C0F00F0DEF82C4481EA030621EA89
:100820004C5123EA4C5350EA013518BF52EA0335C4
:1008300041F4801143F4801338D0A0FB02CE4FF076
:100840000005E1FB02E506F00042E0FB03E54FF0A6
:100850000006E1FB03569CF0000F18BF4EF0010E9E
:10086000A4F1FF04B6F5007F64F5407404D25FEA9A
:100870004E0E6D4146EB060642EAC62141EA55514D
:100880004FEAC52040EA5E504FEACE2EB4F1FD0C8F
:1008900088BFBCF5E06F1ED8BEF1004F08BF5FEA0D
:1008A000500E50F1000041EB045170BD06F00046BF
:1008B00046EA010140EA020081EA0301B4EB5C046C
:1008C000C2BFD4EB0C0541EA045170BD41F4801164
:1008D0004FF0000E013C00F3AB8014F1360FDEBF89
:1008E000002001F0004170BDC4F10004203C35DA65
:1008F0000C341BDC04F11404C4F1200500FA05F3E8
:1009000020FA04F001FA05F240EA020001F0004288
:1009100021F0004110EBD37021FA04F642EB0601FE
:100920005EEA430E08BF20EAD37070BDC4F10C0428
:10093000C4F1200500FA04F320FA05F001FA04F2EC
:1009400040EA020001F0004110EBD37041F10001D8
:100950005EEA430E08BF20EAD37070BDC4F12005E3
:1009600000FA05F24EEA020E20FA04F301FA05F24B
:1009700043EA020321FA04F001F0004121FA04F2F3
:1009800020EA020000EBD3705EEA430E08BF20EAC3
:10099000D37070BD94F0000F0FD101F000464000FD
:1009A00041EB010111F4801F08BF013CF7D041EA7F
:1009B000060195F0000F18BF704703F00046520083
:1009C00043EB030313F4801F08BF013DF7D043EA54
:1009D0000603704794EA0C0F0CEA135518BF95EA0A
:1009E0000C0F0CD050EA410618BF52EA4306D1D191
:1009F00081EA030101F000414FF0000070BD50EAB0
:100A0000410606BF1046194652EA430619D094EA39
:100A10000C0F02D150EA013613D195EA0C0F05D123
:100A200052EA03361CBF104619460AD181EA030177
:100A300001F0004141F0FE4141F470014FF000002F
:100A400070BD41F0FE4141F4780170BD70B54FF0CA
:100A5000FF0C4CF4E06C1CEA11541DBF1CEA13554A
:100A600094EA0C0F95EA0C0F00F0A7F8A4EB05042C
:100A700081EA030E52EA03354FEA013100F0888023
:100A80004FEA03334FF0805545EA131343EA1263EC
:100A90004FEA022245EA111545EA10654FEA0026A1
:100AA0000EF000419D4208BF964244F1FD0404F55A
:100AB000407402D25B084FEA3202B61A65EB0305B6
:100AC0005B084FEA32024FF480104FF4002CB6EB73
:100AD000020E75EB030E22BFB61A754640EA0C00F3
:100AE0005B084FEA3202B6EB020E75EB030E22BF33
:100AF000B61A754640EA5C005B084FEA3202B6EB74
:100B0000020E75EB030E22BFB61A754640EA9C0032
:100B10005B084FEA3202B6EB020E75EB030E22BF02
:100B2000B61A754640EADC0055EA060E18D04FEAC0
:100B3000051545EA16754FEA06164FEAC30343EA60
:100B400052734FEAC2025FEA1C1CC0D111F4801F2D
:100B50000BD141EA00014FF000004FF0004CB6E726
:100B600011F4801F04BF01430020B4F1FD0C88BFC5
:100B7000BCF5E06F3FF6AFAEB5EB030C04BFB6EBD0
:100B8000020C5FEA500C50F1000041EB045170BDC3
:100B90000EF0004E4EEA113114EB5C04C2BFD4EBF0
:100BA0000C0541EA045170BD41F480114FF0000E74
:100BB000013C90E645EA060E8DE60CEA135594EAF0
:100BC0000C0F08BF95EA0C0F3FF43BAF94EA0C0FF3
:100BD0000AD150EA01347FF434AF95EA0C0F7FF468
:100BE00025AF104619462CE795EA0C0F06D152EABC
:100BF00003353FF4FDAE1046194622E750EA4106A0
:100C000018BF52EA43067FF4C5AE50EA41047FF4B0
:100C10000DAF52EA43057FF4EBAE12E74FF0FF3C15
:100C200006E000BF4FF0010C02E000BF4FF0010CE6
:100C30004DF804CD4FEA410C7FEA6C5C4FEA430C5F
:100C400018BF7FEA6C5C1BD001B050EA410C0CBFAE
:100C500052EA430C91EA030F02BF90EA020F002010
:100C6000704710F1000F91EA030F58BF994208BF77
:100C700090422CBFD8176FEAE37040F00100704734
:100C80004FEA410C7FEA6C5C02D150EA013C07D18B
:100C90004FEA430C7FEA6C5CD6D152EA033CD3D0D6
:100CA0005DF8040B704700BF8446104662468C46D0
:100CB0001946634600E000BF01B5FFF7B7FF002803
:100CC00048BF10F1000F01BD4DF808EDFFF7F4FF2C
:100CD0000CBF012000205DF808FB00BF4DF808EDB7
:100CE000FFF7EAFF34BF012000205DF808FB00BFDA
:100CF0004DF808EDFFF7E0FF94BF012000205DF8FC
:100D000008FB00BF4DF808EDFFF7CEFF94BF0120B0
:100D100000205DF808FB00BF4DF808EDFFF7C4FFA9
:100D200034BF012000205DF808FB00BF4FEA4102FC
:100D300012F5001215D211D56FF47873B3EB62522D
:100D400012D94FEAC12343F0004343EA505311F054
:100D5000004F23FA02F018BF404270474FF00000E6
:100D6000704750EA013005D111F0004008BF6FF024
:100D7000004070474FF00000704700BF4FEA41024B
:100D8000B2F1E04324BFB3F5001CDCF1FE5C0DD9E9
:100D900001F0004C4FEAC0024CEA5070B2F1004F33
:100DA00040EB830008BF20F00100704711F0804F36
:100DB00021D113F13872BCBF01F00040704741F4FB
:100DC00080114FEA5252C2F11802C2F1200C10FAFF
:100DD0000CF320FA02F018BF40F001004FEAC123E3
:100DE0004FEAD32303FA0CFC40EA0C0023FA02F387
:100DF0004FEA4303CCE77FEA625307D150EA01335D
:100E00001EBF4FF0FE4040F44000704701F000402C
:100E100040F0FE4040F40000704700BF80F000400A
:100E200002E000BF81F0004142001FBF5FEA4103C2
:100E300092EA030F7FEA226C7FEA236C6AD04FEAC2
:100E40001262D2EB1363C1BFD21841404840414007
:100E5000B8BF5B42192B88BF704710F0004F40F4B9
:100E6000000020F07F4018BF404211F0004F41F4D5
:100E7000000121F07F4118BF494292EA030F3FD0A1
:100E8000A2F1010241FA03FC10EB0C00C3F12003B4
:100E900001FA03F100F0004302D5494260EB400043
:100EA000B0F5000F13D3B0F1807F06D340084FEAAE
:100EB000310102F10102FE2A51D2B1F1004F40EBA3
:100EC000C25008BF20F0010040EA0300704749000B
:100ED00040EB0000013A28BFB0F5000FEDD2B0FAA8
:100EE00080FCACF1080CB2EB0C0200FA0CF0AABFCB
:100EF00000EBC25052421843BCBFD0401843704769
:100F000092F0000F81F4000106BF80F4000001326E
:100F1000013BB5E74FEA41037FEA226C18BF7FEA45
:100F2000236C21D092EA030F04D092F0000F08BF87
:100F30000846704790EA010F1CBF0020704712F06E
:100F40007F4F04D1400028BF40F00040704712F1AD
:100F500000723CBF00F50000704700F0004343F012
:100F6000FE4040F4000070477FEA226216BF084648
:100F70007FEA23630146420206BF5FEA412390EA0B
:100F8000010F40F4800070474FF0000304E000BF01
:100F900010F0004348BF40425FEA000C08BF7047B2
:100FA00043F0964301464FF000001CE050EA010276
:100FB00008BF70474FF000030AE000BF50EA01028B
:100FC00008BF704711F0004302D5404261EB410178
:100FD0005FEA010C02BF84460146002043F0B6439D
:100FE00008BFA3F18053A3F50003BCFA8CF2083AC2
:100FF000A3EBC25310DB01FA02FC634400FA02FCCB
:10100000C2F12002BCF1004F20FA02F243EB0200D1
:1010100008BF20F00100704702F1200201FA02FC33
:10102000C2F1200250EA4C0021FA02F243EB020026
:1010300008BF20EADC7070474FF0FF0C1CEAD0526A
:101040001EBF1CEAD15392EA0C0F93EA0C0F6FD02B
:101050001A4480EA010C400218BF5FEA41211ED009
:101060004FF0006343EA501043EA5111A0FB0131F5
:101070000CF00040B1F5000F3EBF490041EAD371CA
:101080005B0040EA010062F17F02FD2A1DD8B3F146
:10109000004F40EBC25008BF20F00100704790F0B5
:1010A000000F0CF0004C08BF49024CEA502040EA07
:1010B00051207F3AC2BFD2F1FF0340EAC2507047CD
:1010C00040F400004FF00003013A5DDC12F1190F0B
:1010D000DCBF00F000407047C2F10002410021FA7D
:1010E00002F1C2F1200200FA02FC5FEA310040F195
:1010F000000053EA4C0308BF20EADC70704792F00E
:10110000000F00F0004C02BF400010F4000F013A45
:10111000F9D040EA0C0093F0000F01F0004C02BF40
:10112000490011F4000F013BF9D041EA0C018FE7AF
:101130000CEAD15392EA0C0F18BF93EA0C0F0AD0B5
:1011400030F0004C18BF31F0004CD8D180EA0100DB
:1011500000F00040704790F0000F17BF90F0004F74
:10116000084691F0000F91F0004F14D092EA0C0F56
:1011700001D142020FD193EA0C0F03D14B0218BFE9
:10118000084608D180EA010000F0004040F0FE402F
:1011900040F40000704740F0FE4040F440007047CB
:1011A0004FF0FF0C1CEAD0521EBF1CEAD15392EA4A
:1011B0000C0F93EA0C0F69D0A2EB030280EA010C3A
:1011C00049024FEA402037D04FF0805343EA1111D3
:1011D00043EA10130CF000408B4238BF5B0042F131
:1011E0007D024FF4000C8B4224BF5B1A40EA0C00D6
:1011F000B3EB510F24BFA3EB510340EA5C00B3EB08
:10120000910F24BFA3EB910340EA9C00B3EBD10FF5
:1012100024BFA3EBD10340EADC001B0118BF5FEA47
:101220001C1CE0D1FD2A3FF650AF8B4240EBC25070
:1012300008BF20F0010070470CF0004C4CEA502031
:101240007F32C2BFD2F1FF0340EAC250704740F480
:1012500000004FF00003013A37E792F0000F00F072
:10126000004C02BF400010F4000F013AF9D040EAF0
:101270000C0093F0000F01F0004C02BF490011F484
:10128000000F013BF9D041EA0C0195E70CEAD1537C
:1012900092EA0C0F08D142027FF47DAF93EA0C0F63
:1012A0007FF470AF084676E793EA0C0F04D14B0247
:1012B0003FF44CAF08466EE730F0004C18BF31F0F9
:1012C000004CCAD130F000427FF45CAF31F00043F3
:1012D0007FF43CAF5FE700BF4FF0FF3C06E000BF8C
:1012E0004FF0010C02E000BF4FF0010C4DF804CDAF
:1012F0004FEA40024FEA41037FEA226C18BF7FEABF
:10130000236C11D001B052EA530C18BF90EA010FC0
:1013100058BFB2EB030088BFC81738BF6FEAE1704F
:1013200018BF40F0010070477FEA226C02D15FEAEB
:10133000402C05D17FEA236CE4D15FEA412CE1D057
:101340005DF8040B704700BF844608466146FFE71E
:101350000FB5FFF7C9FF002848BF10F1000F0FBD00
:101360004DF808EDFFF7F4FF0CBF012000205DF8F9
:1013700008FB00BF4DF808EDFFF7EAFF34BF01207E
:1013800000205DF808FB00BF4DF808EDFFF7E0FF17
:1013900094BF012000205DF808FB00BF4DF808ED68
:1013A000FFF7D2FF94BF012000205DF808FB00BFCB
:1013B0004DF808EDFFF7C8FF34BF012000205DF8AD
:1013C00008FB00BF4FEA40024FEA41037FEA226C6C
:1013D00002D15FEA402C08D17FEA236C02D15FEA98
:1013E000412C02D14FF0000070474FF001007047D0
:1013F0004FEA4002B2F1FE4F0FD34FF09E03B3EB22
:1014000012620DD94FEA002343F0004310F0004F61
:1014100023FA02F018BF404270474FF000007047B7
:1014200012F1610F01D1420205D110F0004008BF56
:101430006FF0004070474FF00000704742000ED23E
:10144000B2F1FE4F0BD34FF09E03B3EB126209D4FF
:101450004FEA002343F0004323FA02F070474FF0B5
:101460000000704712F1610F01D1420202D14FF02A
:10147000FF3070474FF00000704700BF7BB972B972
:101480000029BEBF00204FF0004106E008BF002841
:101490001CBF6FF000414FF0FF3000F077B8ADF1A6
:1014A000080C6DE904CE002909DB002B1ADB00F0E3
:1014B000CFF8DDF804E0DDE9022304B070474042D4
:1014C00061EB4101002B1BDB00F0C2F8DDF804E00A
:1014D000DDE9022304B0404261EB4101524263EB7B
:1014E00043037047524263EB430300F0B1F8DDF869
:1014F00004E0DDE9022304B0404261EB41017047A2
:10150000524263EB430300F0A3F8DDF804E0DDE9A9
:10151000022304B0524263EB4303704753B94AB904
:10152000002908BF00281CBF4FF0FF314FF0FF30EB
:1015300000F02CB8ADF1080C6DE904CE00F088F88D
:10154000DDF804E0DDE9022304B07047D0B5FFF711
:10155000FBF800220B4B06460F46FFF74DF900F053
:1015600017F80446FFF7CEF80022074BFFF744F9BF
:1015700002460B4630463946FEF786FF00F008F873
:101580002146D0BD0000F03D0000F041704700BF93
:101590004A0011D212F5001211D20DD56FF47873F2
:1015A000B3EB62520ED44FEAC12343F0004343EA47
:1015B000505323FA02F070474FF00000704750EA92
:1015C000013002D14FF0FF3070474FF000007047FC
:1015D00010F8012B11F8013B012A28BF9A42F7D0DD
:1015E000D01A7047034611F8012B03F8012B002A8B
:1015F000F9D17047034613F8012B002AFBD1181AC2
:1016000001387047430803F05533C01A00F03333F4
:10161000800800F0333018444FF0013300EB101015
:1016200000F00F305843000E704710B500210446FB
:10163000FFF7A0FE20B92046BDE81040FFF786BFA7
:1016400004F10040FFF782FF404261EB410110BD11
:101650002DE9F0478C468E46089E154604461946ED
:10166000002B40F0D080724547D9B2FA82F74FB1D3
:10167000C7F120030EFA07FCBD40BC4020FA03F37B
:1016800043EA0C0C4FEA154EA8B2230CBCFBFEF843
:101690000EFB18CC08FB00F943EA0C43994528D906
:1016A000EB1808F1FF3204D2994502D9A8F10202E1
:1016B0002B44A3EB0903A4B2B3FBFEFC0EFB1C33CB
:1016C0000CFB00F044EA0344A04214D92C190CF19D
:1016D000FF3304D2A04202D9ACF102032C44241AF5
:1016E00043EA02401EB1FC40002334607360BDE851
:1016F000F0874246DDE76346F1E7002A79D0B2FA87
:1017000082F3002B3FD01946C1F1200302FA01F504
:1017100000FA01F42EFA03F20EFA01FE20FA03F3A6
:10172000AFB243EA0E034FEA154EB2FBFEFC0EFBCE
:101730001C201A0C0CFB07F842EA004290455AD9CB
:10174000AA180CF1FF3004D2904502D9ACF1020086
:101750002A44A2EB08029BB2B2FBFEFC0EFB1C2249
:101760000CFB07F743EA02439F4246D9EB180CF102
:10177000FF3204D29F4202D9ACF102022B44DB1BA0
:1017800042EA004202E0AEEB020301224FEA154EAC
:10179000AFB2200CB3FBFEFC0EFB1C330CFB07F8B6
:1017A00040EA034398452AD9EB180CF1FF3004D2E4
:1017B000984502D9ACF102002B44A3EB0803A4B274
:1017C000B3FBFEFC0EFB1C330CFB07F744EA03449F
:1017D000A74216D92C190CF1FF3304D2A74202D923
:1017E000ACF102032C44E41B43EA00400F461146CF
:1017F00078E71F2188E76046ABE76246BFE76046AF
:10180000DBE76346EFE7734506D916B900210846C2
:101810006DE7C6E9000EF9E7B3FA83F787B97345B8
:1018200001D3824207D8841A6EEB030301209C4641
:101830001EB900215BE73846FAE7C6E9004CF8E735
:10184000C7F1200CBB4000FA07F422FA0CF520FA8D
:101850000CF1BA401D432EFA0CF30EFA07FE4FEAC4
:10186000154941EA0E011FFA85FEB3FBF9F809FBA1
:1018700018300B0C08FB0EFA43EA00439A4540D996
:10188000EB1808F1FF3004D29A4502D9A8F1020002
:101890002B44A3EB0A0389B2B3FBF9F809FB183315
:1018A00008FB0EFE41EA03418E452CD9691808F168
:1018B000FF3304D28E4502D9A8F10203294443EA3A
:1018C0000040A1EB0E01A0FB02984145CE464346E5
:1018D00002D306D14C4504D20138B9EB020E68EBB5
:1018E0000503002EA5D0B4EB0E0261EB030101FA53
:1018F0000CFC22FA07F3F9404CEA0303C6E9003175
:1019000097E74046C5E74346D9E7000000000000DE
:1019100010B588B00446684619F0C6FF50B1DDE93D
:101920000001FEF73BFF06A3D3E90023FFF78EF883
:1019300008B010BDD4E9B201FAE700BFAFF30080F0
:101940000000000065CDCD4110B588B00446684662
:1019500019F0AAFF50B1DDE90201FEF71FFF06A34F
:10196000D3E90023FFF772F808B010BDD4E9B40141
:10197000FAE700BFAFF300800000000065CDCD4165
:1019800070B594B00C4619F085FF30B920462A494D
:1019900014B0BDE87040FFF725BE07A819F08CFF12
:1019A0009DF81C300CA8022B96BF244A244D52F8F7
:1019B000235019F079FFBDF81E6008B3DDE90E0170
:1019C000FEF7ECFE1AA3D3E90023FFF73FF8CDE9B9
:1019D0000401DDE90C01FEF7E1FE15A3D3E90023C4
:1019E000FFF734F8089BCDE90201CDE900634FF41D
:1019F00080712B462046134A15F0C2FD14B070BD0D
:101A0000099B4BB1CDE900634FF480712B46204612
:101A10000D4A15F0B5FDF1E72B464FF480712046D5
:101A20000A4A009615F0ACFDE8E700BFAFF300806E
:101A30000000000065CDCD418CA702006885020042
:101A4000F4A70200B99F0200EB9F02000FA0020062
:101A50002DE9F04F00F58054DDB0C4F8F0281A7875
:101A60008046012A8B467BD1046ED0F878024FF471
:101A70007A7503681B689847ADF8A800D8F8680025
:101A800003685B699847ADF8AA00D8F8600003685E
:101A90001B6A9847ADF8AC00236820469B6B9847BB
:101AA000FFF7A6FCADF8AE00236820469B6E984772
:101AB0002C9023682046DB6E9847D8F814304FF4FA
:101AC0007A72B3FBF5F32D902E93D8E9A20100238F
:101AD000FFF724FDD8F840302F903093D8F84430E9
:101AE00020463193D8F848303293D8F84C303393AD
:101AF000B8F86C30ADF8D0302368DB6B98474FF006
:101B00008141FFF799FAFFF773FCD8F87830ADF808
:101B1000D200D3F808252046ADF8D420D3F80C35F0
:101B2000ADF8D630D8F8183008F5C758B3FBF5F340
:101B30003693236808F114081B6F984738AC379028
:101B40002AAA134603CBA342C8F80000C8F8041021
:101B50001A4608F10808F4D13C205DB0BDE8F08FCA
:101B6000032A40F06081D0F8780206AD03680DF1D9
:101B700024091B68984708F5C7531433B4222B6017
:101B80000023C5E90123FFF703FAC349FFF708FB68
:101B9000C249FFF751FAFFF72BFC742203B201216F
:101BA00028461AF0F0FBD5E900674846AC6802F019
:101BB000A9FB002840F0E38099F81430002B00F0D6
:101BC000C680D9F800200121284603F0D3FDD5E9CD
:101BD0000067AC6899F815308BB104F10308B8457B
:101BE0000DD80123D9F804103355682334446370A9
:101BF0000846FFF719F9FFF721FCA070444699F851
:101C00001630A3B104F10408474510D3D9F80800F1
:101C1000A349FFF711FAFFF711FC01233355732392
:101C200034446370C0F30723A370E070444699F80E
:101C3000183003B3D9F8108000214046FFF79AFB13
:101C4000002840F09A8040469649FFF7B1FB0028F3
:101C500000F09180934804F1040847450BD3FFF747
:101C6000EDFB01233355652334446370C0F3072330
:101C7000A370E070444602F0F7FB68B12AA802F0B6
:101C8000F9FB824640B94FF002090DF1A8089DF812
:101C9000E830534500F388809BF8203003F00303BD
:101CA000032B52D12AA819F0FFFD002845D004F1DA
:101CB0000B08B84541D8DDE92A01FEF76FFD74A392
:101CC000D3E90023FEF7C2FEFFF758F87649FFF785
:101CD000B3F9FFF78DFB0746DDE92C01FEF75EFD4A
:101CE0006BA3D3E90023FEF7B1FEFFF747F86E4977
:101CF000FFF7A2F9FFF77CFB05462E98FFF748F99E
:101D00006549FFF74DFA6549FFF796F9FFF770FB54
:101D10000122325588222644444672703A14B27029
:101D20003A12F2702A1472712A12B27102143272CB
:101D300002123771F5717272B07219F0A9FD20B1FB
:101D400019F0A8FD08B119F0B6FD201D05E799F8B6
:101D5000173013B1D9F80C2035E7D8F878020368AA
:101D60009B68984701468046FFF72CFB00287FF4CC
:101D700031AF424627E740466DE700206BE7D8F8D1
:101D8000780203689B68984701468046FFF71AFB74
:101D900000287FF470AF42460121284603F0EAFC98
:101DA000D5E90067AC6866E798F80C30B3B33B49F7
:101DB000D8F80000FFF740F9FFF71AFB742203B2CE
:101DC00049462846C5E90067AC601AF0DCFA32499A
:101DD000D8F80400FFF730F9FFF70AFB752203B2C9
:101DE000494628461AF0CFFAD5E90067AC68231DAA
:101DF000BB4203930ED8D8F80800FFF71FFB8022E0
:101E000006F80490039B34446270C0F30722A2706A
:101E1000E0701C4609F101095FFA89F90AF1010A2B
:101E200008F1100833E7052A40D191F8202002F08C
:101E30000302032A40F026815A789B781A4340F027
:101E40002181042341F6F00600F21445D4F8141859
:101E500018468A42BFF681AEAD2B3FF67EAE95F8AE
:101E6000201079B12F68991948F8017008EB01002A
:101E7000A988818095F82000991D58FA81F10733CF
:101E8000DBB288550132A035E0E700BFAFF3008038
:101E90000000000065CDCD4100007A440000C8423A
:101EA0000000204100FF7F4700401C46062A40F00A
:101EB000D5805D78002D40F0E5809A78B3F8037006
:101EC00004929A795979202A28BF2022934600F556
:101ED0001353283300F53654586A30B15CAA681C95
:101EE00002EB850545F8C83C05B22C33A342F3D17B
:101EF000032909D8DFE801F0023C587400242AAB1A
:101F000005F1FF3A54451DDB0024A1460BF1050AFB
:101F10005FFA8AF309AE03935E44049B4B4501DDEF
:101F2000BD4279DC08F5805308F5C7502246A3F876
:101F3000F458A3F8F69809A9183024F050FB04F1DE
:101F400008000AE601341E46A446654501DC043358
:101F5000D8E771681A68486AD2F824E00CF1010CDD
:101F6000704588BF196006F1040688BF3260ECE74F
:101F700000242AAB05F1FF3A5445C5DA01341E4668
:101F8000A446654501DC0433F6E771681A68486ABF
:101F9000D2F824E00CF1010C704538BF196006F14D
:101FA000040638BF3260ECE700212AAB05F1FF3EA2
:101FB0007145A9DA013118460C46A54201DC04330B
:101FC000F6E742681E6892F928A096F92890013435
:101FD000CA45C8BF1A6000F10400C8BF0660ECE73C
:101FE00000212AAB05F1FF3E71458DDA013118461B
:101FF0000C46A54201DC0433F6E742681E6892F9FC
:1020000028A096F928900134CA45B8BF1A6000F19B
:102010000400B8BF0660ECE7039B2344822B0593C2
:1020200080DCD8F874002AAB046853F827A0246831
:10203000A047DAF824405146041B5A46A6EB0B0091
:1020400024F0CDFA039B9AF82810346031711E44B5
:10205000059B09F101091C4601375EE7072A11D1EA
:1020600000F5C75400F54E731434074A074900932E
:1020700000F52973204615F0ADFA2046FFF7BAFAAD
:1020800004306AE5002068E58E9E02003AA0020056
:102090002DE9F04FC368064693F88C408A461546F2
:1020A00087B003F1040B74B9CDE902B4CDE904445F
:1020B0008DF804108DF80540294601A819F054FC4C
:1020C00007B0BDE8F08F012C2AD100690368D3F86E
:1020D000903098478046306989460368D3F8943039
:1020E000984717A3D3E9002306460F4640464946C2
:1020F0008DF804A08DF80540CDF808B0FEF77CFB04
:10210000FEF714FE0EA3D3E90023039039463046B0
:10211000FEF772FBFEF70AFE002304900593CBE75F
:10212000D3E90A01D3E90C6701238DF804A08DF8E7
:102130000530CDF808B002A3D3E90023DEE700BFE5
:102140000000000080842E4170B514460646084603
:10215000FEF71EFF2146FEF76FFFFFF766FA0EA39C
:10216000D3E900230A4D80FB054520462946FFF7A9
:1021700085F90023074A306029462046FFF77EF99B
:102180000023044AFFF77AF9726070BDAFF3008054
:102190003AA3950040420F000010A5D4E8000000CB
:1021A00070B5144606460846FEF7F2FE2146FEF7D5
:1021B00043FF1349FEF7F4FFFFF737FA0CA3D3E907
:1021C0000023104D80FB054520462946FFF756F9B0
:1021D00009A3D3E90023306029462046FFF74EF9D2
:1021E0000023094AFFF74AF9726070BDAFF300801F
:1021F00000209BF35E10000080A812010000000088
:1022000000002041D8EF2F0040420F0000000000E6
:10221000032970B504460D4604D0072949D06FF054
:10222000850028E0002A38D0072AF8D158681E68AF
:102230000346514AC117C6FB0231012B71F100025E
:10224000C0F28D804D48181841F1000146A3D3E932
:102250000023FFF713F9022826690DD010280DD0AE
:1022600004280DD008287AD1294620461EF0A1FF67
:1022700040B16FF0040070BD0025F5E70125F3E7DC
:102280000225F1E73D203E4B33F8151081FB00019C
:10229000FEF794FEF0600020EDE718880BF0D2FC0A
:1022A000011E5CDB2046C9B20BF0FAFC0028F2D01C
:1022B000DFE7002A49D0072AB1D1B4255A68196846
:1022C0002D4BD017C1FB0320A2FB0531012A05FBD2
:1022D000001170F1000028DB2A48181841F10001B4
:1022E00023A3D3E90023FFF7C9F8FA28266924D0ED
:1022F000B0F5FA7F23D0B0F57A7F22D0B0F5FA6F2F
:1023000021D07D282BD10425294620461EF061FFCF
:102310000028AED141F217101B4B33F8151081FB8A
:102320000001FEF74BFEF061B5E71848181861F19F
:1023300000010FA3D3E90023D5E70025E4E7012539
:10234000E2E70225E0E70325DEE718880BF07AFCD8
:10235000011E04DB2046C9B20BF084FCA6E76FF037
:10236000150088E7AFF300803AA395000000000055
:10237000D8EF2F000000000040420F009DD14A001E
:102380000C990200ECF71700029902001408E8FF0C
:102390001BA3D3E900230021C0E900231AA3D3E93A
:1023A0000023C0E902231AA3D3E90023C0E90423D0
:1023B00019A3D3E90023C0E9062319A3D3E9002315
:1023C000C0E9082318A3D3E90023C0E90A2318A30E
:1023D000D3E90023C0E90C2317A3D3E90023C0E904
:1023E0000E2300220023C0F8D010C0E93023C0E93A
:1023F00032238022403024F0FFB800BFAFF30080CA
:1024000008C9BCF367E6096A3BA7CA8485AE67BB07
:102410002BF894FE72F36E3CF1361D5F3AF54FA532
:10242000D182E6AD7F520E511F6C3E2B8C68059B0E
:102430006BBD41FBABD9831F79217E1319CDE05BC6
:10244000002110B50446074B4FF4C072C0E960117B
:10245000C0E96211C0F89011C0F8943124F0CCF8B2
:10246000204610BDCDCC4C3E024630B55388017895
:10247000082B28BF08230B48C1F383010A4C4840AE
:10248000604302F14901C2F1FF2202F57F02B73237
:102490005518AB4200DC30BD11F8015F6840604365
:1024A000F6E700BFC59D1C81930100012DE9F041B5
:1024B00004460D460746002642F210783B7B3BB1AE
:1024C0007B68EB1A434503D93146204616F0A6FE39
:1024D0000136182E07F11007F0D1D4F88C3133B340
:1024E000154AEB1A934222D9D4F88431FBB1D4F8BF
:1024F000903123B9A5F59C53083BC4F8903141F2C3
:10250000873641F2883003F51C414031EA1AB24265
:102510000BD9D4F8842142B10344A2EBD2028B42FE
:10252000C4F88421C4F89031F0D1BDE8F0810023D3
:10253000C4F89031F9E700BFE093040070B503469A
:10254000024600F5C0766FF00040C1F51C5511350C
:10255000147B34B154682C4424EAE474A04228BFAC
:1025600020461032B242F3D1D3F88C2192B1D3F885
:1025700084417CB10D4C8D1AA5420CD9D3F8903111
:102580002BB1C1F59C5108310B4423EAE373984207
:1025900028BF184670BDC1F5922101F2E131114406
:1025A00021EAE171884228BF0846F3E7E09304007E
:1025B00010B5D0F88831032B26DDD0F88401FEF762
:1025C000E3FC4FF06E51FEF737FD00210446FEF7A5
:1025D000DBFEE0B94FF081412046FEF725FC0146C5
:1025E0002046FEF7DDFD0B49FEF726FD0A49FEF702
:1025F0001BFC4FF07E510446FEF7DAFE10B14FF09F
:102600007E5010BD2046FCE74FF07C50F9E70248B1
:10261000F7E700BF9A99193FCDCCCC3E00487047F0
:102620006ABA02000048704780EE360030B5C0E953
:1026300018128366012200230D4DC0E90533C0E95D
:102640000733C0E90933C0E90B33C0E90D33C0E9F2
:102650001033C0E91233C0E91433C0E91633056002
:1026600043600372A0F86C30828780F83E3030BD42
:10267000C07F020070B5B8B001460446684623F03A
:102680007FF99DF80030013BDBB2FD2B38D8274B9A
:1026900028AA03F14006154618685968083303C58F
:1026A000B3422A46F7D1224B08AA03F12006154669
:1026B00018685968083303C5B3422A46F7D108A9F8
:1026C00020A812F097FC214620AA10A823F004F9B4
:1026D000694620A812F08EFC20AA28A918A823F089
:1026E000FBF8202218A910A818F012F9044658B9CE
:1026F000202110A818F046F9202118A818F042F956
:102700000024204638B070BD002310A911F8012B19
:102710001AB90133202BF9D1144610A8202118F042
:1027200031F9202118A818F02DF9EAE72C990200B8
:102730006D99020038B504461D46059BFFF776FFEC
:10274000084B25672360049B04F17C006367069BAC
:10275000A367FFF775FE04F5057017F089FA2046A8
:1027600038BD00BF008002002DE9F04F0E7805460D
:1027700006F00303023B012B0C46F3B000F2FA8291
:1027800006F03C02242A0B795BD13F2B1CD84E88E3
:10279000082E19D991F85270093E07F003029340B0
:1027A000F6B21FFA83FC664510D801F153020368A4
:1027B000029201F10A02CDE9007203965D6ED1F832
:1027C0004A20D1F84E30A847002037E0012153338A
:1027D00001FA02F200F50571E01823F01CFF002851
:1027E000F2D12B68214628461B6C98470028EBD075
:1027F000A86F214603681B6898470028E4D1A86F9A
:10280000214603685B68984794F90201FEF7C0FB14
:102810004FF07A51FEF710FC4FF08141FEF70CFCAF
:10282000FEF7E6FD237921465A1C23442271987253
:102830002B6828469B6C984740F0C06073B0BDE899
:10284000F08F2C2A03F03F030AD191F94A20002A85
:1028500080F28D82002BB7D103689B6F9847B3E756
:102860004BB90C2A40F086820368D1F84A20D3F88D
:1028700088309847A8E70C2A05D10368D1F84A2088
:10288000D3F888309847227905F50571920901320D
:1028900004F10A0023F0BFFE002895D12B682146E1
:1028A00028461B6C984700288ED02378C3F38303F7
:1028B0000A2B04D12146284617F04AFD84E7A86F69
:1028C000032B02682146126813D190470646002860
:1028D0007FF47AAFA86F214603685B68984721466A
:1028E000284617F037FC32462146284617F0D9FC17
:1028F0006AE7904700287FF467AFA86F2146036816
:102900005B6898472146284617F024FC2B6821462F
:1029100028469B6C984740F080708FE72B682146D3
:102920002846DB6B984700287FF44EAF207817F0DD
:102930000FFB002800F024822046FFF795FD064695
:10294000686E05F17C0703681B68984731460246AC
:10295000384616F0A9FC20B13146284617F058FB3E
:102960000EE22B682846DB6C9847002800F00882AE
:10297000686E03681B68984731460246384616F071
:102980006DFCFDE16388032B7FF61EAFA86F214627
:102990000368D4F84A601B68984700287FF414AF96
:1029A000A86F214603685B6898472B68324621462A
:1029B0002846D3F888309847214628462B689B6BD9
:1029C00073B0BDE8F04F184794F84B300DF1200A72
:1029D0008AF80030638894F84A70042B7FF6F4AECE
:1029E000A86F214603681B689847064600287FF4B5
:1029F000EBAEA86F214603685B68984795F81432E0
:102A0000BB4268D12B68514628469B6D984781464A
:102A100004F14C0B10AF0DF1C4084E452B685ADA87
:102A2000324639462846DB6D984763885A46023B52
:102A30004146384617F083FF031E5CDD2278C2F35F
:102A40008302082A4DD198F800900793484617F062
:102A500059FE00283FD04FEA991109F03F0201FBCF
:102A60000222079B501C984235DA02329B1ADBB2D5
:102A7000424429680392049318F800300DF1C50808
:102A800003F00F03CDE90193CDF80080D1F868B0D1
:102A90003B46324621462846D847D0B1207817F029
:102AA00057FAB0B10023CDE902330193237951469F
:102AB00000933A46284604F10A0317F070FD0146D8
:102AC00038B14FF4FA734246009328464B4617F04C
:102AD0000AFDFF2323702B68214628469B6B9847ED
:102AE000ACE62968CDE9018300970F6E3346214695
:102AF0002846B847EDE701368FE76388232B7FF63A
:102B000063AEA86F2146036894F84A601B68984733
:102B100000287FF459AEA86F214603685B68984788
:102B200095F81432B3427FF447AF04F14B0608AA7C
:102B300004F16B07134630687168083603C3BE4260
:102B40001A46F7D108AA10A905F5057017F0B3F9D0
:102B5000638831AF32463946213B10A817F0EFFEAB
:102B600000287FF729AF2B68CDE9007021461E6F42
:102B7000284608AB10AAB047FF2323701CE794F83F
:102B80004A3008AF3B706388032B7FF61DAEA86FF9
:102B9000214603681B689847064600287FF414AE58
:102BA000A86F214603680DF140095B6898472B68C0
:102BB0003946D3F880804A4604232846C047074652
:102BC00004F14B0A0DF141080DF1C40BBE4282DA4B
:102BD0006388404652465946013B17F0B0FE002834
:102BE00008F121080FDD2B682278CDE900B006EB53
:102BF0004616D3F884702146284609EB0603C2F333
:102C00008302B84767E70136E0E710A817F01EF81F
:102C100010AE04F14A0304F16A0732461868596895
:102C2000083303C2BB421646F7D16388632B7FF695
:102C3000CBAD202210A905F5057023F0ECFC00288F
:102C40003FF4C2ADA86F21460368D4F86A801B68C0
:102C5000984700287FF4B8ADA86F0DF1C40A036847
:102C600021465B685646984767880DF1400C643FE3
:102C7000202F28BF2027BCE80F000FC69CE80F00BC
:102C800004F1AE0986E80F003A4649463AA8CDF865
:102C9000E48023F0A4FC524607F1240304F16E0102
:102CA00010A816F0DBFF00283FF4C8AD2B68CDE973
:102CB00000972146DE6E2846434610AAB0470AE731
:102CC00003F00303023B012B3FF67EADA86F2146C4
:102CD00003681B68984700287FF476ADA86F2146EB
:102CE00003685B6898472B6821462846DB6FB5E58B
:102CF0006288022A7FF668AD94F84A3003F00F0329
:102D0000032B7FF461AD042A7FF65EAD31AE304611
:102D100017F0F3FC237840228DF8C43004F10A0147
:102D200023790DF1CE0017F00EFD62888DF8C800F2
:102D3000013A92B204F14B010DF58770ADF8C6204F
:102D400023F04DFCA86F314603681B6898470028A4
:102D50007FF43AADA86F314603685B6898472B68EB
:102D600031462846D3F88830DDF80E2181E5002B66
:102D70007FF489AD304617F0EBF800287FF4CEAD34
:102D80002378C3F383020F2A3FF61EAD01A151F849
:102D900022F000BFC9290000C9290000C92900008C
:102DA000852900000B2C00007F2B00007F2B0000EA
:102DB000FB2A0000C9290000C9270000F12C0000EF
:102DC000C9270000C9270000C9270000C927000043
:102DD000C12C00000022104630B5074BD3F820511B
:102DE0009C33AA4200DB30BD53F8044F0132641A11
:102DF000002CD8BF0130F4E7C04D0020014BD3F8C0
:102E000020017047C04D0020014BD3F820017047CE
:102E1000E44E0020044BD3F820219142B4BF53F874
:102E200021000020704700BFC04D0020044BD3F8A4
:102E300020219142BABF283153F821000020704769
:102E4000C04D0020054BD3F820018142BDBF283181
:102E5000012043F821200020704700BFC04D002012
:102E60000022FF2070B50A4BD3F8206103F19C05C6
:102E70008033B24200DB70BD55F8044F641A002C59
:102E800003DC9C5CA04228BF20460132F1E700BF72
:102E9000C04D0020F8B5FF200C4600234FF0FF3155
:102EA0000D4AD2F8207102F19C068032BB4205DB4C
:102EB0004B1C0FD0084817F089FCF8BD56F8045F8A
:102EC0002D1B002D04DCD55C85423CBF19462846ED
:102ED0000133EBE70020F0E7C04D002008B50248C1
:102EE00017F074FC08BD00BFC04D002038B50B4B77
:102EF0001C786CB901220A4D1A70002329461A4623
:102F00000848013417F084FC202C05F58275F4D1B3
:102F10000021044817F05AFC38BD00BF12A1002060
:102F200090800020E44E002008B521B10023024823
:102F30001A4617F06DFC08BDE44E00202DE9F0475D
:102F40001B4E054630460F469046994617F060FCEA
:102F50000446D8B9D6F8200118B32146234606F115
:102F60007F0CA04214DC0E4496F88030434518D9FB
:102F70000F4817F02BFC2B6801465B6828469847E2
:102F80004B46424639460A4817F042FCBDE8F087F6
:102F90001CF8012F9A4234BF1A46214613460134C9
:102FA000DFE72B6839462846BDE8F0475B681847DD
:102FB000C04D002038B500240D4D281904F5827449
:102FC00017F09BFBB4F5025FF7D10024094B2146B3
:102FD00080221846C3F8204123F00EFB064B214601
:102FE000C3F820411846BDE83840802223F004BBD6
:102FF00090800020E44E0020C04D00202DE9F043D9
:103000000D468DB012F00F01804614461E469DF805
:10301000509004D04FF0FF300DB0BDE8F083184B56
:10302000142207A8069323F0E7FAB9F1000F0CBFAA
:103030004FF400734FF48073124F089310224146EF
:1030400004AB06A8099722F0C3FF0028E2D105AB24
:10305000CDE901432A462346394604980096B9F142
:10306000000F09D012F080FC0446049822F094FF6F
:10307000002CCFD10598CFE712F012FDF4E700BF86
:1030800000248000004440042DE9F04194B007463C
:103090000C4616460021142207A81D4623F0ACFA60
:1030A0004FF48853ADF818304FF48073ADF81A30F0
:1030B0004FF48063DFF84C802022CDE90838394690
:1030C00004AB06A822F084FF28B14FF0FF3420465D
:1030D00014B0BDE8F08105AB0293202301930CAB43
:1030E0002246009341463346049823F04DF80446A7
:1030F000049822F051FF002CE7D1BDF830302B802E
:10310000E5E700BF0900800330B58DB00D461146DC
:103110001A4603AB01932023044600930A4804ABEC
:1031200023F022F82A4630B1002120460DB0BDE838
:10313000304023F061BA202D28BF2022204604A968
:1031400023F04DFA0DB030BD090000022DE9F04327
:10315000A7B00446DDE92E890D46164600217022EF
:103160000AA81F4623F048FA16490AA822F0ADFF24
:10317000E8B93A4631460AA822F0C8FFB8B94A462B
:1031800041460AA822F0C2FF88B9202201AB02A959
:103190000AA822F0D2FF50B9202D2A46204628BF87
:1031A000202202A923F01BFA27B0BDE8F0830AA869
:1031B00022F07CFF2A460021204627B0BDE8F043DC
:1031C00023F01ABA0900000208B5054B002814BF05
:1031D0000146194603481BF015F8012007F00AFACA
:1031E0008E9902009A9902000346F0B50A4D8E1896
:1031F000B14203F1020303D1002300F81230F0BD05
:1032000011F8014B270904F00F04EF5D2C5D03F862
:10321000027C03F8014CEBE73FBC0200004870471A
:10322000BA99020000487047BA99020000487047F6
:10323000C899020008B503681B689847BDE80840B4
:103240000146014818F0F2BD6C82020008B5104634
:103250000249FEF7C7F9002008BD00BFD699020059
:1032600037B5124C204620F05EFA10B9104803B072
:1032700030BDA5684C212046EB6898470028F5D161
:103280000C216A4620462B6998470028EED1019808
:10329000FDF77EFE0749FDF783FF04460098FDF722
:1032A00077FE01462046FDF7BFFDE0E71070020003
:1032B0000000C07F0024744970B5C3680C461546F1
:1032C0009BB393F87430DA1F052A32D81A4A073BA9
:1032D00052F8236021463046FEF76AF848BB28467C
:1032E000FDF756FE4FF06E51FDF7A6FE01464FF07A
:1032F0007E50FDF797FD314605462046FDF792FDCD
:103300000E49FDF74DFF01462846FDF795FE0021C9
:103310000446FEF72FF860B94FF07E512046FEF7C5
:1033200047F820B14FF07E5070BD0723CEE720460E
:10333000FAE70020F8E700BF0C82020000002041FD
:1033400070B5044617F0EEFBD4F88039D4F8842920
:10335000054653EA02004DD05B1B62EB0102012BD4
:1033600072F100003EDB6FF00040834272F1000218
:1033700000DA1846B4F84E3A9BB394F9513A8033C8
:1033800014D0D4F8582AD4F85C6A521B66EB0106B4
:10339000012A76F1000327DB6FF000439A4276F1B1
:1033A000000600DA1346984228BF1846D4F8683A57
:1033B000D4F86C2A53EA02041CD00F4C1B1942F1BA
:1033C00000025B1B62EB0101012B71F100020DDBBE
:1033D0006FF00042934271F1000109DA984228BF70
:1033E000184670BD0020C5E70023DCE70023F5E7A1
:1033F0001346F3E70020F4E70097490170B504464F
:103400004A480025C4E9021320600023002000215F
:10341000C4E9042504F518622362C4E90655257140
:103420006362C4F85858C4F85C58C4F87059C4F8BA
:10343000745984F87859C2E9000143F69822C4F817
:103440008C294FF4004204F5266684F88859C4F8A4
:103450009059C4F89459C4F89859C4F89C59C4F8C0
:10346000A059C4F84C5AA4F8502A46E90201C6E90A
:10347000000104F5276646E902010126A4F8705A06
:1034800084F8726AC4F8745AC4F8785AC4F87C5A3A
:10349000C4F8805AA4F8845A84F8865AC4F8885A22
:1034A000C4F88C5AC4F8905AC4F8945AC4F8985A7C
:1034B000A4F89C2AC4F8A05AC4F8A45AA4F8A85A9C
:1034C000C4F8AC5AA4F8C45AC4F8C83AC4F8CC3A00
:1034D000A4F8D05AC4F8D45AC4F8D85AC4F8DC5A5C
:1034E000C4F8E05A84F8885BA4F88A5BC4F88C5B63
:1034F000C4F8905BC4F8945B04F5166020F086FE77
:103500003246294604F5376020F057FA29464FF431
:10351000036204F1280023F06FF8A822294604F67C
:10352000A41023F069F8204670BD00BF308102006E
:1035300008B503468068B3F88A1B8368002908BF72
:10354000FF215B68984758B1084B98420BD841F26D
:10355000883300F5FA704000984238BF184608BD1D
:1035600041F28830FBE76FF47A70F8E70BFEFF7FDB
:10357000F0B590F8883B044689B0B3B900F6E82569
:10358000002600270A20CDE90043CDE9023004934C
:103590002846CDE90667064B10F034FA054928465F
:1035A00020F011FB012384F8883B09B0F0BD00BF77
:1035B000B1B10100049A02002DE9F8430C4605461A
:1035C000174600211422204623F016F895F8C53A34
:1035D000002B37D0D5F8C80AD5F8CC9A95F8D08A00
:1035E00095F8D16A2A49FDF727FDFDF727FF2060EE
:1035F0004846FDF723FF83B21F2B08D035D80F2B89
:1036000005D030D8072B02D00A2B18BF7D23A3800A
:10361000B31F022B96BF043E0126F6B2B8F1080F85
:103620008CBF1023202384F80680E6712381EB6889
:103630002BBB1623A3720223E3730423E7722374C4
:10364000BDE8F883EB683BB1986CD3F8789093F8B9
:10365000748093F87560C5E74FF007080526DFF81A
:1036600034900D48BEE7142BCFE7FA2BCFD003D808
:10367000292BCCD03E2BC8E7B3F5FA7FC5E793F9E9
:103680004C30162BA372D4DC0933D4DAF723D1E7FC
:1036900000247449000078428D67594408B590F8B9
:1036A000C53A5BB1D0F8C80A0749FDF7C5FC4FF031
:1036B0007C51FDF7B9FBFDF7C1FE08BDC3680BB136
:1036C000986CF1E70148EFE7002474498D6759448D
:1036D00008B590F8C53A63B1D0F8CC0A0849FDF7AF
:1036E000ABFC4FF07C51FDF79FFBFDF7A7FE80B2CE
:1036F00008BDC3680BB1986FF0E70248EEE700BF62
:10370000000020410000784202462DE9F04717F002
:10371000B5FC92F8C53A0F460646002B00F095809E
:10372000D2F8CC5A104617F0B6FC0C2EB04628BF83
:103730004FF00C085FFA88F8B8F1060F04464749C5
:10374000284638BF4FF00608FDF714FE00B1444D7F
:10375000082C28BF08240120E4B2052C00FA08F048
:1037600038BF0524FDF714FC3E4981462846FDF785
:1037700063FC01464846FDF713FD0546082E8CBF45
:1037800010202020FDF704FC3749FDF74DFB2946AA
:10379000FDF752FC354981462846FDF709FE002811
:1037A00059D04FF07E5A4046FDF7F2FB06463846A8
:1037B000FDF7EEFB4FF08241FDF73EFC4FF08141FB
:1037C00007463046FDF738FC01463846FDF72AFB30
:1037D0002749FDF729FB4FF08341FDF725FB5146B3
:1037E00007465046FDF720FB01463046FDF71AFB21
:1037F0004FF08141FDF720FC4FF07E510646FDF76A
:10380000B9FD08B14FF0814631463846FDF7C8FC96
:1038100015F08AFC06462046FDF7BAFB3146FDF757
:103820000BFC002123F07FF94FF08241FDF7FCFAF9
:103830002946FDF701FC4946FDF7F6FA0949FDF76F
:10384000FBFBFDF7FBFDBDE8F087D3680BB19D6F77
:1038500068E7084D66E74FF0000AA4E70000E04083
:103860000000FA4200007A44000088405A2F863C4B
:103870000000E041000078422DE9F04705468AB09B
:1038800017F090FC95F8713A05F11407002B00F041
:10389000BA802846002205A9FFF78EFEBDF8183031
:1038A0009DF81A001F2B00F09A8000F285800F2BE4
:1038B00000F0988079D8072B00F0978042F6B1028B
:1038C0005A490A2B18BF0A4606288CBF4FF0080A2F
:1038D0004FF00C0ABAF1080F0CBF11231923BDF8E1
:1038E0001C609E4240F39E8001218140504800238D
:1038F000A1FB0001FDF712FE2B680446D3F8D83077
:103900002846984780460520A6EB4A0909F1FF3969
:1039100004FB09F964220023A9FB0001FDF7FEFD69
:1039200008F5FA63A9EB00018B42D5F8742A64D23A
:103930000E366643A1EB08018E420AFB044408D907
:10394000731CA3EB0903034443445B089C4238BF48
:103950001C46944203D1D5F8783A8B4203D0C5F87F
:10396000744AC5F8781A00261F34A86846F1000387
:103970001F314FEA541246F1000486684909366A3D
:1039800042EAC36241EAC4615B096409002E3AD08D
:10399000DFF8A0C003958DE81210B04798BB1EF069
:1039A000FBF80121C5F8940936E045F261121F4980
:1039B000142B18BF0A4687E7FA2B19D008D8292BF1
:1039C00018D04FF2244219493E2B18BF0A467BE714
:1039D000164A1949B3F5FA7F08BF0A4674E747F655
:1039E000122271E743F609526EE741F684626BE7F3
:1039F000124A69E74AF2C32266E7013203D04FF068
:103A0000FF33C5F8743AA8682A46836809495B6998
:103A100098470028C3DA002138460AB0BDE8F047CD
:103A200017F0BAB8D5F8743A0133E7E748E801006F
:103A300040420F0077AC010020A1070090D00300A6
:103A400038B503680446D3F8D0300D469847B8B16E
:103A500004F68C3017F047F8034604F6943017F05C
:103A600042F81844D4F87C3A984202D1D4F8803A0B
:103A70003BB9C4F87C0A012D38BF0125C4F8805A2F
:103A800038BD084AEB1A9342FAD994F8863A072BC4
:103A9000F6D923682046D3F8C83098472046FFF768
:103AA000EBFEE8E7BF270900F8B503680446D3F842
:103AB000D4300F469847002838D094F8A83A33B14C
:103AC000D4F8A03AD4F8A42AFB1A93422ED3D4F8FF
:103AD000AC3A23B14EF65F22FB1A934226D92069F5
:103AE00020B303689B68984701460546FDF76AFCCA
:103AF0000646D8B9284623F039F80122164B05B2FC
:103B0000C4F8A43AB4F99C3A84F8A82A13F5004FF3
:103B1000C4F8A07A02D1A4F89C5A07E0EB1A002B53
:103B2000B8BF5B42042B02DC84F8A96AF8BD94F8A4
:103B3000A93A33B943F6982384F8A92AC4F8A43AD9
:103B4000F4E7236884F8A96A2046D3F8CC30984774
:103B50002046FFF791FEDEE780EE360038B50446DA
:103B6000183016F0C0FFA0BB23682046DB6A9847D8
:103B700078BB16F0D7FF054604F68C3016F0B3FF7D
:103B8000034604F6943016F0AEFFD4F87C2A0344C2
:103B9000934202D1D4F8803A63B90023C4F8983A2A
:103BA00029462046FFF74CFF29462046BDE838400D
:103BB000FFF77ABF074AEB1A9342F1D9D4F8983A43
:103BC00013B1EB1A9342EBD9012D2B4638BF0123D9
:103BD000E4E738BDBFD401002DE9F04F03688BB096
:103BE000D3F8BC300446884617469847824638B911
:103BF00039464046644A0BB0BDE8F04F13F0C0BCF4
:103C0000D4F89819002900F08D800A236420D4F894
:103C10009C295A43D4F8A03902EB5102434303EBE9
:103C20005103B2FBF1F2B3FBF1F10A2594F94D0A0D
:103C300094F84C6A0591B2FBF5F105FB112200EBFB
:103C40000A03CDE90312CDE90003504A504B404628
:103C5000002E08BF1346CDF808A04E4A27EAE771A8
:103C600013F08EFCC72F054640445DDDD4F8943A2E
:103C7000791B0393D4F8903A474A0293D4F88C3ACC
:103C80000193D4F8883A0093D4F8983913F078FC6B
:103C9000054408EB0500791B94F8503A3F4A13F0AD
:103CA0006FFC23680544D3F8B4302046984701469A
:103CB00040B9AF4208EB0500C8BF791B384A13F082
:103CC0005FFC0A35204617F0D5FB8346204617F0E7
:103CD000E8FB94F94D9A6FF00702D945B8BFD94671
:103CE0008145A8BF814609F1FF36B345CABF0BF134
:103CF000020309F101035E468342C4BF0346861EE8
:103D00009642B8BF16460C2BA8BF0C234FF0640B8D
:103D1000099304EBC604099BB34209DA28460BB0A9
:103D2000BDE8F08F0A4680E7AF42B4DC0021B3E77C
:103D3000B4F8E429B4F8E8C91AB353080BFB0C3300
:103D4000B3FBF2F30693B4F8EA39BD42CDE904C3FC
:103D5000B4F8E639B8BF791BCDE902230AEB0603B4
:103D6000CDE90063A8BF002108EB0500B14514BFF1
:103D700020232A230B4A13F003FC013605440834A0
:103D8000C9E71346DEE700BF119A02008CA70200C4
:103D900038A90200199A02003F9A0200549A0200C0
:103DA0005D9A0200689A02002DE9F047B0F84E3A99
:103DB0000446002B00F0C78016F0B4FE0F4604F551
:103DC0002761064651E9023253EA020040F08C8036
:103DD00041E9026794F9515A15F1800F23D0D4F8C4
:103DE000582AD4F85C3A964277EB03031BDB23682E
:103DF0002046D3F8B0309847EB000128234440F028
:103E00008180B3F8EA290132A3F8EA298023204609
:103E100084F8513A17F076FC28B994F84C3A13B16B
:103E2000204617F0FDFB94F89339002B00F08B80AF
:103E3000002384F8933994F9513A803340F0838019
:103E400023682046D3F8B430984700287BD094F8F4
:103E50009239002B77D023682046DB6A9847824648
:103E6000002870D104F52668C4F8606A2046C8F8B6
:103E7000047017F0A1FB23680146D3F8AC30074665
:103E800020469847064616F04DFE022E81460D4606
:103E90004FD14FF6EF7304EBC701B1F8E4299A4212
:103EA00002D9204617F06EFBB1F8E4390133A1F8CE
:103EB000E439002E49D0B1F8E639022E03F10103AE
:103EC000A1F8E63941D1236884F8517A2046D3F825
:103ED000B430984710EB090045F10005643045F116
:103EE000000548E902052EE01F48F31A67EB0202BD
:103EF00098424FF000039341BFF66CAF204617F095
:103F000041FB65E7022805D1B3F8E8290132A3F89F
:103F1000E8297BE7B3F8E42912B1013AA3F8E429D0
:103F2000B3F8E629002A3FF471AF013AA3F8E62975
:103F30006CE7514604F1140016F02EFE2046FFF700
:103F40009BFC002EA5DABDE8F087204617F0DAFBCF
:103F50000028F8D194F84C3A002BF4D02046BDE864
:103F6000F04717F05DBB00BF0097490170B50D46E3
:103F700016460424314628461AF0DEFF48B140F2C6
:103F8000391000211FF0FBFE013CF3D10148FFF77F
:103F90001BF970BD889A02002DE9F04FDFF85882B6
:103FA000ADF5257D04460D46174600214FF40072FD
:103FB00024A81E4622F020FB98F8003043B98F4811
:103FC0001AF020F998F8003013B98D481AF01AF950
:103FD000402124A81AF0B0FF98F8003081463BB980
:103FE00024A817F038FC4946024686481AF00AF918
:103FF000102200210AA822F0FFFA10210AA808F0D6
:1040000061FC002301460DF1CF020DF1280C8B421B
:1040100001DA102B58D198F80030002B40F0E780DF
:1040200079481AF0EFF8BFB1B6B1202E314628BF5B
:1040300020213A460DF1DF037E1812F8010B13F828
:10404000017FB24280EA07001870F6D198F800307C
:1040500043B96E481AF0D6F898F8003013B96C4896
:104060001AF0D0F8402180A81AF066FF98F80030C6
:10407000064673B980A817F0EEFB31460246654844
:104080001AF0C0F898F800301BB9294662481AF0B7
:10409000B9F80023079311F0A7FD202307AF009381
:1040A0004FF400725D4801971CAB24A922F05CF824
:1040B000064610B9079F202F0FD020211CA816F00C
:1040C00061FC5748FFF780F812F801EF1CF8010B6C
:1040D000013380EA0E00107099E70146142217A8F8
:1040E00022F08AFA4FF41053ADF858304FF4807331
:1040F0004C4A0DF12008CDE91832ADF85A301CA910
:1041000043463A4616A8C8F8006021F061FF06460B
:1041100039461CA816F036FC002ED2D110223146AA
:104120000EA822F069FA37460DF1240ABD42D8F8EC
:10413000000017D90023CAF8003010230DF1380B06
:104140000DF148095A463749CDF808A00193CDF83A
:10415000009011F009FC18B9DAF80030102B14D0D7
:104160004FF0FF36D8F8000021F016FF10210EA8FE
:1041700016F008FC002EA4D1012319462544AC42B8
:104180001CD101B933B328489CE7EA1B102A28BF89
:104190001022E0194946059222F021FA059A1744A7
:1041A0004A4612F8013D0133DBB213700BB95A4590
:1041B000F7D11021484616F0E5FBB7E714F8012BBC
:1041C00032B1FF2A14BF002303F001030021D6E718
:1041D0001346D4E724A84FF4007116F0D3FB102146
:1041E0000AA816F0CFFB0DF5257DBDE8F08F002F56
:1041F0007FF41AAF36E700BF13A10020A99A02008E
:10420000CD9A0200159B0200449B0200859B020090
:10421000A79B0200F49B0200239C020009000002FD
:104220005C9C0200004440047B9C0200002330B5EB
:10423000044689B01A4620216846FFF7ADFE69465C
:10424000204615F021FD65252378013BDBB2FD2BCF
:1042500005D82021684616F095FB09B030BD013D18
:1042600002D10748FEF7B0FF002368461A46202116
:10427000FFF792FE6946204615F006FDE4E700BF11
:10428000A69C0200014B1870704700BF14A10020CB
:10429000014A13F075B900BFCC9C020038B5044642
:1042A0004068FCF775FE0649FCF77AFF0546206872
:1042B000FCF76EFE01462846FCF7B6FD38BD00BF90
:1042C00000247449084B1B685BB9084B1B6843B951
:1042D000074B1B68003B18BF0123064A00201370E0
:1042E00070470123F9E700BF145000201050002050
:1042F0000C50002018A10020014B1878704700BF17
:1043000018A1002073B5524D1C220021044622F052
:1043100073F9286860B317F0D4FA48BB6A460D21D8
:10432000286817F0D2FA28B96846FFF7B7FF0123CB
:10433000206023756A461021286817F0C6FA28B94C
:104340006846FFF7ABFF012360606375414B1B7844
:1043500073B16A460E21286817F0B7FA40B968466B
:10436000FFF79CFF3C49FCF767FE0123A060A375A3
:104370003A4E306818B3A37D0BBB2B68984201D02E
:1043800017F09FFA6A460E21306817F09EFA40B97E
:104390006846FFF783FF3049FCF74EFE0123A0601B
:1043A000A375237D5BB96A460D21306817F08DFA3D
:1043B00028B96846FFF772FF012320602375284D56
:1043C0002868E0B117F07DFAC8B96A46122128685A
:1043D00017F07BFA28B96846FFF760FF01232061D8
:1043E0002376237D5BB96A460D21286817F06DFAA4
:1043F00028B96846FFF752FF01232060237519484A
:104400001FF091F978B1174817F05BFA58B96A466E
:104410000C21144817F059FA28B96846FFF73EFFF7
:104420000123E060E375207D68B9637D4BB9A07D11
:1044300058B9237E2BB9E37D002B14BF00206FF009
:104440003C0002B070BD0020FBE71846F9E700BF52
:104450001450002019A1002000002041105000201D
:104460000C50002010700200014B1878704700BFFC
:1044700015A100202DE9F0434422002185B0044617
:1044800022F0BAF83D4B1B78002B70D03C4D2868C9
:1044900000286CD03B4B1B78022B41D10026B14643
:1044A000394F3B7884F840303B78B34203DC00203E
:1044B00005B0BDE8F0830136CDE90269286883685C
:1044C000D3F80080B8F1000F28D014224C2102ABA1
:1044D000C04718BB286817F0F4F9F8B96A462A21D2
:1044E000286817F0F2F918B96846FFF7D7FE206080
:1044F0006A462C21286817F0E8F918B96846FFF7D2
:10450000CDFE60606A462D21286817F0DEF918B9E3
:104510006846FFF7C3FEA060012323731034C3E78E
:10452000012384F8403017F0CCF918BB6A462A21E1
:10453000286817F0CAF918B96846FFF7AFFE20607F
:104540006A462C21286817F0C0F918B96846FFF7A9
:10455000A5FE60606A462D21286817F0B6F918B9E3
:104560006846FFF79BFEA060012323739FE76FF06F
:1045700012009DE76FF004009AE700BF15A100202C
:104580000850002017A1002016A1002070B4CE7D95
:1045900046B1CD68541B054DAC4203D81BB970BC65
:1045A00017F096BA002370BC184670478097060033
:1045B0002DE9F84F032B0646894690461F460A9D73
:1045C0002FD817F071FA0446A0B38668464528D262
:1045D000C1689620691AA8EB0606761A4FF0000308
:1045E0003C4AA1FB000169EB0909FCF747FF10F108
:1045F0002D020B4641F10001B24271EB09010ADBC9
:104600006FF02C024FF0FF31121A61EB0303964258
:1046100079EB030307DA01232561A382C4E902854C
:10462000A775BDE8F88F4FF6FF72A38A9342F5D0C5
:104630000133F2E71821034606F1170001FB03F2EC
:1046400010F802C0BCF1000F0ED1B418D9F8003038
:104650002360D9F80430C4E9028563600123256131
:10466000A382A775E375DCE70133202BE6D1314641
:104670004FF0000A4FF0180B2A46304617F028FA80
:10468000CB6818B11448EA1A824217D98A7DBA4217
:1046900014D9ECB1A07D82421AD803D1888AA28AAB
:1046A000904215D30BFB0A6260695269424032F0B6
:1046B0007F4203D1E268934238BF0C460AF1010AF7
:1046C000BAF1200F01F11801D6D1002CBED1A8E714
:1046D0000C46F3E740420F0080510100034690F87A
:1046E000100338B1D3F80C330348C91A81428CBF88
:1046F00000200120704700BF7F3A09002DE9F347F1
:104700008A4616460021182204461D4621F074FFF1
:10471000DAF800733246BE422CBF00230123514613
:10472000237404F1180000932B4617F0DEF9237E62
:104730001BB940F20123238014E0BE422ED2A37E97
:10474000022B02D840F20133F5E7D4E90832B3F185
:10475000960642F1FF32B6F5167F72F1000305DAD4
:1047600001236370204602B0BDE8F0872946504619
:10477000FFF7B4FF08B10523F3E79AF8203343B1FC
:1047800045F25F41DAF81C33EB1A8B4201D806235D
:10479000E7E70223C4E902622370E3E7637E052BA7
:1047A000D0D9A27EB3EB420F02DB40F20143C2E755
:1047B000D4E90887002F4646B94602DA764267EB0D
:1047C0004709B6F5167F79F10003C9DB2946504643
:1047D000FFF784FF0028CED19AF8203333B145F299
:1047E0005F42DAF81C33EB1A9342D0D99AF81833A7
:1047F000ABB14FF49670DAF81433154AED1AA5FBF5
:1048000000010023FCF73AFE10F5167041F100019B
:10481000B04271EB090102DA40F201738BE7022327
:1048200018F5616F424640F6116123703B4677F1FF
:10483000FF37BCBF4FF0FF33064A8A4273F10001D5
:10484000A4BF4FF461620023C4E902238AE700BFDA
:1048500040420F00F0F1FFFF0138C0B206289ABFB6
:10486000024B53F820000248704700BF50820200FC
:1048700038A002002DE9F04FB1B00B9305463A9BEA
:104880008846164601460B9A16A89DF8ECA0FFF73D
:1048900035FFDDE91E799DF858209DF86830022A21
:1048A0009DF87040099340F03581DDE9181095F8C6
:1048B000042322B1002880F2A081B74A04E0B74B5C
:1048C0008B428241B64A07DB4FF0FF3CB54B994221
:1048D00070EB0C0C00DB0B46B348B149DDF824C08B
:1048E000BCF1000F18BF014622A8CDE90012382103
:1048F000AE4A12F045FEBAF1000F00F03081AC4B29
:10490000A74A9DF871109DF872009DF873C0002CA5
:1049100000F028814FF0000EA04CBC427EEB090E47
:1049200007DB4FF0FF3E9F4CA74279EB0E0EA8BF6E
:104930003C46209F0DF1880ECDE90110CDE903C45E
:10494000009231464046CDE9057E9A4A12F018FEA3
:10495000041EC0F24D81B44280F04A81D5F82C3358
:10496000FBB1D5E9CE1C00208C4AD5F830738A42C1
:1049700070EB0C0007DB4FF0FF308A4A91427CEB72
:104980000000A8BF0A46CDE90072311B08EB040005
:10499000894A12F0F5FD241800F12A81B44280F012
:1049A0002781D5F834335BB1311B08EB0400834A0F
:1049B00012F0E6FD241800F11B81B44280F018814A
:1049C00028463A99FFF78AFE98B13A99284617F097
:1049D00017FA4FF46163311BB0FBF3F3784A08EB2D
:1049E000040012F0CDFD241800F10281B44280F0E1
:1049F000FF80D5F82833311B009308EB0400D5F86D
:104A00002433704A12F0BCFD241800F1F180B44246
:104A100080F0EE8005F540730A934FF0000A2B46B4
:104A2000DA7D0AB10AF1010A0A9A18339342F7D1E2
:104A30004FF0000BD946CA4540F3A9802F468BF0B2
:104A400001030F93FB7D002B00F09580099B3946F5
:104A500028463A9AFFF79AFD0F9B834240F08B80DD
:104A600008EB04030893331B0C933B783A9A0D939D
:104A70007B78B98A0E93FB686329A2EB0303BA68BB
:104A800028BF63219B184FF0000242EB020E0B9AE5
:104A900097F816C09B1A414A6EF1000E9A424FF0E9
:104AA000000272EB0E025FDB3E4A93424FF0FF3290
:104AB0007EEB02025ADBDFF8E8E0434ACDE901C1B0
:104AC000002808BF7246CDE903320E9B3F4A00938F
:104AD000311B0D9B08EB040012F052FD002802DB95
:104AE0002044B04244D30023089ACA4513704EDDD7
:104AF000AAEB09031821364A10A812F041FD0C9BBD
:104B00000546834243D9421C10A9089821F067FD4D
:104B10002C443CE0BDF85830B3F5807F15D1B9F195
:104B2000000F3B464A4602DA7B4269EB490240F2FB
:104B30002D118B4272F10002B4BF264B264B274A3F
:104B4000382122A812F01CFDD5E69DF85900FFF788
:104B500083FE03460AB9224AF2E7224AF0E7224BD3
:104B6000224ACEE62746E5E60C4BA4E70D4BA2E72A
:104B7000044609F101090A9B18379F427FF462AF8E
:104B80000BF10103022B4FF0010B7FF454AF2046D1
:104B900031B0BDE8F08F00BFE29C02000094357791
:104BA0006ABA0200006CCA88FB9C0200219D0200C8
:104BB00038A90200459D02007A9D02009A9D0200DC
:104BC000A89D0200B29D02001E9D0200C69D02002B
:104BD000E29D0200089D02000B9D020040A0020021
:104BE0002E9D0200389D02008CA70200139D02003A
:104BF0000023741E08F80430C9E70022024B8B42E0
:104C00008241024A66E600BF009435776ABA020024
:104C1000034BD3E8AF0F003818BF0120704700BF27
:104C200024500020024610B5044BD3E8EF1FC3E820
:104C3000E42F002CF9D105F009FB10BD2450002011
:104C4000034BD3E8EF2FC3E8E10F0029F9D17047F8
:104C500020500020024BD3E8AF0FC0B2704700BF16
:104C60001C500020034BD3E8EF2FC3E8E10F0029CD
:104C7000F9D170471C500020034BD3E8AF0F003828
:104C800018BF0120704700BF185000201FB508B1A1
:104C9000002303700E4819F011FF6946002005F04B
:104CA000B9FD014630B90098826819F0C2FC00983D
:104CB00019F094FC064806F03FFD6946054819F0D6
:104CC000DAFEB0FA80F0400905B05DF804FB00BFE1
:104CD000E4020020329E020010B50446FEF78EFB6F
:104CE000014B2046236010BD7C82020010B50446B3
:104CF0004FF400620349FEF73BFC2046BDE810403C
:104D000016F0CEBA20A80020014815F090BE00BFD2
:104D1000A801002010B547F6122C0446002140F2ED
:104D2000E7304FF47A720023E4FB0C01FCF7F6FB4A
:104D3000BDE8104002460B4601480EF01FBE00BF02
:104D40003000002038B5064D2B681BB1441E14F806
:104D5000011F01B938BD286817F0E8F8F7E700BF70
:104D60005C55002010B5044690B0A368DB6BBBB95E
:104D7000A3689B6BD3B9A368DB6AE3B9A3681B691B
:104D8000002BF2D04022694620469847021EECDDF7
:104D900069460B4819F09AFB0A480EF047FDE4E714
:104DA000204698470028E3D110B010BD2046984710
:104DB0000028E0D1F8E7204698470028D5D0DDE765
:104DC00048550020B001002013B5144B186810B3EB
:104DD00003685B6B9847322838BF32204EF6602359
:104DE0009842044628BF1C4647F6122C40F2E73092
:104DF00000214FF47A720023E4FB0C01FCF78EFBD8
:104E000002460B4600210020CDE9000104480FF0C6
:104E100081FB02B010BD4EF66024E5E7445500204A
:104E200060070020014601481FF066BA6455002063
:104E300030B52E4CC3B00DF10705012229462C4890
:104E400019F064FB012801D043B030BD2978294A0C
:104E50000D291378117045D00A291CD10D2BEAD0E9
:104E600000252388244A2449D55402A8FF2221F092
:104E700012FC8DF8075100220023204802A91EF0E1
:104E80004BFD20B90420FFF7CDFF2580D3E71C4858
:104E9000FFF758FFF9E77F29238801D0082913D1AC
:104EA000002BC8D0174D013B286823800028C2D0B2
:104EB000082117F03BF82868202117F037F808215F
:104EC000286817F033F8B6E7FE2BB4D80D4B1868F6
:104ED00008B117F02BF8238829785A1C2280064A3B
:104EE000D154A8E70D2BBBD00A2BB8E710A10020A6
:104EF000485500201BA100201CA200201C080020F7
:104F0000379E02005C55002010B5029C039B012CCB
:104F100073F100030FDB2146074816F06FFC074BC7
:104F2000D3E8EF2FC3E8E14F0029F9D1BDE81040E5
:104F30004020FFF777BF10BD385500206055002096
:104F4000024B1B680BB183F82003704744550020C7
:104F50007FB50024144E154B154D16483360746010
:104F6000B46018F007FA2346134A14491448FFF7AF
:104F7000B3FE2846134B21464FF4A06240F8043B91
:104F800021F03AFB104BC5F80445C5F80C45C5F8AF
:104F900008450B4A0093CDE901650C4B06490C48C6
:104FA00000F084FC04B070BD385500203882020047
:104FB000285000201AA10020A8010020F06F020054
:104FC000A839002060830200A0010020A401002075
:104FD000500800202DE9F7432C4B1B68002B51D0C3
:104FE0002B4C2046FEF75AFB0546204616F046F8A5
:104FF00006462046FEF76CFB0746204616F04BF8A7
:105000008046204616F05EF88146204615F058FD91
:1050100000B243463A463146CDE90090284605F0B5
:1050200005FA204616F04CF80546204616F040F8E2
:105030000646204694F8718A15F039FD0746204649
:1050400015F054FD04F11803D3E8AF3F003B18BF3F
:1050500001234246CDE9000331463B46284605F090
:10506000FBF904F68C33D3E8AF0F04F53963D3E8CA
:10507000AF1F04F69434D4E8AF2F03B0BDE8F0437B
:1050800005F000BA03B0BDE8F08300BF445500202E
:10509000A83900202DE9F041AF48DCB015F0CDFC77
:1050A000AE4C20461EF03FFB50B12269A168136848
:1050B000204643F0010313600B68A94A002198477A
:1050C000A84801F019F908B9FFF7E0FDA5481CADA3
:1050D00001F0F6F816F0DAFBFFF7F4F816F0F8FB3B
:1050E000284616F0A0FE18B129689F4816F086FBE6
:1050F00016F0CEFB9D4C60B19D4816F0C4FB9D4858
:1051000016F0C2FBD4F8280316F0CBFB012016F0F2
:10511000C3FB994E05F068F916F080FEFFF7ECF836
:10512000346096481FF0E2F8954F964B964AC7F8C0
:10513000D43A0023C7F8DC2A944A04A8C4E914230B
:10514000934AC7F8D83AC4E91623C7F8E03A14F0EE
:105150008FFD844804A901F01BF930B904A8FFF7BA
:1051600065F8804804A901F059F9DFF82882602227
:1051700004A9894821F033FA41467A4801F046FBF8
:1051800094F82003C7F80C80003818BF0120FFF7FF
:1051900049FD94F82103FFF753FD94F82203FFF72C
:1051A00061FD7049A8F5287017F001FE94F8A4324B
:1051B0002BB17A4908F10400FCF70AFA88B90821F2
:1051C000284607F07FFB03280BDDEB7820210293B4
:1051D000AB78734A01936B78724800932B7812F086
:1051E000CFF994F8B0136648003918BF012115F0C3
:1051F000C4FC94F8B1136248003918BF012116F0BD
:105200006DFE94F8B2135E48003918BF012116F004
:10521000B5FA94F8C03394F8B613019394F8B933FF
:105220000039009318BF012194F8B83394F9B723DB
:10523000534816F04BF9524894F8C08315F043FCDC
:10524000804597F94D3A03D194F9B7239A4209D092
:105250004B4884F8B73315F036FC84F8C003434854
:1052600017F04BF894F8BE034F4C003818BF0120DC
:1052700004F022FF4B4805F019F9FFF7ABFE4B484D
:1052800005F00EF8344815F0D2FB002105F002F9C4
:1052900016F0FEFA05F018F90023454A45480EF0CD
:1052A00035FB454820601EF03EFA002852D0434BA3
:1052B000434A4FF400711A600022C3E901222068BA
:1052C000DA60196183681BB11B6C0BB13D499847CB
:1052D000206883681B6A03B198473B48FFF732FD9B
:1052E000FFF772FD394F4FF0FF334FF0FF3240F2BE
:1052F000FF11CDE90023214800221FF004F80446E5
:1053000001461E481EF0FBFFE30601D516F0D8FA51
:10531000600763D53368002B60D000222946002344
:105320002B480DF0BDFF01463068002956D13B46A1
:105330002A46397000F0DAFBFFF74CFE3B782BB1C0
:105340002448FFF7FFFC3846FFF7FCFC2248FFF734
:10535000F9FCDFE72060C0E7A8010020506E0200E2
:1053600001000A001AA10020385500205008002032
:10537000094F0000BBBF01004455002064550020C8
:10538000A8390020B5BF0100AFBF0100154D0000D6
:10539000A7BF0100F00A0020640A0020459E020019
:1053A0004E9E0200F40A00205C550020094D0000CA
:1053B000B4C4040000000020B06E02004855002074
:1053C0001CA30020654D0000689E02001CA1002067
:1053D0001C080020869E0200839E0200306840B1B7
:1053E000210606D5036800224FF4FA71D3F8D030B5
:1053F0009847306828B140F227131C4201D017F0BB
:105400008AFE306808B114F0F4FD22070AD530682E
:1054100008B117F080FE174816F0D9F905F040F8EA
:10542000FFF7D8FD630621D5134BD3E8AF0F16F075
:10543000FCFCD6F80080B8F1000F17D01EF082FDFA
:105440004FF47A74A0FB040C47F61222002304FBED
:1054500001C1FCF763F84FF47A720023FCF70EF8F1
:10546000014608F53850183016F026FCFFF7ACFC62
:1054700039E700BF385500206055002008B54FF0CF
:105480007E51D0F8A002FBF7CFFC01460548FBF7A0
:1054900087FE4FF07C51FBF7C7FCFBF7CFFFC0B294
:1054A00008BD00BF0000C842004870478E9E020041
:1054B000004870478E9E0200004870479E9E020082
:1054C000004870479E9E020000487047E5A2020017
:1054D00000487047E5A202000048704700A30200A0
:1054E0000048704700A3020010B590F8EE12044681
:1054F00021B1044B594314F093F80146C4F89012BB
:1055000010BD00BFC0D4010010B590F8EF120446E2
:1055100021B1044B594314F083F80146C4F89412A6
:1055200010BD00BF80EE360003462DE9F341D0F8F0
:1055300078025E6E9F6EB3F86C8003680C461B6841
:105540009847336805461B68304698473B680646CF
:105550005B69384698474FF47A73CDE90080B6FB13
:10556000F3F32A462046034912F034F802B0BDE8AE
:10557000F08100BFAA9E02002DE9FF47046ED0E92A
:1055800005A5236820461B6A0F46984723680646F0
:105590009B6B2046984723688046DB6B20469847E4
:1055A00081464046FBF724FF4FF47A73B5FBF3F5D1
:1055B000BAFBF3F30FFA80F8484602930395FBF722
:1055C000C3F836B2CDE900014346324638460349B6
:1055D00012F000F804B0BDE8F08700BFE89E0200BA
:1055E0002DE9F04F046E87B02368D0E91089D0E927
:1055F00012AB9B6E20460D46984723680646DB6E2D
:1056000020469847236807461B6F204698473B462D
:10561000CDE903B032462846CDE9019A0349CDF8D9
:10562000008011F0D7FF07B0BDE8F08F3C9F02006B
:1056300010B5406F88B003681B6898470023044684
:10564000069006A8079311F0E1FEA8B14369302146
:1056500003F26C73049303690B4A01330393C36829
:10566000029303680193436800938368074811F02D
:1056700087FF064808B010BD23463021044A03487E
:1056800011F07EFFF5E700BF9D9F02001CA50020E2
:10569000ACA502002DE9F04F80460E46002500F52E
:1056A0001353B9B0283300F53652596A31B138A8CE
:1056B000691C00EB850545F8C83C0DB22C339342BC
:1056C000F3D106AB0022994605F1FF3A524514DBAF
:1056D000344600274FF00A0ABD4202DDA31B852B8A
:1056E00021DDB44204D120462049FBF77BFF06347C
:1056F0000023237039B0BDE8F08F01321C461746F5
:10570000BD4201DC0433E1E760681968D0F824C0C9
:10571000D1F824E00137F44588BF186004F104048F
:1057200088BF2160ECE759F827B00FB104F801AB4E
:105730000422594603A8FDF757FDD8F87400036802
:105740001B689847DBF824309BF92820C31A009285
:105750002046074903AA11F03DFF23461C4613F8D3
:10576000012B002AFAD10137B6E700BF33A00200AF
:105770002AA0020070B504460D4610460649FBF704
:105780005BFCFBF735FE294603B267222046BDE8E5
:10579000704016F0F8BD00BF000020412DE9F04137
:1057A0000546406F1F46036890461B68069C984755
:1057B000014605F51250383016F071FE48B354B367
:1057C0003B7805F5805686F8E83953B105F5CD509C
:1057D000621E791C083014F0B6FF10B9FF2386F85A
:1057E000E839C6F8F088686F05F5C75403681834BF
:1057F0001B6898470949C6F8F40805F54E7305F586
:105800002972204611F0E6FE2046FBF7F3FE083031
:10581000C0B2BDE8F0812046FBE700BF3DA002001A
:1058200070B590F8ED420546ACBB0A78104616F00C
:10583000D8FD70B30B7995F81C6303F03F039E42CB
:1058400029D902F00306012E03D195F81D639E426B
:1058500021D902F03C02102A03D195F81E239A4266
:1058600019D905F50053D3F89034B3B195F8D13375
:1058700063B1012B0BD00A4A0A48022B08BF02462B
:10588000284617F0E4F880F00100C0B270BD064A67
:10589000F6E70120FAE70020F8E71846F6E700BF30
:1058A0002C07002030070020340700202DE9F043AA
:1058B000044685B004200E46154698460D9F18F004
:1058C000A4FA08B17D4B03600E9B42462946CDE900
:1058D000010300970C9B2046FCF72CFF784B04F546
:1058E0008269236003F59C7304F58055C4E99D36F5
:1058F000484616F08BFDC5F81868002000260021E8
:1059000004F51D73C5F8283804F5287804F5C1534B
:10591000C5F81C78C5F8209885F8E068C5F8248893
:10592000C3E9320104F5C550664910301EF020F974
:10593000C5F80C6B04F5CF550C3504F5D850294645
:10594000103001F0CFFB294604F5FE5001F0CAFBF0
:10595000782204F5005504F513570423C5F8AC2448
:105960002837B422C5F8B064A5F8B464C5F8C0649B
:10597000A5F8C464C5F8D064A5F8D4643E46C5F85B
:10598000A834C5F8B834C5F8BC24C5F8C834C5F87F
:10599000CC2404F5365930462C3614F057F94E45D0
:1059A000F9D104F5385000224749183016F057F85D
:1059B00000260022002304F51250C4E9A223C4E902
:1059C0009F66C4E9A4661022C5F8E464C5F8846D36
:1059D000C5F8806D314684F89862153085F8E0642A
:1059E000C5F8906485F8946420F006FEC5F8D86484
:1059F000C5F8DC6438462C3716F065FD4F45F9D103
:105A00004FF4B8720021404620F0F6FD2F4B0F22D4
:105A1000C4F8A0322E4904F5367020F03CFE0F2267
:105A20002C4904F53E7020F036FE2B4B0125C4F8BE
:105A3000E83240F20753A4F81433162384F8EC320A
:105A40002F2384F8EF32254B2549C4F80C334FF04F
:105A50007C53C4F8F432234B84F8B653C4F80833AB
:105A6000214B84F80354C4F8183344F24003A4F8DB
:105A70001C33082384F81E334FF49673C4F828337C
:105A800040F20113A4F8B03340F60F73A4F8B83312
:105A90004FF6FF7384F80854A4F80A3404F529700B
:105AA000FBF7A0FD0223204684F82C3384F8D13381
:105AB00084F8CF5305B0BDE8F08300BF94800200A6
:105AC0007483020045DD0100889B9A6A0000104142
:105AD0004AA602006ABA02008D675944CDCC4C3EFA
:105AE000459E02009A99993E00007A422DE9F043C2
:105AF00000F5005898F8E0C406460F4614461D46C7
:105B000095B0BCF1000F04D015B0BDE8F04300F033
:105B1000DBB81AB1511E11F8013F23B900232B70D5
:105B200015B0BDE8F083093BDBB2172B04D85B4A04
:105B300022FA03F3DB07EED42246144612F8013BA7
:105B4000202BFAD02046FBF755FD04280AD9A3786C
:105B50007C2B07D12388033525F8033CA378033435
:105B600005F8013C082220464D4920F054FD8146AD
:105B700000284AD108342021204620F05CFD074649
:105B800030B94849284615B0BDE8F043FBF72ABDB7
:105B9000204607F8019BFBF72DFD02282AD849462D
:105BA0001022204612F05AF85FFA80F93846FBF7C7
:105BB00021FD402828BF402044103A46214603A832
:105BC00014F0E8FEF8B12346CDF8009003AA06F5DC
:105BD000057106F5826001F037FA90B1D8F8E43427
:105BE00033B941F28831304613F01AFDC8F8E404A5
:105BF0002D49C7E7384620F00AFD27465FFA80F9AD
:105C0000D4E72A49BEE72A49BCE7D7B92046294943
:105C1000FBF7DEFC8046A0B906F2144406F5805678
:105C2000D6F814389845BFF679AF94F8203023B1F0
:105C30002022214603A8FDF7D7FA08F10108A03475
:105C4000EEE7062220461C4920F0E5FC38B92A463A
:105C50002146304615B0BDE8F04300F0BDB8122231
:105C60002046164920F0D7FC60B9113414F8013FE2
:105C7000202BFBD00BB1124984E7304617F06CF8AB
:105C800010497FE72B462246394606F5C0501830AA
:105C900015B0BDE8F04301F06BBC00BF13008000FD
:105CA00043A002004CA002005DA0020060A0020020
:105CB00075A0020086A002009FA102008EA0020033
:105CC000A1A00200C9A002002DE9F04704468846C1
:105CD0001E4615461AB1511E11F8012FB2B904F52E
:105CE000805504F5FE514FF4966205F5316020F0C1
:105CF00076FC002304F5005484F8E0343046B5F80F
:105D00001A2B3349BDE8F04711F064BC093AD2B20E
:105D1000172A03D82F4BD340DB07DDD42B46187846
:105D20001F4620289A4603F10103F8D0B7EB050976
:105D30000ED101F0EBF958B104F5005383F8E0946B
:105D40002A46334641462046BDE8F047FFF7CEBE1F
:105D500055461AF8010B01F0D9F90028F8D12B7833
:105D60000BB128705546A84615F8013B0BB1462BE0
:105D7000F9D109F1FF33062B1ED83B78E3B104EBD0
:105D8000890909F50059D9F86C54ADB104F5D8501A
:105D90003946103001F0D0F904F5FE542A88054642
:105DA00070B103883946204617F0C0FD20B14DB1CF
:105DB0002B790371C9F8700400233370BDE8F087B4
:105DC0000346EFE798F80030463B18BF0123F0E7A1
:105DD000EEA002001300800000232DE9F04F0446DE
:105DE00087B00F46137015460B461E4632780133B6
:105DF000202AFAD00A223046AA4920F03AFC00288C
:105E000077D1B37A13F0DF0F73D106F10A031E4680
:105E100032780133202AFAD0304617F09BFA3378D3
:105E200033B9A149284607B0BDE8F04FFBF7DABB0C
:105E30004FF0000804F5D854103404F28C4933783C
:105E4000B246202B06F10106F9D063BBA0222946F9
:105E5000204607B0BDE8F04F17F018BE1FB13B78E1
:105E60000BB99249DEE7B9F80020002359462046D5
:105E700017F05CFD814640B95B468D4AA02128465B
:105E800007B0BDE8F04F11F07BBB80F80480002F15
:105E9000D5D03946204601F07FF981460028CED181
:105EA0003B46844AEAE753461A781E46013322B13C
:105EB000202AF9D186F800801E4653461A4613F868
:105EC000017B6FB17C2F01D02C2FF7D182F800809D
:105ED0001F4613F8012B202AFAD0384617F03AFA59
