:020000040800F2
:1000000020C00220ED0C0108CD8C0308D90C01089A
:10001000D90C0108D90C0108D90C0108D90C010828
:10002000000000000000000000000000450D010875
:10003000D90C010800000000550F0108D90C010877
:1000400055DA00080D1001080D1001080D10010807
:100050000D1001080D1001080D1001080D10010808
:100060000D1001080D1001080D1001080D100108F8
:100070000D1001080D1001080D1001080D100108E8
:100080000D1001080D1001080D1001080D100108D8
:100090000D1001080D1001080D1001080D100108C8
:1000A0000D1001080D1001080D1001080D100108B8
:1000B0000D1001080D1001080D1001080D100108A8
:1000C0000D1001080D1001080D1001080D10010898
:1000D0000D1001080D1001080D1001080D10010888
:1000E0000D1001080D1001080D1001080D10010878
:1000F0000D1001080D1001080D1001080D10010868
:100100000D1001080D1001080D1001080D10010857
:100110000D1001080D1001080D1001080D10010847
:100120000D1001080D1001080D1001080D10010837
:100130000D1001080D1001080D1001080D10010827
:100140000D1001080D1001080D1001080D10010817
:100150000D1001080D1001080D1001080D10010807
:0C0160000D1001080D1001080D10010821
:1001700081F0004102E000BF83F0004330B54FEA58
:1001800041044FEA430594EA050F08BF90EA020FC5
:100190001FBF54EA000C55EA020C7FEA645C7FEA58
:1001A000655C00F0E2804FEA5454D4EB5555B8BF7B
:1001B0006D420CDD2C4480EA020281EA030382EAEC
:1001C000000083EA010180EA020281EA0303362D7E
:1001D00088BF30BD11F0004F4FEA01314FF4801C51
:1001E0004CEA113102D0404261EB410113F0004F63
:1001F0004FEA03334CEA133302D0524263EB43031A
:1002000094EA050F00F0A780A4F10104D5F1200EB7
:100210000DDB02FA0EFC22FA05F2801841F1000112
:1002200003FA0EF2801843FA05F359410EE0A5F1E6
:1002300020050EF1200E012A03FA0EFC28BF4CF017
:10024000020C43FA05F3C01851EBE37101F00045CD
:1002500007D54FF0000EDCF1000C7EEB00006EEBDA
:100260000101B1F5801F1BD3B1F5001F0CD3490864
:100270005FEA30004FEA3C0C04F101044FEA4452BB
:1002800012F5800F80F09A80BCF1004F08BF5FEA42
:10029000500C50F1000041EB045141EA050130BD22
:1002A0005FEA4C0C404141EB0101013C28BFB1F534
:1002B000801FE9D291F0000F04BF01460020B1FA7F
:1002C00081F308BF2033A3F10B03B3F120020CDA52
:1002D0000C3208DD02F1140CC2F10C0201FA0CF030
:1002E00021FA02F10CE002F11402D8BFC2F1200C95
:1002F00001FA02F120FA0CFCDCBF41EA0C0190404B
:10030000E41AA2BF01EB0451294330BD6FEA040493
:100310001F3C1CDA0C340EDC04F11404C4F120027E
:1003200020FA04F001FA02F340EA030021FA04F390
:1003300045EA030130BDC4F10C04C4F1200220FAE7
:1003400002F001FA04F340EA0300294630BD21FA25
:1003500004F0294630BD94F0000F83F4801306BFEB
:1003600081F480110134013D4EE77FEA645C18BFDF
:100370007FEA655C29D094EA050F08BF90EA020F76
:1003800005D054EA000C04BF1946104630BD91EA6E
:10039000030F1EBF0021002030BD5FEA545C05D171
:1003A0004000494128BF41F0004130BD14F58004B0
:1003B0003CBF01F5801130BD01F0004545F0FE4124
:1003C00041F470014FF0000030BD7FEA645C1ABF59
:1003D000194610467FEA655C1CBF0B46024650EA90
:1003E000013406BF52EA033591EA030F41F40021BC
:1003F00030BD00BF90F0000F04BF0021704730B542
:100400004FF4806404F132044FF000054FF0000116
:1004100050E700BF90F0000F04BF0021704730B5D7
:100420004FF4806404F1320410F0004548BF4042AC
:100430004FF000013EE700BF42004FEAE2014FEA01
:1004400031014FEA02701FBF12F07F4393F07F4FDC
:1004500081F06051704732F07F4208BF704793F0DF
:100460007F4F04BF41F40021704730B54FF46074F2
:1004700001F0004521F000411CE700BF50EA0102F5
:1004800008BF704730B54FF000050AE050EA01029E
:1004900008BF704730B511F0004502D5404261EB0E
:1004A00041014FF4806404F132045FEA915C3FF44F
:1004B000D8AE4FF003025FEADC0C18BF03325FEAEC
:1004C000DC0C18BF033202EBDC02C2F1200300FA9D
:1004D00003FC20FA02F001FA03FE40EA0E0021FAC2
:1004E00002F11444BDE600BF70B54FF0FF0C4CF4B0
:1004F000E06C1CEA11541DBF1CEA135594EA0C0F62
:1005000095EA0C0F00F0DEF82C4481EA030621EA9C
:100510004C5123EA4C5350EA013518BF52EA0335D7
:1005200041F4801143F4801338D0A0FB02CE4FF089
:100530000005E1FB02E506F00042E0FB03E54FF0B9
:100540000006E1FB03569CF0000F18BF4EF0010EB1
:10055000A4F1FF04B6F5007F64F5407404D25FEAAD
:100560004E0E6D4146EB060642EAC62141EA555160
:100570004FEAC52040EA5E504FEACE2EB4F1FD0CA2
:1005800088BFBCF5E06F1ED8BEF1004F08BF5FEA20
:10059000500E50F1000041EB045170BD06F00046D2
:1005A00046EA010140EA020081EA0301B4EB5C047F
:1005B000C2BFD4EB0C0541EA045170BD41F4801177
:1005C0004FF0000E013C00F3AB8014F1360FDEBF9C
:1005D000002001F0004170BDC4F10004203C35DA78
:1005E0000C341BDC04F11404C4F1200500FA05F3FB
:1005F00020FA04F001FA05F240EA020001F000429C
:1006000021F0004110EBD37021FA04F642EB060111
:100610005EEA430E08BF20EAD37070BDC4F10C043B
:10062000C4F1200500FA04F320FA05F001FA04F2FF
:1006300040EA020001F0004110EBD37041F10001EB
:100640005EEA430E08BF20EAD37070BDC4F12005F6
:1006500000FA05F24EEA020E20FA04F301FA05F25E
:1006600043EA020321FA04F001F0004121FA04F206
:1006700020EA020000EBD3705EEA430E08BF20EAD6
:10068000D37070BD94F0000F0FD101F00046400010
:1006900041EB010111F4801F08BF013CF7D041EA92
:1006A000060195F0000F18BF704703F00046520096
:1006B00043EB030313F4801F08BF013DF7D043EA67
:1006C0000603704794EA0C0F0CEA135518BF95EA1D
:1006D0000C0F0CD050EA410618BF52EA4306D1D1A4
:1006E00081EA030101F000414FF0000070BD50EAC3
:1006F000410606BF1046194652EA430619D094EA4D
:100700000C0F02D150EA013613D195EA0C0F05D136
:1007100052EA03361CBF104619460AD181EA03018A
:1007200001F0004141F0FE4141F470014FF0000042
:1007300070BD41F0FE4141F4780170BD70B54FF0DD
:10074000FF0C4CF4E06C1CEA11541DBF1CEA13555D
:1007500094EA0C0F95EA0C0F00F0A7F8A4EB05043F
:1007600081EA030E52EA03354FEA013100F0888036
:100770004FEA03334FF0805545EA131343EA1263FF
:100780004FEA022245EA111545EA10654FEA0026B4
:100790000EF000419D4208BF964244F1FD0404F56D
:1007A000407402D25B084FEA3202B61A65EB0305C9
:1007B0005B084FEA32024FF480104FF4002CB6EB86
:1007C000020E75EB030E22BFB61A754640EA0C0006
:1007D0005B084FEA3202B6EB020E75EB030E22BF46
:1007E000B61A754640EA5C005B084FEA3202B6EB87
:1007F000020E75EB030E22BFB61A754640EA9C0046
:100800005B084FEA3202B6EB020E75EB030E22BF15
:10081000B61A754640EADC0055EA060E18D04FEAD3
:10082000051545EA16754FEA06164FEAC30343EA73
:1008300052734FEAC2025FEA1C1CC0D111F4801F40
:100840000BD141EA00014FF000004FF0004CB6E739
:1008500011F4801F04BF01430020B4F1FD0C88BFD8
:10086000BCF5E06F3FF6AFAEB5EB030C04BFB6EBE3
:10087000020C5FEA500C50F1000041EB045170BDD6
:100880000EF0004E4EEA113114EB5C04C2BFD4EB03
:100890000C0541EA045170BD41F480114FF0000E87
:1008A000013C90E645EA060E8DE60CEA135594EA03
:1008B0000C0F08BF95EA0C0F3FF43BAF94EA0C0F06
:1008C0000AD150EA01347FF434AF95EA0C0F7FF47B
:1008D00025AF104619462CE795EA0C0F06D152EACF
:1008E00003353FF4FDAE1046194622E750EA4106B3
:1008F00018BF52EA43067FF4C5AE50EA41047FF4C4
:100900000DAF52EA43057FF4EBAE12E74FF0FF3C28
:1009100006E000BF4FF0010C02E000BF4FF0010CF9
:100920004DF804CD4FEA410C7FEA6C5C4FEA430C72
:1009300018BF7FEA6C5C1BD001B050EA410C0CBFC1
:1009400052EA430C91EA030F02BF90EA020F002023
:10095000704710F1000F91EA030F58BF994208BF8A
:1009600090422CBFD8176FEAE37040F00100704747
:100970004FEA410C7FEA6C5C02D150EA013C07D19E
:100980004FEA430C7FEA6C5CD6D152EA033CD3D0E9
:100990005DF8040B704700BF8446104662468C46E3
:1009A0001946634600E000BF01B5FFF7B7FF002816
:1009B00048BF10F1000F01BD4DF808EDFFF7F4FF3F
:1009C0000CBF012000205DF808FB00BF4DF808EDCA
:1009D000FFF7EAFF34BF012000205DF808FB00BFED
:1009E0004DF808EDFFF7E0FF94BF012000205DF80F
:1009F00008FB00BF4DF808EDFFF7CEFF94BF0120C4
:100A000000205DF808FB00BF4DF808EDFFF7C4FFBC
:100A100034BF012000205DF808FB00BF4FEA41020F
:100A200012F5001215D211D56FF47873B3EB625240
:100A300012D94FEAC12343F0004343EA505311F067
:100A4000004F23FA02F018BF404270474FF00000F9
:100A5000704750EA013005D111F0004008BF6FF037
:100A6000004070474FF00000704700BF4A0011D2AD
:100A700012F5001211D20DD56FF47873B3EB6252F8
:100A80000ED44FEAC12343F0004343EA505323FA04
:100A900002F070474FF00000704750EA013002D179
:100AA0004FF0FF3070474FF0000070474FEA4102AF
:100AB000B2F1E04324BFB3F5001CDCF1FE5C0DD9BC
:100AC00001F0004C4FEAC0024CEA5070B2F1004F06
:100AD00040EB830008BF20F00100704711F0804F09
:100AE00021D113F13872BCBF01F00040704741F4CE
:100AF00080114FEA5252C2F11802C2F1200C10FAD2
:100B00000CF320FA02F018BF40F001004FEAC123B5
:100B10004FEAD32303FA0CFC40EA0C0023FA02F359
:100B20004FEA4303CCE77FEA625307D150EA01332F
:100B30001EBF4FF0FE4040F44000704701F00040FF
:100B400040F0FE4040F40000704700BF7BB972B92E
:100B50000029BEBF00204FF0004106E008BF00287A
:100B60001CBF6FF000414FF0FF3000F057B8ADF1FF
:100B7000080C6DE904CE002909DB002B1ADB00F01C
:100B80007CF8DDF804E0DDE9022304B07047404260
:100B900061EB4101002B1BDB00F06FF8DDF804E096
:100BA000DDE9022304B0404261EB4101524263EBB4
:100BB00043037047524263EB430300F05EF8DDF8F5
:100BC00004E0DDE9022304B0404261EB41017047DB
:100BD000524263EB430300F050F8DDF804E0DDE936
:100BE000022304B0524263EB4303704753B94AB93E
:100BF000002908BF00281CBF4FF0FF314FF0FF3025
:100C000000F00CB8ADF1080C6DE904CE00F035F839
:100C1000DDF804E0DDE9022304B07047704700BF4F
:100C200010F8012B11F8013B012A28BF9A42F7D096
:100C3000D01A7047034611F8012B03F8012B002A44
:100C4000F9D17047034613F8012B002AFBD1181A7B
:100C500001387047430803F05533C01A00F03333AE
:100C6000800800F0333018444FF0013300EB1010CF
:100C700000F00F305843000E70472DE9F0478C46C6
:100C80008E46089E154604461946002B40F0D0803B
:100C9000724547D9B2FA82F74FB1C7F120030EFA75
:100CA00007FCBD40BC4020FA03F343EA0C0C4FEABA
:100CB000154EA8B2230CBCFBFEF80EFB18CC08FBAB
:100CC00000F943EA0C43994528D9EB1808F1FF32A3
:100CD00004D2994502D9A8F102022B44A3EB0903DF
:100CE000A4B2B3FBFEFC0EFB1C330CFB00F044EA89
:100CF0000344A04214D92C190CF1FF3304D2A042B2
:100D000002D9ACF102032C44241A43EA02401EB17A
:100D1000FC40002334607360BDE8F0874246DDE7A5
:100D20006346F1E7002A79D0B2FA82F3002B3FD074
:100D30001946C1F1200302FA01F500FA01F42EFA76
:100D400003F20EFA01FE20FA03F3AFB243EA0E03F8
:100D50004FEA154EB2FBFEFC0EFB1C201A0C0CFBDE
:100D600007F842EA004290455AD9AA180CF1FF3020
:100D700004D2904502D9ACF102002A44A2EB080249
:100D80009BB2B2FBFEFC0EFB1C220CFB07F743EAF6
:100D900002439F4246D9EB180CF1FF3204D29F4226
:100DA00002D9ACF102022B44DB1B42EA004202E012
:100DB000AEEB020301224FEA154EAFB2200CB3FB9B
:100DC000FEFC0EFB1C330CFB07F840EA034398457E
:100DD0002AD9EB180CF1FF3004D2984502D9ACF1B6
:100DE00002002B44A3EB0803A4B2B3FBFEFC0EFBF2
:100DF0001C330CFB07F744EA0344A74216D92C190D
:100E00000CF1FF3304D2A74202D9ACF102032C4407
:100E1000E41B43EA00400F46114678E71F2188E7AC
:100E20006046ABE76246BFE76046DBE76346EFE755
:100E3000734506D916B9002108466DE7C6E9000ECC
:100E4000F9E7B3FA83F787B9734501D3824207D82C
:100E5000841A6EEB030301209C461EB900215BE758
:100E60003846FAE7C6E9004CF8E7C7F1200CBB406A
:100E700000FA07F422FA0CF520FA0CF1BA401D43EF
:100E80002EFA0CF30EFA07FE4FEA154941EA0E015D
:100E90001FFA85FEB3FBF9F809FB18300B0C08FBB1
:100EA0000EFA43EA00439A4540D9EB1808F1FF30A7
:100EB00004D29A4502D9A8F102002B44A3EB0A03FD
:100EC00089B2B3FBF9F809FB183308FB0EFE41EABF
:100ED00003418E452CD9691808F1FF3304D28E45A1
:100EE00002D9A8F10203294443EA0040A1EB0E0114
:100EF000A0FB02984145CE46434602D306D14C455D
:100F000004D20138B9EB020E68EB0503002EA5D020
:100F1000B4EB0E0261EB030101FA0CFC22FA07F3B9
:100F2000F9404CEA0303C6E9003197E74046C5E7BC
:100F30004346D9E7000000009FED010B704700BF5A
:100F400000000000000000009FED010B704700BF93
:100F5000000000000000000070B594B00C4633F0B3
:100F60004EFD30B920462A4914B0BDE87040FFF765
:100F700061BE07A833F059FD9DF81C300CA8022B68
:100F800096BF244A244D52F8235033F046FDBDF855
:100F90001E6008B3DDE90E01FFF778FA1AA3D3E962
:100FA0000023FFF7CBFBCDE90401DDE90C01FFF7DE
:100FB0006DFA15A3D3E90023FFF7C0FB089BCDE929
:100FC0000201CDE900634FF480712B462046134A9D
:100FD0002FF07CFE14B070BD099B4BB1CDE90063CE
:100FE0004FF480712B4620460D4A2FF06FFEF1E73B
:100FF0002B464FF4807120460A4A00962FF066FE79
:10100000E8E700BFAFF300800000000065CDCD41F0
:10101000152A0508ACB00408613205084228050805
:1010200074280508982805080B4640F20112D0B52F
:101030008EB00446CDE9012313A3D3E9002351EC7C
:10104000100B57EC116BFFF74FFAFFF7E7FC0EA3FD
:10105000D3E90023039039463046FFF745FAFFF7FE
:10106000DDFC0023049006A901A8059333F035FDAB
:1010700006AA034604F50571204632F0E0F90EB0E9
:10108000D0BD00BFAFF300800000000080842E417F
:101090002DE9F04F00F58833D3F8343905460C4676
:1010A00017469DB00BB1984703460A267422B3FB3E
:1010B000F6F34FF001086270C3F30722A270BA077B
:1010C00084F80080E37040F1208133F096FC002822
:1010D00000F0E6800AA833F0A0FC002800F0E080D1
:1010E000DDE90A018823AC4A84F804806371002397
:1010F000FFF72CFD00230546DDE90C01A64AFFF7AA
:1011000025FD0E9BC5F3074C93FBF6F3C0F3074890
:10111000C5F30726C0F3072EC3F30742C3F3072125
:10112000EDB2C0B2DBB225720F2584F806C0E671BD
:1011300084F8098084F80AE0E07222736173A37373
:1011400003A804F01DFC7B07019040F18380002878
:1011500040F0E0809DF82070A7B1DDED037AB2EE9B
:10116000047A012367EE877A6355FDEEE77A6723F9
:1011700061194B7017EE903AEA1CC3F30720887090
:101180000435A3549DF821307BB1DDED047A77EE70
:10119000A77A01236821FCEEE77A63556319597039
:1011A00017EE903AAA1CA35403359DF82230A3B140
:1011B000DDED057AB2EE047A012367EE877A635596
:1011C000FCEEE77A732361194B7017EE903AEA1C34
:1011D000C3F3072088700435A3549DF824300BB363
:1011E0009DED077AB5EEC07A01236522F1EE10FA83
:1011F000635504EB050305F102015A7000F1878085
:10120000DFED667AB4EEE77AF1EE10FA77FE877AD0
:10121000FCEEE77A17EE903AEA1CC3F3072060541D
:101220000435A35404F050FC98B10AA804F052FC11
:1012300078B902214FF074089FED597A4FF0750983
:10124000DFED586A4FF0800A9DF868E00AAA8645EB
:1012500062DCCFB9019BBBB99DF82330A3B1DDEDB2
:10126000067AB2EE047A012367EE877A6355FDEEC3
:10127000E77A672361194B7017EE903AEA1CC3F3C3
:10128000072088700435A35433F0B7FB20B133F046
:10129000B6FB08B133F0C8FB28461DB0BDE8F08F9F
:1012A00005F58B360022D6E978010023FFF784FB91
:1012B00030B1D6E97A0100220023FFF77DFB20BB85
:1012C0000123237188236371D6E9780130A3D3E920
:1012D0000023FFF709F9FFF7A1FB2DA3D3E90023B2
:1012E0000546D6E97A01FFF7FFF8FFF797FB0022E2
:1012F000C5F3074CC5F30726C0F30748C0F3072E14
:1013000011461346EDB2C0B20DE7042518E7DFED34
:10131000267A7DE7002785E7137BB3B3D2ED007A09
:1013200067EE877AFDEEE77A17EE90CAD2ED017A82
:1013300067EEA67AFDEEE77A63196155CCF3072BC9
:1013400083F803C017EE90CAD2ED027AFCEEE77A7A
:1013500017EE906A83F802B0CCF3072B197183F86B
:1013600006B083F807C0197205F10B0CC6F3072B02
:10137000013183F8018083F8059083F809A083F890
:101380000AB00C3504F80C60C9B2013010325EE7C7
:10139000000000000088C340A086010000FF7F47D6
:1013A0000000C84200007A44000000000000000075
:1013B0002DE9F04F04460E461546F5B0002A4FD0F1
:1013C00036F006FB0746002840F0F88096F80080CB
:1013D00008F1FF33412B43D8DFE813F046009F03A9
:1013E0001A04F20065057B05420492044701520489
:1013F000B7042005E8012F05CB013D0350039203FC
:1014000053065F020906B7052F06AF07FC072C0835
:101410005F088A089308F70109022202CC06EF064A
:101420000E074207AA0686069C086F09C0094709ED
:10143000D705420042004200420042004200D90863
:101440003C0603094200190AAC0A8302760BBF0A64
:10145000D20AE10A1A0B2B0B470A7F0AFC0BCD0BB1
:10146000002075B0BDE8F08F072D01D8062190E16E
:10147000002704F5883686F8407904F5E035D5F87C
:101480002C0E85F8647618B136F0E6FCC5F82C7E93
:101490000023C5F8303EC5F8343E04F5E835C5F8FC
:1014A000203105F594703EF004F901232046A5F89B
:1014B0001E3136F061FA96F820396BB195F81F317C
:1014C00053B9AB6D43B1204608F000F820B1606F0E
:1014D00003681B689847A86540F20513ADF8CC3047
:1014E00096F8043833ADAB70162334AFEB7004F5C7
:1014F0000D7C04F505733A4618685968083303C231
:1015000063451746F7D1CDA3D3E9002304F58B3704
:10151000D7E97A01FEF7E8FFFFF780FAC7A3D3E91E
:1015200000238046D7E97801FEF7DEFFFFF776FA61
:1015300096F82F3896F8DC2885F82C3096F8443841
:101540009FEDBD7A85F82D3096F8DB381F219B0082
:1015500043EA021396F8DA28C5E90908134385F827
:101560002E3096F8D93885F82F3004F58C33D3ED2A
:10157000007A67EE877AFCEEE77A06F50363C5ED3D
:101580000C7AD3ED007A67EE877AFCEEE77AB6F84C
:101590002C3807F5DE76C5ED0D7A2B87304647F0FF
:1015A00022FA0746024631460DF5837047F093F95B
:1015B00007F13A022946204635F0FEFA012050E7AD
:1015C00004F5883797F840390BB10421E1E0042D88
:1015D00039D9701C35F042F9C7F8540904F5803246
:1015E000D2F8C423C7F8482997F8202942B104F556
:1015F000E83292F81F1119B9936D003B18BF01230F
:101600000026B04687F84C3933ADD7F84839B34295
:101610001BDC022297F84C392A7043441A0A6B707B
:10162000AA701A0C1B0EEA702B710522294620465F
:1016300035F0C2FA0023C7F84439C7F850390123FE
:1016400087F84039BAE71846C6E7284631F04AFC21
:101650002A463146204634F04FFF20B195F84030FD
:101660000BB108F101080136CFE7872D7FF6FEAEFA
:10167000731C194620222046994634F072FE33AF7F
:101680008046384631F02EFC4B46BC4606F1210E12
:10169000624618685968083303C273459446F7D107
:1016A00096F821300DF5887C87F8403096F8223086
:1016B00006F1640E87F8413096F8233087F84230FF
:1016C00006F12403624618685968083303C273455B
:1016D0009446F7D10DF1EC0C06F1840E62461868C1
:1016E0005968083303C273459446F7D1002218465F
:1016F00087F83F2035F0B2F8C7E92322C7F8840005
:10170000606F03681B6898478F2DC7F8880013D94E
:1017100006F1880035F0A2F8C7F88C0006F18C00BD
:1017200035F09CF8932DC7F8900005D906F190008C
:1017300035F094F8C7F888000023C7F8943087F88C
:101740004330B8F1000F0CD0B8223946404647F07C
:10175000C2F80121204607F0B1FC204635F03DFAE1
:101760002CE73946204634F019FE0028F1D1032138
:101770000FE0202D7FF67AAE01363146202220463A
:1017800034F0EFFD014618B1204634F01BFE20B9BD
:101790000221204635F02CFA10E704F58833202288
:1017A0003146D3F8280933F0BCFED2E7202D7FF66E
:1017B0005DAE711C2022204634F0D3FD0146002886
:1017C000E6D0204634F0C9FDC3E7202D7FF64EAEAB
:1017D000711C2022204634F0C4FD01460028D7D0D9
:1017E000032233A835F0A3FB024633A9E3E6012D1B
:1017F0003FF43CAE7378272B3FF638AE606E03683B
:101800001B689847204635F097FC2046717835F0E4
:101810004AFC00283FF4D9AE204635F08DFCCDE6D9
:10182000012D3FF423AE7778272F3FF61FAE412DD1
:1018300008D90121ADE700BF00007A440000000094
:1018400080842E41312D7FF611AEB51C0DF1ED03D4
:1018500006F1220255F8041B954243F8041BF9D106
:10186000002110220DF1DD008DF80C11323647F009
:1018700058F80DF1CD0355F8042BB54243F8042B6D
:10188000F9D13946204633AA07F024F800283FF45E
:101890007FAF204635F050F95FE70C2304F588361A
:1018A000D6F8340933AD2B7000B180476870000A58
:1018B000A870D6F8280906F055FF030AE8702B71C6
:1018C000030C000E6B71A871D6F8280906F066FFAC
:1018D000030A2B72030CE8716B72000E0B22A872C4
:1018E00068E6012D3FF4C2AD73782BBB1823ADF829
:1018F000CC3004F58833D3F8340933AD00B18047D8
:101900006880606E03681B6898474FF47A73B0FB79
:10191000F3F00023EB71B4F86C30A880A66E000CD5
:10192000A8712B813368606E1F6903681B68984734
:1019300001463046B847D1E7012B39D14FF48C73BB
:10194000206EADF8CC30036833AD1B6A9847ADF814
:10195000CE00206E03689B6B9847FDEEC07A17EEB1
:10196000903A206E8DF8D0300368DB6B9847F0EE2C
:10197000407AFEEECF7A17EE903A4FF47A718DF8F6
:10198000D13063690022B3FBF1F3ADF8D2301B0C08
:101990008DF8D430A3698DF8D520B3FBF1F3ADF801
:1019A000D6301B0C8DF8D9208DF8D8300E2201E6E8
:1019B000022B7FF45BAD4FF40673A26CADF8CC3014
:1019C000E36C206C9E18616CADF8CE604FEA16494E
:1019D000360E8DF8D16046188DF8D090ADF8D260F3
:1019E0004FEA1649360E8DF8D560060C000E8DF8BC
:1019F000D900080C090E8DF8DD10B4F84080110CE8
:101A0000B4F844E0B4F848C0B4F84C70120E8DF845
:101A1000DC008DF8E120206E1A0C1B0E8DF8E420FE
:101A20008DF8D490ADF8D6808DF8D860ADF8DAE0B6
:101A3000ADF8DEC08DF8E010ADF8E2708DF8E5305D
:101A4000036833AD1B6F9847030C6883000E1E229A
:101A50002B776877AEE5202D7FF608AD711C20222C
:101A6000204634F07EFC014600283FF491AE20462B
:101A700034F02CFB00283FF48BAE6EE6202D29D8E5
:101A800004F5883393F8442804F58B3303F5DE71AD
:101A9000C2B9204633F0A3FE054600283FF467AEE6
:101AA00003780DF1CD0143F0010303700B238DF892
:101AB000CC3032F073F806462946204630F0E6FE78
:101AC000721C92E693ED7A1B93ED780B2046FFF79C
:101AD000ABFAE1E7711C2022204634F042FC0146BB
:101AE00000283FF455AE0B2320460DF1CD028DF8B2
:101AF000CC3034F00EFB00283FF467AD421C74E696
:101B0000622D7FF6B3AC6A1E2046D2B2711C34F04F
:101B100009FB00283FF4AAAC1BE60D2D7FF6A6AC0E
:101B2000A5F10D07F01C34F099FEA02F28BFA027C7
:101B300007AD3A4606F10D018146284696F801B0F8
:101B400096F802A046F0C7FE00230622EB55204679
:101B5000F11D34F006FC0746002857D0BBF1010FF9
:101B60004FF0000312D9BBF1030F4DD10593606F05
:101B700033F0D3FD06AB0246CDE901533946534657
:101B80002046CDF800B034F02AFA0CE005AA0593FF
:101B9000EDD006ABCDE90123014653464A46204627
:101BA000009534F004FA054600283FF4E0AD059BAB
:101BB0000DF114088BB133A831F094F9002604F527
:101BC0008039D9F8C4339E420FDB4FF0FF363246DE
:101BD0002046D8F8001035F078FB069BD8F8002096
:101BE000E9B2204635F011F8E8E43146204633AA40
:101BF00034F082FC30B12022394633A846F0A0FEF2
:101C00000028E4D00136DCE74FF001084146C0E58A
:101C1000072D7FF62BAC96F80180B8F1000F7FF40A
:101C200008AEF01C34F01AFEB178074633AA2046FD
:101C300034F039FC00283FF4ABAD073D073604F51E
:101C40008B3339462046CDF808800195009603F580
:101C5000DE7333AA06F0F0FD00283FF4B6AC7CE555
:101C6000012D03D077787A1E5742574123683946B1
:101C70002046D3F8FC30984700283FF478AD6CE557
:101C800004F5E03696F864364BB1204635F00AFB91
:101C90000023B6F8600686F864360BF067FD07AFE0
:101CA0003A46204633A935F0DFFA054658B12046BA
:101CB000079A33A934F080FF00283FF47FAC01235A
:101CC00086F864367AE40A230122204606A98DF8B4
:101CD000183034F071FF00283FF470AC0BF072FB49
:101CE00004F5E83383F81E51D6F86036002B7FF7F1
:101CF00065AC2B462A468321204634F0A5FF5DE4DF
:101D0000012D3FF42AAD013D1F2D28BF1F2504F5ED
:101D10008B3808F5DE772A46711C384646F0DBFD25
:101D20000023254405F58B3585F8BC3104F588334F
:101D3000D3F8280908F5DC7105F0E0FD38460BF012
:101D400029FB204635F003FE07E50A2D7FF68EAB12
:101D5000701C34F083FD0B2D034655D0F27A002A17
:101D600052D0D34988427FF681AB013188420AD0F4
:101D7000D04988427FF67AAB0131884203D0CE4900
:101D800088427FF473AB701D34F068FDCB4DA0F535
:101D9000DA511839A9423FF669AB777A791F0729DA
:101DA0003FF664ABB17A4D1F032D3FF65FAB07EEF4
:101DB000903A9FEDC37AF8EEE77AC7EE876A07EEAE
:101DC000900AF8EEE77A04F58C36C6ED006AC7EEA5
:101DD000876A04F5883505F50363C3ED006A85F865
:101DE0002C7885F82D1885F8E62804F58B31D5F880
:101DF000280901F5DC7105F081FDD5F83839002B93
:101E00003FF4ABAC9847A8E4AE49A3F51232A2F573
:101E1000F8728A423FF62AAB0022B4E7012D3FF464
:101E200025AB727802F10903DBB21F2B3FF61EAB24
:101E300004F5883585F80428D7E7082D7FF616AB1A
:101E4000701C34F00BFDA04AA04902448A420346AC
:101E50003FF60CAB701D34F001FD9D4A05469042E3
:101E6000FFF604AB88423FF701AB1846FEF7D2FA03
:101E70008DA3D3E90023FEF761FC04F58B36C6E998
:101E800078012846FEF7C6FA87A3D3E90023FEF7B8
:101E900055FC04F58833C6E97A0106F5DC71D3F800
:101EA000280900F0B0BC0923606F8DF8CC300368BE
:101EB00033AD1B689847030A8DF8CD008DF8CE30FE
:101EC000030C000E05228DF8CF308DF8D000FFF7FF
:101ED00071BB042D7FF6CAAA32F09DFD38B12046B1
:101EE00034F07BFE204635F047FDFFF767BB701CE2
:101EF00034F0B4FC0546606F03681B689847854260
:101F0000FFF4B4AA606F294603685B689847022013
:101F10000BF006FD284633F043F83DF09AFD4FF4F0
:101F20007A72A0FB020302FB0131C00B4FF47A72FC
:101F3000002340EA4140C90BFEF708FE014604F5C4
:101F4000E730603032F067FFC9E7012D3FF48EAA19
:101F5000727804F5E83383F820205E4B04F5883668
:101F60005D4A3393D6F8E0385C49002B08BF13462E
:101F700035A84822349346F0AEFCB6F8E638522233
:101F800033ADADF81C31FFF715BB172304F58832CC
:101F90008DF8CC3002F60803D3ED007A9FED487A35
:101FA00067EE877AFCEEE77A02F5F76217EE903A71
:101FB000D2ED007A67EE877AFCEEE77A180A8DF8A0
:101FC000CD308DF8CE00180C1B0E8DF8D03017EEEA
:101FD000903A1A0A8DF8D1308DF8D2201A0C1B0EC7
:101FE00033A9CA71C87009220B72FFF7E4BA082D31
:101FF0007FF63CAA701C34F031FC07EE900A9FED8E
:10200000307AF8EE677AC7EE876A04F5883303F60C
:102010000802C2ED006A701D34F020FC07EE900A41
:10202000F8EE677AC7EE876A03F5F762C2ED006AD9
:1020300004F58B3101F5DC7131E70E2340220DF1FF
:10204000CD0104F505708DF8CC3030F0AFFF4122A2
:10205000FFF7CBBB052D7FF609AA05222049701C8E
:1020600046F06EFC00287FF401AA04F58833D3F80B
:10207000280933F04AFA204634F0AFFD01200BF076
:10208000D3FC062D7FF6F2A906221649701C46F0F5
:1020900057FC00287FF4EAA9204634F05FFD204673
:1020A00034F072FDE7E700BF0000000080842E419D
:1020B000679B060076440D00F0010E00C8850700FE
:1020C00000007A44B0DB2300804A5D050095BA0A1F
:1020D000006B45F50D0EAF2840E201008DA6040807
:1020E00008370508442E0508012D3FF436AB7278F9
:1020F00004F58833022D83F8D92899D0B278032DBE
:1021000002F0030283F8DA28B278C2F3810283F87E
:10211000DB28B278C2F3011283F8DC2888D0F27889
:10212000042D83F8442883D0327983F82F287FE761
:10213000042D7FF69BA9D6F8015035B1BB4AA5F511
:10214000C333A03B93423FF691A904F5883604F5CA
:102150008B31D6F82809C6F8E05801F5DC7105F096
:10216000CDFBD6F83C39002B3FF4F7AA2846984718
:10217000FFF7F3BA04F5E035D5F82C0E20B135F0B1
:102180006BFE0023C5F82C3E00264FF40050C5F826
:10219000306EC5F8346E35F05DFEC5F82C0E0028A3
:1021A0003FF413AA4FF40053C5F8343EA04B062267
:1021B0003393ADF8D060FFF718BB04F5E037D7F8DC
:1021C0002C0E00283FF401AA012D3FF4FEA9D7F8F8
:1021D000303ED7F8342E013D591991423FF6C7AA37
:1021E00018442A46711C46F076FBD7F8303E2B4443
:1021F000C7F8303EFFF7B1BA04F5E035D5F82C2E1C
:10220000002A3FF4E2A9D5F8303E002B3FF4DDA9C7
:1022100007A904F5057030F08EFF14230DF1CD06EB
:102220008DF8CC3017AF07AB1A4603CABA423060FC
:102230007160134606F10806F6D14122204633A903
:1022400034F0BAFCD5F82C0E08B135F005FE0023A9
:10225000C5F82C3EC5F8303EC5F8343EFFF7AEB9A0
:10226000A5F10B03B12B4FD8737A0A3D5FFA85F8BD
:1022700003F0030148FA01F9B9F1400F3FF7F6A85E
:1022800001228A40013A12EA080A7FF4EFA8701C82
:1022900034F0E4FA0746701D34F0E0FA394602469D
:1022A000204631F0ECFB054600283FF460AA0146C9
:1022B00006F10A0243462046CDF800A031F068FA44
:1022C0002B79206E69881944036802319B6898470E
:1022D00023680146D3F8C4305FFA89F22046984754
:1022E0000623ADF8CC303B0CADF8CE708DF8D03075
:1022F0003F0E030CADF8D200000E33A90A224F7135
:102300000B724872FFF757B9082D7FF626AA701C8A
:1023100034F0A4FA0146701D34F0A0FA00230246FE
:10232000204631F0ACFB014600283FF44EA90022C4
:10233000204631F070FAFFF710BA402D7FF696A8CC
:102340000136304601F03AFA00283FF48FA833A84E
:1023500030F0DAFD04F588353146402233A830F0FC
:10236000FBFDD5F8280933A905F07CFA00283FF4D5
:102370002CA995F8207917B1204635F022FB602270
:1023800033A904F5057046F0A6FA204607F0ACF82C
:10239000002204F5E8339A6595F8243904F58B3664
:1023A0003BB1D5F8280985F8242906F5DC7105F03C
:1023B000A5FA17B1204635F0CAFA002204F5803399
:1023C000C3F8C423D5F8280906F5DA7105F0F8FF3B
:1023D000FFF7C3B9052D7FF649A87778384631F065
:1023E00079FB00283FF425AA3B46AA1EB11C33A85E
:1023F00031F080FBA8B9BB067FF438A80230311851
:102400002A1A204631F026FB014600283FF4AFA9E6
:1024100000232046009333AA3B4631F0B9F9FFF779
:102420009CB9831D9D42FFF421A8E7E79FBB0D00E7
:1024300013000020202D7FF619A8711C20222046B1
:1024400033F08FFF213D3F2D28BF3F2506F12101AD
:10245000074600262A4633A846F03DFA33AB5E55C0
:10246000002F3FF495A907AD2B463946204633AAE5
:1024700033F080FE00283FF47AA904F5E032C2F878
:10248000486EC2F8446EC2F8406EC2F83C6E079BBC
:10249000D2F8382EC1B2FFF7A4BB202D7EF6E6AFEE
:1024A00020222046711C33F05CFF054600283FF4D3
:1024B0006FA907AE33AF014633460122204600978D
:1024C00033F014FF00283FF480A8002204F5E03325
:1024D000C3F83C2EC3F8482EC3F8442EC3F8402E50
:1024E000C3F8382E2A68C3F83C2E339B079AD1E7ED
:1024F000202D7EF6BBAF2046711C34F079F8FFF733
:10250000B9BA202D7FF629A92046711C34F04EF867
:10251000FFF723B9042D13D18B23D4F814222046BE
:10252000CDF8CE20B4F8182235A9ADF8D220072274
:10253000ADF8CC30FEF7ACFD00F10802FFF755B95D
:10254000232D7EF693AF311D2022204633F009FF64
:10255000014600283FF41CA907AF33AE3B460322D7
:102560002046009633F0C2FE00283FF42EA8002239
:1025700004F5E035C5F8482EC5F8442EC5F83C2EC4
:10258000C5F8382E079AC5F8402E339B82E7212DD7
:102590007EF66CAF711C2022204633F0E2FE01462D
:1025A00000283FF4F5A8A5F1210333AF07AD20467D
:1025B00001970095DBB206F1210233F062FE00289C
:1025C0003FF403A8002204F5E033C3F8442EC3F817
:1025D000402EC3F83C2EC3F8382E079AC3F8482E75
:1025E000D3E7212D7EF642AF7778002F7EF43EAF01
:1025F00020222046B11C33F0B4FE054600283FF4EB
:10260000C7A84FF60363206FADF8CC30ADF8CE709D
:102610008DF8D070036804221B680DF1D101984732
:10262000FF2307AE0DF1180895F84290294685F86A
:102630004230204609230196CDF8008033AA33F0BA
:1026400020FE85F8429000283EF4BFAF069A04F5BC
:10265000E033C3F8487EC3F8407EC3F83C7EC3F83D
:10266000387EC3F8442E079B14E7082D7EF6FEAE95
:1026700007222046B11C35F05CFA00283FF488A8F8
:1026800016238DF8CC30836A00F12C011A0A8DF8DC
:10269000CD308DF8CE201A0C1B0E8DF8CF208DF882
:1026A000D030C37940220DF1D2008DF8D13031F015
:1026B00021FA33AD821DFEF77DBF15238DF8CC3096
:1026C0000DF1CC0832F099F958B332F098F93F2166
:1026D0000346C54A0DF1CD002EF0F8FA0DF1D205F2
:1026E00032F095F943AE0346F8B1A6EB05093FB9C0
:1026F000B9F1000F04D02C2209F1FF3905F8012BA4
:1027000049462846B94A2EF0E1FA00280DDD484531
:102710000BD20544761B5EB12C23013E05F8013B2C
:1027200006E001270DF1CD05DAE7761B002FF2D088
:1027300004F5883393F8CD383146003B18BF0123A8
:102740002846AB4A2EF0C2FA002802DDB04238BF5C
:102750002D184146A5EB0802FEF72DBF032D7EF68E
:1027600085AE013D3F2D28BF3F25711C00262A461E
:1027700033A846F0B0F833AB5E553A21184646F020
:10278000EFF8054600283EF471AE0670994933A86B
:10279000FEF746FA60B96D78A5F131004542454132
:1027A000284632F02FF904F5883383F83C583FE48B
:1027B000914933A8FEF734FA78B9681C46F0BCF8A2
:1027C0008E4B421E9A4205463EF650AE32F022F93A
:1027D00004F58833C3F840582AE4894933A8FEF742
:1027E0001FFA00287EF442AE6B7804F58832A3F11C
:1027F00031014B424B41D2F8280904F58B3182F864
:10280000CD3801F5DC7105F079F8FEF7A6BF012D92
:102810003EF42CAE7178B9B9112D04F5E83528468F
:1028200000F121000CD9B31C123653F8042BB3422B
:1028300040F8042BF9D1002385F83130FEF78DBF25
:10284000102246F06EF8F6E7022D7EF40FAE012955
:102850007EF40CAE04F5E83080F83110102200212F
:10286000213046F05EF8FEF778BF2F2D26D906F10D
:1028700001081F21404646F0B6F8431E1D2B0746AF
:102880003EF6F4AD04F58C3505F1EA0318461F2237
:10289000002146F046F83A46414646F01CF805F25B
:1028A000091506F12003303653F8042BB34245F8DE
:1028B000042BF9D104F58833FFF7BABB04F58C3546
:1028C0001F22002105F1EA0046F02BF8102200211A
:1028D00005F2091046F025F8ECE71C238DF8CC3002
:1028E00004F5883393F8EA380BB304F58C3303F11D
:1028F000EA020DF1CD0103F5837052F8045B8242C8
:1029000041F8045BF9D110883BAE088092788A7058
:1029100003F2091203F219133546106851680832A0
:1029200003C59A422E46F7D13022FEF75EBF012240
:10293000FEF75BBF012D3EF499AD96F90130002BF7
:10294000BEF694AD711C20466A1E30F09AFE014618
:1029500000287FF4ECACFEF70ABF012D3EF4FDAE7B
:10296000727804F58833022D83F8E5283FF460ABD4
:10297000B278402A28BF402283F8E828FFF758BBE6
:1029800019238DF8CC3004F5883393F8E52893F8B3
:10299000E83833A94A708B700322FEF70CBE1A2365
:1029A00018490DF1CD008DF8CC3033F04FFF1549AB
:1029B0000DF1D10033F04AFF13490DF1D50033F08A
:1029C00045FF11490DF1D90033F040FF0F490DF1DA
:1029D000DD0033F03BFF0D490DF1E10033F036FF30
:1029E0001922FEF702BF00BF3D2D0508442D050842
:1029F000542D0508642D0508682D05087F51010038
:102A0000752D0508689B060077440D00F0010E0047
:102A1000022D7EF62BAD7378002B7EF427ADB278B5
:102A2000022A3EF623AD04F5883383F8E728FFF742
:102A3000FFBA042D7EF61AAD96F8029096F8018042
:102A4000484631F047F828B9B9F1FF0F7EF40EADD2
:102A5000032013E0B9F1FF0FFAD04FEA991209F001
:102A60003F0302FB033305339D42FEF4FFAC4B46AC
:102A7000EA1EF11C07A831F03DF80330074616F8AE
:102A800000A002373044BD4290F801B041462046D4
:102A900033AA94BF0025ED1B33F005FD00283EF45A
:102AA00077AE5AEA0B233EF4E1ACA72D3EF7DEAC3D
:102AB0003744CDE9003720464B46029507AA33A993
:102AC00033F0CAFAFFF7D8B8212D7EF6CFAC06F165
:102AD000010841462022204633F043FC33AF014633
:102AE000213658BBB822384645F01BFF384630F037
:102AF000F9F94346BC46624618685968083303C270
:102B0000B3429446F7D10023606F87F8423087F8CC
:102B1000403003681B6898473946C7F8880020464C
:102B200033F03CFC00283EF422AE414620222046F1
:102B300033F017FC014600283EF419AEA5F121033D
:102B400007AD3246204601970095DBB233F065FBB6
:102B500000283EF43AAD002204F5E033C3F8442ED9
:102B6000C3F8402EC3F83C2EC3F8382E079AC3F89A
:102B7000482E3B688EE4012D3EF478AC04F5E83332
:102B80005F6B002F3EF455AE013DAF2D28BFAF2542
:102B9000711C2A4607A845F09EFE002307AA53553C
:102BA0001D231046ADF8CC300DF1CD01B8479DF88E
:102BB000CD3033AD23B918490DF1CD00FEF73AF809
:102BC0000DF1CD00FEF73EF8AF2828BFAF20421C24
:102BD000FEF7F0BC032D7EF649AC20462FF042FEF6
:102BE000074600283EF4C3AD0146AB1E2046B21C8A
:102BF00096F801802FF0F9FD38B10023424639469E
:102C0000204630F0F9F8FEF7A8BD394620462FF0EF
:102C10003DFEFEF72BBC00BF822D05080000000022
:102C2000F7B5002141F2030001AA0FF0F1FD0446BF
:102C300000284DD1019AB64DD16805F17803D1F83D
:102C40000100D1F8051003C310460EF071FD2146B6
:102C500041F2010001AA0FF0DBFD0446002837D144
:102C60000198C3685A7885F870205A88A5F87220B0
:102C70001A7985F87120B3F80720A5F87420B3F805
:102C80000530A5F876300EF053FD214641F20200E2
:102C900001AA0FF0BDFD0446D0B9019F05F18006E1
:102CA000FA68531C4132344618685968083303C423
:102CB00093422646F7D138460EF03AFD37F002FB34
:102CC000044628B995F87C305F0604D46FF01204EE
:102CD000204603B0F0BD014601AA42F203000FF006
:102CE00097FD04460028F3D1019B8A4EDA68D2F89A
:102CF0000100D2F8051003C618460EF019FD214652
:102D000042F2020001AA0FF083FD04460028DFD141
:102D1000019CE368B3F8012091B249B1D97839B187
:102D2000A5F80421DA78114606F128003CF0B6FB3C
:102D300020460EF0FDFC1F2395F87C60A5F820319D
:102D400016F0200619D14FF0FF304FF0FF310FF091
:102D500079FC0446002800F09C8002210C3036F0FB
:102D600073F80123214603704670324640F66D40E9
:102D70000FF04EFD04460028AAD195F89C301E079E
:102D800012D5002142F21C0001AA0FF041FD0446B9
:102D900000289DD10198C368D3F80120D3F80530ED
:102DA000C5E938230EF0C4FC95F8D8305C060FD581
:102DB000002142F22A0001AA0FF02AFD0446002851
:102DC00086D10198C3685B7885F822310EF0B0FC9B
:102DD0004FF0FF304FF0FF310FF034FC0646002873
:102DE00057D008210C3036F02FF895F8D84040F233
:102DF000022314F0400F08BF03230246A0074CBF74
:102E000043F02C0343F00C03A10695F8D91048BFFA
:102E100043F0400311F0090F18BF43F4006304F0BE
:102E2000010443EA0410002136F0BDFE00223146C1
:102E300042F201000FF0ECFC044600287FF448AF9A
:102E400095F87C30B5F804119A0625D4C9B941F239
:102E5000050001AA0FF0DCFC044600287FF438AF1F
:102E6000B5F80431019C4BB9E368B3F80120A5F82B
:102E700004219A88284811463CF010FB20460EF0A9
:102E800057FC4FF0FF304FF0FF310FF0DBFB0446F3
:102E900038B96FF068041BE70029F2D16FF0040421
:102EA00016E708210C3035F0CFFF95F8D8300246F0
:102EB000DB0747BF14A1D1E900014FF000511748CB
:102EC00036F071FE2146002240F601400FF0A0FCD2
:102ED000044600287FF4FCAE37F06BF90446002866
:102EE0007FF4F6AE11F0D6FB044600287FF4F0AE76
:102EF000EB79002B3FF4ECAE0821094836F034FDA5
:102F00000FF008FCE4E600BF90880002008000207B
:102F1000E0020020B8030020E8030020108800022F
:102F2000B0030020000000001BA3D3E90023002110
:102F3000C0E900231AA3D3E90023C0E902231AA39E
:102F4000D3E90023C0E9042319A3D3E90023C0E98E
:102F5000062319A3D3E90023C0E9082318A3D3E962
:102F60000023C0E90A2318A3D3E90023C0E90C23F6
:102F700017A3D3E90023C0E90E2300220023C0F8E1
:102F8000D010C0E93023C0E932238022403045F020
:102F9000C8BC00BFAFF3008008C9BCF367E6096A8C
:102FA0003BA7CA8485AE67BB2BF894FE72F36E3CD8
:102FB000F1361D5F3AF54FA5D182E6AD7F520E5135
:102FC0001F6C3E2B8C68059B6BBD41FBABD9831FEF
:102FD00079217E1319CDE05B40F6FC039842F7B5EA
:102FE00088BF012304464FF0000782BFA0F6FC040F
:102FF00063F30707A4B21EF0A5F805461EF0A2F879
:1030000045F089F806462046FDF704FA0CA3D3E9FB
:103010000023FDF769FAFDF729FD074B821900939C
:10302000284600230549019744F050FFB0FA80F08C
:10303000400903B0F0BD00BF035D0408C02D0220AD
:103040000000000080842E412DE9F84F814688461B
:1030500000232DED028B19F803705A1C202F00F06D
:103060009E81A7F10901042940F299812B2F144672
:1030700031D02D2F34D0042547F02003692B31D0D7
:103080006E2B68D000224FF00A0B924694461346EE
:10309000114615F4006073D047F02006A6F1610ECA
:1030A000BEF1050F6CD8573EF6B25E456DD347F0C2
:1030B000200705F08006782F40F0AC80002E5BD012
:1030C00053EA010640F0A88045F4006E4FF0100B63
:1030D0001FFA8EFE8CE0042519F802709C1CCBE7C9
:1030E0004425F9E79FEDB08BB54B13F8011B49B1AF
:1030F00019F80420601C42F020028A422FD0B14A05
:10310000934239D1B0EE480AF0EE680A45F08EFEDF
:1031100048B119F80430282B05D1013419F80430CE
:103120000134292B1DD16B0607D518EE901A18EE25
:10313000102A01F1004343EC182BB8F1000F02D024
:103140004C44C8F80040B0EE480AF0EE680ABDEC06
:10315000028BBDE8F88F9FED968B9B4BC5E704462D
:10316000C3E723F02002413A192AD7D9A3F130024C
:10317000092AD3D95F2BD1D000249FED8F8BDCE7B8
:10318000A7F13006F6B25E4539D245F0800E15F44F
:1031900080701FFA8EFE23D1BBF10A0F14BF0F27D8
:1031A0001027BA450EDCAF0527D4ABFB0335F31867
:1031B0000BFB015545F1000153EA010018D00AF15B
:1031C000010A15E045F4C07EBBF10A0F1FFA8EFE1E
:1031D00006D1042E04D9052E4FF0020C08BF064676
:1031E000002E18BF4CF0010C1EF4007F00D10132FC
:1031F00019F80470754601344BE7013AD5E7FE2E05
:103200007FF455AFAE053FF552AF45F4007E1FFA8F
:103210008EFEEDE7002EAFD0002876D09200702011
:10322000B84217D119F80400661C2B2804D02D28A9
:103230006DD145F48065ADB219F80670A61C044640
:103240003846A0F13007092F64D901340CBF06F1CC
:10325000FF34B41E53EA010004F1FF3400F09C80F7
:1032600028057CD53632B1F5800F6AD3574FB1F5BA
:10327000000F6BD2BA4269DB4CEA0303084603F045
:103280000306032E03D003F00606062E09D10433ED
:1032900041F10000B0F5000F22BF013201234FF4CD
:1032A0008000B2F5806F74DAB0F5800F4FEA9006B7
:1032B0004FEA930326BF02F2FF3226F48016002263
:1032C00043EA807346EA0251184641EC180BB0EE0F
:1032D000480AF0EE680A2FF059F80138022804D89D
:1032E0003B4B22220DF0A4FE1A50B0EE480AF0EE3D
:1032F000680A2FF04BF8013802283FF614AF344B20
:1033000022220DF095FE1A500DE7652088E74FF058
:10331000FF3496E7002440F2D34E4FF00A0B744579
:10332000DCBF30380BFB040419F806000136A0F1AD
:103330003007092FF3D96F0548BF64422244344651
:1033400088E7DB1802F1FF3249418CE75E0803F0A1
:103350000103013246EAC1764908334387E79244C4
:103360001AF5A27F12DDBAF59B7F12DA03F0010095
:1033700040EA0C0001308008181841F1000100F00B
:103380002BF8B0EE408AF0EE608AAEE79FED0A8B34
:10339000ABE79FED058BA8E79FED078BC3E61346D0
:1033A00059E600BFAFF30080000000000000F07F8E
:1033B000000000000000F87F000000000000000096
:1033C00065530508685305086253050802FCFFFFB2
:1033D0000C000000000000002DE9FF478046164663
:1033E0000F46002900F0A380B1FA81F4341B002EAF
:1033F00004F10A04C0F2A38030462EF0ABFE044470
:1034000030462EF0ADFEA4EB06090546694630466F
:103410002EF0CEFEA9EB05036A4640467D333946C1
:1034200045F023FBA64282460D4600F38480B9F1A5
:103430003F0F00F382804FF0FF33A9F12000C9F164
:10344000200103FA00F003FA09F223FA01F103FA6A
:1034500009F3024328EA03030A4327EA020213435B
:103460000CBF01200020002D00F08B80B5FA85F301
:10347000E31A40F2FE7203F23E43934200F3878068
:10348000002B23EAE371D4BF01220A46121BA2F2E9
:103490003344A2F2344EA2F25343C4F120072AFA75
:1034A00004F625FA03F3CEF1200C05FA07F725FA06
:1034B00004F405FA0CFCCEF120083E43A2F2544776
:1034C000A2F254421E432AFA0EF325FA07F743EA02
:1034D0000C033B4313F0010318D04FF0FF3707FAFA
:1034E00002F307FA0EFC4CEA030C27FA08F307FA7A
:1034F0000EF74CEA030C2AEA070A25EA0C055AEAF9
:10350000050A42D1002840D006F001039A1944F17F
:1035100000041646C4F3130452EA040008BFC91895
:1035200044EA015747EC106B04B0BDE8F087B0FAED
:1035300080F420345AE7012095E7002093E7C6F194
:10354000000948462EF00CFE241A48462EF008FECC
:10355000A61B0546694648462E442EF09BFE6A4649
:10356000404606F17C03394645F07FFA82460D4617
:10357000404639462EF004FE81458CBF00200120D4
:1035800071E7BAFA8AF3203372E70123BEE79FEDB1
:10359000020BC9E7AFF30080000000000000F07FDD
:1035A000002110B50446074B4FF4C072C0E960110A
:1035B000C0E96211C0F89011C0F8943145F0B1F93A
:1035C000204610BDCDCC4C3E024630B55388017824
:1035D000082B28BF08230B48C1F383010A4C48403D
:1035E000604302F14901C2F1FF2202F57F02B732C6
:1035F0005518AB4200DC30BD11F8015F68406043F4
:10360000F6E700BFC59D1C81930100012DE9F04143
:1036100004460D460746002642F210783B7B3BB13C
:103620007B68EB1A434503D9314620462EF044FF10
:103630000136182E07F11007F0D1D4F88C3133B3CE
:10364000154AEB1A934222D9D4F88431FBB1D4F84D
:10365000903123B9A5F59C53083BC4F8903141F251
:10366000873641F2883003F51C414031EA1AB242F4
:103670000BD9D4F8842142B10344A2EBD2028B428D
:10368000C4F88421C4F89031F0D1BDE8F081002362
:10369000C4F89031F9E700BFE093040070B5034629
:1036A000024600F5C0766FF00040C1F51C5511359B
:1036B000147B34B154682C4424EAE474A04228BF3B
:1036C00020461032B242F3D1D3F88C2192B1D3F814
:1036D00084417CB10D4C8D1AA5420CD9D3F89031A0
:1036E0002BB1C1F59C5108310B4423EAE373984296
:1036F00028BF184670BDC1F5922101F2E131114495
:1037000021EAE171884228BF0846F3E7E09304000C
:10371000D0F88831032B1DDDD0ED617AFBEECC7A39
:10372000F5EEC07AF1EE10FA9FED0C0A14D9B1EE65
:10373000007A37EE877AC7EE876ADFED097AA6EE60
:10374000A70AF7EE007AB4EEE70AF1EE10FA37FEB8
:10375000800A7047B6EE000A704700BFCDCCCC3E61
:103760009A99193F00487047074705080048704775
:1037700080EE360030B5C0E91812836601220023BE
:103780000D4DC0E90533C0E90733C0E90933C0E98D
:103790000B33C0E90D33C0E91033C0E91233C0E97F
:1037A0001433C0E91633056043600372A0F86C302F
:1037B000828780F83E3030BD30AC040870B5B8B0B8
:1037C0000146044668463DF068FE9DF80030013B26
:1037D000DBB2FD2B38D8274B28AA03F1400615464B
:1037E00018685968083303C5B3422A46F7D1224BFB
:1037F00008AA03F12006154618685968083303C55E
:10380000B3422A46F7D108A920A81AF0D5FD2146CF
:1038100020AA10A83DF0EDFD694620A81AF0CCFDC5
:1038200020AA28A918A83DF0E4FD202218A910A874
:1038300030F0CCFA044658B9202110A830F000FB33
:10384000202118A830F0FCFA0024204638B070BDC2
:10385000002310A911F8012B1AB90133202BF9D13B
:10386000144610A8202130F0EBFA202118A830F0DF
:10387000E7FAEAE7362205087722050838B5044654
:103880001D46059BFFF776FF084B25672360049BC9
:1038900004F17C006367069BA367FFF781FE04F5D4
:1038A00005702FF031FB204638BD00BF70AC040816
:1038B0002DE9F04F0E78054606F00303023B012B7D
:1038C0000C46F3B000F2F88206F03C02242A0B7991
:1038D00059D13F2B1CD84E88082E19D991F8527017
:1038E000093E07F003029340F6B21FFA83FC6645D7
:1038F00010D801F153020368029201F10A02CDE9E6
:10390000007203965D6ED1F84A20D1F84E30A84778
:10391000002035E00121533301FA02F200F5057170
:10392000E01845F00DF80028F2D12B682146284612
:103930001B6C98470028EBD0A86F214603681B68D2
:1039400098470028E4D1A86F214603685B68984730
:1039500094F90231227907EE903AFAEECF7AB0EE7E
:10396000677ABEEECF7A17EE103A511C22442171CD
:1039700093722B68214628469B6C984740F0C060A4
:1039800073B0BDE8F08F2C2A03F03F030AD191F900
:103990004A20002A80F28D82002BB9D103689B6FE8
:1039A0009847B5E74BB90C2A40F086820368D1F8F6
:1039B0004A20D3F888309847AAE70C2A05D1036833
:1039C000D1F84A20D3F888309847227905F5057157
:1039D0009209013204F10A0044F0B2FF002897D1A5
:1039E0002B68214628461B6C9847002890D02378E6
:1039F000C3F383030A2B04D1214628462FF0FDFD93
:103A000086E7A86F032B02682146126813D19047FE
:103A1000064600287FF47CAFA86F214603685B68E8
:103A20009847214628462FF0EAFC32462146284690
:103A30002FF08CFD6CE7904700287FF469AFA86FEA
:103A4000214603685B689847214628462FF0D7FC3B
:103A50002B68214628469B6C984740F080708FE782
:103A60002B6821462846DB6B984700287FF450AF2F
:103A700020782FF0B9FB002800F024822046FFF7C1
:103A8000A3FD0646686E05F17C0703681B6898472E
:103A90003146024638462EF055FD20B131462846C3
:103AA0002FF002FC0EE22B682846DB6C98470028BA
:103AB00000F00882686E03681B689847314602462A
:103AC00038462EF019FDFDE16388032B7FF620AF09
:103AD000A86F21460368D4F84A601B6898470028FD
:103AE0007FF416AFA86F214603685B6898472B6880
:103AF000324621462846D3F8883098472146284642
:103B00002B689B6B73B0BDE8F04F184794F84B30AF
:103B10000DF1200A8AF80030638894F84A70042B6B
:103B20007FF6F6AEA86F214603681B6898470646E5
:103B300000287FF4EDAEA86F214603685B689847C4
:103B400095F81432BB4268D12B68514628469B6DCC
:103B50009847814604F14C0B10AF0DF1C4084E4557
:103B60002B685ADA324639462846DB6D9847638817
:103B70005A46023B4146384630F03FF9031E5CDDB1
:103B80002278C2F38302082A4DD198F80090079357
:103B900048462FF09FFF00283FD04FEA991109F0C7
:103BA0003F0201FB0222079B501C984235DA023289
:103BB0009B1ADBB2424429680392049318F8003040
:103BC0000DF1C50803F00F03CDE90193CDF8008096
:103BD000D1F868B03B46324621462846D847D0B196
:103BE00020782FF001FBB0B10023CDE9023301931F
:103BF0002379514600933A46284604F10A032FF0F0
:103C00003EFE014638B14FF4FA734246009328460F
:103C10004B462FF0BDFDFF2323702B68214628461D
:103C20009B6B9847ACE62968CDE9018300970F6E3E
:103C3000334621462846B847EDE701368FE76388CB
:103C4000232B7FF665AEA86F2146036894F84A607F
:103C50001B68984700287FF45BAEA86F2146036875
:103C60005B68984795F81432B3427FF447AF04F18C
:103C70004B0608AA04F16B071346306871680836D2
:103C800003C3BE421A46F7D108AA10A905F505706C
:103C90002FF05DFA638831AF32463946213B10A8D8
:103CA00030F0ABF800287FF729AF2B68CDE9007022
:103CB00021461E6F284608AB10AAB047FF23237089
:103CC0001CE794F84A3008AF3B706388032B7FF6FB
:103CD0001FAEA86F214603681B6898470646002858
:103CE0007FF416AEA86F214603680DF140095B68AA
:103CF00098472B683946D3F880804A4604232846E3
:103D0000C047074604F14B0A0DF141080DF1C40B01
:103D1000BE4282DA6388404652465946013B30F043
:103D20006CF8002808F121080FDD2B682278CDE916
:103D300000B006EB4616D3F884702146284609EBFE
:103D40000603C2F38302B84767E70136E0E710A82D
:103D50002FF0C8F810AE04F14A0304F16A073246A6
:103D600018685968083303C2BB421646F7D1638806
:103D7000632B7FF6CDAD202210A905F5057044F028
:103D8000DFFD00283FF4C4ADA86F21460368D4F8D6
:103D90006A801B68984700287FF4BAADA86F0DF1C0
:103DA000C40A036821465B685646984767880DF148
:103DB000400C643F202F28BF2027BCE80F000FC60F
:103DC0009CE80F0004F1AE0986E80F003A46494628
:103DD0003AA8CDF8E48044F07EFD524607F1240372
:103DE00004F16E0110A82FF085F800283FF4C8AD4B
:103DF0002B68CDE900972146DE6E2846434610AA7F
:103E0000B0470AE703F00303023B012B3FF680AD06
:103E1000A86F214603681B68984700287FF478AD97
:103E2000A86F214603685B6898472B68214628469F
:103E3000DB6FB5E56288022A7FF66AAD94F84A30F6
:103E400003F00F03032B7FF463AD042A7FF660AD0C
:103E500031AE30462FF039FE237840228DF8C43041
:103E600004F10A0123790DF1CE002FF054FE62888F
:103E70008DF8C800013A92B204F14B010DF587703C
:103E8000ADF8C62044F027FDA86F314603681B68D3
:103E9000984700287FF43CADA86F314603685B6803
:103EA00098472B6831462846D3F88830DDF80E2134
:103EB00081E5002B7FF489AD30462FF095F900287D
:103EC0007FF4CEAD2378C3F383020F2A3FF620ADF3
:103ED00001A151F822F000BF0D3B00080D3B000886
:103EE0000D3B0008C93A00084F3D0008C33C0008DC
:103EF000C33C00083F3C00080D3B00081139000896
:103F0000353E000811390008113900081139000840
:103F100011390008053E00080022104630B5074B55
:103F2000D3F820519C33AA4200DB30BD53F8044F34
:103F30000132641A002CD8BF0130F4E7E8000220F7
:103F4000014BD3F820017047E8000220014BD3F861
:103F5000200170470C020220044BD3F8202191422B
:103F6000B4BF53F821000020704700BFE8000220D2
:103F7000044BD3F820219142BABF283153F82100D5
:103F800000207047E8000220054BD3F82001814251
:103F9000BDBF2831012043F821200020704700BF19
:103FA000E80002200022FF2070B50A4BD3F8206100
:103FB00003F19C058033B24200DB70BD55F8044F1D
:103FC000641A002C03DC9C5CA04228BF204601320E
:103FD000F1E700BFE8000220F8B5FF200C460023FF
:103FE0004FF0FF310D4AD2F8207102F19C06803269
:103FF000BB4205DB4B1C0FD008482FF045FEF8BD37
:1040000056F8045F2D1B002D04DCD55C85423CBFB7
:10401000194628460133EBE70020F0E7E8000220CC
:1040200008B502482FF030FE08BD00BFE8000220AE
:1040300038B50B4B1C786CB901220A4D1A7000235D
:1040400029461A46084801342FF040FE202C05F579
:104050008275F4D1002104482FF016FE38BD00BF50
:104060002E5D0220C43A02200C02022008B521B1C4
:10407000002302481A462FF029FE08BD0C02022038
:104080002DE9F0471B4E054630460F4690469946AF
:104090002FF01CFE0446D8B9D6F8200118B32146EB
:1040A000234606F17F0CA04214DC0E4496F88030C3
:1040B000434518D90F482FF0E7FD2B6801465B6890
:1040C000284698474B46424639460A482FF0FEFD9F
:1040D000BDE8F0871CF8012F9A4234BF1A462146EA
:1040E00013460134DFE72B6839462846BDE8F04720
:1040F0005B681847E800022038B500240D4D2819E8
:1041000004F582742FF0E1FCB4F5025FF7D10024CE
:10411000094B214680221846C3F8204144F001FC97
:10412000064B2146C3F820411846BDE8384080229E
:1041300044F0F7BBC43A02200C020220E80002203F
:104140002DE9F0430D468DB012F00F018046144664
:104150001E469DF8509004D04FF0FF300DB0BDE8E2
:10416000F083184B142207A8069344F0DAFBB9F148
:10417000000F0CBF4FF400734FF48073124F08937D
:104180001022414604AB06A809973DF070FD0028B7
:10419000E2D105ABCDE901432A46234639460498CE
:1041A0000096B9F1000F09D01AF0EEFD044604980C
:1041B0003DF093FC002CCFD10598CFE71AF07EFE9E
:1041C000F4E700BF00248000004440042DE9F041E2
:1041D00094B007460C4616460021142207A81D4637
:1041E00044F09FFB4FF48853ADF818304FF48073C0
:1041F000ADF81A304FF48063DFF84C802022CDE90F
:104200000838394604AB06A83DF031FD28B14FF01F
:10421000FF34204614B0BDE8F08105AB02932023A3
:1042200001930CAB224600934146334604983DF07F
:104230000DFE044604983DF050FC002CE7D1BDF87B
:1042400030302B80E5E700BF0900800330B58DB02A
:104250000D4611461A4603AB0193202304460093F2
:104260000A4804AB3DF0E2FD2A4630B10021204669
:104270000DB0BDE8304044F054BB202D28BF2022B3
:10428000204604A944F027FB0DB030BD0900000210
:104290002DE9F043A7B00446DDE92E890D46164608
:1042A000002170220AA81F4644F03BFB16490AA8C9
:1042B0003DF06DFDE8B93A4631460AA83DF088FD6B
:1042C000B8B94A4641460AA83DF082FD88B9202285
:1042D00001AB02A90AA83DF092FD50B9202D2A4653
:1042E000204628BF202202A944F0F5FA27B0BDE8F5
:1042F000F0830AA83DF03CFD2A460021204627B065
:10430000BDE8F04344F00DBB0900000208B5054BC1
:10431000002814BF01461946034833F09AFF0120D4
:1043200009F082FB98220508A42205080346F0B58F
:104330000A4D8E18B14203F1020303D1002300F8A5
:104340001230F0BD11F8014B270904F00F04EF5DA6
:104350002C5D03F8027C03F8014CEBE7104B0508D9
:1043600000487047C422050800487047C422050869
:104370009FED010A704700BF000000009FED010A99
:10438000704700BF0000C07F00487047D222050878
:1043900008B503681B689847BDE808400146014816
:1043A00030F0FFBDE8AE040808B510460249FCF73E
:1043B00041FC002008BD00BFDC220508C36807EEF1
:1043C000101A63B393F87430DA1F052A29D8164AF5
:1043D00002EB830353ED077AF4EEC07AF1EE10FAA4
:1043E0001FDC30EE670AF2EE046AC0EE267AB7EE02
:1043F000000AB8EEC77A9FED0D6AF0EE406AE7EE6C
:10440000466A67EEA67AF5EEC07AF1EE10FA08D4A5
:10441000F4EEC07AF1EE10FA30FE270A7047072357
:10442000D5E79FED030A70477CAE04080000803B8F
:104430000000000070B504462FF0D2FDD4F880399A
:10444000D4F88429054653EA02004DD05B1B62EB89
:104450000102012B72F100003EDB6FF0004083424D
:1044600072F1000200DA1846B4F84E3A9BB394F9A0
:10447000513A803314D0D4F8582AD4F85C6A521BCD
:1044800066EB0106012A76F1000327DB6FF000439B
:104490009A4276F1000600DA1346984228BF184681
:1044A000D4F8683AD4F86C2A53EA02041CD00F4CB2
:1044B0001B1942F100025B1B62EB0101012B71F140
:1044C00000020DDB6FF00042934271F1000109DA46
:1044D000984228BF184670BD0020C5E70023DCE7DE
:1044E0000023F5E71346F3E70020F4E700974901BE
:1044F00070B504464B480025C4E902132060002330
:1045000000200021C4E9042504F518622362C4E9EF
:10451000065525716362C4F85858C4F85C58C4F84D
:104520007059C4F8745984F87859C2E9000143F607
:104530009822C4F88C294FF4004204F52666A4F8AA
:10454000502A84F88859C4F89059C4F89459C4F88A
:104550009859C4F89C59C4F8A059C4F84C5A46E973
:104560000201C6E9000104F5276646E902010126B9
:10457000A4F8705A84F8726AC4F8745AA4F89C2A91
:1045800004F6C822C4F8785AC4F87C5AC4F8805A91
:10459000A4F8845A84F8865AC4F8885AC4F88C5A05
:1045A000C4F8905AC4F8945AC4F8985AC4F8A05A57
:1045B000C4F8A45AA4F8A85AC4F8AC5AA4F8C45A27
:1045C000136004F6CC221360A4F8D05AC4F8D45A6D
:1045D000C4F8D85AC4F8DC5AC4F8E05A84F8D05B5E
:1045E000A4F8D25BC4F8D45BC4F8D85BC4F8DC5B35
:1045F00004F516603BF085FB3246294604F6B830D8
:104600003AF04CFF29464FF4036204F1280044F0CD
:1046100088F9A822294604F6A41044F082F920461D
:1046200070BD00BFA0AD040808B503468068B3F8AC
:10463000D21B8368002908BFFF215B68984758B1E7
:10464000084B98420BD841F2883300F5FA704000CD
:10465000984238BF184608BD41F28830FBE76FF436
:104660007A70F8E70BFEFF7FF0B590F8D03B044678
:1046700089B0B3B900F6E825002600270A20CDE965
:104680000043CDE9023004932846CDE90667064B86
:1046900018F00EFB054928463BF035F8012384F855
:1046A000D03B09B0F0BD00BF594303080A230508F9
:1046B00070B50C460546164600211422204644F0EB
:1046C00030F995F8C53A002B3BD005F6C82393ED99
:1046D000007A05F6CC23D3ED007A95F8D02A95F828
:1046E000D11ADFED2B6AFCEEE77A27EE267A17EE79
:1046F000903ABCEEC77A9BB21F2B84ED007A08D0AB
:1047000033D80F2B05D02ED8072B02D00A2B18BF79
:104710007D23A3808B1F022B96BF04390121C9B2D0
:10472000082A8CBF10232023A271E1712381EB683A
:104730002BBB1623A3720223E3730423E6722374B4
:1047400070BDEB6843B193ED127AD3ED1E7A93F806
:10475000742093F87510C4E70722DFED0E7A9FED01
:104760000E7A0521BDE7142BD1E7FA2BD1D003D85F
:10477000292BCED03E2BCAE7B3F5FA7FC7E793F9D2
:104780004C30162BA372D4DC0933D4DAF723D1E7EB
:1047900000247449000078428D67594490F8C53A66
:1047A00073B100F6C82090ED007ADFED096AF6EEED
:1047B000007AE7EE267AFCEEE77A17EE900A704769
:1047C000C36813B193ED127AEFE79FED027AECE73D
:1047D000002474498D67594490F8C53A7BB100F6BE
:1047E000CC2090ED007AF2EE046AF6EE007AE7EE65
:1047F000267AFCEEE77A17EE903A98B27047C368D3
:1048000013B193ED1E7AEEE79FED017AEBE700BF5F
:10481000000078422DE9F04F85B0C0F874190446C5
:104820002FF0DEFB002304F5186A84F89339D4F8DE
:104830008029DAF804300E4652EA0301074603D015
:10484000974276EB03030FDB94F88839012B0ED9DE
:10485000002384F88839D4F88C39DB1946F1000636
:10486000C4F88039CAF8046005B0BDE8F08F0133A0
:1048700084F8883941F28833FB1846F10002C4F805
:10488000803904F11400CAF804202FF08AFB0028B4
:10489000EAD004F118002FF084FB0028E4D123684B
:1048A00020461B6B9847804628B9D4F8943A0133C8
:1048B000C4F8943AD8E723682046DB6A984705464F
:1048C0000028D1D12046FFF787FF814614F0AEFFC4
:1048D000D4F894399E49C01AA0FB01010A23B9FB00
:1048E000F3F39BB2012B38BF012303F2A739B9FBC5
:1048F000F3F9984B1A682B46FCF778F9B0EB091FCF
:10490000B2D323680822D3F89CB069464B462046B0
:10491000D847002805DAD4F8903A0133C4F8903A21
:10492000A2E7D4F8881A07280144C4F8881A05DCDD
:10493000D4F88C3A0133C4F88C3AECE76A4628463E
:10494000D4F88C39DB1946F10006C4F88039CAF86E
:10495000046084F8885932F9027F0346164636F916
:1049600002CCBC4503DD013B26F802C9F7D204AEF8
:10497000013006EB4303072823F80E7CEBD1BDF989
:104980000EE0BDF900C0D4F89C09BDF90820BDF9BE
:104990000630E645AEEB0C070744134408BFD4F8D5
:1049A000A009D4F8982908BF013002F1010203EBF5
:1049B000D37308BFC4F8A009B2F5005F4FEA6306DD
:1049C000C4F8982943F34F03C4F89C791CD35208C8
:1049D000C4F89829D4F8A0297F085208C4F8A0295F
:1049E000D4F88C2A49085208C4F88C2AD4F8902AA2
:1049F000C4F89C795208C4F8902AD4F8942AC4F8D0
:104A0000881A5208C4F8942AD4F87019A4F8903976
:104A100039B101F107084645CCBF4FF000084FF00F
:104A20000108012284F89329B4F9842A84F8928930
:104A30009A422ED194F8863AFF2B02D0013384F8A3
:104A4000863A2046FFF7C8FE0A22B0FBF2F292B285
:104A50001F2A40D0B0F5A07F26D20F2A3ED09F2833
:104A60001BD8072A3DD00A2A14BF6FF07A026FF0D4
:104A7000850200293ED1B242B8BF32466FF0310301
:104A800084F878199A42D4BFC4F87029C4F87039F0
:104A9000EAE6A4F8843A0023D1E7142A14BF6FF0A1
:104AA0007A026FF08202E4E7FA2A1DD040F6CD13B5
:104AB000984208D8292A1AD03E2A14BF6FF07A02E9
:104AC0006FF07D02D5E7B2F5FA7F14BF6FF07A027E
:104AD0006FF07402CDE76FF08002CAE76FF08302D7
:104AE000C7E76FF08602C4E76FF07702C1E76FF0A7
:104AF0007F02BEE794F87839072B84BF03F00F05D7
:104B0000B5FA85F503F1010088BF6D09072B84F81C
:104B1000780905D925B901F10D039E423FF7A4AEEE
:104B2000731A002BCCBF04206FF00300C31848BFDA
:104B3000073301EBE3019142B8BF11466FF0310337
:104B40009942D4BFC4F87019C4F870398CE600BF1C
:104B500040420F00C0090020024610B52FF062FB52
:104B600092F8C53A06EE101A0446002B00F0828037
:104B700002F6CC23D3ED007AB1EE0C7A10462FF07A
:104B80005EFB0C2C234628BF0C23F4EE477ADBB2E5
:104B9000062B38BF06239FED3B7AF1EE10FA4FF05B
:104BA000010148BFF0EE477A082828BF0820994045
:104BB00007EE101ADFED344AC2B2052A38BF0522CB
:104BC000082C8CBF1021202167EEA47AB8EEC77A9A
:104BD000C7EE275A07EE101AF1EE017AB8EEC77A3F
:104BE00037EE277ADFED297AF4EEE75A07EE903AAE
:104BF000B1EE005AF8EEE77AB8EEC66A65EE676A7B
:104C0000B2EE004AE6EE046AB3EE0C6A76EE866A0D
:104C1000B3EE006AB7EE003AF1EE10FADFED1C3A9F
:104C200076EE866AB0EE006A73FE232AE2EEC67A5A
:104C300067EE857AF4EE437AF1EE10FA48BFF0EEB3
:104C4000457A27EE257A86EEA76AFAFE466A07EECF
:104C5000902AF8EEE77A67EEA67AC7FEA37A77EE97
:104C6000847AA5EEA77A67EE247AFCEEE77A17EE4F
:104C7000900A10BDD36813B1D3ED1E7A7CE7DFED47
:104C8000057A79E70000FA4200007A445A2F863C00
:104C900000000000000078422DE9F04F04468BB080
:104CA0002FF054FB94F8713A04F1140A002B00F031
:104CB000C4802046002205A9FFF7FAFCBDF8183091
:104CC0009DF81A001F2B00F0A48000F28F800F2B9C
:104CD00000F0A28000F28380072B00F0A08042F653
:104CE000B1025F490A2B18BF0A4606288CBF4FF055
:104CF000080B4FF00C0BBBF1080F0CBF112319234D
:104D0000BDF81C509D4240F3A780012181405548C9
:104D10000023A1FB0001FBF769FF23680646D3F8D7
:104D2000D8302046984781460520A5EB4B0808F16E
:104D3000FF3806FB08F864220023A8FB0001FBF7FC
:104D400055FF09F5FA63A8EB0007BB42D4F8742AB3
:104D50006DD20E357543A7EB0907BD420BFB066606
:104D600008D96B1CA3EB080303444B445B089E4229
:104D700038BF1E46964203D1D4F8783ABB4203D0DE
:104D8000C4F8746AC4F8787A374D4FF4004B28465B
:104D900000210023E6FB0B01324AFBF727FF814687
:104DA0000E4628460021D4F808800023E7FB0B01BB
:104DB0002C4AFBF71BFFD8F808301D6A002D3CD0A9
:104DC0002A4B4A468DE80B00039433464046A847D9
:104DD00098BB14F02BFD0121C4F8940936E045F28C
:104DE00061121F49142B18BF0A467EE7FA2B19D00F
:104DF00008D8292B18D04FF2244219493E2B18BF4E
:104E00000A4672E7164A1A49B3F5FA7F08BF0A46FE
:104E10006BE747F6122268E743F6095265E741F669
:104E2000846262E7134A60E74AF2C3225DE7013217
:104E300003D04FF0FF33C4F8743AA0682246836869
:104E40000A495B6998470028C3DA002150460BB035
:104E5000BDE8F04F2FF0FDB8D4F8743A0133E7E71E
:104E600048E8010040420F003F420F003D41030867
:104E700020A1070090D0030038B503680446D3F89A
:104E8000D0300D469847B8B104F6D4302FF089F8E9
:104E9000034604F6DC302FF084F81844D4F87C3A4A
:104EA000984202D1D4F8803A3BB9C4F87C0A012D6B
:104EB00038BF0125C4F8805A38BD084AEB1A93421E
:104EC000FAD994F8863A072BF6D923682046D3F806
:104ED000C83098472046FFF7DFFEE8E7BF27090004
:104EE00070B503680446D3F8D4300E469847B8B37B
:104EF00094F8A83A33B1D4F8A03AD4F8A42AF31A13
:104F000093422DD3D4F8AC3A23B14EF65F22F31A74
:104F1000934225D9206918B303689B689847B4EE7B
:104F2000400AF1EE10FA1BD62DF06EFA0122184B52
:104F300005B2C4F8A43AB4F99C3A84F8A82A13F547
:104F4000004FC4F8A06A02D1A4F89C5A08E0EB1AFA
:104F5000002BB8BF5B42042B03DC002384F8A93A82
:104F600070BD94F8A93A33B943F6982384F8A92A76
:104F7000C4F8A43AF4E7002384F8A93A2368204649
:104F8000D3F8CC3098472046FFF786FEDCE700BF19
:104F900080EE360038B5044618302FF002F8A0BB7A
:104FA00023682046DB6A984778BB2FF019F805463E
:104FB00004F6D4302EF0F5FF034604F6DC302EF074
:104FC000F0FFD4F87C2A0344934202D1D4F8803A0B
:104FD00063B90023C4F8983A29462046FFF74CFFEE
:104FE00029462046BDE83840FFF77ABF074AEB1A4A
:104FF0009342F1D9D4F8983A13B1EB1A9342EBD912
:10500000012D2B4638BF0123E4E738BDBFD4010092
:105010002DE9F04F03688BB0D3F8BC3004468846C6
:1050200017469847824638B939464046644A0BB01D
:10503000BDE8F04F2BF04ABED4F89819002900F0D3
:105040008D800A236420D4F89C295A43D4F8A039CF
:1050500002EB5102434303EB5103B2FBF1F2B3FB0A
:10506000F1F10A2594F94D0A94F84C6A0591B2FBC6
:10507000F5F105FB112200EB0A03CDE90312CDE99E
:105080000003504A504B4046002E08BF1346CDF84F
:1050900008A04E4A27EAE7712BF018FEC72F0546F5
:1050A00040445DDDD4F8943A791B0393D4F8903AE8
:1050B000474A0293D4F88C3A0193D4F8883A009383
:1050C000D4F898392BF002FE054408EB0500791B53
:1050D00094F8503A3F4A2BF0F9FD23680544D3F881
:1050E000B43020469847014640B9AF4208EB05006E
:1050F000C8BF791B384A2BF0E9FD0A3520462FF04E
:1051000072FA834620462FF085FA94F94D9A6FF093
:105110000702D945B8BFD9468145A8BF814609F1E4
:10512000FF36B345CABF0BF1020309F101035E4626
:105130008342C4BF0346861E9642B8BF16460C2B58
:10514000A8BF0C234FF0640B099304EBC604099B22
:10515000B34209DA28460BB0BDE8F08F0A4680E773
:10516000AF42B4DC0021B3E7B4F8E429B4F8E8C9ED
:105170001AB353080BFB0C33B3FBF2F30693B4F8EA
:10518000EA39BD42CDE904C3B4F8E639B8BF791BAA
:10519000CDE902230AEB0603CDE90063A8BF002195
:1051A00008EB0500B14514BF20232A230B4A2BF03E
:1051B0008DFD013605440834C9E71346DEE700BF1C
:1051C00017230508152A0508A53305081F23050818
:1051D000452305085A230508632305086E2305089F
:1051E0002DE9F047B0F84E3A0446002B00F0C78096
:1051F0002EF0F6FE0F4604F52761064651E902320D
:1052000053EA020040F08C8041E9026794F9515A58
:1052100015F1800F23D0D4F8582AD4F85C3A96427E
:1052200077EB03031BDB23682046D3F8B0309847A5
:10523000EB000128234440F08180B3F8EA290132D1
:10524000A3F8EA298023204684F8513A2FF013FB73
:1052500028B994F84C3A13B120462FF09AFA94F8F2
:105260009339002B00F08B80002384F8933994F954
:10527000513A803340F0838023682046D3F8B4301D
:10528000984700287BD094F89239002B77D0236878
:105290002046DB6A98478246002870D104F52668CC
:1052A000C4F8606A2046C8F804702FF03EFA2368FC
:1052B0000146D3F8AC3007462046984706462EF004
:1052C0008FFE022E81460D464FD14FF6EF7304EB51
:1052D000C701B1F8E4299A4202D920462FF00BFA0F
:1052E000B1F8E4390133A1F8E439002E49D0B1F81E
:1052F000E639022E03F10103A1F8E63941D1236812
:1053000084F8517A2046D3F8B430984710EB09005E
:1053100045F10005643045F1000548E902052EE03D
:105320001F48F31A67EB020298424FF000039341C3
:10533000BFF66CAF20462FF0DEF965E7022805D1F5
:10534000B3F8E8290132A3F8E8297BE7B3F8E429A8
:1053500012B1013AA3F8E429B3F8E629002A3FF490
:1053600071AF013AA3F8E6296CE7514604F1140045
:105370002EF06FFE2046FFF78FFC002EA5DABDE869
:10538000F08720462FF077FA0028F8D194F84C3AAD
:10539000002BF4D02046BDE8F0472FF0FAB900BF4B
:1053A00000974901F0B50C4B85B01B7893B9D1E952
:1053B00002240F7D094B0A4E0D69002F18BF33469A
:1053C000CDE90024CDE90253D1E900230146054887
:1053D00032F03FFF05B0F0BD305D02209323050899
:1053E0008E2305089823050870B50D46164604243B
:1053F0003146284634F066F948B14FF4A4700021D4
:105400003AF047FA013CF3D10148FEF77FFF70BD47
:10541000DB2305082DE9F04FDFF89C811D4698F845
:10542000003004460E46174691B033B912F002FA26
:1054300012F00CFA012388F800303AF00AFB4FF41E
:105440007A794FF0000BA0FB090309FB0131202200
:10545000C30B43EA4143DB19DA465F464FF0FF389E
:105460004FEAD13106930DEB020041F10003002118
:10547000079343F056FACDE902BBCDF804B03AF0F9
:10548000E8FA4FF47A73A0FB030C09FB01C1069BF9
:105490004FEAD03C4CEA414C9C45079B4FEAD13146
:1054A00099411EDBBBF10F0F40F3848001981F2848
:1054B000D4BF01200020BAF1040FD8BF00206DB185
:1054C000BBF1000F08BF4FF00008019BC5E900BA0F
:1054D000AB60029BC5F80C802B61287511B0BDE84C
:1054E000F08F14F0A3F904900BF0C6FD059014F0B2
:1054F0009DF9049BC01A61EB0101102871F10001B4
:10550000F5D30BF0B9FDC6F3080C059B14F80C108D
:10551000C01A414004F80C10711CC1F3080114F8C2
:1055200001C08CEA102C04F801C006F1020CCCF387
:10553000080C14F80CE0F11C8EEA104E04F80CE094
:10554000C1F3080114F801C004368CEA106C04F8A9
:1055500001C0C0F30D00BBF1000F23D0039B9842A4
:1055600020D1019B0137BB42B8BF3B460193BAF142
:10557000070F0BDC00210DF1200C8A4514D110AB74
:1055800003EB8A0141F8200C0AF1010A029B8045D5
:1055900028BF8046834238BF03460BF1010B0293BC
:1055A00003906CE70127E2E75CF8043B9842EDD0FA
:1055B0000131E2E7002082E72F5D02202DE9F04F64
:1055C000A94EADF5317D04460D46904600214FF4BD
:1055D000007230A81F4643F0A4F933783BB9A348C2
:1055E00032F037FE337813B9A14832F032FE402151
:1055F00030A834F067F8337881463BB930A82FF0F3
:10560000DFF9494602469B4832F023FE1022002172
:105610000AA843F086F910210AA836F0A1FF00235A
:1056200001460DF1FF020DF1280C8B4202DA102B1E
:1056300040F08780337813B98F4832F00AFEB8F112
:10564000000F16D0AFB1202F3946424628BF202187
:105650000DF20F13571812F8010B13F801CFBA42CD
:1056600080EA0C001870F6D1337813B9834832F011
:10567000F0FD1822002116A843F053F97021C8222A
:1056800016AB30A8FFF7C6FE074616A97C48FFF701
:1056900089FEB7B9337813B97A4832F0DAFD702150
:1056A0004FF4C87216AB30A8FFF7B4FE074616A930
:1056B0007548FFF777FE27B9337813B9734832F08E
:1056C000C8FD40218CA833F0FDFF337807463BB975
:1056D0008CA82FF075F9394602466D4832F0B9FDB5
:1056E000182200211CA843F01CF91CAB32224FF4F5
:1056F000D87130A8FFF78EFE66481CA9FFF752FE4E
:1057000033781BB92946644832F0A3FD0023079380
:1057100019F084FC202307AF00934FF400725F4818
:10572000019728AB30A93CF081FB064610B9079FD2
:10573000202F0FD0202128A82EF082FB5848FEF7FA
:10574000E5FD12F801EF1CF8010B013380EA0E00B1
:1057500010706AE70146142223A843F0E2F84FF4E0
:105760001053ADF888304FF480734E4A0DF1200885
:10577000CDE92432ADF88A3028A943463A4622A81A
:10578000C8F800603CF073FA0646394628A82EF0A7
:1057900057FB002ED2D1102231460EA843F0C1F89B
:1057A00037460DF1240ABD42D8F8000017D900236E
:1057B000CAF8003010230DF1380B0DF148095A4694
:1057C0003849CDF808A00193CDF8009019F0DCFA23
:1057D00018B9DAF80030102B14D04FF0FF36D8F893
:1057E00000003CF07AF910210EA82EF029FB002EC3
:1057F000A4D1012319462544AC421CD101B933B3CD
:1058000029489CE7EA1B102A28BF1022E0194946C4
:10581000059243F060F8059A17444A4612F8013D94
:105820000133DBB213700BB95A45F7D1102148464A
:105830002EF006FBB7E714F8012B32B1FF2A14BF94
:10584000002303F001030021D6E71346D4E730A874
:105850004FF400712EF0F4FA10210AA82EF0F0FA9D
:105860000DF5317DBDE8F08F305D0220FC23050889
:10587000202405086824050897240508D82405086D
:10588000FA2405080C250508392505084B250508C7
:1058900089250508B8250508CA250508090000025C
:1058A000032605080044400422260508002330B5DD
:1058B000044689B01A4620216846FFF77FFE6946F4
:1058C00020462DF02DFB65252378013BDBB2FD2B17
:1058D00005D8202168462EF0B3FA09B030BD013D4D
:1058E00002D10748FEF712FD002368461A46202120
:1058F000FFF764FE694620462DF012FBE4E700BF87
:105900004D260508014B1870704700BF315D02201D
:10591000014A2BF0DBB900BF73260508D0ED017AF0
:10592000DFED066AF8EEE77A90ED000A87EEA67AD8
:10593000B8EEC00A37EE000A704700BF0024744971
:10594000084B1B685BB9084B1B6843B9074B1B68C6
:10595000003B18BF0123064A002013707047012343
:10596000F9E700BF3C030220380302203403022081
:10597000355D0220014B1878704700BF355D02206D
:1059800073B54D4D1C220021044642F0CAFF286821
:1059900080B32FF04FF868BB6A460D2128682FF0BE
:1059A0004DF830B96846FFF7B9FF012384ED000ACE
:1059B00023756A46102128682FF040F830B96846F0
:1059C000FFF7ACFF012384ED010A63753B4B1B78A5
:1059D00083B16A460E2128682FF030F850B9684626
:1059E000FFF79CFFF2EE047A20EE270A012384EDF4
:1059F000020AA375324E306830B3A37D23BB2B68F7
:105A0000984201D02FF016F86A460E2130682FF028
:105A100015F850B96846FFF781FFF2EE047A20EEE0
:105A2000270A012384ED020AA375237D63B96A4620
:105A30000D2130682FF002F830B96846FFF76EFF8D
:105A4000012384ED000A23751E4D286808B32EF04B
:105A5000F1FFF0B96A46122128682EF0EFFF30B945
:105A60006846FFF75BFF012384ED040A2376237D5C
:105A700063B96A460D2128682EF0E0FF48B96846F0
:105A8000FFF74CFF012384ED000A2375002002B0CC
:105A900070BD237D002BF9D1637D002BF6D1A37D52
:105AA000002BF3D1237E002BF0D1E37D002BEDD131
:105AB0006FF03C00EBE700BF3C030220365D0220A4
:105AC0003803022034030220014B1878704700BFCE
:105AD000325D02202DE9F0434422002185B00446C6
