:020000040800F2
:1000000038C90020C1CB0008B3F40108ADCB00080B
:10001000ADCB0008ADCB0008ADCB0008ADCB0008E0
:1000200000000000000000000000000019CC0008E3
:10003000ADCB000800000000CDCD0008ADCB00081E
:1000400029C3000845CE000845CE000845CE00086B
:1000500045CE000845CE000845CE000845CE000834
:1000600045CE000845CE000845CE000845CE000824
:1000700045CE000845CE000845CE000845CE000814
:1000800045CE000845CE000845CE000845CE000804
:1000900045CE000845CE000845CE000845CE0008F4
:1000A00045CE000845CE000845CE000845CE0008E4
:1000B00045CE000845CE000845CE000845CE0008D4
:1000C00045CE000845CE000845CE000845CE0008C4
:1000D00045CE000845CE000845CE000845CE0008B4
:1000E00045CE000845CE000845CE000845CE0008A4
:1000F00045CE000845CE000845CE000845CE000894
:1001000045CE000845CE000845CE000845CE000883
:1001100045CE000845CE000845CE000845CE000873
:1001200045CE000845CE000845CE000845CE000863
:1001300045CE000845CE000845CE000845CE000853
:1001400045CE000845CE000845CE000845CE000843
:1001500045CE000845CE000845CE000845CE000833
:0C01600045CE000845CE000845CE000842
:1001700081F0004102E000BF83F0004330B54FEA58
:1001800041044FEA430594EA050F08BF90EA020FC5
:100190001FBF54EA000C55EA020C7FEA645C7FEA58
:1001A000655C00F0E2804FEA5454D4EB5555B8BF7B
:1001B0006D420CDD2C4480EA020281EA030382EAEC
:1001C000000083EA010180EA020281EA0303362D7E
:1001D00088BF30BD11F0004F4FEA01314FF4801C51
:1001E0004CEA113102D0404261EB410113F0004F63
:1001F0004FEA03334CEA133302D0524263EB43031A
:1002000094EA050F00F0A780A4F10104D5F1200EB7
:100210000DDB02FA0EFC22FA05F2801841F1000112
:1002200003FA0EF2801843FA05F359410EE0A5F1E6
:1002300020050EF1200E012A03FA0EFC28BF4CF017
:10024000020C43FA05F3C01851EBE37101F00045CD
:1002500007D54FF0000EDCF1000C7EEB00006EEBDA
:100260000101B1F5801F1BD3B1F5001F0CD3490864
:100270005FEA30004FEA3C0C04F101044FEA4452BB
:1002800012F5800F80F09A80BCF1004F08BF5FEA42
:10029000500C50F1000041EB045141EA050130BD22
:1002A0005FEA4C0C404141EB0101013C28BFB1F534
:1002B000801FE9D291F0000F04BF01460020B1FA7F
:1002C00081F308BF2033A3F10B03B3F120020CDA52
:1002D0000C3208DD02F1140CC2F10C0201FA0CF030
:1002E00021FA02F10CE002F11402D8BFC2F1200C95
:1002F00001FA02F120FA0CFCDCBF41EA0C0190404B
:10030000E41AA2BF01EB0451294330BD6FEA040493
:100310001F3C1CDA0C340EDC04F11404C4F120027E
:1003200020FA04F001FA02F340EA030021FA04F390
:1003300045EA030130BDC4F10C04C4F1200220FAE7
:1003400002F001FA04F340EA0300294630BD21FA25
:1003500004F0294630BD94F0000F83F4801306BFEB
:1003600081F480110134013D4EE77FEA645C18BFDF
:100370007FEA655C29D094EA050F08BF90EA020F76
:1003800005D054EA000C04BF1946104630BD91EA6E
:10039000030F1EBF0021002030BD5FEA545C05D171
:1003A0004000494128BF41F0004130BD14F58004B0
:1003B0003CBF01F5801130BD01F0004545F0FE4124
:1003C00041F470014FF0000030BD7FEA645C1ABF59
:1003D000194610467FEA655C1CBF0B46024650EA90
:1003E000013406BF52EA033591EA030F41F40021BC
:1003F00030BD00BF90F0000F04BF0021704730B542
:100400004FF4806404F132044FF000054FF0000116
:1004100050E700BF90F0000F04BF0021704730B5D7
:100420004FF4806404F1320410F0004548BF4042AC
:100430004FF000013EE700BF42004FEAE2014FEA01
:1004400031014FEA02701FBF12F07F4393F07F4FDC
:1004500081F06051704732F07F4208BF704793F0DF
:100460007F4F04BF41F40021704730B54FF46074F2
:1004700001F0004521F000411CE700BF50EA0102F5
:1004800008BF704730B54FF000050AE050EA01029E
:1004900008BF704730B511F0004502D5404261EB0E
:1004A00041014FF4806404F132045FEA915C3FF44F
:1004B000D8AE4FF003025FEADC0C18BF03325FEAEC
:1004C000DC0C18BF033202EBDC02C2F1200300FA9D
:1004D00003FC20FA02F001FA03FE40EA0E0021FAC2
:1004E00002F11444BDE600BF70B54FF0FF0C4CF4B0
:1004F000E06C1CEA11541DBF1CEA135594EA0C0F62
:1005000095EA0C0F00F0DEF82C4481EA030621EA9C
:100510004C5123EA4C5350EA013518BF52EA0335D7
:1005200041F4801143F4801338D0A0FB02CE4FF089
:100530000005E1FB02E506F00042E0FB03E54FF0B9
:100540000006E1FB03569CF0000F18BF4EF0010EB1
:10055000A4F1FF04B6F5007F64F5407404D25FEAAD
:100560004E0E6D4146EB060642EAC62141EA555160
:100570004FEAC52040EA5E504FEACE2EB4F1FD0CA2
:1005800088BFBCF5E06F1ED8BEF1004F08BF5FEA20
:10059000500E50F1000041EB045170BD06F00046D2
:1005A00046EA010140EA020081EA0301B4EB5C047F
:1005B000C2BFD4EB0C0541EA045170BD41F4801177
:1005C0004FF0000E013C00F3AB8014F1360FDEBF9C
:1005D000002001F0004170BDC4F10004203C35DA78
:1005E0000C341BDC04F11404C4F1200500FA05F3FB
:1005F00020FA04F001FA05F240EA020001F000429C
:1006000021F0004110EBD37021FA04F642EB060111
:100610005EEA430E08BF20EAD37070BDC4F10C043B
:10062000C4F1200500FA04F320FA05F001FA04F2FF
:1006300040EA020001F0004110EBD37041F10001EB
:100640005EEA430E08BF20EAD37070BDC4F12005F6
:1006500000FA05F24EEA020E20FA04F301FA05F25E
:1006600043EA020321FA04F001F0004121FA04F206
:1006700020EA020000EBD3705EEA430E08BF20EAD6
:10068000D37070BD94F0000F0FD101F00046400010
:1006900041EB010111F4801F08BF013CF7D041EA92
:1006A000060195F0000F18BF704703F00046520096
:1006B00043EB030313F4801F08BF013DF7D043EA67
:1006C0000603704794EA0C0F0CEA135518BF95EA1D
:1006D0000C0F0CD050EA410618BF52EA4306D1D1A4
:1006E00081EA030101F000414FF0000070BD50EAC3
:1006F000410606BF1046194652EA430619D094EA4D
:100700000C0F02D150EA013613D195EA0C0F05D136
:1007100052EA03361CBF104619460AD181EA03018A
:1007200001F0004141F0FE4141F470014FF0000042
:1007300070BD41F0FE4141F4780170BD70B54FF0DD
:10074000FF0C4CF4E06C1CEA11541DBF1CEA13555D
:1007500094EA0C0F95EA0C0F00F0A7F8A4EB05043F
:1007600081EA030E52EA03354FEA013100F0888036
:100770004FEA03334FF0805545EA131343EA1263FF
:100780004FEA022245EA111545EA10654FEA0026B4
:100790000EF000419D4208BF964244F1FD0404F56D
:1007A000407402D25B084FEA3202B61A65EB0305C9
:1007B0005B084FEA32024FF480104FF4002CB6EB86
:1007C000020E75EB030E22BFB61A754640EA0C0006
:1007D0005B084FEA3202B6EB020E75EB030E22BF46
:1007E000B61A754640EA5C005B084FEA3202B6EB87
:1007F000020E75EB030E22BFB61A754640EA9C0046
:100800005B084FEA3202B6EB020E75EB030E22BF15
:10081000B61A754640EADC0055EA060E18D04FEAD3
:10082000051545EA16754FEA06164FEAC30343EA73
:1008300052734FEAC2025FEA1C1CC0D111F4801F40
:100840000BD141EA00014FF000004FF0004CB6E739
:1008500011F4801F04BF01430020B4F1FD0C88BFD8
:10086000BCF5E06F3FF6AFAEB5EB030C04BFB6EBE3
:10087000020C5FEA500C50F1000041EB045170BDD6
:100880000EF0004E4EEA113114EB5C04C2BFD4EB03
:100890000C0541EA045170BD41F480114FF0000E87
:1008A000013C90E645EA060E8DE60CEA135594EA03
:1008B0000C0F08BF95EA0C0F3FF43BAF94EA0C0F06
:1008C0000AD150EA01347FF434AF95EA0C0F7FF47B
:1008D00025AF104619462CE795EA0C0F06D152EACF
:1008E00003353FF4FDAE1046194622E750EA4106B3
:1008F00018BF52EA43067FF4C5AE50EA41047FF4C4
:100900000DAF52EA43057FF4EBAE12E74FF0FF3C28
:1009100006E000BF4FF0010C02E000BF4FF0010CF9
:100920004DF804CD4FEA410C7FEA6C5C4FEA430C72
:1009300018BF7FEA6C5C1BD001B050EA410C0CBFC1
:1009400052EA430C91EA030F02BF90EA020F002023
:10095000704710F1000F91EA030F58BF994208BF8A
:1009600090422CBFD8176FEAE37040F00100704747
:100970004FEA410C7FEA6C5C02D150EA013C07D19E
:100980004FEA430C7FEA6C5CD6D152EA033CD3D0E9
:100990005DF8040B704700BF8446104662468C46E3
:1009A0001946634600E000BF01B5FFF7B7FF002816
:1009B00048BF10F1000F01BD4DF808EDFFF7F4FF3F
:1009C0000CBF012000205DF808FB00BF4DF808EDCA
:1009D000FFF7EAFF34BF012000205DF808FB00BFED
:1009E0004DF808EDFFF7E0FF94BF012000205DF80F
:1009F00008FB00BF4DF808EDFFF7CEFF94BF0120C4
:100A000000205DF808FB00BF4DF808EDFFF7C4FFBC
:100A100034BF012000205DF808FB00BF4FEA41020F
:100A200012F5001215D211D56FF47873B3EB625240
:100A300012D94FEAC12343F0004343EA505311F067
:100A4000004F23FA02F018BF404270474FF00000F9
:100A5000704750EA013005D111F0004008BF6FF037
:100A6000004070474FF00000704700BF4A0011D2AD
:100A700012F5001211D20DD56FF47873B3EB6252F8
:100A80000ED44FEAC12343F0004343EA505323FA04
:100A900002F070474FF00000704750EA013002D179
:100AA0004FF0FF3070474FF0000070474FEA4102AF
:100AB000B2F1E04324BFB3F5001CDCF1FE5C0DD9BC
:100AC00001F0004C4FEAC0024CEA5070B2F1004F06
:100AD00040EB830008BF20F00100704711F0804F09
:100AE00021D113F13872BCBF01F00040704741F4CE
:100AF00080114FEA5252C2F11802C2F1200C10FAD2
:100B00000CF320FA02F018BF40F001004FEAC123B5
:100B10004FEAD32303FA0CFC40EA0C0023FA02F359
:100B20004FEA4303CCE77FEA625307D150EA01332F
:100B30001EBF4FF0FE4040F44000704701F00040FF
:100B400040F0FE4040F40000704700BF80F00040DD
:100B500002E000BF81F0004142001FBF5FEA410395
:100B600092EA030F7FEA226C7FEA236C6AD04FEA95
:100B70001262D2EB1363C1BFD218414048404140DA
:100B8000B8BF5B42192B88BF704710F0004F40F48C
:100B9000000020F07F4018BF404211F0004F41F4A8
:100BA000000121F07F4118BF494292EA030F3FD074
:100BB000A2F1010241FA03FC10EB0C00C3F1200387
:100BC00001FA03F100F0004302D5494260EB400016
:100BD000B0F5000F13D3B0F1807F06D340084FEA81
:100BE000310102F10102FE2A51D2B1F1004F40EB76
:100BF000C25008BF20F0010040EA030070474900DE
:100C000040EB0000013A28BFB0F5000FEDD2B0FA7A
:100C100080FCACF1080CB2EB0C0200FA0CF0AABF9D
:100C200000EBC25052421843BCBFD040184370473B
:100C300092F0000F81F4000106BF80F40000013241
:100C4000013BB5E74FEA41037FEA226C18BF7FEA18
:100C5000236C21D092EA030F04D092F0000F08BF5A
:100C60000846704790EA010F1CBF0020704712F041
:100C70007F4F04D1400028BF40F00040704712F180
:100C800000723CBF00F50000704700F0004343F0E5
:100C9000FE4040F4000070477FEA226216BF08461B
:100CA0007FEA23630146420206BF5FEA412390EADE
:100CB000010F40F4800070474FF0000304E000BFD4
:100CC00010F0004348BF40425FEA000C08BF704785
:100CD00043F0964301464FF000001CE050EA010249
:100CE00008BF70474FF000030AE000BF50EA01025E
:100CF00008BF704711F0004302D5404261EB41014B
:100D00005FEA010C02BF84460146002043F0B6436F
:100D100008BFA3F18053A3F50003BCFA8CF2083A94
:100D2000A3EBC25310DB01FA02FC634400FA02FC9D
:100D3000C2F12002BCF1004F20FA02F243EB0200A4
:100D400008BF20F00100704702F1200201FA02FC06
:100D5000C2F1200250EA4C0021FA02F243EB0200F9
:100D600008BF20EADC7070474FF0FF0C1CEAD0523D
:100D70001EBF1CEAD15392EA0C0F93EA0C0F6FD0FE
:100D80001A4480EA010C400218BF5FEA41211ED0DC
:100D90004FF0006343EA501043EA5111A0FB0131C8
:100DA0000CF00040B1F5000F3EBF490041EAD3719D
:100DB0005B0040EA010062F17F02FD2A1DD8B3F119
:100DC000004F40EBC25008BF20F00100704790F088
:100DD000000F0CF0004C08BF49024CEA502040EADA
:100DE00051207F3AC2BFD2F1FF0340EAC2507047A0
:100DF00040F400004FF00003013A5DDC12F1190FDE
:100E0000DCBF00F000407047C2F10002410021FA4F
:100E100002F1C2F1200200FA02FC5FEA310040F167
:100E2000000053EA4C0308BF20EADC70704792F0E0
:100E3000000F00F0004C02BF400010F4000F013A18
:100E4000F9D040EA0C0093F0000F01F0004C02BF13
:100E5000490011F4000F013BF9D041EA0C018FE782
:100E60000CEAD15392EA0C0F18BF93EA0C0F0AD088
:100E700030F0004C18BF31F0004CD8D180EA0100AE
:100E800000F00040704790F0000F17BF90F0004F47
:100E9000084691F0000F91F0004F14D092EA0C0F29
:100EA00001D142020FD193EA0C0F03D14B0218BFBC
:100EB000084608D180EA010000F0004040F0FE4002
:100EC00040F40000704740F0FE4040F4400070479E
:100ED0004FF0FF0C1CEAD0521EBF1CEAD15392EA1D
:100EE0000C0F93EA0C0F69D0A2EB030280EA010C0D
:100EF00049024FEA402037D04FF0805343EA1111A6
:100F000043EA10130CF000408B4238BF5B0042F103
:100F10007D024FF4000C8B4224BF5B1A40EA0C00A8
:100F2000B3EB510F24BFA3EB510340EA5C00B3EBDA
:100F3000910F24BFA3EB910340EA9C00B3EBD10FC8
:100F400024BFA3EBD10340EADC001B0118BF5FEA1A
:100F50001C1CE0D1FD2A3FF650AF8B4240EBC25043
:100F600008BF20F0010070470CF0004C4CEA502004
:100F70007F32C2BFD2F1FF0340EAC250704740F453
:100F800000004FF00003013A37E792F0000F00F045
:100F9000004C02BF400010F4000F013AF9D040EAC3
:100FA0000C0093F0000F01F0004C02BF490011F457
:100FB000000F013BF9D041EA0C0195E70CEAD1534F
:100FC00092EA0C0F08D142027FF47DAF93EA0C0F36
:100FD0007FF470AF084676E793EA0C0F04D14B021A
:100FE0003FF44CAF08466EE730F0004C18BF31F0CC
:100FF000004CCAD130F000427FF45CAF31F00043C6
:101000007FF43CAF5FE700BF4FF0FF3C06E000BF5E
:101010004FF0010C02E000BF4FF0010C4DF804CD81
:101020004FEA40024FEA41037FEA226C18BF7FEA91
:10103000236C11D001B052EA530C18BF90EA010F93
:1010400058BFB2EB030088BFC81738BF6FEAE17022
:1010500018BF40F0010070477FEA226C02D15FEABE
:10106000402C05D17FEA236CE4D15FEA412CE1D02A
:101070005DF8040B704700BF844608466146FFE7F1
:101080000FB5FFF7C9FF002848BF10F1000F0FBDD3
:101090004DF808EDFFF7F4FF0CBF012000205DF8CC
:1010A00008FB00BF4DF808EDFFF7EAFF34BF012051
:1010B00000205DF808FB00BF4DF808EDFFF7E0FFEA
:1010C00094BF012000205DF808FB00BF4DF808ED3B
:1010D000FFF7D2FF94BF012000205DF808FB00BF9E
:1010E0004DF808EDFFF7C8FF34BF012000205DF880
:1010F00008FB00BF4FEA40024FEA41037FEA226C3F
:1011000002D15FEA402C08D17FEA236C02D15FEA6A
:10111000412C02D14FF0000070474FF001007047A2
:101120004FEA4002B2F1FE4F0FD34FF09E03B3EBF4
:1011300012620DD94FEA002343F0004310F0004F34
:1011400023FA02F018BF404270474FF0000070478A
:1011500012F1610F01D1420205D110F0004008BF29
:101160006FF0004070474FF00000704742000ED211
:10117000B2F1FE4F0BD34FF09E03B3EB126209D4D2
:101180004FEA002343F0004323FA02F070474FF088
:101190000000704712F1610F01D1420202D14FF0FD
:1011A000FF3070474FF00000704700BF7BB972B945
:1011B0000029BEBF00204FF0004106E008BF002814
:1011C0001CBF6FF000414FF0FF3000F057B8ADF199
:1011D000080C6DE904CE002909DB002B1ADB00F0B6
:1011E0007CF8DDF804E0DDE9022304B070474042FA
:1011F00061EB4101002B1BDB00F06FF8DDF804E030
:10120000DDE9022304B0404261EB4101524263EB4D
:1012100043037047524263EB430300F05EF8DDF88E
:1012200004E0DDE9022304B0404261EB4101704774
:10123000524263EB430300F050F8DDF804E0DDE9CF
:10124000022304B0524263EB4303704753B94AB9D7
:10125000002908BF00281CBF4FF0FF314FF0FF30BE
:1012600000F00CB8ADF1080C6DE904CE00F035F8D3
:10127000DDF804E0DDE9022304B07047704700BFE9
:1012800010F8012B11F8013B012A28BF9A42F7D030
:10129000D01A7047034611F8012B03F8012B002ADE
:1012A000F9D17047034613F8012B002AFBD1181A15
:1012B00001387047430803F05533C01A00F0333348
:1012C000800800F0333018444FF0013300EB101069
:1012D00000F00F305843000E70472DE9F0478C4660
:1012E0008E46089E154604461946002B40F0D080D5
:1012F000724547D9B2FA82F74FB1C7F120030EFA0F
:1013000007FCBD40BC4020FA03F343EA0C0C4FEA53
:10131000154EA8B2230CBCFBFEF80EFB18CC08FB44
:1013200000F943EA0C43994528D9EB1808F1FF323C
:1013300004D2994502D9A8F102022B44A3EB090378
:10134000A4B2B3FBFEFC0EFB1C330CFB00F044EA22
:101350000344A04214D92C190CF1FF3304D2A0424B
:1013600002D9ACF102032C44241A43EA02401EB114
:10137000FC40002334607360BDE8F0874246DDE73F
:101380006346F1E7002A79D0B2FA82F3002B3FD00E
:101390001946C1F1200302FA01F500FA01F42EFA10
:1013A00003F20EFA01FE20FA03F3AFB243EA0E0392
:1013B0004FEA154EB2FBFEFC0EFB1C201A0C0CFB78
:1013C00007F842EA004290455AD9AA180CF1FF30BA
:1013D00004D2904502D9ACF102002A44A2EB0802E3
:1013E0009BB2B2FBFEFC0EFB1C220CFB07F743EA90
:1013F00002439F4246D9EB180CF1FF3204D29F42C0
:1014000002D9ACF102022B44DB1B42EA004202E0AB
:10141000AEEB020301224FEA154EAFB2200CB3FB34
:10142000FEFC0EFB1C330CFB07F840EA0343984517
:101430002AD9EB180CF1FF3004D2984502D9ACF14F
:1014400002002B44A3EB0803A4B2B3FBFEFC0EFB8B
:101450001C330CFB07F744EA0344A74216D92C19A6
:101460000CF1FF3304D2A74202D9ACF102032C44A1
:10147000E41B43EA00400F46114678E71F2188E746
:101480006046ABE76246BFE76046DBE76346EFE7EF
:10149000734506D916B9002108466DE7C6E9000E66
:1014A000F9E7B3FA83F787B9734501D3824207D8C6
:1014B000841A6EEB030301209C461EB900215BE7F2
:1014C0003846FAE7C6E9004CF8E7C7F1200CBB4004
:1014D00000FA07F422FA0CF520FA0CF1BA401D4389
:1014E0002EFA0CF30EFA07FE4FEA154941EA0E01F7
:1014F0001FFA85FEB3FBF9F809FB18300B0C08FB4B
:101500000EFA43EA00439A4540D9EB1808F1FF3040
:1015100004D29A4502D9A8F102002B44A3EB0A0396
:1015200089B2B3FBF9F809FB183308FB0EFE41EA58
:1015300003418E452CD9691808F1FF3304D28E453A
:1015400002D9A8F10203294443EA0040A1EB0E01AD
:10155000A0FB02984145CE46434602D306D14C45F6
:1015600004D20138B9EB020E68EB0503002EA5D0BA
:10157000B4EB0E0261EB030101FA0CFC22FA07F353
:10158000F9404CEA0303C6E9003197E74046C5E756
:101590004346D9E7000000002DE9F04F8E070F46C3
:1015A00014468FB040F18F801AF018FF002800F029
:1015B0008A8004A81AF01EFF002800F0848094F8A6
:1015C000C15094F8C03005F10A0898457BDADDE98E
:1015D0000401FEF75BFF98A3D3E90023FFF7AEF801
:1015E000FFF764FA9649FFF7BFFB00210646FFF7B5
:1015F00059FD4FF07C5100286CD03046FFF7AAFA15
:10160000FFF78EFD8146DDE90601FEF73FFF8AA365
:10161000D3E90023FFF792F8FFF748FA8849FFF76C
:10162000A3FB00210646FFF73DFD4FF07C5100284B
:1016300054D03046FFF78EFAFFF772FD0646089841
:10164000FFF73EFB7F49FFF743FC7F49FFF78CFB29
:1016500000218246FFF726FD4FF07C51002841D043
:101660005046FFF777FAFFF75BFD012388226355A9
:10167000EB18DBB2E254AB1CDBB24FEA2942E25476
:10168000EB1CDBB24FEA2922E2542B1DDBB204F83B
:1016900003906B1DDBB23214E254AB1DDBB232128D
:1016A000E254EB1DDBB2E65405F10803DBB2021491
:1016B000E25405F10903DBB202120B35E25484F85F
:1016C000C15004F808007D0700F1AC8001200FB084
:1016D000BDE8F08F3046FFF73FFA91E73046FFF75D
:1016E0003BFAA9E75046FFF737FABCE7404603F05C
:1016F00073FC80B909F101034D465FFA83F9404656
:1017000004A903F07BFC40B108F1010803F05EFC82
:101710004045EBDCDAE70125F1E7BDF81070F8068B
:101720001DD5DDF824B051465846FFF7BBFC002814
:1017300073D158464549FFF7D3FC00286FD158466E
:10174000FFF714FDFFF7B8FA0022CDE9016202228B
:101750000346009265212A4620461AF0A6FEF907A4
:101760000AD502230A226721CDE9003220462A4603
:10177000059B02961AF099FEBB070BD502234FF08A
:10178000000C2A46CDE9013C68212046069B0096C4
:101790001AF08BFE78070BD50A230021CDE9013121
:1017A00002232A46009373212046079B1AF07DFEF0
:1017B0003A0709D502232A46009379212046CDE92C
:1017C0000166089B1AF071FEBB060AD5022364204D
:1017D0002A46CDE90030742120460A9B02961AF071
:1017E00064FE79060BD502234FF47A727521CDE998
:1017F000003220462A460B9B02961AF056FE3B0604
:1018000082D50023CDE9016302232A46009380217B
:1018100020460C9B1AF049FE76E7D3468FE74FF639
:10182000FF708FE74FF000084FF0020901264FF0DC
:10183000000A6BE7AFF300800000000065CDCD41EA
:1018400000401C4600007A440000C84200FF7F4769
:101850002DE9F0431446426987B092F89030151D87
:1018600073B9CDE902538DF804108DF80530049357
:10187000214601A805931AF0B8FE07B0BDE8F08331
:10188000012B1FD18268D2E90289D2E904678DF861
:1018900004108DF8053040460FA3D3E900234946D4
:1018A0000295FEF721FEFFF7B9F80BA3D3E9002359
:1018B000039039463046FEF717FEFFF7AFF80023D6
:1018C0000490D5E7D2E90A89D2E90C6701238DF8A3
:1018D0000410DEE7AFF300800000000080842E419A
:1018E0002DE9F041151D06460F469AB02846954948
:1018F0001C46FFF7C5FC30B9934920461AB0BDE835
:10190000F041FFF7C7BC0A222846904924F0EDFBBE
:10191000C8B9736993F881208D4B197991420BD125
:101920001B688C4A00928C4A4FF48071204616F056
:10193000DDFB1AB0BDE8F0810130042803F1080393
:10194000EBD1864BEDE707222846854924F0CDFBF5
:1019500080B9736993F88220824B1979914202D140
:101960001B68814ADEE70130042803F10803F4D143
:101970007A4BF6E70F2228467C4924F0B6FB58B98B
:1019800073697B4A93F883304FF4807120461AB014
:10199000BDE8F04116F0AABB04222846754924F0A0
:1019A000A4FB40B9736993F88020734B7349002AF4
:1019B00008BF0B461DE015222846714924F095FB0F
:1019C00020B9736993F84F306E4ADDE70F2228463D
:1019D0006D4924F08AFB20B9736993F84E305B009F
:1019E000F2E70E222846694924F07FFB18B9736993
:1019F0005833674AC8E7DFB907222846654924F00B
:101A000074FBA8B9B0691C3603685B6D9847402227
:101A10000AA918F0B6FF0AA90246304601F0EEFD09
:101A200033464FF480712046594A16F05FFB80E739
:101A300004222846584924F058FB10B9736904332E
:101A4000D7E706222846554924F04FFB18B9736999
:101A500093F84D20A9E703222846514924F045FB7D
:101A600058B97369D3E90A23CDE900234D4A4FF4ED
:101A70008071204616F03AFB5BE7032228464A496C
:101A800024F033FB18B97369D3E90C23ECE7102277
:101A90002846464924F029FB18B9736993F87E302B
:101AA00092E712222846424924F01FFB18B97369B5
:101AB00093F87D3088E7092228463E4924F015FB3B
:101AC00018B9736993F87C307EE7122228463A49A8
:101AD00024F00BFB38B97369D86EFEF7ADFC374ABA
:101AE000CDE90001C3E70A222846354924F0FDFA72
:101AF00090B93E23224602F8023B202363707169AD
:101B00009B3111F8013F0BB9137012E70A2B08BF84
:101B10007C2302F8013BF4E70B222846294924F0F4
:101B2000E4FA002858D1736993F835310BB9264986
:101B3000E3E6012B01D12549DFE6022B0CBF244946
:101B40002449DAE697A702089AA70208BEA7020866
:101B50004C850208D0A70208C9A702082CB60208C3
:101B6000EEA702082C85020842C10208F6A7020867
:101B700006A802080DA80208A0A8020835AB0208B2
:101B800012A8020844A3020818A8020828A80208FC
:101B9000A89C020837A802088CB402088B9E020891
:101BA000839E02083FA80208879E020846A80208F2
:101BB00057A802086AA8020874A8020832A30208FB
:101BC00087A8020892A802089EA80208A4A80208F2
:101BD000AEA80208B9A802080A2228469E4924F0A5
:101BE00084FA78B99D492046FFF754FBB069036831
:101BF0005B6D984720220146A01C1AB0BDE8F04159
:101C000001F0FCBC04222846954924F06EFA28B95C
:101C1000B0690368DB6898470346EAE60E22284667
:101C2000904924F062FA08B98F4966E60D222846E9
:101C30008E4924F05AFA08B98D495EE611222846E9
:101C40008C4924F052FAB0B935682B682846D3E99C
:101C50001737984701462846B8473668054633681F
:101C60003046D3E91937984701463046B8472B46E6
:101C7000814A009058E60D222846804924F035FA22
:101C80000028D9D00E2228467D4924F02EFA50B9DA
:101C90003068202203680AA99B6B984708B10AABF9
:101CA000BFE6784929E60E222846774924F01DFA36
:101CB00028BB30680368DB68984700210746FFF7B8
:101CC000E7F908B1714918E6306803681B6898475E
:101CD00005463846FEF7B0FB6DB16D4B6D4A1B688B
:101CE0001B88CDE90001CDE902534FF480712046F5
:101CF00016F0FCF91DE6CDE90001674AB7E60622B9
:101D00002846664924F0F1F920B9736993F8163131
:101D1000634A39E60E222846624924F0E6F908B9FA
:101D20006149EAE50C222846604924F0DEF918B939
:101D30000AF0AEF80346EBE7092228465C4924F096
:101D4000D4F918B9736993F92331E1E708222846D9
:101D5000584924F0CAF990B977B196F8E010C1F16A
:101D6000A1013E23237020230239A01C63701AB006
:101D7000BDE8F04103F0E4B84FF48071F1E70B22C5
:101D800028464D4924F0B1F918B97369D3F88C305D
:101D90001AE608222846494924F0A7F938B91AF06A
:101DA00022FB034600287FF40FAE4549A5E5032238
:101DB0002846444924F099F9002840F08F801AF011
:101DC0000DFB00283FF4B3AE07A81AF01BFB9DF8EB
:101DD0001C300AA8022B96BF3B4A3C4D52F82350B8
:101DE0001AF008FBBDF81E6000B3DDE90C01FEF738
:101DF0004DFB17A3D3E90023FEF7A0FCCDE90401B6
:101E0000DDE90A01FEF742FB11A3D3E90023FEF747
:101E100095FC089BCDE90201CDE900634FF4807188
:101E20002B4620462A4A16F061F982E5099B4BB100
:101E3000CDE900634FF480712B462046254A16F009
:101E400055F976E52B46244A00966DE5AFF3008000
:101E50000000000065CDCD41C2A80208AEA2020874
:101E6000CDA80208D2A80208E1A80208EFA802083B
:101E7000FDA8020823A9020835A902084FA90208F3
:101E80005DA902086CA9020876A9020885A90208C2
:101E900050820208A6A90208D1A90208EAA90208EC
:101EA0003FA40208F1A9020800AA020824AA020815
:101EB00031AA02083BAA020844AA020850AA020852
:101EC00059AA0208049C0208208502086EA902088B
:101ED00069AA02089DAA0208C3AA02080B22284682
:101EE0005C4924F002F930B9B0690368D3F8803056
:101EF0009847034668E50E222846574924F0F5F82E
:101F000018B9736993F81C315EE5092228465349D4
:101F100024F0EBF8C8B9AFB196F8E050C5F1A105CF
:101F200029464F4A204616F0E1F80146B0696A1A80
:101F300003682144D3F88830984700287FF4F9AC2F
:101F40004849DAE44FF48075EAE708222846464912
:101F500024F0CBF828B97369444993F81A21444B0B
:101F600025E50A222846434924F0BFF818B97369C9
:101F700093F91B31CCE60B2228463F4924F0B5F8F3
:101F800038B9736993F81D31002B7FF41DAD3B49BF
:101F9000B3E428463A49FFF773F908B93949ACE484
:101FA00008222846384924F0A0F8002847D00C22FF
:101FB0002846364924F099F8002848D1B0690368CA
:101FC000D3F89830984705460028B9D0002F3BD069
:101FD00096F8E070C7F1A107706803681B6898471E
:101FE00080461CF07EFE73694FF47A7293F81931C3
:101FF000003B18BF012301930023FFF7D7F84346A6
:1020000000903A462146284603F0AEFA91E4204A71
:102010003846002D18BF42461E4916F091F801358A
:10202000032D07443FF485AC73692B4493F81E31AC
:10203000002BECD1002D7FF47CAC17495DE42746E2
:102040000546DFF85880EFE74FF48077C4E72B466A
:10205000134A99E4E0AA0208ECAA0208FBAA0208C3
:10206000AEA202084CA4020805AB0208A0A8020810
:1020700035AB02080EAB020819AB020825AB02080B
:102080002FAB020833AB020838AB02085DAB020885
:1020900042C1020841AB020846AB020864A0020834
:1020A0006AAB0208000000001BA3D3E90023002153
:1020B000C0E900231AA3D3E90023C0E902231AA32D
:1020C000D3E90023C0E9042319A3D3E90023C0E91D
:1020D000062319A3D3E90023C0E9082318A3D3E9F1
:1020E0000023C0E90A2318A3D3E90023C0E90C2385
:1020F00017A3D3E90023C0E90E2300220023C0F870
:10210000D010C0E93023C0E932238022403023F0D0
:10211000D9BF00BFAFF3008008C9BCF367E6096A06
:102120003BA7CA8485AE67BB2BF894FE72F36E3C66
:10213000F1361D5F3AF54FA5D182E6AD7F520E51C3
:102140001F6C3E2B8C68059B6BBD41FBABD9831F7D
:1021500079217E1319CDE05B31F000432DE9F04F7A
:10216000814687B00E4607460C460DD180F48007A5
:102170007F0017F5000F40F2578331464846FEF7BF
:10218000EBFC07B0BDE8F08F20F000480146B8F145
:10219000FF4F02D8B3F1FF4F08D9B7F17E5FECD102
:1021A00084F48004640014F5000FE4E7002823DAC7
:1021B000B3F1974F80F03D83B3F17E5F36D3DA15EC
:1021C000C2F1960243FA02F505FA02F29A4225D1CB
:1021D00005F00105C5F10205B3F17E5F27D1002CA2
:1021E0007EDA00214846FEF753FFC8B1F80F07B06A
:1021F000BDE8F04F17F02ABEB3F1FF4F0ED1B8F192
:102200007E5F00F0118304D9002C80F2108300203F
:10221000B7E7002CFBDA06F10040B2E70025DBE768
:1022200049464FF07E50FEF753FEAAE70025B4F171
:10223000804F424640F00383B8F1BF4F20D2B8F13F
:10224000D05F04D949464846FEF78EFD99E729F04C
:102250000040B8F1000F40D0F90F01390391294334
:1022600024D0B3F19A4F40F2D780654B984539D8C6
:10227000002C3CDA002007B0BDE8F04F17F0DEBDBF
:1022800027F0404C29F00040BCF17E5F1AD1002CB1
:1022900004DA01464FF07E50FEF71AFE002FBFF61B
:1022A00070AFA8F17E5858EA050805D1484607B036
:1022B000BDE8F04F17F0D2BD012D7FF462AF00F101
:1022C00000405EE7B8F1000FC6D1002C05DA17B167
:1022D0006B1E59425941084689E7012D7FF451AFE1
:1022E00048464EE7474B984507D9002CC2DC0020F2
:1022F00007B0BDE8F04F24F0D1B94FF07E51FEF7A2
:1023000029FC07464049FEF72FFD404981463846E3
:10231000FEF72AFD804638A1D1E90001FEF7C6FB91
:1023200082464FF07A513846FEF71EFD0146504670
:10233000FEF710FC3946FEF717FD01464FF07C50C2
:10234000FEF708FC824639463846FEF70DFD014689
:102350005046FEF709FD2E49FEF706FD01464046B0
:10236000FEF7F8FB014680464846FEF7F5FB20F4F1
:102370007F67494627F00F073846FEF7EBFB01461B
:102380004046013DFEF7E6FB039B6FF30B048046DE
:102390001D433046214614BF4FF07E551D4DFEF7BC
:1023A000D9FB3946FEF7E0FC814631464046FEF750
:1023B000DBFC01464846FEF7CFFB06462146384681
:1023C000FEF7D2FC014607463046FEF7C5FB002863
:1023D0000446804620F0004340F34481B3F1864F29
:1023E00040F22D8100212846FEF75CFE003818BF20
:1023F000012040E7AFF30080E13D55555555D53FED
:10240000F3FF7F3F0700803F00AAB83F70A5EC367E
:102410003BAAB83F000080BF17F0FF4F40F00B8190
:102420004FF09741FEF7A0FC6FF017010246D3155D
:10243000C2F316027F3B0B4495498A42029342F055
:102440007E5308DD93498A4240F3F780029AA3F550
:1024500000030132029200278F4A9A4618460493DD
:1024600052F827B05946FEF775FB5146814658464B
:10247000FEF772FB01464FF07E50FEF729FD014644
:1024800005904846FEF770FC0190019B83496FF36D
:102490000B039846049B01EA6303414643F0005353
:1024A00003F5800303EB475318460493FEF75CFCE7
:1024B00001464846FEF74EFB049B814659461846A6
:1024C000FEF748FB01465046FEF744FB4146FEF747
:1024D0004BFC01464846FEF73DFB059A1146FEF7C8
:1024E00043FC019983460846FEF73EFC6C49814651
:1024F000FEF73AFC6B49FEF72FFB4946FEF734FC2A
:102500006949FEF729FB4946FEF72EFC6749FEF7AD
:1025100023FB4946FEF728FC6549FEF71DFB4946AB
:10252000FEF722FC6349FEF717FB82464946484600
:10253000FEF71AFC01465046FEF716FC414681465E
:102540000198FEF709FB5946FEF70EFC4946FEF7D7
:1025500003FB414682464046FEF706FC564904907E
:10256000FEF7FAFA5146FEF7F7FA20F47F69414682
:1025700029F00F094846FEF7F7FB4F4980464846C9
:10258000FEF7E8FA0499FEF7E5FA01465046FEF731
:10259000E1FA0199FEF7E8FB824649465846FEF704
:1025A000E3FB01465046FEF7D7FA83460146404614
:1025B000FEF7D2FA20F47F69404929F00F09484616
:1025C000FEF7D2FB414682464846FEF7C3FA014673
:1025D0005846FEF7BFFA3A49FEF7C6FB804639492E
:1025E0004846FEF7C1FB01464046FEF7B5FA364BBA
:1025F00053F82710FEF7B0FA80460298FEF760FB0A
:10260000324B8146414653F827B05046FEF7A4FAB4
:102610005946FEF7A1FA4946FEF79EFA20F47F6775
:10262000494627F00F073846FEF794FA5946FEF759
:1026300091FA5146A1E60021F9E601270CE74BD1BA
:1026400023493046FEF788FA814639462046FEF790
:1026500081FA01464846FEF743FD00287FF4C2AEEA
:1026600086233EE01B4A934207D900212846FEF705
:1026700019FD003818BF01203AE62DD13946FEF782
:1026800069FA3146FEF722FD0028E9D0EDE700BFE8
:1026900071C41C00D6B35D006896020800F0FFDF2D
:1026A00042F1533E55326C3E05A38B3EABAAAA3E87
:1026B000B76DDB3E9A99193F000040400040763FDD
:1026C0004F38763FC623F6B858960208609602083F
:1026D0003CAA383300001643B3F17C5F40F2A0807F
:1026E000DB157E3B4FF400045B49B8F1000F44FA60
:1026F00003F438464444C4F3C753A3F17F0341FABB
:1027000003F1C3F1170301EA0401C4F3160444F40E
:10271000000444FA03F4B8BF6442FEF71BFA07460C
:1027200031463846FEF718FA20F47F694B4929F004
:102730000F094846FEF718FB394680464846FEF723
:1027400009FA01463046FEF705FA4549FEF70CFB4B
:10275000064644494846FEF707FB01463046FEF769
:10276000FBF9074601464046FEF7F6F941460646A4
:10277000FEF7F0F901463846FEF7ECF9314680469F
:102780003046FEF7F1FA38490746FEF7EDFA3749C9
:10279000FEF7E0F93946FEF7E7FA3549FEF7DCF9CE
:1027A0003946FEF7E1FA3349FEF7D4F93946FEF728
:1027B000DBFA3149FEF7D0F93946FEF7D5FA014682
:1027C0003046FEF7C7F9074601463046FEF7CCFA19
:1027D00081464FF080413846FEF7BCF90146484635
:1027E000FEF776FB414607463046FEF7BDFA414606
:1027F000FEF7B2F901463846FEF7ACF93146FEF76E
:10280000A9F901464FF07E50FEF7A4F900EBC4533E
:10281000B3F5000F06DA214617F0B2FA294613E5A0
:1028200000247DE71846F9E74FF07E50A9E43046D2
:10283000A7E4B3F1FF4F3FF4E2AC42460225B4F106
:102840007C5F7FF41DAD002FFFF61AAD484607B040
:10285000BDE8F04F23F0B7BF000080FF0072313FAA
:102860001872313F8CBEBF354CBB31330EEADD35BB
:1028700055B38A38610B363BABAA2A3E002110B50E
:102880000446074B4FF4C072C0E96011C0E9621101
:10289000C0F89011C0F8943123F014FC204610BD0C
:1028A000CDCC4C3E024630B553880178082B28BF6A
:1028B00008230B48C1F383010A4C4840604302F1EE
:1028C0004901C2F1FF2202F57F02B7325518AB422F
:1028D00000DC30BD11F8015F68406043F6E700BFDF
:1028E000C59D1C81930100012DE9F04104460D4670
:1028F0000746002642F210783B7B3BB17B68EB1A1F
:10290000434503D93146204617F0C0FA0136182E48
:1029100007F11007F0D1D4F88C3133B3154AEB1A14
:10292000934222D9D4F88431FBB1D4F8903123B941
:10293000A5F59C53083BC4F8903141F2873641F22B
:10294000883003F51C414031EA1AB2420BD9D4F861
:10295000842142B10344A2EBD2028B42C4F8842109
:10296000C4F89031F0D1BDE8F0810023C4F8903173
:10297000F9E700BFE093040070B50346024600F596
:10298000C0766FF00040C1F51C551135147B34B191
:1029900054682C4424EAE474A04228BF2046103234
:1029A000B242F3D1D3F88C2192B1D3F884417CB1F7
:1029B0000D4C8D1AA5420CD9D3F890312BB1C1F52D
:1029C0009C5108310B4423EAE373984228BF184610
:1029D00070BDC1F5922101F2E131114421EAE171AA
:1029E000884228BF0846F3E7E093040010B5D0F80A
:1029F0008831032B26DDD0F88401FEF75DF94FF016
:102A00006E51FEF7B1F900210446FEF755FBE0B91F
:102A10004FF081412046FEF79FF801462046FEF721
:102A200057FA0B49FEF7A0F90A49FEF795F84FF05F
:102A30007E510446FEF754FB10B14FF07E5010BD9E
:102A40002046FCE74FF07C50F9E70248F7E700BF6B
:102A50009A99193FCDCCCC3E0048704742C102083C
:102A60000048704780EE360030B5C0E91912C366E1
:102A7000012200230E4DC0E90433C0E90633C0E94A
:102A80000E33C0E91233C0E90A33C0E90C33C0E9A0
:102A90001533C0E917330560436080F844300364A0
:102AA000A0F87030036280F82420A0F8503030BDC8
:102AB000D87D020870B5B8B001460446684622F0D9
:102AC000D3FE9DF80030013BDBB2FD2B38D8274BFD
:102AD00028AA03F14006154618685968083303C54B
:102AE000B3422A46F7D1224B08AA03F12006154625
:102AF00018685968083303C5B3422A46F7D108A9B4
:102B000020A814F08BF9214620AA10A822F058FE24
:102B1000694620A814F082F920AA28A918A822F052
:102B20004FFE202218A910A818F042FD044658B9FB
:102B3000202110A818F078FD202118A818F074FDA5
:102B40000024204638B070BD002310A911F8012BD5
:102B50001AB90133202BF9D1144610A8202118F0FE
:102B600063FD202118A818F05FFDEAE7C29602086D
:102B7000039702082DE9F04F0A78054602F0030397
:102B8000023B012B0C46F3B070D802F03C06242E19
:102B90000B795BD13F2B1CD84E88082E19D991F8A0
:102BA0005270093E07F003029340F6B21FFA83FC0D
:102BB000664510D801F153020368029201F10A023E
:102BC000CDE9007203961D6ED1F84A20D1F84E303F
:102BD000A847002037E00121533301FA02F200F543
:102BE0000671E01823F081FA0028F2D12B68214603
:102BF00028465B6C98470028EBD0E86F21460368B5
:102C00001B6898470028E4D1E86F214603685B6899
:102C1000984794F90201FEF753F84FF07A51FEF706
:102C2000A3F84FF08141FEF79FF8FEF779FA237978
:102C300021465A1C2344227198722B682846DB6C6B
:102C4000984740F0C06073B0BDE8F08F2C2E03F0C1
:102C50003F030AD191F94A60002E80F2B782002B1F
:102C6000B7D103685B6F9847B3E76BBB104617F0AB
:102C7000A6FF002840F080802378C3F383020F2A48
:102C8000A7D801A151F822F0232E0008232E000816
:102C9000232E0008E12D000863300008D72F00081C
:102CA000D72F0008532F0008232E0008D32B00082D
:102CB0004D310008D32B0008D32B0008D32B00087C
:102CC000D32B00081D3100080C2E08D14B88032B94
:102CD00005D90368D1F84A20D3F88430984722797F
:102CE00005F506719209013204F10A0023F0FDF99D
:102CF00000287FF46EAF2B68214628465B6C98470E
:102D000000283FF466AF2378C3F383030A2B04D172
:102D10002146284618F0EBF95BE7E86F032B0268C1
:102D20002146126813D19047064600287FF451AF20
:102D3000E86F214603685B6898472146284617F0EC
:102D4000FAFF32462146284618F07AF941E79047C3
:102D500000287FF43EAFE86F214603685B68984720
:102D60002146284617F0E7FF2B6821462846DB6CF2
:102D7000984740F0807066E72B68214628461B6C18
:102D8000984700287FF425AF207817F018FF002817
:102D90003FF472AF2046FFF785FD0646A86E05F1A9
:102DA000800703681B68984731460246384617F08B
:102DB000B3F820B13146284617F01BFF5CE72B68BB
:102DC00028469B6B984700283FF456AFA86E0368CF
:102DD0001B68984731460246384617F077F84BE7AC
:102DE0006388032B7FF6F5AEE86F21460368D4F8BD
:102DF0004A601B68984700287FF4EBAEE86F2146D5
:102E000003685B6898472B68324621462846D3F80A
:102E1000843098472146284673B0BDE8F04F17F03C
:102E2000AABF94F84B300DF1200A8AF8003063886D
:102E300094F84A70042B7FF6CCAEE86F2146036805
:102E40001B689847064600287FF4C3AEE86F21460A
:102E500003685B68984795F81832BB4268D12B68C5
:102E6000514628465B6D9847814604F14C0B10AFE4
:102E70000DF1C408B1455BDD2B6832463946284662
:102E80009B6D984763885A46023B4146384618F086
:102E9000A6FB031E5BDD2278C2F38302082A4CD115
:102EA00098F800900793484618F05FFA00283FD042
:102EB0004FEA991109F03F0201FB0222079B501CC7
:102EC000834235DD02329B1ADBB242442968039209
:102ED000049318F800300DF1C50803F00F03CDE995
:102EE0000193CDF80080D1F864B03B4632462146CC
:102EF0002846D847D0B1207817F061FEB0B1002342
:102F0000CDE9023301932379514600933A4628468E
:102F100004F10A0317F0C8FF014638B14FF4FA7301
:102F20004246009328464B4618F0ACF9FF23237025
:102F30002146284617F01FFF85E62968CDE9018361
:102F40000097CF6D334621462846B847EEE7013655
:102F500090E76388232B7FF63CAEE86F2146036839
:102F600094F84A601B68984700287FF432AEE86FF7
:102F7000214603685B68984795F81832B3427FF49E
:102F800049AF04F14B0608AA04F16B0713463068F9
:102F90007168083603C3BE421A46F7D108AA10A9C1
:102FA00005F5067017F0BEFD638831AF324639462D
:102FB000213B10A818F013FB00287FF72BAF2B68DC
:102FC000CDE900702146DE6E284608AB10AAB04756
:102FD000FF2323701EE794F84A3008AF3B706388E4
:102FE000032B7FF6F6ADE86F214603681B68984710
:102FF000064600287FF4EDADE86F214603680DF129
:1030000040095B6898472B683946D3F87C804A466C
:1030100004232846C047074604F14B0A0DF1410836
:103020000DF1C40BB74283DD6388404652465946D2
:10303000013B18F0D4FA002808F121080FDD2B68B5
:103040002278CDE900B006EB4616D3F88070214611
:10305000284609EB0603C2F38302B84768E7013646
:10306000E0E710A817F029FC10AE04F14A0304F1C0
:103070006A07324618685968083303C2BB421646CD
:10308000F7D16388632B7FF6A4AD202210A905F544
:10309000067023F02AF800283FF49BADE86F214624
:1030A0000368D4F86AA01B68984700287FF491ADA4
:1030B000E86F0DF1C409036821465B684E469847E6
:1030C000B4F8028010AFA8F16408B8F1200FA8BFCF
:1030D0004FF020080FCF0FC697E80F0004F1AE0B9A
:1030E00086E80F00424659463AA8CDF8E4A022F0FF
:1030F000C3FF4A4608F1240304F16E0110A817F03B
:10310000E4FB00283FF465AD2B68CDE900B821460B
:103110009E6E2846534610AAB04709E703F0030302
:10312000023B012B3FF655ADE86F214603681B6853
:10313000984700287FF44DADE86F214603685B682F
:1031400098472B68214628469B6F8CE56288022AA7
:103150007FF63FAD94F84A3003F00F03032B7FF462
:1031600038AD042A7FF635AD31AE304618F0F8F8A8
:10317000237840228DF8C43004F10A0123790DF13F
:10318000CE0018F013F962888DF8C800013A92B2A7
:1031900004F14B010DF58770ADF8C62022F06CFFED
:1031A000E86F314603681B68984700287FF411AD2B
:1031B000E86F314603685B6898472B6831462846BC
:1031C000D3F88430DDF80E21984702E5002B3FF458
:1031D0004DAD84E538B50B4B1C786CB901220A4D16
:1031E0001A70002329461A460848013418F04BF992
:1031F000202C05F58275F4D10021BDE83840034844
:1032000018F01DB93A800020B85F00206C4F0020F4
:10321000014BD3F820017047484E0020014BD3F8F2
:10322000200170476C4F0020014818F008B900BF1A
:10323000484E0020044BD3F820219142BABF2831D8
:1032400053F8210000207047484E0020054BD3F86A
:1032500020018142BDBF2831012043F821200020F8
:10326000704700BF484E002021B1002302481A4693
:1032700018F009B9704700BF6C4F00200022FF20F2
:1032800070B50A4BD3F8206103F19C058033B2423C
:1032900000DB70BD55F8044F641A002C03DC9C5C05
:1032A000A04228BF20460132F1E700BF484E00206F
:1032B0002DE9F0470546904699460F4699B31B4EB7
:1032C000304618F0E0F8044668BBD6F8200118B381
:1032D0002146234606F17F0CA04214DC0E4496F8EA
:1032E0008030434518D9114818F0A9F82B680146D9
:1032F0005B68284698474B4642463946BDE8F0474A
:103300000A4818F0C0B81CF8012F9A4234BF1A4678
:10331000214613460134DFE72B6839462846BDE8CD
:10332000F0475B681847BDE8F08700BF484E0020B3
:10333000F0B400230C46FF204FF0FF310E4AD2F8C4
:10334000207102F19C068032BB4205DB4B1C0FD082
:10335000F0BC094818F073B856F8045F2D1B002D17
:1033600004DCD55C85423CBF194628460133EBE7B7
:103370000020F0BC704700BF484E002030B50A4B1B
:103380004A1CD3F820510DD0002210469C33AA428B
:1033900000DB30BD53F8044F0132641A002CD8BF53
:1033A0000130F4E72846F4E7484E0020002907DB07
:1033B000044BD3F82021914202DA53F821007047E0
:1033C00000207047484E002038B500240D4D2819C4
:1033D00004F5827417F0C4FFB4F5025FF7D100243E
:1033E000094B214680221846C3F8204122F06AFE8C
:1033F000064B2146C3F820411846BDE838408022DC
:1034000022F060BEB85F00206C4F0020484E0020C4
:103410002DE9F0430D468DB012F00F0180461446A1
:103420001E469DF8509004D04FF0FF300DB0BDE81F
:10343000F083184B142207A8069322F043FEB9F13B
:10344000000F0CBF4FF400734FF48073124F0893BA
:103450001022414604AB06A8099714F0FBF9002896
:10346000E2D105ABCDE901432A462346394604980B
:103470000096B9F1000F09D014F01AFB0446049825
:1034800022F062FC002CCFD10598CFE714F0C0FBEE
:10349000F4E700BF00248000004440042DE9F0411F
:1034A00094B007460C4616460021142207A81D4674
:1034B00022F008FE4FF48853ADF818304FF48073B3
:1034C000ADF81A304FF48063DFF84C802022CDE94C
:1034D0000838394604AB06A814F0BCF928B14FF0FF
:1034E000FF34204614B0BDE8F08105AB02932023E1
:1034F00001930CAB2246009341463346049822F0D8
:1035000029FD0446049822F01FFC002CE7D1BDF8E9
:1035100030302B80E5E700BF0900800330B58DB067
:103520000D4611461A4603AB01932023044600932F
:103530000A4804AB22F082FC2A4630B10021204622
:103540000DB0BDE8304022F0BDBD202D28BF2022A7
:10355000204604A922F090FD0DB030BD0900000204
:103560002DE9F043C1B00446DDE948890D46164611
:103570000021DC2209A81F4622F0A4FD164909A853
:1035800022F00DFCE8B93A46314609A822F028FCA1
:10359000B8B94A46414609A822F022FC88B96B46D0
:1035A000202201A909A822F032FC50B9202D2A4678
:1035B000204628BF202201A922F05EFD41B0BDE8CF
:1035C000F08309A822F0DCFB2A460021204641B006
:1035D000BDE8F04322F076BD0900000208B5054BB6
:1035E000002814BF0146194603481BF0C2FE012003
:1035F00008F086FE24970208309702080346F0B5CB
:103600000A4D8E18B14203F1020303D1002300F8E2
:103610001230F0BD11F8014B270904F00F04EF5DE3
:103620002C5D03F8027C03F8014CEBE772C302083F
:103630002DE9F04105460C46DFF830808F18BC427A
:1036400001D1BDE8F08114F8016B2B68320918F83C
:10365000021028469B6898472B6806F00F062846FC
:103660009B6818F806109847E9E700BF72C3020884
:10367000004870470000C07F00487047509702081C
:1036800008B510460249FDF705FE002008BD00BF41
:103690005A97020830B50022702113488BB002F00F
:1036A00041F9041E104D19DD22462846691C22F0FE
:1036B000F0FC013C02A802F0FDF960B16F2C0ADCBD
:1036C000039B0A4A019305AB0093C4F17001029B6E
:1036D000281914F00BFD04480BB030BD28460449EE
:1036E000FDF7D8FD0724E5E73B800020909702080E
:1036F0008897020838B504464FF0FF324FF0FF3389
:10370000134811F0F9FC20F0AAFB4FF47A75A0FBE6
:10371000053205FB0121D4E90202DB0B002A43EA52
:1037200041434FEAD13108DB42F21075181A61EBC0
:103730000202A84272F1000203DB0022C4E9023156
:10374000E280E488024811F079FD204638BD00BFD0
:10375000EC06002008B503681B689847BDE80840E0
:103760000146014819F0F0BB5082020807B5064B2C
:103770008DF8070001220DF10701044802F044FA18
:1037800003B05DF804FB00BFAD970208BD970208C7
:1037900073B5124B124C1D7815B1207802B070BD74
:1037A000012610481E7019F0A4F90028F5D0324601
:1037B0000C4801AB0DF103018DF80350019519F090
:1037C000B1F938B1019B2BB19DF80330012B08BF33
:1037D0004C232370034819F097F9DEE7AC800020F2
:1037E000AB800020BD9702084C28024607D0552820
:1037F00007D0054B0548002A08BF18467047044803
:1038000070470448704700BFC997020888970208AC
:10381000CE970208DA97020808B517F09BFF1BF055
:103820009EFB18F0F5FD074802698168136843F0B4
:10383000040313600B68044A02219847012008F032
:103840005FFD00BFA0690208010006003E28024695
:1038500030D016D8142830D00AD80A2830D00F28F3
:1038600031D041F684601F4B072A18BF18467047B5
:103870001F282BD04AF2C3201A4B292A18BF1846FA
:103880007047B0F5FA7F24D00AD8FA2823D0B0F5D3
:10389000C87F22D0134B1448C82A18BF1846704757
:1038A000B0F5487F1BD00F4B1048B2F57A7F18BF98
:1038B000184670474FF22440704745F26110704738
:1038C00042F6B100704743F60950704747F61220A0
:1038D00070470748704707487047074870470748D0
:1038E000704700BF48E80100F818030040420F008D
:1038F00020A1070090D00300F0310600E0630C0027
:1039000070B503690D4693F874301446073B052BD8
:103910002ED8184A52F823603046FDF7E1FB38BB39
:103920002046FDF7CDF94FF06E51FDF71DFA014627
:103930004FF07E50FDF70EF9314604462846FDF75C
:1039400009F90D49FDF7C4FA01462046FDF70CFAC6
:1039500000210446FDF7A6FB50B94FF07E512046EA
:10396000FDF7BEFB10B14FF07E5070BD2046FCE766
:103970000020FAE7F47F02080000204170B50446F9
:1039800017F086FFD4F88039D4F88429054653EA25
:1039900002004DD05B1B62EB0102012B72F10000B3
:1039A0003EDB6FF00040834272F1000200DA1846FD
:1039B000B4F8683A9BB394F95A3A803314D0D4F8E7
:1039C000602AD4F8646A521B66EB0106012A76F17C
:1039D000000327DB6FF000439A4276F1000600DA1D
:1039E0001346984228BF1846D4F8703AD4F8742A7F
:1039F00053EA02041CD00F4C1B1942F100025B1B5E
:103A000062EB0101012B71F100020DDB6FF000424E
:103A1000934271F1000109DA984228BF184670BD3F
:103A20000020C5E70023DCE70023F5E71346F3E7B2
:103A30000020F4E7009749012DE9F04F8BB00446D0
:103A40008846174617F0D0FE814638B939464046B9
:103A5000684A0BB0BDE8F04F14F048BBD4F89809A1
:103A6000002800F091800A236421D4F89C295A434D
:103A7000D4F8A03902EB50024B4303EB5003B2FBE6
:103A8000F0F2B3FBF0F094F8573A04F6A81A27EADC
:103A9000E771002B7AD194F854CA574D574B94F9DB
:103AA000556ABCF1000F08BF2B460A250590B2FBF2
:103AB000F5F005FB1022CDE9030209EB0602CDE982
:103AC000006240464E4ACDF8089014F00FFBC72F15
:103AD000054640445EDDD4F89C3A791B0393D4F844
:103AE000983A484A0293D4F8943A0193D4F8903A19
:103AF0000093D4F8983914F0F9FA054408EB05005E
:103B0000791B94F8583A404A14F0F0FA05442046DC
:103B100017F0BFFF014640B9AF4208EB0500C8BF30
:103B2000791B3A4A14F0E2FA0A35504618F03EFA88
:103B30008346504618F050FA5E45B8BF5E4686424E
:103B4000B246A8BF82460AF1FF36B345CABF0BF1A1
:103B500002030AF101035E466FF007028342C4BF0D
:103B60000346861E9642B8BF16460C2BA8BF0C23F0
:103B70004FF0640B099304EBC604099B9E420DDDD4
:103B800028460BB0BDE8F08F02467CE794F9566AF0
:103B90001F4B8AE7AF42B3DC0021B2E7B4F8EC294F
:103BA000B4F8F0C91AB353080BFB0C33B3FBF2F3B0
:103BB0000693B4F8F239BD42CDE904C3B4F8EE3946
:103BC000B8BF791BCDE9022309EB0603CDE90063F9
:103BD000A8BF002108EB0500B24514BF20232A230B
:103BE0000C4A14F083FA013605440834C5E713463D
:103BF000DEE700BFE7970208A0A8020835AB02087D
:103C0000EF970208159802082A98020833980208CC
:103C1000659E02083E9802082DE9F843002500261B
:103C20004FF000084FF00009474B484F03608C33BA
:103C3000436000F51863C0E902714662C0E90452AE
:103C4000C0E9065505628662C0F85C58C0F8605845
:103C5000C0F8745980F87859C0F87C59C3E90089D4
:103C600043F69823044680F88859C0F88C39C0F888
:103C70009059C0F89459C0F89859C0F89C59C0F8A8
:103C8000A059011D00F6A81018F07BF904F5276370
:103C9000A4F8685AC3E900893B6984F8785A5B1B29
:103CA00018BF012384F8793A4FF40043C4F87C5AD2
:103CB000C4F8805AC4F8845AC4F8885AA4F88C5AB4
:103CC00084F88E5AC4F8905AC4F8945AC4F8985A92
:103CD000C4F89C5AC4F8A05AA4F8A43AC4F8A85A44
:103CE000C4F8AC5AA4F8B05AC4F8B45AA4F8CC5AE0
:103CF000C4F8D06AC4F8D46AA4F8D85AC4F8DC5A14
:103D0000C4F8E05AC4F8E45AC4F8E85A84F8A05B4E
:103D1000A4F8A25BC4F8A45BC4F8A85BC4F8AC5BCD
:103D200004F6641020F0EAF90122294604F68830EE
:103D30001FF07BFE4FF40362294604F12C0022F0B1
:103D4000C1F92046BDE8F883587F0208588202086E
:103D500008B50346C068B3F8A21B8368002908BFF2
:103D6000FF219B68984758B1084B98420BD841F205
:103D7000883300F5FA704000984238BF184608BDF5
:103D800041F28830FBE76FF47A70F8E70BFEFF7FB3
:103D900030B590F8A03B044689B0CBB900F52F654B
:103DA000002000210A22CDE90601CDE90232CDE949
:103DB000004304934FF400622846064B064911F075
:103DC00095FD064928461FF010FF012384F8A03B0B
:103DD00009B030BDEDBB0108F88400205E980208F0
:103DE0002DE9F8430C4605461746002114222046CB
:103DF00022F068F995F8CD3A002B35D0D5F8D00AE5
:103E0000D5F8D49A95F8D88A95F8D96A1B49FCF761
:103E1000ABFFFDF7ABF920604846FDF7A7F9B31FEC
:103E200080B217F098FC022B96BF043E0126F6B232
:103E3000B8F1080F8CBF10232023A08084F80680DF
:103E4000E67123812B696FF0080293F94C302773D8
:103E5000162BA8BF16239342B8BF1346A37240F295
:103E600002432382BDE8F8832B69986CD3F87890DD
:103E700093F8748093F87560C8E700BF0024744914
:103E800008B590F8CD3A5BB1D0F8D00A0649FCF7F6
:103E90006BFF4FF07C51FCF75FFEFDF767F908BD43
:103EA0000369986CF2E700BF0024744908B590F8E4
:103EB000CD3A63B1D0F8D40A0649FCF755FF4FF06C
:103EC0007C51FCF749FEFDF751F980B208BD03694A
:103ED000986FF1E70000204102462DE9F04717F006
:103EE000DFFD92F8CD3A0F460546002B00F0BD806D
:103EF000D2F8D49A104617F0DDFD9368044693F883
:103F0000008008F10506F6B2B54203D30C2D28BF98
:103F10000C25EEB248465B49FDF7C4F808B1DFF85E
:103F200068914846FDF722F980B217F014FCFFF7BC
:103F30008DFC082C28BF082405460120E4B2052C7E
:103F400000FA06F038BF0524FCF7BAFE8146284681
:103F5000FCF7B2FE4D49FCF7BBFF4C49FCF704FFF0
:103F600001464846FCF7B4FF8146B8F1000F01D185
:103F7000062E7ED9082E4FF000057DD82020FCF7B4
:103F80009FFE4349FCF7E8FD294680462846FCF79A
:103F9000E3FD01464046FCF7DFFD4946FCF7E4FE41
:103FA0003C4980464846FDF79BF8002866D04FF014
:103FB0007E5A3046FCF784FE06463846FCF780FE03
:103FC0004FF08241FCF7D0FE4FF08141074630466A
:103FD000FCF7CAFE01463846FCF7BCFD2E49FCF74B
:103FE000BBFD4FF08341FCF7B7FD4FF08241074620
:103FF0002846FCF7B9FE01463846FCF7ABFD5146B2
:1040000007465046FCF7A8FD01463046FCF7A2FDE6
:104010004FF08141FCF7A8FE4FF07E510546FDF7B9
:1040200041F808B14FF0814529463846FCF750FF6A
:1040300015F056FE05462046FCF742FE2946FCF7E1
:1040400093FE002122F0D9FA4FF08241FCF784FD63
:104050004946FCF789FE4146FCF77EFD0B49FCF71B
:1040600083FEFDF783F8BDE8F0871369D3F87890F5
:1040700040E74FF07E5581E7102080E74FF0000ABF
:1040800097E700BF0000E0400000FA4200007A44D9
:10409000000088405A2F863C0000E0412DE9F04F97
:1040A00004468BB017F09CFD94F8783A04F1180A96
:1040B000002B00F08F800022204605A9FFF790FE1C
:1040C0009DF81A60BDF81C50062E8CBF4FF0080BEF
:1040D0004FF00C0BBBF1080F0CBF112319239D42AD
:1040E00040F38780BDF81800FFF7B0FB01210246BE
:1040F0004248B1400023A1FB0001FDF7A7F8A368E7
:104100000646DB69002B5CD0E068984781460520B5
:10411000A5EB4B0808F1FF3806FB08F864220023E2
:10412000A8FB0001FDF792F809F5FA63A8EB000778
:10413000BB42D4F87C2A47D20E357543A7EB09075A
:10414000BD420BFB066608D96B1CA3EB08030344B6
:104150004B445B089E4238BF1E46964203D1D4F8BA
:10416000803ABB4203D0C4F87C6AC4F8807A244DFC
:104170004FF4004B284600210023E6FB0B011F4AA9
:10418000FDF764F881460E4628460021D4F80C80DD
:104190000023E7FB0B01194AFDF758F8D8F808305F
:1041A0009D6ABDB1174B4A468DE80B000394334618
:1041B0004046A84770B90BF005FB0121C4F89409EB
:1041C00011E040F2DC59A2E7013203D04FF0FF3397
:1041D000C4F87C3AE068224683680A499B6998479C
:1041E0000028E8DA002150460BB0BDE8F04F17F088
:1041F0007ABBD4F87C3A0133E7E700BF40420F00B6
:104200003F420F00A3B9010838B5836804469B6A92
:104210000D46BBB100F6A43017F017FB034604F6B9
:10422000AC3017F012FB1844D4F8843A984202D10B
:10423000D4F8883A3BB9C4F8840A012D38BF012567
:10424000C4F8885A38BD084ACB1A9342FAD994F870
:104250008E3A072BF6D9A3689B6A0BB1E0689847A2
:104260002046FFF71BFFE8E7BF270900F8B5836882
:104270000446DB6A0F46002B38D090F8B03A33B1D1
:10428000D0F8A83AD0F8AC2ACB1A93422ED3D4F85F
:10429000B43A23B14EF65F22FB1A934226D96069E5
:1042A00020B303685B68984701460546FCF722FF88
:1042B0000646D8B9284622F0C3F90122164B05B2AA
:1042C000C4F8AC3AB4F9A43A84F8B02A13F5004F14
:1042D000C4F8A87A02D1A4F8A45A07E0EB1A002B7C
:1042E000B8BF5B42042B02DC84F8B16AF8BD94F8D5
:1042F000B13A33B943F6982384F8B12AC4F8AC3AFA
:10430000F4E7A36884F8B16ADB6A0BB1E068984708
:104310002046FFF7C3FEDEE780EE36002DE9FF47BB
:10432000C0F87C19044617F0B3FA002304F5186AA4
:1043300084F89339D4F88029DAF804300D4652EA2B
:104340000301074603D0974275EB03030FDB94F894
:104350008839012B0ED9002384F88839D4F88C3998
:10436000DB1945F10005C4F88039CAF8045004B0DF
:10437000BDE8F087013384F8883941F28833FB18AF
:1043800045F10002C4F8803904F11800CAF804208D
:1043900017F05BFA0028EAD004F11C0017F055FA78
:1043A0000028E4D1204617F03EFA804628B9D4F818
:1043B0009C3A0133C4F89C3AD9E7204617F02AFD0D
:1043C00006460028D3D12046FFF770FD81460BF04A
:1043D000F9F9D4F89439B849C01AA0FB01010A23AD
:1043E000B9FBF3F39BB2012B38BF012303F2A739CA
:1043F000B9FBF3F9B14B1A683346FCF727FFB0EB72
:10440000091FB4D34B4608226946204617F0CEFC5C
:10441000002805DAD4F8983A0133C4F8983AA6E7A8
:10442000D4F8901A07280144C4F8901A05DCD4F88F
:10443000943A0133C4F8943AECE76A463046D4F82B
:104440008C39DB1945F10005C4F88039CAF80450ED
:1044500084F8886932F9027F0346154635F902CCA3
:10446000674503DA013B25F802C9F7D204AD0130F4
:1044700005EB4303072823F80E7CEBD1BDF90EE0D2
:10448000BDF900C0D4F89C09BDF90820BDF906307B
:10449000E645AEEB0C070744134408BFD4F8A00967
:1044A000D4F8982908BF013002F1010203EBD3735D
:1044B00008BFC4F8A009B2F5005F4FEA6305C4F86D
:1044C000982943F34F03C4F89C791CD35208C4F8CD
:1044D0009829D4F8A0297F085208C4F8A029D4F854
:1044E000942A49085208C4F8942AD4F8982AC4F89F
:1044F0009C795208C4F8982AD4F89C2AC4F8901AD7
:104500005208C4F89C2AD4F87479A4F890393FB1C1
:1045100007F107084545CCBF4FF000084FF00108F0
:10452000012284F89329B4F98C2A84F892899A425A
:1045300031D194F88E3AFF2B02D0013384F88E3AB1
:104540002046FFF7B3FC0A22B0FBF2F292B23E2AF9
:1045500066D040F2752398422AD8142A63D0D12815
:104560001DD80A2A62D00F2A63D0072A14BF6FF021
:104570007A026FF08602002F70D1AA42B8BF2A4695
:104580006FF0310384F878799A42D4BFC4F8742963
:10459000C4F87439EBE6A4F88C3A0023CEE71F2A5E
:1045A0004AD0292A14BF6FF07A026FF07F02E2E747
:1045B000B2F5CB7F43D040F6E573984216D8FA2A7D
:1045C00040D040F6CD13984208D8C82A3DD0CB2A17
:1045D00014BF6FF07A026FF07802CCE7B2F5C87FB3
:1045E00014BF6FF07A026FF07502C4E7B2F54B7F2B
:1045F0002ED041F6C17398420AD8B2F5FA7F2AD07C
:10460000B2F5487F14BF6FF07A026FF07202B2E722
:10461000B2F57A7F14BF6FF07A026FF07102AAE7E9
:104620006FF07D02A7E76FF08202A4E76FF08502CA
:10463000A1E76FF083029EE76FF080029BE76FF0C7
:10464000750298E76FF0770295E76FF0780292E7CE
:104650006FF072028FE76FF074028CE794F878398C
:10466000072B84BF03F00F06B6FA86F603F10101AB
:1046700088BF7609072B84F8781905D926B907F180
:104680000D039D423FF773AEED1B002DCCBF0423FD
:104690006FF00303ED1848BF073507EBE5079742B6
:1046A000B8BF17466FF031039F42D4BFC4F8747986
:1046B000C4F874395BE600BF40420F00F4050020E7
:1046C00038B504461C3017F0C0F898BB204617F0E8
:1046D000A1FB78BB17F0DCF8054604F6A43017F010
:1046E000B4F8034604F6AC3017F0AFF8D4F8842AD7
:1046F0000344934202D1D4F8883A63B90023C4F842
:10470000A03A29462046FFF77FFD29462046BDE80E
:104710003840FFF7ABBD084AEB1A9342F1D9D4F801
:10472000A03A13B1EB1A9342EBD9012D2B4638BFB7
:104730000123E4E738BD00BFBFD401002DE9F843F1
:10474000B0F8683A04463BB190F8CD8AB8F1000F52
:1047500004D0002380F89339BDE8F88317F098F867
:10476000D4F8702AD4F8743A0E4652EA030104F5DC
:104770002767054662D1C4F8705A7E6094F95A3AA8
:10478000803315D0D4F8602AD4F8643A954276EB99
:1047900003030DDBA36804F6A815596B11B1E0689B
:1047A00088470146284617F0EDFC284617F04FF9D8
:1047B00094F89339002BCFD0002384F8933994F9DF
:1047C0005A3A8033C8D1204617F063F90028C3D085
:1047D00094F89239002BBFD0204617F01BFB00281D
:1047E000BAD104F6A819484617F080FCA36807461A
:1047F0001B6B83B30146E0689847064617F048F8FC
:10480000022E80460D4629D1321E18BF012239469C
:10481000484617F09FFC022E2BD1204617F039F99D
:1048200010EB080045F10005643045F1000584F8FF
:104830005A7AC4F8600AC4F8645A8DE70F49AA1A74
:1048400066EB0303914278EB030397DA04F6A810B2
:1048500017F037FC8FE76FF05706CFE7002104F120
:10486000180017F040F82046FFF718FC002ECBDAAE
:1048700072E7484617F0EBF86EE700BF0097490172
:1048800038B505461FF0EBFA4FF47A72A0FB0243ED
:1048900002FB0131E40B002344EA41404FF47A72F9
:1048A000C90BFCF783FCAB681844064B984207D948
:1048B000054B1A6882421FBF1860044A044B1A60F5
:1048C00038BD00BF8081A3699459012033CC55AA1B
:1048D000905901200023084A43608360074B02601F
:1048E0001A68074B9A4205D1064B074A1B68934248
:1048F00088BF8360704700BF208002089059012064
:1049000033CC55AA945901208081A36970B506461D
:104910000D461FF0A4FA4FF47A72A0FB024302FB8B
:104920000131E40B4FF47A72002344EA4140C90B91
:10493000FCF73CFC034B044A1D60044B281AB06092
:104940001A6070BD9459012033CC55AA90590120AA
:10495000F0B50C4B85B01B7893B9D1E902240F7DDB
:10496000094B0A4E0D69002F18BF3346CDE90024CC
:10497000CDE90253D1E90023014605481AF0F9FCBC
:1049800005B0F0BDAE800020709802086B98020858
:104990007598020870B50D4616460424314628461F
:1049A0001BF09EF948B14FF4A470002111F01EFADB
:1049B000013CF3D10148FEF711FE70BDB898020822
:1049C0002DE9F04FDFF89C811D4698F80030044631
:1049D0000E46174691B033B908F0E4FF08F0EEFF39
:1049E000012388F800301FF03AFA4FF47A794FF03B
:1049F000000BA0FB090309FB01312022C30B43EA92
:104A00004143DB19DA465F464FF0FF384FEAD131B8
:104A100006930DEB020041F100030021079321F002
:104A200051FBCDE902BBCDF804B01FF018FA4FF4EA
:104A30007A73A0FB030C09FB01C1069B4FEAD03C33
:104A40004CEA414C9C45079B4FEAD13199411EDB12
:104A5000BBF10F0F40F3848001981F28D4BF0120C1
:104A60000020BAF1040FD8BF00206DB1BBF1000FD8
:104A700008BF4FF00008019BC5E900BAAB60029B7C
:104A8000C5F80C802B61287511B0BDE8F08F0AF0D5
:104A900099FE049008F00CFA05900AF093FE049B2E
:104AA000C01A61EB0101102871F10001F5D308F083
:104AB000FFF9C6F3080C059B14F80C10C01A41400E
:104AC00004F80C10711CC1F3080114F801C08CEA41
:104AD000102C04F801C006F1020CCCF3080C14F8F9
:104AE0000CE0F11C8EEA104E04F80CE0C1F3080152
:104AF00014F801C004368CEA106C04F801C0C0F34D
:104B00000D00BBF1000F23D0039B984220D1019BE5
:104B10000137BB42B8BF3B460193BAF1070F0BDC2C
:104B200000210DF1200C8A4514D110AB03EB8A0152
:104B300041F8200C0AF1010A029B804528BF8046FB
:104B4000834238BF03460BF1010B029303906CE7DD
:104B50000127E2E75CF8043B9842EDD00131E2E73F
:104B6000002082E7AD8000202DE9F04FAC4EADF57E
:104B7000457D04460D46904600214FF4007244A83E
:104B80001F4621F09FFA33783BB9A6481AF0F1FB93
:104B9000337813B9A4481AF0ECFB402144A81BF069
:104BA0009FF8337881463BB944A817F0F9FB494692
:104BB00002469E481AF0DDFB102200210AA821F0CF
:104BC00081FA10210AA81BF0FFF9002301460DF21B
:104BD0004F120DF1280C8B4202DA102B40F0B080FE
:104BE000337813B992481AF0C4FBB8F1000F16D00D
:104BF000AFB1202F3946424628BF20210DF25F1366
:104C0000571812F8010B13F801CFBA4280EA0C00D2
:104C10001870F6D1337813B986481AF0AAFB182217
:104C2000002116A821F04EFA7021C82216AB44A824
:104C3000FFF7C6FE074616A97F48FFF789FEB7B9FA
:104C4000337813B97D481AF094FB70214FF4C87281
:104C500016AB44A8FFF7B4FE074616A97848FFF73D
:104C600077FE27B9337813B976481AF082FB4021D2
:104C7000A0A81BF035F8337807463BB9A0A817F079
:104C80008FFB3946024670481AF073FB1822002148
:104C90001CA821F017FA1CAB32224FF4D87144A89B
:104CA000FFF78EFE69481CA9FFF752FE33781BB947
:104CB000294667481AF05DFB30AF3A46654B03F171
:104CC000180C164618685968083303C663453246FF
:104CD000F7D1186899889B7931223060B180B3711F
:104CE000002107F11F0021F0EDF90023079313F0D5
:104CF0003FF820230DF11C0A009380464FF4007208
:104D00005548CDF804A028AB44A921F097F80646F1
:104D100020B9DAF80090B9F1200F1AD0202128A884
:104D200016F082FCCDF80480DAF8003050210093B0
:104D300038463346494A13F0D9F930A8FEF74EFCFD
:104D400012F801EF1CF8010B013380EA0E0010701D
:104D500041E70146142223A821F0B4F94FF410537F
:104D6000ADF888304FF480733D4A0DF1200ACDE94B
:104D70002432ADF88A3028A953464A4622A8CAF8F8
:104D8000006012F067FD0646494628A816F04CFC64
:104D900046B1334650213846324ACDF8008013F0F0
:104DA000A5F9CAE7102231460EA821F08BF9374643
:104DB0000DF1240BBD42DAF800001ED90023CBF818
:104DC000003010230DF1480901930EAA2449CDF8B3
:104DD00008B0CDF8009012F06BFEDBF8002003461F
:104DE00008B9102A44D000925021CDE901781E4A1A
:104DF00030A813F07BF94FF0FF36089820F0A4FF9D
:104E000010210EA816F010FC002E96D10123194691
:104E10002544AC4246D109B9002B4FD013488DE749
:104E2000AE800020D9980208FD9802084599020832
:104E300074990208B5990208D7990208E9990208FD
:104E4000169A0208289A0208669A0208959A020899
:104E5000A79A0208989B020809000002E09A02083B
:104E6000004440040E9B0208399B02086D9B020817
:104E7000EA1B102A28BF1022E0194946059221F0AA
:104E8000FBF8059A17444A4612F8013D0133DBB29C
:104E9000137013B90EAB9A42F6D11021484616F0A2
:104EA000C3FB87E714F8012B32B1FF2A14BF00239C
:104EB00003F001030021ACE71346AAE744A84FF42E
:104EC000007116F0B1FB10210AA816F0ADFB0DF52C
:104ED000457DBDE8F08F00BF002330B5044689B0A2
:104EE0001A4620216846FFF73FFE6946204615F026
:104EF00002FD65252378013BDBB2FD2B05D820217F
:104F0000684616F091FB09B030BD013D02D107485B
:104F1000FEF764FB002368461A462021FFF724FEB3
:104F20006946204615F0E7FCE4E700BFB79B02089E
:104F300011B1024A13F0DAB8704700BFDD9B0208D6
:104F4000014A13F0D3B800BFEE9B020837B51446F0
:104F500083686A461B69984788B90198FBF7B0FED9
:104F60000849FBF7B5FF05460098FBF7A9FE014687
:104F70002846FBF7F1FD2060012003B030BD002082
:104F8000FBE700BF0024744938B50D460446B8B1AC
:104F90001EF01EFC10B920461EF011FC20461EF02B
:104FA00017FC68B1074B1A780F2A09D8511C1970E1
:104FB000054B43F8324003EBC20300221D715A71C6
:104FC00038BD00BFAF80002090500020014B187802
:104FD000704700BFAF800020064B1B78984207D275
:104FE000054B03EBC0031879031F58425841704723
:104FF00000207047AF800020905000202DE9F34141
:105000000C46064624220021204621F05BF8644B22
:105010001B789E4280F0C180624D4FEAC60805EBC6
:10502000C6031A79062A11D100225B7955F8360099
:105030000192009383681F68002F00F0AB806B46DD
:1050400014224E21B847002840F0A48055F83600BD
:1050500083684E21DB6898470746002840F09A8015
:1050600005EB08031B79042B55D006D9053B012B12
:105070006AD9384602B0BDE8F0810D2155F83600F6
:10508000221DFFF763FF18B1238843F0010323803B
:1050900005EB08031B79012B2BD90E2155F836009F
:1050A00004F10C02FFF752FF0028E2D0E0683E490D
:1050B000FBF75AFE2688A84446F00403238098F89C
:1050C0000430E06003F0FD03012BD2D13749FBF738
:1050D000FFFE3749FDF740F801464FF07E50FBF7E1
:1050E00039FD3449FBF740FE46F00C06206126806E
:1050F000BFE7102155F8360004F10802FFF726FF3C
:1051000018B1238843F00203238005EB08031B79C1
:10511000002BAED0C1E7122155F8360004F114027D
:10512000FFF714FF18B1238843F0100323800D21EB
:1051300055F83600221DFFF709FF002899D0238873
:1051400043F00103238094E72B2155F8360004F146
:105150001802FFF7FBFE18B1238843F020032380D9
:105160002D2155F8360004F11C02FFF7EFFE18B1AF
:10517000238843F0400323802E2155F8360004F1A4
:105180002002FFF7E3FE00283FF473AF238843F0CB
:105190008003D7E76FF004076BE76FF0150768E748
:1051A000AF800020905000200000204100507D443E
:1051B00001DE423E002A2D47024B1878003818BF06
:1051C00001207047AF80002010B50C4617F004F99D
:1051D00018B1002C014818BF002010BD049C020823
:1051E00010B50C4617F0F8F840B144B917F0F6F8CE
:1051F0000146044B0448002908BF184610BD002092
:10520000FCE700BF52B0020849C2020870B50E4662
:10521000154617F0E1F8044668B130460D49FCF731
:105220002FF850B928460C49FCF72AF8003818BF67
:10523000012017F0D7F8204670BD30460749FCF72B
:105240001FF828B9284620F048FF17F0D0F8F2E7F9
:105250000024F0E7049C020852B00208089C0208EF
:1052600000200021044B054AC3E90201C3E90401FF
:10527000C3E906011A607047380700204080020821
:1052800070B4CE7D46B1CD68541B054DAC4203D8F9
:105290001BB970BC17F05DBA002370BC184670478C
:1052A000809706002DE9F84F032B06468946904665
:1052B0001F460A9D2FD817F038FA0446A0B3866817
:1052C000464528D2C1689620691AA8EB0606761AC8
:1052D0004FF000033C4AA1FB000169EB0909FBF711
:1052E00065FF10F12D020B4641F10001B24271EB56
:1052F00009010ADB6FF02C024FF0FF31121A61EB4B
:105300000303964279EB030307DA01232561A382A5
:10531000C4E90285A775BDE8F88F4FF6FF72A38A2E
:105320009342F5D00133F2E71821034606F1170046
:1053300001FB03F210F802C0BCF1000F0ED1B4184B
:10534000D9F800302360D9F80430C4E902856360DD
:1053500001232561A382A775E375DCE70133202BC8
:10536000E6D131464FF0000A4FF0180B2A4630467E
:1053700017F0EFF9CB6818B11448EA1A824217D92E
:105380008A7DBA4214D9ECB1A07D82421AD803D1E9
:10539000888AA28A904215D30BFB0A62606952691F
:1053A000424032F07F4203D1E268934238BF0C465C
:1053B0000AF1010ABAF1200F01F11801D6D1002C2F
:1053C000BED1A8E70C46F3E740420F008051010030
:1053D000034690F8100338B1D3F80C330348C91AC8
:1053E00081428CBF00200120704700BF7F3A090036
:1053F0002DE9F3478A4616460021182204461D4629
:1054000020F060FEDAF800733246BE422CBF002363
:1054100001235146237404F1180000932B4617F022
:10542000A5F9237E1BB940F20123238014E0BE427C
:105430002ED2A37E022B02D840F20133F5E7D4E945
:105440000832B3F1960642F1FF32B6F5167F72F1DB
:10545000000305DA01236370204602B0BDE8F0873F
:1054600029465046FFF7B4FF08B10523F3E79AF841
:10547000203343B145F25F41DAF81C33EB1A8B421B
:1054800001D80623E7E70223C4E902622370E3E7B9
:10549000637E052BD0D9A27EB3EB420F02DB40F234
:1054A0000143C2E7D4E90887002F4646B94602DA2D
:1054B000764267EB4709B6F5167F79F10003C9DB41
:1054C00029465046FFF784FF0028CED19AF82033B2
:1054D00033B145F25F42DAF81C33EB1A9342D0D96C
:1054E0009AF81833ABB14FF49670DAF81433154AC2
:1054F000ED1AA5FB00010023FBF758FE10F516700E
:1055000041F10001B04271EB090102DA40F201738E
:105510008BE7022318F5616F424640F61161237054
:105520003B4677F1FF37BCBF4FF0FF33064A8A4254
:1055300073F10001A4BF4FF461620023C4E90223A8
:105540008AE700BF40420F00F0F1FFFF0138C0B210
:1055500006289ABF024B53F820000248704700BF4C
:105560006480020805A102082DE9F04FB1B005469C
:10557000884616469DF8ECA00B93002A00F0B981EE
:1055800001463A9B0B9A16A8FFF732FFDDE91E7918
:105590009DF858209DF86830022A9DF870400993C4
:1055A00040F03581DDE9181095F8042322B1002878
:1055B00080F2A181B64A04E0B64B8B428241B64AE2
:1055C00007DB4FF0FF3CB54B994270EB0C0C00DB56
:1055D0000B46B348B049DDF824C0BCF1000F18BF3A
:1055E000014622A8CDE900123821AE4A12F07EFD14
:1055F000BAF1000F00F03081AB4BA74A9DF8711053
:105600009DF872009DF873C0002C00F028814FF0C7
:10561000000EA04CBC427EEB090E07DB4FF0FF3EB4
:105620009E4CA74279EB0E0EA8BF3C46209F0DF181
:10563000880ECDE90110CDE903C400923146404601
:10564000CDE9057E994A12F051FD041EC0F24C814D
:10565000B44280F04981D5F82C33FBB1D5E9CE1C9A
:1056600000208C4AD5F830738A4270EB0C0007DBBF
:105670004FF0FF30894A91427CEB0000A8BF0A46F8
:10568000CDE90072311B08EB0400894A12F02EFDAF
:10569000241800F12981B44280F02681D5F83433F2
:1056A0005BB1311B08EB0400824A12F01FFD241885
:1056B00000F11A81B44280F0178128463A99FFF729
:1056C00087FE98B13A99284617F0D6F94FF46163EE
:1056D000311BB0FBF3F3784A08EB040012F006FD2F
:1056E000241800F10181B44280F0FE80D5F82833FF
:1056F000311B009308EB0400D5F824336F4A12F0F5
:10570000F5FC241800F1F080B44280F0ED8005F53E
:1057100040730A934FF0000A2B46DA7D0AB10AF172
:10572000010A0A9A18339342F7D14FF0000BD94679
:10573000CA4540F3A9802F468BF001030F93FB7DF0
:10574000002B00F09580099B394628463A9AFFF7CE
:1057500097FD0F9B834240F08B8008EB0403089376
:10576000331B0C933B783A9A0D937B78B98A0E934E
:10577000FB686329A2EB0303BA6828BF63219B1867
:105780004FF0000242EB020E0B9A97F816C09B1ADC
:10579000404A6EF1000E9A424FF0000272EB0E0288
:1057A0005FDB3E4A93424FF0FF327EEB02025ADB50
:1057B000DFF8E4E0424ACDE901C1002808BF7246A3
:1057C000CDE903320E9B3F4A0093311B0D9B08EB42
:1057D000040012F08BFC002802DB2044B04244D3CA
:1057E0000023089ACA4513704EDDAAEB090318215D
:1057F000354A10A812F07AFC0C9B0546834243D927
:10580000421C10A9089820F037FC2C443CE0BDF85D
:105810005830B3F5807F15D1B9F1000F3B464A46A9
:1058200002DA7B4269EB490240F22D118B4272F1A0
:105830000002B4BF254B264B264A382122A812F07D
:1058400055FCD5E69DF85900FFF780FE03460AB9DE
:10585000214AF2E7214AF0E7214B224ACEE62746C9
:10586000E5E60C4BA4E70D4BA2E7044609F101095C
:105870000A9B18379F427FF462AF0BF10103022BA2
:105880004FF0010B7FF454AF204631B0BDE8F08FEC
:10589000159C02080094357742C10208006CCA8842
:1058A0002E9C0208549C020835AB0208789C020822
:1058B000AD9C0208CD9C0208DB9C0208E59C020816
:1058C000519C0208F99C0208159D02083B9C0208A5
:1058D0003E9C0208C2A10208619C02086B9C02085F
:1058E000A0A80208469C02080023741E08F8043091
:1058F000CAE71446C8E70022024B8B428241024AA3
:1059000065E600BF0094357742C10208034A0346AA
:10591000107810B1024A12681A607047B0800020F7
:10592000105100202DE9F04F85B00F460646029237
:1059300018B9002005B0BDE8F08F0029F9D0002487
:10594000184B04701B78002BF3D0174DDFF85CA0C8
:10595000DFF85CB005F1CC082A68DAF800301A42AA
:105960001CD0029BABB1AB68002B08BF5B46009319
:1059700006EB0409391B48466B680E4A039112F086
:10598000B5FB0028039906DA002389F80030204689
:10599000D0E7074BEBE78142F6D904440C35454587
:1059A000DAD1F4E7B0800020808002081051002096
:1059B00042C10208CAA70208002300B5A3B00193A0
:1059C00001A808F06BFA024658B90199074B02A8E2
:1059D00019600121064B19708021FFF7A3FF08F021
:1059E0008DFA002023B05DF804FB00BF10510020A9
:1059F000B08000200823044A044852F8041F013BE9
:105A000081EAF060F9D170479859012017F4437A80
:105A1000F8B50D4E0D4B32689A4212D1FFF7EAFFEE
:105A2000746A84420DD10A4F351D3C460FCD0FC418
:105A300095E80F0084E80F0000230122FB77054B57
:105A40001A7000203060F8BD9859012017F4437A8D
:105A500014510020B180002070B506460D46104C50
:105A60001C2200210F4820F02DFB66601DB1AB69A0
:105A7000A3606B69E36007F0F7F90B4B18581EF051
:105A8000B7F8014618B11322084820F06EFB084B06
:105A90002360FFF7AFFF6062012006F031FC00BF1A
:105AA00098590120A059012008000000A8590120A0
:105AB00017F4437A70B5064B04461E7836B1054D8F
:105AC0000FCD0FC495E80F0084E80F00304670BD7D
:105AD000B180002014510020034BD3E8AF0F0038F1
