:1000000088F9002085DC0000032D020071DC00006F
:1000100071DC000071DC000071DC000071DC0000AC
:10002000000000000000000000000000BDDC000037
:1000300071DC00000000000071DE000071DC0000D7
:10004000F1DE0000F1DE0000F1DE0000F1DE000074
:10005000F1DE0000F1DE0000F1DE0000F1DE000064
:10006000F1DE0000F1DE0000F1DE0000F1DE000054
:10007000F1DE0000F1DE0000F1DE0000F1DE000044
:1004800081F0004102E000BF83F0004330B54FEA45
:1004900041044FEA430594EA050F08BF90EA020FB2
:1004A0001FBF54EA000C55EA020C7FEA645C7FEA45
:1004B000655C00F0E2804FEA5454D4EB5555B8BF68
:1004C0006D420CDD2C4480EA020281EA030382EAD9
:1004D000000083EA010180EA020281EA0303362D6B
:1004E00088BF30BD11F0004F4FEA01314FF4801C3E
:1004F0004CEA113102D0404261EB410113F0004F50
:100500004FEA03334CEA133302D0524263EB430306
:1005100094EA050F00F0A780A4F10104D5F1200EA4
:100520000DDB02FA0EFC22FA05F2801841F10001FF
:1005300003FA0EF2801843FA05F359410EE0A5F1D3
:1005400020050EF1200E012A03FA0EFC28BF4CF004
:10055000020C43FA05F3C01851EBE37101F00045BA
:1005600007D54FF0000EDCF1000C7EEB00006EEBC7
:100570000101B1F5801F1BD3B1F5001F0CD3490851
:100580005FEA30004FEA3C0C04F101044FEA4452A8
:1005900012F5800F80F09A80BCF1004F08BF5FEA2F
:1005A000500C50F1000041EB045141EA050130BD0F
:1005B0005FEA4C0C404141EB0101013C28BFB1F521
:1005C000801FE9D291F0000F04BF01460020B1FA6C
:1005D00081F308BF2033A3F10B03B3F120020CDA3F
:1005E0000C3208DD02F1140CC2F10C0201FA0CF01D
:1005F00021FA02F10CE002F11402D8BFC2F1200C82
:1006000001FA02F120FA0CFCDCBF41EA0C01904037
:10061000E41AA2BF01EB0451294330BD6FEA040480
:100620001F3C1CDA0C340EDC04F11404C4F120026B
:1006300020FA04F001FA02F340EA030021FA04F37D
:1006400045EA030130BDC4F10C04C4F1200220FAD4
:1006500002F001FA04F340EA0300294630BD21FA12
:1006600004F0294630BD94F0000F83F4801306BFD8
:1006700081F480110134013D4EE77FEA645C18BFCC
:100680007FEA655C29D094EA050F08BF90EA020F63
:1006900005D054EA000C04BF1946104630BD91EA5B
:1006A000030F1EBF0021002030BD5FEA545C05D15E
:1006B0004000494128BF41F0004130BD14F580049D
:1006C0003CBF01F5801130BD01F0004545F0FE4111
:1006D00041F470014FF0000030BD7FEA645C1ABF46
:1006E000194610467FEA655C1CBF0B46024650EA7D
:1006F000013406BF52EA033591EA030F41F40021A9
:1007000030BD00BF90F0000F04BF0021704730B52E
:100710004FF4806404F132044FF000054FF0000103
:1007200050E700BF90F0000F04BF0021704730B5C4
:100730004FF4806404F1320410F0004548BF404299
:100740004FF000013EE700BF42004FEAE2014FEAEE
:1007500031014FEA02701FBF12F07F4393F07F4FC9
:1007600081F06051704732F07F4208BF704793F0CC
:100770007F4F04BF41F40021704730B54FF46074DF
:1007800001F0004521F000411CE700BF50EA0102E2
:1007900008BF704730B54FF000050AE050EA01028B
:1007A00008BF704730B511F0004502D5404261EBFB
:1007B00041014FF4806404F132045FEA915C3FF43C
:1007C000D8AE4FF003025FEADC0C18BF03325FEAD9
:1007D000DC0C18BF033202EBDC02C2F1200300FA8A
:1007E00003FC20FA02F001FA03FE40EA0E0021FAAF
:1007F00002F11444BDE600BF70B54FF0FF0C4CF49D
:10080000E06C1CEA11541DBF1CEA135594EA0C0F4E
:1008100095EA0C0F00F0DEF82C4481EA030621EA89
:100820004C5123EA4C5350EA013518BF52EA0335C4
:1008300041F4801143F4801338D0A0FB02CE4FF076
:100840000005E1FB02E506F00042E0FB03E54FF0A6
:100850000006E1FB03569CF0000F18BF4EF0010E9E
:10086000A4F1FF04B6F5007F64F5407404D25FEA9A
:100870004E0E6D4146EB060642EAC62141EA55514D
:100880004FEAC52040EA5E504FEACE2EB4F1FD0C8F
:1008900088BFBCF5E06F1ED8BEF1004F08BF5FEA0D
:1008A000500E50F1000041EB045170BD06F00046BF
:1008B00046EA010140EA020081EA0301B4EB5C046C
:1008C000C2BFD4EB0C0541EA045170BD41F4801164
:1008D0004FF0000E013C00F3AB8014F1360FDEBF89
:1008E000002001F0004170BDC4F10004203C35DA65
:1008F0000C341BDC04F11404C4F1200500FA05F3E8
:1009000020FA04F001FA05F240EA020001F0004288
:1009100021F0004110EBD37021FA04F642EB0601FE
:100920005EEA430E08BF20EAD37070BDC4F10C0428
:10093000C4F1200500FA04F320FA05F001FA04F2EC
:1009400040EA020001F0004110EBD37041F10001D8
:100950005EEA430E08BF20EAD37070BDC4F12005E3
:1009600000FA05F24EEA020E20FA04F301FA05F24B
:1009700043EA020321FA04F001F0004121FA04F2F3
:1009800020EA020000EBD3705EEA430E08BF20EAC3
:10099000D37070BD94F0000F0FD101F000464000FD
:1009A00041EB010111F4801F08BF013CF7D041EA7F
:1009B000060195F0000F18BF704703F00046520083
:1009C00043EB030313F4801F08BF013DF7D043EA54
:1009D0000603704794EA0C0F0CEA135518BF95EA0A
:1009E0000C0F0CD050EA410618BF52EA4306D1D191
:1009F00081EA030101F000414FF0000070BD50EAB0
:100A0000410606BF1046194652EA430619D094EA39
:100A10000C0F02D150EA013613D195EA0C0F05D123
:100A200052EA03361CBF104619460AD181EA030177
:100A300001F0004141F0FE4141F470014FF000002F
:100A400070BD41F0FE4141F4780170BD70B54FF0CA
:100A5000FF0C4CF4E06C1CEA11541DBF1CEA13554A
:100A600094EA0C0F95EA0C0F00F0A7F8A4EB05042C
:100A700081EA030E52EA03354FEA013100F0888023
:100A80004FEA03334FF0805545EA131343EA1263EC
:100A90004FEA022245EA111545EA10654FEA0026A1
:100AA0000EF000419D4208BF964244F1FD0404F55A
:100AB000407402D25B084FEA3202B61A65EB0305B6
:100AC0005B084FEA32024FF480104FF4002CB6EB73
:100AD000020E75EB030E22BFB61A754640EA0C00F3
:100AE0005B084FEA3202B6EB020E75EB030E22BF33
:100AF000B61A754640EA5C005B084FEA3202B6EB74
:100B0000020E75EB030E22BFB61A754640EA9C0032
:100B10005B084FEA3202B6EB020E75EB030E22BF02
:100B2000B61A754640EADC0055EA060E18D04FEAC0
:100B3000051545EA16754FEA06164FEAC30343EA60
:100B400052734FEAC2025FEA1C1CC0D111F4801F2D
:100B50000BD141EA00014FF000004FF0004CB6E726
:100B600011F4801F04BF01430020B4F1FD0C88BFC5
:100B7000BCF5E06F3FF6AFAEB5EB030C04BFB6EBD0
:100B8000020C5FEA500C50F1000041EB045170BDC3
:100B90000EF0004E4EEA113114EB5C04C2BFD4EBF0
:100BA0000C0541EA045170BD41F480114FF0000E74
:100BB000013C90E645EA060E8DE60CEA135594EAF0
:100BC0000C0F08BF95EA0C0F3FF43BAF94EA0C0FF3
:100BD0000AD150EA01347FF434AF95EA0C0F7FF468
:100BE00025AF104619462CE795EA0C0F06D152EABC
:100BF00003353FF4FDAE1046194622E750EA4106A0
:100C000018BF52EA43067FF4C5AE50EA41047FF4B0
:100C10000DAF52EA43057FF4EBAE12E74FF0FF3C15
:100C200006E000BF4FF0010C02E000BF4FF0010CE6
:100C30004DF804CD4FEA410C7FEA6C5C4FEA430C5F
:100C400018BF7FEA6C5C1BD001B050EA410C0CBFAE
:100C500052EA430C91EA030F02BF90EA020F002010
:100C6000704710F1000F91EA030F58BF994208BF77
:100C700090422CBFD8176FEAE37040F00100704734
:100C80004FEA410C7FEA6C5C02D150EA013C07D18B
:100C90004FEA430C7FEA6C5CD6D152EA033CD3D0D6
:100CA0005DF8040B704700BF8446104662468C46D0
:100CB0001946634600E000BF01B5FFF7B7FF002803
:100CC00048BF10F1000F01BD4DF808EDFFF7F4FF2C
:100CD0000CBF012000205DF808FB00BF4DF808EDB7
:100CE000FFF7EAFF34BF012000205DF808FB00BFDA
:100CF0004DF808EDFFF7E0FF94BF012000205DF8FC
:100D000008FB00BF4DF808EDFFF7CEFF94BF0120B0
:100D100000205DF808FB00BF4DF808EDFFF7C4FFA9
:100D200034BF012000205DF808FB00BF4FEA4102FC
:100D300012F5001215D211D56FF47873B3EB62522D
:100D400012D94FEAC12343F0004343EA505311F054
:100D5000004F23FA02F018BF404270474FF00000E6
:100D6000704750EA013005D111F0004008BF6FF024
:100D7000004070474FF00000704700BF4A0011D29A
:100D800012F5001211D20DD56FF47873B3EB6252E5
:100D90000ED44FEAC12343F0004343EA505323FAF1
:100DA00002F070474FF00000704750EA013002D166
:100DB0004FF0FF3070474FF0000070474FEA41029C
:100DC000B2F1E04324BFB3F5001CDCF1FE5C0DD9A9
:100DD00001F0004C4FEAC0024CEA5070B2F1004FF3
:100DE00040EB830008BF20F00100704711F0804FF6
:100DF00021D113F13872BCBF01F00040704741F4BB
:100E000080114FEA5252C2F11802C2F1200C10FABE
:100E10000CF320FA02F018BF40F001004FEAC123A2
:100E20004FEAD32303FA0CFC40EA0C0023FA02F346
:100E30004FEA4303CCE77FEA625307D150EA01331C
:100E40001EBF4FF0FE4040F44000704701F00040EC
:100E500040F0FE4040F40000704700BF80F00040CA
:100E600002E000BF81F0004142001FBF5FEA410382
:100E700092EA030F7FEA226C7FEA236C6AD04FEA82
:100E80001262D2EB1363C1BFD218414048404140C7
:100E9000B8BF5B42192B88BF704710F0004F40F479
:100EA000000020F07F4018BF404211F0004F41F495
:100EB000000121F07F4118BF494292EA030F3FD061
:100EC000A2F1010241FA03FC10EB0C00C3F1200374
:100ED00001FA03F100F0004302D5494260EB400003
:100EE000B0F5000F13D3B0F1807F06D340084FEA6E
:100EF000310102F10102FE2A51D2B1F1004F40EB63
:100F0000C25008BF20F0010040EA030070474900CA
:100F100040EB0000013A28BFB0F5000FEDD2B0FA67
:100F200080FCACF1080CB2EB0C0200FA0CF0AABF8A
:100F300000EBC25052421843BCBFD0401843704728
:100F400092F0000F81F4000106BF80F4000001322E
:100F5000013BB5E74FEA41037FEA226C18BF7FEA05
:100F6000236C21D092EA030F04D092F0000F08BF47
:100F70000846704790EA010F1CBF0020704712F02E
:100F80007F4F04D1400028BF40F00040704712F16D
:100F900000723CBF00F50000704700F0004343F0D2
:100FA000FE4040F4000070477FEA226216BF084608
:100FB0007FEA23630146420206BF5FEA412390EACB
:100FC000010F40F4800070474FF0000304E000BFC1
:100FD00010F0004348BF40425FEA000C08BF704772
:100FE00043F0964301464FF000001CE050EA010236
:100FF00008BF70474FF000030AE000BF50EA01024B
:1010000008BF704711F0004302D5404261EB410137
:101010005FEA010C02BF84460146002043F0B6435C
:1010200008BFA3F18053A3F50003BCFA8CF2083A81
:10103000A3EBC25310DB01FA02FC634400FA02FC8A
:10104000C2F12002BCF1004F20FA02F243EB020091
:1010500008BF20F00100704702F1200201FA02FCF3
:10106000C2F1200250EA4C0021FA02F243EB0200E6
:1010700008BF20EADC7070474FF0FF0C1CEAD0522A
:101080001EBF1CEAD15392EA0C0F93EA0C0F6FD0EB
:101090001A4480EA010C400218BF5FEA41211ED0C9
:1010A0004FF0006343EA501043EA5111A0FB0131B5
:1010B0000CF00040B1F5000F3EBF490041EAD3718A
:1010C0005B0040EA010062F17F02FD2A1DD8B3F106
:1010D000004F40EBC25008BF20F00100704790F075
:1010E000000F0CF0004C08BF49024CEA502040EAC7
:1010F00051207F3AC2BFD2F1FF0340EAC25070478D
:1011000040F400004FF00003013A5DDC12F1190FCA
:10111000DCBF00F000407047C2F10002410021FA3C
:1011200002F1C2F1200200FA02FC5FEA310040F154
:10113000000053EA4C0308BF20EADC70704792F0CD
:10114000000F00F0004C02BF400010F4000F013A05
:10115000F9D040EA0C0093F0000F01F0004C02BF00
:10116000490011F4000F013BF9D041EA0C018FE76F
:101170000CEAD15392EA0C0F18BF93EA0C0F0AD075
:1011800030F0004C18BF31F0004CD8D180EA01009B
:1011900000F00040704790F0000F17BF90F0004F34
:1011A000084691F0000F91F0004F14D092EA0C0F16
:1011B00001D142020FD193EA0C0F03D14B0218BFA9
:1011C000084608D180EA010000F0004040F0FE40EF
:1011D00040F40000704740F0FE4040F4400070478B
:1011E0004FF0FF0C1CEAD0521EBF1CEAD15392EA0A
:1011F0000C0F93EA0C0F69D0A2EB030280EA010CFA
:1012000049024FEA402037D04FF0805343EA111192
:1012100043EA10130CF000408B4238BF5B0042F1F0
:101220007D024FF4000C8B4224BF5B1A40EA0C0095
:10123000B3EB510F24BFA3EB510340EA5C00B3EBC7
:10124000910F24BFA3EB910340EA9C00B3EBD10FB5
:1012500024BFA3EBD10340EADC001B0118BF5FEA07
:101260001C1CE0D1FD2A3FF650AF8B4240EBC25030
:1012700008BF20F0010070470CF0004C4CEA5020F1
:101280007F32C2BFD2F1FF0340EAC250704740F440
:1012900000004FF00003013A37E792F0000F00F032
:1012A000004C02BF400010F4000F013AF9D040EAB0
:1012B0000C0093F0000F01F0004C02BF490011F444
:1012C000000F013BF9D041EA0C0195E70CEAD1533C
:1012D00092EA0C0F08D142027FF47DAF93EA0C0F23
:1012E0007FF470AF084676E793EA0C0F04D14B0207
:1012F0003FF44CAF08466EE730F0004C18BF31F0B9
:10130000004CCAD130F000427FF45CAF31F00043B2
:101310007FF43CAF5FE700BF4FF0FF3C06E000BF4B
:101320004FF0010C02E000BF4FF0010C4DF804CD6E
:101330004FEA40024FEA41037FEA226C18BF7FEA7E
:10134000236C11D001B052EA530C18BF90EA010F80
:1013500058BFB2EB030088BFC81738BF6FEAE1700F
:1013600018BF40F0010070477FEA226C02D15FEAAB
:10137000402C05D17FEA236CE4D15FEA412CE1D017
:101380005DF8040B704700BF844608466146FFE7DE
:101390000FB5FFF7C9FF002848BF10F1000F0FBDC0
:1013A0004DF808EDFFF7F4FF0CBF012000205DF8B9
:1013B00008FB00BF4DF808EDFFF7EAFF34BF01203E
:1013C00000205DF808FB00BF4DF808EDFFF7E0FFD7
:1013D00094BF012000205DF808FB00BF4DF808ED28
:1013E000FFF7D2FF94BF012000205DF808FB00BF8B
:1013F0004DF808EDFFF7C8FF34BF012000205DF86D
:1014000008FB00BF4FEA40024FEA41037FEA226C2B
:1014100002D15FEA402C08D17FEA236C02D15FEA57
:10142000412C02D14FF0000070474FF0010070478F
:101430004FEA4002B2F1FE4F0FD34FF09E03B3EBE1
:1014400012620DD94FEA002343F0004310F0004F21
:1014500023FA02F018BF404270474FF00000704777
:1014600012F1610F01D1420205D110F0004008BF16
:101470006FF0004070474FF00000704742000ED2FE
:10148000B2F1FE4F0BD34FF09E03B3EB126209D4BF
:101490004FEA002343F0004323FA02F070474FF075
:1014A0000000704712F1610F01D1420202D14FF0EA
:1014B000FF3070474FF00000704700BF7BB972B932
:1014C0000029BEBF00204FF0004106E008BF002801
:1014D0001CBF6FF000414FF0FF3000F077B8ADF166
:1014E000080C6DE904CE002909DB002B1ADB00F0A3
:1014F000AFF8DDF804E0DDE9022304B070474042B4
:1015000061EB4101002B1BDB00F0A2F8DDF804E0E9
:10151000DDE9022304B0404261EB4101524263EB3A
:1015200043037047524263EB430300F091F8DDF848
:1015300004E0DDE9022304B0404261EB4101704761
:10154000524263EB430300F083F8DDF804E0DDE989
:10155000022304B0524263EB4303704753B94AB9C4
:10156000002908BF00281CBF4FF0FF314FF0FF30AB
:1015700000F02CB8ADF1080C6DE904CE00F068F86D
:10158000DDF804E0DDE9022304B07047D0B5FFF7D1
:10159000DBF800220B4B06460F46FFF72DF9FFF74D
:1015A000EDFB0446FFF7AEF80022074BFFF724F9E6
:1015B00002460B4630463946FEF766FFFFF7DEFB74
:1015C0002146D0BD0000F03D0000F041704700BF53
:1015D00010F8012B11F8013B012A28BF9A42F7D0DD
:1015E000D01A7047034611F8012B03F8012B002A8B
:1015F000F9D17047034613F8012B002AFBD1181AC2
:1016000001387047430803F05533C01A00F03333F4
:10161000800800F0333018444FF0013300EB101015
:1016200000F00F305843000E704710B500210446FB
:10163000FFF7C0FE20B92046BDE81040FFF7A6BF67
:1016400004F10040FFF7A2FF404261EB410110BDF1
:101650002DE9F0478C468E46089E154604461946ED
:10166000002B40F0D080724547D9B2FA82F74FB1D3
:10167000C7F120030EFA07FCBD40BC4020FA03F37B
:1016800043EA0C0C4FEA154EA8B2230CBCFBFEF843
:101690000EFB18CC08FB00F943EA0C43994528D906
:1016A000EB1808F1FF3204D2994502D9A8F10202E1
:1016B0002B44A3EB0903A4B2B3FBFEFC0EFB1C33CB
:1016C0000CFB00F044EA0344A04214D92C190CF19D
:1016D000FF3304D2A04202D9ACF102032C44241AF5
:1016E00043EA02401EB1FC40002334607360BDE851
:1016F000F0874246DDE76346F1E7002A79D0B2FA87
:1017000082F3002B3FD01946C1F1200302FA01F504
:1017100000FA01F42EFA03F20EFA01FE20FA03F3A6
:10172000AFB243EA0E034FEA154EB2FBFEFC0EFBCE
:101730001C201A0C0CFB07F842EA004290455AD9CB
:10174000AA180CF1FF3004D2904502D9ACF1020086
:101750002A44A2EB08029BB2B2FBFEFC0EFB1C2249
:101760000CFB07F743EA02439F4246D9EB180CF102
:10177000FF3204D29F4202D9ACF102022B44DB1BA0
:1017800042EA004202E0AEEB020301224FEA154EAC
:10179000AFB2200CB3FBFEFC0EFB1C330CFB07F8B6
:1017A00040EA034398452AD9EB180CF1FF3004D2E4
:1017B000984502D9ACF102002B44A3EB0803A4B274
:1017C000B3FBFEFC0EFB1C330CFB07F744EA03449F
:1017D000A74216D92C190CF1FF3304D2A74202D923
:1017E000ACF102032C44E41B43EA00400F461146CF
:1017F00078E71F2188E76046ABE76246BFE76046AF
:10180000DBE76346EFE7734506D916B900210846C2
:101810006DE7C6E9000EF9E7B3FA83F787B97345B8
:1018200001D3824207D8841A6EEB030301209C4641
:101830001EB900215BE73846FAE7C6E9004CF8E735
:10184000C7F1200CBB4000FA07F422FA0CF520FA8D
:101850000CF1BA401D432EFA0CF30EFA07FE4FEAC4
:10186000154941EA0E011FFA85FEB3FBF9F809FBA1
:1018700018300B0C08FB0EFA43EA00439A4540D996
:10188000EB1808F1FF3004D29A4502D9A8F1020002
:101890002B44A3EB0A0389B2B3FBF9F809FB183315
:1018A00008FB0EFE41EA03418E452CD9691808F168
:1018B000FF3304D28E4502D9A8F10203294443EA3A
:1018C0000040A1EB0E01A0FB02984145CE464346E5
:1018D00002D306D14C4504D20138B9EB020E68EBB5
:1018E0000503002EA5D0B4EB0E0261EB030101FA53
:1018F0000CFC22FA07F3F9404CEA0303C6E9003175
:1019000097E74046C5E74346D9E7000000000000DE
:1019100000222DE9F04F664B87B0D3E8EF5FC3E8B4
:10192000E12F0029F9D1002D00F0B9802A074DD50B
:10193000DFF880B1DBF80030002B47D04FF0FF30EC
:101940004FF0FF3103F0F8FC5B4B04ACD3E900121D
:10195000D3E90289CDE90212D3E90676D3E904017D
:1019600084E8030003F0F0FC20461DF0B1FF0128DD
:1019700071F1000304468A460DDB1DF09AFFC01B7F
:1019800061EB06014FF47A720023FFF797FD00190F
:1019900004464AEB010A40464946FEF7FFFE42A3D1
:1019A000D3E90023FFF752F880468946DDE90201BA
:1019B000FEF7F4FE3CA3D3E90023FFF747F8CDE997
:1019C000004A42464B46DBF80040A04715F00104B0
:1019D0002BD03A4B1B782BB1394B1B78012B01D103
:1019E00003F0EEFBEB065AD5354B1B78022B56D194
:1019F000344B1878421C1A7004F030FA0446002860
:101A000049D047F6122540F2E73000214FF47A72B0
:101A10000023E4FB0501FFF7A1FD02460B462A481F
:101A200007B0BDE8F04F15F0EFBD15F0060FD9D0A7
:101A3000234B1A78022AD5D101271F70234B244A41
:101A40001C70244B16681F701DF033FF224BC3E936
:101A50000001224BC3E9006403F05CFC39462046D8
:101A600004F07CF8204604F061F81D4B1A7802B1AE
:101A70001C7047F6122440F2E73000214FF47A72CE
:101A80000023E6FB0401FFF769FD02460B461548FB
:101A900015F086FDA6E7144A13680133136007B0FA
:101AA000BDE8F08FAFF300800000000065CDCD41B0
:101AB000485C0020505C0020380A002071AE0020F5
:101AC0006FAE002069AE0020600000206EAE0020E6
:101AD000A80200206CAE0020680A0020600A0020E6
:101AE00063AE0020C0000020445C00200000000025
:101AF0002DE9F04F8E070F4614468FB040F18F80CE
:101B000003F0D2FD002800F08A8004A803F0E4FE70
:101B1000002800F0848094F8C15094F8C03005F19A
:101B20000A0898457BDADDE90401FEF737FE98A341
:101B3000D3E90023FEF78AFFFFF740F99649FFF744
:101B40009BFA00210646FFF735FC4FF07C51002838
:101B50006CD03046FFF786F9FFF76AFC8146DDE975
:101B60000601FEF71BFE8AA3D3E90023FEF76EFFF2
:101B7000FFF724F98849FFF77FFA00210646FFF7AF
:101B800019FC4FF07C51002854D03046FFF76AF919
:101B9000FFF74EFC06460898FFF71AFA7F49FFF751
:101BA0001FFB7F49FFF768FA00218246FFF702FC1E
:101BB0004FF07C51002841D05046FFF753F9FFF712
:101BC00037FC012388226355EB18DBB2E254AB1CCF
:101BD000DBB24FEA2942E254EB1CDBB24FEA292286
:101BE000E2542B1DDBB204F803906B1DDBB2321400
:101BF000E254AB1DDBB23212E254EB1DDBB2E65411
:101C000005F10803DBB20214E25405F10903DBB26B
:101C100002120B35E25484F8C15004F808007D0725
:101C200000F1AC8001200FB0BDE8F08F3046FFF727
:101C30001BF991E73046FFF717F9A9E75046FFF780
:101C400013F9BCE7404604F045FA80B909F10103F5
:101C50004D465FFA83F9404604A904F04DFA40B1BD
:101C600008F1010804F030FA4045EBDCDAE7012521
:101C7000F1E7BDF81070F8061DD5DDF824B0514627
:101C80005846FFF797FB002873D158464549FFF7A0
:101C9000AFFB00286FD15846FFF7F0FBFFF794F930
:101CA0000022CDE9016202220346009265212A4604
:101CB00020461DF0B8FEF9070AD502230A22672143
:101CC000CDE9003220462A46059B02961DF0ABFE68
:101CD000BB070BD502234FF0000C2A46CDE9013C8F
:101CE00068212046069B00961DF09DFE78070BD5C7
:101CF0000A230021CDE9013102232A4600937321F2
:101D00002046079B1DF08FFE3A0709D502232A467D
:101D1000009379212046CDE90166089B1DF083FEE2
:101D2000BB060AD5022364202A46CDE9003074217F
:101D300020460A9B02961DF076FE79060BD50223FB
:101D40004FF47A727521CDE9003220462A460B9B6A
:101D500002961DF068FE3B0682D50023CDE90163A3
:101D600002232A460093802120460C9B1DF05BFE37
:101D700076E7D3468FE74FF6FF708FE74FF0000806
:101D80004FF0020901264FF0000A6BE7AFF3008025
:101D90000000000065CDCD4100401C4600007A44A3
:101DA0000000C84200FF7F472DE9F0431446426916
:101DB00087B092F88C30151D73B9CDE902538DF8B8
:101DC00004108DF805300493214601A805931DF0F9
:101DD000CAFE07B0BDE8F083012B1FD18268D2E9AB
:101DE0000289D2E904678DF804108DF80530404669
:101DF0000FA3D3E9002349460295FEF7FDFCFEF749
:101E000095FF0BA3D3E90023039039463046FEF734
:101E1000F3FCFEF78BFF00230490D5E7D2E90A8993
:101E2000D2E90C6701238DF80410DEE7AFF30080E0
:101E30000000000080842E412DE9F041151D06466A
:101E40000F469AB028469B491C46FFF7C1FB30B9A4
:101E5000994920461AB0BDE8F041FFF7C3BB0A22FA
:101E60002846964929F0F3FFC8B9736993F8812091
:101E7000934B197991420BD11B68924A0092924A76
:101E80004FF48071204619F089F91AB0BDE8F0814D
:101E90000130042803F10803EBD18C4BEDE7072256
:101EA00028468B4929F0D3FF80B9736993F88220C3
:101EB000884B1979914202D11B68874ADEE70130CD
:101EC000042803F10803F4D1804BF6E704222846E6
:101ED000824929F0BCFF40B9736993F88020804B98
:101EE0008049002A08BF0B461DE0152228467E497E
:101EF00029F0ADFF20B9736993F84F307B4A13E0A6
:101F00000F2228467A4929F0A2FF20B9736993F875
:101F10004E305B00F2E70E222846764929F097FF03
:101F200050B973695833744A4FF4807120461AB01F
:101F3000BDE8F04119F032B9DFB9072228466F49F0
:101F400029F085FFA8B9B0691C3603685B6D984716
:101F500040220AA91BF06DFD0AA90246304601F095
:101F600005FF33464FF480712046634A19F016F995
:101F70008BE704222846624929F069FF10B973698A
:101F80000433D0E7062228465E4929F060FF18B9DD
:101F9000736993F84D20A2E7032228465A4929F095
:101FA00056FF58B97369D3E90A23CDE90023574A8C
:101FB0004FF48071204619F0F1F866E703222846B5
:101FC000534929F044FF18B97369D3E90C23ECE7AE
:101FD000102228464F4929F03AFF18B9736993F83F
:101FE0007E308BE7122228464B4929F030FF18B982
:101FF000736993F87D3081E709222846474929F023
:1020000026FF18B9736993F87C3077E712222846C7
:10201000434929F01CFF38B97369D86EFEF794FB69
:10202000404ACDE90001C3E70A2228463E4929F08B
:102030000EFF90B93E23224602F8023B2023637034
:102040007169973111F8013F0BB913701DE70A2B25
:1020500008BF7C2302F8013BF4E70B2228463349F2
:1020600029F0F5FE70B9736993F831310BB9304935
:10207000EFE6012B01D12F49EBE6022B0CBF2E49D5
:102080002E49E6E60A2228462D4929F0E0FE0028DE
:102090005AD12C492046FFF7A5FAB06903685B6D59
:1020A000984720220146A01C1AB0BDE8F04101F07B
:1020B0005DBE00BF9D060300A0060300C40603002A
:1020C000A4E10200D6060300CF0603007514030046
:1020D000F406030084E10200C11D0300FC060300B6
:1020E0008F070300180A0300010703004A020300D8
:1020F0000707030017070300C9FB020026070300B8
:10210000D5120300ACFD0200A4FD02002E0703005F
:10211000A8FD020035070300460703005907030026
:1021200063070300380203007607030081070300FA
:102130008D070300930703009D070300A807030012
:10214000B1070300B4010300042228469A4929F08C
:102150007EFE28B9B0690368DB6898470346E2E66B
:102160000E222846954929F072FE08B9944970E676
:102170000D222846934929F06AFE08B9924968E67B
:1021800011222846914929F062FEB0B935682B68C2
:102190002846D3E91737984701462846B847366896
:1021A000054633683046D3E919379847014630462B
:1021B000B8472B46864A009062E60D22284685499C
:1021C00029F045FE0028D9D00E222846824929F060
:1021D0003EFE50B93068202203680AA99B6B9847DD
:1021E00008B10AABBEE67D4933E60E2228467C499B
:1021F00029F02DFE28BB30680368DB689847002172
:102200000746FFF7CDF808B1764922E63068036843
:102210001B68984705463846FEF796FA6DB1724B33
:10222000724A1B681B88CDE90001CDE902534FF4C7
:102230008071204618F0B2FF27E6CDE900016C4A14
:10224000B6E6062228466B4929F001FE20B97369DB
:1022500093F81231684A67E60E222846674929F04A
:10226000F6FD08B96649F4E50C222846654929F0CF
:10227000EEFD18B90AF0E2FD0346EBE70922284615
:10228000614929F0E4FD18B9736993F91F31E1E759
:10229000082228465D4929F0DAFD90B977B196F811
:1022A000E010C1F1A1013E23237020230239A01CBC
:1022B00063701AB0BDE8F04103F000BE4FF48071C6
:1022C000F1E708222846524929F0C1FD38B903F048
:1022D00069FA034600287FF411AE4E49B9E503229E
:1022E00028464D4929F0B3FD002846D103F0DCF91A
:1022F00000283FF4BCAE07A803F048FB9DF81C3053
:102300000AA8022B96BF454A454D52F8235003F0C8
:10231000E3FABDF81E6000B3DDE90C01FEF73EFAFA
:1023200023A3D3E90023FEF791FBCDE90401DDE906
:102330000A01FEF733FA1EA3D3E90023FEF786FB5A
:10234000089BCDE90201CDE900634FF480712B4673
:102350002046344A18F022FF97E5099B4BB1CDE99E
:1023600000634FF480712B4620462F4A18F016FF69
:102370008BE52B462D4A009682E50B2228462C49F8
:1023800029F065FD30B9B0690368D3F8803098470B
:102390000346B3E50E222846264929F058FD0028B9
:1023A0004AD1736993F81831A8E500BFAFF30080F4
:1023B0000000000065CDCD41BC070300C10703004C
:1023C000D0070300DE070300EC0703001208030038
:1023D000240803003E0803004C0803005B080300C8
:1023E0006508030074080300A8DE020095080300D6
:1023F000C0080300D908030045030300E0080300F8
:10240000EF08030013090300200903002A09030051
:10241000330903003C09030025FB020078E10200B8
:102420005D0803004C09030080090300A6090300AE
:10243000C3090300CF09030009222846514929F0A6
:1024400006FDC8B9AFB196F8E050C5F1A10529461F
:102450004D4A204618F0A2FE0146B0696A1A036888
:102460002144D3F88830984700287FF40EAD4749BF
:10247000EFE44FF48075EAE708222846444929F042
:10248000E6FC28B97369434993F81621424B28E5C5
:102490000A222846414929F0DAFC18B9736993F9F0
:1024A0001731D7E60B2228463D4929F0D0FC38B930
:1024B000736993F81931002B7FF420AD3949C8E4D2
:1024C00028463949FFF784F808B93849C1E4082299
:1024D0002846374929F0BBFC002847D00C22284663
:1024E000344929F0B4FC002848D1B0690368D3F816
:1024F0009830984705460028B9D0002F3BD096F871
:10250000E070C7F1A107706803681B6898478046B0
:102510001FF094FE73694FF47A7293F81531003B03
:1025200018BF012301930023FEF7C8FF4346009024
:102530003A462146284604F095F8A6E41E4A384655
:10254000002D18BF42461D4918F052FE0135032DDB
:1025500007443FF49AAC73692B4493F81A31002B6B
:10256000ECD1002D7FF491AC154972E42746054665
:10257000DFF85080EFE74FF48077C4E72B46124A2C
:10258000D2E400BFDE090300B401030052030300DC
:10259000E80903008F070300180A0300F10903008C
:1025A000FC090300080A0300120A0300160A0300CC
:1025B0001B0A0300400A0300C11D0300240A030094
:1025C000290A0300801E03004D0A030000000000DA
:1025D00070B5144606460846FEF7FAFC2146FEF79B
:1025E0004BFDFFF722F80EA3D3E900230A4D80FB31
:1025F000054520462946FEF761FF0023074A306063
:1026000029462046FEF75AFF0023044AFEF756FFEC
:10261000726070BDAFF300803AA3950040420F0096
:102620000010A5D4E800000070B514460646084620
:10263000FEF7CEFC2146FEF71FFD1349FEF7D0FD45
:10264000FEF7F3FF0CA3D3E90023104D80FB0545F3
:1026500020462946FEF732FF09A3D3E90023306064
:1026600029462046FEF72AFF0023094AFEF726FFE7
:10267000726070BDAFF3008000209BF35E1000001D
:1026800080A812010000000000002041D8EF2F00B8
:1026900040420F0000000000032970B504460D46BB
:1026A00004D0072949D06FF0850028E0002A38D0EF
:1026B000072AF8D158681E680346514AC117C6FB5D
:1026C0000231012B71F10002C0F28D804D481818C3
:1026D00041F1000146A3D3E90023FEF7EFFE0228F3
:1026E00026690DD010280DD004280DD008287AD1E5
:1026F0002946204624F065F840B16FF0040070BD13
:102700000025F5E70125F3E70225F1E73D203E4BE3
:1027100033F8151081FB0001FEF770FCF06000201B
:10272000EDE718880EF0F0FF011E5CDB2046C9B211
:102730000FF018F80028F2D0DFE7002A49D0072A66
:10274000B1D1B4255A6819682D4BD017C1FB0320AD
:10275000A2FB0531012A05FB001170F1000028DB06
:102760002A48181841F1000123A3D3E90023FEF7FA
:10277000A5FEFA28266924D0B0F5FA7F23D0B0F55B
:102780007A7F22D0B0F5FA6F21D07D282BD1042595
:102790002946204624F025F80028AED141F2171032
:1027A0001B4B33F8151081FB0001FEF727FCF0618D
:1027B000B5E71848181861F100010FA3D3E9002309
:1027C000D5E70025E4E70125E2E70225E0E7032558
:1027D000DEE718880EF098FF011E04DB2046C9B220
:1027E0000EF0A2FFA6E76FF0150088E7AFF30080B8
:1027F0003AA3950000000000D8EF2F000000000071
:1028000040420F009DD14A008CF50200ECF7170002
:1028100082F502001408E8FF1BA3D3E9002300217E
:10282000C0E900231AA3D3E90023C0E902231AA3B5
:10283000D3E90023C0E9042319A3D3E90023C0E9A5
:10284000062319A3D3E90023C0E9082318A3D3E979
:102850000023C0E90A2318A3D3E90023C0E90C230D
:1028600017A3D3E90023C0E90E2300220023C0F8F8
:10287000D010C0E93023C0E932238022403029F053
:10288000D3BA00BFAFF3008008C9BCF367E6096A9A
:102890003BA7CA8485AE67BB2BF894FE72F36E3CEF
:1028A000F1361D5F3AF54FA5D182E6AD7F520E514C
:1028B0001F6C3E2B8C68059B6BBD41FBABD9831F06
:1028C00079217E1319CDE05B31F000432DE9F04F03
:1028D000814687B00E4607460C460DD180F480072E
:1028E0007F0017F5000F40F2578331464846FEF748
:1028F000BBFA07B0BDE8F08F20F000480146B8F100
:10290000FF4F02D8B3F1FF4F08D9B7F17E5FECD18A
:1029100084F48004640014F5000FE4E7002823DA4F
:10292000B3F1974F80F03D83B3F17E5F36D3DA1574
:10293000C2F1960243FA02F505FA02F29A4225D153
:1029400005F00105C5F10205B3F17E5F27D1002C2A
:102950007EDA00214846FEF723FDC8B1F80F07B024
:10296000BDE8F04F1AF0CABAB3F1FF4F0ED1B8F17B
:102970007E5F00F0118304D9002C80F210830020C8
:10298000B7E7002CFBDA06F10040B2E70025DBE7F1
:1029900049464FF07E50FEF723FCAAE70025B4F12C
:1029A000804F424640F00383B8F1BF4F20D2B8F1C8
:1029B000D05F04D949464846FEF75EFB99E729F007
:1029C0000040B8F1000F40D0F90F013903912943BD
:1029D00024D0B3F19A4F40F2D780654B984539D84F
:1029E000002C3CDA002007B0BDE8F04F1AF07EBAA8
:1029F00027F0404C29F00040BCF17E5F1AD1002C3A
:102A000004DA01464FF07E50FEF7EAFB002FBFF6D6
:102A100070AFA8F17E5858EA050805D1484607B0BE
:102A2000BDE8F04F1AF072BA012D7FF462AF00F1E9
:102A300000405EE7B8F1000FC6D1002C05DA17B1EF
:102A40006B1E59425941084689E7012D7FF451AF69
:102A500048464EE7474B984507D9002CC2DC00207A
:102A600007B0BDE8F04F29F0CBBC4FF07E51FEF728
:102A7000F9F907464049FEF7FFFA404981463846D2
:102A8000FEF7FAFA804638A1D1E90001FEF796F97F
:102A900082464FF07A513846FEF7EEFA014650462C
:102AA000FEF7E0F93946FEF7E7FA01464FF07C50B1
:102AB000FEF7D8F9824639463846FEF7DDFA014678
:102AC0005046FEF7D9FA2E49FEF7D6FA014640469F
:102AD000FEF7C8F9014680464846FEF7C5F920F4DE
:102AE0007F67494627F00F073846FEF7BBF90146D6
:102AF0004046013DFEF7B6F9039B6FF30B04804699
:102B00001D433046214614BF4FF07E551D4DFEF744
:102B1000A9F93946FEF7B0FA814631464046FEF73C
:102B2000ABFA01464846FEF79FF90646214638466D
:102B3000FEF7A2FA014607463046FEF795F900284F
:102B40000446804620F0004340F34481B3F1864FB1
:102B500040F22D8100212846FEF72CFC003818BFDA
:102B6000012040E7AFF30080E13D55555555D53F75
:102B7000F3FF7F3F0700803F00AAB83F70A5EC3607
:102B80003BAAB83F000080BF17F0FF4F40F00B8119
:102B90004FF09741FEF770FA6FF017010246D31518
:102BA000C2F316027F3B0B4495498A42029342F0DE
:102BB0007E5308DD93498A4240F3F780029AA3F5D9
:102BC00000030132029200278F4A9A461846049366
:102BD00052F827B05946FEF745F951468146584606
:102BE000FEF742F901464FF07E50FEF7F9FA014632
:102BF00005904846FEF740FA0190019B83496FF328
:102C00000B039846049B01EA6303414643F00053DB
:102C100003F5800303EB475318460493FEF72CFAA1
:102C200001464846FEF71EF9049B81465946184660
:102C3000FEF718F901465046FEF714F94146FEF733
:102C40001BFA01464846FEF70DF9059A1146FEF7B4
:102C500013FA019983460846FEF70EFA6C4981463D
:102C6000FEF70AFA6B49FEF7FFF84946FEF704FA49
:102C70006949FEF7F9F84946FEF7FEF96749FEF79C
:102C8000F3F84946FEF7F8F96549FEF7EDF84946CD
:102C9000FEF7F2F96349FEF7E7F8824649464846EF
:102CA000FEF7EAF901465046FEF7E6F9414681464D
:102CB0000198FEF7D9F85946FEF7DEF94946FEF7C6
:102CC000D3F8414682464046FEF7D6F9564904906D
:102CD000FEF7CAF85146FEF7C7F820F47F6941466F
:102CE00029F00F094846FEF7C7F94F498046484684
:102CF000FEF7B8F80499FEF7B5F801465046FEF71E
:102D0000B1F80199FEF7B8F9824649465846FEF7F0
:102D1000B3F901465046FEF7A7F883460146404600
:102D2000FEF7A2F820F47F69404929F00F094846D0
:102D3000FEF7A2F9414682464846FEF793F801465F
:102D40005846FEF78FF83A49FEF796F9804639491A
:102D50004846FEF791F901464046FEF785F8364BA6
:102D600053F82710FEF780F880460298FEF730F9F6
:102D7000324B8146414653F827B05046FEF774F86F
:102D80005946FEF771F84946FEF76EF820F47F6762
:102D9000494627F00F073846FEF764F85946FEF714
:102DA00061F85146A1E60021F9E601270CE74BD175
:102DB00023493046FEF758F8814639462046FEF74B
:102DC00051F801464846FEF713FB00287FF4C2AED7
:102DD00086233EE01B4A934207D900212846FEF78E
:102DE000E9FA003818BF01203AE62DD13946FEF73E
:102DF00039F83146FEF7F2FA0028E9D0EDE700BFD6
:102E000071C41C00D6B35D0050F5020000F0FFDF76
:102E100042F1533E55326C3E05A38B3EABAAAA3E0F
:102E2000B76DDB3E9A99193F000040400040763F65
:102E30004F38763FC623F6B840F5020048F5020049
:102E40003CAA383300001643B3F17C5F40F2A08007
:102E5000DB157E3B4FF400045B49B8F1000F44FAE8
:102E600003F438464444C4F3C753A3F17F0341FA43
:102E700003F1C3F1170301EA0401C4F3160444F497
:102E8000000444FA03F4B8BF6442FDF7EBFF0746C1
:102E900031463846FDF7E8FF20F47F694B4929F0B9
:102EA0000F094846FEF7E8F8394680464846FDF7E0
:102EB000D9FF01463046FDF7D5FF4549FEF7DCF85E
:102EC000064644494846FEF7D7F801463046FDF726
:102ED000CBFF074601464046FDF7C6FF4146064682
:102EE000FDF7C0FF01463846FDF7BCFF314680467E
:102EF0003046FEF7C1F838490746FEF7BDF83749B6
:102F0000FDF7B0FF3946FEF7B7F83549FDF7ACFFDE
:102F10003946FEF7B1F83349FDF7A4FF3946FEF70D
:102F2000ABF83149FDF7A0FF3946FEF7A5F8014699
:102F30003046FDF797FF074601463046FEF79CF8FE
:102F400081464FF080413846FDF78CFF01464846E8
:102F5000FEF746F9414607463046FEF78DF84146F2
:102F6000FDF782FF01463846FDF77CFF3146FDF74D
:102F700079FF01464FF07E50FDF774FF00EBC4531C
:102F8000B3F5000F06DA214619F052FF294613E582
:102F900000247DE71846F9E74FF07E50A9E430465B
:102FA000A7E4B3F1FF4F3FF4E2AC42460225B4F18F
:102FB0007C5F7FF41DAD002FFFF61AAD484607B0C9
:102FC000BDE8F04F29F0B1BA000080FF0072313F38
:102FD0001872313F8CBEBF354CBB31330EEADD3544
:102FE00055B38A38610B363BABAA2A3E002110B597
:102FF0000446074B4FF4C072C0E96011C0E962118A
:10300000C0F89011C0F8943128F00EFF204610BD92
:10301000CDCC4C3E024630B553880178082B28BFF2
:1030200008230B48C1F383010A4C4840604302F176
:103030004901C2F1FF2202F57F02B7325518AB42B7
:1030400000DC30BD11F8015F68406043F6E700BF67
:10305000C59D1C81930100012DE9F04104460D46F8
:103060000746002642F210783B7B3BB17B68EB1AA7
:10307000434503D93146204619F060FF0136182E2A
:1030800007F11007F0D1D4F88C3133B3154AEB1A9D
:10309000934222D9D4F88431FBB1D4F8903123B9CA
:1030A000A5F59C53083BC4F8903141F2873641F2B4
:1030B000883003F51C414031EA1AB2420BD9D4F8EA
:1030C000842142B10344A2EBD2028B42C4F8842192
:1030D000C4F89031F0D1BDE8F0810023C4F89031FC
:1030E000F9E700BFE093040070B50346024600F51F
:1030F000C0766FF00040C1F51C551135147B34B11A
:1031000054682C4424EAE474A04228BF20461032BC
:10311000B242F3D1D3F88C2192B1D3F884417CB17F
:103120000D4C8D1AA5420CD9D3F890312BB1C1F5B5
:103130009C5108310B4423EAE373984228BF184698
:1031400070BDC1F5922101F2E131114421EAE17132
:10315000884228BF0846F3E7E093040010B5D0F892
:103160008831032B26DDD0F88401FDF72DFF4FF0C9
:103170006E51FDF781FF00210446FEF725F9E0B905
:103180004FF081412046FDF76FFE01462046FEF7D5
:1031900027F80B49FDF770FF0A49FDF765FE4FF070
:1031A0007E510446FEF724F910B14FF07E5010BD59
:1031B0002046FCE74FF07C50F9E70248F7E700BFF4
:1031C0009A99193FCDCCCC3E00487047C11D0300F1
:1031D0000048704780EE360030B5C0E91912C3666A
:1031E000012200230E4DC0E90433C0E90633C0E9D3
:1031F0000E33C0E91233C0E90A33C0E90C33C0E929
:103200001533C0E917330560436080F84430036428
:10321000A0F87030036280F82420A0F8503030BD50
:10322000C0D9020070B5B8B001460446684627F020
:10323000CFFE9DF80030013BDBB2FD2B38D8274B89
:1032400028AA03F14006154618685968083303C5D3
:10325000B3422A46F7D1224B08AA03F120061546AD
:1032600018685968083303C5B3422A46F7D108A93C
:1032700020A815F0EFFC214620AA10A827F054FE44
:10328000694620A815F0E6FC20AA28A918A827F06E
:103290004BFE202218A910A81BF0E2F9044658B9E9
:1032A000202110A81BF016FA202118A81BF012FAF2
:1032B0000024204638B070BD002310A911F8012B5E
:1032C0001AB90133202BF9D1144610A820211BF084
:1032D00001FA202118A81BF0FDF9EAE7ACF502007D
:1032E000EDF502002DE9F04F0A78054602F00303E0
:1032F000023B012B0C46F3B070D802F03C06242EA2
:103300000B795BD13F2B1CD84E88082E19D991F828
:103310005270093E07F003029340F6B21FFA83FC95
:10332000664510D801F153020368029201F10A02C6
:10333000CDE9007203961D6ED1F84A20D1F84E30C7
:10334000A847002037E00121533301FA02F200F5CB
:103350000671E01828F07BFD0028F2D12B68214689
:1033600028465B6C98470028EBD0E86F214603683D
:103370001B6898470028E4D1E86F214603685B6822
:10338000984794F90201FDF723FE4FF07A51FDF7BB
:1033900073FE4FF08141FDF76FFEFEF749F8237988
:1033A00021465A1C2344227198722B682846DB6CF4
:1033B000984740F0C06073B0BDE8F08F2C2E03F04A
:1033C0003F030AD191F94A60002E80F2B782002BA8
:1033D000B7D103685B6F9847B3E76BBB10461AF031
:1033E00046FC002840F080802378C3F383020F2A34
:1033F000A7D801A151F822F09335000093350000C1
:103400009335000051350000D337000047370000E6
:1034100047370000C33600009335000043330000F7
:10342000BD38000043330000433300004333000045
:10343000433300008D3800000C2E08D14B88032B3D
:1034400005D90368D1F84A20D3F884309847227907
:1034500005F506719209013204F10A0028F0F7FC23
:1034600000287FF46EAF2B68214628465B6C984796
:1034700000283FF466AF2378C3F383030A2B04D1FB
:10348000214628461AF08BFE5BE7E86F032B0268A3
:103490002146126813D19047064600287FF451AFA9
:1034A000E86F214603685B689847214628461AF072
:1034B0009AFC3246214628461AF01AFE41E7904708
:1034C00000287FF43EAFE86F214603685B689847A9
:1034D000214628461AF087FC2B6821462846DB6CDB
:1034E000984740F0807066E72B68214628461B6CA1
:1034F000984700287FF425AF20781AF0B8FB002801
:103500003FF472AF2046FFF785FD0646A86E05F131
:10351000800703681B68984731460246384619F011
:1035200053FD20B1314628461AF0BBFB5CE72B68FF
:1035300028469B6B984700283FF456AFA86E036857
:103540001B68984731460246384619F017FD4BE78D
:103550006388032B7FF6F5AEE86F21460368D4F845
:103560004A601B68984700287FF4EBAEE86F21465D
:1035700003685B6898472B68324621462846D3F893
:10358000843098472146284673B0BDE8F04F1AF0C2
:103590004ABC94F84B300DF1200A8AF80030638859
:1035A00094F84A70042B7FF6CCAEE86F214603688E
:1035B0001B689847064600287FF4C3AEE86F214693
:1035C00003685B68984795F81832BB4268D12B684E
:1035D000514628465B6D9847814604F14C0B10AF6D
:1035E0000DF1C408B1455BDD2B68324639462846EB
:1035F0009B6D984763885A46023B414638461BF00C
:1036000046F8031E5BDD2278C2F38302082A4CD100
:1036100098F80090079348461AF0FFFE00283FD024
:103620004FEA991109F03F0201FB0222079B501C4F
:10363000834235DD02329B1ADBB242442968039291
:10364000049318F800300DF1C50803F00F03CDE91D
:103650000193CDF80080D1F864B03B463246214654
:103660002846D847D0B120781AF001FBB0B100232A
:10367000CDE9023301932379514600933A46284617
:1036800004F10A031AF068FC014638B14FF4FA73EA
:103690004246009328464B461AF04CFEFF23237007
:1036A000214628461AF0BFFB85E62968CDE901834B
:1036B0000097CF6D334621462846B847EEE70136DE
:1036C00090E76388232B7FF63CAEE86F21460368C2
:1036D00094F84A601B68984700287FF432AEE86F80
:1036E000214603685B68984795F81832B3427FF427
:1036F00049AF04F14B0608AA04F16B071346306882
:103700007168083603C3BE421A46F7D108AA10A949
:1037100005F506701AF05EFA638831AF3246394615
:10372000213B10A81AF0B3FF00287FF72BAF2B68BE
:10373000CDE900702146DE6E284608AB10AAB047DE
:10374000FF2323701EE794F84A3008AF3B7063886C
:10375000032B7FF6F6ADE86F214603681B68984798
:10376000064600287FF4EDADE86F214603680DF1B1
:1037700040095B6898472B683946D3F87C804A46F5
:1037800004232846C047074604F14B0A0DF14108BF
:103790000DF1C40BB74283DD63884046524659465B
:1037A000013B1AF074FF002808F121080FDD2B6897
:1037B0002278CDE900B006EB4616D3F8807021469A
:1037C000284609EB0603C2F38302B84768E70136CF
:1037D000E0E710A81AF0C9F810AE04F14A0304F1AA
:1037E0006A07324618685968083303C2BB42164656
:1037F000F7D16388632B7FF6A4AD202210A905F5CD
:10380000067028F024FB00283FF49BADE86F2146AA
:103810000368D4F86AA01B68984700287FF491AD2C
:10382000E86F0DF1C409036821465B684E4698476E
:10383000B4F8028010AFA8F16408B8F1200FA8BF57
:103840004FF020080FCF0FC697E80F0004F1AE0B22
:1038500086E80F00424659463AA8CDF8E4A028F081
:10386000BDFA4A4608F1240304F16E0110A81AF0CB
:1038700084F800283FF465AD2B68CDE900B82146F7
:103880009E6E2846534610AAB04709E703F003038B
:10389000023B012B3FF655ADE86F214603681B68DC
:1038A000984700287FF44DADE86F214603685B68B8
:1038B00098472B68214628469B6F8CE56288022A30
:1038C0007FF63FAD94F84A3003F00F03032B7FF4EB
:1038D00038AD042A7FF635AD31AE30461AF098FD8A
:1038E000237840228DF8C43004F10A0123790DF1C8
:1038F000CE001AF0B3FD62888DF8C800013A92B28A
:1039000004F14B010DF58770ADF8C62028F066FA7A
:10391000E86F314603681B68984700287FF411ADB3
:10392000E86F314603685B6898472B683146284644
:10393000D3F88430DDF80E21984702E5002B3FF4E0
:103940004DAD84E538B50B4B1C786CB901220A4D9E
:103950001A70002329461A46084801341AF0EBFD74
:10396000202C05F58275F4D10021BDE838400348CC
:103970001AF0BDBDEEAD0020648D00201C5B002060
:10398000014BD3F820017047F8590020014BD3F8C0
:10399000200170471C5B002001481AF0A8BD00BF41
:1039A000F8590020044BD3F820219142BABF2831A6
:1039B00053F8210000207047F8590020054BD3F838
:1039C00020018142BDBF2831012043F82120002081
:1039D000704700BFF859002021B1002302481A4661
:1039E0001AF0A9BD704700BF1C5B00200022FF2019
:1039F00070B50A4BD3F8206103F19C058033B242C5
:103A000000DB70BD55F8044F641A002C03DC9C5C8D
:103A1000A04228BF20460132F1E700BFF85900203C
:103A20002DE9F0470546904699460F4699B31B4E3F
:103A300030461AF080FD044668BBD6F8200118B362
:103A40002146234606F17F0CA04214DC0E4496F872
:103A50008030434518D911481AF049FD2B680146BA
:103A60005B68284698474B4642463946BDE8F047D2
:103A70000A481AF060BD1CF8012F9A4234BF1A465A
:103A8000214613460134DFE72B6839462846BDE856
:103A9000F0475B681847BDE8F08700BFF859002081
:103AA000F0B400230C46FF204FF0FF310E4AD2F84D
:103AB000207102F19C068032BB4205DB4B1C0FD00B
:103AC000F0BC09481AF013BD56F8045F2D1B002DF9
:103AD00004DCD55C85423CBF194628460133EBE740
:103AE0000020F0BC704700BFF859002030B50A4BE9
:103AF0004A1CD3F820510DD0002210469C33AA4214
:103B000000DB30BD53F8044F0132641A002CD8BFDB
:103B10000130F4E72846F4E7F8590020002907DBD4
:103B2000044BD3F82021914202DA53F82100704768
:103B300000207047F859002038B500240D4D281991
:103B400004F582741AF064FCB4F5025FF7D1002426
:103B5000094B214680221846C3F8204128F064F919
:103B6000064B2146C3F820411846BDE83840802264
:103B700028F05AB9648D00201C5B0020F859002001
:103B80002DE9F0430D468DB012F00F01804614462A
:103B90001E469DF8509004D04FF0FF300DB0BDE8A8
:103BA000F083184B142207A8069328F03DF9B9F1C9
:103BB000000F0CBF4FF400734FF48073124F089343
:103BC0001022414604AB06A8099727F029FD0028DA
:103BD000E2D105ABCDE901432A4623463946049894
:103BE0000096B9F1000F09D015F0EEFC04460498D8
:103BF00027F0FAFC002CCFD10598CFE715F080FD17
:103C0000F4E700BF00248000004440042DE9F041A7
:103C100094B007460C4616460021142207A81D46FC
:103C200028F002F94FF48853ADF818304FF4807340
:103C3000ADF81A304FF48063DFF84C802022CDE9D4
:103C40000838394604AB06A827F0EAFC28B14FF043
:103C5000FF34204614B0BDE8F08105AB0293202369
:103C600001930CAB2246009341463346049827F05B
:103C700073FE0446049827F0B7FC002CE7D1BDF88A
:103C800030302B80E5E700BF0900800330B58DB0F0
:103C90000D4611461A4603AB0193202304460093B8
:103CA0000A4804AB27F088FD2A4630B1002120469F
:103CB0000DB0BDE8304028F0B7B8202D28BF202235
:103CC000204604A928F08AF80DB030BD0900000292
:103CD0002DE9F043A7B00446DDE92E890D461646CE
:103CE000002170220AA81F4628F09EF816490AA84B
:103CF00027F013FDE8B93A4631460AA827F02EFD11
:103D0000B8B94A4641460AA827F028FD88B92022BA
:103D100001AB02A90AA827F038FD50B9202D2A4688
:103D2000204628BF202202A928F058F827B0BDE875
:103D3000F0830AA827F0E2FC2A460021204627B09B
:103D4000BDE8F04328F070B80900000208B5054B43
:103D5000002814BF0146194603481EF0B8FD012093
:103D600009F0B6FA0EF602001AF602000346F0B5A4
:103D70000A4D8E18B14203F1020303D1002300F86B
:103D80001230F0BD11F8014B270904F00F04EF5D6C
:103D90002C5D03F8027C03F8014CEBE79320030051
:103DA0002DE9F04105460C46DFF830808F18BC4203
:103DB00001D1BDE8F08114F8016B2B68320918F8C5
:103DC000021028469B6898472B6806F00F06284685
:103DD0009B6818F806109847E9E700BF9320030096
:103DE00010B5046900212046FDF7DAFA00B1014C54
:103DF000204610BD0000E145004870473AF6020039
:103E000008B510460249FDF7EDFB002008BD00BFD4
:103E100048F6020030B50022702113488BB002F042
:103E2000FFFD041E104D19DD22462846691C27F0AF
:103E3000E2FF013C02A802F0BBFE60B16F2C0ADC7D
:103E4000039B0A4A019305AB0093C4F17001029BE6
:103E5000281917F0A3F904480BB030BD28460449CF
:103E6000FDF7C0FB0724E5E7EFAD00207EF602007A
:103E700076F6020037B5124C204625F004F810B94A
:103E8000104803B030BDA5684E212046EB68984726
:103E90000028F5D10C216A4620462B699847002856
:103EA000EED10198FDF794F80749FDF799F904461A
:103EB0000098FDF78DF801462046FCF7D5FFE0E7B6
:103EC00078C902000000C07F002474492DE9F04346
:103ED000804687B02A4F384624F0D5FF18B9002015
:103EE00007B0BDE8F083274C237843B9BB68384658
:103EF0001B68254998470028F1DB01232370002522
:103F000008242E46A9461422002101A8ADF80290EB
:103F100027F08AFF022304936B44039380230293C8
:103F200040F60C03ADF81430BB6815485B6801A976
:103F3000984718B9BDF9023001361D44013CE2D161
:103F4000002ECCD095FBF6F5D8F810600021304655
:103F5000FDF726FA88B93046FDF767FB0C466C433F
:103F6000EB1700FB0344A5FB0030241802D540F6F4
:103F7000FF729B18C3F30F30B2E74FF4E150EEE746
:103F800098C802005FAE00203EDB020070B5044618
:103F90004FF0FF324FF0FF33154812F07DFF25F050
:103FA000FDFA4FF47A75A0FB0506002305FB0161BD
:103FB00047F61222FDF7D2FA0D46D4E90213002B80
:103FC000064608DB721A42F2107165EB03038A425F
:103FD00073F1000305DB2046FFF778FFC4E90265B3
:103FE000E080E488024812F0F9FF204670BD00BF6F
:103FF000A809002008B503681B689847BDE8084079
:10400000014601481CF057BAA8DE020007B5064B6E
:104010008DF8070001220DF10701044802F072FE3D
:1040200003B05DF804FB00BF9BF60200ABF6020094
:1040300073B5124B124C1D7815B1207802B070BDCB
:10404000012610481E701CF00BF80028F5D03246EF
:104050000C4801AB0DF103018DF8035001951CF0E4
:1040600018F838B1019B2BB19DF80330012B08BF24
:104070004C23237003481BF0FEFFDEE761AE0020F7
:1040800060AE0020ABF602004C28024607D055284F
:1040900007D0054B0548002A08BF1846704704485A
:1040A00070470448704700BFB7F6020076F602007A
:1040B000BCF60200C8F6020083B51AF0C5FB1EF07C
:1040C000FCF91BF036FC0621264A27481AF09DFB16
:1040D0000021264A26481AF098FB25F05FFA4FF493
:1040E0007A74A0FB0405002304FB015147F6122259
:1040F000FDF734FA41F288331D4FC418D7F8108009
:1041000041F10005BB681A485B6801A9984790B95E
:10411000D8F80020019B5340DB070CD4154A164BFE
:10412000D2F880100B4043F4403343F00C03C2F844
:1041300080301EF0D9FB25F031FA4FF47A76A0FBDF
:10414000060C47F61222002306FB01C1FDF706FA12
:10415000A042A941E2DA40F23910002113F03AFD01
:10416000D0E700BF01001A0078C70200110001006B
:1041700058C7020000A01050F0F0FCFF3E28024695
:1041800030D016D8142830D00AD80A2830D00F28BA
:1041900031D041F684601F4B072A18BF184670477C
:1041A0001F282BD04AF2C3201A4B292A18BF1846C1
:1041B0007047B0F5FA7F24D00AD8FA2823D0B0F59A
:1041C000C87F22D0134B1448C82A18BF184670471E
:1041D000B0F5487F1BD00F4B1048B2F57A7F18BF5F
:1041E000184670474FF22440704745F261107047FF
:1041F00042F6B100704743F60950704747F6122067
:104200007047074870470748704707487047074896
:10421000704700BF48E80100F818030040420F0053
:1042200020A1070090D00300F0310600E0630C00ED
:1042300070B503690D4693F874301446073B052B9F
:104240002ED8184A52F823603046FDF7D1F838BB13
:104250002046FCF7BDFE4FF06E51FCF70DFF014606
:104260004FF07E50FCF7FEFD314604462846FCF731
:10427000F9FD0D49FCF7B4FF01462046FCF7FCFEB2
:1042800000210446FDF796F850B94FF07E512046C4
:10429000FDF7AEF810B14FF07E5070BD2046FCE740
:1042A0000020FAE7F0DB02000000204170B5044670
:1042B0001AF068FBD4F88039D4F88429054653EA0B
:1042C00002004DD05B1B62EB0102012B72F100007A
:1042D0003EDB6FF00040834272F1000200DA1846C4
:1042E000B4F8683A9BB394F95A3A803314D0D4F8AE
:1042F000602AD4F8646A521B66EB0106012A76F143
:10430000000327DB6FF000439A4276F1000600DAE3
:104310001346984228BF1846D4F8703AD4F8742A45
:1043200053EA02041CD00F4C1B1942F100025B1B24
:1043300062EB0101012B71F100020DDB6FF0004215
:10434000934271F1000109DA984228BF184670BD06
:104350000020C5E70023DCE70023F5E71346F3E779
:104360000020F4E7009749012DE9F04F8BB0044697
:10437000884617461AF0B2FA814638B9394640469F
:10438000684A0BB0BDE8F04F16F008BFD4F89809A2
:10439000002800F091800A236421D4F89C295A4314
:1043A000D4F8A03902EB50024B4303EB5003B2FBAD
:1043B000F0F2B3FBF0F094F8573A04F6A81A27EAA3
:1043C000E771002B7AD194F854CA574D574B94F9A2
:1043D000556ABCF1000F08BF2B460A250590B2FBB9
:1043E000F5F005FB1022CDE9030209EB0602CDE949
:1043F000006240464E4ACDF8089016F0CFFEC72F17
:10440000054640445EDDD4F89C3A791B0393D4F80A
:10441000983A484A0293D4F8943A0193D4F8903ADF
:104420000093D4F8983916F0B9FE054408EB05005E
:10443000791B94F8583A404A16F0B0FE05442046DD
:104440001AF0A2FB014640B9AF4208EB0500C8BF15
:10445000791B3A4A16F0A2FE0A3550461AF0E6FFDA
:10446000834650461AF0F8FF5E45B8BF5E46864266
:10447000B246A8BF82460AF1FF36B345CABF0BF168
:1044800002030AF101035E466FF007028342C4BFD4
:104490000346861E9642B8BF16460C2BA8BF0C23B7
:1044A0004FF0640B099304EBC604099B9E420DDD9B
:1044B00028460BB0BDE8F08F02467CE794F9566AB7
:1044C0001F4B8AE7AF42B3DC0021B2E7B4F8EC2916
:1044D000B4F8F0C91AB353080BFB0C33B3FBF2F377
:1044E0000693B4F8F239BD42CDE904C3B4F8EE390D
:1044F000B8BF791BCDE9022309EB0603CDE90063C0
:10450000A8BF002108EB0500B24514BF20232A23D1
:104510000C4A16F043FE013605440834C5E713463D
:10452000DEE700BFD5F602008F070300180A03007C
:10453000DDF6020003F7020018F7020021F702007F
:1045400086FD02002CF702002DE9F8430025002625
:104550004FF000084FF00009474B484F03608C3381
:10456000436000F51863C0E902714662C0E9045275
:10457000C0E9065505628662C0F85C58C0F860580C
:10458000C0F8745980F87859C0F87C59C3E900899B
:1045900043F69823044680F88859C0F88C39C0F84F
:1045A0009059C0F89459C0F89859C0F89C59C0F86F
:1045B000A059011D00F6A8101AF023FF04F5276387
:1045C000A4F8685AC3E900893B6984F8785A5B1BF0
:1045D00018BF012384F8793A4FF40043C4F87C5A99
:1045E000C4F8805AC4F8845AC4F8885AA4F88C5A7B
:1045F00084F88E5AC4F8905AC4F8945AC4F8985A59
:10460000C4F89C5AC4F8A05AA4F8A43AC4F8A85A0A
:10461000C4F8AC5AA4F8B05AC4F8B45AA4F8CC5AA6
:10462000C4F8D06AC4F8D46AA4F8D85AC4F8DC5ADA
:10463000C4F8E05AC4F8E45AC4F8E85A84F8A05B15
:10464000A4F8A25BC4F8A45BC4F8A85BC4F8AC5B94
:1046500004F6641025F002F90122294604F6883098
:1046600024F03EFD4FF40362294604F12C0027F0AC
:10467000DBFB2046BDE8F88354DB0200B0DE02001D
:1046800008B50346C068B3F8A21B8368002908BFB9
:10469000FF215B68984758B1084B98420BD841F20C
:1046A000883300F5FA704000984238BF184608BDBC
:1046B00041F28830FBE76FF47A70F8E70BFEFF7F7A
:1046C00030B590F8A03B044689B0CBB900F52F6512
:1046D000002000210A22CDE90601CDE90232CDE910
:1046E000004304934FF400622846064B064912F03B
:1046F000F1FF0649284624F005FE012384F8A03B7B
:1047000009B030BDE3EC010048B500204CF70200D1
:104710002DE9F8430C460546174600211422204691
:1047200027F082FB95F8CD3A002B35D0D5F8D00A8A
:10473000D5F8D49A95F8D88A95F8D96A1B49FCF728
:104740009BFCFCF79BFE20604846FCF797FEB31FDE
:1047500080B21AF07AF8022B96BF043E0126F6B218
:10476000B8F1080F8CBF10232023A08084F80680A6
:10477000E67123812B696FF0080293F94C3027739F
:10478000162BA8BF16239342B8BF1346A37240F25C
:1047900002432382BDE8F8832B69986CD3F87890A4
:1047A00093F8748093F87560C8E700BF00247449DB
:1047B00008B590F8CD3A5BB1D0F8D00A0649FCF7BD
:1047C0005BFC4FF07C51FCF74FFBFCF757FE08BD3C
:1047D0000369986CF2E700BF0024744908B590F8AB
:1047E000CD3A63B1D0F8D40A0649FCF745FC4FF046
:1047F0007C51FCF739FBFCF741FE80B208BD036930
:10480000986FF1E70000204102462DE9F0471AF0C9
:10481000C2F992F8CD3A0F460546002B00F0BD8054
:10482000D2F8D49A10461AF0C0F99368044693F867
:10483000008008F10506F6B2B54203D30C2D28BF5F
:104840000C25EEB248465B49FCF7B4FD08B1DFF831
:1048500068914846FCF712FE80B219F0F6FFFFF7A8
:104860008DFC082C28BF082405460120E4B2052C45
:1048700000FA06F038BF0524FCF7AAFB814628465B
:10488000FCF7A2FB4D49FCF7ABFC4C49FCF7F4FBF1
:1048900001464846FCF7A4FC8146B8F1000F01D15F
:1048A000062E7ED9082E4FF000057DD82020FCF77B
:1048B0008FFB4349FCF7D8FA294680462846FCF787
:1048C000D3FA01464046FCF7CFFA4946FCF7D4FB41
:1048D0003C4980464846FCF78BFD002866D04FF0E7
:1048E0007E5A3046FCF774FB06463846FCF770FBF0
:1048F0004FF08241FCF7C0FB4FF081410746304644
:10490000FCF7BAFB01463846FCF7ACFA2E49FCF737
:10491000ABFA4FF08341FCF7A7FA4FF0824107460C
:104920002846FCF7A9FB01463846FCF79BFA51469E
:1049300007465046FCF798FA01463046FCF792FAD3
:104940004FF08141FCF798FB4FF07E510546FCF794
:1049500031FD08B14FF0814529463846FCF740FC4F
:1049600018F016FA05462046FCF732FB2946FCF7FC
:1049700083FB002127F0F3FC4FF08241FCF774FA2F
:104980004946FCF779FB4146FCF76EFA0B49FCF708
:1049900073FBFCF773FDBDE8F0871369D3F87890DB
:1049A00040E74FF07E5581E7102080E74FF0000A86
:1049B00097E700BF0000E0400000FA4200007A44A0
:1049C000000088405A2F863C0000E0412DE9F04766
:1049D00005468AB01AF07FF995F8783A05F118077C
:1049E000002B00F085800022284605A9FFF790FEE5
:1049F0009DF81A40BDF81C60062C8CBF4FF0080AC9
:104A00004FF00C0ABAF1080F0CBF112319239E4274
:104A10007DDDBDF81800FFF7B1FB012102463E48DD
:104A2000A1400023A1FB0001FCF798FDAB68044600
:104A3000DB69002B53D0E868984780460520A6EB39
:104A40004A0909F1FF3904FB09F964220023A9FB93
:104A50000001FCF783FD08F5FA63A9EB00018B4226
:104A6000D5F87C2A3ED20E366643A1EB08018E4271
:104A70000AFB044408D9731CA3EB09030344434411
:104A80005B089C4238BF1C46944203D1D5F8803A5B
:104A90008B4203D0C5F87C4AC5F8801A00261F3423
:104AA000E86846F100031F314FEA541246F1000452
:104AB00086684909766A42EAC36241EAC4615B09D1
:104AC0006409AEB1DFF854C003958DE81210B04709
:104AD00070B922F0E9FB0121C5F8940911E040F218
:104AE000DC58ABE7013203D04FF0FF33C5F87C3A16
:104AF000E8682A46836809495B6998470028E8DA2C
:104B0000002138460AB0BDE8F04719F067BFD5F874
:104B10007C3A0133E7E700BF40420F0099EA010009
:104B200038B5836804469B6A0D46BBB100F6A430D5
:104B300019F005FF034604F6AC3019F000FF1844E5
:104B4000D4F8843A984202D1D4F8883A3BB9C4F8F0
:104B5000840A012D38BF0125C4F8885A38BD084A97
:104B6000CB1A9342FAD994F88E3A072BF6D9A36858
:104B70009B6A0BB1E06898472046FFF727FFE8E7FC
:104B8000BF270900F8B583680446DB6A0F46002B8F
:104B900038D090F8B03A33B1D0F8A83AD0F8AC2A6F
:104BA000CB1A93422ED3D4F8B43A23B14EF65F22F7
:104BB000FB1A934226D9606920B303685B68984763
:104BC00001460546FCF71EFC0646D8B9284627F0E4
:104BD000E9FB0122164B05B2C4F8AC3AB4F9A43A89
:104BE00084F8B02A13F5004FC4F8A87A02D1A4F8CB
:104BF000A45A07E0EB1A002BB8BF5B42042B02DC7F
:104C000084F8B16AF8BD94F8B13A33B943F6982301
:104C100084F8B12AC4F8AC3AF4E7A36884F8B16A1E
:104C2000DB6A0BB1E06898472046FFF7CFFEDEE76E
:104C300080EE360038B504461C3019F080FE98BB73
:104C400020461AF063F978BB19F09CFE054604F67D
:104C5000A43019F074FE034604F6AC3019F06FFE70
:104C6000D4F8842A0344934202D1D4F8883A63B931
:104C70000023C4F8A03A29462046FFF751FF2946F1
:104C80002046BDE83840FFF77DBF084AEB1A934243
:104C9000F1D9D4F8A03A13B1EB1A9342EBD9012D14
:104CA0002B4638BF0123E4E738BD00BFBFD4010065
:104CB0002DE9F843B0F8683A04463BB190F8CD8A44
:104CC000B8F1000F04D0002380F89339BDE8F883D1
:104CD00019F058FED4F8702AD4F8743A0E4652EA05
:104CE000030104F52767054662D1C4F8705A7E6057
:104CF00094F95A3A803315D0D4F8602AD4F8643A3B
:104D0000954276EB03030DDBA36804F6A815596BF7
:104D100011B1E0688847014628461AF073FC28461E
:104D200019F010FF94F89339002BCFD0002384F8AA
:104D3000933994F95A3A8033C8D1204619F024FFA8
:104D40000028C3D094F89239002BBFD020461AF027
:104D5000DDF80028BAD104F6A81948461AF006FC76
:104D6000A36807461B6B83B30146E0689847064675
:104D700019F008FE022E80460D4629D1321E18BFBA
:104D80000122394648461AF025FC022E2BD1204636
:104D900019F0FAFE10EB080045F10005643045F10A
:104DA000000584F85A7AC4F8600AC4F8645A8DE79A
:104DB0000F49AA1A66EB0303914278EB030397DAD3
:104DC00004F6A8101AF0BDFB8FE76FF05706CFE787
:104DD000002104F1180019F001FE2046FFF7F6FD4E
:104DE000002ECBDA72E7484619F0ACFE6EE700BF42
:104DF0000097490170B50D461646042431462846F1
:104E00001EF08DFB48B140F23910002112F0E2FE95
:104E1000013CF3D10148FEF799FF70BD59F702003C
:104E20002DE9F04FDFF8C882ADF5397D04460D4617
:104E3000174600214FF4007238A81E4626F0F4FFF2
:104E400098F8003043B9AB481DF041FD98F80030A8
:104E500013B9A9481DF03BFD402138A81EF05FFBA7
:104E600098F8003081463BB938A81AF00AFD494647
:104E70000246A2481DF02BFD102200210AA826F0B0
:104E8000D3FF10210AA80BF02FFA002301460DF2E0
:104E90001F120DF1280C8B4202DA102B40F0828099
:104EA00098F80030002B40F01F8195481DF00FFD51
:104EB000BFB1B6B1202E314628BF20213A460DF2AF
:104EC0002F137E1812F8010B13F8017FB24280EA0B
:104ED00007001870F6D198F8003043B989481DF0E2
:104EE000F6FC98F8003013B987481DF0F0FC40211B
:104EF00094A81EF014FB98F80030064673B994A8E5
:104F00001AF0BFFC3146024680481DF0E0FC98F8DC
:104F100000301BB929467E481DF0D9FC24AF3A4623
:104F20007C4B03F1180C164618685968083303C601
:104F300063453246F7D1186899889B7931223060F1
:104F4000B180B371002107F11F0026F06DFF00232F
:104F5000079314F073FC20230DF11C0A0093804684
:104F60004FF400726C48CDF804A01CAB38A926F0B1
:104F700023FC064620B9DAF80090B9F1200F1AD0C8
:104F800020211CA819F0A6FBCDF80480DAF8003027
:104F90005021009338463346604A16F0FFF824A8A3
:104FA000FEF7D4FE12F801EF1CF8010B013380EA82
:104FB0000E0010706FE70146142217A826F034FF88
:104FC0004FF41053ADF858304FF48073544A0DF13C
:104FD000200ACDE91832ADF85A301CA953464A468A
:104FE00016A8CAF8006026F01BFB064649461CA816
:104FF00019F070FB46B1334650213846494ACDF886
:10500000008016F0CBF8CAE7102231460EA826F031
:105010000BFF37460DF1240BBD42DAF800001ED914
:105020000023CBF8003010230DF1480901930EAA9C
:105030003B49CDF808B0CDF8009014F0C5FADBF884
:105040000020034608B9102A1BD000925021CDE958
:105050000178354A24A816F0A1F84FF0FF360898D9
:1050600026F0C2FA10210EA819F034FB002E96D1BA
:10507000012319462544AC421DD101B93BB32B484D
:105080008EE7EA1B102A28BF1022E0194946059234
:1050900026F0A4FE059A17444A4612F8013D013352
:1050A000DBB2137013B90EAB9A42F6D11021484609
:1050B00019F010FBB0E714F8012B32B1FF2A14BF2E
:1050C000002303F001030021D5E71346D3E738A8F6
:1050D0004FF4007119F0FEFA10210AA819F0FAFA3B
:1050E0000DF5397DBDE8F08F002F7FF4E2AEFEE6CE
:1050F00062AE00207AF702009EF70200E6F7020097
:1051000015F8020056F8020078F80200C5F802000F
:10511000F4F80200E5F90200090000022DF902008E
:10512000004440045BF9020086F90200BAF902006B
:10513000002330B5044689B01A4620216846FFF79F
:105140006FFE6946204618F02EFC65252378013B4A
:10515000DBB2FD2B05D82021684619F0BBFA09B057
:1051600030BD013D02D10748FEF7F0FD002368463F
:105170001A462021FFF754FE6946204618F013FC1A
:10518000E4E700BF04FA0200084B1B7853B9084B50
:105190001B784BB9074B08481A78084B002A18BFF0
:1051A0001846704704487047044870476AAE0020AC
:1051B0006DAE00206CAE0020E0930400C0D401006E
:1051C00002221A4B70B51A700022194B1A70194B33
:1051D0001A780AB901221A70012000F0A7FC0121F7
:1051E0000024084600F0BAFC134B47F612221C704C
:1051F0001248002312F008FA114B1B68ABB1FFF7FD
:10520000C3FF2146054647F6122440F2E7304FF42B
:105210007A720023E5FB0401FCF7A0F9BDE87040B9
:1052200002460B46074812F0BBB970BD6FAE0020B6
:105230006EAE002063AE002069AE0020600000204A
:10524000A802002090000020044BD3E8EF1F014388
:10525000C3E8E21F002AF8D1704700BF485C002075
:1052600010B5064B1878022807D1FFF7EDFF044B65
:105270001B6813B1BDE81040184710BD6FAE002089
:105280004C5C002010B5084B1B785BB1074B1878BD
:10529000012807D1FFF7D8FF054B1B6813B1BDE804
:1052A0001040184710BD00BF71AE00206FAE002047
:1052B0004C5C002010B5074B1B78022B08D1102046
:1052C000FFF7C2FF044B1B6813B1BDE8104018473D
:1052D00010BD00BF6FAE00204C5C002010B50C4C20
:1052E000D0E90023C4E90023D0E90223D0E90C016E
:1052F000C4E9022304F1100383E803001AF0D9FA89
:10530000C4E906010820BDE81040FFF79DBF00BFBB
:10531000380A002008B5064823F0DBFF054BD3E828
:10532000EF1F21F01001C3E8E21F002AF7D108BDEA
:1053300060000020485C002002460B46014811F046
:10534000ABBD00BF80090020014811F047BE00BF7F
:10535000800900202DE9F041514B0C461B78002BB1
:1053600000F09B804F4E3378012B00F096804FF079
:10537000FF304FF0FF31FFF7DFFF94F82C20002AB9
:1053800073D0D4E90001D4E9022342EA000543EADC
:1053900001073D430CD13378022B05D1424B1B78DA
:1053A00013B10022404B1A70BDE8F041FFF7CCBFAB
:1053B00001273E4DC5E90223A369C5E900012B6120
:1053C000238CAF75AB821AF074FA04F13003C5E98F
:1053D000060103CB3378364A022B10605160E3D1CB
:1053E000238C032BDDD9304D2B783B44DBB2022BD1
:1053F0002B70D9D92F4B1E682F4B93F800801F704C
:105400002E4B1F701AF055FA2D4BC3E900019EB1C7
:105410002C4823F05EFF002320462B70FFF75EFF31
:105420000420FFF711FFFFF78FFF274B1B68002BAE
:1054300033D0BDE8F04118472E70244DB8F1000F6D
:105440000BD01AF036FAD5E90032C01A204B61EBC6
:105450000201834276EB0101A6DA1AF02AFAC5E9C5
:1054600000012046FFF73AFFDDE73378022B9BD19E
:105470000D4B197801B11A701AF01BFA42F210752F
:10548000144BD3E90042041B61EB0202AC4272F1FF
:10549000000289DBC3E9000186E7BDE8F08100BFB7
:1054A00071AE00206FAE00206EAE0020780A0020A2
:1054B000E4AD0020A80200206DAE00206BAE0020FD
:1054C000700A0020900000204C5C0020580A002048
:1054D000BFD40100300A00202DE9FF4100236C46B3
:1054E0000126204D00938DF8043002938DF80C3086
:1054F00001EBC20291421ED14FF0FF304FF0FF315D
:10550000FFF71AFF0025184FDFF8608002AE16F88B
:10551000013B33B1635D08F805301AF0CAF9C7E9F9
:1055200000010135052D07F10807F0D104B0BDE8F1
:10553000F041FFF709BF8B79C879013BDBB2072B3C
:105540008CBF0423EB56C00703F110036B4448BF24
:1055500013F8100C03F8086C44BF013003F8100C6A
:105560000831C7E7A4200300080A002064AE002029
:1055700070B52C482C4C206023F085FC0146D0B936
:1055800001201AF0D5F943F6095000211AF0C6F9A6
:1055900003261AF0FCF9206823F06CFC10B3783075
:1055A00020D040F6354000211AF0B8F90020013E25
:1055B00026D00028EDD00121206808F013F803253B
:1055C00058B110F1780F04D010F1580F01D0013DFF
:1055D0001DD120F02000783016D10122134B00207D
:1055E0001A7013E03225206823F04DFC0028DED12C
:1055F00040F2391000211AF091F9013DF3D1D5E7BD
:105600000028D8D11AF0C3F96FF0120070BD40F62F
:10561000354000211AF082F90121206807F0E2FFED
:10562000CEE700BF18C90200405C002070AE002029
:10563000014B1860704700BF505C0020014B1860A0
:10564000704700BF4C5C0020F8B54FF0FF310446B6
:105650004FF0FF30FFF770FE1AF02BF947F2315C84
:105660000C4B0D4F661E0434D3E90052451B61EB11
:105670000202654572F10002ACBF00223A7808339D
:1056800006F8012FA64207F10107EDD1BDE8F84069
:10569000FFF75ABE080A002064AE0020014B1878BC
:1056A000704700BF70AE0020014B1878704700BFF4
:1056B00071AE002010B5074B04461B7843B138B9D2
:1056C000014600F04BFA204600F030FA024B1C7005
:1056D00010BD00BF70AE00206FAE0020024B1B78E3
:1056E0000BB1024B1870704770AE00206AAE0020FC
:1056F00070B5204B04461B78002B39D01E4B1A780E
:10570000824235D0187050B1FFF75AFD00F022FBED
:105710001A4B1B6863B32046BDE870401847184811
:1057200023F0D7FD174823F0D4FDFFF7F3FD012147
:10573000204600F013FA204600F0F8F9124B1A78D0
:1057400002B11C700025114B4FF0FF301D70104B43
:105750004FF0FF311D70FFF7EFFD0E4B9D82FFF7FD
:10576000F3FD0D4B1D700D4B1D700D4B1D70CFE7E4
:1057700070BD00BF70AE002071AE0020545C0020F0
:10578000C00000209000002063AE00206FAE00201B
:105790006EAE0020780A00206DAE00206CAE0020B6
:1057A0006BAE0020034B18684FF47A73B0FBF3F034
:1057B000704700BFA802002070B5044630B12E4BE0
:1057C000984228BF1C460A2C38BF0A244FF47A732B
:1057D00063432A4E33602A4B1B78002B4BD0294B56
:1057E0001D78022D1FD128481CB9BDE8704023F058
:1057F00070BD23F06CFD014600283CD1FFF7C4FCCE
:1058000047F61225044640F2E7304FF47A7200233F
:10581000E4FB0501FBF7A2FE0B4602461A48BDE871
:10582000704011F0F1BE012D25D1184823F051FD33
:1058300044B92846FFF708FD154B1B68DBB1BDE8EE
:10584000704018471AF035F8124B47F61225C3E995
:105850000001002140F2E73034680F4B4FF47A72B8
:10586000C3E900410023E4FB0501FBF777FE024694
:105870000B460648D3E770BD803A0900A802002015
:1058800071AE00206FAE002090000020C00000200C
:105890004C5C0020680A0020600A002038B50B4DDF
:1058A0002C787CB11AF005F8094AD2E90032C01A06
:1058B0004FF0000361EB0201064A824273EB0101E3
:1058C00001DA2B700024204638BD00BF6BAE0020EB
:1058D000700A002000DD6D0070B50E4D04464FF0DB
:1058E000FF314FF0FF30FFF727FDAE7D4EB10FCDFA
:1058F0000FC495E80F0084E80F00FFF725FD304640
:1059000070BDFFF721FD20223146204626F08CFA9B
:10591000F5E700BF780A002010B5164B1B7843B39B
:10592000154B1B782BB3154B1B78012B06D1144854
:1059300023F0CFFCBDE81040FFF742BC022B18D18A
:10594000104B1B68ABB1FFF71FFC0021044647F664
:10595000122C40F2E7304FF47A720023E4FB0C0182
:10596000FBF7FCFDBDE8104002460B46064811F06F
:105970004BBE10BD70AE002071AE00206FAE002097
:10598000C0000020A802002090000020002370B575
:10599000244EC0F80130C0F8053083603378224DC2
:1059A0000370224B04469B8A4380D5E90023012AD9
:1059B00073F100032CDB19F07CFFD5E90035C01A28
:1059C0004FF47A724FF0000361EB0501FBF776FDAF
:1059D00033786060012B20D1154BD3E9005155EA93
:1059E000010314D0134AD2E90036ED1841EB060644
:1059F00019F05FFF281A66EB0101012871F100031D
:105A000009DB4FF47A720023FBF758FDA06070BDEC
:105A10004FF0FF30DCE70020F8E7022B04BF002343
:105A2000A360F4E76FAE0020700A0020780A00201F
:105A3000600A0020680A00202DE9F04705460C4660
:105A400094B0002951D04FF0FF304FF0FF31FFF7F5
:105A500073FC2A4E2A4B09AF93F816A0B3F81490A2
:105A6000FFF772FCD6E90023012A73F100033FDB44
:105A700019F01FFF33680B21C31A224A384615F06C
:105A80008DFB0CAE10220021304626F0CDF91E4BC6
:105A90003BB10AF0E9F9102103461C4A304615F0E3
:105AA0007DFB0DF1400810220021404626F0BCF994
:105AB000174B10211B68174A404615F06FFB164B19
:105AC000164A1B78CDF81880126821460592144AB0
:105AD00028461268CDE9019ACDE903729A1E534215
:105AE000534100960F4A15F059FB14B0BDE8F087FA
:105AF00038460D49FBF776FDC3E700BF700A00206A
:105B0000780A00203CFA020069FE000030FA020028
:105B1000445C002038FA02006FAE0020585C002080
:105B20005C5C002040FA02002AFA020038B50A4BF9
:105B300004461D68284623F0A6F960B14CB99D20A3
:105B4000002112F047F821462846BDE8384007F00A
:105B500049BD0121F8E738BD8CDC020007B598B1DA
:105B6000134A012113680DF1070001331360FF236D
:105B70008DF8073000F024F841F66A00002112F099
:105B800029F803B05DF804FB0A4A0F2113680A489C
:105B90000133136000F014F840F21B60002112F092
:105BA00019F81821054803B05DF804EB00F008B8B7
:105BB0005C5C0020585C0020C4200300AC20030083
:105BC000F8B504460D460D4823F05DF968B10B4F5A
:105BD0006619B4420AD10A4B1B7833B1094BDA7803
:105BE0000132DA709A8815449D80F8BD14F8011BC3
:105BF000BB6802485B689847EBE700BFD8C7020064
:105C000072AE0020980A00200022F0B53E4B8DB005
:105C1000DA709A8001233D4C4FF4FA713C482370AE
:105C200019F09CFE78213B4819F098FE78213A48FB
:105C300019F094FE7821394819F090FE4FF4FA716A
:105C4000374819F08BFE7821364819F087FE782105
:105C5000354819F083FE4FF4FA721C21334819F0CD
:105C600069FE7821324819F079FE7821314819F01F
:105C700075FE7821304819F071FE78221C212F48DA
:105C800019F058FE4FF4FA723C212D4819F052FEDB
:105C900001AA16462B4B03F12807154618685968C8
:105CA000083303C5BB422A46F7D1186803230022F4
:105CB00028608DF80A30022310468DF80C30F15C14
:105CC0000133014452FA81F22A2BC8B2D2B2F6D182
:105CD0008DF82E008DF82F20304678222C2119F0D7
:105CE00029FE78223021184819F024FE7822152147
:105CF000164819F01FFE7821154819F02FFE0023D1
:105D000023700DB0F0BD00BF980A002072AE0020D5
:105D10006B220300592203004922030022220300C0
:105D20001322030004220300F52103007121030064
:105D3000C9210300AB2103008D21030019210300B9
:105D40003521030054D40200E9200300D4200300CD
:105D5000E7210300F8B5144B1B7823B3134E3378B7
:105D60000BBB134B1B68F3B1124C237813F0FD0FE0
:105D700017D142F29F40002111F02CFF0223237023
:105D800023F00CFC4FF47A75A0FB050747F61222AE
:105D9000002305FB0171FBF7E1FBC4E90201FFF7FA
:105DA00033FF01233370F8BD74AE002073AE0020C2
:105DB000405C0020980A0020F8B5254E3378002B6F
:105DC00042D1244F386800283ED083689B6903BBCA
:105DD0006FF05704204D6C7023F0E0FB4FF47A7C99
:105DE000A0FB0C0E47F6122200230CFB01E1FBF78F
:105DF000B5FBC5E90201DCB901232B703868836863
:105E00009B6813B34FF47A7198470123A8703370DD
:105E10001AE00F21984710F1160F0446DAD13868BE
:105E200083689B69002BD3D00B2198470446D1E7A8
:105E300014F1580F01D0863404D102232B70FFF7E0
:105E4000E3FEDBE701232B70F8BD6FF05700DCE7C2
:105E500073AE0020405C0020980A0020F8B50E4B7D
:105E600004461B78022B0BBF062503250B4B0C4B5E
:105E7000A84201D30020F8BD53F8306003EBC007FF
:105E80003046FBF7B7FB013401463046FFF798FE7A
:105E9000AC42EFD2B888EEE7980A002044DC02005A
:105EA00074DC0200034B187010B10022024B1A7010
:105EB000704700BF74AE002073AE00202DE9F0479C
:105EC000514F064697F800800D46B8F1030FDFF8F2
:105ED0003C918EB000F28880B8F1000F77D04C4B27
