:10000000F8030320ED02010079D80300D9020100B2
:10001000D9020100D9020100D9020100D902010070
:1000200000000000000000000000000025030100A7
:10003000D902010000000000F5040100D90201000E
:1000400075050100750501007505010075050100C4
:1000500075050100750501007505010075050100B4
:1000600075050100750501007505010075050100A4
:100070007505010075050100750501007505010094
:100260007505010075050100BD2602007505010038
:100270007505010075050100750501007505010092
:100280007505010075050100750501007505010082
:100290007505010075050100750501007505010072
:1002A0007505010075050100750501007505010062
:1004800081F0004102E000BF83F0004330B54FEA45
:1004900041044FEA430594EA050F08BF90EA020FB2
:1004A0001FBF54EA000C55EA020C7FEA645C7FEA45
:1004B000655C00F0E2804FEA5454D4EB5555B8BF68
:1004C0006D420CDD2C4480EA020281EA030382EAD9
:1004D000000083EA010180EA020281EA0303362D6B
:1004E00088BF30BD11F0004F4FEA01314FF4801C3E
:1004F0004CEA113102D0404261EB410113F0004F50
:100500004FEA03334CEA133302D0524263EB430306
:1005100094EA050F00F0A780A4F10104D5F1200EA4
:100520000DDB02FA0EFC22FA05F2801841F10001FF
:1005300003FA0EF2801843FA05F359410EE0A5F1D3
:1005400020050EF1200E012A03FA0EFC28BF4CF004
:10055000020C43FA05F3C01851EBE37101F00045BA
:1005600007D54FF0000EDCF1000C7EEB00006EEBC7
:100570000101B1F5801F1BD3B1F5001F0CD3490851
:100580005FEA30004FEA3C0C04F101044FEA4452A8
:1005900012F5800F80F09A80BCF1004F08BF5FEA2F
:1005A000500C50F1000041EB045141EA050130BD0F
:1005B0005FEA4C0C404141EB0101013C28BFB1F521
:1005C000801FE9D291F0000F04BF01460020B1FA6C
:1005D00081F308BF2033A3F10B03B3F120020CDA3F
:1005E0000C3208DD02F1140CC2F10C0201FA0CF01D
:1005F00021FA02F10CE002F11402D8BFC2F1200C82
:1006000001FA02F120FA0CFCDCBF41EA0C01904037
:10061000E41AA2BF01EB0451294330BD6FEA040480
:100620001F3C1CDA0C340EDC04F11404C4F120026B
:1006300020FA04F001FA02F340EA030021FA04F37D
:1006400045EA030130BDC4F10C04C4F1200220FAD4
:1006500002F001FA04F340EA0300294630BD21FA12
:1006600004F0294630BD94F0000F83F4801306BFD8
:1006700081F480110134013D4EE77FEA645C18BFCC
:100680007FEA655C29D094EA050F08BF90EA020F63
:1006900005D054EA000C04BF1946104630BD91EA5B
:1006A000030F1EBF0021002030BD5FEA545C05D15E
:1006B0004000494128BF41F0004130BD14F580049D
:1006C0003CBF01F5801130BD01F0004545F0FE4111
:1006D00041F470014FF0000030BD7FEA645C1ABF46
:1006E000194610467FEA655C1CBF0B46024650EA7D
:1006F000013406BF52EA033591EA030F41F40021A9
:1007000030BD00BF90F0000F04BF0021704730B52E
:100710004FF4806404F132044FF000054FF0000103
:1007200050E700BF90F0000F04BF0021704730B5C4
:100730004FF4806404F1320410F0004548BF404299
:100740004FF000013EE700BF42004FEAE2014FEAEE
:1007500031014FEA02701FBF12F07F4393F07F4FC9
:1007600081F06051704732F07F4208BF704793F0CC
:100770007F4F04BF41F40021704730B54FF46074DF
:1007800001F0004521F000411CE700BF50EA0102E2
:1007900008BF704730B54FF000050AE050EA01028B
:1007A00008BF704730B511F0004502D5404261EBFB
:1007B00041014FF4806404F132045FEA915C3FF43C
:1007C000D8AE4FF003025FEADC0C18BF03325FEAD9
:1007D000DC0C18BF033202EBDC02C2F1200300FA8A
:1007E00003FC20FA02F001FA03FE40EA0E0021FAAF
:1007F00002F11444BDE600BF70B54FF0FF0C4CF49D
:10080000E06C1CEA11541DBF1CEA135594EA0C0F4E
:1008100095EA0C0F00F0DEF82C4481EA030621EA89
:100820004C5123EA4C5350EA013518BF52EA0335C4
:1008300041F4801143F4801338D0A0FB02CE4FF076
:100840000005E1FB02E506F00042E0FB03E54FF0A6
:100850000006E1FB03569CF0000F18BF4EF0010E9E
:10086000A4F1FF04B6F5007F64F5407404D25FEA9A
:100870004E0E6D4146EB060642EAC62141EA55514D
:100880004FEAC52040EA5E504FEACE2EB4F1FD0C8F
:1008900088BFBCF5E06F1ED8BEF1004F08BF5FEA0D
:1008A000500E50F1000041EB045170BD06F00046BF
:1008B00046EA010140EA020081EA0301B4EB5C046C
:1008C000C2BFD4EB0C0541EA045170BD41F4801164
:1008D0004FF0000E013C00F3AB8014F1360FDEBF89
:1008E000002001F0004170BDC4F10004203C35DA65
:1008F0000C341BDC04F11404C4F1200500FA05F3E8
:1009000020FA04F001FA05F240EA020001F0004288
:1009100021F0004110EBD37021FA04F642EB0601FE
:100920005EEA430E08BF20EAD37070BDC4F10C0428
:10093000C4F1200500FA04F320FA05F001FA04F2EC
:1009400040EA020001F0004110EBD37041F10001D8
:100950005EEA430E08BF20EAD37070BDC4F12005E3
:1009600000FA05F24EEA020E20FA04F301FA05F24B
:1009700043EA020321FA04F001F0004121FA04F2F3
:1009800020EA020000EBD3705EEA430E08BF20EAC3
:10099000D37070BD94F0000F0FD101F000464000FD
:1009A00041EB010111F4801F08BF013CF7D041EA7F
:1009B000060195F0000F18BF704703F00046520083
:1009C00043EB030313F4801F08BF013DF7D043EA54
:1009D0000603704794EA0C0F0CEA135518BF95EA0A
:1009E0000C0F0CD050EA410618BF52EA4306D1D191
:1009F00081EA030101F000414FF0000070BD50EAB0
:100A0000410606BF1046194652EA430619D094EA39
:100A10000C0F02D150EA013613D195EA0C0F05D123
:100A200052EA03361CBF104619460AD181EA030177
:100A300001F0004141F0FE4141F470014FF000002F
:100A400070BD41F0FE4141F4780170BD70B54FF0CA
:100A5000FF0C4CF4E06C1CEA11541DBF1CEA13554A
:100A600094EA0C0F95EA0C0F00F0A7F8A4EB05042C
:100A700081EA030E52EA03354FEA013100F0888023
:100A80004FEA03334FF0805545EA131343EA1263EC
:100A90004FEA022245EA111545EA10654FEA0026A1
:100AA0000EF000419D4208BF964244F1FD0404F55A
:100AB000407402D25B084FEA3202B61A65EB0305B6
:100AC0005B084FEA32024FF480104FF4002CB6EB73
:100AD000020E75EB030E22BFB61A754640EA0C00F3
:100AE0005B084FEA3202B6EB020E75EB030E22BF33
:100AF000B61A754640EA5C005B084FEA3202B6EB74
:100B0000020E75EB030E22BFB61A754640EA9C0032
:100B10005B084FEA3202B6EB020E75EB030E22BF02
:100B2000B61A754640EADC0055EA060E18D04FEAC0
:100B3000051545EA16754FEA06164FEAC30343EA60
:100B400052734FEAC2025FEA1C1CC0D111F4801F2D
:100B50000BD141EA00014FF000004FF0004CB6E726
:100B600011F4801F04BF01430020B4F1FD0C88BFC5
:100B7000BCF5E06F3FF6AFAEB5EB030C04BFB6EBD0
:100B8000020C5FEA500C50F1000041EB045170BDC3
:100B90000EF0004E4EEA113114EB5C04C2BFD4EBF0
:100BA0000C0541EA045170BD41F480114FF0000E74
:100BB000013C90E645EA060E8DE60CEA135594EAF0
:100BC0000C0F08BF95EA0C0F3FF43BAF94EA0C0FF3
:100BD0000AD150EA01347FF434AF95EA0C0F7FF468
:100BE00025AF104619462CE795EA0C0F06D152EABC
:100BF00003353FF4FDAE1046194622E750EA4106A0
:100C000018BF52EA43067FF4C5AE50EA41047FF4B0
:100C10000DAF52EA43057FF4EBAE12E74FF0FF3C15
:100C200006E000BF4FF0010C02E000BF4FF0010CE6
:100C30004DF804CD4FEA410C7FEA6C5C4FEA430C5F
:100C400018BF7FEA6C5C1BD001B050EA410C0CBFAE
:100C500052EA430C91EA030F02BF90EA020F002010
:100C6000704710F1000F91EA030F58BF994208BF77
:100C700090422CBFD8176FEAE37040F00100704734
:100C80004FEA410C7FEA6C5C02D150EA013C07D18B
:100C90004FEA430C7FEA6C5CD6D152EA033CD3D0D6
:100CA0005DF8040B704700BF8446104662468C46D0
:100CB0001946634600E000BF01B5FFF7B7FF002803
:100CC00048BF10F1000F01BD4DF808EDFFF7F4FF2C
:100CD0000CBF012000205DF808FB00BF4DF808EDB7
:100CE000FFF7EAFF34BF012000205DF808FB00BFDA
:100CF0004DF808EDFFF7E0FF94BF012000205DF8FC
:100D000008FB00BF4DF808EDFFF7CEFF94BF0120B0
:100D100000205DF808FB00BF4DF808EDFFF7C4FFA9
:100D200034BF012000205DF808FB00BF4FEA4102FC
:100D300012F5001215D211D56FF47873B3EB62522D
:100D400012D94FEAC12343F0004343EA505311F054
:100D5000004F23FA02F018BF404270474FF00000E6
:100D6000704750EA013005D111F0004008BF6FF024
:100D7000004070474FF00000704700BF4A0011D29A
:100D800012F5001211D20DD56FF47873B3EB6252E5
:100D90000ED44FEAC12343F0004343EA505323FAF1
:100DA00002F070474FF00000704750EA013002D166
:100DB0004FF0FF3070474FF0000070474FEA41029C
:100DC000B2F1E04324BFB3F5001CDCF1FE5C0DD9A9
:100DD00001F0004C4FEAC0024CEA5070B2F1004FF3
:100DE00040EB830008BF20F00100704711F0804FF6
:100DF00021D113F13872BCBF01F00040704741F4BB
:100E000080114FEA5252C2F11802C2F1200C10FABE
:100E10000CF320FA02F018BF40F001004FEAC123A2
:100E20004FEAD32303FA0CFC40EA0C0023FA02F346
:100E30004FEA4303CCE77FEA625307D150EA01331C
:100E40001EBF4FF0FE4040F44000704701F00040EC
:100E500040F0FE4040F40000704700BF80F00040CA
:100E600002E000BF81F0004142001FBF5FEA410382
:100E700092EA030F7FEA226C7FEA236C6AD04FEA82
:100E80001262D2EB1363C1BFD218414048404140C7
:100E9000B8BF5B42192B88BF704710F0004F40F479
:100EA000000020F07F4018BF404211F0004F41F495
:100EB000000121F07F4118BF494292EA030F3FD061
:100EC000A2F1010241FA03FC10EB0C00C3F1200374
:100ED00001FA03F100F0004302D5494260EB400003
:100EE000B0F5000F13D3B0F1807F06D340084FEA6E
:100EF000310102F10102FE2A51D2B1F1004F40EB63
:100F0000C25008BF20F0010040EA030070474900CA
:100F100040EB0000013A28BFB0F5000FEDD2B0FA67
:100F200080FCACF1080CB2EB0C0200FA0CF0AABF8A
:100F300000EBC25052421843BCBFD0401843704728
:100F400092F0000F81F4000106BF80F4000001322E
:100F5000013BB5E74FEA41037FEA226C18BF7FEA05
:100F6000236C21D092EA030F04D092F0000F08BF47
:100F70000846704790EA010F1CBF0020704712F02E
:100F80007F4F04D1400028BF40F00040704712F16D
:100F900000723CBF00F50000704700F0004343F0D2
:100FA000FE4040F4000070477FEA226216BF084608
:100FB0007FEA23630146420206BF5FEA412390EACB
:100FC000010F40F4800070474FF0000304E000BFC1
:100FD00010F0004348BF40425FEA000C08BF704772
:100FE00043F0964301464FF000001CE050EA010236
:100FF00008BF70474FF000030AE000BF50EA01024B
:1010000008BF704711F0004302D5404261EB410137
:101010005FEA010C02BF84460146002043F0B6435C
:1010200008BFA3F18053A3F50003BCFA8CF2083A81
:10103000A3EBC25310DB01FA02FC634400FA02FC8A
:10104000C2F12002BCF1004F20FA02F243EB020091
:1010500008BF20F00100704702F1200201FA02FCF3
:10106000C2F1200250EA4C0021FA02F243EB0200E6
:1010700008BF20EADC7070474FF0FF0C1CEAD0522A
:101080001EBF1CEAD15392EA0C0F93EA0C0F6FD0EB
:101090001A4480EA010C400218BF5FEA41211ED0C9
:1010A0004FF0006343EA501043EA5111A0FB0131B5
:1010B0000CF00040B1F5000F3EBF490041EAD3718A
:1010C0005B0040EA010062F17F02FD2A1DD8B3F106
:1010D000004F40EBC25008BF20F00100704790F075
:1010E000000F0CF0004C08BF49024CEA502040EAC7
:1010F00051207F3AC2BFD2F1FF0340EAC25070478D
:1011000040F400004FF00003013A5DDC12F1190FCA
:10111000DCBF00F000407047C2F10002410021FA3C
:1011200002F1C2F1200200FA02FC5FEA310040F154
:10113000000053EA4C0308BF20EADC70704792F0CD
:10114000000F00F0004C02BF400010F4000F013A05
:10115000F9D040EA0C0093F0000F01F0004C02BF00
:10116000490011F4000F013BF9D041EA0C018FE76F
:101170000CEAD15392EA0C0F18BF93EA0C0F0AD075
:1011800030F0004C18BF31F0004CD8D180EA01009B
:1011900000F00040704790F0000F17BF90F0004F34
:1011A000084691F0000F91F0004F14D092EA0C0F16
:1011B00001D142020FD193EA0C0F03D14B0218BFA9
:1011C000084608D180EA010000F0004040F0FE40EF
:1011D00040F40000704740F0FE4040F4400070478B
:1011E0004FF0FF0C1CEAD0521EBF1CEAD15392EA0A
:1011F0000C0F93EA0C0F69D0A2EB030280EA010CFA
:1012000049024FEA402037D04FF0805343EA111192
:1012100043EA10130CF000408B4238BF5B0042F1F0
:101220007D024FF4000C8B4224BF5B1A40EA0C0095
:10123000B3EB510F24BFA3EB510340EA5C00B3EBC7
:10124000910F24BFA3EB910340EA9C00B3EBD10FB5
:1012500024BFA3EBD10340EADC001B0118BF5FEA07
:101260001C1CE0D1FD2A3FF650AF8B4240EBC25030
:1012700008BF20F0010070470CF0004C4CEA5020F1
:101280007F32C2BFD2F1FF0340EAC250704740F440
:1012900000004FF00003013A37E792F0000F00F032
:1012A000004C02BF400010F4000F013AF9D040EAB0
:1012B0000C0093F0000F01F0004C02BF490011F444
:1012C000000F013BF9D041EA0C0195E70CEAD1533C
:1012D00092EA0C0F08D142027FF47DAF93EA0C0F23
:1012E0007FF470AF084676E793EA0C0F04D14B0207
:1012F0003FF44CAF08466EE730F0004C18BF31F0B9
:10130000004CCAD130F000427FF45CAF31F00043B2
:101310007FF43CAF5FE700BF4FF0FF3C06E000BF4B
:101320004FF0010C02E000BF4FF0010C4DF804CD6E
:101330004FEA40024FEA41037FEA226C18BF7FEA7E
:10134000236C11D001B052EA530C18BF90EA010F80
:1013500058BFB2EB030088BFC81738BF6FEAE1700F
:1013600018BF40F0010070477FEA226C02D15FEAAB
:10137000402C05D17FEA236CE4D15FEA412CE1D017
:101380005DF8040B704700BF844608466146FFE7DE
:101390000FB5FFF7C9FF002848BF10F1000F0FBDC0
:1013A0004DF808EDFFF7F4FF0CBF012000205DF8B9
:1013B00008FB00BF4DF808EDFFF7EAFF34BF01203E
:1013C00000205DF808FB00BF4DF808EDFFF7E0FFD7
:1013D00094BF012000205DF808FB00BF4DF808ED28
:1013E000FFF7D2FF94BF012000205DF808FB00BF8B
:1013F0004DF808EDFFF7C8FF34BF012000205DF86D
:1014000008FB00BF4FEA40024FEA41037FEA226C2B
:1014100002D15FEA402C08D17FEA236C02D15FEA57
:10142000412C02D14FF0000070474FF0010070478F
:101430004FEA4002B2F1FE4F0FD34FF09E03B3EBE1
:1014400012620DD94FEA002343F0004310F0004F21
:1014500023FA02F018BF404270474FF00000704777
:1014600012F1610F01D1420205D110F0004008BF16
:101470006FF0004070474FF00000704742000ED2FE
:10148000B2F1FE4F0BD34FF09E03B3EB126209D4BF
:101490004FEA002343F0004323FA02F070474FF075
:1014A0000000704712F1610F01D1420202D14FF0EA
:1014B000FF3070474FF00000704700BF7BB972B932
:1014C0000029BEBF00204FF0004106E008BF002801
:1014D0001CBF6FF000414FF0FF3000F077B8ADF166
:1014E000080C6DE904CE002909DB002B1ADB00F0A3
:1014F000AFF8DDF804E0DDE9022304B070474042B4
:1015000061EB4101002B1BDB00F0A2F8DDF804E0E9
:10151000DDE9022304B0404261EB4101524263EB3A
:1015200043037047524263EB430300F091F8DDF848
:1015300004E0DDE9022304B0404261EB4101704761
:10154000524263EB430300F083F8DDF804E0DDE989
:10155000022304B0524263EB4303704753B94AB9C4
:10156000002908BF00281CBF4FF0FF314FF0FF30AB
:1015700000F02CB8ADF1080C6DE904CE00F068F86D
:10158000DDF804E0DDE9022304B07047D0B5FFF7D1
:10159000DBF800220B4B06460F46FFF72DF9FFF74D
:1015A000EDFB0446FFF7AEF80022074BFFF724F9E6
:1015B00002460B4630463946FEF766FFFFF7DEFB74
:1015C0002146D0BD0000F03D0000F041704700BF53
:1015D00010F8012B11F8013B012A28BF9A42F7D0DD
:1015E000D01A7047034611F8012B03F8012B002A8B
:1015F000F9D17047034613F8012B002AFBD1181AC2
:1016000001387047430803F05533C01A00F03333F4
:10161000800800F0333018444FF0013300EB101015
:1016200000F00F305843000E704710B500210446FB
:10163000FFF7C0FE20B92046BDE81040FFF7A6BF67
:1016400004F10040FFF7A2FF404261EB410110BDF1
:101650002DE9F0478C468E46089E154604461946ED
:10166000002B40F0D080724547D9B2FA82F74FB1D3
:10167000C7F120030EFA07FCBD40BC4020FA03F37B
:1016800043EA0C0C4FEA154EA8B2230CBCFBFEF843
:101690000EFB18CC08FB00F943EA0C43994528D906
:1016A000EB1808F1FF3204D2994502D9A8F10202E1
:1016B0002B44A3EB0903A4B2B3FBFEFC0EFB1C33CB
:1016C0000CFB00F044EA0344A04214D92C190CF19D
:1016D000FF3304D2A04202D9ACF102032C44241AF5
:1016E00043EA02401EB1FC40002334607360BDE851
:1016F000F0874246DDE76346F1E7002A79D0B2FA87
:1017000082F3002B3FD01946C1F1200302FA01F504
:1017100000FA01F42EFA03F20EFA01FE20FA03F3A6
:10172000AFB243EA0E034FEA154EB2FBFEFC0EFBCE
:101730001C201A0C0CFB07F842EA004290455AD9CB
:10174000AA180CF1FF3004D2904502D9ACF1020086
:101750002A44A2EB08029BB2B2FBFEFC0EFB1C2249
:101760000CFB07F743EA02439F4246D9EB180CF102
:10177000FF3204D29F4202D9ACF102022B44DB1BA0
:1017800042EA004202E0AEEB020301224FEA154EAC
:10179000AFB2200CB3FBFEFC0EFB1C330CFB07F8B6
:1017A00040EA034398452AD9EB180CF1FF3004D2E4
:1017B000984502D9ACF102002B44A3EB0803A4B274
:1017C000B3FBFEFC0EFB1C330CFB07F744EA03449F
:1017D000A74216D92C190CF1FF3304D2A74202D923
:1017E000ACF102032C44E41B43EA00400F461146CF
:1017F00078E71F2188E76046ABE76246BFE76046AF
:10180000DBE76346EFE7734506D916B900210846C2
:101810006DE7C6E9000EF9E7B3FA83F787B97345B8
:1018200001D3824207D8841A6EEB030301209C4641
:101830001EB900215BE73846FAE7C6E9004CF8E735
:10184000C7F1200CBB4000FA07F422FA0CF520FA8D
:101850000CF1BA401D432EFA0CF30EFA07FE4FEAC4
:10186000154941EA0E011FFA85FEB3FBF9F809FBA1
:1018700018300B0C08FB0EFA43EA00439A4540D996
:10188000EB1808F1FF3004D29A4502D9A8F1020002
:101890002B44A3EB0A0389B2B3FBF9F809FB183315
:1018A00008FB0EFE41EA03418E452CD9691808F168
:1018B000FF3304D28E4502D9A8F10203294443EA3A
:1018C0000040A1EB0E01A0FB02984145CE464346E5
:1018D00002D306D14C4504D20138B9EB020E68EBB5
:1018E0000503002EA5D0B4EB0E0261EB030101FA53
:1018F0000CFC22FA07F3F9404CEA0303C6E9003175
:1019000097E74046C5E74346D9E7000000000000DE
:1019100000222DE9F04F704B87B0D3E8EF5FC3E8AA
:10192000E12F0029F9D1002D00F0CF802A074DD5F5
:10193000DFF8A8B1DBF80030002B47D04FF0FF30C4
:101940004FF0FF3104F090F8654B04ACD3E900127E
:10195000D3E90289CDE90212D3E90676D3E904017D
:1019600084E8030004F088F8204635F079F901286E
:1019700071F1000304468A460DDB35F062F9C01BA5
:1019800061EB06014FF47A720023FFF797FD00190F
:1019900004464AEB010A40464946FEF7FFFE4CA3C7
:1019A000D3E90023FFF752F880468946DDE90201BA
:1019B000FEF7F4FE46A3D3E90023FFF747F8CDE98D
:1019C000004A42464B46DBF80040A04715F00104B0
:1019D0002BD0444B1B782BB1434B1B78012B01D1EF
:1019E00003F086FFEB0670D53F4B1B78022B6CD1C2
:1019F0003E4B1878421C1A7004F074FD044600280F
:101A00005FD047F6122540F2E73000214FF47A729A
:101A10000023E4FB0501FFF7A1FD02460B46344815
:101A200007B0BDE8F04F2CF025BD15F0060FD9D05A
:101A30002D4A1378022BD5D12E4B1E68012313702B
:101A40002D4A14702D4A137035F0FBF82C4BC3E966
:101A500000012C4BC3E9006403F0F4FF4FF47A72E9
:101A6000002330462146FFF779FD274B1B68834250
:101A700074EB010234BF012700278342234A74EB31
:101A800001012CBF012100212046177004F0A4FBA6
:101A9000204604F089FB1E4B1A7802B11C7047F6F1
:101AA000122440F2E73000214FF47A720023E6FB63
:101AB0000401FFF753FD02460B4616482CF0A6FC26
:101AC00090E7154A13680133136007B0BDE8F08F43
:101AD0000000000065CDCD41A0560220A85602208E
:101AE000701100209BAE022099AE022092AE02201F
:101AF00060000020D404002098AE022096AE0220A0
:101B0000A011002098110020D004002095AE0220E2
:101B100091AE0220C00000209C5602200000000070
:101B20002DE9F04F8E070F4614468FB040F18F809D
:101B300004F0E2F8002800F08A8004A804F00AFA11
:101B4000002800F0848094F8C15094F8C03005F16A
:101B50000A0898457BDADDE90401FEF71FFE98A329
:101B6000D3E90023FEF772FFFFF728F99649FFF744
:101B700083FA00210646FFF71DFC4FF07C51002838
:101B80006CD03046FFF76EF9FFF752FC8146DDE975
:101B90000601FEF703FE8AA3D3E90023FEF756FFF2
:101BA000FFF70CF98849FFF767FA00210646FFF7AF
:101BB00001FC4FF07C51002854D03046FFF752F919
:101BC000FFF736FC06460898FFF702FA7F49FFF751
:101BD00007FB7F49FFF750FA00218246FFF7EAFB37
:101BE0004FF07C51002841D05046FFF73BF9FFF7FA
:101BF0001FFC012388226355EB18DBB2E254AB1CB7
:101C0000DBB24FEA2942E254EB1CDBB24FEA292255
:101C1000E2542B1DDBB204F803906B1DDBB23214CF
:101C2000E254AB1DDBB23212E254EB1DDBB2E654E0
:101C300005F10803DBB20214E25405F10903DBB23B
:101C400002120B35E25484F8C15004F808007D07F5
:101C500000F1AC8001200FB0BDE8F08F3046FFF7F7
:101C600003F991E73046FFF7FFF8A9E75046FFF781
:101C7000FBF8BCE7404604F063FD80B909F10103BD
:101C80004D465FFA83F9404604A904F06BFD40B16C
:101C900008F1010804F04EFD4045EBDCDAE70125D0
:101CA000F1E7BDF81070F8061DD5DDF824B05146F7
:101CB0005846FFF77FFB002873D158464549FFF788
:101CC00097FB00286FD15846FFF7D8FBFFF77CF948
:101CD0000022CDE9016202220346009265212A46D4
:101CE000204635F068F8F9070AD502230A22672151
:101CF000CDE9003220462A46059B029635F05BF876
:101D0000BB070BD502234FF0000C2A46CDE9013C5E
:101D100068212046069B009635F04DF878070BD5D4
:101D20000A230021CDE9013102232A4600937321C1
:101D30002046079B35F03FF83A0709D502232A468B
:101D4000009379212046CDE90166089B35F033F8F0
:101D5000BB060AD5022364202A46CDE9003074214F
:101D600020460A9B029635F026F879060BD5022309
:101D70004FF47A727521CDE9003220462A460B9B3A
:101D8000029635F018F83B0682D50023CDE90163B1
:101D900002232A460093802120460C9B35F00BF845
:101DA00076E7D3468FE74FF6FF708FE74FF00008D6
:101DB0004FF0020901264FF0000A6BE7AFF30080F5
:101DC0000000000065CDCD4100401C4600007A4473
:101DD0000000C84200FF7F4730B50D46194640F26B
:101DE00001138FB00446CDE90135104610A3D3E9A5
:101DF0000023FEF701FDFEF799FF0DA3D3E90023B1
:101E00000390DDE91201FEF7F7FCFEF78FFF0023D8
:101E1000049006A901A8059335F06DF806AA0346BB
:101E200004F50671204633F074F90FB030BD00BFE1
:101E30000000000080842E41F0B5072A054699B0C5
:101E400005D8062137F0A6FD012019B0F0BD002706
:101E500000F5B03484F8607300F50436D6F848080D
:101E600086F8847018B13AF02CFEC6F8487800273E
:101E700005F50730C6F84C78C6F85078C6F8047CEB
:101E8000083044F031FF012386F8E63BA86E036872
:101E90001B68984705F5063300F6B830C3E9FA0722
:101EA000284686F8007C3AF0EBF994F8DD327BB1F5
:101EB00096F8003C63B9D6F8A03A4BB1284609F031
:101EC000A7FE28B1A86F03681B689847C6F8A00A48
:101ED00040F20513ADF8043094F8BC3102AE8DF831
:101EE0000630162305F50E778DF8073005F50673D5
:101EF000324618685968083303C2BB421646F7D108
:101F0000D4E9680128A3D3E90023FEF775FCFEF7A6
:101F10000DFF25A3D3E900230646D4E96601FEF7A9
:101F20006BFCFEF703FF94F8E73194F898228DF8E4
:101F3000303094F80032CDE90A068DF8313094F84B
:101F40009732D4F8B8019B0043EA021394F8962222
:101F5000174913438DF8323094F8953204F5BA746A
:101F60008DF83330FFF788F8FFF788FA10490D90A5
:101F7000606FFFF781F8FFF781FAB4F870300E90C8
:101F80001F212046ADF83C3048F04BFB0646024688
:101F900021460DF13E0048F0A9FA284606F13A0222
:101FA00001A937F0DEFC4FE70000000080842E41DD
:101FB00000007A4400000000082AF8B5044632D92F
:101FC000481C37F0CFFA1C4A1C4E0244B24203466A
:101FD00029D8481D37F0C6FA194A0546904222DB37
:101FE000B04220DC1846FEF79DFB11A3D3E9002385
:101FF000FEF72CFD04F5B036C6E966012846FEF76B
:1020000091FB0BA3D3E90023FEF720FDC6E968018D
:10201000D6F8480306F5B87108F00EF9204637F0F7
:10202000AEFC0120F8BD0621204637F0B3FCF8E7EE
:102030000000000080842E41804A5D050095BA0AA8
:10204000006B45F5000000002DE9F041151D064626
:102050000F469AB028469E491C46FFF7B9FA30B998
:102060009C4920461AB0BDE8F041FFF7BBBA0A22EE
:102070002846994948F073FAB8B9736993F88120F2
:10208000964B1979914209D11B68954A0092954A5D
:102090004FF48071204630F0E1F9B1E001300428BE
:1020A00003F10803EDD1904BEFE7072228468F4953
:1020B00048F055FA80B9736993F882208C4B1979EE
:1020C000914202D11B688B4AE0E70130042803F1FA
:1020D0000803F4D1844BF6E70F222846864948F0DE
:1020E0003EFA58B97369854A93F883304FF480718A
:1020F00020461AB0BDE8F04130F0B0B904222846BD
:102100007F4948F02CFA40B9736993F880207D4BE1
:102110007D49002A08BF0B462FE0062228467B494E
:1021200048F01DFA58B9736993F8300105F0DEF8EC
:10213000054605F0EDF82B46754A0090A8E71522F4
:102140002846744948F00BFA20B9736993F84F3068
:10215000714ACBE70F222846704948F000FA20B9AF
:10216000736993F84E305B00F2E70E2228466C4903
:1021700048F0F5F918B9736958336A4AB6E7DFB918
:1021800007222846684948F0EAF9A8B9B0691C3620
:1021900003685B6D984740220AA932F07AFD0AA9CC
:1021A0000246304602F00AF933464FF48071204669
:1021B0005C4A30F053F923E0042228465B4948F09A
:1021C000CEF910B973690433D7E706222846584977
:1021D00048F0C5F918B9736993F84D2097E70322C1
:1021E0002846544948F0BBF968B97369D3E90A2312
:1021F000CDE90023504A4FF48071204630F02EF98B
:102200001AB0BDE8F081032228464C4948F0A7F9EE
:1022100018B97369D3E90C23EAE710222846484924
:1022200048F09DF918B9736993F87E3090E712224F
:102230002846444948F093F918B9736993F87D30FA
:1022400086E709222846404948F089F918B9736998
:1022500093F87C307CE7122228463C4948F07FF90D
:1022600038B97369D86EFEF76FFA394ACDE90001C3
:10227000C1E70A222846374948F071F990B93E2350
:10228000224602F8023B2023637071699B3111F8EA
:10229000013F0BB91370B3E70A2B08BF7C2302F888
:1022A000013BF4E70B2228462B4948F058F9002857
:1022B0005CD1736993F835310BB92849D1E6012B0C
:1022C00001D12749CDE6022B0CBF26492649C8E695
:1022D0003D050500400505006405050070CC0400BF
:1022E000760505006F050500BAF5040094050500A4
:1022F00050CC0400441C05009C050500AC050500FD
:10230000B305050060FC0400DE080500B805050003
:10231000BF050500C9050500B4010500CF0505008E
:10232000DF0505003CF70400EE0505003901050056
:102330003EF9040036F90400F60505003AF90400F8
:10234000FD0505000E060500210605002B0605000B
:10235000AD0105003E0605004906050055060500CD
:102360005B06050065060500700605000A22284682
:102370009D4948F0F4F878B99C492046FFF732F9B6
:10238000B06903685B6D984720220146A01C1AB013
:10239000BDE8F04102F012B804222846944948F002
:1023A000DEF828B9B0690368DB6898470346E4E6BD
:1023B0000E2228468F4948F0D2F808B98E4950E6D7
:1023C0000D2228468D4948F0CAF808B98C4948E6DC
:1023D000112228468B4948F0C2F8B0B935682B68FD
:1023E0002846D3E91737984701462846B847366844
:1023F000054633683046D3E91937984701463046D9
:10240000B8472B46804A009042E60D2228467F4975
:1024100048F0A5F80028D9D00E2228467C4948F07B
:102420009EF850B93068202203680AA99B6B984730
:1024300008B10AABB9E6774913E60E222846764979
:1024400048F08DF828BB30680368DB6898470021A6
:102450000746FEF7A5FF08B1704902E63068036839
:102460001B68984705463846FEF76EF96DB16C4B10
:102470006C4A1B681B88CDE90001CDE902534FF47B
:10248000807120462FF0EAFFBAE6CDE90001664AE6
:10249000B1E606222846654948F061F820B973691B
:1024A00093F81631624A21E60E222846614948F027
:1024B00056F808B96049D4E50C2228465F4948F02F
:1024C0004EF818B90CF0D6FA0346EBE70922284675
:1024D0005B4948F044F818B9736993F92331E1E78F
:1024E00008222846574948F03AF890B977B196F84B
:1024F000E010C1F1A1013E23237020230239A01C6A
:1025000063701AB0BDE8F04104F01CB84FF480715C
:10251000F1E70B2228464C4948F021F818B97369B5
:10252000D3F88C3014E608222846484948F017F8BA
:1025300038B903F06FFC034600287FF409AE444924
:102540008FE503222846434948F009F8002840F067
:102550008D8003F0D1FB00283FF4AFAE07A803F055
:1025600053FD9DF81C300AA8022B96BF3A4A3B4DFA
:1025700052F8235003F0EEFCBDF81E6000B3DDE915
:102580000C01FEF70BF916A3D3E90023FEF75EFA60
:10259000CDE90401DDE90A01FEF700F910A3D3E952
:1025A0000023FEF753FA089BCDE90201CDE9006351
:1025B0004FF480712B462046294A2FF04FFF1FE62B
:1025C000099B4BB1CDE900634FF480712B46204647
:1025D000244A2FF043FF13E62B46234A009657E583
:1025E0000000000065CDCD417906050073020500AD
:1025F000840605008906050098060500A606050064
:10260000B4060500DA060500EC060500060705001D
:1026100014070500230705002D0705003C070500EA
:10262000B4C704005D07050088070500A107050081
:1026300066020500A8070500B7070500DB070500CF
:1026400099010500E8070500F1070500FD070500F1
:102650000608050096F6040044CC04002507050092
:10266000160805004A080500700805000B222846D8
:102670005C4947F074FF30B9B0690368D3F8803023
:102680009847034664E50E222846574947F067FFFE
:1026900018B9736993F81C315AE509222846534941
:1026A00047F05DFFC8B9AFB196F8E050C5F1A1059C
:1026B00029464F4A20462FF0D1FE0146B0696A1ADA
:1026C00003682144D3F88830984700287FF498ADF8
:1026D0004849C6E44FF48075EAE70822284646498F
:1026E00047F03DFF28B97369444993F81A21444BD8
:1026F0000FE50A222846434947F031FF18B97369AC
:1027000093F91B31CEE60B2228463F4947F027FFBD
:1027100038B9736993F81D31002B7FF419AD3B492B
:102720009FE428463A49FEF753FF08B9394998E42F
:1027300008222846384947F012FF002847D00C22CB
:102740002846364947F00BFF002848D1B069036896
:10275000D3F89830984705460028B9D0002F3BD0D1
:1027600096F8E070C7F1A107706803681B68984786
:10277000804639F08DFF73694FF47A7293F81931FE
:10278000003B18BF012301930023FEF797FE434649
:1027900000903A462146284604F09AFA30E5204A4D
:1027A0003846002D18BF42461E492FF081FE0135E4
:1027B000032D07443FF424AD73692B4493F81E3175
:1027C000002BECD1002D7FF41BAD174949E42746BF
:1027D0000546DFF85880EFE74FF48077C4E72B46D3
:1027E000134A83E48D08050099080500A808050030
:1027F00073020500FEFE0400B208050060FC040040
:10280000DE080500BB080500C6080500D208050063
:10281000A3000500DC080500E108050043FF0400F3
:10282000441C0500EA080500EF0805007A1D0500B4
:102830000609050000000000012208B50A4B0B48FC
:102840001A7007A3D3E900232BF014FE084B1B7862
:102850001BB1BDE808400BF063BC08BDAFF30080BE
:10286000389C1C0000000000A8AE02206801002077
:10287000BC0D002000000000F7B5002240F6034028
:1028800011460FF095FB0446002853D10FF054F881
:10289000214641F2030001AA0FF08AFB04460028FA
:1028A00048D1019ABD4DD16805F17803D1F80100F6
:1028B000D1F8051003C310460EF0D2F9214641F2BB
:1028C000010001AA0FF074FB044698BB0198C3688D
:1028D0005A7885F86F205A88A5F872201A7985F8F9
:1028E0007020B3F80720A5F87420B3F80530A5F8D8
:1028F00076300EF0B5F9214641F2020001AA0FF040
:1029000057FB0446B0B9019F05F18006FA68531CD5
:102910004132344618685968083303C49342264646
:10292000F7D138460EF09CF995F87C305E0607D456
:102930006FF0120420460FF0A3FA204603B0F0BD5A
:10294000002142F2030001AA0FF032FB04460028E6
:10295000F0D1019B924EDA68D2F80100D2F805104E
:1029600003C618460EF07CF9214642F2020001AA85
:102970000FF01EFB04460028DCD1019CE368B3F88D
:10298000012091B249B1D97839B1A5F8E820DA78B7
:10299000114606F10C0044F090F820460EF060F964
:1029A0001F2395F87C60A5F8043116F0200619D194
:1029B0004FF0FF304FF0FF310FF0FAF904460028D6
:1029C00000F0098102210C303BF024F8012321465C
:1029D00003704670324640F66D400FF0E9FA044647
:1029E0000028A7D195F89C301C0712D5002142F28F
:1029F0001C0001AA0FF0DCFA044600289AD10198C5
:102A0000C368D3F80120D3F80530C5E938230EF0A8
:102A100027F995F8D83058060FD5002142F22A0040
:102A200001AA0FF0C5FA0446002883D10198C368B3
:102A30005B7885F806310EF013F94FF0FF304FF058
:102A4000FF310FF0B5F90646002800F0C4800821D8
:102A50000C303AF0DFFF95F8D84040F2022314F032
:102A6000400F08BF0323A10795F8D9104CBF43F0CE
:102A70002C0343F00C03A70648BF43F0400311F0BA
:102A8000090F18BF43F4006304F00104024600215B
:102A900043EA04103BF086FE0022314642F2010078
:102AA0000FF086FA044600287FF444AF95F87C3096
:102AB000B5F8E81098066CD4C9B941F2050001AA2E
:102AC0000FF076FA044600287FF434AFB5F8E8300A
:102AD000019C4BB9E368B3F80120A5F8E8209A8877
:102AE0003048114643F0E9FF20460EF0B9F84FF0A8
:102AF000FF304FF0FF310FF05BF9044600286AD039
:102B000008210C303AF086FF95F8D8300246D907F4
:102B10004ED44FF0005124483BF044FE21460022A1
:102B200040F601400FF044FA044600287FF402AF5B
:102B3000014601AA4FF601400FF03AFA044688B95F
:102B400001980EF08DF821464FF6024001AA0FF0D1
:102B50002FFA38B90198C368B3F80130A5F8C0302E
:102B60000EF07EF8EB793BBB10F060F804460028CD
:102B70007FF4E0AE11F07AFA044600287FF4DAAE72
:102B8000EB79002B3FF4D9AE202108483BF02FFD14
:102B9000D0E60029ABD16FF00404CBE6F8010020A9
:102BA000D0020020E402002010880002CC020020A5
:102BB00018A1D1E90001AFE72E78002ED4D195F805
:102BC000C0309B061ED54FF0FF304FF0FF310FF0A5
:102BD000EFF8044610B96FF06804ABE606210C303C
:102BE0003AF018FFD5F8013021460360084B324611
:102BF0009B8883804FF606400FF0DAF904460028E0
:102C0000B2D097E66FF0850494E600BFAFF3008082
:102C1000F9010020908800020080002000000000E0
:102C200070B5144606460846FEF7D2F92146FEF76F
:102C300023FAFEF7FAFC0EA3D3E900230A4D80FB2A
:102C4000054520462946FEF739FC0023074A306037
:102C500029462046FEF732FC0023044AFEF72EFCEC
:102C6000726070BDAFF300803AA3950040420F0040
:102C70000010A5D4E800000070B5144606460846CA
:102C8000FEF7A6F92146FEF7F7F91349FEF7A8FA71
:102C9000FEF7CBFC0CA3D3E90023104D80FB0545C8
:102CA00020462946FEF70AFC09A3D3E90023306039
:102CB00029462046FEF702FC0023094AFEF7FEFBE8
:102CC000726070BDAFF3008000209BF35E100000C7
:102CD00080A812010000000000002041D8EF2F0062
:102CE00040420F0000000000032970B504460D4665
:102CF00004D0072949D06FF0850028E0002A38D099
:102D0000072AF8D158681E680346514AC117C6FB06
:102D10000231012B71F10002C0F28D804D4818186C
:102D200041F1000146A3D3E90023FEF7C7FB0228C7
:102D300026690DD010280DD004280DD008287AD18E
:102D40002946204641F009F940B16FF0040070BDFA
:102D50000025F5E70125F3E70225F1E73D203E4B8D
:102D600033F8151081FB0001FEF748F9F0600020F0
:102D7000EDE7188825F080FB011E5CDB2046C9B218
:102D800025F0A8FB0028F2D0DFE7002A49D0072A67
:102D9000B1D1B4255A6819682D4BD017C1FB032057
:102DA000A2FB0531012A05FB001170F1000028DBB0
:102DB0002A48181841F1000123A3D3E90023FEF7A4
:102DC0007DFBFA28266924D0B0F5FA7F23D0B0F530
:102DD0007A7F22D0B0F5FA6F21D07D282BD104253F
:102DE0002946204641F0C9F80028AED141F217101B
:102DF0001B4B33F8151081FB0001FEF7FFF8F06163
:102E0000B5E71848181861F100010FA3D3E90023B2
:102E1000D5E70025E4E70125E2E70225E0E7032501
:102E2000DEE7188825F028FB011E04DB2046C9B226
:102E300025F032FBA6E76FF0150088E7AFF30080BE
:102E40003AA3950000000000D8EF2F00000000001A
:102E500040420F009DD14A00D0F00400ECF717006B
:102E6000C6F004001408E8FF1BA3D3E900230021E7
:102E7000C0E900231AA3D3E90023C0E902231AA35F
:102E8000D3E90023C0E9042319A3D3E90023C0E94F
:102E9000062319A3D3E90023C0E9082318A3D3E923
:102EA0000023C0E90A2318A3D3E90023C0E90C23B7
:102EB00017A3D3E90023C0E90E2300220023C0F8A2
:102EC000D010C0E93023C0E932238022403047F0DF
:102ED00033BB00BFAFF3008008C9BCF367E6096AE3
:102EE0003BA7CA8485AE67BB2BF894FE72F36E3C99
:102EF000F1361D5F3AF54FA5D182E6AD7F520E51F6
:102F00001F6C3E2B8C68059B6BBD41FBABD9831FAF
:102F100079217E1319CDE05B31F000432DE9F04FAC
:102F2000814687B00E4607460C460DD180F48007D7
:102F30007F0017F5000F40F2578331464846FDF7F2
:102F400093FF07B0BDE8F08F20F000480146B8F1CC
:102F5000FF4F02D8B3F1FF4F08D9B7F17E5FECD134
:102F600084F48004640014F5000FE4E7002823DAF9
:102F7000B3F1974F80F03D83B3F17E5F36D3DA151E
:102F8000C2F1960243FA02F505FA02F29A4225D1FD
:102F900005F00105C5F10205B3F17E5F27D1002CD4
:102FA0007EDA00214846FEF7FBF9C8B1F80F07B0FA
:102FB000BDE8F04F31F0DCB8B3F1FF4F0ED1B8F1FE
:102FC0007E5F00F0118304D9002C80F21083002072
:102FD000B7E7002CFBDA06F10040B2E70025DBE79B
:102FE00049464FF07E50FEF7FBF8AAE70025B4F102
:102FF000804F424640F00383B8F1BF4F20D2B8F172
:10300000D05F04D949464846FEF736F899E729F0DB
:103010000040B8F1000F40D0F90F01390391294366
:1030200024D0B3F19A4F40F2D780654B984539D8F8
:10303000002C3CDA002007B0BDE8F04F31F090B82A
:1030400027F0404C29F00040BCF17E5F1AD1002CE3
:1030500004DA01464FF07E50FEF7C2F8002FBFF6AB
:1030600070AFA8F17E5858EA050805D1484607B068
:10307000BDE8F04F31F084B8012D7FF462AF00F16C
:1030800000405EE7B8F1000FC6D1002C05DA17B199
:103090006B1E59425941084689E7012D7FF451AF13
:1030A00048464EE7474B984507D9002CC2DC002024
:1030B00007B0BDE8F04F47F03ABD4FF07E51FDF745
:1030C000D1FE07464049FDF7D7FF404981463846C3
:1030D000FDF7D2FF804638A1D1E90001FDF76EFE71
:1030E00082464FF07A513846FDF7C6FF01465046FA
:1030F000FDF7B8FE3946FDF7BFFF01464FF07C50A3
:10310000FDF7B0FE824639463846FDF7B5FF014669
:103110005046FDF7B1FF2E49FDF7AEFF0146404690
:10312000FDF7A0FE014680464846FDF79DFE20F4CF
:103130007F67494627F00F073846FDF793FE0146A3
:103140004046013DFDF78EFE039B6FF30B04804666
:103150001D433046214614BF4FF07E551D4DFDF7EF
:1031600081FE3946FDF788FF814631464046FDF72E
:1031700083FF01464846FDF777FE0646214638465E
:10318000FDF77AFF014607463046FDF76DFE002841
:103190000446804620F0004340F34481B3F1864F5B
:1031A00040F22D8100212846FEF704F9003818BFAF
:1031B000012040E7AFF30080E13D55555555D53F1F
:1031C000F3FF7F3F0700803F00AAB83F70A5EC36B1
:1031D0003BAAB83F000080BF17F0FF4F40F00B81C3
:1031E0004FF09741FDF748FF6FF017010246D315E6
:1031F000C2F316027F3B0B4495498A42029342F088
:103200007E5308DD93498A4240F3F780029AA3F582
:1032100000030132029200278F4A9A46184604930F
:1032200052F827B05946FDF71DFE514681465846D3
:10323000FDF71AFE01464FF07E50FDF7D1FF014623
:1032400005904846FDF718FF0190019B83496FF3F5
:103250000B039846049B01EA6303414643F0005385
:1032600003F5800303EB475318460493FDF704FF6F
:1032700001464846FDF7F6FD049B8146594618462F
:10328000FDF7F0FD01465046FDF7ECFD4146FDF728
:10329000F3FE01464846FDF7E5FD059A1146FDF7A8
:1032A000EBFE019983460846FDF7E6FE6C49814630
:1032B000FDF7E2FE6B49FDF7D7FD4946FDF7DCFE61
:1032C0006949FDF7D1FD4946FDF7D6FE6749FDF78F
:1032D000CBFD4946FDF7D0FE6549FDF7C5FD4946E2
:1032E000FDF7CAFE6349FDF7BFFD824649464846E1
:1032F000FDF7C2FE01465046FDF7BEFE414681463F
:103300000198FDF7B1FD5946FDF7B6FE4946FDF7B8
:10331000ABFD414682464046FDF7AEFE564904905D
:10332000FDF7A2FD5146FDF79FFD20F47F69414660
:1033300029F00F094846FDF79FFE4F498046484651
:10334000FDF790FD0499FDF78DFD01465046FDF710
:1033500089FD0199FDF790FE824649465846FDF7E2
:103360008BFE01465046FDF77FFD834601464046F1
:10337000FDF77AFD20F47F69404929F00F0948469E
:10338000FDF77AFE414682464846FDF76BFD014651
:103390005846FDF767FD3A49FDF76EFE804639490C
:1033A0004846FDF769FE01464046FDF75DFD364B98
:1033B00053F82710FDF758FD80460298FDF708FEE8
:1033C000324B8146414653F827B05046FDF74CFD3D
:1033D0005946FDF749FD4946FDF746FD20F47F6754
:1033E000494627F00F073846FDF73CFD5946FDF7E3
:1033F00039FD5146A1E60021F9E601270CE74BD142
:1034000023493046FDF730FD814639462046FDF719
:1034100029FD01464846FDF7EBFF00287FF4C2AEC8
:1034200086233EE01B4A934207D900212846FDF738
:10343000C1FF003818BF01203AE62DD13946FDF70B
:1034400011FD3146FDF7CAFF0028E9D0EDE700BFC6
:1034500071C41C00D6B35D0000F0040000F0FFDF73
:1034600042F1533E55326C3E05A38B3EABAAAA3EB9
:10347000B76DDB3E9A99193F000040400040763F0F
:103480004F38763FC623F6B8F0EF0400F8EF04009B
:103490003CAA383300001643B3F17C5F40F2A080B1
:1034A000DB157E3B4FF400045B49B8F1000F44FA92
:1034B00003F438464444C4F3C753A3F17F0341FAED
:1034C00003F1C3F1170301EA0401C4F3160444F441
:1034D000000444FA03F4B8BF6442FDF7C3FC074696
:1034E00031463846FDF7C0FC20F47F694B4929F08E
:1034F0000F094846FDF7C0FD394680464846FDF7AE
:10350000B1FC01463046FDF7ADFC4549FDF7B4FD81
:10351000064644494846FDF7AFFD01463046FDF7F3
:10352000A3FC074601464046FDF79EFC4146064681
:10353000FDF798FC01463846FDF794FC314680467D
:103540003046FDF799FD38490746FDF795FD3749A7
:10355000FDF788FC3946FDF78FFD3549FDF784FC02
:103560003946FDF789FD3349FDF77CFC3946FDF707
:1035700083FD3149FDF778FC3946FDF77DFD0146B5
:103580003046FDF76FFC074601463046FDF774FDF7
:1035900081464FF080413846FDF764FC01464846BD
:1035A000FDF71EFE414607463046FDF765FD4146E4
:1035B000FDF75AFC01463846FDF754FC3146FDF74D
:1035C00051FC01464FF07E50FDF74CFC00EBC4531C
:1035D000B3F5000F06DA214630F064FD294613E505
:1035E00000247DE71846F9E74FF07E50A9E4304605
:1035F000A7E4B3F1FF4F3FF4E2AC42460225B4F139
:103600007C5F7FF41DAD002FFFF61AAD484607B072
:10361000BDE8F04F47F020BB000080FF0072313F53
:103620001872313F8CBEBF354CBB31330EEADD35ED
:1036300055B38A38610B363BABAA2A3E002110B540
:103640000446074B4FF4C072C0E96011C0E9621133
:10365000C0F89011C0F8943146F06EFF204610BDBE
:10366000CDCC4C3E024630B553880178082B28BF9C
:1036700008230B48C1F383010A4C4840604302F120
:103680004901C2F1FF2202F57F02B7325518AB4261
:1036900000DC30BD11F8015F68406043F6E700BF11
:1036A000C59D1C81930100012DE9F04104460D46A2
:1036B0000746002642F210783B7B3BB17B68EB1A51
:1036C000434503D93146204630F072FD0136182EAD
:1036D00007F11007F0D1D4F88C3133B3154AEB1A47
:1036E000934222D9D4F88431FBB1D4F8903123B974
:1036F000A5F59C53083BC4F8903141F2873641F25E
:10370000883003F51C414031EA1AB2420BD9D4F893
:10371000842142B10344A2EBD2028B42C4F884213B
:10372000C4F89031F0D1BDE8F0810023C4F89031A5
:10373000F9E700BFE093040070B50346024600F5C8
:10374000C0766FF00040C1F51C551135147B34B1C3
:1037500054682C4424EAE474A04228BF2046103266
:10376000B242F3D1D3F88C2192B1D3F884417CB129
:103770000D4C8D1AA5420CD9D3F890312BB1C1F55F
:103780009C5108310B4423EAE373984228BF184642
:1037900070BDC1F5922101F2E131114421EAE171DC
:1037A000884228BF0846F3E7E093040010B5D0F83C
:1037B0008831032B26DDD0F88401FDF705FC4FF09E
:1037C0006E51FDF759FC00210446FDF7FDFDE0B9FF
:1037D0004FF081412046FDF747FB01462046FDF7AB
:1037E000FFFC0B49FDF748FC0A49FDF73DFB4FF094
:1037F0007E510446FDF7FCFD10B14FF07E5010BD28
:103800002046FCE74FF07C50F9E70248F7E700BF9D
:103810009A99193FCDCCCC3E00487047441C050016
:103820000048704780EE360030B5C0E91912C36613
:10383000012200230E4DC0E90433C0E90633C0E97C
:103840000E33C0E91233C0E90A33C0E90C33C0E9D2
:103850001533C0E917330560436080F844300364D2
:10386000A0F87030036280F82420A0F8503030BDFA
:10387000C0C2040070B5B8B001460446684645F0C1
:10388000D5F89DF80030013BDBB2FD2B38D8274B33
:1038900028AA03F14006154618685968083303C57D
:1038A000B3422A46F7D1224B08AA03F12006154657
:1038B00018685968083303C5B3422A46F7D108A9E6
:1038C00020A82CF03FF9214620AA10A845F05AF86C
:1038D000694620A82CF036F920AA28A918A845F096
:1038E00051F8202218A910A832F0F3F8044658B96C
:1038F000202110A832F029F9202118A832F025F94A
:103900000024204638B070BD002310A911F8012B07
:103910001AB90133202BF9D1144610A8202132F016
:1039200014F9202118A832F010F9EAE7FAF004009F
:103930003BF104002DE9F04F0A78054602F003033D
:10394000023B012B0C46F3B070D802F03C06242E4B
:103950000B795BD13F2B1CD84E88082E19D991F8D2
:103960005270093E07F003029340F6B21FFA83FC3F
:10397000664510D801F153020368029201F10A0270
:10398000CDE9007203961D6ED1F84A20D1F84E3071
:10399000A847002037E00121533301FA02F200F575
:1039A0000671E01846F0DBFD0028F2D12B682146B5
:1039B00028465B6C98470028EBD0E86F21460368E7
:1039C0001B6898470028E4D1E86F214603685B68CC
:1039D000984794F90201FDF7FBFA4FF07A51FDF791
:1039E0004BFB4FF08141FDF747FBFDF721FD2379AC
:1039F00021465A1C2344227198722B682846DB6C9E
:103A0000984740F0C06073B0BDE8F08F2C2E03F0F3
:103A10003F030AD191F94A60002E80F2B782002B51
:103A2000B7D103685B6F9847B3E76BBB104631F0C3
:103A30004EFA002840F080802378C3F383020F2AD7
:103A4000A7D801A151F822F0E33B0000E33B0000BE
:103A5000E33B0000A13B0000233E0000973D000037
:103A6000973D0000133D0000E33B00009339000048
:103A70000D3F000093390000933900009339000096
:103A800093390000DD3E00000C2E08D14B88032B3B
:103A900005D90368D1F84A20D3F8843098472279B1
:103AA00005F506719209013204F10A0046F057FD4E
:103AB00000287FF46EAF2B68214628465B6C984740
:103AC00000283FF466AF2378C3F383030A2B04D1A5
:103AD0002146284631F0E4FC5BE7E86F032B0268DF
:103AE0002146126813D19047064600287FF451AF53
:103AF000E86F214603685B6898472146284631F005
:103B0000A2FA32462146284631F073FC41E790473D
:103B100000287FF43EAFE86F214603685B68984752
:103B20002146284631F08FFA2B6821462846DB6C67
:103B3000984740F0807066E72B68214628461B6C4A
:103B4000984700287FF425AF207831F0C0F900288D
:103B50003FF472AF2046FFF785FD0646A86E05F1DB
:103B6000800703681B68984731460246384630F0A4
:103B700065FB20B13146284631F0C3F95CE72B687C
:103B800028469B6B984700283FF456AFA86E036801
:103B90001B68984731460246384630F029FB4BE710
:103BA0006388032B7FF6F5AEE86F21460368D4F8EF
:103BB0004A601B68984700287FF4EBAEE86F214607
:103BC00003685B6898472B68324621462846D3F83D
:103BD000843098472146284673B0BDE8F04F31F055
:103BE00052BA94F84B300DF1200A8AF800306388FD
:103BF00094F84A70042B7FF6CCAEE86F2146036838
:103C00001B689847064600287FF4C3AEE86F21463C
:103C100003685B68984795F81832BB4268D12B68F7
:103C2000514628465B6D9847814604F14C0B10AF16
:103C30000DF1C408B1455BDD2B6832463946284694
:103C40009B6D984763885A46023B4146384631F09F
:103C500057FF031E5BDD2278C2F38302082A4CD192
:103C600098F800900793484631F09AFD00283FD01D
:103C70004FEA991109F03F0201FB0222079B501CF9
:103C8000834235DD02329B1ADBB24244296803923B
:103C9000049318F800300DF1C50803F00F03CDE9C7
:103CA0000193CDF80080D1F864B03B4632462146FE
:103CB0002846D847D0B1207831F009F9B0B10023B7
:103CC000CDE9023301932379514600933A462846C1
:103CD00004F10A0331F070FA014638B14FF4FA7377
:103CE0004246009328464B4631F0CCFCFF2323701C
:103CF0002146284631F0C7F985E62968CDE90183D8
:103D00000097CF6D334621462846B847EEE7013687
:103D100090E76388232B7FF63CAEE86F214603686B
:103D200094F84A601B68984700287FF432AEE86F29
:103D3000214603685B68984795F81832B3427FF4D0
:103D400049AF04F14B0608AA04F16B07134630682B
:103D50007168083603C3BE421A46F7D108AA10A9F3
:103D600005F5067031F066F8638831AF32463946A2
:103D7000213B10A831F0C4FE00287FF72BAF2B6841
:103D8000CDE900702146DE6E284608AB10AAB04788
:103D9000FF2323701EE794F84A3008AF3B70638816
:103DA000032B7FF6F6ADE86F214603681B68984742
:103DB000064600287FF4EDADE86F214603680DF15B
:103DC00040095B6898472B683946D3F87C804A469F
:103DD00004232846C047074604F14B0A0DF1410869
:103DE0000DF1C40BB74283DD638840465246594605
:103DF000013B31F085FE002808F121080FDD2B681A
:103E00002278CDE900B006EB4616D3F88070214643
:103E1000284609EB0603C2F38302B84768E7013678
:103E2000E0E710A830F0D1FE10AE04F14A0304F12F
:103E30006A07324618685968083303C2BB421646FF
:103E4000F7D16388632B7FF6A4AD202210A905F576
:103E5000067046F084FB00283FF49BADE86F2146D6
:103E60000368D4F86AA01B68984700287FF491ADD6
:103E7000E86F0DF1C409036821465B684E46984718
:103E8000B4F8028010AFA8F16408B8F1200FA8BF01
:103E90004FF020080FCF0FC697E80F0004F1AE0BCC
:103EA00086E80F00424659463AA8CDF8E4A046F00D
:103EB0001DFB4A4608F1240304F16E0110A830F0FE
:103EC0008CFE00283FF465AD2B68CDE900B8214693
:103ED0009E6E2846534610AAB04709E703F0030335
:103EE000023B012B3FF655ADE86F214603681B6886
:103EF000984700287FF44DADE86F214603685B6862
:103F000098472B68214628469B6F8CE56288022AD9
:103F10007FF63FAD94F84A3003F00F03032B7FF494
:103F200038AD042A7FF635AD31AE304631F033FC82
:103F3000237840228DF8C43004F10A0123790DF171
:103F4000CE0031F04EFC62888DF8C800013A92B282
:103F500004F14B010DF58770ADF8C62046F0C6FAA6
:103F6000E86F314603681B68984700287FF411AD5D
:103F7000E86F314603685B6898472B6831462846EE
:103F8000D3F88430DDF80E21984702E5002B3FF48A
:103F90004DAD84E538B50B4B1C786CB901220A4D48
:103FA0001A70002329461A460848013431F0FCFCF7
:103FB000202C05F58275F4D10021BDE83840034876
:103FC00031F0CEBC1CAE0220848C0220745502203D
:103FD000014BD3F82001704750540220014BD3F815
:103FE0002001704774550220014831F0B9BC00BF70
:103FF00050540220044BD3F820219142BABF2831FB
:1040000053F821000020704750540220054BD3F88C
:1040100020018142BDBF2831012043F8212000202A
:10402000704700BF5054022021B1002302481A46B5
:1040300031F0BABC704700BF745502200022FF2047
:1040400070B50A4BD3F8206103F19C058033B2426E
:1040500000DB70BD55F8044F641A002C03DC9C5C37
:10406000A04228BF20460132F1E700BF5054022091
:104070002DE9F0470546904699460F4699B31B4EE9
:10408000304631F091FC044668BBD6F8200118B3E5
:104090002146234606F17F0CA04214DC0E4496F81C
:1040A0008030434518D9114831F05AFC2B6801463D
:1040B0005B68284698474B4642463946BDE8F0477C
:1040C0000A4831F071BC1CF8012F9A4234BF1A46DD
:1040D000214613460134DFE72B6839462846BDE800
:1040E000F0475B681847BDE8F08700BF50540220D6
:1040F000F0B400230C46FF204FF0FF310E4AD2F8F7
:10410000207102F19C068032BB4205DB4B1C0FD0B4
:10411000F0BC094831F024BC56F8045F2D1B002D7B
:1041200004DCD55C85423CBF194628460133EBE7E9
:104130000020F0BC704700BF5054022030B50A4B3D
:104140004A1CD3F820510DD0002210469C33AA42BD
:1041500000DB30BD53F8044F0132641A002CD8BF85
:104160000130F4E72846F4E750540220002907DB29
:10417000044BD3F82021914202DA53F82100704712
:10418000002070475054022038B500240D4D2819E6
:1041900004F5827431F0FFFAB4F5025FF7D1002420
:1041A000094B214680221846C3F8204146F0C4F945
:1041B000064B2146C3F820411846BDE8384080220E
:1041C00046F0BAB9848C0220745502205054022063
:1041D0002DE9F0430D468DB012F00F0180461446D4
:1041E0001E469DF8509004D04FF0FF300DB0BDE852
:1041F000F083184B142207A8069346F09DF9B9F1F5
:10420000000F0CBF4FF400734FF48073124F0893EC
:104210001022414604AB06A8099744F0F1FF00289C
:10422000E2D105ABCDE901432A462346394604983D
:104230000096B9F1000F09D02CF076F904460498E5
:1042400044F014FF002CCFD10598CFE72CF008FAEA
:10425000F4E700BF00248000004440042DE9F04151
:1042600094B007460C4616460021142207A81D46A6
:1042700046F062F94FF48853ADF818304FF480736C
:10428000ADF81A304FF48063DFF84C802022CDE97E
:104290000838394604AB06A844F0B2FF28B14FF005
:1042A000FF34204614B0BDE8F08105AB0293202313
:1042B00001930CAB2246009341463346049845F0E7
:1042C0004EF90446049844F0D1FE002CE7D1BDF825
:1042D00030302B80E5E700BF0900800330B58DB09A
:1042E0000D4611461A4603AB019320230446009362
:1042F0000A4804AB45F063F82A4630B10021204655
:104300000DB0BDE8304046F017B9202D28BF20225F
:10431000204604A946F0EAF80DB030BD09000002BD
:104320002DE9F043A7B00446DDE92E890D46164677
:10433000002170220AA81F4646F0FEF816490AA876
:1043400044F0EEFFE8B93A4631460AA845F009F8CC
:10435000B8B94A4641460AA845F003F888B9202270
:1043600001AB02A90AA845F013F850B9202D2A463E
:10437000204628BF202202A946F0B8F827B0BDE8A1
:10438000F0830AA844F0BDFF2A460021204627B04A
:10439000BDE8F04346F0D0B80900000208B5054B6F
:1043A000002814BF01461946034838F088FD012053
:1043B0000AF05AFE5CF1040068F104000346F0B50F
:1043C0000A4D8E18B14203F1020303D1002300F815
:1043D0001230F0BD11F8014B270904F00F04EF5D16
:1043E0002C5D03F8027C03F8014CEBE7851F050008
:1043F0002DE9F04105460C46DFF830808F18BC42AD
:1044000001D1BDE8F08114F8016B2B68320918F86E
:10441000021028469B6898472B6806F00F0628462E
:104420009B6818F806109847E9E700BF851F05004C
:1044300010B5046900212046FCF7B2FF00B1014C21
:10444000204610BD0000E1450048704788F1040097
:1044500008B510460249FDF7C5F8002008BD00BFA9
:1044600096F1040030B50022702113488BB002F0A1
:104470000DFE041E104D19DD22462846691C46F02B
:1044800042F8013C02A802F0E1FE60B16F2C0ADCA8
:10449000039B0A4A019305AB0093C4F17001029B90
:1044A00028192DF0DBFF04480BB030BD2846044925
:1044B000FDF798F80724E5E71DAE0220CCF10400D3
:1044C000C4F1040037B5124C204642F0A8F810B9E8
:1044D000104803B030BDA5684E212046EB689847D0
:1044E0000028F5D10C216A4620462B699847002800
:1044F000EED10198FCF76CFD0749FCF771FE04460C
:104500000098FCF765FD01462046FCF7ADFCE0E7AE
:10451000E0B004000000C07F002474492DE9F0439E
:10452000804687B02A4F384642F079F818B9002003
:1045300007B0BDE8F083274C237843B9BB68384601
:104540001B68254998470028F1DB012323700025CB
:1045500008242E46A9461422002101A8ADF8029095
:1045600045F0EAFF022304936B44039380230293F4
:1045700040F60C03ADF81430BB6815485B6801A920
:10458000984718B9BDF9023001361D44013CE2D10B
:10459000002ECCD095FBF6F5D8F8106000213046FF
:1045A000FCF7FEFE88B93046FDF73FF80C466C4339
:1045B000EB1700FB0344A5FB0030241802D540F69E
:1045C000FF729B18C3F30F30B2E74FF4E150EEE7F0
:1045D00000B004008DAE02203EC4040070B5044655
:1045E0004FF0FF324FF0FF33154829F00DFB42F03A
:1045F000E0FC4FF47A75A0FB0506002305FB016182
:1046000047F61222FCF7AAFF0D46D4E90213002B4D
:10461000064608DB721A42F2107165EB03038A4208
:1046200073F1000305DB2046FFF778FFC4E902655C
:10463000E080E488024829F089FB204670BD00BF75
:10464000200F002008B503681B689847BDE80840A4
:104650000146014833F0FCB8B4C7040007B5064B67
:104660008DF8070001220DF10701044802F0C8FE91
:1046700003B05DF804FB00BFE9F10400F9F10400A8
:1046800073B5124B124C1D7815B1207802B070BD75
:10469000012610481E7032F0B5FE0028F5D03246D3
:1046A0000C4801AB0DF103018DF80350019532F078
:1046B000C2FE38B1019B2BB19DF80330012B08BF1E
:1046C0004C232370034832F0A8FEDEE78FAE0220B1
:1046D0008EAE0220F9F104004C28024607D055287E
:1046E00007D0054B0548002A08BF18467047044804
:1046F00070470448704700BF05F20400C4F104008D
:104700000AF2040016F2040083B504F0EFFD38F05D
:10471000BBF932F0D6FA0621264A274831F0B0FA22
:104720000021264A264831F0ABFA42F042FC4FF411
:104730007A74A0FB0405002304FB015147F6122202
:10474000FCF70CFF41F288331D4FC418D7F81080D6
:1047500041F10005BB681A485B6801A9984790B908
:10476000D8F80020019B5340DB070CD4154A164BA8
:10477000D2F880100B4043F4403343F00C03C2F8EE
:10478000803038F0A9FB42F014FC4FF47A76A0FB9D
:10479000060C47F61222002306FB01C1FCF7DEFEE1
:1047A000A042A941E2DA40F2391000212AF07AF958
:1047B000D0E700BF01001A00C0AE040011000100E4
:1047C000A0AE040000A01050F0F0FCFF3E2802460E
:1047D00030D016D8142830D00AD80A2830D00F2864
:1047E00031D041F684601F4B072A18BF1846704726
:1047F0001F282BD04AF2C3201A4B292A18BF18466B
:104800007047B0F5FA7F24D00AD8FA2823D0B0F543
:10481000C87F22D0134B1448C82A18BF18467047C7
:10482000B0F5487F1BD00F4B1048B2F57A7F18BF08
:10483000184670474FF22440704745F261107047A8
:1048400042F6B100704743F60950704747F6122010
:104850007047074870470748704707487047074840
:10486000704700BF48E80100F818030040420F00FD
:1048700020A1070090D00300F0310600E0630C0097
:1048800070B503690D4693F874301446073B052B49
:104890002ED8184A52F823603046FCF7A9FD38BBE1
:1048A0002046FCF795FB4FF06E51FCF7E5FB014607
:1048B0004FF07E50FCF7D6FA314604462846FCF706
:1048C000D1FA0D49FCF78CFC01462046FCF7D4FBDD
:1048D00000210446FCF76EFD50B94FF07E51204692
:1048E000FCF786FD10B14FF07E5070BD2046FCE70E
:1048F0000020FAE7F0C404000000204170B504462F
:1049000031F07AFAD4F88039D4F88429054653EA8C
:1049100002004DD05B1B62EB0102012B72F1000023
:104920003EDB6FF00040834272F1000200DA18466D
:10493000B4F8683A9BB394F95A3A803314D0D4F857
:10494000602AD4F8646A521B66EB0106012A76F1EC
:10495000000327DB6FF000439A4276F1000600DA8D
:104960001346984228BF1846D4F8703AD4F8742AEF
:1049700053EA02041CD00F4C1B1942F100025B1BCE
:1049800062EB0101012B71F100020DDB6FF00042BF
:10499000934271F1000109DA984228BF184670BDB0
:1049A0000020C5E70023DCE70023F5E71346F3E723
:1049B0000020F4E7009749012DE9F04F8BB0044641
:1049C0008846174631F0C4F9814638B93946404621
:1049D000684A0BB0BDE8F04F2DF040BDD4F89809FF
:1049E000002800F091800A236421D4F89C295A43BE
:1049F000D4F8A03902EB50024B4303EB5003B2FB57
:104A0000F0F2B3FBF0F094F8573A04F6A81A27EA4C
:104A1000E771002B7AD194F854CA574D574B94F94B
:104A2000556ABCF1000F08BF2B460A250590B2FB62
:104A3000F5F005FB1022CDE9030209EB0602CDE9F2
:104A4000006240464E4ACDF808902DF007FDC72F72
:104A5000054640445EDDD4F89C3A791B0393D4F8B4
:104A6000983A484A0293D4F8943A0193D4F8903A89
:104A70000093D4F898392DF0F1FC054408EB0500BB
:104A8000791B94F8583A404A2DF0E8FC054420463A
:104A900031F0B4FA014640B9AF4208EB0500C8BF97
:104AA000791B3A4A2DF0DAFC0A35504631F0CDFE3A
:104AB0008346504631F0DFFE5E45B8BF5E46864213
:104AC000B246A8BF82460AF1FF36B345CABF0BF112
:104AD00002030AF101035E466FF007028342C4BF7E
:104AE0000346861E9642B8BF16460C2BA8BF0C2361
:104AF0004FF0640B099304EBC604099B9E420DDD45
:104B000028460BB0BDE8F08F02467CE794F9566A60
:104B10001F4B8AE7AF42B3DC0021B2E7B4F8EC29BF
:104B2000B4F8F0C91AB353080BFB0C33B3FBF2F320
:104B30000693B4F8F239BD42CDE904C3B4F8EE39B6
:104B4000B8BF791BCDE9022309EB0603CDE9006369
:104B5000A8BF002108EB0500B24514BF20232A237B
:104B60000C4A2DF07BFC013605440834C5E713469A
:104B7000DEE700BF23F2040060FC0400DE0805004D
:104B80002BF2040051F2040066F204006FF20400FC
:104B900018F904007AF204002DE9F84300250026F4
:104BA0004FF000084FF00009474B484F03608C332B
:104BB000436000F51863C0E902714662C0E904521F
:104BC000C0E9065505628662C0F85C58C0F86058B6
:104BD000C0F8745980F87859C0F87C59C3E9008945
:104BE00043F69823044680F88859C0F88C39C0F8F9
:104BF0009059C0F89459C0F89859C0F89C59C0F819
:104C0000A059011D00F6A81031F00AFE04F5276333
:104C1000A4F8685AC3E900893B6984F8785A5B1B99
:104C200018BF012384F8793A4FF40043C4F87C5A42
:104C3000C4F8805AC4F8845AC4F8885AA4F88C5A24
:104C400084F88E5AC4F8905AC4F8945AC4F8985A02
:104C5000C4F89C5AC4F8A05AA4F8A43AC4F8A85AB4
:104C6000C4F8AC5AA4F8B05AC4F8B45AA4F8CC5A50
:104C7000C4F8D06AC4F8D46AA4F8D85AC4F8DC5A84
:104C8000C4F8E05AC4F8E45AC4F8E85A84F8A05BBF
:104C9000A4F8A25BC4F8A45BC4F8A85BC4F8AC5B3E
:104CA00004F6641042F0E5FA0122294604F6883041
:104CB00041F003FF4FF40362294604F12C0045F054
:104CC0003BFC2046BDE8F88354C40400BCC7040084
:104CD00008B50346C068B3F8A21B8368002908BF63
:104CE000FF219B68984758B1084B98420BD841F276
:104CF000883300F5FA704000984238BF184608BD66
:104D000041F28830FBE76FF47A70F8E70BFEFF7F23
:104D100030B590F8A03B044689B0CBB900F52F65BB
:104D2000002000210A22CDE90601CDE90232CDE9B9
:104D3000004304934FF400622846064B064929F0CD
:104D400031FC0649284641F0E8FF012384F8A03BE6
:104D500009B030BD5761030048B002209AF2040048
:104D60002DE9F8430C46054617460021142220463B
:104D700045F0E2FB95F8CD3A002B35D0D5F8D00AB6
:104D8000D5F8D49A95F8D88A95F8D96A1B49FCF7D2
:104D900073F9FCF773FB20604846FCF76FFBB31F09
:104DA00080B230F08CFF022B96BF043E0126F6B293
:104DB000B8F1080F8CBF10232023A08084F8068050
:104DC000E67123812B696FF0080293F94C30277349
:104DD000162BA8BF16239342B8BF1346A37240F206
:104DE00002432382BDE8F8832B69986CD3F878904E
:104DF00093F8748093F87560C8E700BF0024744985
:104E000008B590F8CD3A5BB1D0F8D00A0649FCF766
:104E100033F94FF07C51FCF727F8FCF72FFB08BD66
:104E20000369986CF2E700BF0024744908B590F854
:104E3000CD3A63B1D0F8D40A0649FCF71DF94FF01A
:104E40007C51FCF711F8FCF719FB80B208BD03692F
:104E5000986FF1E70000204102462DE9F04731F05C
:104E6000D4F892F8CD3A0F460546002B00F0BD80ED
:104E7000D2F8D49A104631F0D2F89368044693F8E9
:104E8000008008F10506F6B2B54203D30C2D28BF09
:104E90000C25EEB248465B49FCF78CFA08B1DFF806
:104EA00068914846FCF7EAFA80B230F008FFFFF755
:104EB0008DFC082C28BF082405460120E4B2052CEF
:104EC00000FA06F038BF0524FCF782F88146284630
:104ED000FCF77AF84D49FCF783F94C49FCF7CCF81C
:104EE00001464846FCF77CF98146B8F1000F01D134
:104EF000062E7ED9082E4FF000057DD82020FCF725
:104F000067F84349FBF7B0FF294680462846FBF780
:104F1000ABFF01464046FBF7A7FF4946FCF7ACF85C
:104F20003C4980464846FCF763FA002866D04FF0BB
:104F30007E5A3046FCF74CF806463846FCF748F8EF
:104F40004FF08241FCF798F84FF081410746304618
:104F5000FCF792F801463846FBF784FF2E49FBF731
:104F600083FF4FF08341FBF77FFF4FF082410746FD
:104F70002846FCF781F801463846FBF773FF514697
:104F800007465046FBF770FF01463046FBF76AFFC5
:104F90004FF08141FCF770F84FF07E510546FCF769
:104FA00009FA08B14FF0814529463846FCF718F94F
:104FB0002FF028F805462046FCF70AF82946FCF7AA
:104FC0005BF8002145F062FD4FF08241FBF74CFF9A
:104FD0004946FCF751F84146FBF746FF0B49FCF701
:104FE0004BF8FCF74BFABDE8F0871369D3F87890DB
:104FF00040E74FF07E5581E7102080E74FF0000A30
:1050000097E700BF0000E0400000FA4200007A4449
:10501000000088405A2F863C0000E0412DE9F0470F
:1050200005468AB031F091F895F8783A05F11807FD
:10503000002B00F085800022284605A9FFF790FE8E
:105040009DF81A40BDF81C60062C8CBF4FF0080A72
:105050004FF00C0ABAF1080F0CBF112319239E421E
:105060007DDDBDF81800FFF7B1FB012102463E4887
:10507000A1400023A1FB0001FCF770FAAB680446D5
:10508000DB69002B53D0E868984780460520A6EBE3
:105090004A0909F1FF3904FB09F964220023A9FB3D
:1050A0000001FCF75BFA08F5FA63A9EB00018B42FB
:1050B000D5F87C2A3ED20E366643A1EB08018E421B
:1050C0000AFB044408D9731CA3EB090303444344BB
:1050D0005B089C4238BF1C46944203D1D5F8803A05
:1050E0008B4203D0C5F87C4AC5F8801A00261F34CD
:1050F000E86846F100031F314FEA541246F10004FC
:1051000086684909B66A42EAC36241EAC4615B093A
:105110006409AEB1DFF854C003958DE81210B047B2
:1051200070B93FF08DFC0121C5F8940911E040F2FF
:10513000DC58ABE7013203D04FF0FF33C5F87C3ABF
:10514000E8682A46836809499B6998470028E8DA95
:10515000002138460AB0BDE8F04730F079BED5F8F6
:105160007C3A0133E7E700BF40420F000D5F0300C8
:1051700038B5836804469B6A0D46BBB100F6A4307F
:1051800030F017FE034604F6AC3030F012FE18443F
:10519000D4F8843A984202D1D4F8883A3BB9C4F89A
:1051A000840A012D38BF0125C4F8885A38BD084A41
:1051B000CB1A9342FAD994F88E3A072BF6D9A36802
:1051C0009B6A0BB1E06898472046FFF727FFE8E7A6
:1051D000BF270900F8B583680446DB6A0F46002B39
:1051E00038D090F8B03A33B1D0F8A83AD0F8AC2A19
:1051F000CB1A93422ED3D4F8B43A23B14EF65F22A1
:10520000FB1A934226D9606920B303685B6898470C
:1052100001460546FCF7F6F80646D8B9284645F09B
:1052200058FC0122164B05B2C4F8AC3AB4F9A43AC2
:1052300084F8B02A13F5004FC4F8A87A02D1A4F874
:10524000A45A07E0EB1A002BB8BF5B42042B02DC28
:1052500084F8B16AF8BD94F8B13A33B943F69823AB
:1052600084F8B12AC4F8AC3AF4E7A36884F8B16AC8
:10527000DB6A0BB1E06898472046FFF7CFFEDEE718
:1052800080EE360038B504461C3030F092FD98BBF5
:10529000204631F04AF878BB30F0AEFD054604F602
:1052A000A43030F086FD034604F6AC3030F081FDCA
:1052B000D4F8842A0344934202D1D4F8883A63B9DB
:1052C0000023C4F8A03A29462046FFF751FF29469B
:1052D0002046BDE83840FFF77DBF084AEB1A9342ED
:1052E000F1D9D4F8A03A13B1EB1A9342EBD9012DBE
:1052F0002B4638BF0123E4E738BD00BFBFD401000F
:105300002DE9F843B0F8683A04463BB190F8CD8AED
:10531000B8F1000F04D0002380F89339BDE8F8837A
:1053200030F06AFDD4F8702AD4F8743A0E4652EA86
:10533000030104F52767054662D1C4F8705A7E6000
:1053400094F95A3A803315D0D4F8602AD4F8643AE4
:10535000954276EB03030DDBA36804F6A815596BA1
:1053600011B1E06888470146284631F042FB2846E3
:1053700030F022FE94F89339002BCFD0002384F82C
:10538000933994F95A3A8033C8D1204630F036FE2A
:105390000028C3D094F89239002BBFD0204630F0BB
:1053A000C4FF0028BAD104F6A819484631F0D5FA4E
:1053B000A36807461B6B83B30146E068984706461F
:1053C00030F01AFD022E80460D4629D1321E18BF3C
:1053D00001223946484631F0F4FA022E2BD12046FC
:1053E00030F00CFE10EB080045F10005643045F18B
:1053F000000584F85A7AC4F8600AC4F8645A8DE744
:105400000F49AA1A66EB0303914278EB030397DA7C
:1054100004F6A81031F08CFA8FE76FF05706CFE74B
:10542000002104F1180030F013FD2046FFF7F6FDCF
:10543000002ECBDA72E7484630F0BEFD6EE700BFC3
:105440000097490170B5044641F0B3FD4FF47A75F9
:10545000A0FB050647F61222002305FB0161FCF7BD
:105460007DF800234FF47A72FCF728F8A3681844FB
:10547000054B984207D9054B1A6882421FBF186036
:10548000034A044B1A6070BD8081A369401C03204D
:1054900033CC55AA3C1C03200023084A4360836098
:1054A000074B02601A68074B9A4205D1064B074A20
:1054B0001B68934288BF8360704700BF1CC504000F
:1054C0003C1C032033CC55AA401C03208081A369D7
:1054D000F8B505460C4641F06CFD4FF47A76A0FB1A
:1054E000060747F61222002306FB0171FCF736F887
:1054F0004FF47A720023FBF7E1FF044B044A1C606F
:10550000044B201AA8601A60F8BD00BF401C03209D
:1055100033CC55AA3C1C032070B50D461646042416
:105520003146284638F092FE48B140F23910002149
:1055300029F0B8FA013CF3D10148FEF72FFF70BD06
:10554000A7F204002DE9F04FDFF8C882ADF5397DF0
:1055500004460D46174600214FF4007238A81E4637
:1055600044F0EAFF98F8003043B9AB4837F0A7FCA5
:1055700098F8003013B9A94837F0A1FC402138A8A9
:1055800038F064FE98F8003081463BB938A831F015
:1055900040FB49460246A24837F091FC1022002108
:1055A0000AA844F0C9FF10210AA821F065FD0023D4
:1055B00001460DF21F120DF1280C8B4202DA102B5E
:1055C00040F0828098F80030002B40F01F81954811
:1055D00037F075FCBFB1B6B1202E314628BF20216F
:1055E0003A460DF22F137E1812F8010B13F8017FC3
:1055F000B24280EA07001870F6D198F8003043B93B
:10560000894837F05CFC98F8003013B9874837F0C8
:1056100056FC402194A838F019FE98F80030064650
:1056200073B994A831F0F5FA31460246804837F054
:1056300046FC98F800301BB929467E4837F03FFCFD
:1056400024AF3A467C4B03F1180C1646186859688B
:10565000083303C663453246F7D1186899889B79A9
:1056600031223060B180B371002107F11F0044F096
:1056700063FF002307932BF09DF820230DF11C0AF4
:10568000009380464FF400726C48CDF804A01CAB28
:1056900038A943F094FE064620B9DAF80090B9F133
:1056A000200F1AD020211CA830F04FFACDF804802A
:1056B000DAF800305021009338463346604A2CF027
:1056C000CDFE24A8FEF76AFE12F801EF1CF8010BCC
:1056D000013380EA0E0010706FE70146142217A80C
:1056E00044F02AFF4FF41053ADF858304FF4807354
:1056F000544A0DF1200ACDE91832ADF85A301CA9F0
:1057000053464A4616A8CAF8006043F079FD06469B
:1057100049461CA830F019FA46B1334650213846A4
:10572000494ACDF800802CF099FECAE71022314694
:105730000EA844F001FF37460DF1240BBD42DAF804
:1057400000001ED90023CBF8003010230DF14809CA
:1057500001930EAA3B49CDF808B0CDF800902AF08D
:10576000E3FEDBF80020034608B9102A1BD00092A4
:105770005021CDE90178354A24A82CF06FFE4FF076
:10578000FF36089843F072FC10210EA830F0DDF9C6
:10579000002E96D1012319462544AC421DD101B9F2
:1057A0003BB32B488EE7EA1B102A28BF1022E019D2
:1057B0004946059244F09AFE059A17444A4612F863
:1057C000013D0133DBB2137013B90EAB9A42F6D12F
:1057D0001021484630F0B9F9B0E714F8012B32B186
:1057E000FF2A14BF002303F001030021D5E713466D
:1057F000D3E738A84FF4007130F0A7F910210AA8B8
:1058000030F0A3F90DF5397DBDE8F08F002F7FF45E
:10581000E2AEFEE690AE0220C8F20400ECF2040014
:1058200034F3040063F30400A4F30400C6F304009B
:1058300013F4040042F4040033F5040009000002EC
:105840007BF4040000444004A9F40400D4F40400F0
:1058500008F50400002330B5044689B01A4620211B
:105860006846FFF76FFE694620462FF0CCF96525A4
:105870002378013BDBB2FD2B05D82021684630F0B0
:1058800064F909B030BD013D02D10748FEF786FD3D
:10589000002368461A462021FFF754FE6946204639
:1058A0002FF0B1F9E4E700BF52F504000A4B1B7872
:1058B0006BB90A4B1B7853B9094B1B784BB9094B91
:1058C00009481A78094B002A18BF1846704706483D
:1058D00070470648704700BF93AE022095AE022085
:1058E00097AE022096AE0220E0930400C0D40100DF
:1058F00002221A4B70B51A700022194B1A70194BFC
:105900001A780AB901221A70012000F04DFC012119
:105910000024084600F060FC134B47F612221C706E
:105920001248002328F0A6FD114B1B68ABB1FFF70E
:10593000BDFF2146054647F6122440F2E7304FF4FA
:105940007A720023E5FB0401FBF708FEBDE8704016
:1059500002460B46074828F059BD70BD99AE02209B
:1059600098AE022091AE022092AE0220600000208C
:10597000D404002090000020044BD3E8EF1F014323
:10598000C3E8E21F002AF8D1704700BFA0560220EA
:1059900010B5064B1878022807D1FFF7EDFF044B2E
:1059A0001B6813B1BDE81040184710BD99AE022026
:1059B000A456022010B5084B1B785BB1074B187832
:1059C000012807D1FFF7D8FF054B1B6813B1BDE8CD
:1059D0001040184710BD00BF9BAE022099AE0220B8
:1059E000A456022010B5074B1B78022B08D11020BB
:1059F000FFF7C2FF044B1B6813B1BDE81040184706
:105A000010BD00BF99AE0220A456022010B50C4C68
:105A1000D0E90023C4E90023D0E90223D0E90C0136
:105A2000C4E9022304F1100383E8030031F009F90B
:105A3000C4E906010820BDE81040FFF79DBF00BF84
:105A40007011002008B5064841F04EF9054BD3E827
:105A5000EF1F21F01001C3E8E21F002AF7D108BDB3
:105A600060000020A056022002460B46014828F0A4
:105A7000CBB800BFF80E0020014828F067B900BF7E
:105A8000F80E00202DE9F041514B0C461B78002BFD
:105A900000F09B804F4E3378012B00F096804FF042
:105AA000FF304FF0FF31FFF7DFFF94F82C20002A82
:105AB00073D0D4E90001D4E9022342EA000543EAA5
:105AC00001073D430CD13378022B05D1424B1B78A3
:105AD00013B10022404B1A70BDE8F041FFF7CCBF74
:105AE00001273E4DC5E90223A369C5E900012B61E9
:105AF000238CAF75AB8231F0A4F804F13003C5E913
:105B0000060103CB3378364A022B10605160E3D193
:105B1000238C032BDDD9304D2B783B44DBB2022B99
:105B20002B70D9D92F4B1E682F4B93F800801F7014
:105B30002E4B1F7031F085F82D4BC3E900019EB14B
:105B40002C4841F0D1F8002320462B70FFF75EFF70
:105B50000420FFF711FFFFF78FFF274B1B68002B77
:105B600033D0BDE8F04118472E70244DB8F1000F36
:105B70000BD031F066F8D5E90032C01A204B61EB4A
:105B80000201834276EB0101A6DA31F05AF8C5E949
:105B900000012046FFF73AFFDDE73378022B9BD167
:105BA0000D4B197801B11A7031F04BF842F21075B3
:105BB000144BD3E90042041B61EB0202AC4272F1C8
:105BC000000289DBC3E9000186E7BDE8F08100BF80
:105BD0009BAE022099AE022098AE0220B0110020A8
:105BE00004AD0220D404002097AE022094AE02201F
:105BF000A811002090000020A4560220901100203F
:105C0000BFD401006811002070B52C482C4C2060D6
:105C100040F005FD0146D0B9012031F051F843F6BE
:105C20000950002131F042F8032631F078F820685D
:105C300040F0ECFC10B3783020D040F63540002125
:105C400031F034F80020013E26D00028EDD00121AB
:105C5000206809F093FB032558B110F1780F04D0A8
:105C600010F1580F01D0013D1DD120F020007830F7
:105C700016D10122134B00201A7013E03225206840
:105C800040F0CDFC0028DED140F23910002131F087
:105C90000DF8013DF3D1D5E70028D8D131F03FF818
:105CA0006FF0120070BD40F63540002130F0FEFF6D
:105CB0000121206809F062FBCEE700BF80B004003C
:105CC000985602209AAE0220014B1860704700BF20
:105CD000AC560220014B1860704700BFA856022046
:105CE000014B1860704700BFA4560220014B187882
:105CF000704700BF9AAE0220014B1878704700BF72
:105D00009BAE022010B5074B04461B7843B138B94F
:105D1000014600F061FA204600F046FA024B1C7082
:105D200010BD00BF9AAE022099AE022070B5214B83
:105D300004461B78002B3BD01F4B1A78824237D089
:105D4000187050B1FFF7D4FD00F048FB1B4B1B68E7
:105D500073B32046BDE870401847194840F0C4FFAF
:105D6000184840F0C1FFFFF76DFE2146204600F0C5
:105D700033FA204600F018FA134B1A7802B11C705F
:105D80000025124B4FF0FF301D70114B4FF0FF31CB
:105D90001D70FFF769FE0F4B9D82FFF76DFE0E4BE6
:105DA0001D700E4B1D700E4B1D700E4B1D70CDE700
:105DB00070BD00BF9AAE02209BAE0220AC560220FE
:105DC000C00000209000002091AE022099AE022079
:105DD00098AE0220B011002097AE022096AE0220AD
:105DE00095AE022094AE022038B50446084D4FF01F
:105DF000FF304FF0FF31FFF737FE0FCD0FC495E8AE
:105E00000F0084E80F00BDE83840FFF735BE00BF43
:105E1000B0110020034B18684FF47A73B0FBF3F015
:105E2000704700BFD4040020014B1860704700BFCA
:105E3000D004002070B5044630B12E4B984228BFE4
:105E40001C460A2C38BF0A244FF47A7363432A4E47
:105E500033602A4B1B78002B4BD0294B1D78022D29
:105E60001FD128481CB9BDE8704040F03DBF40F04C
:105E700039FF014600283CD1FFF718FD47F61225EF
:105E8000044640F2E7304FF47A720023E4FB050148
