:1000000050030320D5FF000005D40300C1FF00000A
:10001000C1FF0000C1FF0000C1FF0000C1FF0000E0
:100020000000000000000000000000000D000100C2
:10003000C1FF000000000000DD010100C1FF000061
:100040005D0201005D0201005D0201005D02010030
:100050005D0201005D0201005D0201005D02010020
:100060005D0201005D0201005D0201005D02010010
:100070005D0201005D0201005D0201005D02010000
:100260005D0201005D020100252202005D02010025
:100270005D0201005D0201005D0201005D020100FE
:100280005D0201005D0201005D0201005D020100EE
:100290005D0201005D0201005D0201005D020100DE
:1002A0005D0201005D0201005D0201005D020100CE
:1004800081F0004102E000BF83F0004330B54FEA45
:1004900041044FEA430594EA050F08BF90EA020FB2
:1004A0001FBF54EA000C55EA020C7FEA645C7FEA45
:1004B000655C00F0E2804FEA5454D4EB5555B8BF68
:1004C0006D420CDD2C4480EA020281EA030382EAD9
:1004D000000083EA010180EA020281EA0303362D6B
:1004E00088BF30BD11F0004F4FEA01314FF4801C3E
:1004F0004CEA113102D0404261EB410113F0004F50
:100500004FEA03334CEA133302D0524263EB430306
:1005100094EA050F00F0A780A4F10104D5F1200EA4
:100520000DDB02FA0EFC22FA05F2801841F10001FF
:1005300003FA0EF2801843FA05F359410EE0A5F1D3
:1005400020050EF1200E012A03FA0EFC28BF4CF004
:10055000020C43FA05F3C01851EBE37101F00045BA
:1005600007D54FF0000EDCF1000C7EEB00006EEBC7
:100570000101B1F5801F1BD3B1F5001F0CD3490851
:100580005FEA30004FEA3C0C04F101044FEA4452A8
:1005900012F5800F80F09A80BCF1004F08BF5FEA2F
:1005A000500C50F1000041EB045141EA050130BD0F
:1005B0005FEA4C0C404141EB0101013C28BFB1F521
:1005C000801FE9D291F0000F04BF01460020B1FA6C
:1005D00081F308BF2033A3F10B03B3F120020CDA3F
:1005E0000C3208DD02F1140CC2F10C0201FA0CF01D
:1005F00021FA02F10CE002F11402D8BFC2F1200C82
:1006000001FA02F120FA0CFCDCBF41EA0C01904037
:10061000E41AA2BF01EB0451294330BD6FEA040480
:100620001F3C1CDA0C340EDC04F11404C4F120026B
:1006300020FA04F001FA02F340EA030021FA04F37D
:1006400045EA030130BDC4F10C04C4F1200220FAD4
:1006500002F001FA04F340EA0300294630BD21FA12
:1006600004F0294630BD94F0000F83F4801306BFD8
:1006700081F480110134013D4EE77FEA645C18BFCC
:100680007FEA655C29D094EA050F08BF90EA020F63
:1006900005D054EA000C04BF1946104630BD91EA5B
:1006A000030F1EBF0021002030BD5FEA545C05D15E
:1006B0004000494128BF41F0004130BD14F580049D
:1006C0003CBF01F5801130BD01F0004545F0FE4111
:1006D00041F470014FF0000030BD7FEA645C1ABF46
:1006E000194610467FEA655C1CBF0B46024650EA7D
:1006F000013406BF52EA033591EA030F41F40021A9
:1007000030BD00BF90F0000F04BF0021704730B52E
:100710004FF4806404F132044FF000054FF0000103
:1007200050E700BF90F0000F04BF0021704730B5C4
:100730004FF4806404F1320410F0004548BF404299
:100740004FF000013EE700BF42004FEAE2014FEAEE
:1007500031014FEA02701FBF12F07F4393F07F4FC9
:1007600081F06051704732F07F4208BF704793F0CC
:100770007F4F04BF41F40021704730B54FF46074DF
:1007800001F0004521F000411CE700BF50EA0102E2
:1007900008BF704730B54FF000050AE050EA01028B
:1007A00008BF704730B511F0004502D5404261EBFB
:1007B00041014FF4806404F132045FEA915C3FF43C
:1007C000D8AE4FF003025FEADC0C18BF03325FEAD9
:1007D000DC0C18BF033202EBDC02C2F1200300FA8A
:1007E00003FC20FA02F001FA03FE40EA0E0021FAAF
:1007F00002F11444BDE600BF70B54FF0FF0C4CF49D
:10080000E06C1CEA11541DBF1CEA135594EA0C0F4E
:1008100095EA0C0F00F0DEF82C4481EA030621EA89
:100820004C5123EA4C5350EA013518BF52EA0335C4
:1008300041F4801143F4801338D0A0FB02CE4FF076
:100840000005E1FB02E506F00042E0FB03E54FF0A6
:100850000006E1FB03569CF0000F18BF4EF0010E9E
:10086000A4F1FF04B6F5007F64F5407404D25FEA9A
:100870004E0E6D4146EB060642EAC62141EA55514D
:100880004FEAC52040EA5E504FEACE2EB4F1FD0C8F
:1008900088BFBCF5E06F1ED8BEF1004F08BF5FEA0D
:1008A000500E50F1000041EB045170BD06F00046BF
:1008B00046EA010140EA020081EA0301B4EB5C046C
:1008C000C2BFD4EB0C0541EA045170BD41F4801164
:1008D0004FF0000E013C00F3AB8014F1360FDEBF89
:1008E000002001F0004170BDC4F10004203C35DA65
:1008F0000C341BDC04F11404C4F1200500FA05F3E8
:1009000020FA04F001FA05F240EA020001F0004288
:1009100021F0004110EBD37021FA04F642EB0601FE
:100920005EEA430E08BF20EAD37070BDC4F10C0428
:10093000C4F1200500FA04F320FA05F001FA04F2EC
:1009400040EA020001F0004110EBD37041F10001D8
:100950005EEA430E08BF20EAD37070BDC4F12005E3
:1009600000FA05F24EEA020E20FA04F301FA05F24B
:1009700043EA020321FA04F001F0004121FA04F2F3
:1009800020EA020000EBD3705EEA430E08BF20EAC3
:10099000D37070BD94F0000F0FD101F000464000FD
:1009A00041EB010111F4801F08BF013CF7D041EA7F
:1009B000060195F0000F18BF704703F00046520083
:1009C00043EB030313F4801F08BF013DF7D043EA54
:1009D0000603704794EA0C0F0CEA135518BF95EA0A
:1009E0000C0F0CD050EA410618BF52EA4306D1D191
:1009F00081EA030101F000414FF0000070BD50EAB0
:100A0000410606BF1046194652EA430619D094EA39
:100A10000C0F02D150EA013613D195EA0C0F05D123
:100A200052EA03361CBF104619460AD181EA030177
:100A300001F0004141F0FE4141F470014FF000002F
:100A400070BD41F0FE4141F4780170BD70B54FF0CA
:100A5000FF0C4CF4E06C1CEA11541DBF1CEA13554A
:100A600094EA0C0F95EA0C0F00F0A7F8A4EB05042C
:100A700081EA030E52EA03354FEA013100F0888023
:100A80004FEA03334FF0805545EA131343EA1263EC
:100A90004FEA022245EA111545EA10654FEA0026A1
:100AA0000EF000419D4208BF964244F1FD0404F55A
:100AB000407402D25B084FEA3202B61A65EB0305B6
:100AC0005B084FEA32024FF480104FF4002CB6EB73
:100AD000020E75EB030E22BFB61A754640EA0C00F3
:100AE0005B084FEA3202B6EB020E75EB030E22BF33
:100AF000B61A754640EA5C005B084FEA3202B6EB74
:100B0000020E75EB030E22BFB61A754640EA9C0032
:100B10005B084FEA3202B6EB020E75EB030E22BF02
:100B2000B61A754640EADC0055EA060E18D04FEAC0
:100B3000051545EA16754FEA06164FEAC30343EA60
:100B400052734FEAC2025FEA1C1CC0D111F4801F2D
:100B50000BD141EA00014FF000004FF0004CB6E726
:100B600011F4801F04BF01430020B4F1FD0C88BFC5
:100B7000BCF5E06F3FF6AFAEB5EB030C04BFB6EBD0
:100B8000020C5FEA500C50F1000041EB045170BDC3
:100B90000EF0004E4EEA113114EB5C04C2BFD4EBF0
:100BA0000C0541EA045170BD41F480114FF0000E74
:100BB000013C90E645EA060E8DE60CEA135594EAF0
:100BC0000C0F08BF95EA0C0F3FF43BAF94EA0C0FF3
:100BD0000AD150EA01347FF434AF95EA0C0F7FF468
:100BE00025AF104619462CE795EA0C0F06D152EABC
:100BF00003353FF4FDAE1046194622E750EA4106A0
:100C000018BF52EA43067FF4C5AE50EA41047FF4B0
:100C10000DAF52EA43057FF4EBAE12E74FF0FF3C15
:100C200006E000BF4FF0010C02E000BF4FF0010CE6
:100C30004DF804CD4FEA410C7FEA6C5C4FEA430C5F
:100C400018BF7FEA6C5C1BD001B050EA410C0CBFAE
:100C500052EA430C91EA030F02BF90EA020F002010
:100C6000704710F1000F91EA030F58BF994208BF77
:100C700090422CBFD8176FEAE37040F00100704734
:100C80004FEA410C7FEA6C5C02D150EA013C07D18B
:100C90004FEA430C7FEA6C5CD6D152EA033CD3D0D6
:100CA0005DF8040B704700BF8446104662468C46D0
:100CB0001946634600E000BF01B5FFF7B7FF002803
:100CC00048BF10F1000F01BD4DF808EDFFF7F4FF2C
:100CD0000CBF012000205DF808FB00BF4DF808EDB7
:100CE000FFF7EAFF34BF012000205DF808FB00BFDA
:100CF0004DF808EDFFF7E0FF94BF012000205DF8FC
:100D000008FB00BF4DF808EDFFF7CEFF94BF0120B0
:100D100000205DF808FB00BF4DF808EDFFF7C4FFA9
:100D200034BF012000205DF808FB00BF4FEA4102FC
:100D300012F5001215D211D56FF47873B3EB62522D
:100D400012D94FEAC12343F0004343EA505311F054
:100D5000004F23FA02F018BF404270474FF00000E6
:100D6000704750EA013005D111F0004008BF6FF024
:100D7000004070474FF00000704700BF4A0011D29A
:100D800012F5001211D20DD56FF47873B3EB6252E5
:100D90000ED44FEAC12343F0004343EA505323FAF1
:100DA00002F070474FF00000704750EA013002D166
:100DB0004FF0FF3070474FF0000070474FEA41029C
:100DC000B2F1E04324BFB3F5001CDCF1FE5C0DD9A9
:100DD00001F0004C4FEAC0024CEA5070B2F1004FF3
:100DE00040EB830008BF20F00100704711F0804FF6
:100DF00021D113F13872BCBF01F00040704741F4BB
:100E000080114FEA5252C2F11802C2F1200C10FABE
:100E10000CF320FA02F018BF40F001004FEAC123A2
:100E20004FEAD32303FA0CFC40EA0C0023FA02F346
:100E30004FEA4303CCE77FEA625307D150EA01331C
:100E40001EBF4FF0FE4040F44000704701F00040EC
:100E500040F0FE4040F40000704700BF80F00040CA
:100E600002E000BF81F0004142001FBF5FEA410382
:100E700092EA030F7FEA226C7FEA236C6AD04FEA82
:100E80001262D2EB1363C1BFD218414048404140C7
:100E9000B8BF5B42192B88BF704710F0004F40F479
:100EA000000020F07F4018BF404211F0004F41F495
:100EB000000121F07F4118BF494292EA030F3FD061
:100EC000A2F1010241FA03FC10EB0C00C3F1200374
:100ED00001FA03F100F0004302D5494260EB400003
:100EE000B0F5000F13D3B0F1807F06D340084FEA6E
:100EF000310102F10102FE2A51D2B1F1004F40EB63
:100F0000C25008BF20F0010040EA030070474900CA
:100F100040EB0000013A28BFB0F5000FEDD2B0FA67
:100F200080FCACF1080CB2EB0C0200FA0CF0AABF8A
:100F300000EBC25052421843BCBFD0401843704728
:100F400092F0000F81F4000106BF80F4000001322E
:100F5000013BB5E74FEA41037FEA226C18BF7FEA05
:100F6000236C21D092EA030F04D092F0000F08BF47
:100F70000846704790EA010F1CBF0020704712F02E
:100F80007F4F04D1400028BF40F00040704712F16D
:100F900000723CBF00F50000704700F0004343F0D2
:100FA000FE4040F4000070477FEA226216BF084608
:100FB0007FEA23630146420206BF5FEA412390EACB
:100FC000010F40F4800070474FF0000304E000BFC1
:100FD00010F0004348BF40425FEA000C08BF704772
:100FE00043F0964301464FF000001CE050EA010236
:100FF00008BF70474FF000030AE000BF50EA01024B
:1010000008BF704711F0004302D5404261EB410137
:101010005FEA010C02BF84460146002043F0B6435C
:1010200008BFA3F18053A3F50003BCFA8CF2083A81
:10103000A3EBC25310DB01FA02FC634400FA02FC8A
:10104000C2F12002BCF1004F20FA02F243EB020091
:1010500008BF20F00100704702F1200201FA02FCF3
:10106000C2F1200250EA4C0021FA02F243EB0200E6
:1010700008BF20EADC7070474FF0FF0C1CEAD0522A
:101080001EBF1CEAD15392EA0C0F93EA0C0F6FD0EB
:101090001A4480EA010C400218BF5FEA41211ED0C9
:1010A0004FF0006343EA501043EA5111A0FB0131B5
:1010B0000CF00040B1F5000F3EBF490041EAD3718A
:1010C0005B0040EA010062F17F02FD2A1DD8B3F106
:1010D000004F40EBC25008BF20F00100704790F075
:1010E000000F0CF0004C08BF49024CEA502040EAC7
:1010F00051207F3AC2BFD2F1FF0340EAC25070478D
:1011000040F400004FF00003013A5DDC12F1190FCA
:10111000DCBF00F000407047C2F10002410021FA3C
:1011200002F1C2F1200200FA02FC5FEA310040F154
:10113000000053EA4C0308BF20EADC70704792F0CD
:10114000000F00F0004C02BF400010F4000F013A05
:10115000F9D040EA0C0093F0000F01F0004C02BF00
:10116000490011F4000F013BF9D041EA0C018FE76F
:101170000CEAD15392EA0C0F18BF93EA0C0F0AD075
:1011800030F0004C18BF31F0004CD8D180EA01009B
:1011900000F00040704790F0000F17BF90F0004F34
:1011A000084691F0000F91F0004F14D092EA0C0F16
:1011B00001D142020FD193EA0C0F03D14B0218BFA9
:1011C000084608D180EA010000F0004040F0FE40EF
:1011D00040F40000704740F0FE4040F4400070478B
:1011E0004FF0FF0C1CEAD0521EBF1CEAD15392EA0A
:1011F0000C0F93EA0C0F69D0A2EB030280EA010CFA
:1012000049024FEA402037D04FF0805343EA111192
:1012100043EA10130CF000408B4238BF5B0042F1F0
:101220007D024FF4000C8B4224BF5B1A40EA0C0095
:10123000B3EB510F24BFA3EB510340EA5C00B3EBC7
:10124000910F24BFA3EB910340EA9C00B3EBD10FB5
:1012500024BFA3EBD10340EADC001B0118BF5FEA07
:101260001C1CE0D1FD2A3FF650AF8B4240EBC25030
:1012700008BF20F0010070470CF0004C4CEA5020F1
:101280007F32C2BFD2F1FF0340EAC250704740F440
:1012900000004FF00003013A37E792F0000F00F032
:1012A000004C02BF400010F4000F013AF9D040EAB0
:1012B0000C0093F0000F01F0004C02BF490011F444
:1012C000000F013BF9D041EA0C0195E70CEAD1533C
:1012D00092EA0C0F08D142027FF47DAF93EA0C0F23
:1012E0007FF470AF084676E793EA0C0F04D14B0207
:1012F0003FF44CAF08466EE730F0004C18BF31F0B9
:10130000004CCAD130F000427FF45CAF31F00043B2
:101310007FF43CAF5FE700BF4FF0FF3C06E000BF4B
:101320004FF0010C02E000BF4FF0010C4DF804CD6E
:101330004FEA40024FEA41037FEA226C18BF7FEA7E
:10134000236C11D001B052EA530C18BF90EA010F80
:1013500058BFB2EB030088BFC81738BF6FEAE1700F
:1013600018BF40F0010070477FEA226C02D15FEAAB
:10137000402C05D17FEA236CE4D15FEA412CE1D017
:101380005DF8040B704700BF844608466146FFE7DE
:101390000FB5FFF7C9FF002848BF10F1000F0FBDC0
:1013A0004DF808EDFFF7F4FF0CBF012000205DF8B9
:1013B00008FB00BF4DF808EDFFF7EAFF34BF01203E
:1013C00000205DF808FB00BF4DF808EDFFF7E0FFD7
:1013D00094BF012000205DF808FB00BF4DF808ED28
:1013E000FFF7D2FF94BF012000205DF808FB00BF8B
:1013F0004DF808EDFFF7C8FF34BF012000205DF86D
:1014000008FB00BF4FEA40024FEA41037FEA226C2B
:1014100002D15FEA402C08D17FEA236C02D15FEA57
:10142000412C02D14FF0000070474FF0010070478F
:101430004FEA4002B2F1FE4F0FD34FF09E03B3EBE1
:1014400012620DD94FEA002343F0004310F0004F21
:1014500023FA02F018BF404270474FF00000704777
:1014600012F1610F01D1420205D110F0004008BF16
:101470006FF0004070474FF00000704742000ED2FE
:10148000B2F1FE4F0BD34FF09E03B3EB126209D4BF
:101490004FEA002343F0004323FA02F070474FF075
:1014A0000000704712F1610F01D1420202D14FF0EA
:1014B000FF3070474FF00000704700BF7BB972B932
:1014C0000029BEBF00204FF0004106E008BF002801
:1014D0001CBF6FF000414FF0FF3000F077B8ADF166
:1014E000080C6DE904CE002909DB002B1ADB00F0A3
:1014F000AFF8DDF804E0DDE9022304B070474042B4
:1015000061EB4101002B1BDB00F0A2F8DDF804E0E9
:10151000DDE9022304B0404261EB4101524263EB3A
:1015200043037047524263EB430300F091F8DDF848
:1015300004E0DDE9022304B0404261EB4101704761
:10154000524263EB430300F083F8DDF804E0DDE989
:10155000022304B0524263EB4303704753B94AB9C4
:10156000002908BF00281CBF4FF0FF314FF0FF30AB
:1015700000F02CB8ADF1080C6DE904CE00F068F86D
:10158000DDF804E0DDE9022304B07047D0B5FFF7D1
:10159000DBF800220B4B06460F46FFF72DF9FFF74D
:1015A000EDFB0446FFF7AEF80022074BFFF724F9E6
:1015B00002460B4630463946FEF766FFFFF7DEFB74
:1015C0002146D0BD0000F03D0000F041704700BF53
:1015D00010F8012B11F8013B012A28BF9A42F7D0DD
:1015E000D01A7047034611F8012B03F8012B002A8B
:1015F000F9D17047034613F8012B002AFBD1181AC2
:1016000001387047430803F05533C01A00F03333F4
:10161000800800F0333018444FF0013300EB101015
:1016200000F00F305843000E704710B500210446FB
:10163000FFF7C0FE20B92046BDE81040FFF7A6BF67
:1016400004F10040FFF7A2FF404261EB410110BDF1
:101650002DE9F0478C468E46089E154604461946ED
:10166000002B40F0D080724547D9B2FA82F74FB1D3
:10167000C7F120030EFA07FCBD40BC4020FA03F37B
:1016800043EA0C0C4FEA154EA8B2230CBCFBFEF843
:101690000EFB18CC08FB00F943EA0C43994528D906
:1016A000EB1808F1FF3204D2994502D9A8F10202E1
:1016B0002B44A3EB0903A4B2B3FBFEFC0EFB1C33CB
:1016C0000CFB00F044EA0344A04214D92C190CF19D
:1016D000FF3304D2A04202D9ACF102032C44241AF5
:1016E00043EA02401EB1FC40002334607360BDE851
:1016F000F0874246DDE76346F1E7002A79D0B2FA87
:1017000082F3002B3FD01946C1F1200302FA01F504
:1017100000FA01F42EFA03F20EFA01FE20FA03F3A6
:10172000AFB243EA0E034FEA154EB2FBFEFC0EFBCE
:101730001C201A0C0CFB07F842EA004290455AD9CB
:10174000AA180CF1FF3004D2904502D9ACF1020086
:101750002A44A2EB08029BB2B2FBFEFC0EFB1C2249
:101760000CFB07F743EA02439F4246D9EB180CF102
:10177000FF3204D29F4202D9ACF102022B44DB1BA0
:1017800042EA004202E0AEEB020301224FEA154EAC
:10179000AFB2200CB3FBFEFC0EFB1C330CFB07F8B6
:1017A00040EA034398452AD9EB180CF1FF3004D2E4
:1017B000984502D9ACF102002B44A3EB0803A4B274
:1017C000B3FBFEFC0EFB1C330CFB07F744EA03449F
:1017D000A74216D92C190CF1FF3304D2A74202D923
:1017E000ACF102032C44E41B43EA00400F461146CF
:1017F00078E71F2188E76046ABE76246BFE76046AF
:10180000DBE76346EFE7734506D916B900210846C2
:101810006DE7C6E9000EF9E7B3FA83F787B97345B8
:1018200001D3824207D8841A6EEB030301209C4641
:101830001EB900215BE73846FAE7C6E9004CF8E735
:10184000C7F1200CBB4000FA07F422FA0CF520FA8D
:101850000CF1BA401D432EFA0CF30EFA07FE4FEAC4
:10186000154941EA0E011FFA85FEB3FBF9F809FBA1
:1018700018300B0C08FB0EFA43EA00439A4540D996
:10188000EB1808F1FF3004D29A4502D9A8F1020002
:101890002B44A3EB0A0389B2B3FBF9F809FB183315
:1018A00008FB0EFE41EA03418E452CD9691808F168
:1018B000FF3304D28E4502D9A8F10203294443EA3A
:1018C0000040A1EB0E01A0FB02984145CE464346E5
:1018D00002D306D14C4504D20138B9EB020E68EBB5
:1018E0000503002EA5D0B4EB0E0261EB030101FA53
:1018F0000CFC22FA07F3F9404CEA0303C6E9003175
:1019000097E74046C5E74346D9E7000000000000DE
:1019100000222DE9F04F664B87B0D3E8EF5FC3E8B4
:10192000E12F0029F9D1002D00F0B9802A074DD50B
:10193000DFF880B1DBF80030002B47D04FF0FF30EC
:101940004FF0FF3103F0F4FF5B4B04ACD3E900121E
:10195000D3E90289CDE90212D3E90676D3E904017D
:1019600084E8030003F0ECFF204634F06AFF01280E
:1019700071F1000304468A460DDB34F053FFC01BAF
:1019800061EB06014FF47A720023FFF797FD00190F
:1019900004464AEB010A40464946FEF7FFFE42A3D1
:1019A000D3E90023FFF752F880468946DDE90201BA
:1019B000FEF7F4FE3CA3D3E90023FFF747F8CDE997
:1019C000004A42464B46DBF80040A04715F00104B0
:1019D0002BD03A4B1B782BB1394B1B78012B01D103
:1019E00003F0EAFEEB065AD5354B1B78022B56D195
:1019F000344B1878421C1A7004F0CEFC04460028C0
:101A000049D047F6122540F2E73000214FF47A72B0
:101A10000023E4FB0501FFF7A1FD02460B462A481F
:101A200007B0BDE8F04F2CF0E9BA15F0060FD9D099
:101A3000234B1A78022AD5D101271F70234B244A41
:101A40001C70244B16681F7034F0ECFE224BC3E967
:101A50000001224BC3E9006403F058FF39462046D9
:101A600004F014FB204604F0F9FA1D4B1A7802B179
:101A70001C7047F6122440F2E73000214FF47A72CE
:101A80000023E6FB0401FFF769FD02460B461548FB
:101A90002CF080FAA6E7144A13680133136007B0EC
:101AA000BDE8F08FAFF300800000000065CDCD41B0
:101AB00020560220285602206811002012AE022073
:101AC00010AE02200AAE0220600000200FAE0220FD
:101AD000D00400200DAE02209811002090110020AB
:101AE00009AE0220C00000201C56022000000000A9
:101AF0002DE9F04F8E070F4614468FB040F18F80CE
:101B000004F05EF8002800F08A8004A804F07CF954
:101B1000002800F0848094F8C15094F8C03005F19A
:101B20000A0898457BDADDE90401FEF737FE98A341
:101B3000D3E90023FEF78AFFFFF740F99649FFF744
:101B40009BFA00210646FFF735FC4FF07C51002838
:101B50006CD03046FFF786F9FFF76AFC8146DDE975
:101B60000601FEF71BFE8AA3D3E90023FEF76EFFF2
:101B7000FFF724F98849FFF77FFA00210646FFF7AF
:101B800019FC4FF07C51002854D03046FFF76AF919
:101B9000FFF74EFC06460898FFF71AFA7F49FFF751
:101BA0001FFB7F49FFF768FA00218246FFF702FC1E
:101BB0004FF07C51002841D05046FFF753F9FFF712
:101BC00037FC012388226355EB18DBB2E254AB1CCF
:101BD000DBB24FEA2942E254EB1CDBB24FEA292286
:101BE000E2542B1DDBB204F803906B1DDBB2321400
:101BF000E254AB1DDBB23212E254EB1DDBB2E65411
:101C000005F10803DBB20214E25405F10903DBB26B
:101C100002120B35E25484F8C15004F808007D0725
:101C200000F1AC8001200FB0BDE8F08F3046FFF727
:101C30001BF991E73046FFF717F9A9E75046FFF780
:101C400013F9BCE7404604F0D5FC80B909F1010363
:101C50004D465FFA83F9404604A904F0DDFC40B12B
:101C600008F1010804F0C0FC4045EBDCDAE701258F
:101C7000F1E7BDF81070F8061DD5DDF824B0514627
:101C80005846FFF797FB002873D158464549FFF7A0
:101C9000AFFB00286FD15846FFF7F0FBFFF794F930
:101CA0000022CDE9016202220346009265212A4604
:101CB000204634F071FEF9070AD502230A22672173
:101CC000CDE9003220462A46059B029634F064FE98
:101CD000BB070BD502234FF0000C2A46CDE9013C8F
:101CE00068212046069B009634F056FE78070BD5F7
:101CF0000A230021CDE9013102232A4600937321F2
:101D00002046079B34F048FE3A0709D502232A46AD
:101D1000009379212046CDE90166089B34F03CFE12
:101D2000BB060AD5022364202A46CDE9003074217F
:101D300020460A9B029634F02FFE79060BD502232B
:101D40004FF47A727521CDE9003220462A460B9B6A
:101D5000029634F021FE3B0682D50023CDE90163D3
:101D600002232A460093802120460C9B34F014FE67
:101D700076E7D3468FE74FF6FF708FE74FF0000806
:101D80004FF0020901264FF0000A6BE7AFF3008025
:101D90000000000065CDCD4100401C4600007A44A3
:101DA0000000C84200FF7F4730B50D46194640F29B
:101DB00001138FB00446CDE90135104610A3D3E9D5
:101DC0000023FEF719FDFEF7B1FF0DA3D3E90023B1
:101DD0000390DDE91201FEF70FFDFEF7A7FF0023D8
:101DE000049006A901A8059334F076FE06AA0346DE
:101DF00004F50671204632F050FF0FB030BD00BF31
:101E00000000000080842E412DE9F041072A05469C
:101E100098B006D8062137F096FB012018B0BDE82F
:101E2000F081002700F5B03484F8187300F504360B
:101E3000D6F8000886F83C7018B13AF008FCC6F8ED
:101E40000078002705F50638C6F80478C6F8087843
:101E5000C6F8BC7B08F5707044F0D2FC012386F80C
:101E60009E3BA86E03681B68984700F6B830C8E927
:101E7000E807284686F8B87B39F0C9FF94F899320C
:101E80007BB196F8B83B63B9D6F8583A4BB12846BF
:101E900009F0C6FD28B1A86F03681B689847C6F80B
:101EA000580A40F20513ADF8043094F87C3102AEC4
:101EB0008DF80630162305F50E778DF8073005F5F9
:101EC0000673324618685968083303C2BB42164687
:101ED000F7D1D4E958012AA3D3E90023FEF78CFCFB
:101EE000FEF724FF26A3D3E900230646D4E95601D2
:101EF000FEF782FCFEF71AFF94F8A73194F85422FB
:101F00008DF8303094F8BC31CDE90A068DF83130C7
:101F100094F85332D4F878019B0043EA021394F802
:101F20005222194913438DF8323094F8513204F596
:101F30009A748DF83330FFF79FF8FFF79FFA124934
:101F40000D90606FFFF798F8FFF798FAB4F87030CB
:101F50000E901F212046ADF83C3048F0EEF80646C2
:101F6000024621460DF13E0048F04CF8284606F1A5
:101F70003A0201A937F0CEFA4FE700BFAFF3008075
:101F80000000000080842E4100007A440000000020
:101F9000082AF8B5044632D9481C37F0BCF81C4A68
:101FA0001C4E0244B242034629D8481D37F0B3F80C
:101FB000194A0546904222DBB04220DC1846FEF763
:101FC000B1FB11A3D3E90023FEF740FD04F5B036C1
:101FD000C6E956012846FEF7A5FB0BA3D3E900236B
:101FE000FEF734FDC6E95801D6F8000306F59871EE
:101FF00008F034F8204637F09BFA0120F8BD06219E
:10200000204637F0A0FAF8E70000000080842E4157
:10201000804A5D050095BA0A006B45F50000000096
:102020002DE9F041151D06460F469AB028469949FC
:102030001C46FFF7CDFA30B9974920461AB0BDE8E3
:10204000F041FFF7CFBA0A222846944948F013F826
:10205000C8B9736993F88120914B197991420BD1DA
:102060001B68904A0092904A4FF4807120462FF0EE
:10207000B9FF1AB0BDE8F0810130042803F108036C
:10208000EBD18A4BEDE707222846894947F0F3FF59
:1020900080B9736993F88220864B1979914202D1F5
:1020A0001B68854ADEE70130042803F10803F4D1F8
:1020B0007E4BF6E704222846804947F0DCFF40B912
:1020C000736993F880207E4B7E49002A08BF0B4637
:1020D0002FE0062228467C4947F0CDFF58B97369A6
:1020E00093F82C0105F05CF8054605F06BF82B46DB
:1020F000764A0090B8E715222846754947F0BBFF9D
:1021000020B9736993F84F30724A13E00F222846C2
:10211000714947F0B0FF20B9736993F84E305B0006
:10212000F2E70E2228466D4947F0A5FF50B97369C2
:1021300058336B4A4FF4807120461AB0BDE8F04125
:102140002FF050BFDFB907222846664947F093FFBA
:10215000A8B9B0691C3603685B6D984740220AA98C
:1021600032F05BFB0AA90246304602F0FBF8334628
:102170004FF4807120465A4A2FF034FF79E7042249
:102180002846594947F077FF10B973690433D0E7FF
:1021900006222846554947F06EFF18B9736993F82F
:1021A0004D2090E703222846514947F064FF58B973
:1021B0007369D3E90A23CDE900234E4A4FF48071B5
:1021C00020462FF00FFF54E7032228464A4947F0E4
:1021D00052FF18B97369D3E90C23ECE710222846A3
:1021E000464947F048FF18B9736993F87E308BE78A
:1021F00012222846424947F03EFF18B9736993F806
:102200007D3081E7092228463E4947F034FF18B95E
:10221000736993F87C3077E7122228463A4947F0F1
:102220002AFF38B97369D86EFEF78EFA374ACDE9BE
:102230000001C3E70A222846354947F01CFF90B940
:102240003E23224602F8023B2023637071699731D6
:1022500011F8013F0BB913700BE70A2B08BF7C2361
:1022600002F8013BF4E70B2228462A4947F003FF16
:10227000002859D1736993F831310BB92649DCE64E
:10228000012B01D12549D8E6022B0CBF2449254951
:10229000D3E600BF300005003300050057000500FD
:1022A00080C704006900050062000500C6F0040054
:1022B0008700050060C70400821605008F00050036
:1022C00053F70400AE030500940005009B000500D1
:1022D000A5000500A7FC0400AB000500BB0005003D
:1022E00048F20400CA0005002CFC04004AF4040073
:1022F00042F40400D200050046F40400D9000500B1
:10230000EA000500FD00050007010500A0FC04002F
:102310001A010500250105003101050037010500FE
:10232000410105004C0105000A222846A04947F05A
:10233000A2FE78B99F492046FFF754F9B0690368B7
:102340005B6D984720220146A01C1AB0BDE8F04101
:1023500002F008B804222846974947F08CFE28B9B5
:10236000B0690368DB6898470346E2E60E22284618
:10237000924947F080FE08B991495EE60D22284651
:10238000904947F078FE08B98F4956E61122284651
:102390008E4947F070FEB0B935682B682846D3E9FE
:1023A0001737984701462846B847366805463368C8
:1023B0003046D3E91937984701463046B8472B468F
:1023C000834A009050E60D222846824947F053FE8A
:1023D0000028D9D00E2228467F4947F04CFE50B93C
:1023E0003068202203680AA99B6B984708B10AABA2
:1023F000BEE67A4921E60E222846794947F03BFE9F
:1024000028BB30680368DB68984700210746FEF761
:10241000C7FF08B1734910E6306803681B68984726
:1024200005463846FEF790F96DB16F4B6F4A1B6851
:102430001B88CDE90001CDE902534FF4807120469D
:102440002FF0D0FD15E6CDE90001694AB6E6062277
:102450002846684947F00FFE20B9736993F8123196
:10246000654A67E60E222846644947F004FE08B92B
:102470006349E2E50C222846624947F0FCFD18B9A1
:102480000CF064F90346EBE7092228465E4947F061
:10249000F2FD18B9736993F91F31E1E70822284664
:1024A0005A4947F0E8FD90B977B196F8E010C1F1CC
:1024B000A1013E23237020230239A01C63701AB0AF
:1024C000BDE8F04103F098BF4FF48071F1E70822B6
:1024D00028464F4947F0CFFD38B903F0FBFB0346D0
:1024E00000287FF411AE4B49A7E5032228464A494C
:1024F00047F0C1FD002846D103F062FB00283FF4FD
:10250000BDAE07A803F0DAFC9DF81C300AA8022B28
:1025100096BF424A424D52F8235003F075FCBDF875
:102520001E6000B3DDE90C01FEF738F91EA3D3E904
:102530000023FEF78BFACDE90401DDE90A01FEF77D
:102540002DF919A3D3E90023FEF780FA089BCDE902
:102550000201CDE900634FF480712B462046314AD9
:102560002FF040FD85E5099B4BB1CDE900634FF4A9
:1025700080712B4620462C4A2FF034FD79E52B46FE
:102580002A4A009670E50B222846294947F073FD38
:1025900000284FD1B0690368D3F8803098470346CC
:1025A000B2E500BFAFF300800000000065CDCD4173
:1025B0005501050066FD0400600105006501050088
:1025C000740105008201050090010500B6010500B7
:1025D000C8010500E2010500F0010500FF0105004A
:1025E0000902050018020500C4C2040039020500F2
:1025F000640205007D02050059FD04008402050007
:1026000093020500B70205008CFC0400C40205001B
:10261000CD020500D6020500A2F1040054C7040053
:1026200001020500E60205001A030500400305004B
:102630005D0305000E222846564947F01CFD18B9D7
:10264000736993F818315FE509222846524947F02B
:1026500012FDC8B9AFB196F8E050C5F1A105294601
:102660004E4A20462FF0BEFC0146B0696A1A036844
:102670002144D3F88830984700287FF4FAAC4849C1
:10268000DBE44FF48075EAE708222846454947F025
:10269000F2FC28B97369444993F81621434B14E5B9
:1026A0000A222846424947F0E6FC18B9736993F9B3
:1026B0001731D5E60B2228463E4947F0DCFC38B9F5
:1026C000736993F81931002B7FF41EAD3A49B4E4D5
:1026D00028463A49FEF77CFF08B93949ADE408229B
:1026E0002846384947F0C7FC002847D00C22284626
:1026F000354947F0C0FC002848D1B0690368D3F8D9
:102700009830984705460028B9D0002F3BD096F85E
:10271000E070C7F1A107706803681B68984780469E
:1027200039F07CFD73694FF47A7293F81531003BF0
:1027300018BF012301930023FEF7C0FE434600901B
:102740003A462146284604F01DFA92E41F4A3846CC
:10275000002D18BF42461E492FF06EFC0135032D97
:1027600007443FF486AC73692B4493F81A31002B6D
:10277000ECD1002D7FF47DAC16495EE4274605467A
:10278000DFF85480EFE74FF48077C4E72B46134A15
:10279000D0E400BF690305007803050066FD04006E
:1027A000F1F904008203050053F70400AE030500AD
:1027B0008B03050096030500A203050096FB0400A9
:1027C000AC030500B103050036FA040082160500CB
:1027D000BA030500BF030500B8170500D6030500BE
:1027E000012208B50A4B0B481A7007A3D3E900234E
:1027F0002BF004FC084B1B781BB1BDE808400BF024
:1028000025BB08BDAFF30080389C1C000000000011
:102810001FAE022068010020B40D0020000000005F
:10282000F7B5002240F6034011460FF0FDF90446CB
:10283000002853D10EF0DAFE214641F2030001AA2E
:102840000FF0F2F90446002848D1019ABD4DD16835
:1028500005F17803D1F80100D1F8051003C3104643
:102860000EF062F8214641F2010001AA0FF0DCF9F6
:10287000044698BB0198C3685A7885F86F205A8837
:10288000A5F872201A7985F87020B3F80720A5F80A
:102890007420B3F80530A5F876300EF045F82146DF
:1028A00041F2020001AA0FF0BFF90446B0B9019F3E
:1028B00005F18006FA68531C41323446186859689D
:1028C000083303C493422646F7D138460EF02CF85D
:1028D00095F87C305E0607D46FF0120420460FF0A6
:1028E0000BF9204603B0F0BD002142F2030001AA1B
:1028F0000FF09AF904460028F0D1019B924EDA6855
:10290000D2F80100D2F8051003C618460EF00CF8F4
:10291000214642F2020001AA0FF086F9044600287F
:10292000DCD1019CE368B3F8012091B249B1D978B8
:1029300039B1A5F8E820DA78114606F10C0043F029
:1029400048FE20460DF0F0FF1F2395F87C60A5F8A7
:10295000043116F0200619D14FF0FF304FF0FF314F
:102960000FF062F80446002800F0098102210C30C3
:102970003AF016FE0123214603704670324640F6B7
:102980006D400FF051F904460028A7D195F89C300E
:102990001C0712D5002142F21C0001AA0FF044F9D5
:1029A000044600289AD10198C368D3F80120D3F8CF
:1029B0000530C5E938230DF0B7FF95F8D830580633
:1029C0000FD5002142F22A0001AA0FF02DF904468A
:1029D000002883D10198C3685B7885F806310DF033
:1029E000A3FF4FF0FF304FF0FF310FF01DF8064608
:1029F000002800F0C48008210C303AF0D1FD95F891
:102A0000D84040F2022314F0400F08BF0323A1076F
:102A100095F8D9104CBF43F02C0343F00C03A706E4
:102A200048BF43F0400311F0090F18BF43F400639F
:102A300004F001040246002143EA04103BF0C1FC0B
:102A40000022314642F201000FF0EEF80446002861
:102A50007FF444AF95F87C30B5F8E81098066CD454
:102A6000C9B941F2050001AA0FF0DEF804460028BA
:102A70007FF434AFB5F8E830019C4BB9E368B3F8A4
:102A80000120A5F8E8209A883048114643F0A1FDBE
:102A900020460DF049FF4FF0FF304FF0FF310EF0B0
:102AA000C3FF044600286AD008210C303AF078FDB4
:102AB00095F8D8300246D9074ED44FF0005124483B
:102AC0003BF07FFC2146002240F601400FF0ACF8BD
:102AD000044600287FF402AF014601AA4FF60140E8
:102AE0000FF0A2F8044688B901980DF01DFF2146A9
:102AF0004FF6024001AA0FF097F838B90198C36861
:102B0000B3F80130A5F8C0300DF00EFFEB793BBBF8
:102B10003BF09FFF044600287FF4E0AE11F05AF826
:102B2000044600287FF4DAAEEB79002B3FF4D9AEEF
:102B3000102108483BF015FBD0E60029ABD16FF01F
:102B40000404CBE6F8010020D0020020E4020020BB
:102B500010880002CC02002018A1D1E90001AFE7E3
:102B60002E78002ED4D195F8C0309B061ED54FF09C
:102B7000FF304FF0FF310EF057FF044610B96FF0F1
:102B80006804ABE606210C303AF00AFDD5F80130B6
:102B900021460360084B32469B8883804FF60640EF
:102BA0000FF042F804460028B2D097E66FF0850493
:102BB00094E600BFAFF30080F90100209088000286
:102BC000008000200000000070B51446064608464C
:102BD000FEF7FEF92146FEF74FFAFEF726FD0EA39B
:102BE000D3E900230A4D80FB054520462946FEF720
:102BF00065FC0023074A306029462046FEF75EFC4C
:102C00000023044AFEF75AFC726070BDAFF30080E7
:102C10003AA3950040420F000010A5D4E800000040
:102C200070B5144606460846FEF7D2F92146FEF76F
:102C300023FA1349FEF7D4FAFEF7F7FC0CA3D3E905
:102C40000023104D80FB054520462946FEF736FC43
:102C500009A3D3E90023306029462046FEF72EFC65
:102C60000023094AFEF72AFC726070BDAFF30080B2
:102C700000209BF35E10000080A8120100000000FD
:102C800000002041D8EF2F0040420F00000000005C
:102C9000032970B504460D4604D0072949D06FF0CA
:102CA000850028E0002A38D0072AF8D158681E6825
:102CB0000346514AC117C6FB0231012B71F10002D4
:102CC000C0F28D804D48181841F1000146A3D3E9A8
:102CD0000023FEF7F3FB022826690DD010280DD043
:102CE00004280DD008287AD12946204640F0C1FE9C
:102CF00040B16FF0040070BD0025F5E70125F3E752
:102D00000225F1E73D203E4B33F8151081FB000111
:102D1000FEF774F9F0600020EDE7188825F070F9EF
:102D2000011E5CDB2046C9B225F098F90028F2D0DC
:102D3000DFE7002A49D0072AB1D1B4255A681968BB
:102D40002D4BD017C1FB0320A2FB0531012A05FB47
:102D5000001170F1000028DB2A48181841F1000129
:102D600023A3D3E90023FEF7A9FBFA28266924D080
:102D7000B0F5FA7F23D0B0F57A7F22D0B0F5FA6FA4
:102D800021D07D282BD104252946204640F081FE04
:102D90000028AED141F217101B4B33F8151081FB00
:102DA0000001FEF72BF9F061B5E71848181861F13A
:102DB00000010FA3D3E90023D5E70025E4E70125AF
:102DC000E2E70225E0E70325DEE7188825F018F999
:102DD000011E04DB2046C9B225F022F9A6E76FF0F8
:102DE000150088E7AFF300803AA3950000000000CB
:102DF000D8EF2F000000000040420F009DD14A0094
:102E0000DCEB0400ECF71700D2EB04001408E8FF39
:102E10001BA3D3E900230021C0E900231AA3D3E9AF
:102E20000023C0E902231AA3D3E90023C0E9042345
:102E300019A3D3E90023C0E9062319A3D3E900238A
:102E4000C0E9082318A3D3E90023C0E90A2318A383
:102E5000D3E90023C0E90C2317A3D3E90023C0E979
:102E60000E2300220023C0F8D010C0E93023C0E9AF
:102E700032238022403047F0EBB800BFAFF3008030
:102E800008C9BCF367E6096A3BA7CA8485AE67BB7D
:102E90002BF894FE72F36E3CF1361D5F3AF54FA5A8
:102EA000D182E6AD7F520E511F6C3E2B8C68059B84
:102EB0006BBD41FBABD9831F79217E1319CDE05B3C
:102EC00031F000432DE9F04F814687B00E460746AA
:102ED0000C460DD180F480077F0017F5000F40F2FB
:102EE000578331464846FDF7BFFF07B0BDE8F08F76
:102EF00020F000480146B8F1FF4F02D8B3F1FF4F70
:102F000008D9B7F17E5FECD184F48004640014F535
:102F1000000FE4E7002823DAB3F1974F80F03D83F8
:102F2000B3F17E5F36D3DA15C2F1960243FA02F5A9
:102F300005FA02F29A4225D105F00105C5F1020514
:102F4000B3F17E5F27D1002C7EDA00214846FEF7E0
:102F500027FAC8B1F80F07B0BDE8F04F30F0CCBE8B
:102F6000B3F1FF4F0ED1B8F17E5F00F0118304D9A9
:102F7000002C80F210830020B7E7002CFBDA06F16A
:102F80000040B2E70025DBE749464FF07E50FEF7F0
:102F900027F9AAE70025B4F1804F424640F00383A9
:102FA000B8F1BF4F20D2B8F1D05F04D949464846A6
:102FB000FEF762F899E729F00040B8F1000F40D021
:102FC000F90F01390391294324D0B3F19A4F40F20C
:102FD000D780654B984539D8002C3CDA002007B0E3
:102FE000BDE8F04F30F080BE27F0404C29F00040A3
:102FF000BCF17E5F1AD1002C04DA01464FF07E50FE
:10300000FEF7EEF8002FBFF670AFA8F17E5858EA31
:10301000050805D1484607B0BDE8F04F30F074BE52
:10302000012D7FF462AF00F100405EE7B8F1000FC0
:10303000C6D1002C05DA17B16B1E5942594108461A
:1030400089E7012D7FF451AF48464EE7474B98453D
:1030500007D9002CC2DC002007B0BDE8F04F47F0D4
:10306000F2BA4FF07E51FDF7FDFE07464049FEF7EC
:1030700003F8404981463846FDF7FEFF804638A1F7
:10308000D1E90001FDF79AFE82464FF07A513846A9
:10309000FDF7F2FF01465046FDF7E4FE3946FDF725
:1030A000EBFF01464FF07C50FDF7DCFE82463946CF
:1030B0003846FDF7E1FF01465046FDF7DDFF2E499A
:1030C000FDF7DAFF01464046FDF7CCFE014680469B
:1030D0004846FDF7C9FE20F47F67494627F00F07F1
:1030E0003846FDF7BFFE01464046013DFDF7BAFEFA
:1030F000039B6FF30B0480461D433046214614BFEB
:103100004FF07E551D4DFDF7ADFE3946FDF7B4FF7E
:10311000814631464046FDF7AFFF01464846FDF780
:10312000A3FE064621463846FDF7A6FF01460746A0
:103130003046FDF799FE00280446804620F0004303
:1031400040F34481B3F1864F40F22D81002128469F
:10315000FEF730F9003818BF012040E7AFF30080D8
:10316000E13D55555555D53FF3FF7F3F0700803F63
:1031700000AAB83F70A5EC363BAAB83F000080BF5C
:1031800017F0FF4F40F00B814FF09741FDF774FFB0
:103190006FF017010246D315C2F316027F3B0B44B2
:1031A00095498A42029342F07E5308DD93498A4250
:1031B00040F3F780029AA3F5000301320292002740
:1031C0008F4A9A461846049352F827B05946FDF79D
:1031D00049FE514681465846FDF746FE01464FF0EE
:1031E0007E50FDF7FDFF014605904846FDF744FF80
:1031F0000190019B83496FF30B039846049B01EAFE
:103200006303414643F0005303F5800303EB475348
:1032100018460493FDF730FF01464846FDF722FEAD
:10322000049B814659461846FDF71CFE0146504650
:10323000FDF718FE4146FDF71FFF01464846FDF722
:1032400011FE059A1146FDF717FF019983460846BE
:10325000FDF712FF6C498146FDF70EFF6B49FDF744
:1032600003FE4946FDF708FF6949FDF7FDFD4946A4
:10327000FDF702FF6749FDF7F7FD4946FDF7FCFE44
:103280006549FDF7F1FD4946FDF7F6FE6349FDF797
:10329000EBFD824649464846FDF7EEFE01465046A4
:1032A000FDF7EAFE414681460198FDF7DDFD5946EE
:1032B000FDF7E2FE4946FDF7D7FD4146824640460E
:1032C000FDF7DAFE56490490FDF7CEFD5146FDF7B5
:1032D000CBFD20F47F69414629F00F094846FDF7F0
:1032E000CBFE4F4980464846FDF7BCFD0499FDF7EB
:1032F000B9FD01465046FDF7B5FD0199FDF7BCFE4D
:10330000824649465846FDF7B7FE01465046FDF74E
:10331000ABFD834601464046FDF7A6FD20F47F69DC
:10332000404929F00F094846FDF7A6FE414682466E
:103330004846FDF797FD01465846FDF793FD3A498B
:10334000FDF79AFE804639494846FDF795FE01464D
:103350004046FDF789FD364B53F82710FDF784FDF5
:1033600080460298FDF734FE324B8146414653F8C1
:1033700027B05046FDF778FD5946FDF775FD4946E3
:10338000FDF772FD20F47F67494627F00F073846A6
:10339000FDF768FD5946FDF765FD5146A1E60021A0
:1033A000F9E601270CE74BD123493046FDF75CFDD8
:1033B000814639462046FDF755FD01464846FEF751
:1033C00017F800287FF4C2AE86233EE01B4A9342E2
:1033D00007D900212846FDF7EDFF003818BF01206E
:1033E0003AE62DD13946FDF73DFD3146FDF7F6FFB2
:1033F0000028E9D0EDE700BF71C41C00D6B35D0022
:103400000CEB040000F0FFDF42F1533E55326C3EFE
:1034100005A38B3EABAAAA3EB76DDB3E9A99193F36
:10342000000040400040763F4F38763FC623F6B854
:10343000FCEA040004EB04003CAA38330000164305
:10344000B3F17C5F40F2A080DB157E3B4FF40004BB
:103450005B49B8F1000F44FA03F438464444C4F31E
:10346000C753A3F17F0341FA03F1C3F1170301EA44
:103470000401C4F3160444F4000444FA03F4B8BF8E
:103480006442FDF7EFFC074631463846FDF7ECFC99
:1034900020F47F694B4929F00F094846FDF7ECFD00
:1034A000394680464846FDF7DDFC01463046FDF7CB
:1034B000D9FC4549FDF7E0FD064644494846FDF77D
:1034C000DBFD01463046FDF7CFFC0746014640468E
:1034D000FDF7CAFC41460646FDF7C4FC01463846E6
:1034E000FDF7C0FC314680463046FDF7C5FD384942
:1034F0000746FDF7C1FD3749FDF7B4FC3946FDF736
:10350000BBFD3549FDF7B0FC3946FDF7B5FD334944
:10351000FDF7A8FC3946FDF7AFFD3149FDF7A4FCE6
:103520003946FDF7A9FD01463046FDF79BFC0746ED
:1035300001463046FDF7A0FD81464FF080413846F8
:10354000FDF790FC01464846FDF74AFE4146074616
:103550003046FDF791FD4146FDF786FC01463846B1
:10356000FDF780FC3146FDF77DFC01464FF07E50B3
:10357000FDF778FC00EBC453B3F5000F06DA2146E3
:1035800030F054FB294613E500247DE71846F9E79F
:103590004FF07E50A9E43046A7E4B3F1FF4F3FF46B
:1035A000E2AC42460225B4F17C5F7FF41DAD002FF2
:1035B000FFF61AAD484607B0BDE8F04F47F0D8B85F
:1035C000000080FF0072313F1872313F8CBEBF3562
:1035D0004CBB31330EEADD3555B38A38610B363BCF
:1035E000ABAA2A3E002110B50446074B4FF4C07227
:1035F000C0E96011C0E96211C0F89011C0F89431BF
:1036000046F026FD204610BDCDCC4C3E024630B5DE
:1036100053880178082B28BF08230B48C1F3830186
:103620000A4C4840604302F14901C2F1FF2202F511
:103630007F02B7325518AB4200DC30BD11F8015F94
:1036400068406043F6E700BFC59D1C8193010001FF
:103650002DE9F04104460D460746002642F2107857
:103660003B7B3BB17B68EB1A434503D9314620468F
:1036700030F062FB0136182E07F11007F0D1D4F8B4
:103680008C3133B3154AEB1A934222D9D4F88431E2
:10369000FBB1D4F8903123B9A5F59C53083BC4F88D
:1036A000903141F2873641F2883003F51C414031B8
:1036B000EA1AB2420BD9D4F8842142B10344A2EBF6
:1036C000D2028B42C4F88421C4F89031F0D1BDE815
:1036D000F0810023C4F89031F9E700BFE0930400C3
:1036E00070B50346024600F5C0766FF00040C1F5A4
:1036F0001C551135147B34B154682C4424EAE4740D
:10370000A04228BF20461032B242F3D1D3F88C2118
:1037100092B1D3F884417CB10D4C8D1AA5420CD9DD
:10372000D3F890312BB1C1F59C5108310B4423EAF9
:10373000E373984228BF184670BDC1F5922101F28B
:10374000E131114421EAE171884228BF0846F3E7DC
:10375000E093040010B5D0F88831032B26DDD0F8B3
:103760008401FDF731FC4FF06E51FDF785FC00211F
:103770000446FDF729FEE0B94FF081412046FDF7F0
:1037800073FB01462046FDF72BFD0B49FDF774FC4A
:103790000A49FDF769FB4FF07E510446FDF728FE0C
:1037A00010B14FF07E5010BD2046FCE74FF07C502A
:1037B000F9E70248F7E700BF9A99193FCDCCCC3E14
:1037C00000487047821605000048704780EE3600BA
:1037D00030B5C0E91912C366012200230E4DC0E9BD
:1037E0000433C0E90633C0E90E33C0E91233C0E93F
:1037F0000A33C0E90C33C0E91533C0E9173305605B
:10380000436080F844300364A0F87030036280F8AD
:103810002420A0F8503030BDD0BD040070B5B8B041
:1038200001460446684644F08DFE9DF80030013B99
:10383000DBB2FD2B38D8274B28AA03F140061546EA
:1038400018685968083303C5B3422A46F7D1224B9A
:1038500008AA03F12006154618685968083303C5FD
:10386000B3422A46F7D108A920A82BF02FFF214602
:1038700020AA10A844F012FE694620A82BF026FFCB
:1038800020AA28A918A844F009FE202218A910A8E7
:1038900031F0E3FE044658B9202110A831F017FF9B
:1038A000202118A831F013FF0024204638B070BD45
:1038B000002310A911F8012B1AB90133202BF9D1DB
:1038C000144610A8202131F002FF202118A831F061
:1038D000FEFEEAE706EC040047EC04002DE9F04F99
:1038E0000A78054602F00303023B012B0C46F3B0B5
:1038F00070D802F03C06242E0B795BD13F2B1CD8EC
:103900004E88082E19D991F85270093E07F003022B
:103910009340F6B21FFA83FC664510D801F15302BA
:103920000368029201F10A02CDE9007203961D6E4E
:10393000D1F84A20D1F84E30A847002037E00121C5
:10394000533301FA02F200F50671E01846F093FBDA
:103950000028F2D12B68214628465B6C9847002846
:10396000EBD0E86F214603681B6898470028E4D134
:10397000E86F214603685B68984794F90201FDF7F8
:1039800027FB4FF07A51FDF777FB4FF08141FDF7B0
:1039900073FBFDF74DFD237921465A1C2344227108
:1039A00098722B682846DB6C984740F0C06073B073
:1039B000BDE8F08F2C2E03F03F030AD191F94A6045
:1039C000002E80F2B782002BB7D103685B6F984757
:1039D000B3E76BBB104631F03EF8002840F0808022
:1039E0002378C3F383020F2AA7D801A151F822F04C
:1039F0008B3B00008B3B00008B3B0000493B0000F1
:103A0000CB3D00003F3D00003F3D0000BB3C0000BF
:103A10008B3B00003B390000B53E00003B39000005
:103A20003B3900003B3900003B390000853E000077
:103A30000C2E08D14B88032B05D90368D1F84A20F6
:103A4000D3F884309847227905F50671920901323E
:103A500004F10A0046F00FFB00287FF46EAF2B68DC
:103A6000214628465B6C984700283FF466AF2378D0
:103A7000C3F383030A2B04D12146284631F0D4FA3C
:103A80005BE7E86F032B02682146126813D1904769
:103A9000064600287FF451AFE86F214603685B6853
:103AA00098472146284631F092F83246214628466A
:103AB00031F063FA41E7904700287FF43EAFE86FAA
:103AC000214603685B6898472146284631F07FF815
:103AD0002B6821462846DB6C984740F0807066E7EB
:103AE0002B68214628461B6C984700287FF425AF99
:103AF000207830F0B0FF00283FF472AF2046FFF787
:103B000085FD0646A86E05F1800703681B68984787
:103B100031460246384630F055F920B13146284644
:103B200030F0B3FF5CE72B6828469B6B9847002872
:103B30003FF456AFA86E03681B68984731460246AB
:103B4000384630F019F94BE76388032B7FF6F5AE62
:103B5000E86F21460368D4F84A601B68984700283C
:103B60007FF4EBAEE86F214603685B6898472B68EB
:103B7000324621462846D3F88430984721462846C5
:103B800073B0BDE8F04F31F042B894F84B300DF10E
:103B9000200A8AF80030638894F84A70042B7FF674
:103BA000CCAEE86F214603681B689847064600289C
:103BB0007FF4C3AEE86F214603685B68984795F8C9
:103BC0001832BB4268D12B68514628465B6D984736
:103BD000814604F14C0B10AF0DF1C408B1455BDD1B
:103BE0002B683246394628469B6D984763885A466B
:103BF000023B4146384631F047FD031E5BDD22782B
:103C0000C2F38302082A4CD198F8009007934846E3
:103C100031F08AFB00283FD04FEA991109F03F02AA
:103C200001FB0222079B501C834235DD02329B1AA6
:103C3000DBB2424429680392049318F800300DF176
:103C4000C50803F00F03CDE90193CDF80080D1F84A
:103C500064B03B46324621462846D847D0B120784A
:103C600030F0F9FEB0B10023CDE90233019323799E
:103C7000514600933A46284604F10A0331F060F8B1
:103C8000014638B14FF4FA734246009328464B463A
:103C900031F0BCFAFF2323702146284630F0B7FFED
:103CA00085E62968CDE901830097CF6D334621462B
:103CB0002846B847EEE7013690E76388232B7FF666
:103CC0003CAEE86F2146036894F84A601B68984749
:103CD00000287FF432AEE86F214603685B6898479E
:103CE00095F81832B3427FF449AF04F14B0608AAA5
:103CF00004F16B07134630687168083603C3BE428F
:103D00001A46F7D108AA10A905F5067030F056FE3C
:103D1000638831AF32463946213B10A831F0B4FCFC
:103D200000287FF72BAF2B68CDE900702146DE6EAF
:103D3000284608AB10AAB047FF2323701EE794F86B
:103D40004A3008AF3B706388032B7FF6F6ADE86F0F
:103D5000214603681B689847064600287FF4EDADAE
:103D6000E86F214603680DF140095B6898472B68AE
:103D70003946D3F87C804A4604232846C047074684
:103D800004F14B0A0DF141080DF1C40BB74283DD7C
:103D90006388404652465946013B31F075FC002885
:103DA00008F121080FDD2B682278CDE900B006EB81
:103DB0004616D3F880702146284609EB0603C2F365
:103DC0008302B84768E70136E0E710A830F0C1FC8D
:103DD00010AE04F14A0304F16A07324618685968C4
:103DE000083303C2BB421646F7D16388632B7FF6C4
:103DF000A4AD202210A905F5067046F03CF9002874
:103E00003FF49BADE86F21460368D4F86AA01B68B5
:103E1000984700287FF491ADE86F0DF1C40903685D
:103E200021465B684E469847B4F8028010AFA8F16F
:103E30006408B8F1200FA8BF4FF020080FCF0FC6BD
:103E400097E80F0004F1AE0B86E80F004246594692
:103E50003AA8CDF8E4A046F0D5F84A4608F1240384
:103E600004F16E0110A830F07CFC00283FF465AD31
:103E70002B68CDE900B821469E6E2846534610AA0D
:103E8000B04709E703F00303023B012B3FF655ADB2
:103E9000E86F214603681B68984700287FF44DAD02
:103EA000E86F214603685B6898472B6821462846DF
:103EB0009B6F8CE56288022A7FF63FAD94F84A300A
:103EC00003F00F03032B7FF438AD042A7FF635ADE2
:103ED00031AE304631F023FA237840228DF8C430D9
:103EE00004F10A0123790DF1CE0031F03EFA628827
:103EF0008DF8C800013A92B204F14B010DF58770BC
:103F0000ADF8C62046F07EF8E86F314603681B68BE
:103F1000984700287FF411ADE86F314603685B686D
:103F200098472B6831462846D3F88430DDF80E21B7
:103F3000984702E5002B3FF44DAD84E538B50B4BB7
:103F40001C786CB901220A4D1A70002329461A46C2
:103F50000848013431F0ECFA202C05F58275F4D1D3
:103F60000021BDE83840034831F0BEBA94AD0220CC
:103F7000FC8B0220F4540220014BD3F8200170473F
:103F8000D0530220014BD3F820017047F454022093
:103F9000014831F0A9BA00BFD0530220044BD3F836
:103FA00020219142BABF283153F8210000207047E8
:103FB000D0530220054BD3F820018142BDBF2831E8
:103FC000012043F821200020704700BFD053022079
:103FD00021B1002302481A4631F0AABA704700BF47
:103FE000F45402200022FF2070B50A4BD3F8206160
:103FF00003F19C058033B24200DB70BD55F8044FDD
:10400000641A002C03DC9C5CA04228BF20460132CD
:10401000F1E700BFD05302202DE9F0470546904656
:1040200099460F4699B31B4E304631F081FA04464B
:1040300068BBD6F8200118B32146234606F17F0C51
:10404000A04214DC0E4496F88030434518D911483C
:1040500031F04AFA2B6801465B68284698474B4680
:1040600042463946BDE8F0470A4831F061BA1CF8CB
:10407000012F9A4234BF1A46214613460134DFE726
:104080002B6839462846BDE8F0475B681847BDE80D
:10409000F08700BFD0530220F0B400230C46FF206D
:1040A0004FF0FF310E4AD2F8207102F19C068032A7
:1040B000BB4205DB4B1C0FD0F0BC094831F014BAF1
:1040C00056F8045F2D1B002D04DCD55C85423CBFF7
:1040D000194628460133EBE70020F0BC704700BFCB
:1040E000D053022030B50A4B4A1CD3F820510DD0D2
:1040F000002210469C33AA4200DB30BD53F8044F27
:104100000132641A002CD8BF0130F4E72846F4E7E6
:10411000D0530220002907DB044BD3F82021914221
:1041200002DA53F82100704700207047D053022074
:1041300038B500240D4D281904F5827431F0EFF8DC
:10414000B4F5025FF7D10024094B214680221846BE
:10415000C3F8204145F07CFF064B2146C3F82041BF
:104160001846BDE83840802245F072BFFC8B022023
:10417000F4540220D05302202DE9F0430D468DB0B7
:1041800012F00F01804614461E469DF8509004D050
:104190004FF0FF300DB0BDE8F083184B142207A894
:1041A000069345F055FFB9F1000F0CBF4FF40073B3
:1041B0004FF48073124F08931022414604AB06A8B7
:1041C000099744F0A9FD0028E2D105ABCDE90143F0
:1041D0002A462346394604980096B9F1000F09D0C3
:1041E0002BF066FF0446049844F0CCFC002CCFD1A1
:1041F0000598CFE72BF0F8FFF4E700BF002480001C
:10420000004440042DE9F04194B007460C461646A0
:104210000021142207A81D4645F01AFF4FF48853C9
:10422000ADF818304FF48073ADF81A304FF4806356
:10423000DFF84C802022CDE90838394604AB06A8C7
:1042400044F06AFD28B14FF0FF34204614B0BDE8B9
:10425000F08105AB0293202301930CAB224600931F
:1042600041463346049844F006FF0446049844F05F
:1042700089FC002CE7D1BDF830302B80E5E700BF8A
:104280000900800330B58DB00D4611461A4603ABC8
:1042900001932023044600930A4804AB44F01BFE1C
:1042A0002A4630B1002120460DB0BDE8304045F02F
:1042B000CFBE202D28BF2022204604A945F0A2FE13
:1042C0000DB030BD090000022DE9F043A7B004464F
:1042D000DDE92E890D461646002170220AA81F46E8
:1042E00045F0B6FE16490AA844F0A6FDE8B93A46DC
:1042F00031460AA844F0C1FDB8B94A4641460AA869
:1043000044F0BBFD88B9202201AB02A90AA844F001
:10431000CBFD50B9202D2A46204628BF202202A9D5
:1043200045F070FE27B0BDE8F0830AA844F075FDA3
:104330002A460021204627B0BDE8F04345F088BE5C
:104340000900000208B5054B002814BF01461946B4
:10435000034838F07AFB01200AF0FAFC68EC04000C
:1043600074EC04000346F0B50A4D8E18B14203F117
:10437000020303D1002300F81230F0BD11F8014B05
:10438000270904F00F04EF5D2C5D03F8027C03F8AD
:10439000014CEBE7C31905002DE9F04105460C4639
:1043A000DFF830808F18BC4201D1BDE8F08114F8ED
:1043B000016B2B68320918F8021028469B68984751
:1043C0002B6806F00F0628469B6818F806109847D9
:1043D000E9E700BFC319050010B5046900212046B4
:1043E000FCF7DEFF00B1014C204610BD0000E145A6
:1043F0000048704794EC040008B510460249FDF7E8
:10440000F1F8002008BD00BFA2EC040030B5002286
:10441000702113488BB002F093FD041E104D19DD7E
:1044200022462846691C45F0FAFD013C02A802F02C
:1044300067FE60B16F2C0ADC039B0A4A019305AB4F
:104440000093C4F17001029B28192DF0CBFD0448A4
:104450000BB030BD28460449FDF7C4F80724E5E752
:1044600095AD0220D8EC0400D0EC040037B5124C16
:10447000204641F060FE10B9104803B030BDA56879
:104480004E212046EB6898470028F5D10C216A465A
:1044900020462B6998470028EED10198FCF798FD3B
:1044A0000749FCF79DFE04460098FCF791FD014684
:1044B0002046FCF7D9FCE0E7F8AB04000000C07F21
:1044C000002474492DE9F043804687B02A4F3846CE
:1044D00041F031FE18B9002007B0BDE8F083274C49
:1044E000237843B9BB6838461B682549984700289C
:1044F000F1DB01232370002508242E46A94614224F
:10450000002101A8ADF8029045F0A2FD022304931A
:104510006B4403938023029340F60C03ADF81430F0
:10452000BB6815485B6801A9984718B9BDF9023006
:1045300001361D44013CE2D1002ECCD095FBF6F5AE
:10454000D8F8106000213046FCF72AFF88B93046C1
:10455000FDF76BF80C466C43EB1700FB0344A5FB1F
:104560000030241802D540F6FF729B18C3F30F30B9
:10457000B2E74FF4E150EEE718AB040005AE0220BD
:104580004EBF040070B504464FF0FF324FF0FF33CA
:10459000154829F0FDF842F098FA4FF47A75A0FB1F
:1045A0000506002305FB016147F61222FCF7D6FF42
:1045B0000D46D4E90213002B064608DB721A42F2BC
:1045C000107165EB03038A4273F1000305DB20469B
:1045D000FFF778FFC4E90265E080E488024829F02B
:1045E00079F9204670BD00BF180F002008B5036898
:1045F0001B689847BDE808400146014832F012BFE9
:10460000C4C2040007B5064B8DF8070001220DF166
:104610000701044802F04EFE03B05DF804FB00BF42
:10462000F5EC040005ED040073B5124B124C1D7837
:1046300015B1207802B070BD012610481E7032F00E
:10464000CBFC0028F5D032460C4801AB0DF103013C
:104650008DF80350019532F0D8FC38B1019B2BB195
:104660009DF80330012B08BF4C232370034832F020
:10467000BEFCDEE707AE022006AE022005ED040018
:104680004C28024607D0552807D0054B0548002A7C
:1046900008BF18467047044870470448704700BF79
:1046A00011ED0400D0EC040016ED040022ED04002E
:1046B00083B504F0B9FD37F0ADFF32F0F3F8062111
:1046C000264A274831F09EF80021264A264831F034
:1046D00099F842F0FAF94FF47A74A0FB040500232C
:1046E00004FB015147F61222FCF738FF41F28833F0
:1046F0001D4FC418D7F8108041F10005BB681A4857
:104700005B6801A9984790B9D8F80020019B5340F5
:10471000DB070CD4154A164BD2F880100B4043F43B
:10472000403343F00C03C2F8803038F09BF942F07C
:10473000CCF94FF47A76A0FB060C47F61222002340
:1047400006FB01C1FCF70AFFA042A941E2DA40F2F0
:104750003910002129F06AFFD0E700BF01001A00DC
:10476000D8A9040011000100B8A9040000A010504D
:10477000F0F0FCFF3E28024630D016D8142830D086
:104780000AD80A2830D00F2831D041F684601F4B58
:10479000072A18BF184670471F282BD04AF2C3209B
:1047A0001A4B292A18BF18467047B0F5FA7F24D053
:1047B0000AD8FA2823D0B0F5C87F22D0134B14486A
:1047C000C82A18BF18467047B0F5487F1BD00F4B5A
:1047D0001048B2F57A7F18BF184670474FF2244050
:1047E000704745F26110704742F6B100704743F6DA
:1047F0000950704747F6122070470748704707482E
:104800007047074870470748704700BF48E80100F5
:10481000F818030040420F0020A1070090D00300C9
:10482000F0310600E0630C0070B503690D4693F8A3
:1048300074301446073B052B2ED8184A52F82360D3
:104840003046FCF7D5FD38BB2046FCF7C1FB4FF0E6
:104850006E51FCF711FC01464FF07E50FCF702FB55
:10486000314604462846FCF7FDFA0D49FCF7B8FC32
:1048700001462046FCF700FC00210446FCF79AFDA7
:1048800050B94FF07E512046FCF7B2FD10B14FF009
:104890007E5070BD2046FCE70020FAE700C004000F
:1048A0000000204170B5044631F068F8D4F8803932
:1048B000D4F88429054653EA02004DD05B1B62EB15
:1048C0000102012B72F100003EDB6FF000408342D9
:1048D00072F1000200DA1846B4F8683A9BB394F912
:1048E0005A3A803314D0D4F8602AD4F8646A521B40
:1048F00066EB0106012A76F1000327DB6FF0004327
:104900009A4276F1000600DA1346984228BF18460C
:10491000D4F8703AD4F8742A53EA02041CD00F4C2D
:104920001B1942F100025B1B62EB0101012B71F1CB
:1049300000020DDB6FF00042934271F1000109DAD1
:10494000984228BF184670BD0020C5E70023DCE769
:104950000023F5E71346F3E70020F4E70097490149
:104960002DE9F04F8BB004468846174630F0B2FF71
:10497000814638B939464046684A0BB0BDE8F04F29
:104980002DF030BBD4F89809002800F091800A235C
:104990006421D4F89C295A43D4F8A03902EB500280
:1049A0004B4303EB5003B2FBF0F2B3FBF0F094F88F
:1049B000573A04F6A81A27EAE771002B7AD194F83F
:1049C00054CA574D574B94F9556ABCF1000F08BFB4
:1049D0002B460A250590B2FBF5F005FB1022CDE928
:1049E000030209EB0602CDE9006240464E4ACDF8CB
:1049F00008902DF0F7FAC72F054640445EDDD4F845
:104A00009C3A791B0393D4F8983A484A0293D4F815
:104A1000943A0193D4F8903A0093D4F898392DF051
:104A2000E1FA054408EB0500791B94F8583A404A2E
:104A30002DF0D8FA0544204631F0A2F8014640B9DD
:104A4000AF4208EB0500C8BF791B3A4A2DF0CAFAFD
:104A50000A35504631F0BBFC8346504631F0CDFC60
:104A60005E45B8BF5E468642B246A8BF82460AF19E
:104A7000FF36B345CABF0BF102030AF101035E46DC
:104A80006FF007028342C4BF0346861E9642B8BF3A
:104A900016460C2BA8BF0C234FF0640B099304EBB4
:104AA000C604099B9E420DDD28460BB0BDE8F08F81
:104AB00002467CE794F9566A1F4B8AE7AF42B3DCA3
:104AC0000021B2E7B4F8EC29B4F8F0C91AB35308DE
:104AD0000BFB0C33B3FBF2F30693B4F8F239BD428F
:104AE000CDE904C3B4F8EE39B8BF791BCDE9022390
:104AF00009EB0603CDE90063A8BF002108EB050020
:104B0000B24514BF20232A230C4A2DF06BFA01363C
:104B100005440834C5E71346DEE700BF2FED040067
:104B200053F70400AE03050037ED04005DED04000B
:104B300072ED04007BED040024F4040086ED040013
:104B40002DE9F843002500264FF000084FF000093A
:104B5000474B484F03608C33436000F51863C0E94E
:104B600002714662C0E90452C0E9065505628662D8
:104B7000C0F85C58C0F86058C0F8745980F878598B
:104B8000C0F87C59C3E9008943F69823044680F8AD
:104B90008859C0F88C39C0F89059C0F89459C0F8B9
:104BA0009859C0F89C59C0F8A059011D00F6A810EA
:104BB00031F0F8FB04F52763A4F8685AC3E90089CB
:104BC0003B6984F8785A5B1B18BF012384F8793A53
:104BD0004FF40043C4F87C5AC4F8805AC4F8845A8D
:104BE000C4F8885AA4F88C5A84F88E5AC4F8905A9B
:104BF000C4F8945AC4F8985AC4F89C5AC4F8A05AF5
:104C0000A4F8A43AC4F8A85AC4F8AC5AA4F8B05A04
:104C1000C4F8B45AA4F8CC5AC4F8D06AC4F8D46A18
:104C2000A4F8D85AC4F8DC5AC4F8E05AC4F8E45AD4
:104C3000C4F8E85A84F8A05BA4F8A25BC4F8A45BAB
:104C4000C4F8A85BC4F8AC5B04F6641042F09DF8AD
:104C50000122294604F6883041F0BBFC4FF4036280
:104C6000294604F12C0045F0F3F92046BDE8F8830D
:104C700064BF0400CCC2040008B50346C068B3F8A2
:104C8000A21B8368002908BFFF215B68984758B1C1
:104C9000084B98420BD841F2883300F5FA70400077
:104CA000984238BF184608BD41F28830FBE76FF4E0
:104CB0007A70F8E70BFEFF7F30B590F8A03B044612
:104CC00089B0CBB900F52F65002000210A22CDE97B
:104CD0000601CDE90232CDE9004304934FF40062AE
:104CE0002846064B064929F021FA0649284641F094
:104CF000A0FD012384F8A03B09B030BDDB5C0300BC
:104D0000A0AF0220A6ED04002DE9F8430C460546AD
:104D1000174600211422204645F09AF995F8CD3A1D
:104D2000002B35D0D5F8D00AD5F8D49A95F8D88A82
:104D300095F8D96A1B49FCF79FF9FCF79FFB2060A7
:104D40004846FCF79BFBB31F80B230F07AFD022B84
:104D500096BF043E0126F6B2B8F1080F8CBF1023AF
:104D60002023A08084F80680E67123812B696FF0F0
:104D7000080293F94C302773162BA8BF16239342D1
:104D8000B8BF1346A37240F202432382BDE8F88302
:104D90002B69986CD3F8789093F8748093F87560C9
:104DA000C8E700BF0024744908B590F8CD3A5BB15C
:104DB000D0F8D00A0649FCF75FF94FF07C51FCF7B8
:104DC00053F8FCF75BFB08BD0369986CF2E700BF82
:104DD0000024744908B590F8CD3A63B1D0F8D40AEC
:104DE0000649FCF749F94FF07C51FCF73DF8FCF718
:104DF00045FB80B208BD0369986FF1E700002041D0
:104E000002462DE9F04730F0C2FE92F8CD3A0F4647
:104E10000546002B00F0BD80D2F8D49A104630F041
:104E2000C0FE9368044693F8008008F10506F6B2C8
:104E3000B54203D30C2D28BF0C25EEB248465B4982
:104E4000FCF7B8FA08B1DFF868914846FCF716FBA2
:104E500080B230F0F6FCFFF78DFC082C28BF082448
:104E600005460120E4B2052C00FA06F038BF0524FF
:104E7000FCF7AEF881462846FCF7A6F84D49FCF74A
:104E8000AFF94C49FCF7F8F801464846FCF7A8F999
:104E90008146B8F1000F01D1062E7ED9082E4FF0C1
:104EA00000057DD82020FCF793F84349FBF7DCFF91
:104EB000294680462846FBF7D7FF01464046FBF7C8
:104EC000D3FF4946FCF7D8F83C4980464846FCF7F2
:104ED0008FFA002866D04FF07E5A3046FCF778F8FB
:104EE00006463846FCF774F84FF08241FCF7C4F8E8
:104EF0004FF0814107463046FCF7BEF80146384680
:104F0000FBF7B0FF2E49FBF7AFFF4FF08341FBF7F4
:104F1000ABFF4FF0824107462846FCF7ADF801464B
:104F20003846FBF79FFF514607465046FBF79CFF6C
:104F300001463046FBF796FF4FF08141FCF79CF8A5
:104F40004FF07E510546FCF735FA08B14FF0814528
:104F500029463846FCF744F92EF018FE054620464F
:104F6000FCF736F82946FCF787F8002145F01AFBD4
:104F70004FF08241FBF778FF4946FCF77DF8414648
:104F8000FBF772FF0B49FCF777F8FCF777FABDE8FF
:104F9000F0871369D3F8789040E74FF07E5581E7AA
:104FA000102080E74FF0000A97E700BF0000E040C4
:104FB0000000FA4200007A44000088405A2F863CE4
:104FC0000000E0412DE9F04705468AB030F07FFE51
:104FD00095F8783A05F11807002B00F0858000223B
:104FE000284605A9FFF790FE9DF81A40BDF81C6001
:104FF000062C8CBF4FF0080A4FF00C0ABAF1080FCC
:105000000CBF112319239E427DDDBDF81800FFF768
:10501000B1FB012102463E48A1400023A1FB000153
:10502000FCF79CFAAB680446DB69002B53D0E868B8
:10503000984780460520A6EB4A0909F1FF3904FB91
:1050400009F964220023A9FB0001FCF787FA08F59F
:10505000FA63A9EB00018B42D5F87C2A3ED20E36CA
:105060006643A1EB08018E420AFB044408D9731C75
:10507000A3EB0903034443445B089C4238BF1C462E
:10508000944203D1D5F8803A8B4203D0C5F87C4ACC
:10509000C5F8801A00261F34E86846F100031F3166
:1050A0004FEA541246F1000486684909766A42EADA
:1050B000C36241EAC4615B096409AEB1DFF854C060
:1050C00003958DE81210B04770B93FF045FA012101
:1050D000C5F8940911E040F2DC58ABE7013203D087
:1050E0004FF0FF33C5F87C3AE8682A4683680949DF
:1050F0005B6998470028E8DA002138460AB0BDE825
:10510000F04730F067BCD5F87C3A0133E7E700BFE1
:1051100040420F00915A030038B5836804469B6AE9
:105120000D46BBB100F6A43030F005FC034604F692
:10513000AC3030F000FC1844D4F8843A984202D1E4
:10514000D4F8883A3BB9C4F8840A012D38BF012548
:10515000C4F8885A38BD084ACB1A9342FAD994F851
:105160008E3A072BF6D9A3689B6A0BB1E068984783
:105170002046FFF727FFE8E7BF270900F8B5836857
:105180000446DB6A0F46002B38D090F8B03A33B1B2
:10519000D0F8A83AD0F8AC2ACB1A93422ED3D4F840
:1051A000B43A23B14EF65F22FB1A934226D96069C6
:1051B00020B303685B68984701460546FCF722F96F
:1051C0000646D8B9284645F010FA0122164B05B21A
:1051D000C4F8AC3AB4F9A43A84F8B02A13F5004FF5
:1051E000C4F8A87A02D1A4F8A45A07E0EB1A002B5D
:1051F000B8BF5B42042B02DC84F8B16AF8BD94F8B6
:10520000B13A33B943F6982384F8B12AC4F8AC3ADA
:10521000F4E7A36884F8B16ADB6A0BB1E0689847E9
:105220002046FFF7CFFEDEE780EE360038B50446B5
:105230001C3030F080FB98BB204630F038FE78BB45
:1052400030F09CFB054604F6A43030F074FB0346B6
:1052500004F6AC3030F06FFBD4F8842A0344934258
:1052600002D1D4F8883A63B90023C4F8A03A294699
:105270002046FFF751FF29462046BDE83840FFF79A
:105280007DBF084AEB1A9342F1D9D4F8A03A13B182
:10529000EB1A9342EBD9012D2B4638BF0123E4E7EB
:1052A00038BD00BFBFD401002DE9F843B0F8683A1B
:1052B00004463BB190F8CD8AB8F1000F04D000232A
:1052C00080F89339BDE8F88330F058FBD4F8702AA1
:1052D000D4F8743A0E4652EA030104F527670546EE
:1052E00062D1C4F8705A7E6094F95A3A803315D06E
:1052F000D4F8602AD4F8643A954276EB03030DDBC8
:10530000A36804F6A815596B11B1E06888470146F7
:10531000284631F030F9284630F010FC94F89339E3
:10532000002BCFD0002384F8933994F95A3A803374
:10533000C8D1204630F024FC0028C3D094F892391C
:10534000002BBFD0204630F0B2FD0028BAD104F6C1
:10535000A819484631F0C3F8A36807461B6B83B30E
:105360000146E0689847064630F008FB022E80466A
:105370000D4629D1321E18BF01223946484631F068
:10538000E2F8022E2BD1204630F0FAFB10EB080099
:1053900045F10005643045F1000584F85A7AC4F8F7
:1053A000600AC4F8645A8DE70F49AA1A66EB030332
:1053B000914278EB030397DA04F6A81031F07AF8FB
:1053C0008FE76FF05706CFE7002104F1180030F0A7
:1053D00001FB2046FFF7F6FD002ECBDA72E74846C8
:1053E00030F0ACFB6EE700BF0097490170B50D4689
:1053F000164604243146284638F0EEFC48B140F207
:105400003910002129F012F9013CF3D10148FEF7CF
:1054100099FF70BDB3ED04002DE9F04FDFF8C882AD
:10542000ADF5397D04460D46174600214FF4007254
:1054300038A81E4644F00CFE98F8003043B9AB483B
:1054400037F003FB98F8003013B9A94837F0FDFA9C
:10545000402138A838F0C0FC98F8003081463BB9AC
:1054600038A831F0C7F949460246A24837F0EDFAAC
:10547000102200210AA844F0EBFD10210AA821F017
:10548000AFFB002301460DF21F120DF1280C8B42D9
:1054900002DA102B40F0828098F80030002B40F0A8
:1054A0001F81954837F0D1FABFB1B6B1202E3146F1
:1054B00028BF20213A460DF22F137E1812F8010B57
:1054C00013F8017FB24280EA07001870F6D198F80D
:1054D000003043B9894837F0B8FA98F8003013B96A
:1054E000874837F0B2FA402194A838F075FC98F854
:1054F0000030064673B994A831F07CF93146024673
:10550000804837F0A2FA98F800301BB929467E4847
:1055100037F09BFA24AF3A467C4B03F1180C164641
:1055200018685968083303C663453246F7D11868CE
:1055300099889B7931223060B180B371002107F1E5
:105540001F0044F085FD002307932AF0F7FE202377
:105550000DF11C0A009380464FF400726C48CDF8A0
:1055600004A01CAB38A943F0B6FC064620B9DAF813
:105570000090B9F1200F1AD020211CA830F0A7F814
:10558000CDF80480DAF800305021009338463346D5
:10559000604A2CF027FD24A8FEF7D4FE12F801EF94
:1055A0001CF8010B013380EA0E0010706FE7014612
:1055B000142217A844F04CFD4FF41053ADF85830A6
:1055C0004FF48073544A0DF1200ACDE91832ADF83A
:1055D0005A301CA953464A4616A8CAF8006043F040
:1055E0009BFB064649461CA830F071F846B133468D
:1055F00050213846494ACDF800802CF0F3FCCAE728
:10560000102231460EA844F023FD37460DF1240B3D
:10561000BD42DAF800001ED90023CBF80030102379
:105620000DF1480901930EAA3B49CDF808B0CDF819
:1056300000902AF03DFDDBF80020034608B9102A4F
:105640001BD000925021CDE90178354A24A82CF0D6
:10565000C9FC4FF0FF36089843F094FA10210EA8C9
:1056600030F035F8002E96D1012319462544AC427E
:105670001DD101B93BB32B488EE7EA1B102A28BF86
:105680001022E0194946059244F0BCFC059A1744E3
:105690004A4612F8013D0133DBB2137013B90EAB69
:1056A0009A42F6D11021484630F011F8B0E714F8CC
:1056B000012B32B1FF2A14BF002303F001030021A4
:1056C000D5E71346D3E738A84FF400712FF0FFFF5A
:1056D00010210AA82FF0FBFF0DF5397DBDE8F08FF2
:1056E000002F7FF4E2AEFEE608AE0220D4ED040007
:1056F000F8ED040040EE04006FEE0400B0EE04008C
:10570000D2EE04001FEF04004EEF04003FF004004F
:105710000900000287EF040000444004B5EF0400D4
:10572000E0EF040014F00400002330B5044689B013
:105730001A4620216846FFF76FFE694620462FF083
:1057400026F865252378013BDBB2FD2B05D8202107
:1057500068462FF0BCFF09B030BD013D02D10748BB
:10576000FEF7F0FD002368461A462021FFF754FE9D
:10577000694620462FF00BF8E4E700BF5EF0040016
:10578000084B1B7853B9084B1B784BB9074B08489B
:105790001A78084B002A18BF18467047044870470B
:1057A000044870470BAE02200EAE02200DAE022060
:1057B000E0930400C0D4010002221A4B70B51A70A5
:1057C0000022194B1A70194B1A780AB901221A7063
:1057D000012000F043FC01210024084600F056FCA3
:1057E000134B47F612221C701248002328F006FCC7
:1057F000114B1B68ABB1FFF7C3FF2146054647F6C7
:10580000122440F2E7304FF47A720023E5FB0401E2
:10581000FBF7A4FEBDE8704002460B46074828F09F
:10582000B9BB70BD10AE02200FAE022009AE02203F
:105830000AAE022060000020D0040020900000206A
:10584000044BD3E8EF1F0143C3E8E21F002AF8D15D
:10585000704700BF2056022010B5064B187802286A
:1058600007D1FFF7EDFF044B1B6813B1BDE81040F3
:10587000184710BD10AE02202456022010B5084B68
:105880001B785BB1074B1878012807D1FFF7D8FFC9
:10589000054B1B6813B1BDE81040184710BD00BF91
:1058A00012AE022010AE02202456022010B5074B83
:1058B0001B78022B08D11020FFF7C2FF044B1B6896
:1058C00013B1BDE81040184710BD00BF10AE022054
:1058D0002456022010B50C4CD0E90023C4E9002363
:1058E000D0E90223D0E90C01C4E9022304F110033A
:1058F00083E8030030F096FFC4E906010820BDE804
:105900001040FFF79DBF00BF6811002008B5064892
:1059100040F076FF054BD3E8EF1F21F01001C3E8FC
:10592000E21F002AF7D108BD6000002020560220A7
:1059300002460B46014827F02BBF00BFF00E0020A7
:10594000014827F0C7BF00BFF00E00202DE9F0414D
:10595000514B0C461B78002B00F09B804F4E337848
:10596000012B00F096804FF0FF304FF0FF31FFF732
:10597000DFFF94F82C20002A73D0D4E90001D4E989
:10598000022342EA000543EA01073D430CD1337884
:10599000022B05D1424B1B7813B10022404B1A70E9
:1059A000BDE8F041FFF7CCBF01273E4DC5E902231A
:1059B000A369C5E900012B61238CAF75AB8230F080
:1059C00031FF04F13003C5E9060103CB3378364AD1
:1059D000022B10605160E3D1238C032BDDD9304DB5
:1059E0002B783B44DBB2022B2B70D9D92F4B1E688E
:1059F0002F4B93F800801F702E4B1F7030F012FF5A
:105A00002D4BC3E900019EB12C4840F0F9FE002364
:105A100020462B70FFF75EFF0420FFF711FFFFF712
:105A20008FFF274B1B68002B33D0BDE8F041184790
:105A30002E70244DB8F1000F0BD030F0F3FED5E9F5
:105A40000032C01A204B61EB0201834276EB010168
:105A5000A6DA30F0E7FEC5E900012046FFF73AFF7D
:105A6000DDE73378022B9BD10D4B197801B11A7009
:105A700030F0D8FE42F21075144BD3E90042041BFB
:105A800061EB0202AC4272F1000289DBC3E9000162
:105A900086E7BDE8F08100BF12AE022010AE022002
:105AA0000FAE0220A81100207CAC0220D004002000
:105AB0000EAE02200CAE0220A011002090000020AB
:105AC0002456022088110020BFD40100601100205C
:105AD00070B52C482C4C206040F02DFB0146D0B90D
:105AE000012030F0DEFE43F60950002130F0CFFEF9
:105AF000032630F005FF206840F014FB10B3783027
:105B000020D040F63540002130F0C1FE0020013E9B
:105B100026D00028EDD00121206809F0A3FA032542
:105B200058B110F1780F04D010F1580F01D0013D99
:105B30001DD120F02000783016D10122134B002017
:105B40001A7013E03225206840F0F5FA0028DED103
:105B500040F23910002130F09AFE013DF3D1D5E733
:105B60000028D8D130F0CCFE6FF0120070BD40F6A6
:105B70003540002130F08BFE0121206809F072FAD7
:105B8000CEE700BF98AB04001856022011AE0220E9
:105B9000014B1860704700BF2C560220014B186063
:105BA000704700BF28560220014B1860704700BFA5
:105BB00024560220014B1878704700BF11AE022016
:105BC000014B1878704700BF12AE022010B5074B8A
:105BD00004461B7843B138B9014600F057FA204615
:105BE00000F03CFA024B1C7010BD00BF11AE022049
:105BF00010AE022070B5204B04461B78002B39D024
:105C00001E4B1A78824235D0187050B1FFF7D4FD80
:105C100000F03EFB1A4B1B6863B32046BDE87040A2
:105C20001847184840F0ECFD174840F0E9FDFFF731
:105C30006DFE0121204600F029FA204600F00EFA00
:105C4000124B1A7802B11C700025114B4FF0FF3037
:105C50001D70104B4FF0FF311D70FFF769FE0E4BAA
:105C60009D82FFF76DFE0D4B1D700D4B1D700D4B92
:105C70001D70CFE770BD00BF11AE022012AE022032
:105C80002C560220C00000209000002009AE022007
:105C900010AE02200FAE0220A81100200EAE02208E
:105CA0000DAE02200CAE022038B50446084D4FF070
:105CB000FF304FF0FF31FFF73BFE0FCD0FC495E8EB
:105CC0000F0084E80F00BDE83840FFF739BE00BF81
:105CD000A8110020034B18684FF47A73B0FBF3F05F
:105CE000704700BFD004002070B5044630B12E4B81
:105CF000984228BF1C460A2C38BF0A244FF47A73F6
:105D000063432A4E33602A4B1B78002B4BD0294B20
:105D10001D78022D1FD128481CB9BDE8704040F005
:105D20006FBD40F06BFD014600283CD1FFF728FD18
:105D300047F61225044640F2E7304FF47A7200230A
:105D4000E4FB0501FBF70AFC0B4602461A48BDE8D6
:105D5000704028F053B9012D25D1184840F050FD6E
:105D600044B92846FFF76CFD154B1B68DBB1BDE855
:105D70007040184730F056FD124B47F61225C3E924
:105D80000001002140F2E73034680F4B4FF47A7283
:105D9000C3E900410023E4FB0501FBF7DFFB0246FA
:105DA0000B460648D3E770BD803A0900D0040020B6
:105DB00012AE022010AE022090000020C000002091
:105DC00024560220981100209011002038B50B4D68
:105DD0002C787CB130F026FD094AD2E90032C01A95
:105DE0004FF0000361EB0201064A824273EB0101AE
:105DF00001DA2B700024204638BD00BF0CAE022013
:105E0000A011002000DD6D0070B50E4D04464FF06E
:105E1000FF314FF0FF30FFF78BFDAE7D4EB10FCD60
:105E20000FC495E80F0084E80F00FFF789FD3046A6
:105E300070BDFFF785FD20223146204644F008F969
:105E4000F5E700BFA811002010B5164B1B7843B32F
:105E5000154B1B782BB3154B1B78012B06D114481F
:105E600040F0CEFCBDE81040FFF7A6BC022B18D1D5
:105E7000104B1B68ABB1FFF783FC0021044647F6CB
:105E8000122C40F2E7304FF47A720023E4FB0C014D
