:020000040800F2
:1000000010E80020D1C90008F3D00108BDC90008DC
:10001000BDC90008BDC90008BDC90008BDC90008A8
:1000200000000000000000000000000029CA0008D5
:10003000BDC9000800000000C1CB0008BDC9000810
:1000400019A400083DCC00083DCC00083DCC0008B8
:100050003DCC00083DCC00083DCC00083DCC00085C
:100060003DCC00083DCC00083DCC00083DCC00084C
:100070003DCC00083DCC00083DCC00083DCC00083C
:100080003DCC00083DCC00083DCC00083DCC00082C
:100090003DCC00083DCC00083DCC00083DCC00081C
:1000A0003DCC00083DCC00083DCC00083DCC00080C
:1000B0003DCC00083DCC00083DCC00083DCC0008FC
:1000C0003DCC00083DCC00083DCC00083DCC0008EC
:1000D0003DCC00083DCC00083DCC00083DCC0008DC
:1000E0003DCC00083DCC00083DCC00083DCC0008CC
:1000F0003DCC00083DCC00083DCC00083DCC0008BC
:100100003DCC00083DCC00083DCC00083DCC0008AB
:100110003DCC00083DCC00083DCC00083DCC00089B
:100120003DCC00083DCC00083DCC00083DCC00088B
:100130003DCC00083DCC00083DCC00083DCC00087B
:100140003DCC00083DCC00083DCC00083DCC00086B
:100150003DCC00083DCC00083DCC00083DCC00085B
:0C0160003DCC00083DCC00083DCC000860
:1001700081F0004102E000BF83F0004330B54FEA58
:1001800041044FEA430594EA050F08BF90EA020FC5
:100190001FBF54EA000C55EA020C7FEA645C7FEA58
:1001A000655C00F0E2804FEA5454D4EB5555B8BF7B
:1001B0006D420CDD2C4480EA020281EA030382EAEC
:1001C000000083EA010180EA020281EA0303362D7E
:1001D00088BF30BD11F0004F4FEA01314FF4801C51
:1001E0004CEA113102D0404261EB410113F0004F63
:1001F0004FEA03334CEA133302D0524263EB43031A
:1002000094EA050F00F0A780A4F10104D5F1200EB7
:100210000DDB02FA0EFC22FA05F2801841F1000112
:1002200003FA0EF2801843FA05F359410EE0A5F1E6
:1002300020050EF1200E012A03FA0EFC28BF4CF017
:10024000020C43FA05F3C01851EBE37101F00045CD
:1002500007D54FF0000EDCF1000C7EEB00006EEBDA
:100260000101B1F5801F1BD3B1F5001F0CD3490864
:100270005FEA30004FEA3C0C04F101044FEA4452BB
:1002800012F5800F80F09A80BCF1004F08BF5FEA42
:10029000500C50F1000041EB045141EA050130BD22
:1002A0005FEA4C0C404141EB0101013C28BFB1F534
:1002B000801FE9D291F0000F04BF01460020B1FA7F
:1002C00081F308BF2033A3F10B03B3F120020CDA52
:1002D0000C3208DD02F1140CC2F10C0201FA0CF030
:1002E00021FA02F10CE002F11402D8BFC2F1200C95
:1002F00001FA02F120FA0CFCDCBF41EA0C0190404B
:10030000E41AA2BF01EB0451294330BD6FEA040493
:100310001F3C1CDA0C340EDC04F11404C4F120027E
:1003200020FA04F001FA02F340EA030021FA04F390
:1003300045EA030130BDC4F10C04C4F1200220FAE7
:1003400002F001FA04F340EA0300294630BD21FA25
:1003500004F0294630BD94F0000F83F4801306BFEB
:1003600081F480110134013D4EE77FEA645C18BFDF
:100370007FEA655C29D094EA050F08BF90EA020F76
:1003800005D054EA000C04BF1946104630BD91EA6E
:10039000030F1EBF0021002030BD5FEA545C05D171
:1003A0004000494128BF41F0004130BD14F58004B0
:1003B0003CBF01F5801130BD01F0004545F0FE4124
:1003C00041F470014FF0000030BD7FEA645C1ABF59
:1003D000194610467FEA655C1CBF0B46024650EA90
:1003E000013406BF52EA033591EA030F41F40021BC
:1003F00030BD00BF90F0000F04BF0021704730B542
:100400004FF4806404F132044FF000054FF0000116
:1004100050E700BF90F0000F04BF0021704730B5D7
:100420004FF4806404F1320410F0004548BF4042AC
:100430004FF000013EE700BF42004FEAE2014FEA01
:1004400031014FEA02701FBF12F07F4393F07F4FDC
:1004500081F06051704732F07F4208BF704793F0DF
:100460007F4F04BF41F40021704730B54FF46074F2
:1004700001F0004521F000411CE700BF50EA0102F5
:1004800008BF704730B54FF000050AE050EA01029E
:1004900008BF704730B511F0004502D5404261EB0E
:1004A00041014FF4806404F132045FEA915C3FF44F
:1004B000D8AE4FF003025FEADC0C18BF03325FEAEC
:1004C000DC0C18BF033202EBDC02C2F1200300FA9D
:1004D00003FC20FA02F001FA03FE40EA0E0021FAC2
:1004E00002F11444BDE600BF70B54FF0FF0C4CF4B0
:1004F000E06C1CEA11541DBF1CEA135594EA0C0F62
:1005000095EA0C0F00F0DEF82C4481EA030621EA9C
:100510004C5123EA4C5350EA013518BF52EA0335D7
:1005200041F4801143F4801338D0A0FB02CE4FF089
:100530000005E1FB02E506F00042E0FB03E54FF0B9
:100540000006E1FB03569CF0000F18BF4EF0010EB1
:10055000A4F1FF04B6F5007F64F5407404D25FEAAD
:100560004E0E6D4146EB060642EAC62141EA555160
:100570004FEAC52040EA5E504FEACE2EB4F1FD0CA2
:1005800088BFBCF5E06F1ED8BEF1004F08BF5FEA20
:10059000500E50F1000041EB045170BD06F00046D2
:1005A00046EA010140EA020081EA0301B4EB5C047F
:1005B000C2BFD4EB0C0541EA045170BD41F4801177
:1005C0004FF0000E013C00F3AB8014F1360FDEBF9C
:1005D000002001F0004170BDC4F10004203C35DA78
:1005E0000C341BDC04F11404C4F1200500FA05F3FB
:1005F00020FA04F001FA05F240EA020001F000429C
:1006000021F0004110EBD37021FA04F642EB060111
:100610005EEA430E08BF20EAD37070BDC4F10C043B
:10062000C4F1200500FA04F320FA05F001FA04F2FF
:1006300040EA020001F0004110EBD37041F10001EB
:100640005EEA430E08BF20EAD37070BDC4F12005F6
:1006500000FA05F24EEA020E20FA04F301FA05F25E
:1006600043EA020321FA04F001F0004121FA04F206
:1006700020EA020000EBD3705EEA430E08BF20EAD6
:10068000D37070BD94F0000F0FD101F00046400010
:1006900041EB010111F4801F08BF013CF7D041EA92
:1006A000060195F0000F18BF704703F00046520096
:1006B00043EB030313F4801F08BF013DF7D043EA67
:1006C0000603704794EA0C0F0CEA135518BF95EA1D
:1006D0000C0F0CD050EA410618BF52EA4306D1D1A4
:1006E00081EA030101F000414FF0000070BD50EAC3
:1006F000410606BF1046194652EA430619D094EA4D
:100700000C0F02D150EA013613D195EA0C0F05D136
:1007100052EA03361CBF104619460AD181EA03018A
:1007200001F0004141F0FE4141F470014FF0000042
:1007300070BD41F0FE4141F4780170BD70B54FF0DD
:10074000FF0C4CF4E06C1CEA11541DBF1CEA13555D
:1007500094EA0C0F95EA0C0F00F0A7F8A4EB05043F
:1007600081EA030E52EA03354FEA013100F0888036
:100770004FEA03334FF0805545EA131343EA1263FF
:100780004FEA022245EA111545EA10654FEA0026B4
:100790000EF000419D4208BF964244F1FD0404F56D
:1007A000407402D25B084FEA3202B61A65EB0305C9
:1007B0005B084FEA32024FF480104FF4002CB6EB86
:1007C000020E75EB030E22BFB61A754640EA0C0006
:1007D0005B084FEA3202B6EB020E75EB030E22BF46
:1007E000B61A754640EA5C005B084FEA3202B6EB87
:1007F000020E75EB030E22BFB61A754640EA9C0046
:100800005B084FEA3202B6EB020E75EB030E22BF15
:10081000B61A754640EADC0055EA060E18D04FEAD3
:10082000051545EA16754FEA06164FEAC30343EA73
:1008300052734FEAC2025FEA1C1CC0D111F4801F40
:100840000BD141EA00014FF000004FF0004CB6E739
:1008500011F4801F04BF01430020B4F1FD0C88BFD8
:10086000BCF5E06F3FF6AFAEB5EB030C04BFB6EBE3
:10087000020C5FEA500C50F1000041EB045170BDD6
:100880000EF0004E4EEA113114EB5C04C2BFD4EB03
:100890000C0541EA045170BD41F480114FF0000E87
:1008A000013C90E645EA060E8DE60CEA135594EA03
:1008B0000C0F08BF95EA0C0F3FF43BAF94EA0C0F06
:1008C0000AD150EA01347FF434AF95EA0C0F7FF47B
:1008D00025AF104619462CE795EA0C0F06D152EACF
:1008E00003353FF4FDAE1046194622E750EA4106B3
:1008F00018BF52EA43067FF4C5AE50EA41047FF4C4
:100900000DAF52EA43057FF4EBAE12E74FF0FF3C28
:1009100006E000BF4FF0010C02E000BF4FF0010CF9
:100920004DF804CD4FEA410C7FEA6C5C4FEA430C72
:1009300018BF7FEA6C5C1BD001B050EA410C0CBFC1
:1009400052EA430C91EA030F02BF90EA020F002023
:10095000704710F1000F91EA030F58BF994208BF8A
:1009600090422CBFD8176FEAE37040F00100704747
:100970004FEA410C7FEA6C5C02D150EA013C07D19E
:100980004FEA430C7FEA6C5CD6D152EA033CD3D0E9
:100990005DF8040B704700BF8446104662468C46E3
:1009A0001946634600E000BF01B5FFF7B7FF002816
:1009B00048BF10F1000F01BD4DF808EDFFF7F4FF3F
:1009C0000CBF012000205DF808FB00BF4DF808EDCA
:1009D000FFF7EAFF34BF012000205DF808FB00BFED
:1009E0004DF808EDFFF7E0FF94BF012000205DF80F
:1009F00008FB00BF4DF808EDFFF7CEFF94BF0120C4
:100A000000205DF808FB00BF4DF808EDFFF7C4FFBC
:100A100034BF012000205DF808FB00BF4FEA41020F
:100A200012F5001215D211D56FF47873B3EB625240
:100A300012D94FEAC12343F0004343EA505311F067
:100A4000004F23FA02F018BF404270474FF00000F9
:100A5000704750EA013005D111F0004008BF6FF037
:100A6000004070474FF00000704700BF4FEA41025E
:100A7000B2F1E04324BFB3F5001CDCF1FE5C0DD9FC
:100A800001F0004C4FEAC0024CEA5070B2F1004F46
:100A900040EB830008BF20F00100704711F0804F49
:100AA00021D113F13872BCBF01F00040704741F40E
:100AB00080114FEA5252C2F11802C2F1200C10FA12
:100AC0000CF320FA02F018BF40F001004FEAC123F6
:100AD0004FEAD32303FA0CFC40EA0C0023FA02F39A
:100AE0004FEA4303CCE77FEA625307D150EA013370
:100AF0001EBF4FF0FE4040F44000704701F0004040
:100B000040F0FE4040F40000704700BF80F000401D
:100B100002E000BF81F0004142001FBF5FEA4103D5
:100B200092EA030F7FEA226C7FEA236C6AD04FEAD5
:100B30001262D2EB1363C1BFD2184140484041401A
:100B4000B8BF5B42192B88BF704710F0004F40F4CC
:100B5000000020F07F4018BF404211F0004F41F4E8
:100B6000000121F07F4118BF494292EA030F3FD0B4
:100B7000A2F1010241FA03FC10EB0C00C3F12003C7
:100B800001FA03F100F0004302D5494260EB400056
:100B9000B0F5000F13D3B0F1807F06D340084FEAC1
:100BA000310102F10102FE2A51D2B1F1004F40EBB6
:100BB000C25008BF20F0010040EA0300704749001E
:100BC00040EB0000013A28BFB0F5000FEDD2B0FABB
:100BD00080FCACF1080CB2EB0C0200FA0CF0AABFDE
:100BE00000EBC25052421843BCBFD040184370477C
:100BF00092F0000F81F4000106BF80F40000013282
:100C0000013BB5E74FEA41037FEA226C18BF7FEA58
:100C1000236C21D092EA030F04D092F0000F08BF9A
:100C20000846704790EA010F1CBF0020704712F081
:100C30007F4F04D1400028BF40F00040704712F1C0
:100C400000723CBF00F50000704700F0004343F025
:100C5000FE4040F4000070477FEA226216BF08465B
:100C60007FEA23630146420206BF5FEA412390EA1E
:100C7000010F40F4800070474FF0000304E000BF14
:100C800010F0004348BF40425FEA000C08BF7047C5
:100C900043F0964301464FF000001CE050EA010289
:100CA00008BF70474FF000030AE000BF50EA01029E
:100CB00008BF704711F0004302D5404261EB41018B
:100CC0005FEA010C02BF84460146002043F0B643B0
:100CD00008BFA3F18053A3F50003BCFA8CF2083AD5
:100CE000A3EBC25310DB01FA02FC634400FA02FCDE
:100CF000C2F12002BCF1004F20FA02F243EB0200E5
:100D000008BF20F00100704702F1200201FA02FC46
:100D1000C2F1200250EA4C0021FA02F243EB020039
:100D200008BF20EADC7070474FF0FF0C1CEAD0527D
:100D30001EBF1CEAD15392EA0C0F93EA0C0F6FD03E
:100D40001A4480EA010C400218BF5FEA41211ED01C
:100D50004FF0006343EA501043EA5111A0FB013108
:100D60000CF00040B1F5000F3EBF490041EAD371DD
:100D70005B0040EA010062F17F02FD2A1DD8B3F159
:100D8000004F40EBC25008BF20F00100704790F0C8
:100D9000000F0CF0004C08BF49024CEA502040EA1A
:100DA00051207F3AC2BFD2F1FF0340EAC2507047E0
:100DB00040F400004FF00003013A5DDC12F1190F1E
:100DC000DCBF00F000407047C2F10002410021FA90
:100DD00002F1C2F1200200FA02FC5FEA310040F1A8
:100DE000000053EA4C0308BF20EADC70704792F021
:100DF000000F00F0004C02BF400010F4000F013A59
:100E0000F9D040EA0C0093F0000F01F0004C02BF53
:100E1000490011F4000F013BF9D041EA0C018FE7C2
:100E20000CEAD15392EA0C0F18BF93EA0C0F0AD0C8
:100E300030F0004C18BF31F0004CD8D180EA0100EE
:100E400000F00040704790F0000F17BF90F0004F87
:100E5000084691F0000F91F0004F14D092EA0C0F69
:100E600001D142020FD193EA0C0F03D14B0218BFFC
:100E7000084608D180EA010000F0004040F0FE4042
:100E800040F40000704740F0FE4040F440007047DE
:100E90004FF0FF0C1CEAD0521EBF1CEAD15392EA5D
:100EA0000C0F93EA0C0F69D0A2EB030280EA010C4D
:100EB00049024FEA402037D04FF0805343EA1111E6
:100EC00043EA10130CF000408B4238BF5B0042F144
:100ED0007D024FF4000C8B4224BF5B1A40EA0C00E9
:100EE000B3EB510F24BFA3EB510340EA5C00B3EB1B
:100EF000910F24BFA3EB910340EA9C00B3EBD10F09
:100F000024BFA3EBD10340EADC001B0118BF5FEA5A
:100F10001C1CE0D1FD2A3FF650AF8B4240EBC25083
:100F200008BF20F0010070470CF0004C4CEA502044
:100F30007F32C2BFD2F1FF0340EAC250704740F493
:100F400000004FF00003013A37E792F0000F00F085
:100F5000004C02BF400010F4000F013AF9D040EA03
:100F60000C0093F0000F01F0004C02BF490011F497
:100F7000000F013BF9D041EA0C0195E70CEAD1538F
:100F800092EA0C0F08D142027FF47DAF93EA0C0F76
:100F90007FF470AF084676E793EA0C0F04D14B025A
:100FA0003FF44CAF08466EE730F0004C18BF31F00C
:100FB000004CCAD130F000427FF45CAF31F0004306
:100FC0007FF43CAF5FE700BF4FF0FF3C06E000BF9F
:100FD0004FF0010C02E000BF4FF0010C4DF804CDC2
:100FE0004FEA40024FEA41037FEA226C18BF7FEAD2
:100FF000236C11D001B052EA530C18BF90EA010FD4
:1010000058BFB2EB030088BFC81738BF6FEAE17062
:1010100018BF40F0010070477FEA226C02D15FEAFE
:10102000402C05D17FEA236CE4D15FEA412CE1D06A
:101030005DF8040B704700BF844608466146FFE731
:101040000FB5FFF7C9FF002848BF10F1000F0FBD13
:101050004DF808EDFFF7F4FF0CBF012000205DF80C
:1010600008FB00BF4DF808EDFFF7EAFF34BF012091
:1010700000205DF808FB00BF4DF808EDFFF7E0FF2A
:1010800094BF012000205DF808FB00BF4DF808ED7B
:10109000FFF7D2FF94BF012000205DF808FB00BFDE
:1010A0004DF808EDFFF7C8FF34BF012000205DF8C0
:1010B00008FB00BF4FEA40024FEA41037FEA226C7F
:1010C00002D15FEA402C08D17FEA236C02D15FEAAB
:1010D000412C02D14FF0000070474FF001007047E3
:1010E0004FEA4002B2F1FE4F0FD34FF09E03B3EB35
:1010F00012620DD94FEA002343F0004310F0004F75
:1011000023FA02F018BF404270474FF000007047CA
:1011100012F1610F01D1420205D110F0004008BF69
:101120006FF0004070474FF00000704742000ED251
:10113000B2F1FE4F0BD34FF09E03B3EB126209D412
:101140004FEA002343F0004323FA02F070474FF0C8
:101150000000704712F1610F01D1420202D14FF03D
:10116000FF3070474FF00000704700BF7BB972B985
:101170000029BEBF00204FF0004106E008BF002854
:101180001CBF6FF000414FF0FF3000F057B8ADF1D9
:10119000080C6DE904CE002909DB002B1ADB00F0F6
:1011A0007CF8DDF804E0DDE9022304B0704740423A
:1011B00061EB4101002B1BDB00F06FF8DDF804E070
:1011C000DDE9022304B0404261EB4101524263EB8E
:1011D00043037047524263EB430300F05EF8DDF8CF
:1011E00004E0DDE9022304B0404261EB41017047B5
:1011F000524263EB430300F050F8DDF804E0DDE910
:10120000022304B0524263EB4303704753B94AB917
:10121000002908BF00281CBF4FF0FF314FF0FF30FE
:1012200000F00CB8ADF1080C6DE904CE00F035F813
:10123000DDF804E0DDE9022304B07047704700BF29
:1012400010F8012B11F8013B012A28BF9A42F7D070
:10125000D01A7047034611F8012B03F8012B002A1E
:10126000F9D17047034613F8012B002AFBD1181A55
:1012700001387047430803F05533C01A00F0333388
:10128000800800F0333018444FF0013300EB1010A9
:1012900000F00F305843000E70472DE9F0478C46A0
:1012A0008E46089E154604461946002B40F0D08015
:1012B000724547D9B2FA82F74FB1C7F120030EFA4F
:1012C00007FCBD40BC4020FA03F343EA0C0C4FEA94
:1012D000154EA8B2230CBCFBFEF80EFB18CC08FB85
:1012E00000F943EA0C43994528D9EB1808F1FF327D
:1012F00004D2994502D9A8F102022B44A3EB0903B9
:10130000A4B2B3FBFEFC0EFB1C330CFB00F044EA62
:101310000344A04214D92C190CF1FF3304D2A0428B
:1013200002D9ACF102032C44241A43EA02401EB154
:10133000FC40002334607360BDE8F0874246DDE77F
:101340006346F1E7002A79D0B2FA82F3002B3FD04E
:101350001946C1F1200302FA01F500FA01F42EFA50
:1013600003F20EFA01FE20FA03F3AFB243EA0E03D2
:101370004FEA154EB2FBFEFC0EFB1C201A0C0CFBB8
:1013800007F842EA004290455AD9AA180CF1FF30FA
:1013900004D2904502D9ACF102002A44A2EB080223
:1013A0009BB2B2FBFEFC0EFB1C220CFB07F743EAD0
:1013B00002439F4246D9EB180CF1FF3204D29F4200
:1013C00002D9ACF102022B44DB1B42EA004202E0EC
:1013D000AEEB020301224FEA154EAFB2200CB3FB75
:1013E000FEFC0EFB1C330CFB07F840EA0343984558
:1013F0002AD9EB180CF1FF3004D2984502D9ACF190
:1014000002002B44A3EB0803A4B2B3FBFEFC0EFBCB
:101410001C330CFB07F744EA0344A74216D92C19E6
:101420000CF1FF3304D2A74202D9ACF102032C44E1
:10143000E41B43EA00400F46114678E71F2188E786
:101440006046ABE76246BFE76046DBE76346EFE72F
:10145000734506D916B9002108466DE7C6E9000EA6
:10146000F9E7B3FA83F787B9734501D3824207D806
:10147000841A6EEB030301209C461EB900215BE732
:101480003846FAE7C6E9004CF8E7C7F1200CBB4044
:1014900000FA07F422FA0CF520FA0CF1BA401D43C9
:1014A0002EFA0CF30EFA07FE4FEA154941EA0E0137
:1014B0001FFA85FEB3FBF9F809FB18300B0C08FB8B
:1014C0000EFA43EA00439A4540D9EB1808F1FF3081
:1014D00004D29A4502D9A8F102002B44A3EB0A03D7
:1014E00089B2B3FBF9F809FB183308FB0EFE41EA99
:1014F00003418E452CD9691808F1FF3304D28E457B
:1015000002D9A8F10203294443EA0040A1EB0E01ED
:10151000A0FB02984145CE46434602D306D14C4536
:1015200004D20138B9EB020E68EB0503002EA5D0FA
:10153000B4EB0E0261EB030101FA0CFC22FA07F393
:10154000F9404CEA0303C6E9003197E74046C5E796
:101550004346D9E70000000010B588B0044668464D
:1015600018F0CCFE50B1DDE90001FEF78FFF06A3B5
:10157000D3E90023FFF7E2F808B010BDD4E9B201C7
:10158000FAE700BFAFF300800000000065CDCD4159
:1015900010B588B00446684618F0B0FE50B1DDE9D9
:1015A0000201FEF773FF06A3D3E90023FFF7C6F895
:1015B00008B010BDD4E9B401FAE700BFAFF3008072
:1015C0000000000065CDCD4170B594B00C4618F018
:1015D0008BFE30B920462A4914B0BDE87040FFF7B1
:1015E00039BE07A818F092FE9DF81C300CA8022BFB
:1015F00096BF244A244D52F8235018F07FFEBDF8C0
:101600001E6008B3DDE90E01FEF740FF1AA3D3E91F
:101610000023FFF793F8CDE90401DDE90C01FEF7A3
:1016200035FF15A3D3E90023FFF788F8089BCDE920
:101630000201CDE900634FF480712B462046134A26
:1016400014F062FE14B070BD099B4BB1CDE900638C
:101650004FF480712B4620460D4A14F055FEF1E7F9
:101660002B464FF4807120460A4A009614F04CFE37
:10167000E8E700BFAFF300800000000065CDCD417A
:10168000F7780208385702085F79020824710208C7
:10169000567102087A7102082DE9F04F00F5805466
:1016A000DDB0C4F8F0281A788046012A8B467BD139
:1016B000046ED0F878024FF47A7503681B68984777
:1016C000ADF8A800D8F8680003685B699847ADF8E2
:1016D000AA00D8F8600003681B6A9847ADF8AC0010
:1016E000236820469B6B9847FFF7FAFCADF8AE00E5
:1016F000236820469B6E98472C9023682046DB6E1B
:101700009847D8F814304FF47A72B3FBF5F32D9064
:101710002E93D8E9A2010023FFF778FDD8F84030D6
:101720002F903093D8F8443020463193D8F8483081
:101730003293D8F84C303393B8F86C30ADF8D030E1
:101740002368DB6B98474FF08141FFF7EDFAFFF715
:10175000C7FCD8F87830ADF8D200D3F80825204679
:10176000ADF8D420D3F80C35ADF8D630D8F8183011
:1017700008F5C758B3FBF5F33693236808F114084E
:101780001B6F984738AC37902AAA134603CBA34265
:10179000C8F80000C8F804101A4608F10808F4D187
:1017A0003C205DB0BDE8F08F032A40F06081D0F8A6
:1017B000780206AD03680DF124091B68984708F507
:1017C000C7531433B4222B600023C5E90123FFF76C
:1017D00057FAC349FFF75CFBC249FFF7A5FAFFF7C9
:1017E0007FFC742203B20121284619F0F5FAD5E9ED
:1017F00000674846AC6802F02FFD002840F0E38007
:1018000099F81430002B00F0C680D9F8002001218F
:10181000284603F03DFFD5E90067AC6899F815301C
:101820008BB104F10308B8450DD80123D9F8041091
:1018300033556823344463700846FFF76DF9FFF7AA
:1018400075FCA070444699F81630A3B104F1040861
:10185000474510D3D9F80800A349FFF765FAFFF709
:1018600065FC01233355732334446370C0F30723AD
:10187000A370E070444699F8183003B3D9F810808B
:1018800000214046FFF7EEFB002840F09A804046DA
:101890009649FFF705FC002800F09180934804F179
:1018A000040847450BD3FFF741FC0123335565235B
:1018B00034446370C0F30723A370E070444602F021
:1018C00067FD68B12AA802F069FD824640B94FF071
:1018D00002090DF1A8089DF8E830534500F388800F
:1018E0009BF8203003F00303032B52D12AA818F0F1
:1018F00005FD002845D004F10B08B84541D8DDE9C5
:101900002A01FEF7C3FD74A3D3E90023FEF716FFF7
:10191000FFF7ACF87649FFF707FAFFF7E1FB074658
:10192000DDE92C01FEF7B2FD6BA3D3E90023FEF73E
:1019300005FFFFF79BF86E49FFF7F6F9FFF7D0FBBD
:1019400005462E98FFF79CF96549FFF7A1FA65490E
:10195000FFF7EAF9FFF7C4FB01223255882226443B
:10196000444672703A14B2703A12F2702A147271CC
:101970002A12B2710214327202123771F571727248
:10198000B07218F0AFFC20B118F0AEFC08B118F03E
:10199000BCFC201D05E799F8173013B1D9F80C20CD
:1019A00035E7D8F8780203689B6898470146804677
:1019B000FFF780FB00287FF431AF424627E740461F
:1019C0006DE700206BE7D8F8780203689B689847BA
:1019D00001468046FFF76EFB00287FF470AF424659
:1019E0000121284603F054FED5E90067AC6866E79C
:1019F00098F80C30B3B33B49D8F80000FFF794F9DE
:101A0000FFF76EFB742203B249462846C5E900671A
:101A1000AC6019F0E1F93249D8F80400FFF784F915
:101A2000FFF75EFB752203B24946284619F0D4F948
:101A3000D5E90067AC68231DBB4203930ED8D8F8E4
:101A40000800FFF773FB802206F80490039B3444E0
:101A50006270C0F30722A270E0701C4609F1010910
:101A60005FFA89F90AF1010A08F1100833E7052A3B
:101A700040D191F8202002F00302032A40F0268191
:101A80005A789B781A4340F02181042341F6F006EE
:101A900000F21445D4F8141818468A42BFF681AEF5
:101AA000AD2B3FF67EAE95F8201079B12F689919CD
:101AB00048F8017008EB0100A988818095F82000A2
:101AC000991D58FA81F10733DBB288550132A035F0
:101AD000E0E700BFAFF300800000000065CDCD411E
:101AE00000007A440000C8420000204100FF7F4708
:101AF00000401C46062A40F0D5805D78002D40F05D
:101B0000E5809A78B3F8037004929A795979202A7B
:101B100028BF2022934600F51353283300F536548E
:101B2000586A30B15CAA681C02EB850545F8C83CD0
:101B300005B22C33A342F3D1032909D8DFE801F021
:101B4000023C587400242AAB05F1FF3A54451DDBD2
:101B50000024A1460BF1050A5FFA8AF309AE03934C
:101B60005E44049B4B4501DDBD4279DC08F58053A2
:101B700008F5C7502246A3F8F458A3F8F69809A927
:101B8000183021F027FD04F108000AE601341E4652
:101B9000A446654501DC0433D8E771681A68486AD1
:101BA000D2F824E00CF1010C704588BF196006F1F1
:101BB000040688BF3260ECE700242AAB05F1FF3A47
:101BC0005445C5DA01341E46A446654501DC04339C
:101BD000F6E771681A68486AD2F824E00CF1010C43
:101BE000704538BF196006F1040638BF3260ECE773
:101BF00000212AAB05F1FF3E7145A9DA01311846F3
:101C00000C46A54201DC0433F6E742681E6892F9EF
:101C100028A096F928900134CA45C8BF1A6000F17F
:101C20000400C8BF0660ECE700212AAB05F1FF3EC7
:101C300071458DDA013118460C46A54201DC0433AA
:101C4000F6E742681E6892F928A096F928900134B8
:101C5000CA45B8BF1A6000F10400B8BF0660ECE7DF
:101C6000039B2344822B059380DCD8F874002AABB5
:101C7000046853F827A02468A047DAF824405146A6
:101C8000041B5A46A6EB0B0021F0A4FC039B9AF818
:101C90002810346031711E44059B09F101091C466E
:101CA00001375EE7072A11D100F5C75400F54E73DE
:101CB0001434074A0749009300F52973204614F0AD
:101CC0004DFB2046FFF7CEFA04306AE5002068E5B8
:101CD000F96F0208A57102082DE9F04FC3680646A6
:101CE00093F88C408A46154687B003F1040B74B90B
:101CF000CDE902B4CDE904448DF804108DF8054017
:101D0000294601A818F05AFB07B0BDE8F08F012C56
:101D10002AD100690368D3F890309847804630692B
:101D200089460368D3F89430984717A3D3E9002372
:101D300006460F46404649468DF804A08DF80540FA
:101D4000CDF808B0FEF7D0FBFEF768FE0EA3D3E98E
:101D50000023039039463046FEF7C6FBFEF75EFED1
:101D6000002304900593CBE7D3E90A01D3E90C677C
:101D700001238DF804A08DF80530CDF808B002A33A
:101D8000D3E90023DEE700BF0000000080842E417D
:101D90001BA3D3E900230021C0E900231AA3D3E940
:101DA0000023C0E902231AA3D3E90023C0E90423D6
:101DB00019A3D3E90023C0E9062319A3D3E900231B
:101DC000C0E9082318A3D3E90023C0E90A2318A314
:101DD000D3E90023C0E90C2317A3D3E90023C0E90A
:101DE0000E2300220023C0F8D010C0E93023C0E940
:101DF00032238022403021F0FABB00BFAFF30080D5
:101E000008C9BCF367E6096A3BA7CA8485AE67BB0D
:101E10002BF894FE72F36E3CF1361D5F3AF54FA538
:101E2000D182E6AD7F520E511F6C3E2B8C68059B14
:101E30006BBD41FBABD9831F79217E1319CDE05BCC
:101E4000002110B50446074B4FF4C072C0E9601181
:101E5000C0E96211C0F89011C0F8943121F0C7FBBD
:101E6000204610BDCDCC4C3E024630B5538801789B
:101E7000082B28BF08230B48C1F383010A4C4840B4
:101E8000604302F14901C2F1FF2202F57F02B7323D
:101E90005518AB4200DC30BD11F8015F684060436B
:101EA000F6E700BFC59D1C81930100012DE9F041BB
:101EB00004460D460746002642F210783B7B3BB1B4
:101EC0007B68EB1A434503D93146204616F06AF881
:101ED0000136182E07F11007F0D1D4F88C3133B346
:101EE000154AEB1A934222D9D4F88431FBB1D4F8C5
:101EF000903123B9A5F59C53083BC4F8903141F2C9
:101F0000873641F2883003F51C414031EA1AB2426B
:101F10000BD9D4F8842142B10344A2EBD2028B4204
:101F2000C4F88421C4F89031F0D1BDE8F0810023D9
:101F3000C4F89031F9E700BFE093040070B50346A0
:101F4000024600F5C0766FF00040C1F51C55113512
:101F5000147B34B154682C4424EAE474A04228BFB2
:101F600020461032B242F3D1D3F88C2192B1D3F88B
:101F700084417CB10D4C8D1AA5420CD9D3F8903117
:101F80002BB1C1F59C5108310B4423EAE37398420D
:101F900028BF184670BDC1F5922101F2E13111440C
:101FA00021EAE171884228BF0846F3E7E093040084
:101FB00010B5D0F88831032B26DDD0F88401FEF768
:101FC0005BFE4FF06E51FEF7AFFE00210446FFF7B7
:101FD00053F8E0B94FF081412046FEF79DFD0146E0
:101FE0002046FEF755FF0B49FEF79EFE0A49FEF715
:101FF00093FD4FF07E510446FFF752F810B14FF0B9
:102000007E5010BD2046FCE74FF07C50F9E70248B7
:10201000F7E700BF9A99193FCDCCCC3E00487047F6
:10202000A98C02080048704780EE360030B5C0E940
:1020300018128366012200230D4DC0E90533C0E963
:102040000733C0E90933C0E90B33C0E90D33C0E9F8
:102050001033C0E91233C0E91433C0E91633056008
:1020600043600372A0F86C30828780F83E3030BD48
:102070009051020870B5B8B001460446684620F099
:102080007AFC9DF80030013BDBB2FD2B38D8274BA2
:1020900028AA03F14006154618685968083303C595
:1020A000B3422A46F7D1224B08AA03F1200615466F
:1020B00018685968083303C5B3422A46F7D108A9FE
:1020C00020A811F05BFE214620AA10A820F0FFFBFB
:1020D000694620A811F052FE20AA28A918A820F0CD
:1020E000F6FB202218A910A817F0D6FA044658B912
:1020F000202110A817F00AFB202118A817F006FBD2
:102100000024204638B070BD002310A911F8012B1F
:102110001AB90133202BF9D1144610A8202117F049
:10212000F5FA202118A817F0F1FAEAE7FA6902088F
:102130003B6A020838B504461D46059BFFF776FF4B
:10214000084B25672360049B04F17C006367069BB2
:10215000A367FFF775FE04F5057016F04DFC2046E9
:1021600038BD00BFD05102082DE9F04F0E7805466A
:1021700006F00303023B012B0C46F3B000F2FA8297
:1021800006F03C02242A0B795BD13F2B1CD84E88E9
:10219000082E19D991F85270093E07F003029340B6
:1021A000F6B21FFA83FC664510D801F153020368AA
:1021B000029201F10A02CDE9007203965D6ED1F838
:1021C0004A20D1F84E30A847002037E00121533390
:1021D00001FA02F200F50571E01821F017FA002863
:1021E000F2D12B68214628461B6C98470028EBD07B
:1021F000A86F214603681B6898470028E4D1A86FA0
:10220000214603685B68984794F90201FEF738FDA0
:102210004FF07A51FEF788FD4FF08141FEF784FDC3
:10222000FEF75EFF237921465A1C234422719872DF
:102230002B6828469B6C984740F0C06073B0BDE89F
:10224000F08F2C2A03F03F030AD191F94A20002A8B
:1022500080F28D82002BB7D103689B6F9847B3E75C
:102260004BB90C2A40F086820368D1F84A20D3F893
:1022700088309847A8E70C2A05D10368D1F84A208E
:10228000D3F888309847227905F505719209013213
:1022900004F10A0021F0BAF9002895D12B682146F3
:1022A00028461B6C984700288ED02378C3F38303FD
:1022B0000A2B04D12146284616F00EFF84E7A86FAA
:1022C000032B02682146126813D190470646002866
:1022D0007FF47AAFA86F214603685B689847214670
:1022E000284616F0FBFD32462146284616F09DFE94
:1022F0006AE7904700287FF467AFA86F214603681C
:102300005B6898472146284616F0E8FD2B68214671
:1023100028469B6C984740F080708FE72B682146D9
:102320002846DB6B984700287FF44EAF207816F0E4
:10233000D3FC002800F024822046FFF795FD0646D6
:10234000686E05F17C0703681B68984731460246B2
:10235000384615F06DFE20B13146284616F01CFDBA
:102360000EE22B682846DB6C9847002800F00882B4
:10237000686E03681B68984731460246384615F078
:1023800031FEFDE16388032B7FF61EAFA86F214667
:102390000368D4F84A601B68984700287FF414AF9C
:1023A000A86F214603685B6898472B683246214630
:1023B0002846D3F888309847214628462B689B6BDF
:1023C00073B0BDE8F04F184794F84B300DF1200A78
:1023D0008AF80030638894F84A70042B7FF6F4AED4
:1023E000A86F214603681B689847064600287FF4BB
:1023F000EBAEA86F214603685B68984795F81432E6
:10240000BB4268D12B68514628469B6D9847814650
:1024100004F14C0B10AF0DF1C4084E452B685ADA8D
:10242000324639462846DB6D984763885A46023B58
:102430004146384617F047F9031E5CDD2278C2F3A7
:102440008302082A4DD198F800900793484617F068
:102450001DF800283FD04FEA991109F03F0201FB17
:102460000222079B501C984235DA02329B1ADBB2DB
:10247000424429680392049318F800300DF1C5080E
:1024800003F00F03CDE90193CDF80080D1F868B0D7
:102490003B46324621462846D847D0B1207816F030
:1024A0001BFCB0B10023CDE90233019323795146DF
:1024B00000933A46284604F10A0316F034FF014619
:1024C00038B14FF4FA734246009328464B4616F053
:1024D000CEFEFF2323702B68214628469B6B98472E
:1024E000ACE62968CDE9018300970F6E334621469B
:1024F0002846B847EDE701368FE76388232B7FF640
:1025000063AEA86F2146036894F84A601B68984739
:1025100000287FF459AEA86F214603685B6898478E
:1025200095F81432B3427FF447AF04F14B0608AA82
:1025300004F16B07134630687168083603C3BE4266
:102540001A46F7D108AA10A905F5057016F077FB11
:10255000638831AF32463946213B10A817F0B3F8F3
:1025600000287FF729AF2B68CDE9007021461E6F48
:10257000284608AB10AAB047FF2323701CE794F845
:102580004A3008AF3B706388032B7FF61DAEA86FFF
:10259000214603681B689847064600287FF414AE5E
:1025A000A86F214603680DF140095B6898472B68C6
:1025B0003946D3F880804A4604232846C047074658
:1025C00004F14B0A0DF141080DF1C40BBE4282DA51
:1025D0006388404652465946013B17F074F800287C
:1025E00008F121080FDD2B682278CDE900B006EB59
:1025F0004616D3F884702146284609EB0603C2F339
:102600008302B84767E70136E0E710A816F0E2F961
:1026100010AE04F14A0304F16A073246186859689B
:10262000083303C2BB421646F7D16388632B7FF69B
:10263000CBAD202210A905F5057020F0E7FF00289A
:102640003FF4C2ADA86F21460368D4F86A801B68C6
:10265000984700287FF4B8ADA86F0DF1C40A03684D
:1026600021465B685646984767880DF1400C643FE9
:10267000202F28BF2027BCE80F000FC69CE80F00C2
:1026800004F1AE0986E80F003A4649463AA8CDF86B
:10269000E48020F09FFF524607F1240304F16E010D
:1026A00010A816F09FF900283FF4C8AD2B68CDE9BB
:1026B00000972146DE6E2846434610AAB0470AE737
:1026C00003F00303023B012B3FF67EADA86F2146CA
:1026D00003681B68984700287FF476ADA86F2146F1
:1026E00003685B6898472B6821462846DB6FB5E591
:1026F0006288022A7FF668AD94F84A3003F00F032F
:10270000032B7FF461AD042A7FF65EAD31AE304617
:1027100016F0B7FE237840228DF8C43004F10A0188
:1027200023790DF1CE0016F0D2FE62888DF8C80034
:10273000013A92B204F14B010DF58770ADF8C62055
:1027400020F048FFA86F314603681B6898470028AF
:102750007FF43AADA86F314603685B6898472B68F1
:1027600031462846D3F88830DDF80E2181E5002B6C
:102770007FF489AD304616F0AFFA00287FF4CEAD75
:102780002378C3F383020F2A3FF61EAD01A151F84F
:1027900022F000BFC9230008C9230008C92300088C
:1027A000852300080B2600087F2500087F250008E8
:1027B000FB240008C9230008C9210008F1260008ED
:1027C000C9210008C9210008C9210008C921000841
:1027D000C12600080022104630B5074BD3F820511F
:1027E0009C33AA4200DB30BD53F8044F0132641A17
:1027F000002CD8BF0130F4E7A84B0020014BD3F8E0
:1028000020017047A84B0020014BD3F820017047EE
:10281000CC4C0020044BD3F820219142B4BF53F894
:1028200021000020704700BFA84B0020044BD3F8C4
:1028300020219142BABF283153F82100002070476F
:10284000A84B0020054BD3F820018142BDBF2831A1
:10285000012043F821200020704700BFA84B002032
:102860000022FF2070B50A4BD3F8206103F19C05CC
:102870008033B24200DB70BD55F8044F641A002C5F
:1028800003DC9C5CA04228BF20460132F1E700BF78
:10289000A84B0020F8B5FF200C4600234FF0FF3175
:1028A0000D4AD2F8207102F19C068032BB4205DB52
:1028B0004B1C0FD0084816F04DFEF8BD56F8045FCB
:1028C0002D1B002D04DCD55C85423CBF19462846F3
:1028D0000133EBE70020F0E7A84B002008B50248E1
:1028E00016F038FE08BD00BFA84B002038B50B4BD2
:1028F0001C786CB901220A4D1A70002329461A4629
:102900000848013416F048FE202C05F58275F4D1F4
:102910000021044816F01EFE38BD00BF229D002095
:10292000A07C0020CC4C002008B521B10023024837
:102930001A4616F031FE08BDCC4C00202DE9F047B8
:102940001B4E054630460F469046994616F024FE2B
:102950000446D8B9D6F8200118B32146234606F11B
:102960007F0CA04214DC0E4496F88030434518D901
:102970000F4816F0EFFD2B6801465B682846984724
:102980004B46424639460A4816F006FEBDE8F08737
:102990001CF8012F9A4234BF1A46214613460134CF
:1029A000DFE72B6839462846BDE8F0475B681847E3
:1029B000A84B002038B500240D4D281904F5827469
:1029C00016F05FFDB4F5025FF7D10024094B2146F4
:1029D00080221846C3F8204120F009FE064B21460C
:1029E000C3F820411846BDE83840802220F0FFBDE2
:1029F000A07C0020CC4C0020A84B00202DE9F04307
:102A00000D468DB012F00F01804614461E469DF80B
:102A1000509004D04FF0FF300DB0BDE8F083184B5C
:102A2000142207A8069320F0E2FDB9F1000F0CBFB5
:102A30004FF400734FF48073124F089310224146F5
:102A400004AB06A8099720F0BEFA0028E2D105AB36
:102A5000CDE901432A462346394604980096B9F148
:102A6000000F09D011F044FE0446049820F08FFABC
:102A7000002CCFD10598CFE711F0D6FEF4E700BFC8
:102A800000248000004440042DE9F04194B0074642
:102A90000C4616460021142207A81D4620F0A7FD6B
:102AA0004FF48853ADF818304FF48073ADF81A30F6
:102AB0004FF48063DFF84C802022CDE90838394696
:102AC00004AB06A820F07FFA28B14FF0FF3420466F
:102AD00014B0BDE8F08105AB0293202301930CAB49
:102AE0002246009341463346049820F048FB0446B2
:102AF000049820F04CFA002CE7D1BDF830302B8040
:102B0000E5E700BF0900800330B58DB00D461146E2
:102B10001A4603AB01932023044600930A4804ABF2
:102B200020F01DFB2A4630B1002120460DB0BDE843
:102B3000304020F05CBD202D28BF2022204604A973
:102B400020F048FD0DB030BD090000022DE9F04332
:102B5000A7B00446DDE92E890D46164600217022F5
:102B60000AA81F4620F043FD16490AA820F0A8FA3B
:102B7000E8B93A4631460AA820F0C3FAB8B94A463D
:102B800041460AA820F0BDFA88B9202201AB02A96B
:102B90000AA820F0CDFA50B9202D2A46204628BF99
:102BA000202202A920F016FD27B0BDE8F0830AA874
:102BB00020F077FA2A460021204627B0BDE8F043EE
:102BC00020F015BD0900000208B5054B002814BF10
:102BD0000146194603481AF044F8012007F006FCA4
:102BE0005C6A0208686A02080346F0B50A4D8E184E
:102BF000B14203F1020303D1002300F81230F0BD0B
:102C000011F8014B270904F00F04EF5D2C5D03F868
:102C1000027C03F8014CEBE7558E02080048704730
:102C2000886A020800487047886A020800487047AE
:102C30000000C07F00487047966A020808B5036824
:102C40001B689847BDE808400146014817F017BEC9
:102C50003C54020808B510460249FEF7FBFA002072
:102C600008BD00BFA06A020870B5C3680C461546CF
:102C70009BB393F87430DA1F052A32D81A4A073BFF
:102C800052F8236021463046FEF70AFA48BB284630
:102C9000FDF7F6FF4FF06E51FEF746F801464FF094
:102CA0007E50FDF737FF314605462046FDF732FFDF
:102CB0000E49FEF7EDF801462846FEF735F80021EB
:102CC0000446FEF7CFF960B94FF07E512046FEF77B
:102CD000E7F920B14FF07E5070BD0723CEE72046C4
:102CE000FAE70020F8E700BFDC53020800002041AB
:102CF00070B5044616F0DAFDD4F88039D4F884298A
:102D0000054653EA02004DD05B1B62EB0102012B2A
:102D100072F100003EDB6FF00040834272F100026E
:102D200000DA1846B4F84E3A9BB394F9513A80331E
:102D300014D0D4F8582AD4F85C6A521B66EB01060A
:102D4000012A76F1000327DB6FF000439A4276F107
:102D5000000600DA1346984228BF1846D4F8683AAD
:102D6000D4F86C2A53EA02041CD00F4C1B1942F110
:102D700000025B1B62EB0101012B71F100020DDB14
:102D80006FF00042934271F1000109DA984228BFC6
:102D9000184670BD0020C5E70023DCE70023F5E7F7
:102DA0001346F3E70020F4E70097490170B50446A5
:102DB0004A480025C4E902132060002300200021B6
:102DC000C4E9042504F518622362C4E90655257197
:102DD0006362C4F85858C4F85C58C4F87059C4F811
:102DE000745984F87859C2E9000143F69822C4F86E
:102DF0008C294FF4004204F5266684F88859C4F8FB
:102E00009059C4F89459C4F89859C4F89C59C4F816
:102E1000A059C4F84C5AA4F8502A46E90201C6E960
:102E2000000104F5276646E902010126A4F8705A5C
:102E300084F8726AC4F8745AC4F8785AC4F87C5A90
:102E4000C4F8805AA4F8845A84F8865AC4F8885A78
:102E5000C4F88C5AC4F8905AC4F8945AC4F8985AD2
:102E6000A4F89C2AC4F8A05AC4F8A45AA4F8A85AF2
:102E7000C4F8AC5AA4F8C45AC4F8C83AC4F8CC3A56
:102E8000A4F8D05AC4F8D45AC4F8D85AC4F8DC5AB2
:102E9000C4F8E05A84F8885BA4F88A5BC4F88C5BB9
:102EA000C4F8905BC4F8945B04F516601EF0A9F9B1
:102EB0003246294604F537601DF09FFD29464FF440
:102EC000036204F1280020F092FBA822294604F6B0
:102ED000A41020F08CFB204670BD00BF00530208F8
:102EE00008B503468068B3F88A1B8368002908BFC9
:102EF000FF215B68984758B1084B98420BD841F2C4
:102F0000883300F5FA704000984238BF184608BD73
:102F100041F28830FBE76FF47A70F8E70BFEFF7F31
:102F2000F0B590F8883B044689B0B3B900F6E825BF
:102F3000002600270A20CDE90043CDE902300493A2
:102F40002846CDE90667064B0FF050FC0549284698
:102F50001DF059FE012384F8883B09B0F0BD00BF85
:102F6000119C0108CE6A02082DE9F8430C4605467B
:102F7000174600211422204620F039FB95F8C53A67
:102F8000002B37D0D5F8C80AD5F8CC9A95F8D08A56
:102F900095F8D16A2A49FDF7C7FEFEF7C7F8206009
:102FA0004846FEF7C3F883B21F2B08D035D80F2B45
:102FB00005D030D8072B02D00A2B18BF7D23A38061
:102FC000B31F022B96BF043E0126F6B2B8F1080FDC
:102FD0008CBF1023202384F80680E6712381EB68E0
:102FE0002BBB1623A3720223E3730423E77223741B
:102FF000BDE8F883EB683BB1986CD3F8789093F810
:10300000748093F87560C5E74FF007080526DFF870
:1030100034900D48BEE7142BCFE7FA2BCFD003D85E
:10302000292BCCD03E2BC8E7B3F5FA7FC5E793F93F
:103030004C30162BA372D4DC0933D4DAF723D1E752
:1030400000247449000078428D67594408B590F80F
:10305000C53A5BB1D0F8C80A0749FDF765FE4FF0E5
:103060007C51FDF759FDFEF761F808BDC3680BB14F
:10307000986CF1E70148EFE7002474498D675944E3
:1030800008B590F8C53A63B1D0F8CC0A0849FDF705
:103090004BFE4FF07C51FDF73FFDFEF747F880B245
:1030A00008BDC3680BB1986FF0E70248EEE700BFB8
:1030B00000002041000078422DE9F04F85B0C0F8B3
:1030C0007419044616F0F2FB002304F5186A84F81C
:1030D0009339D4F88029DAF804300E4652EA030115
:1030E000074603D0974276EB03030FDB94F8883949
:1030F000012B0ED9002384F88839D4F88C39DB19D8
:1031000046F10006C4F88039CAF8046005B0BDE88D
:10311000F08F013384F8883941F28833FB1846F187
:103120000002C4F8803904F11400CAF8042016F033
:103130009EFB0028EAD004F1180016F098FB002846
:10314000E4D1236820461B6B9847804628B9D4F801
:10315000943A0133C4F8943AD8E723682046DB6AEE
:10316000984705460028D1D12046FFF789FF8146C0
:103170000CF0B8F9D4F894399E49C01AA0FB0101AB
:103180000A23B9FBF3F39BB2012B38BF012303F2EF
:10319000A739B9FBF3F9984B1A682B46FEF736F8B6
:1031A000B0EB091FB2D323680822D3F89CB069465C
:1031B0004B462046D847002805DAD4F8903A013328
:1031C000C4F8903AA2E7D4F8881A07280144C4F852
:1031D000881A05DCD4F88C3A0133C4F88C3AECE751
:1031E0006A462846D4F88C39DB1946F10006C4F843
:1031F0008039CAF8046084F8885932F9027F03469E
:10320000164636F902CCBC4503DD013B26F802C95F
:10321000F7D204AE013006EB4303072823F80E7CF7
:10322000EBD1BDF90EE0BDF900C0D4F89C09BDF9A1
:103230000820BDF90630E645AEEB0C060644134403
:1032400008BFD4F8A009D4F8982908BF013002F1CA
:10325000010203EBD37308BFC4F8A009B2F5005F05
:103260004FEA6307C4F8982943F34F03C4F89C69F5
:103270001CD35208C4F89829D4F8A029760852081B
:10328000C4F8A029D4F88C2A49085208C4F88C2A1A
:10329000D4F8902AC4F89C695208C4F8902AD4F84B
:1032A000942AC4F8881A5208C4F8942AD4F8706989
:1032B000A4F890393EB106F107084745CCBF4FF05E
:1032C00000084FF00108012284F89329B4F9842AF8
:1032D00084F892899A422ED194F8863AFF2B02D034
:1032E000013384F8863A2046FFF7CAFE0A22B0FB73
:1032F000F2F292B21F2A40D0B0F5A07F26D20F2A58
:103300003ED09F281BD8072A3DD00A2A14BF6FF051
:103310007A026FF08502002E3ED1BA42B8BF3A461B
:103320006FF0310384F878699A42D4BFC4F87029E9
:10333000C4F87039EAE6A4F8843A0023D1E7142AE5
:1033400014BF6FF07A026FF08202E4E7FA2A1DD010
:1033500040F6CD13984208D8292A1AD03E2A14BF25
:103360006FF07A026FF07D02D5E7B2F5FA7F14BFF5
:103370006FF07A026FF07402CDE76FF08002CAE757
:103380006FF08302C7E76FF08602C4E76FF0770241
:10339000C1E76FF07F02BEE794F87839072B84BF4E
:1033A00003F00F05B5FA85F503F1010188BF6D093A
:1033B000072B84F8781905D925B906F10D039F422A
:1033C0003FF7A4AEBB1B002BCCBF04216FF0030161
:1033D000CB1848BF073306EBE3069642B8BF164644
:1033E0006FF031039E42D4BFC4F87069C4F87039DD
:1033F0008CE600BF40420F00B805002002462DE9D0
:10340000F04716F06BFB92F8C53A0F460646002BC4
:1034100000F09580D2F8CC5A104616F06CFB0C2EBA
:10342000B04628BF4FF00C085FFA88F8B8F1060FD5
:1034300004464749284638BF4FF00608FDF712FEFC
:1034400000B1444D082C28BF08240120E4B2052C0B
:1034500000FA08F038BF0524FDF712FC3E4981460A
:103460002846FDF761FC01464846FDF711FD05467B
:10347000082E8CBF10202020FDF702FC3749FDF7F5
:103480004BFB2946FDF750FC354981462846FDF7A0
:1034900007FE002859D04FF07E5A4046FDF7F0FB5A
:1034A00006463846FDF7ECFB4FF08241FDF73CFC49
:1034B0004FF0814107463046FDF736FC014638465D
:1034C000FDF728FB2749FDF727FB4FF08341FDF768
:1034D00023FB514607465046FDF71EFB014630468A
:1034E000FDF718FB4FF08141FDF71EFC4FF07E51B8
:1034F0000646FDF7B7FD08B14FF081463146384624
:10350000FDF7C6FC14F0D4FC06462046FDF7B8FBD8
:103510003146FDF709FC002120F000FB4FF082410D
:10352000FDF7FAFA2946FDF7FFFB4946FDF7F4FAE5
:103530000949FDF7F9FBFDF7F9FDBDE8F087D36810
:103540000BB19D6F68E7084D66E74FF0000AA4E7EE
:103550000000E0400000FA4200007A440000884089
:103560005A2F863C0000E041000078422DE9F04FE0
:1035700004468BB016F046FB94F8713A04F1140A35
:10358000002B00F0C4802046002205A9FFF7ECFCC8
:10359000BDF818309DF81A001F2B00F0A48000F22F
:1035A0008F800F2B00F0A28000F28380072B00F0A9
:1035B000A08042F6B1025F490A2B18BF0A460628CE
:1035C0008CBF4FF0080B4FF00C0BBBF1080F0CBF7A
:1035D00011231923BDF81C509D4240F3A7800121FF
:1035E000814055480023A1FB0001FDF70FFE236831
:1035F0000646D3F8D8302046984781460520A5EBEB
:103600004B0808F1FF3806FB08F864220023A8FBEA
:103610000001FDF7FBFD09F5FA63A8EB0007BB42CB
:10362000D4F8742A6DD20E357543A7EB0907BD4255
:103630000BFB066608D96B1CA3EB080303444B4441
:103640005B089E4238BF1E46964203D1D4F8783AB2
:10365000BB4203D0C4F8746AC4F8787A374D4FF48B
:10366000004B284600210023E6FB0B01324AFDF700
:10367000CDFD81460E4628460021D4F8088000235F
:10368000E7FB0B012C4AFDF7C1FDD8F808301D6A95
:10369000002D3CD02A4B4A468DE80B00039433465C
:1036A0004046A84798BB0BF01DFF0121C4F89409C0
:1036B00036E045F261121F49142B18BF0A467EE717
:1036C000FA2B19D008D8292B18D04FF224421949C7
:1036D0003E2B18BF0A4672E7164A1A49B3F5FA7F1D
:1036E00008BF0A466BE747F6122268E743F609521D
:1036F00065E741F6846262E7134A60E74AF2C32253
:103700005DE7013203D04FF0FF33C4F8743AA0688C
:10371000224683680A495B6998470028C3DA00217A
:1037200050460BB0BDE8F04F16F0F9B8D4F8743A33
:103730000133E7E748E8010040420F003F420F0035
:10374000FD99010820A1070090D0030038B5036857
:103750000446D3F8D0300D469847B8B104F68C3003
:1037600016F085F8034604F6943016F080F81844F5
:10377000D4F87C3A984202D1D4F8803A3BB9C4F8E4
:103780007C0A012D38BF0125C4F8805A38BD084A8B
:10379000EB1A9342FAD994F8863A072BF6D92368A4
:1037A0002046D3F8C83098472046FFF7DFFEE8E709
:1037B000BF270900F8B503680446D3F8D4300F4694
:1037C0009847002838D094F8A83A33B1D4F8A03AF2
:1037D000D4F8A42AFB1A93422ED3D4F8AC3A23B1DE
:1037E0004EF65F22FB1A934226D9206920B3036864
:1037F0009B68984701460546FDF75CFC0646D8B92C
:10380000284620F0AEF90122164B05B2C4F8A43ABE
:10381000B4F99C3A84F8A82A13F5004FC4F8A07AAA
:1038200002D1A4F89C5A07E0EB1A002BB8BF5B4208
:10383000042B02DC84F8A96AF8BD94F8A93A33B9DC
:1038400043F6982384F8A92AC4F8A43AF4E7236835
:1038500084F8A96A2046D3F8CC3098472046FFF771
:1038600085FEDEE780EE360038B50446183015F0E8
:10387000FEFFA0BB23682046DB6A984778BB16F0A2
:1038800015F8054604F68C3015F0F1FF034604F6F2
:10389000943015F0ECFFD4F87C2A0344934202D113
:1038A000D4F8803A63B90023C4F8983A29462046F0
:1038B000FFF74CFF29462046BDE83840FFF77ABFA6
:1038C000074AEB1A9342F1D9D4F8983A13B1EB1A9C
:1038D0009342EBD9012D2B4638BF0123E4E738BDD5
:1038E000BFD401002DE9F04F03688BB0D3F8BC3092
:1038F0000446884617469847824638B939464046B6
:10390000644A0BB0BDE8F04F12F0FEBCD4F8981931
:10391000002900F08D800A236420D4F89C295A43A2
:10392000D4F8A03902EB5102434303EB5103B2FB3D
:10393000F1F2B3FBF1F10A2594F94D0A94F84C6ABF
:103940000591B2FBF5F105FB112200EB0A03CDE96D
:103950000312CDE90003504A504B4046002E08BFE9
:103960001346CDF808A04E4A27EAE77112F0CCFCC6
:10397000C72F054640445DDDD4F8943A791B039384
:10398000D4F8903A474A0293D4F88C3A0193D4F889
:10399000883A0093D4F8983912F0B6FC054408EB45
:1039A0000500791B94F8503A3F4A12F0ADFC2368A9
:1039B0000544D3F8B43020469847014640B9AF4299
:1039C00008EB0500C8BF791B384A12F09DFC0A3588
:1039D000204616F07EFA8346204616F091FA94F9B6
:1039E0004D9A6FF00702D945B8BFD9468145A8BFA7
:1039F000814609F1FF36B345CABF0BF1020309F155
:103A000001035E468342C4BF0346861E9642B8BF8A
:103A100016460C2BA8BF0C234FF0640B099304EB44
:103A2000C604099BB34209DA28460BB0BDE8F08F03
:103A30000A4680E7AF42B4DC0021B3E7B4F8E429DA
:103A4000B4F8E8C91AB353080BFB0C33B3FBF2F319
:103A50000693B4F8EA39BD42CDE904C3B4F8E639B7
:103A6000B8BF791BCDE902230AEB0603CDE9006359
:103A7000A8BF002108EB0500B14514BF20232A236D
:103A80000B4A12F041FC013605440834C9E71346DD
:103A9000DEE700BFDB6A0208F7780208A37A0208B3
:103AA000E36A0208096B02081E6B0208276B020812
:103AB000326B02082DE9F047B0F84E3A0446002B6D
:103AC00000F0C78015F0F2FE0F4604F527610646A8
:103AD00051E9023253EA020040F08C8041E902676A
:103AE00094F9515A15F1800F23D0D4F8582AD4F8FC
:103AF0005C3A964277EB03031BDB23682046D3F83E
:103B0000B0309847EB000128234440F08180B3F89F
:103B1000EA290132A3F8EA298023204684F8513AA1
:103B200016F01FFB28B994F84C3A13B1204616F052
:103B3000A6FA94F89339002B00F08B80002384F8C8
:103B4000933994F9513A803340F0838023682046BA
:103B5000D3F8B430984700287BD094F89239002BE2
:103B600077D023682046DB6A98478246002870D1C8
:103B700004F52668C4F8606A2046C8F8047016F098
:103B80004AFA23680146D3F8AC30074620469847E6
:103B9000064615F08BFE022E81460D464FD14FF69C
:103BA000EF7304EBC701B1F8E4299A4202D9204629
:103BB00016F017FAB1F8E4390133A1F8E439002E10
:103BC00049D0B1F8E639022E03F10103A1F8E63934
:103BD00041D1236884F8517A2046D3F8B43098470D
:103BE00010EB090045F10005643045F1000548E996
:103BF00002052EE01F48F31A67EB020298424FF0CD
:103C000000039341BFF66CAF204616F0EAF965E772
:103C1000022805D1B3F8E8290132A3F8E8297BE7A7
:103C2000B3F8E42912B1013AA3F8E429B3F8E6297C
:103C3000002A3FF471AF013AA3F8E6296CE7514638
:103C400004F1140015F06BFE2046FFF78FFC002EE8
:103C5000A5DABDE8F087204616F083FA0028F8D1EF
:103C600094F84C3A002BF4D02046BDE8F04716F00B
:103C700006BA00BF00974901F0B50C4B85B01B7820
:103C800093B9D1E902240F7D094B0A4E0D69002F2B
:103C900018BF3346CDE90024CDE90253D1E9002312
:103CA0000146054818F0DDFF05B0F0BD249D002059
:103CB000576B0208526B02085C6B020870B50D4628
:103CC000164604243146284619F03EFE48B14FF40A
:103CD000A47000211DF05DF8013CF3D10148FEF70E
:103CE00073FF70BD9F6B02082DE9F04FDFF89C81D8
:103CF0001D4698F8003004460E46174691B033B979
:103D000009F028FD09F032FD012388F800301DF08C
:103D100020F94FF47A794FF0000BA0FB090309FB5F
:103D200001312022C30B43EA4143DB19DA465F46E7
:103D30004FF0FF384FEAD13106930DEB020041F10D
:103D40000003002107931FF052FCCDE902BBCDF820
:103D500004B01DF0FEF84FF47A73A0FB030C09FBCE
:103D600001C1069B4FEAD03C4CEA414C9C45079B65
:103D70004FEAD13199411EDBBBF10F0F40F3848034
:103D800001981F28D4BF01200020BAF1040FD8BF2A
:103D900000206DB1BBF1000F08BF4FF00008019B80
:103DA000C5E900BAAB60029BC5F80C802B61287591
:103DB00011B0BDE8F08F0BF095FB049008F074FF94
:103DC00005900BF08FFB049BC01A61EB01011028DA
:103DD00071F10001F5D308F067FFC6F3080C059BED
:103DE00014F80C10C01A414004F80C10711CC1F3F7
:103DF000080114F801C08CEA102C04F801C006F187
:103E0000020CCCF3080C14F80CE0F11C8EEA104EF6
:103E100004F80CE0C1F3080114F801C004368CEA80
:103E2000106C04F801C0C0F30D00BBF1000F23D0EB
:103E3000039B984220D1019B0137BB42B8BF3B4650
:103E40000193BAF1070F0BDC00210DF1200C8A451C
:103E500014D110AB03EB8A0141F8200C0AF1010ADE
:103E6000029B804528BF8046834238BF03460BF142
:103E7000010B029303906CE70127E2E75CF8043B37
:103E80009842EDD00131E2E7002082E7239D002037
:103E90002DE9F04FA94EADF5317D04460D46904613
:103EA00000214FF4007230A81F461FF0A0FB3378AA
:103EB0003BB9A34818F0D5FE337813B9A14818F0E0
:103EC000D0FE402130A819F03FFD337881463BB940
:103ED00030A816F0EBF9494602469B4818F0C1FE9F
:103EE000102200210AA81FF082FB10210AA819F055
:103EF0009FFE002301460DF1FF020DF1280C8B42BD
:103F000002DA102B40F08780337813B98F4818F00D
:103F1000A8FEB8F1000F16D0AFB1202F39464246A7
:103F200028BF20210DF20F13571812F8010B13F8B8
:103F300001CFBA4280EA0C001870F6D1337813B979
:103F4000834818F08EFE1822002116A81FF04FFBA0
:103F50007021C82216AB30A8FFF7C6FE074616A987
:103F60007C48FFF789FEB7B9337813B97A4818F05F
:103F700078FE70214FF4C87216AB30A8FFF7B4FE7C
:103F8000074616A97548FFF777FE27B9337813B9A6
:103F9000734818F066FE40218CA819F0D5FC3378E0
:103FA00007463BB98CA816F081F9394602466D48A0
:103FB00018F057FE182200211CA81FF018FB1CAB9C
:103FC00032224FF4D87130A8FFF78EFE66481CA944
:103FD000FFF752FE33781BB92946644818F041FEBA
:103FE0000023079310F0C4FC202307AF00934FF485
:103FF00000725F48019728AB30A91FF0B0F8064661
:1040000010B9079F202F0FD0202128A815F07EFB84
:104010005848FEF7D9FD12F801EF1CF8010B0133E7
:1040200080EA0E0010706AE70146142223A81FF0F0
:10403000DEFA4FF41053ADF888304FF480734E4AD7
:104040000DF12008CDE92432ADF88A3028A9434685
:104050003A4622A8C8F800601EF0B5FF0646394669
:1040600028A815F053FB002ED2D1102231460EA8FD
:104070001FF0BDFA37460DF1240ABD42D8F8000002
:1040800017D90023CAF8003010230DF1380B0DF1B9
:1040900048095A463849CDF808A00193CDF8009058
:1040A00010F026FB18B9DAF80030102B14D04FF0BE
:1040B000FF36D8F800001EF06AFF10210EA815F098
:1040C00025FB002EA4D1012319462544AC421CD166
:1040D00001B933B329489CE7EA1B102A28BF1022F4
:1040E000E019494605921FF075FA059A17444A46A9
:1040F00012F8013D0133DBB213700BB95A45F7D109
:104100001021484615F002FBB7E714F8012B32B135
:10411000FF2A14BF002303F001030021D6E7134652
:10412000D4E730A84FF4007115F0F0FA10210AA876
:1041300015F0ECFA0DF5317DBDE8F08F249D0020DF
:10414000C06B0208E46B02082C6C02085B6C02086E
:104150009C6C0208BE6C0208D06C0208FD6C020860
:104160000F6D02084D6D02087C6D02088E6D02080D
:1041700009000002C76D020800444004E66D020811
:10418000002330B5044689B01A4620216846FFF75F
:104190007FFE6946204614F03BFC65252378013BF1
:1041A000DBB2FD2B05D82021684615F0AFFA09B027
:1041B00030BD013D02D10748FEF706FD00236846E9
:1041C0001A462021FFF764FE6946204614F020FCC1
:1041D000E4E700BF116E0208014B1870704700BF82
:1041E000259D0020014A12F08FB800BF376E0208EB
:1041F00038B504464068FCF743FD0649FCF748FE25
:1042000005462068FCF73CFD01462846FCF784FC87
:1042100038BD00BF00247449084B1B685BB9084BCC
:104220001B6843B9074B1B68003B18BF0123064AB4
:104230000020137070470123F9E700BFFC4D0020F8
:10424000F84D0020F44D0020299D0020014B1878E6
:10425000704700BF299D002073B5484D1C220021E6
:1042600004461FF0C4F9286860B316F054F848BB40
:104270006A460D21286816F052F828B96846FFF7FB
:10428000B7FF0123206023756A461021286816F0C5
:1042900046F828B96846FFF7ABFF012360606375F5
:1042A000374B1B7873B16A460E21286816F037F831
:1042B00040B96846FFF79CFF3249FCF735FD012302
:1042C000A060A375304E306818B3A37D0BBB2B687C
:1042D000984201D016F01FF86A460E21306816F099
:1042E0001EF840B96846FFF783FF2649FCF71CFD1E
:1042F0000123A060A375237D5BB96A460D21306858
:1043000016F00DF828B96846FFF772FF0123206008
:1043100023751E4D2868F8B115F0FDFFE0B96A4617
:104320001221286815F0FBFF28B96846FFF760FFE7
:10433000012320612376237D5BB96A460D2128681D
:1043400015F0EDFF40B96846FFF752FF01232060EA
:104350002375002002B070BD237D002BF9D1637D51
:10436000002BF6D1A37D002BF3D1237E002BF0D1BF
:10437000E37D002BEDD16FF03C00EBE7FC4D00201E
:104380002A9D002000002041F84D0020F44D00201F
:10439000014B1878704700BF269D00202DE9F0439F
:1043A0004422002185B004461FF021F93D4B1B78C3
:1043B000002B70D03C4D286800286CD03B4B1B78FC
:1043C000022B41D10026B146394F3B7884F840306A
:1043D0003B78B34203DC002005B0BDE8F083013632
:1043E000CDE9026928688368D3F80080B8F1000F2E
:1043F00028D014224C2102ABC04718BB286815F006
:104400008AFFF8B96A462A21286815F088FF18B98A
:104410006846FFF7EDFE20606A462C21286815F0FB
:104420007EFF18B96846FFF7E3FE60606A462D21FB
:10443000286815F074FF18B96846FFF7D9FEA06028
:10444000012323731034C3E7012384F8403015F0AF
:1044500062FF18BB6A462A21286815F060FF18B968
:104460006846FFF7C5FE20606A462C21286815F0D3
:1044700056FF18B96846FFF7BBFE60606A462D21FB
:10448000286815F04CFF18B96846FFF7B1FEA06028
:10449000012323739FE76FF012009DE76FF0040084
:1044A0009AE700BF269D0020F04D0020289D0020A7
:1044B000279D002070B4CE7D46B1CD68541B054DBC
:1044C000AC4203D81BB970BC16F02CB8002370BCEA
:1044D00018467047809706002DE9F84F032B0646D3
:1044E000894690461F460A9D2FD816F007F80446C5
:1044F000A0B38668464528D2C1689620691AA8EB01
:104500000606761A4FF000033C4AA1FB000169EB56
:104510000909FCF72BFE10F12D020B4641F10001B9
:10452000B24271EB09010ADB6FF02C024FF0FF3150
:10453000121A61EB0303964279EB030307DA0123B6
:104540002561A382C4E90285A775BDE8F88F4FF6FF
:10455000FF72A38A9342F5D00133F2E71821034694
:1045600006F1170001FB03F210F802C0BCF1000FC6
:104570000ED1B418D9F800302360D9F80430C4E95A
:104580000285636001232561A382A775E375DCE7DB
:104590000133202BE6D131464FF0000A4FF0180BC3
:1045A0002A46304615F0BEFFCB6818B11448EA1A07
:1045B000824217D98A7DBA4214D9ECB1A07D8242D9
:1045C0001AD803D1888AA28A904215D30BFB0A62BB
:1045D00060695269424032F07F4203D1E2689342FF
:1045E00038BF0C460AF1010ABAF1200F01F1180197
:1045F000D6D1002CBED1A8E70C46F3E740420F000D
:1046000080510100034690F8100338B1D3F80C3301
:104610000348C91A81428CBF00200120704700BFA7
:104620007F3A09002DE9F3478A46164600211822F1
:1046300004461D461EF0DBFFDAF800733246BE4228
:104640002CBF002301235146237404F1180000936A
:104650002B4615F074FF237E1BB940F20123238003
:1046600014E0BE422ED2A37E022B02D840F20133C8
:10467000F5E7D4E90832B3F1960642F1FF32B6F518
:10468000167F72F1000305DA01236370204602B041
:10469000BDE8F08729465046FFF7B4FF08B105236F
:1046A000F3E79AF8203343B145F25F41DAF81C335F
:1046B000EB1A8B4201D80623E7E70223C4E9026222
:1046C0002370E3E7637E052BD0D9A27EB3EB420FC4
:1046D00002DB40F20143C2E7D4E90887002F4646D7
:1046E000B94602DA764267EB4709B6F5167F79F1EB
:1046F0000003C9DB29465046FFF784FF0028CED1CE
:104700009AF8203333B145F25F42DAF81C33EB1AE2
:104710009342D0D99AF81833ABB14FF49670DAF8C7
:104720001433154AED1AA5FB00010023FCF71EFD0A
:1047300010F5167041F10001B04271EB090102DA87
:1047400040F201738BE7022318F5616F424640F691
:10475000116123703B4677F1FF37BCBF4FF0FF3349
:10476000064A8A4273F10001A4BF4FF4616200233C
:10477000C4E902238AE700BF40420F00F0F1FFFFC7
:104780000138C0B206289ABF024B53F820000248F5
:10479000704700BF20540208A37102082DE9F04FB2
:1047A000B1B00B9305463A9B8846164601460B9AD4
:1047B00016A89DF8ECA0FFF735FFDDE91E799DF8FE
:1047C00058209DF86830022A9DF87040099340F007
:1047D0003581DDE9181095F8042322B1002880F214
:1047E000A081B74A04E0B74B8B428241B64A07DB4F
:1047F0004FF0FF3CB54B994270EB0C0C00DB0B46C5
:10480000B348B149DDF824C0BCF1000F18BF014620
:1048100022A8CDE900123821AE4A11F075FDBAF197
:10482000000F00F03081AC4BA74A9DF871109DF845
:1048300072009DF873C0002C00F028814FF0000E2C
:10484000A04CBC427EEB090E07DB4FF0FF3E9F4CB5
:10485000A74279EB0E0EA8BF3C46209F0DF1880EB3
:10486000CDE90110CDE903C4009231464046CDE9BF
:10487000057E9A4A11F048FD041EC0F24D81B442F3
:1048800080F04A81D5F82C33FBB1D5E9CE1C00204D
:104890008C4AD5F830738A4270EB0C0007DB4FF07E
:1048A000FF308A4A91427CEB0000A8BF0A46CDE95E
:1048B0000072311B08EB0400894A11F025FD241811
:1048C00000F12A81B44280F02781D5F834335BB1FE
:1048D000311B08EB0400834A11F016FD241800F187
:1048E0001B81B44280F0188128463A99FFF78AFE6E
:1048F00098B13A99284615F0ACFF4FF46163311B2B
:10490000B0FBF3F3784A08EB040011F0FDFC241827
:1049100000F10281B44280F0FF80D5F82833311BCA
:10492000009308EB0400D5F82433704A11F0ECFC36
:10493000241800F1F180B44280F0EE8005F5407358
:104940000A934FF0000A2B46DA7D0AB10AF1010AF8
:104950000A9A18339342F7D14FF0000BD946CA4553
:1049600040F3A9802F468BF001030F93FB7D002BB2
:1049700000F09580099B394628463A9AFFF79AFD40
:104980000F9B834240F08B8008EB04030893331B9A
:104990000C933B783A9A0D937B78B98A0E93FB6817
:1049A0006329A2EB0303BA6828BF63219B184FF069
:1049B000000242EB020E0B9A97F816C09B1A414A6E
:1049C0006EF1000E9A424FF0000272EB0E025FDBB6
:1049D0003E4A93424FF0FF327EEB02025ADBDFF891
:1049E000E8E0434ACDE901C1002808BF7246CDE99D
:1049F00003320E9B3F4A0093311B0D9B08EB0400D2
:104A000011F082FC002802DB2044B04244D3002392
:104A1000089ACA4513704EDDAAEB09031821364ADD
:104A200010A811F071FC0C9B0546834243D9421C2F
:104A300010A908981EF0CEFD2C443CE0BDF858307B
:104A4000B3F5807F15D1B9F1000F3B464A4602DA33
:104A50007B4269EB490240F22D118B4272F1000258
:104A6000B4BF264B264B274A382122A811F04CFC14
:104A7000D5E69DF85900FFF783FE03460AB9224A9E
:104A8000F2E7224AF0E7224B224ACEE62746E5E645
:104A90000C4BA4E70D4BA2E7044609F101090A9B60
:104AA00018379F427FF462AF0BF10103022B4FF0E6
:104AB000010B7FF454AF204631B0BDE8F08F00BF4A
:104AC0004D6E020800943577A98C0208006CCA88E4
:104AD000666E02088C6E0208A37A0208B06E0208A5
:104AE000E56E0208056F0208136F02081D6F0208C9
:104AF000896E0208316F02084D6F0208736E02085A
:104B0000766E0208AB710208996E0208A36E020865
:104B1000F77802087E6E02080023741E08F804303D
:104B2000C9E70022024B8B428241024A66E600BF7F
:104B300000943577A98C0208034BD3E8AF0F0038F7
:104B400018BF0120704700BF0C4E0020024610B570
:104B5000044BD3E8EF1FC3E8E42F002CF9D105F094
:104B6000C3FA10BD0C4E0020034BD3E8EF2FC3E86F
:104B7000E10F0029F9D17047084E0020024BD3E81D
:104B8000AF0FC0B2704700BF044E0020034BD3E804
:104B9000EF2FC3E8E10F0029F9D17047044E002040
:104BA000034BD3E8AF0F003818BF0120704700BF98
:104BB000004E00201FB508B1002303700E4818F006
:104BC0006FFC6946002005F091FC014630B9009861
:104BD000826818F04CF9009818F01EF9064808F0A1
:104BE00063FB6946054818F038FCB0FA80F04009CC
:104BF00005B05DF804FB00BF840200209D6F020831
:104C000010B50446FEF7D2F8014B2046236010BDD4
:104C10004C54020810B504464FF400620349FEF7F5
:104C20007FF92046BDE8104015F069B8D0A30020F8
:104C3000014814F0C0BD00BF28020020014640F228
:104C4000E7304FF47A72002310B500EBC130490C05
:104C5000FCF7DCFABDE8104002460B4601480DF0B7
:104C600081BD00BFF001002038B5064D2B681BB197
:104C7000441E14F8011F01B938BD286815F07FFEE5
:104C8000F7E700BF4453002010B5044690B0A36876
:104C90005B6CBBB9A3681B6CD3B9A3685B6BE3B94E
:104CA000A3689B69002BF2D04022694620469847B2
:104CB000021EECDD69460B4818F02FF80A480DF08B
:104CC000A9FCE4E7204698470028E3D110B010BDC6
:104CD000204698470028E0D1F8E72046984700286A
:104CE000D5D0DDE7305300203002002013B5144B3F
:104CF000186810B303685B6B9847322838BF3220BE
:104D00004EF660239842044628BF1C464FF4004CE0
:104D100040F2E73000214FF47A720023E4FB0C01EB
:104D2000FCF774FA02460B4600210020CDE9000191
:104D300004480EF0E3FA02B010BD4EF66024E5E739
:104D40002C530020F8050020014601481CF0CFBA82
:104D50004C53002030B52E4CC3B00DF10705012295
:104D600029462C4817F0F9FF012801D043B030BD87
:104D70002978294A0D291378117045D00A291CD1A8
:104D80000D2BEAD000252388244A2449D55402A8B3
:104D9000FF221EF07BFC8DF80751002200232048E3
:104DA00002A91BF0D9FD20B90420FFF7CDFF258013
:104DB000D3E71C48FFF758FFF9E77F29238801D084
:104DC000082913D1002BC8D0174D013B2868238038
:104DD0000028C2D0082115F0D2FD2868202115F046
:104DE000CEFD0821286815F0CAFDB6E7FE2BB4D821
:104DF0000D4B186808B115F0C2FD238829785A1C9C
:104E00002280064AD154A8E70D2BBBD00A2BB8E765
:104E1000209D0020305300202C9D00202D9E00203E
:104E2000B4060020A26F02084453002010B5029C73
:104E3000039B012C73F100030FDB2146074815F09B
:104E400009FA074BD3E8EF2FC3E8E14F0029F9D166
:104E5000BDE810404020FFF777BF10BD2053002071
:104E600048530020024B1B680BB183F820037047A6
:104E70002C5300207FB50024144E154B154D1648B9
:104E800033607460B46016F09AFF2346134A1449E5
:104E90001448FFF7B5FE2846134B21464FF4A06295
:104EA00040F8043B1EF0A3FB104BC5F80445C5F8C1
:104EB0000C45C5F808450B4A0093CDE901650C4B3C
:104EC00006490C4800F080FC04B070BD205300205F
:104ED00008540208104E00202B9D002028020020BC
:104EE000E83E020840380020305502082002002029
:104EF00024020020E80600202DE9F7432C4B1B6814
:104F0000002B51D02B4C2046FEF7A0F8054620463A
:104F100014F0E4FD06462046FEF7B2F807462046A8
:104F200014F0E9FD8046204614F0FCFD8146204641
:104F300014F08AFC00B243463A463146CDE900906F
:104F4000284605F06FF9204614F0EAFD0546204694
:104F500014F0DEFD0646204694F8718A14F06BFCCE
:104F60000746204614F086FC04F11803D3E8AF3F4F
:104F7000003B18BF01234246CDE9000331463B46C2
:104F8000284605F065F904F68C33D3E8AF0F04F535
:104F90003963D3E8AF1F04F69434D4E8AF2F03B0DD
:104FA000BDE8F04305F06AB903B0BDE8F08300BF87
:104FB0002C530020403800202DE9F041B048DCB0EF
:104FC00014F0FFFBAF4C20461BF0CDFB50B1226923
:104FD000A1681368204643F0800313600B68AA4A57
:104FE00007219847A94801F015F908B9FFF7E2FD34
:104FF000A6481CAD01F0F2F815F072F9FFF70CF9B4
:1050000015F090F9284615F037FC18B12968A0482A
:1050100015F020F915F066F99E4C60B19E4815F028
:105020005DF99E4815F05BF9D4F8280315F063F993
:10503000012015F05BF99A4E05F0D2F815F017FC37
:10504000FFF704F9346097481CF04BF9964F974BE3
:10505000974AC7F8D43A0023C7F8DC2A954A04A82F
:10506000C4E91423944AC7F8D83AC4E91623C7F808
:10507000E03A13F0C1FC854804A901F017F930B9F2
:1050800004A8FFF77DF8814804A901F055F9DFF87D
:105090002C82602204A98A481EF09CFA41467B4873
:1050A00001F042FB94F82003C7F80C80003818BFC9
:1050B0000120FFF74BFD94F82103FFF755FD94F80D
:1050C0002203FFF763FD7149A8F5287016F097FBDE
:1050D00094F8A4322BB17B4908F10400FCF7B0F836
:1050E00088B90821284618F0A3FD03280BDDEB78CA
:1050F00020210293AB78744A01936B787348009334
:105100002B7811F001F994F8B0136748003918BFF3
:10511000012114F0F5FB94F8B1136348003918BF6E
:10512000012115F004FC94F8B2135F48003918BF50
:10513000012115F052F894F8C03394F8B613019396
:1051400094F8B9330039009318BF012194F8B833AB
:1051500094F9B723544814F0E8FE534894F8C083F8
:1051600014F075FB804597F94D3A03D194F9B723B4
:105170009A4209D04C4884F8B73314F068FB84F89D
:10518000C003444815F0E2FD94F8BE03504C0038CB
:1051900018BF012004F002FF4C4805F083F8FFF728
:1051A000ABFE4C4804F0CAFF354814F004FB002164
:1051B00005F06CF815F096F805F082F84FF4A0228F
:1051C000002345480DF096FA444820601BF0CBFAC6
:1051D000002852D0424B434A4FF400711A6000221B
:1051E000C3E901222068DA60196183681BB19B6CF6
:1051F0000BB13D499847206883689B6A03B1984783
:105200003A48FFF731FDFFF771FD394F4FF0FF339B
:105210004FF0FF3240F2FF11CDE900232148002278
:105220001CF06CF8044601461E481CF063F8E306C7
:1052300001D515F06FF8600762D53368002B5FD099
:105240000022294600232B480CF01EFF014630683F
:10525000002955D13B462A46397000F0D5FBFFF7AF
:105260004BFE3B782BB12448FFF7FEFC3846FFF796
:10527000FBFC2248FFF7F8FCDFE72060C0E700BF37
:1052800028020020483E020801000A002B9D002051
:1052900020530020E80600202D4E00080DAA01082A
:1052A0002C5300204C5300204038002007AA01084E
:1052B00001AA01083D4C0008F9A90108880900204D
:1052C000FC080020B06F0208B96F02088C090020AA
:1052D00044530020314C0008C0010020883E0208E1
:1052E000305300202D9F0020894C0008D36F020806
:1052F0002D9D0020B4060020F16F0208EE6F020819
:10530000306840B1210606D5036800224FF4FA71D7
:10531000D3F8D0309847306828B140F227131C42A8
:1053200001D016F020FC306808B113F026FD2207EA
:105330000AD5306808B116F016FC154814F074FF51
:1053400004F0AAFFFFF7D8FD63061DD5114BD3E883
:10535000AF0F15F093FA3468B4B11BF0FAFD4FF4B7
:105360007A72A0FB020302FB0131C00B40EA41400C
:105370004FF47A720023C90BFBF7F8FE014604F5DF
:105380003850183015F0C2F9FFF7B0FC3EE700BF07
:10539000205300204853002008B54FF07E51D0F82C
:1053A000A002FBF7B9FB01460548FBF771FD4FF082
:1053B0007C51FBF7B1FBFBF7B9FEC0B208BD00BFE3
:1053C0000000C84200487047F96F02080048704763
:1053D000F96F0208004870470970020800487047DA
:1053E000097002080048704750740208004870476E
:1053F000507402080048704700A30200004870473C
:1054000000A3020010B590F8EE12044621B1044B3F
:10541000594312F0C9FF0146C4F8901210BD00BFF5
:10542000C0D4010010B590F8EF12044621B1044B2E
:10543000594312F0B9FF0146C4F8941210BD00BFE1
:1054400080EE360003462DE9F341D0F878025E6E17
:105450009F6EB3F86C8003680C461B6898473368EE
:1054600005461B68304698473B6806465B693846E8
:1054700098474FF47A73CDE90080B6FBF3F32A46E0
:105480002046034910F06AFF02B0BDE8F08100BF7A
:10549000157002082DE9FF47046ED0E905A52368C1
:1054A00020461B6A0F469847236806469B6B20469A
:1054B000984723688046DB6B2046984781464046E4
:1054C000FBF70EFE4FF47A73B5FBF3F5BAFBF3F37B
:1054D0000FFA80F8484602930395FAF7ADFF36B20B
:1054E000CDE90001434632463846034910F036FF05
:1054F00004B0BDE8F08700BF537002082DE9F04FFB
:10550000046E87B02368D0E91089D0E912AB9B6E96
:1055100020460D46984723680646DB6E204698478E
:10552000236807461B6F204698473B46CDE903B0EA
:1055300032462846CDE9019A0349CDF8008010F0A3
:105540000DFF07B0BDE8F08FA770020810B5406FDF
:1055500088B003681B68984700230446069006A895
:10556000079310F017FEA8B14369302103F26C7362
:10557000049303690B4A01330393C36802930368DE
:105580000193436800938368074810F0BDFE064806
:1055900008B010BD23463021044A034810F0B4FE81
:1055A000F5E700BF087102082DA100201777020857
:1055B0002DE9F04F80460E46002500F51353B9B093
:1055C000283300F53652596A31B138A8691C00EB0E
:1055D000850545F8C83C0DB22C339342F3D106AB98
:1055E0000022994605F1FF3A524514DB3446002764
:1055F0004FF00A0ABD4202DDA31B852B21DDB44218
:1056000004D120462049FBF725FE063400232370F1
:1056100039B0BDE8F08F01321C461746BD4201DCAF
:105620000433E1E760681968D0F824C0D1F824E0B9
:105630000137F44588BF186004F1040488BF216075
:10564000ECE759F827B00FB104F801AB0422594632
:1056500003A8FDF7C9FAD8F8740003681B689847D7
:10566000DBF824309BF92820C31A00922046074912
:1056700003AA10F073FE23461C4613F8012B002AE0
:10568000FAD10137B6E700BF9E7102089571020892
:1056900070B504460D4610460649FBF745FBFBF77F
:1056A0001FFD294603B267222046BDE8704015F071
:1056B00093BB00BF000020412DE9F0410546406F3B
:1056C0001F46036890461B68069C9847014605F5EF
:1056D0001250383015F00CFC48B354B33B7805F544
:1056E000805686F8E83953B105F5CD50621E791C15
:1056F000083013F0ECFE10B9FF2386F8E839C6F83D
:10570000F088686F05F5C754036818341B6898471C
:105710000949C6F8F40805F54E7305F529722046C7
:1057200010F01CFE2046FBF79DFD0830C0B2BDE81E
:10573000F0812046FBE700BFA871020870B590F821
:10574000ED420546ACBB0A78104615F073FB70B30A
:105750000B7995F81C6303F03F039E4229D902F0B0
:105760000306012E03D195F81D639E4221D902F054
:105770003C02102A03D195F81E239A4219D905F547
:105780000053D3F89034B3B195F8D13363B1012B02
:105790000BD00A4A0A48022B08BF0246284615F0D9
:1057A0007EFE80F00100C0B270BD064AF6E701201F
:1057B000FAE70020F8E71846F6E700BFD00500201A
:1057C000D4050020D80500202DE9F043044685B01B
:1057D00004200E46154698460D9F17F045F808B16F
:1057E0007D4B03600E9B42462946CDE9010300979D
:1057F0000C9B2046FCF79EFC784B04F582692360E5
:1058000003F59C7304F58055C4E99D36484615F0B0
:1058100026FBC5F8186800200026002104F51D733A
:10582000C5F8283804F5287804F5C153C5F81C7864
:10583000C5F8209885F8E068C5F82488C3E93201E6
:1058400004F5C550664910301BF0B2F9C5F80C6B71
:1058500004F5CF550C3504F5D8502946103001F029
:10586000CFFB294604F5FE5001F0CAFB782204F56F
:10587000005504F513570423C5F8AC242837B42287
:10588000C5F8B064A5F8B464C5F8C064A5F8C464EC
:10589000C5F8D064A5F8D4643E46C5F8A834C5F868
:1058A000B834C5F8BC24C5F8C834C5F8CC2404F510
:1058B000365930462C3613F08DF84E45F9D104F5A3
:1058C000385000224749183014F0F3FD002600221A
:1058D000002304F51250C4E9A223C4E99F66C4E979
:1058E000A4661022C5F8E464C5F8846DC5F8806D1F
:1058F000314684F89862153085F8E064C5F8906404
:1059000085F894641DF073FEC5F8D864C5F8DC64AE
:1059100038462C3715F000FB4F45F9D14FF4B872DB
:10592000002140461DF063FE2F4B0F22C4F8A03229
:105930002E4904F536701DF0A9FE0F222C4904F5FE
:105940003E701DF0A3FE2B4B0125C4F8E83240F257
:105950000753A4F81433162384F8EC322F2384F869
:10596000EF32254B2549C4F80C334FF07C53C4F873
:10597000F432234B84F8B653C4F80833214B84F82F
:105980000354C4F8183344F24003A4F81C3308232A
:1059900084F81E334FF49673C4F8283340F2011391
:1059A000A4F8B03340F60F73A4F8B8334FF6FF7382
:1059B00084F80854A4F80A3404F52970FBF74AFC6B
:1059C0000223204684F82C3384F8D13384F8CF5353
:1059D00005B0BDE8F08300BF6452020844550208D8
:1059E0008DC70108A29B9A6A00001041B577020892
:1059F000A98C02088D675944CDCC4C3EB06F02088B
:105A00009A99993E00007A422DE9F04300F500583A
:105A100098F8E0C406460F4614461D4695B0BCF102
:105A2000000F04D015B0BDE8F04300F0DBB81AB1A8
:105A3000511E11F8013F23B900232B7015B0BDE8AA
:105A4000F083093BDBB2172B04D85B4A22FA03F33D
:105A5000DB07EED42246144612F8013B202BFAD085
:105A60002046FBF7FFFB04280AD9A3787C2B07D13B
:105A70002388033525F8033CA378033405F8013C5B
:105A8000082220464D491DF0C1FD814600284AD11B
:105A90000834202120461DF0C9FD074630B9484989
:105AA000284615B0BDE8F043FBF7D4BB204607F805
:105AB000019BFBF7D7FB02282AD849461022204633
:105AC00010F090FF5FFA80F93846FBF7CBFB4028D7
:105AD00028BF402044103A46214603A813F01EFE7A
